S0140000576174657253656E736F72732E7372656320
S113000011C2000037C2000035C200000CC6000057
S11300100AC6000008C600002DC200002BC2000062
S113002029C2000027C2000025C2000023C200002C
S113003021C200001FC200001DC200001BC200003C
S11300400C94C82517C200000C94F4230C942624A5
S113005011C200000FC200000DC200000BC200005C
S113006068C2000007C200009E03A103A103A1030C
S1130070A103A103A103A103B902A103A103A10345
S1130080A103A103A103A103B902A103A103A10335
S1130090A103A103A103A103C102A103A103A1031D
S11300A0A103A103A103A103E602A103A103A103E8
S11300B0A103A103A103A103C102A103A103A103FD
S11300C0A103A103A103A103EB02A103A103A103C3
S11300D0A103A103A103A103F002A103A103A103AE
S11300E0A103A103A103A1030103A103A103A1038C
S11300F0A103A103A103A1032A03A103A103A10353
S1130100A103A103A103A103F502A103A103A10378
S1130110A103A103A103A1030F03A103A103A1034D
S1130120A103A103A103A1032C03A103A103A10320
S1130130A103A103A103A1032C03A103A103A10310
S1130140A103A103A103A1032C03A103A103A10300
S1130150A103A103A103A1032C03A103A103A103F0
S1130160A103A103A103A1033503A103A103A103D7
S1130170A103A103A103A1036503A103A103A10397
S1130180A103A103A103A1033503A103A103A103B7
S1130190A103A103A103A1036503A103A103A10377
S11301A0A103A103A103A1034D03A103A103A1037F
S11301B0A103A103A103A1036903A103A103A10353
S11301C0A103A103A103A1036903A103A103A10343
S11301D0A103A103A103A1037E03A103A103A1031E
S11301E0A103A103A103A1039803A103A103A103F4
S11301F0A103A103A103A10398034E414E494E4913
S11302005459494E46CDCCCC3D0AD7233C17B7D1DF
S11302103877CC2B329595E6241FB14F0A00002085
S1130220410000C84200401C4620BCBE4CCA1B0E04
S11302305AAEC59D7400407A10F35A00A0724E184D
S1130240090010A5D4E80000E87648170000E40B84
S113025054020000CA9A3B000000E1F5050000804A
S1130260969800000040420F000000A086010000A4
S113027000102700000000E80300000000640000F4
S11302800000000A00000000000100000000002C33
S113029076D888DC674F0823DFC1DFAE59E1B1B7F8
S11302A096E5E3E453C63AE651997696E8E6C284C5
S11302B026EB898C9B62ED407C6FFCEFBC9C9F40DD
S11302C0F2BAA56FA5F490055A2AF75C936B6CF902
S11302D0676DC11BFCE0E40D47FEF520E6B500D0D8
S11302E0ED902E0300943577050080841E080000ED
S11302F0204E0A000000C80C333333330F986E12BB
S1130300831141EF8D2114893BE65516CFFEE6DBC0
S113031018D1844B381BF77C1D901DA4BBE424200A
S11303203284725E228100C9F124ECA1E53D2720CC
S113033020202020202020202020202020202000D9
S11303404572726F72206E756D62657220666F728F
S11303502074686520617272617920746F206176FF
S1130360726167696E67212F6E004572726F722029
S11303706E756D62657220666F72207468652061A7
S11303807272617920746F206176726167696E6739
S1130390212F6E00556E6578706563746564206EF8
S11303A0756D626572206F66206279746573207260
S11303B0656365697665643A200000000008000200
S11303C00100000304070000000000000000010217
S11303D004081020408001020408102001020408CF
S11303E010200404040404040404020202020202AD
S11303F00303030303030000000023002600290075
S113040000000000250028002B000000000024004C
S113041027002A00CB05690CBE1F2E20D4205424AB
S1130420CC1F3C2011241FBECFEFD8E0DEBFCDBFD0
S113043011E0A0E0B1E0E8EEF1E602C005900D9213
S1130440A63EB107D9F726E0A6EEB1E001C01D92A1
S1130450A331B207E1F712E0C0E1D2E004C0219772
S1130460FE010E94482ACA30D107C9F70E9482249B
S11304700C94E830C5CD1092530281E08093510270
S11304801092500261E082E10E94442761E083E11E
S11304900E944427E9EBF0E080818E7F8083808195
S11304A08D7F808388E48093B80085E48093BC00CA
S11304B00895880F8093BA0008956132C8F420919A
S11304C053022430B9F4609308026623A9F0FC01B6
S11304D0AAE0B2E06150262F30E02F5F3F4F280F93
S11304E0391F91919D93E217F307D9F780E008959E
S11304F081E0089582E0089580E0089590934D028C
S113050080934C02089590934F0280934E02089575
S113051085ED8093BC00ECEBF0E0808184FDFDCFA1
S113052010925302089585EC8093BC0010925302FC
S113053008951F920F920FB60F9211242F933F9399
S11305404F935F936F937F938F939F93AF93BF93D7
S1130550EF93FF938091B900E82FE87F8E2F90E00E
S1130560893C910508F0EDC0FC01EC5CFF4F0C9454
S1130570482A809152028093BB0085EC8093BC0092
S1130580E0C090912B0280912A02981780F4E091A8
S11305902B0281E08E0F80932B02F0E0E45DFD4F8F
S11305A080818093BB0085EC8093BC00CAC080919D
S11305B05102882311F0ACDFC4C081E08093500263
S11305C084EA8093BC0010925302BBC080E2809303
S11305D0E6019EDFB6C080E38093E60199DFB1C0F7
S11305E088E38093E6019FDFACC0E0912B0281E0B9
S11305F08E0F80932B028091BB00F0E0E45DFD4FF1
S1130600808390912B0280912A02981720F485EC24
S11306108093BC0096C085E88093BC0092C0E091B2
S11306202B0281E08E0F80932B028091BB00F0E0BF
S1130630E45DFD4F808380915102882311F068DFCF
S113064080C081E08093500284EA8093BC001092C1
S1130650530277C05DDF75C083E08093530210922C
S1130660E70185EC8093BC006CC08091E701803287
S113067080F4E091E70181E08E0F8093E70180919F
S1130680BB00F0E0E851FE4F808385EC8093BC0012
S113069058C085E88093BC0054C045DF8091E701D1
S11306A0803230F4E091E701F0E0E851FE4F10822F
S11306B06091E70170E0E0914C02F0914D0288EE08
S11306C091E009951092E7013CC085E88093BC0055
S11306D038C084E0809353021092090210920802F9
S11306E0E0914E02F0914F02099580910802811128
S11306F005C081E08093080210920A02E091090289
S113070081E08E0F80930902F0E0E65FFD4F808167
S11307108093BB009091090280910802981720F4FD
S113072085EC8093BC000DC085E88093BC0009C0B3
S113073085EC8093BC001092530203C01092E60132
S1130740E7DEFF91EF91BF91AF919F918F917F91E0
S11307506F915F914F913F912F910F900FBE0F902A
S11307601F901895A4E0B0E0E8EBF3E00C94682A3D
S11307709A8389837C836B8389819A812B813C81D1
S1130780FC01338322832496E2E00C94842AA2E0C1
S1130790B0E0EDECF3E00C94682A9A8389838981B4
S11307A09A8122EE31E0FC013183208389819A8190
S11307B0FC01138212822296E2E00C94842AA2E0C5
S11307C0B0E0E5EEF3E00C94682A9A83898389818A
S11307D09A81DDDF89819A8121E631E0FC01318350
S11307E0208329813A8188EE93E0A0E0B0E0F9010A
S11307F084839583A683B7832296E2E00C94842AAB
S1130800A2E0B0E0E6E0F4E00C94682A9A838983DD
S113081089819A81D4DF89819A8121E531E0FC01C3
S1130820318320832296E2E00C94842AA2E0B0E093
S1130830ECE1F4E00C94682A9A83898310927402A0
S113084010927502109296021092970214DE22966C
S1130850E2E00C94842AA3E0B0E0E1E3F4E00C9439
S1130860682A9A8389836B838B8123DE80E795E0F2
S11308704ADE8AE295E042DE89819A81D7DF2396B7
S1130880E2E00C94842AA3E0B0E0E9E4F4E00C9400
S1130890682A9A8389836B83809198028823F9F06C
S11308A080919702803240F089819A8161E070E002
S11308B059DF80E090E019C080919602882F90E083
S11308C02B818A589D4FFC012083809196028F5F73
S11308D080939602809196028093970204C0CE0181
S11308E0039661E0EADD81E090E02396E2E00C9477
S11308F0842AA8E0B0E0EFE7F4E00C94682A9C8333
S11309008B837E836D8358874F83809198028823DD
S113091029F11A8219821AC08B819C81FC01808181
S11309209181FC01208131814D815E8189819A818F
S1130930840F951FFC0140818B819C81642FF901F8
S1130940099589819A8101969A83898329813A81BB
S11309508F81988528173907F8F205C02F818D817A
S11309609E81622FAADD8F8198852896E2E00C94FF
S1130970842AA2E0B0E0EFEBF4E00C94682A9A83B6
S1130980898380917502282F30E080917402882F2A
S113099090E0A901481B590BCA012296E2E00C948D
S11309A0842AA4E0B0E0E7EDF4E00C94682A9C8388
S11309B08B838FEF9FEF9A83898390917402809148
S11309C07502981788F480917402882F90E08C5AED
S11309D09D4FFC018081882F90E09A8389838091C8
S11309E074028F5F8093740289819A812496E2E075
S11309F00C94842AA4E0B0E0E0E0F5E00C94682ACA
S1130A009C838B838FEF9FEF9A83898390917402E9
S1130A1080917502981760F480917402882F90E099
S1130A208C5A9D4FFC018081882F90E09A838983A2
S1130A3089819A812496E2E00C94842AA2E0B0E0B1
S1130A40E4E2F5E00C94682A9A8389832296E2E032
S1130A500C94842AA5E0B0E0E0E3F5E00C94682A65
S1130A609B838A837D836C8380919B0290919C02FB
S1130A70892B09F431C09091740280917502981702
S1130A8008F42AC0198213C08981882F90E0298133
S1130A90222F30E04A815B81240F351FF901208128
S1130AA08C5A9D4FFC01208389818F5F89838981C2
S1130AB0282F30E08C819D81281739072CF3109260
S1130AC074028C818093750220919B0230919C0268
S1130AD08C819D81F90109952596E2E00C94842A84
S1130AE0A0E0B0E0E6E7F5E00C94682A8091990272
S1130AF090919A02892B09F40AC0109296021092DE
S1130B0097028091990290919A02FC010995E2E082
S1130B100C94842AA4E0B0E0E0E9F5E00C94682A9F
S1130B209A8389837C836B838B819C8190939C02C1
S1130B3080939B022496E2E00C94842AA4E0B0E023
S1130B40E4EAF5E00C94682A9A8389837C836B83B6
S1130B508B819C8190939A02809399022496E2E07F
S1130B600C94842AA4E0B0E0E8EBF5E00C94682A45
S1130B709A8389837C836B8389819A81019739F471
S1130B808B819C81019619F48DE992E039DE2496DB
S1130B90E2E00C94842AA0E0B0E0E1EDF5E00C94EE
S1130BA0682A6FEF7FEF81E090E0DCDFE2E00C94F5
S1130BB0842AA2E0B0E0EFEDF5E00C94682A898382
S1130BC06A832296E2E00C94842AA4E0B0E0EBEE7F
S1130BD0F5E00C94682A9C838B838B819C819A8397
S1130BE0898389819A810197F1F79A83898324966D
S1130BF0E2E00C94842AA2E0B0E0E1E0F6E00C9498
S1130C00682A9A83898389819A81FC0186859785DC
S1130C10FC01208189819A81FC01858582232296A9
S1130C20E2E00C94842A1F920F9200905F000F92CE
S1130C3011242F933F934F935F936F937F938F93DD
S1130C409F93AF93BF93EF93FF93CF93DF93CDB76E
S1130C50DEB72B97DEBFCDBF8091A9029091AA0287
S1130C60892B09F4F4C08091A9029091AA029A8375
S1130C7089831B8289819A81FC01868D82708823F5
S1130C8049F089819A81B7DF982F81E0992351F443
S1130C9080E008C089819A81AEDF982F81E0992392
S1130CA009F080E0882309F4D2C089819A819D8368
S1130CB08C831E828E818823A1F08C819D81FC010E
S1130CC0838994892C813D81F90123893489F9012F
S1130CD040812C813D81F9012589242BFC0120834D
S1130CE015C08C819D81FC01838994892C813D816F
S1130CF0F90123893489F9012081422F2C813D8116
S1130D00F901258920952423FC01208389819A8176
S1130D10FC018689978959DF61E08DE04ADF88E02C
S1130D208F831FC089819A81FC01808D918D4DDF55
S1130D308B81882F90E0959587958B8361E08DE07A
S1130D4038DF89819A8157DF982F81E0992309F44C
S1130D5080E0882319F08B8180688B838F81815098
S1130D608F838F818823F1F689819A81FC01868D96
S1130D708270882319F08B8180958B838091EB029C
S1130D80882F90E001968F739078992324F401972B
S1130D90806C9F6F019688879091EC0281E0288592
S1130DA0291709F480E0882369F08091EB02882FE9
S1130DB090E085559D4F2B81FC012083888580938D
S1130DC0EB020AC061E08BE0F4DE89819A81FC01C8
S1130DD0268D2160FC01268F89819A81FC01828DF8
S1130DE0938DF3DE61E08BE0E4DE89819A819A875A
S1130DF0898781E08B878B858823A1F089859A85F3
S1130E00FC018389948929853A85F90123893489E8
S1130E10F901408129853A85F9012589242BFC01B2
S1130E20208315C089859A85FC0183899489298545
S1130E303A85F90123893489F9012081422F2985D2
S1130E403A85F901258920952423FC0120832B96DA
S1130E500FB6F894DEBF0FBECDBFDF91CF91FF91E7
S1130E60EF91BF91AF919F918F917F916F915F911E
S1130E704F913F912F910F9000925F000F901F9020
S1130E8018958F92AF92CF92EF920F93CF93DF93F7
S1130E90CDB7DEB728970FB6F894DEBF0FBECDBF2F
S1130EA09A8389836B834C832D830E83EF82C88658
S1130EB089819A816CDC89819A8121E731E0FC0186
S1130EC03183208389819A811F921F921F921F92DE
S1130ED08884AF80CE80ED800C812FEF4B8161E060
S1130EE012D00F900F900F900F9028960FB6F89491
S1130EF0DEBF0FBECDBFDF91CF910F91EF90CF90AA
S1130F00AF908F9008958F92AF92CF92EF920F93FC
S1130F10CF93DF93CDB7DEB72A970FB6F894DEBF31
S1130F200FBECDBF9A8389836B834C832D830E833D
S1130F30EF82C886A9868A8689819A812C81FC01E0
S1130F40248389819A812D81FC01258389819A8159
S1130F502E81FC01268389819A812F81FC012783BC
S1130F6089819A812885FC01208789819A81298534
S1130F70FC01218789819A812A85FC012287898144
S1130F809A812C89FC01238789819A812D89FC010E
S1130F90248789819A812E89FC01258789819A81F8
S1130FA02F89FC0126878B81882329F089819A81E6
S1130FB0FC01178605C089819A8120E1FC012787FD
S1130FC089819A8120E041E060E10ED02A960FB633
S1130FD0F894DEBF0FBECDBFDF91CF910F91EF909C
S1130FE0CF90AF908F900895A7E0B0E0EAEFF7E0DC
S1130FF00C94662A9C838B836D834E832F838E810E
S1131000823050F08B819C81FC018785282F2860D9
S11310108B819C81FC0127878B819C812E81FC0123
S1131020238B8D81882F90E0AC01405C5F4F8D81D4
S1131030282F30E08B819C818A0140E450E060E0FD
S113104070E0E7D08F81882369F08E81813051F47C
S11310508B819C81FC018785282F24608B819C8156
S1131060FC0127878B819C81FC01848161E00E94C3
S113107008278B819C81FC0185818F3F39F08B810E
S11310809C81FC01858161E00E9408278B819C8101
S1131090FC01868161E00E9408271A82198211C02E
S11310A02B813C8189819A81820F931F0796FC01D1
S11310B0808161E00E94082789819A8101969A8340
S11310C089838B819C81FC018785882F90E08071C6
S11310D09927892B19F088E090E002C084E090E021
S11310E029813A8128173907DCF280E593EC0E94C4
S11310F07C268B819C81FC01848160E00E944427D2
S11311008B819C81FC01868160E00E9444278B8155
S11311109C81FC0185818F3F39F08B819C81FC018E
S1131120858160E00E9444278B819C81FC01878536
S1131130882F90E080719927892BE9F48B819C8119
S113114063E091D184E991E10E947C268B819C81AA
S113115063E089D184E991E10E947C268B819C81A2
S113116063E081D186E990E00E947C268B819C819A
S113117062E079D126C08B819C81FC018785282F70
S113118020628B819C81622FD6D084E991E10E94F8
S11311907C268B819C81FC018785282F20628B8192
S11311A09C81622FC8D086E990E00E947C268B81C6
S11311B09C81FC018785282F20628B819C81622F72
S11311C0BAD08B819C81FC018785282F20628B817A
S11311D09C81622FB0D08B819C8124E0FC01208B08
S11311E08B819C8188D08B819C813BD08B819C811D
S11311F022E0FC01218B8B819C81FC018189282FB9
S113120024608B819C81622F96D02796E4E00C9415
S1131210822AAAE0B0E0EFE0F9E00C94662A9A830F
S113122089837C836B835E834D8338872F831A87FE
S113123009872B8189819A81FC01248B2D818981E5
S11312409A81FC01258B2F8189819A81FC01268B4F
S1131250298589819A81FC01278B2A96E4E00C94E4
S1131260822AA2E0B0E0E7E3F9E00C94682A9A83CA
S1131270898389819A8161E05ED080ED97E00E9444
S11312807C262296E2E00C94842AA6E0B0E0EBE40B
S1131290F9E00C94682A9C838B836D834E8384E0ED
S11312A090E09A8389838E81843010F083E08E836A
S11312B08B819C81FC0193898E81891730F08B810D
S11312C09C81FC01838981508E838E81882F90E0DC
S11312D02B813C81820F931F4496FC0190818D8168
S11312E0890F8068282F8B819C81622F24D02696B9
S11312F0E2E00C94842AA2E0B0E0E1E8F9E00C9486
S1131300682A9A83898389819A81FC018089282F9C
S1131310246089819A81FC01208B89819A81FC0156
S11313208089282F286089819A81622F04D022968F
S1131330E2E00C94842AA3E0B0E0E1EAF9E00C9442
S1131340682A9A8389836B8389819A8140E06B81BF
S113135018D02396E2E00C94842AA3E0B0E0E3EBF7
S1131360F9E00C94682A9A8389836B8389819A8132
S113137041E06B8106D081E090E02396E2E00C949A
S1131380842AA4E0B0E0E7ECF9E00C94682A9A839C
S113139089836B834C8389819A81FC0184816C816C
S11313A00E94442789819A81FC0185818F3F39F00D
S11313B089819A81FC01858160E00E9444278981AA
S11313C09A81FC018785882F90E080719927892B69
S11313D029F089819A816B8179D014C08B81882FFF
S11313E090E095958795959587959595879595958D
S11313F08795282F89819A81622F35D089819A8196
S11314006B8131D02496E2E00C94842AA2E0B0E00F
S1131410ECE0FAE00C94682A9A83898389819A81A2
S1131420FC01868160E00E94442781E090E00E94F4
S11314307C2689819A81FC01868161E00E9444278F
S113144081E090E00E947C2689819A81FC0186815A
S113145060E00E94442784E690E00E947C26229665
S1131460E2E00C94842AA5E0B0E0E9E3FAE00C940D
S1131470682A9C838B836D831A8219821CC08D8198
S1131480882F90E0098002C0959587950A94E2F729
S1131490482F41702B813C8189819A81820F931F4F
S11314A00796FC018081642F0E94442789819A81D8
S11314B001969A83898389819A81049704F38B81A5
S11314C09C81A4DF2596E2E00C94842AA5E0B0E098
S11314D0ECE6FAE00C94682A9C838B836D831A8271
S11314E019821CC08D81882F90E0098002C09595D7
S11314F087950A94E2F7482F41702B813C818981BA
S11315009A81820F931F0796FC018081642F0E94A9
S1131510442789819A8101969A83898389819A8152
S1131520089704F38B819C8171DF2596E2E00C948B
S1131530842AA4E0B0E0EFE9FAE00C94682A9A83E4
S113154089837C836B832B813C8189819A81B90156
S113155004D02496E2E00C94842AA4E0B0E0E3EB07
S1131560FAE00C94682A9A8389837C836B838B8149
S11315709C819C012F5F3F4F89819A81B90150D092
S1131580882359F089819A816BD09C018B819C813D
S1131590820F931F0E94C93001C080E02496E2E0CC
S11315A00C94842AA5E0B0E0E8EDFAE00C94682AF3
S11315B09A8389837C836B834D832B813C818981CE
S11315C09A814D81B90104D02596E2E00C94842AD5
S11315D0A5E0B0E0EEEEFAE00C94682A9A838983E1
S11315E07C836B834D838B819C819C012F5F3F4F58
S11315F089819A81B90114D0882369F089819A81FB
S11316002FD09C018B819C81820F931F6D810E943E
S1131610DA3081E001C080E02596E2E00C94842A6F
S1131620A4E0B0E0E6E1FBE00C94662A9A838983A7
S11316307C836B8389819A8113D09C018B819C81EB
S11316408901080F191F89819A811BD021E008178D
S1131650190708F020E0822F2496E4E00C94822AF3
S1131660A2E0B0E0E6E3FBE00C94682A9A83898365
S113167089819A81FC01808191812296E2E00C9417
S1131680842AA2E0B0E0E7E4FBE00C94682A9A83A1
S1131690898389819A81FC01828193812296E2E087
S11316A00C94842AA0E0B0E0E8E5FBE00C94682AFE
S11316B08DEE92E0FC018081882351F460E070E0BB
S11316C087EF92E07BD08DEE92E021E0FC01208355
S11316D087EF92E0E2E00C94842AA2E0B0E0E3E732
S11316E0FBE00C94682A9A8389832296E2E00C94A6
S11316F0842AA2E0B0E0EFE7FBE00C94682A9A8326
S113170089832296E2E00C94842AA2E0B0E0EBE81C
S1131710FBE00C94682A9A8389832296E2E00C9475
S1131720842AA2E0B0E0E7E9FBE00C94682A9A83FB
S1131730898389819A8129E731E0FC0131832083FF
S1131740B1DF9C0189819A81FC01338322838981E1
S11317509A81FC01158214822296E2E00C94842A78
S1131760A2E0B0E0E6EBFBE00C94682A9A8389835C
S113177089819A8129E731E0FC013183208380E06B
S113178090E0892B21F089819A810E948C242296F1
S1131790E2E00C94842AA2E0B0E0E1EDFBE00C94DA
S11317A0682A9A83898389819A81DADF89819A8177
S11317B00E948C242296E2E00C94842AA4E0B0E0F7
S11317C0E4EEFBE00C94682A9A8389837C836B8320
S11317D089819A812B813C81FC01318320830AD049
S11317E09C0189819A81FC01338322832496E2E05F
S11317F00C94842AA0E0B0E0E0E0FCE00C94682AB9
S113180080E094E0E2E00C94842AA6E0B0E0EBE00F
S1131810FCE00C94682A9A8389837C836B835E83BF
S11318204D838B819C819C012C5F3F4F89819A81E0
S1131830B901F6DE982F81E08927882311F080E032
S113184009C04D815E812B813C8189819A81B901D6
S113185005D081E02696E2E00C94842AA6E0B0E06C
S1131860E4E3FCE00C94682A9A8389837C836B8389
S11318705E834D8389819A81F3DE9C018B819C81F7
S1131880820F931F9C018D819E8144E050E0B90139
S11318900E94B9302696E2E00C94842AA4E0B0E0D9
S11318A0E4E5FCE00C94682A9A8389837C836B8347
S11318B089819A81019749F48B819C81019629F44D
S11318C0F1DE9093F6028093F5022496E2E00C9404
S11318D0842AA0E0B0E0EFE6FCE00C94682A6FEF05
S11318E07FEF81E090E0DADFE2E00C94842AA0E06C
S11318F0B0E0EDE7FCE00C94682A0E941226DC01BB
S1131900CB01BC01CD01E2E00C94842AA8E0B0E054
S1131910ECE8FCE00C94682A98878F838F81988583
S113192027E831E0FC0131832083E1DFDC01CB01D6
S11319308B839C83AD83BE831A8219823DC02F8121
S1131940388589819A81820F931F82579F4FFC01AA
S113195010822F81388589819A814596880F991F35
S1131960820F931FFC01118210822F813885898197
S11319709A81880F991F880F991F820F931F9C01CA
S11319802E5F3F4F8B819C81AD81BE81F9018083A5
S11319909183A283B3832F81388589819A81CD96DF
S11319A0880F991F820F931FFC0111821082898175
S11319B09A8101969A83898389819A810A970CF482
S11319C0BECF8F81988584559F4FFC011182108270
S11319D02896E2E00C94842AA8E0B0E0E2EFFCE070
S11319E00C94642A98878F8382DFDC01CB018B837C
S11319F09C83AD83BE831A82198225C12F813885C9
S1131A0089819A81845B9F4F880F991F820F931F4E
S1131A10FC01118210822F81388589819A81459633
S1131A20880F991F820F931FFC0180819181892B5C
S1131A3009F404C12F81388589819A81880F991FFF
S1131A40880F991F820F931F0296FC018081918158
S1131A50A281B3812B813C814D815E8179018A0110
S1131A60E81AF90A0A0B1B0BD801C7014F815885E4
S1131A7029813A81220F331F220F331F240F351F70
S1131A80225C3F4FF90120813181428153818217C9
S1131A909307A407B50708F4D1C02F81388589813D
S1131AA09A81880F991F880F991F820F931F02969E
S1131AB0FC0180819181A281B3814F815885298164
S1131AC03A81220F331F220F331F240F351F225C4C
S1131AD03F4FF9012081318142815381820F931F4D
S1131AE0A41FB51F4F81588529813A81220F331FC6
S1131AF0220F331F240F351F2E5F3F4FF9018083C0
S1131B009183A283B3832F81388589819A81820F3F
S1131B10931F82579F4FFC018081882309F48EC054
S1131B202F81388589819A81C396880F991F820FE6
S1131B30931FFC0180819181892B81F42F81388549
S1131B4089819A81845B9F4F880F991F820F931F0D
S1131B5021E030E0FC013183208370C02F8138857F
S1131B6089819A81CD96880F991F820F931FFC015A
S1131B70208131814F81588589819A81C396880F4C
S1131B80991F840F951FFC018081918128173907C3
S1131B900CF054C02F81388589819A81845B9F4FD2
S1131BA0880F991F820F931F21E030E0FC013183DD
S1131BB020832F81388589819A81CD96880F991F3A
S1131BC0820F931FFC01808191819C012F5F3F4F05
S1131BD04F81588589819A81CD96880F991F840FEA
S1131BE0951FFC01318320832F81388589819A8157
S1131BF0CD96880F991F820F931FFC01208131819C
S1131C004F81588589819A81C396880F991F840FC3
S1131C10951FFC0180819181281739077CF02F8161
S1131C20388589819A81845B9F4F880F991F820F21
S1131C30931F22E030E0FC013183208389819A8163
S1131C4001969A83898389819A810A970CF4D6CE66
S1131C501A82198246C02F81388589819A81845BD2
S1131C609F4F880F991F820F931FFC0180819181E0
S1131C708130910519F0029781F02EC02F813885AB
S1131C8089819A814596880F991F820F931FFC01C1
S1131C9080819181FC0109951FC02F81388589813C
S1131CA09A814596880F991F820F931FFC018081AA
S1131CB09181FC0109958F819885FC018081918136
S1131CC00896FC012081318149815A818F81988550
S1131CD0BA01F9010995000089819A8101969A83D4
S1131CE0898389819A810A970CF4B5CF2896E6E016
S1131CF00C94802AA4E0B0E0E0E8FEE00C94682AAA
S1131D009C838B838B819C8184559F4FFC018081B4
S1131D1091810A971CF08FEF9FEF1FC01A821982DE
S1131D2016C02B813C8189819A814596880F991F21
S1131D30820F931FFC0180819181892B19F4898181
S1131D409A810BC089819A8101969A8389838981BA
S1131D509A810A9734F38FEF9FEF2496E2E00C9474
S1131D60842AACE0B0E0E7EBFEE00C94662A9C83A6
S1131D708B834D835E836F8378873A8729871C879B
S1131D800B878B819C81B6DF9A83898389819A81B1
S1131D9099231CF48FEF9FEF6BC089859A85892B5B
S1131DA019F48FEF9FEF64C02B813C8189819A8164
S1131DB0880F991F880F991F820F931F9C01225C23
S1131DC03F4F8D819E81AF81B885F90180839183D6
S1131DD0A283B3832B813C8189819A814596880FA4
S1131DE0991F820F931F29853A85FC013183208333
S1131DF02B813C8189819A81C396880F991F820F18
S1131E00931F2B853C85FC01318320832B813C81EE
S1131E1089819A81820F931F82579F4F21E0FC0191
S1131E20208365DDDC01CB014B815C8129813A8112
S1131E30220F331F220F331F240F351F2E5F3F4FF6
S1131E40F90180839183A283B3838B819C81845520
S1131E509F4FFC01808191819C012F5F3F4F8B81BB
S1131E609C8184559F4FFC013183208389819A8111
S1131E702C96E4E00C94822AA8E0B0E0E2E4FFE0CF
S1131E800C94642A9A8389834B835C836D837E8359
S1131E9038872F8389819A81DC018D919C910696E4
S1131EA0DC01ED91FC912F8138858B819C81AD8182
S1131EB0BE81E980FA8000E010E0AC01BD01C701F9
S1131EC009952896E6E00C94802AA8E0B0E0EBE6B9
S1131ED0FFE00C94642A9A8389834B835C836D832B
S1131EE07E8338872F8389819A81DC018D919C912F
S1131EF00696DC01ED91FC912F8138858B819C81C4
S1131F00AD81BE81E980FA8001E010E0AC01BD0141
S1131F10C70109952896E6E00C94802AA4E0B0E075
S1131F20E4E9FFE00C94682A9A8389837C836B83B9
S1131F308B819C810A970CF069C089819A818455B0
S1131F409F4FFC0180819181892B09F45FC0298115
S1131F503A818B819C814596880F991F820F931F2C
S1131F60FC0180819181892B09F450C029813A8137
S1131F708B819C814596880F991F820F931FFC01CA
S1131F801182108229813A818B819C81820F931F57
S1131F9082579F4FFC01108229813A818B819C8159
S1131FA0845B9F4F880F991F820F931FFC0111823E
S1131FB0108229813A818B819C81880F991F880F17
S1131FC0991F820F931FCE96FC01108211821282F8
S1131FD0138229813A818B819C81CD96880F991F28
S1131FE0820F931FFC011182108289819A8184558A
S1131FF09F4FFC01808191819C012150310989818D
S11320009A8184559F4FFC01318320832496E2E01A
S11320100C94842AA4E0B0E0E0E1F0E10C94682A96
S11320209A8389837C836B838B819C810A970CF0D0
S113203014C05DDCDC01CB0149815A812B813C81D8
S1132040220F331F220F331F240F351F2E5F3F4FE4
S1132050F90180839183A283B3832496E2E00C94F4
S1132060842AA4E0B0E0E7E3F0E10C94682A9A83C0
S113207089837C836B838B819C810A9714F080E035
S11320800AC029813A818B819C81820F931F8257D8
S11320909F4FFC0180812496E2E00C94842AA4E002
S11320A0B0E0E5E5F0E10C94682A9A8389837C83A7
S11320B06B838B819C810A970CF00BC029813A8138
S11320C08B819C81820F931F82579F4F21E0FC01DB
S11320D020832496E2E00C94842AA4E0B0E0E3E7B1
S11320E0F0E10C94682A9A8389837C836B838B81C7
S11320F09C810A970CF00AC029813A818B819C81CA
S1132100820F931F82579F4FFC0110822496E2E0B6
S11321100C94842ACF92EF920F93CF93DF9300D045
S1132120CDB7DEB79A83898389819A810F2EF7E030
S1132130CF2EF02D0F2EF6E0EF2EF02D05E024E04B
S113214049E068E00E94410789819A812DE931E0E4
S1132150FC013183208389819A8108D00F900F90EC
S1132160DF91CF910F91EF90CF900895A2E0B0E06E
S1132170ECEBF0E10C94682A9A83898389819A8133
S113218020E042E060E10E94F40789819A8169D8E5
S113219089819A8140E060E078D82296E2E00C944C
S11321A0842AA4E0B0E0E7EDF0E10C94682A9A8375
S11321B089837C836B832B8189819A81422F60E0A0
S11321C064D82FE233E089819A81B9010E94CD2439
S11321D02496E2E00C94842AA6E0B0E0E2EFF0E179
S11321E00C94682A9A8389837C836B835E834D83F2
S11321F02B813C8189819A81B901D3DF2B8189812B
S11322009A81422F60E041D889819A812D813E8153
S1132210B9010E94F1242696E2E00C94842AA2E0FB
S1132220B0E0E5E1F1E10C94682A9A83898389811D
S11322309A81FC01808191812296E2E00C94842AA7
S1132240A4E0B0E0E6E2F1E10C94682A9A83898381
S11322507C836B8389819A812B813C81B9010E94A3
S113226002282496E2E00C94842AA4E0B0E0EBE394
S1132270F1E10C94682A9A8389837C836B83898136
S11322809A8122EE31E0FC01318320838B819C8191
S1132290FC012281338189819A81FC013383228369
S11322A02496E2E00C94842AA4E0B0E0EAE5F1E1AB
S11322B00C94682A9A8389837C836B832B813C8169
S11322C089819A81B901D1DF89819A8121E731E03D
S11322D0FC01318320838B819C81FC0124818981D1
S11322E09A81FC0124838B819C81FC012581898155
S11322F09A81FC0125838B819C81FC012681898143
S11323009A81FC01268389819A812B813C8148E052
S1132310F9013796DC01179601900D924A95E1F781
S11323208B819C81FC01278589819A81FC01278707
S11323308B819C81FC01208989819A81FC01208BFD
S11323408B819C81FC01218989819A81FC01218BEB
S11323508B819C81FC01228989819A81FC01228BD9
S11323608B819C81FC01238989819A81FC01238BC7
S113237029813A818B819C81FC0184899589A68974
S1132380B789F901848B958BA68BB78B2496E2E0F1
S11323900C94842AA4E0B0E0E0EDF1E10C94682A06
S11323A09A8389837C836B832B813C8189819A8185
S11323B0B9017ADF89819A812DE931E0FC01318309
S11323C020832496E2E00C94842AA9E0B0E0EBEEAA
S11323D0F1E10C94662A9A8389837C836B835E8300
S11323E04D832F831987088789819A819AD9898196
S11323F09A8125EA31E0FC013183208389819A8125
S11324002B813C81FC013487238789819A818B57F6
S11324109F4FFC011182108289819A8189579F4FB5
S11324202D813E81FC013183208389819A818B56E1
S11324309F4F2F81FC01208389819A818A569F4F67
S113244028853985B901A6DF89819A8182559F4FF4
S11324506DE071E00E94022889819A818C549F4F1B
S11324606DE071E00E94022889819A8186549F4F11
S113247063E070E068D489819A8104D02996E4E00D
S11324800C94822AA6E0B0E0E8E4F2E10C94672A16
S11324909E838D8361E08DE00E9408278D819E815B
S11324A086549F4F70D48D819E8186549F4F90D4C3
S11324B0FC0180819181A281B38111E09C01AD0175
S11324C0BC01CD010E94C822882309F410E0112325
S11324D089F080E090E0A0E4B0E489839A83AB8340
S11324E0BC838D819E8186549F4F9E012F5F3F4FF9
S11324F0B9017DD42696E3E00C94832AA6E0B0E0EB
S1132500E4E8F2E10C94682A9A8389834B835C8320
S11325106D837E8389819A8186549F4F9E012D5FAE
S11325203F4FB90164D489819A8186549F4F60E0FA
S11325307CD42696E2E00C94842AAEE0B0E0E3EA90
S1132540F2E10C94682A9E878D878D859E85875736
S11325509F4FFC0180819181A281B381FE01379656
S113256022E0AC01BD01CF010E944828CE010796AC
S113257056DE9C018D859E8582559F4FB9010E9430
S11325803328CE0107960E949B278D859E8583570D
S11325909F4FFC0180819181A281B38122E0AC0133
S11325A0BD01CE0101960E944828CE01019637DE76
S11325B09C018D859E858C549F4FB9010E943328C0
S11325C0CE0101960E949B278D859E8587579F4F3C
S11325D0FC0180819181A281B381BC01CD012E9641
S11325E0E2E00C94842AA4E1B0E0E9EFF2E10C9477
S11325F0682A9C8B8B8B8B899C896FD0DC01CB01E7
S113260089839A83AB83BC8381E090E09E838D832E
S113261018861F8232C08F819885C2969A878987CF
S113262089859A85092E000CAA0BBB0BBC01CD0130
S11326300E9443268B899C8950D0DC01CB018B8777
S11326409C87AD87BE872B853C854D855E856981DA
S11326507A818B819C810E94E320DC01CB018983F8
S11326609A83AB83BC838D819E8101969E838D83E7
S11326708F819885019698878F838F819885459758
S113268054F28D819E81092E000CAA0BBB0BBC0158
S1132690CD010E94B521DC01CB019C01AD01698112
S11326A07A818B819C810E944B21DC01CB018F8735
S11326B0988BA98BBA8B8B899C899C0127573F4F98
S11326C08F859889A989BA89F90180839183A28326
S11326D0B3836496E2E00C94842AACE0B0E0E3E7D0
S11326E0F3E10C94622A9C878B878BEF92E0FC01C8
S11326F08081882389F40E941226DC01CB01809317
S11327000B0390930C03A0930D03B0930E038BEF74
S113271092E021E0FC0120830E9412269B01AC017F
S113272080910B0390910C03A0910D03B0910E03C3
S113273079018A01E81AF90A0A0B1B0BD801C701AF
S113274021E08F369105A105B10508F420E022238C
S113275009F49BC08CE390E09A8389838B859C85E4
S11327608B579F4FFC010081118198012F5F3F4FD0
S11327708B859C858B579F4FFC01318320838B85F0
S11327809C85FC01838594850E94C226AC012B851F
S11327903C85C801880F991F820F931F0D96FC0179
S11327A0518340838B859C858B579F4FFC012081EF
S11327B0318189819A812817390739F48B859C8561
S11327C08B579F4FFC01118210828B859C859C0145
S11327D0235F3F4F49815A818B859C85B90127D15D
S11327E0DC01CB018B839C83AD83BE8320E030E08E
S11327F040EA50E46B817C818D819E810E94652238
S1132800DC01CB0120E030E040E854E4BC01CD0120
S11328100E944B21DC01CB012B853C852F563F4F79
S1132820F90180839183A283B3838B859C858F5622
S11328309F4FFC0180819181A281B38120E030E02F
S113284040E650E4BC01CD010E946522DC01CB01CD
S11328506C017D018B859C8586549F4FB9D2FC0108
S113286080819181A281B3819C01AD01C701B60130
S11328700E94E320DC01CB018F839887A987BA8764
S11328808F819885A985BA8509C08B859C858757D2
S11328909F4FFC0180819181A281B381BC01CD0154
S11328A02C96E8E00C947E2AA2E0B0E0EAE5F4E19C
S11328B00C94682A9A83898389819A810E949B2730
S11328C02296E2E00C94842AAEE1B0E0EAE6F4E178
S11328D00C94682A9E8F8D8F8D8D9E8D2EDEDC014B
S11328E0CB0189839A83AB83BC8383E093E0FC01AF
S11328F08081882389F40E941226DC01CB01809315
S11329000F0390931003A0931103B093120383E079
S113291093E021E0FC0120830E9412269B01AC017C
S113292080910F0390911003A0911103B0911203B1
S1132930281B390B4A0B5B0B8D8D9E8D89579F4F3E
S1132940FC018081918180579E4F092E000CAA0BB7
S1132950BB0B61E082179307A407B50708F060E09A
S1132960662309F460C08D8D9E8D8B569F4FFC01AC
S11329708081882309F441C089819A81AB81BC811B
S1132980FE01719622E0AC01BD01CF010E947628C0
S1132990CE010B966EE071E053DC9E012F5E3F4F3B
S11329A0CE010B96B9010E94F0289C01CE014796F6
S11329B0B9010E942B28CE010B9676DFCE014196F9
S11329C00E949B279E01295E3F4FCE010596B901C7
S11329D00E942B288D8D9E8D8A569F4F9E012B5FC2
S11329E03F4FA90160E070E0F7DBCE0105960E943D
S11329F09B27CE0147960E949B278DE00E94732758
S1132A00982F81E08927682F8DE00E9444270E9437
S1132A101226DC01CB0180930F0390931003A09343
S1132A201103B09312036E96E2E00C94842ACF92C1
S1132A30DF92EF92FF92CF93DF93CDB7DEB7689723
S1132A400FB6F894DEBF0FBECDBF988B8F877A8BFD
S1132A50698B5C8B4B8B1F82188619861A868B892F
S1132A609C89181619065CF080E493E0BC0187E6A3
S1132A7095E00E940A2580E090E0DC012BC18B895F
S1132A809C8905970CF049C01A82198220C089815B
S1132A909A81880F991F29893A89820F931FFC0113
S1132AA080819181092E000CAA0BBB0B2F813885E4
S1132AB049855A85820F931FA41FB51F8F8398875A
S1132AC0A987BA8789819A8101969A838983298102
S1132AD03A818B899C8928173907CCF28B899C8988
S1132AE09C01990F440B550B8F819885A985BA8554
S1132AF0BC01CD010E942C2ADA01C901BC01CD011F
S1132B000E94B521DC01CB018B879C87AD87BE87F2
S1132B108B859C85AD85BE85DDC089899A89FC013C
S1132B202081318189899A890296FC018081918171
S1132B30281739077CF489899A89FC01808191815D
S1132B409E838D8389899A89FC01828193819C83E8
S1132B508B830EC089899A89FC01828193819E832B
S1132B608D8389899A89FC01808191819C838B83DF
S1132B7082E090E09A83898380C089819A81880F5A
S1132B80991F29893A89820F931FFC012081318181
S1132B908D819E812817390704F58D819E81092E28
S1132BA0000CAA0BBB0B2F81388549855A85820FEF
S1132BB0931FA41FB51F8F839887A987BA8789811C
S1132BC09A81880F991F29893A89820F931FFC01E2
S1132BD0808191819E838D834BC089819A81880FE6
S1132BE0991F29893A89820F931FFC012081318121
S1132BF08B819C818217930704F58B819C81092E1C
S1132C00000CAA0BBB0B2F81388549855A85820F8E
S1132C10931FA41FB51F8F839887A987BA878981BB
S1132C209A81880F991F29893A89820F931FFC0181
S1132C30808191819C838B831BC089819A81880FB9
S1132C40991F29893A89820F931FFC018081918100
S1132C50092E000CAA0BBB0B2F81388549855A8598
S1132C60820F931FA41FB51F8F839887A987BA87E4
S1132C7089819A8101969A83898329813A818B89F2
S1132C809C89281739070CF478CF6F81788589855A
S1132C909A850E94B5216B017C018B899C890297DE
S1132CA0092E000CAA0BBB0BBC01CD010E94B5215F
S1132CB0DC01CB019C01AD01C701B6010E944B218F
S1132CC0DC01CB018B879C87AD87BE878B859C8578
S1132CD0AD85BE85BC01CD0168960FB6F894DEBF04
S1132CE00FBECDBFDF91CF91FF90EF90DF90CF90DB
S1132CF00895A6E0B0E0EFE7F6E10C94682A9A8321
S1132D0089837C836B835E834D838B819C819C014F
S1132D102C5F3F4F89819A81B9010E94100B982F33
S1132D2081E08927882311F080E009C04D815E810C
S1132D302B813C8189819A81B901B1D081E02696A9
S1132D40E2E00C94842AA4E0B0E0E9EAF6E10C9411
S1132D50682A9A8389837C836B830E94520B9C012B
S1132D6089819A81FC013183208389819A812B8115
S1132D703C81FC013383228389819A8104D0249687
S1132D80E2E00C94842AA2E0B0E0E9ECF6E10C94D1
S1132D90662A9A83898389819A81FC018081918141
S1132DA0892B91F089819A818C010C5F1F4F898155
S1132DB09A8196D09C0189819A81FC0180819181BC
S1132DC0A801B9010E94050C2296E4E00C94822A21
S1132DD0A2E0B0E0EEEEF6E10C94682A9A838983CF
S1132DE089819A8104962296E2E00C94842AA4E0D4
S1132DF0B0E0EDEFF6E10C94682A9A8389837C8332
S1132E006B838B819C81FC0180819181A281B38140
S1132E1029813A81F90184839583A683B7838981C3
S1132E209A812496E2E00C94842AA3E0B0E0EBE1DA
S1132E30F7E10C94662A9A8389836B8389819A814A
S1132E40FC0180819181892B31F18B81882391F060
S1132E5089819A818C010C5F1F4F89819A8140D0AE
S1132E609C0189819A81FC0180819181A801B90129
S1132E7040DF11C089819A818C010C5F1F4F8981C9
S1132E809A812ED09C0189819A81FC018081918153
S1132E90A801B90136D02396E4E00C94822AA6E076
S1132EA0B0E0E5E5F7E10C94682A9A8389837C8392
S1132EB06B835E834D8389819A810E94300B9C01D0
S1132EC08B819C81820F931F9C018D819E8144E0A4
S1132ED050E0B9010E94D1302696E2E00C94842A95
S1132EE0A2E0B0E0E6E7F7E10C94682A9A838983CC
S1132EF089819A81FC01828193812296E2E00C947B
S1132F00842AACE0B0E0E7E8F7E10C94682A9887FB
S1132F108F837A8769875C874B8789859A859C012B
S1132F202C5F3F4F8F819885B9010E94100B982F19
S1132F3081E08927882319F080E090E040C08B85E8
S1132F409C859A8389831C821B821E821D8231C0C8
S1132F5029853A858F819885B9010E94990A282F7D
S1132F6089819A81FC01908181E0291709F480E02C
S1132F70882381F089819A81FC01408129853A85E1
S1132F808F819885B9010E94D20A8B819C81019618
S1132F909C838B8389859A8501969A878987898101
S1132FA09A8101969A8389838D819E8101969E835D
S1132FB08D838D819E81049758F28B819C812C9600
S1132FC0E2E00C94842AA2E0B0E0E9EEF7E10C948C
S1132FD0682A9A83898389819A8125EA31E0FC01F0
S1132FE03183208389819A818C549F4F0E949B272F
S1132FF089819A8182559F4F0E949B2789819A815A
S11330000E94B00B80E090E0892B21F089819A81A5
S11330100E948C242296E2E00C94842AA2E0B0E080
S1133020E4E1F8E10C94682A9A83898389819A817E
S1133030CADF89819A810E948C242296E2E00C9452
S1133040842AA9E0B0E0E7E2F8E10C94662A9A83C6
S113305089837C836B835E834D832F8319870887E1
S113306089819A810E94910B89819A8123EB31E0B5
S1133070FC013183208389819A812B813C81FC016D
S11330803487238789819A81835A9F4FFC01118257
S1133090108289819A81815A9F4F2D813E81FC0142
S11330A03183208389819A8187599F4F2F81FC0125
S11330B0208389819A8186599F4F28853985B90152
S11330C069D989819A818E579F4F63E171E00E948B
S11330D0022889819A8188579F4F63E171E00E9499
S11330E0022889819A8182579F4F6AEB74E02BDE14
S11330F089819A8104D02996E4E00C94822AA6E07E
S1133100B0E0E5E8F8E10C94672A9E838D8361E0E2
S11331108DE00E9408278D819E8182579F4F33DE68
S11331208D819E8182579F4F53DEFC018081918166
S1133130A281B38111E09C01AD01BC01CD010E94CB
S1133140C822882309F410E0112389F080E090E478
S1133150A7E9B4E489839A83AB83BC838D819E8180
S113316082579F4F9E012F5F3F4FB90140DE269645
S1133170E3E00C94832AA6E0B0E0E1ECF8E10C94DF
S1133180682A9A8389834B835C836D837E838981D8
S11331909A8182579F4F9E012D5F3F4FB90127DED1
S11331A089819A8182579F4F60E03FDE2696E2E054
S11331B00C94842AAEE0B0E0E0EEF8E10C94682AC6
S11331C09E878D878D859E858F599F4FFC018081B9
S11331D09181A281B381FE01379622E0AC01BD0149
S11331E0CF010E944828CE01079619D89C018D85ED
S11331F09E858E579F4FB9010E943328CE010796B2
S11332000E949B278D859E858B599F4FFC01808151
S11332109181A281B38122E0AC01BD01CE0101966E
S11332200E944828CE0101960E940F119C018D85B1
S11332309E8588579F4FB9010E943328CE0101967D
S11332400E949B278D859E858F599F4FFC0180810D
S11332509181A281B381BC01CD012E96E2E00C9450
S1133260842AAEE1B0E0E7E3F9E10C94682A9E8F8A
S11332708D8F8D8D9E8D9EDFDC01CB0189839A839A
S1133280AB83BC8383E193E0FC018081882389F4D0
S11332900E941226DC01CB01809323039093240324
S11332A0A0932503B093260383E193E021E0FC017E
S11332B020830E9412269B01AC01809123039091EC
S11332C02403A0912503B0912603281B390B4A0B34
S11332D05B0B8D8D9E8D815A9F4FFC018081918166
S11332E080579E4F092E000CAA0BBB0B61E082177E
S11332F09307A407B50708F060E0662309F462C0E9
S11333008D8D9E8D87599F4FFC018081882309F400
S113331043C089819A81AB81BC81FE01719622E010
S1133320AC01BD01CF010E947628CE010B9664E169
S113333071E00E9420119E012F5E3F4FCE010B963B
S1133340B9010E94F0289C01CE014796B9010E9460
S11333502B28CE010B96A8DACE0141960E949B271A
S11333609E01295E3F4FCE010596B9010E942B288C
S11333708D8D9E8D86599F4F9E012B5F3F4FA901D6
S113338061E070E00E94EC10CE0105960E949B273C
S1133390CE0147960E949B278DE00E947327982FA9
S11333A081E08927682F8DE00E9444270E9412261D
S11333B0DC01CB018093230390932403A093250382
S11333C0B09326036E96E2E00C94842AA4E1B0E064
S11333D0ECEEF9E10C94682A9C8B8B8B8B899C898D
S11333E06DD0DC01CB0189839A83AB83BC8381E0FC
S11333F090E09E838D8318861F8232C08F819885CA
S11334008C599F4F9A87898789859A85092E000C44
S1133410AA0BBB0BBC01CD010E9443268B899C895E
S11334204DD0DC01CB018B879C87AD87BE872B8574
S11334303C854D855E8569817A818B819C81C3D66B
S1133440DC01CB0189839A83AB83BC838D819E810C
S113345001969E838D838F819885019698878F83AB
S11334608F8198850B9754F28D819E81092E000CD3
S1133470AA0BBB0BBC01CD0178D7DC01CB019C01AD
S1133480AD0169817A818B819C8105D7DC01CB01F7
S11334908F87988BA98BBA8B8B899C899C012F5918
S11334A03F4F8F859889A989BA89F90180839183CF
S11334B0A283B3836496E2E00C94842AA0E1B0E092
S11334C0E4E6FAE10C94642A988B8F878BE193E00D
S11334D0FC018081882389F40E941226DC01CB013F
S11334E08093270390932803A0932903B0932A037E
S11334F08BE193E021E0FC0120830E9412269B01D2
S1133500AC018091270390912803A0912903B091E5
S11335102A0379018A01E81AF90A0A0B1B0BD8015C
S1133520C70121E08F369105A105B10508F420E01B
S1133530222309F477C088E290E09A8389838F85F7
S11335409889835A9F4FFC010081118198012F5F54
S11335503F4F8F859889835A9F4FFC013183208385
S11335608F859889FC01838594850E94C226AC01CD
S11335702F853889C801880F991F820F931F0D96D4
S1133580FC01518340838F859889835A9F4FFC01A6
S11335902081318189819A812817390739F48F85EF
S11335A09889835A9F4FFC01118210828F859889D4
S11335B09C01235F3F4F49815A818F859889B901C6
S11335C040D0DC01CB018B839C83AD83BE8320E0A0
S11335D030E040EA5BE36B817C818D819E8175D70D
S11335E0DC01CB018F839887A987BA878F85988957
S11335F082579F4FEDDBFC0180819181A281B381D1
S11336002F81388549855A85BC01CD015ED7DC01FF
S1133610CB018B879C87AD87BE878B859C85AD85C9
S1133620BE8509C08F8598898F599F4FFC01808181
S11336309181A281B381BC01CD016096E6E00C9436
S1133640802ACF92DF92EF92FF92CF93DF93CDB790
S1133650DEB768970FB6F894DEBF0FBECDBF988B68
S11336608F877A8B698B5C8B4B8B1F8218861986AC
S11336701A868B899C89181619065CF08AE693E0F1
S1133680BC0187E695E00E940A2580E090E0DC0119
S113369027C18B899C8905970CF048C01A8219822E
S11336A020C089819A81880F991F29893A89820FBC
S11336B0931FFC0180819181092E000CAA0BBB0B86
S11336C02F81388549855A85820F931FA41FB51F02
S11336D08F839887A987BA8789819A8101969A836B
S11336E0898329813A818B899C8928173907CCF2EF
S11336F08B899C899C01990F440B550B8F8198856C
S1133700A985BA85BC01CD010E942C2ADA01C90120
S1133710BC01CD012AD6DC01CB018B879C87AD8708
S1133720BE878B859C85AD85BE85DAC089899A89DB
S1133730FC012081318189899A890296FC0180816A
S11337409181281739077CF489899A89FC01808141
S113375091819E838D8389899A89FC0182819381D9
S11337609C838B830EC089899A89FC018281938111
S11337709E838D8389899A89FC01808191819C83B0
S11337808B8382E090E09A83898380C089819A81C7
S1133790880F991F29893A89820F931FFC01208180
S11337A031818D819E812817390704F58D819E8191
S11337B0092E000CAA0BBB0B2F81388549855A852D
S11337C0820F931FA41FB51F8F839887A987BA8779
S11337D089819A81880F991F29893A89820F931FB9
S11337E0FC01808191819E838D834BC089819A8164
S11337F0880F991F29893A89820F931FFC01208120
S113380031818B819C818217930704F58B819C8184
S1133810092E000CAA0BBB0B2F81388549855A85CC
S1133820820F931FA41FB51F8F839887A987BA8718
S113383089819A81880F991F29893A89820F931F58
S1133840FC01808191819C838B831BC089819A8137
S1133850880F991F29893A89820F931FFC0180815F
S11338609181092E000CAA0BBB0B2F813885498549
S11338705A85820F931FA41FB51F8F839887A9872A
S1133880BA8789819A8101969A83898329813A81A9
S11338908B899C89281739070CF478CF6F81788538
S11338A089859A8562D56B017C018B899C890297F5
S11338B0092E000CAA0BBB0BBC01CD0156D5DC01B3
S11338C0CB019C01AD01C701B601E5D4DC01CB01FC
S11338D08B879C87AD87BE878B859C85AD85BE8590
S11338E0BC01CD0168960FB6F894DEBF0FBECDBF04
S11338F0DF91CF91FF90EF90DF90CF900895A2E0F9
S1133900B0E0E5E8FCE10C94682A9A838983898114
S11339109A8123EB31E0FC013183208389819A81F0
S113392088579F4F0E949B2789819A818E579F4F6A
S11339300E949B2789819A810E94B00B80E090E0CD
S1133940892B19F089819A81E7D72296E2E00C94B9
S1133950842AA2E0B0E0EFEAFCE10C94682A9A839E
S1133960898389819A81CBDF89819A81D5D72296EF
S1133970E2E00C94842AA2E0B0E0E1ECFCE10C94D7
S1133980682A9A83898389819A81FC01848195813B
S11339902296E2E00C94842AA4E0B0E0E2EDFCE19B
S11339A00C94682A9A8389837C836B832B813C8162
S11339B089819A81B9010E94D02889819A812496AB
S11339C0E2E00C94842AA4E0B0E0E9EEFCE10C947B
S11339D0682A9A8389837C836B832B813C818981C8
S11339E09A81B9010E9401292496E2E00C94842A68
S11339F0A0E0B0E0EEEFFCE10C94682A62E18DE90E
S1133A0092E00E942B0460EF7DE18DE992E00E9438
S1133A109E0562E17DE18DE992E00E948A05E2E083
S1133A200C94842AA9E2B0E0E8E1FDE10C94672A51
S1133A3099A788A76AE171E08BE293E00E9433289A
S1133A406AE171E087E393E00E9433286AE171E060
S1133A508DE393E00E94332888A599A5449709F043
S1133A60ADC00AC08DE992E00E94D10489836981C6
S1133A708BE293E00E94DE288DE992E00E94B90473
S1133A8021E0181619060CF020E0222359F78BE2E6
S1133A9093E00E94A829CE0146966BE171E00E9452
S1133AA00228CE014696BC018BE293E00E94442991
S1133AB011E0882309F410E0CE0146960E949B276A
S1133AC0112339F06BE273E087E393E00E94162838
S1133AD083C06BE273E08DE393E00E941628CE016D
S1133AE040966DE373E00E942B28CE014C96BE01F4
S1133AF0605F7F4F20E030E04DE372D1CE0140960D
S1133B000E949B27CE010A966DE373E00E942B2846
S1133B10CE018296BE01665F7F4F21E030E04DE327
S1133B205FD1CE010A960E949B27CE014C966DE18F
S1133B3071E049DF982F81E0992309F480E088231C
S1133B40A1F0CE0182960E94FF29DC01CB018A8379
S1133B509B83AC83BD838A819B81AC81BD81AC0195
S1133B60BD0183E294E007DB20C0CE014C9667E2FE
S1133B7071E029DF982F81E0992309F480E08823FC
S1133B80A1F0CE0182960E94FF29DC01CB018E8335
S1133B909F83A887B9878E819F81A885B985AC0149
S1133BA0BD0181E693E00E947E12CE0182960E94BE
S1133BB09B27CE014C960E949B270EC084E993E07C
S1133BC0BC0187E695E0E9D688A599A54AE050E0CE
S1133BD0BC0187E695E0C7D7A996E3E00C94832A55
S1133BE0A1E2B0E0E6EFFDE10C94662A80910601C3
S1133BF09091070101969093070180930601CE01ED
S1133C0042966AE171E00E94022880910601909137
S1133C100701892B39F4CE0142966FE074E00E94CB
S1133C2016288FC08091060190910701019739F4FD
S1133C30CE01429665E174E00E94162882C080910C
S1133C40060190910701029739F4CE01429665EA84
S1133C5074E00E94162875C08091060190910701B6
S1133C60039739F4CE0142966BEA74E00E94162859
S1133C7068C080910601909107010497F9F48BE1E3
S1133C8094E0A6D8FC0180819181A281B381FE01D8
S1133C903C9622E0AC01BD01CF010E947628CE0102
S1133CA00C960E940F119C01CE014296B9010E940C
S1133CB03328CE010C960E949B2743C080910601B5
S1133CC090910701059729F581EB94E081D8FC01D7
S1133CD080819181A281B381FE01369622E0AC01FC
S1133CE0BD01CF010E947628CE0106960E940F11D5
S1133CF09C01CE014296B9010E943328CE0106965A
S1133D000E949B278FEF9FEF9093070180930601FA
S1133D1018C060E371E087E695E071D680910601F2
S1133D20909107014AE050E0BC0187E695E01BD77B
S1133D308FEF9FEF909307018093060100E010E05E
S1133D4043C0CE01429617DE9C018AE090E0821BBC
S1133D50930B9D838C831A8219820AC0CE014296EA
S1133D606BE471E019DE89819A8101969A838983D3
S1133D7029813A818C819D81281739077CF31B8224
S1133D8015C08B81082F10E08B81282F30E0CE01E5
S1133D904296B9010E946329282FCE014896800FCC
S1133DA0911FFC0120838B818F5F8B838B818A30F1
S1133DB040F3CE0148964AE050E0BC018DE992E020
S1133DC00E94790401E010E0CE0142960E949B27F4
S1133DD00130110509F40000A196E4E00C94822A54
S1133DE0A1E1B0E0E6EFFEE10C94682A9C878B87A2
S1133DF07E876D874F87398B288B1A8219821886A4
S1133E001F828FEF9FEF9A8789878D859E85B3DD0B
S1133E1001979E838D831C821B8235C02B813C813C
S1133E208D859E85B9010E946329982F8F859817E7
S1133E3039F02B813C818D819E812817390711F43B
S1133E4081E001C080E08823C9F089819A810196CC
S1133E509A83898389859A85019698878F832B8194
S1133E603C818D819E812817390721F48B819C81A7
S1133E70019602C08B819C819A8789878B819C8162
S1133E8001969C838B832B813C818D819E8182173B
S1133E90930744F029813A81888999898217930785
S1133EA00CF0BCCF29813A818889998982179307BC
S1133EB06CF489859A859C018F819885AC018B85EA
S1133EC09C856D857E850E94642906C08B859C85B2
S1133ED06AE171E00E94022800008B859C8561964E
S1133EE0E2E00C94842AA4E0B0E0E9E7FFE10C945A
S1133EF0682A9A8389837C836B8389819A81019759
S1133F0011F58B819C810196F1F46AE171E08BE2F9
S1133F1093E00E9402286AE171E081E393E00E9449
S1133F2002286AE171E087E393E00E9402286AE1D3
S1133F3071E08DE393E00E9402286AE171E083E47A
S1133F4093E00E94022889819A81892B99F48B81BC
S1133F509C81019679F483E493E0EDD78DE393E0BB
S1133F60EAD787E393E0E7D781E393E0E4D78BE2F2
S1133F7093E0E1D72496E2E00C94842AA0E0B0E038
S1133F80E4ECFFE10C94682A6FEF7FEF81E090E0AE
S1133F90AADFE2E00C94842AA0E0B0E0E2EDFFE1C5
S1133FA00C94682A6FEF7FEF80E090E09CDFE2E002
S1133FB00C94842AA4E3B0E0E0EEFFE10C94662ABA
S1133FC09AAB89AB7CAB6BAB89A99AA9019799F59C
S1133FD08BA99CA9019679F589E493E00E948A1043
S1133FE0CE01499669E473E00E94CA1180910801E8
S1133FF0909109019E01275E3F4F890121E040ED28
S113400057E0BC0181E693E00E94E51169E473E0A6
S1134010CE0101960E94CA1180910A0190910B0170
S11340209E012F5F3F4F890121E048EE53E0BC0120
S113403083E294E006D889A99AA9892B59F48BA91B
S11340409CA9019639F483E294E059DC81E693E07B
S11340500E94E317E496E4E00C94822AA0E0B0E026
S1134060E4E3F0E20C94682A6FEF7FEF81E090E0E4
S1134070A1DFE2E00C94842AA0E0B0E0E2E4F0E204
S11340800C94682A6FEF7FEF80E090E093DFE2E02A
S11340900C94842AA6E0B0E0E0E5F0E20C94682AEF
S11340A09A8389834B835C836D837E838B819C811C
S11340B0AD81BE81E981FA8126E0AC01BD01CF0169
S11340C030D32696E2E00C94842AA2E0B0E0EBE63A
S11340D0F0E20C94682A9A83898381E02296E2E0D4
S11340E00C94842AA0E0B0E0E8E7F0E20C94682A9B
S11340F07FDC40E855E260E070E087E695E0CADFE7
S1134100000087E695E0E1DF982F81E08927882386
S1134110C1F72AEA30E248EE53E060E070E089EB50
S113412094E00E943C0FE2E00C94842AA0E0B0E00A
S1134130ECE9F0E20C94682A89EB94E00E94EC0C20
S113414081E693E00E94641483E294E08AD8E2E07A
S11341500C94842AA0E0B0E0E0EBF0E20C94682A2E
S113416081E693E00E94F31283E294E02FD9E2E027
S11341700C94842AA4E0B0E0E0ECF0E20C94682A09
S11341809A8389837C836B8389819A81019741F423
S11341908B819C81019621F489EB94E00E94860C2A
S11341A02496E2E00C94842AA0E0B0E0EAEDF0E288
S11341B00C94682A6FEF7FEF81E090E0DBDFE2E0B0
S11341C00C94842A5058BB27AA270ED044C135D159
S11341D030F03AD120F031F49F3F11F41EF42AC19B
S11341E00EF4E095E7FB20C1E92F46D180F3BA171E
S11341F0620773078407950718F071F49EF55EC192
S11342000EF4E0950B2EBA2FA02D0B01B9019001ED
S11342100C01CA01A0011124FF27591B99F0593F31
S113422050F4503E68F11A16F040A22F232F342F79
S11342304427585FF3CF469537952795A795F040C7
S11342405395C9F77EF41F16BA0B620B730B840BDC
S1134250BAF09150A1F0FF0FBB1F661F771F881F94
S1134260C2F70EC0BA0F621F731F841F48F48795EC
S113427077956795B795F7959E3F08F0B3CF9395DB
S1134280880F08F09927EE0F979587950895A8D081
S113429008F481E008950CD0DEC0D6D040F0CDD033
S11342A030F021F45F3F19F0BFC0511108C1C2C002
S11342B0E3D098F39923C9F35523B1F3951B550B18
S11342C0BB27AA2762177307840738F09F5F5F4FE5
S11342D0220F331F441FAA1FA9F333D00E2E3AF026
S11342E0E0E830D091505040E695001CCAF729D040
S11342F0FE2F27D0660F771F881FBB1F261737078F
S11343004807AB07B0E809F0BB0B802DBF01FF27BE
S113431093585F4F2AF09E3F510568F085C0CFC087
S11343205F3FECF3983EDCF3869577956795B795F8
S1134330F7959F5FC9F7880F911D9695879597F913
S11343400895E1E0660F771F881FBB1F621773078C
S11343508407BA0720F0621B730B840BBA0BEE1FA1
S113436088F7E0950895E89409C097FB3EF490958A
S11343708095709561957F4F8F4F9F4F9923A9F03A
S1134380F92F96E9BB279395F695879577956795C9
S1134390B795F111F8CFFAF4BB0F11F460FF1BC00D
S11343A06F5F7F4F8F4F9F4F16C0882311F096E9A0
S11343B011C0772321F09EE8872F762F05C066234E
S11343C071F096E8862F70E060E02AF09A95660F07
S11343D0771F881FDAF7880F9695879597F90895C0
S11343E0990F0008550FAA0BE0E8FEEF1616170602
S11343F0E807F907C0F012161306E407F50798F06A
S1134400621B730B840B950B39F40A2661F0232B82
S1134410242B252B21F408950A2609F4A140A695FE
S11344208FEF811D811D089597F99F6780E870E0E3
S113443060E008959FEF80EC089500240A94161616
S1134440170618060906089500240A94121613067E
S1134450140605060895092E0394000C11F488230C
S113446052F0BB0F40F4BF2B11F460FF04C06F5F28
S11344707F4F8F4F9F4F089557FD9058440F551FFE
S113448059F05F3F71F04795880F97FB991F61F0D2
S11344909F3F79F087950895121613061406551F49
S11344A0F2CF4695F1DF08C0161617061806991FB5
S11344B0F1CF86957105610508940895E894BB27AA
S11344C066277727CB0197F908950BD0C4CFB5DFC2
S11344D028F0BADF18F0952309F0A6CFABCF11244A
S11344E0EECFCADFA0F3959FD1F3950F50E0551F8F
S11344F0629FF001729FBB27F00DB11D639FAA2735
S1134500F00DB11DAA1F649F6627B00DA11D661F83
S1134510829F2227B00DA11D621F739FB00DA11DA4
S1134520621F839FA00D611D221F749F3327A00D5E
S1134530611D231F849F600D211D822F762F6A2FFA
S113454011249F5750408AF0E1F088234AF0EE0F7F
S1134550FF1FBB1F661F771F881F91505040A9F78C
S11345609E3F510570F060CFAACF5F3FECF3983EB9
S1134570DCF3869577956795B795F795E7959F5FF3
S1134580C1F7FE2B880F911D9695879597F908958D
S113459027DF880B990B08950E94032EFC01918D4F
S11345A0228D892F90E0805C9F4F821B91098F732D
S11345B099270895FC01918D828D981731F0828D91
S11345C0E80FF11D858D90E008958FEF9FEF08951A
S11345D0FC01918D828D981761F0828DDF01A80F07
S11345E0B11D5D968C91928D9F5F9F73928F90E029
S11345F008958FEF9FEF08958BE494E2892B41F0A7
S113460080E090E0892B21F046D181110C940000C8
S11346100895FC01848DDF01A80FB11DA35ABF4F7B
S11346202C91848D90E001968F739927848FA689AD
S1134630B7892C93A089B1898C9180648C93938DD4
S1134640848D981306C00288F389E02D80818F7DC4
S113465080830895CF93DF93EC01888D8823C1F084
S1134660EA89FB89808185FD05C0A889B9898C9177
S113467086FD0EC00FB607FCF5CF808185FFF2CF13
S1134680A889B9898C9185FFEDCFCE01C2DFE8CF2F
S1134690DF91CF910895EF92FF920F931F93CF93E1
S11346A0DF93EC0181E0888F9B8D8C8D981305C07E
S11346B0E889F989808185FD23C0F62E0B8D10E0F1
S11346C00F5F1F4F0F731127E02E8C8DE8120BC064
S11346D00FB607FCFACFE889F989808185FFF5CF09
S11346E0CE0197DFF2CF8B8DFE01E80FF11DE35A67
S11346F0FF4FF0820B8FEA89FB898081806207C0BB
S1134700EE89FF896083E889F989808180648083E8
S113471081E090E0DF91CF911F910F91FF90EF9096
S11347200895CF92DF92EF92FF921F93CF93DF937E
S1134730EC016A017B01122FE889F98982E0808308
S11347404115514E61057105A9F060E079E08DE3F2
S113475090E0A70196015ED6DA01C9010197A1098B
S1134760B109B695A79597958795AC01411580E158
S11347705807A0F0E889F989108260E874E88EE1AE
S113478090E0A701960146D6BA01A901415051090A
S1134790610971097695679557954795EC85FD856F
S11347A05083EE85FF854083188EEC89FD89108344
S11347B0EA89FB89808180618083EA89FB89808121
S11347C088608083EA89FB89808180688083EA89A4
S11347D0FB8980818F7D8083DF91CF911F91FF9032
S11347E0EF90DF90CF9008951F920F920FB60F9223
S11347F011242F938F939F93EF93FF93E091770569
S1134800F09178058081E0917D05F0917E0582FD2F
S113481012C09081809180058F5F8F7320918105F4
S1134820821751F0E0918005F0E0E959FA4F958F35
S11348308093800501C08081FF91EF919F918F91BA
S11348402F910F900FBE0F901F9018951F920F92EB
S11348500FB60F9211242F933F934F935F936F934F
S11348607F938F939F93AF93BF93EF93FF9387E6C9
S113487095E0CFDEFF91EF91BF91AF919F918F9122
S11348807F916F915F914F913F912F910F900FBE48
S11348900F901F90189587E695E080DE21E0892B24
S11348A009F420E0822F0895E7E6F5E013821282EE
S11348B088EE93E0A0E0B0E084839583A683B78379
S11348C081EC91E09183808385EC90E095878487E7
S11348D084EC90E09787868780EC90E0918B808BC6
S11348E081EC90E0938B828B82EC90E0958B848BAF
S11348F086EC90E0978B868B118E128E138E148E1D
S11349000895089504D2FDDFEDDBCCEFD2E20EDC96
S11349102097E9F371DEFBCFC5C6CF92DF92EF9209
S1134920FF920F931F93CF93DF936C017A018B0156
S1134930C0E0D0E0CE15DF0589F0D8016D918D017E
S1134940D601ED91FC910190F081E02DC60109950D
S1134950892B11F47E0102C02196ECCFC701DF91AF
S1134960CF911F910F91FF90EF90DF90CF9008951A
S11349706115710579F0FB0101900020E9F7319789
S1134980AF01461B570BDC01ED91FC910280F381D2
S1134990E02D099480E090E00895EF92FF920F9348
S11349A01F93CF93DF938C017B01C0E0D0E0F7012C
S11349B0EC0FFD1F6491662361F0D801ED91FC9129
S11349C00190F081E02DC8010995892B11F0219601
S11349D0EECFCE01DF91CF911F910F91FF90EF9019
S11349E00895DC01ED91FC91DB0114964D915C91ED
S11349F015976D917C910280F381E02D0994B8CFD5
S1134A00DC01ED91FC910190F081E02D09946DECB5
S1134A1071E0AECF0F931F93CF93DF93EC01BDDF13
S1134A208C01CE01F4DF800F911FDF91CF911F9194
S1134A300F9108958F929F92AF92BF92CF92DF927F
S1134A40EF92FF920F931F93CF93DF93CDB7DEB70F
S1134A50A1970FB6F894DEBF0FBECDBF7C01D42E54
S1134A60C52EDB0119A2223008F42AE08E010F5D65
S1134A701F4F822E912CA12CB12C6D2D7C2DCD019C
S1134A80A5019401C7D4D22EC32EDA010150110915
S1134A906A3071058105910510F4605D01C0695C9F
S1134AA0F8016083232B242B252B39F7B801C70188
S1134AB05FDFA1960FB6F894DEBF0FBECDBFDF91C6
S1134AC0CF911F910F91FF90EF90DF90CF90BF9007
S1134AD0AF909F908F900895CF92DF92EF92FF92C4
S1134AE00F931F93CF93DF93EC016A017B01211590
S1134AF0310579F4E881F9810190F081E02D642F8A
S1134B00DF91CF911F910F91FF90EF90DF90CF90A5
S1134B1009942A303105D9F477FF18C06DE270DFAB
S1134B208C0144275527BA014C195D096E097F0988
S1134B302AE0CE017FDF800F911FDF91CF911F917B
S1134B400F91FF90EF90DF90CF9008952AE0B70186
S1134B50A601CE01DF91CF911F910F91FF90EF90AD
S1134B60DF90CF9067CF0F931F93CF93DF93EC0128
S1134B709A01AB01770F660B770BAEDF8C01CE0188
S1134B8046DF800F911FDF91CF911F910F91089500
S1134B901F920F920FB60F9211242F933F938F936E
S1134BA09F93AF93BF938091050690910606A091C1
S1134BB00706B09108063091040623E0230F2D3731
S1134BC020F40196A11DB11D05C026E8230F02960D
S1134BD0A11DB11D2093040680930506909306063B
S1134BE0A0930706B09308068091090690910A06DF
S1134BF0A0910B06B0910C060196A11DB11D8093E6
S1134C00090690930A06A0930B06B0930C06BF9175
S1134C10AF919F918F913F912F910F900FBE0F9065
S1134C201F9018952FB7F8946091050670910606A9
S1134C3080910706909108062FBF08953FB7F89416
S1134C408091090690910A06A0910B06B0910C067A
S1134C5026B5A89B05C02F3F19F00196A11DB11DD3
S1134C603FBFBA2FA92F982F8827820F911DA11D0E
S1134C70B11DBC01CD0142E0660F771F881F991F4B
S1134C804A95D1F708958F929F92AF92BF92CF9297
S1134C90DF92EF92FF926B017C01D0DF4B015C014C
S1134CA0C114D104E104F104F1F0B3D3C7DFDC0192
S1134CB0CB0188199909AA09BB09883E9340A1052B
S1134CC0B10570F321E0C21AD108E108F10888EEB9
S1134CD0880E83E0981EA11CB11CC114D104E10408
S1134CE0F10421F7DDCFFF90EF90DF90CF90BF90DC
S1134CF0AF909F908F9008958230910538F0880F7F
S1134D00991F880F991F05970197F1F708957894D3
S1134D1084B5826084BD84B5816084BD85B58260BC
S1134D2085BD85B5816085BDEEE6F0E0808181605A
S1134D308083E1E8F0E0108280818260808380815A
S1134D4081608083E0E8F0E0808181608083E1EB32
S1134D50F0E0808184608083E0EBF0E0808181601A
S1134D608083EAE7F0E080818460808380818260D0
S1134D7080838081816080838081806880831092B9
S1134D80C10008958E3008F08E50877020910C0178
S1134D9090E4299F90011124822B80937C008091C0
S1134DA07A00806480937A0080917A0086FDFCCF3B
S1134DB0809178002091790090E0922B08958330BF
S1134DC081F028F4813099F08230A1F00895873081
S1134DD0A9F08830B9F08430D1F4809180008F7DBF
S1134DE003C0809180008F7780938000089584B5FC
S1134DF08F7702C084B58F7D84BD08958091B00003
S1134E008F7703C08091B0008F7D8093B0000895A8
S1134E10CF93DF9390E0FC01E253FC4F2491FC011B
S1134E20EE51FC4F8491882361F190E0880F991F23
S1134E30FC01E65FFB4FC591D491FC01E050FC4FAF
S1134E40A591B491611109C09FB7F8948881209508
S1134E5082238883EC912E230BC0623061F49FB7C8
S1134E60F8943881822F809583238883EC912E2BAC
S1134E702C939FBF06C08FB7F894E8812E2B28830C
S1134E808FBFDF91CF9108951F93CF93DF93282F86
S1134E9030E0F901E654FC4F8491F901E253FC4FF0
S1134EA0D491F901EE51FC4FC491CC23C1F0162FDB
S1134EB0811185DFEC2FF0E0EE0FFF1FE050FC4F77
S1134EC0A591B4918FB7F894111105C09C91ED2F61
S1134ED0E095E92302C0EC91ED2BEC938FBFDF91B9
S1134EE0CF911F910895CF93DF93282F30E0F901DC
S1134EF0E654FC4F8491F901E253FC4FD491F9013B
S1134F00EE51FC4FC491CC2389F0811158DFEC2F72
S1134F10F0E0EE0FFF1FEA50FC4FA591B491EC9125
S1134F20ED2381E090E021F480E002C080E090E095
S1134F30DF91CF910895FC0180819181B3C3CF9318
S1134F40DF93EC0188819981009709F0ABD3198232
S1134F5018821D821C821B821A82DF91CF910895D0
S1134F600F931F93CF93DF93EC018B016F5F7F4F00
S1134F70888199812FD4009731F0998388831B838A
S1134F800A8381E001C080E0DF91CF911F910F91EE
S1134F900895CF93DF93EC0188819981892B29F0BF
S1134FA08A819B818617970758F4CE01D9DF88231D
S1134FB041F08C819D81892B19F4E881F98110825B
S1134FC081E0DF91CF910895EF92FF920F931F93A9
S1134FD0CF93DF93EC017B018A01BA01DADF8111FF
S1134FE003C0CE01ACDF06C01D830C83B7018881EA
S1134FF0998142D6CE01DF91CF911F910F91FF90FD
S1135000EF900895FC01118210821382128215829E
S113501014826115710549F0FB0101900020E9F744
S11350203197AF01461B570BCFCF0895CF93DF9332
S1135030EC01FB018617970751F0608171816115BE
S1135040710521F044815581BFDF01C078DFCE01B5
S1135050DF91CF910895FC01118210821382128294
S113506015821482E3CFCF93DF93EC0161157105B0
S113507051F0FB0101900020E9F73197AF01461B85
S1135080570BA2DF01C05BDFCE01DF91CF91089502
S1135090EF92FF920F931F93CF93DF93CDB7DEB7B9
S11350A0A1970FB6F894DEBF0FBECDBF7C01CB0134
S11350B0BA01F701118210821382128215821482BE
S11350C042E0420F8E010F5F1F4F38D2BC01C7016F
S11350D0CADFA1960FB6F894DEBF0FBECDBFDF9135
S11350E0CF911F910F91FF90EF900895EF92FF924F
S11350F00F931F93CF93DF93CDB7DEB7A1970FB66E
S1135100F894DEBF0FBECDBF7C01CB01BA01F7011D
S113511011821082138212821582148242E0420F9D
S11351208E010F5F1F4F0AD2BC01C7019CDFA196FD
S11351300FB6F894DEBF0FBECDBFDF91CF911F91A4
S11351400F91FF90EF900895EF92FF920F931F93AA
S1135150CF93DF93FC01248135816115710511F42E
S113516080E017C04115510599F07B01EC018A01DB
S1135170020F131FB8010DDF882391F328813981B1
S11351808C819D81B701820F931F76D51D830C837B
S113519081E0DF91CF911F910F91FF90EF900895DF
S11351A06115710549F0FB0101900020E9F7319781
S11351B0AF01461B570BC8CF80E00895CF93DF9310
S11351C000D0CDB7DEB769831A8241E050E0BE015A
S11351D06F5F7F4FB9DF0F900F90DF91CF910895EC
S11351E0CF93DF93EC01FB01448155816081718190
S11351F0ABDF811102C0CE01A2DECE01DF91CF91DF
S11352000895FC0124813581232B31F421E06115BB
S1135210710599F0FB0108C0FC0180819181611541
S1135220710531F421E0FC018081882331F004C050
S11352301AD521E0892B09F020E0822F0895DB01A3
S11352401496ED91FC911597DC0114962D913C91E7
S113525015972E1B3F0B2417350798F02D913C9181
S11352602115310571F0DB016D917C91611571059A
S113527041F0CA01AF01820F931F05D521E0892BAC
S113528009F020E0822F0895FC0144815581FB013F
S1135290248135814217530718F040E050E0CFCF06
S11352A080E00895FC01248135816217730748F476
S11352B080819181009729F0FC01E60FF71F80811E
S11352C0089580E00895EECFBF92CF92DF92EF92DF
S11352D0FF920F931F93CF93DF937C016B018A019D
S11352E0E9012417350720F4812F8901C42FD82F11
S11352F06FEC71E0C70186DED60114968D919C9106
S1135300159708171907C8F48C179D0708F4EC01C2
S1135310D601ED91FC911197EC0FFD1FB080108226
S11353204D915C91BA01600F711FC7019CDED601DB
S1135330ED91FC91EC0FFD1FB082C701DF91CF917D
S11353401F910F91FF90EF90DF90CF90BF90089541
S1135350AF92BF92CF92DF92EF92FF920F931F937F
S1135360CF93DF93DC01CD90DC901197C114D1046D
S1135370D9F11496CD91DC9115972097A9F18C0160
S113538056017501BFEFAB1ABB0AF701808190E0AB
S113539041D4892BB1F72197CC0DDD1D888190E094
S11353A039D4892B89F4AE014F5F5F4F4E195F09E1
S11353B0D80115965C934E931497CE14DF0448F4E9
S11353C0B701C60147D405C0CE15DF0560F32197A8
S11353D0E5CFD801ED91FC91119714968D919C9194
S11353E01597E80FF91F1082DF91CF911F910F914C
S11353F0FF90EF90DF90CF90BF90AF900895FC01A5
S113540080819181009709F002C460E070E0CB01D3
S113541008950895A1E21A2EAA1BBB1BFD010DC01D
S1135420AA1FBB1FEE1FFF1FA217B307E407F50750
S113543020F0A21BB30BE40BF50B661F771F881F2C
S1135440991F1A9469F760957095809590959B01C2
S1135450AC01BD01CF010895052E97FB16F400940D
S11354600FD057FD05D0D6DF07FC02D046F408C0A4
S113547050954095309521953F4F4F4F5F4F08957C
S113548090958095709561957F4F8F4F9F4F0895AC
S1135490EE0FFF1F0590F491E02D099440D0A59FD5
S11354A0900DB49F900DA49F800D911D112408951B
S11354B02F923F924F925F926F927F928F929F9220
S11354C0AF92BF92CF92DF92EF92FF920F931F930E
S11354D0CF93DF93CDB7DEB7CA1BDB0B0FB6F894BF
S11354E0DEBF0FBECDBF09942A88398848885F84FF
S11354F06E847D848C849B84AA84B984C884DF8070
S1135500EE80FD800C811B81AA81B981CE0FD11D53
S11355100FB6F894DEBF0FBECDBFED010895A29F74
S1135520B001B39FC001A39F700D811D1124911D73
S1135530B29F700D811D1124911D0895EF920F9358
S11355401F93CF93DF93E80147FD02C034E001C00D
S113555034E1E42F440FFF0BF7FF03C0F195E1950D
S1135560F109E32E022F2E2FAE019BD3CE01DF9142
S1135570CF911F910F91EF900895CF93DF938230D5
S1135580910510F482E090E0E0910F06F09110068E
S113559020E030E0C0E0D0E0309711F1408151814B
S11355A048175907C0F04817590761F4828193815D
S11355B0209719F09B838A832BC0909310068093C5
S11355C00F0626C02115310519F04217530718F4A8
S11355D09A01BE01DF01EF010280F381E02DDCCFEF
S11355E02115310509F1281B390B2430310590F4BC
S11355F012968D919C9113976115710521F0FB0111
S11356009383828304C09093100680930F06FD0158
S1135610329644C0FD01E20FF31F8193919322500F
S113562031092D933C933AC020910D0630910E061A
S1135630232B41F4209102013091030130930E0693
S113564020930D06209100013091010121153105AF
S113565041F42DB73EB74091040150910501241B3C
S1135660350BE0910D06F0910E06E217F307A0F456
S11356702E1B3F0B2817390778F0AC014E5F5F4FA4
S11356802417350748F04E0F5F1F50930E064093C2
S11356900D068193919302C0E0E0F0E0CF01DF9129
S11356A0CF9108950F931F93CF93DF93009709F43D
S11356B08CC0FC0132971382128200910F06109164
S11356C010060115110581F420813181820F931F89
S11356D020910D0630910E062817390779F5F093BD
S11356E00E06E0930D0671C0D80140E050E0AE17FD
S11356F0BF0750F412962D913C911397AD012115DB
S1135700310509F1D901F3CF9D01DA0133832283F5
S113571060817181860F971F8217930769F4EC01EA
S113572028813981260F371F2E5F3F4F3183208315
S11357308A819B8193838283452B29F4F0931006FD
S1135740E0930F0642C01396FC93EE931297ED017B
S1135750499159919E01240F351FE217F30771F403
S113576080819181840F951F029611969C938E934C
S11357708281938113969C938E931297E0E0F0E0DC
S1135780D80112968D919C911397009719F0F80106
S11357908C01F6CF8D919C9198012E5F3F4F820F23
S11357A0931F20910D0630910E062817390769F4CE
S11357B0309729F41092100610920F0602C013823B
S11357C0128210930E0600930D06DF91CF911F9164
S11357D00F910895A0E0B0E0EFEEFBE26DCEEC0196
S11357E0009719F4CB01C9DEB4C0FC01E60FF71F22
S11357F09C0122503109E217F30708F4A8C0D9012B
S11358000D911C91119706171707A8F00530110583
S113581008F49BC0C80104978617970708F495C03D
S113582002501109061B170B019311936D937C937E
S1135830CF0138DF8AC05B01A01AB10A4C01800E87
S1135840911EA0910F06B091100640E050E0E12CAB
S1135850F12C109709F44AC0A815B905D1F56D903B
S11358607C901197630182E0C80ED11CCA14DB043A
S113587080F1A3014A195B096A0182E0C80ED11CB8
S11358801296BC9012971396AC91B5E0CB16D10446
S113589040F0B282A38351834083D9016D937C93FA
S11358A00AC00E5F1F4FC301800F911FF90191833E
S11358B08083EB2DFA2FE114F10431F0D701139614
S11358C0FC93EE93129741C0F0931006E0930F06F9
S11358D03CC08D919C9111974817590708F4AC016D
S11358E07D0112960D90BC91A02DB3CF80910D0631
S11358F090910E0688159905E1F446175707C8F4E8
S11359008091000190910101009741F48DB79EB7F9
S11359104091040150910501841B950BE817F90788
S1135920B0F4F0930E06E0930D06F90171836083E1
S11359300CC0CB0122DE7C01009749F0A801BE0116
S113594089D1CE01AFDEC70104C0CE0102C080E020
S113595090E0CDB7DEB7EEE0CBCDA0E0B0E0E2EB77
S1135960FCE2AACDEC017B016115710519F0DB01A4
S11359708D939C938E010F5F1F4F7880872D90E04D
S113598049D1892B11F0E801F5CFBDE27B1205C0A6
S11359900F5F1F4F7980C1E008C0EBE27E1204C0A4
S11359A08E010E5F1F4F7980C0E06801F1E0CF1ACD
S11359B0D10843E050E062E072E0C60133D1892BA4
S11359C0E9F4680122E0C20ED11C45E050E06DEF1D
S11359D071E0C60127D1892B21F4680187E0C80E44
S11359E0D11CE114F10419F0D701CD92DC92C1115C
S11359F0FDC060E070E080E89FE701C143E050E053
S1135A006AEF71E0C6010ED1892B51F4E114F1045F
S1135A1009F4F1C00E5F1F4FF70111830083EBC03F
S1135A20680160E070E0CB0100E010E0F601D0ED29
S1135A30D70DDA3050F52C2F2260622E2C2F2870CF
S1135A40C2FF05C0211127C00F5F1F4F24C02223AE
S1135A5011F001501109A5E0B0E09B01AC011EDD7D
S1135A604B015C01880C991CAA1CBB1CC501B40128
S1135A706D0F711D811D911D6839A9E97A078A0787
S1135A80A9E19A0740F0C66005C0DE3F51F4C3FDAA
S1135A9044C0C8606C2EBFEFCB1ADB0A7080C62DE1
S1135AA0C5CF2D2F2F7D2531C1F540814D3211F405
S1135AB0C06106C04B3221F0319621E030E006C0CF
S1135AC03296D60111964C9122E030E0A0EDA40F5D
S1135AD0AA3018F0E21BF30B20C040E050E040383D
S1135AE0BCE05B075CF49A01220F331F220F331FC3
S1135AF0420F531F440F551F4A0F511D3196DF01AA
S1135B0011972C91A0EDA20FAA3048F3C4FF03C053
S1135B10519541955109040F151FC1FF07C0E114A8
S1135B20F10421F03197D701ED93FC930E94B32146
S1135B30C370C33019F06B017C0106C06B017C019A
S1135B40F7FAF094F7F8F09420E030E0A901C701E7
S1135B50B6010E944721882309F445C017FF06C0F7
S1135B60119501951109C9E1D2E002C0C1E3D2E067
S1135B705E01B8E1AB1AB1084601BE2DAF2D90E22B
S1135B80E92EF12C0E151F0584F0FE0125913591A7
S1135B9045915491B4018B2F9A2F0E9465224B0199
S1135BA0B82FA92F0E191F09EDCF2497F594E79468
S1135BB0CA15DB0539F76401EB2EFA2E8E2D880FFA
S1135BC08F2D881F8F3F49F020E030E0A901C701E5
S1135BD0B6010E944721811106C082E290E09093B1
S1135BE0120680931106C701B60109C060E070E097
S1135BF080E89FEF04C060E070E080EC9FE7CDB7E1
S1135C00DEB7EEE075CC81E090E0F894E1C266275F
S1135C107727A3CE9111AAC2803219F089508550FA
S1135C20D0F70895FB01DC014150504088F08D917C
S1135C3081341CF08B350CF4805E659161341CF06A
S1135C406B350CF4605E861B611171F3990B08953A
S1135C50881BFCCFFB01DC0102C001900D92415076
S1135C605040D8F70895FB01DC018D910190801913
S1135C700110D9F3990B0895FB01DC0101900D92F9
S1135C800020E1F70895FB01DC014150504030F061
S1135C908D910190801919F40020B9F7881B990B94
S1135CA008954F925F926F927F929F92AF92BF92AC
S1135CB0CF92DF92EF92FF920F931F93CF93DF93D4
S1135CC0CDB7DEB729970FB6F894DEBF0FBECDBFB0
S1135CD06A01122FB02E2BE3201720F0FF24F39437
S1135CE0F00E02C0BCE3FB2E0F2D27E0AE014F5F88
