S0140000576174657253656E736F72732E7372656320
S11300002FC2000055C2000053C200002BC60000DE
S113001029C6000027C600004BC2000049C20000E8
S113002047C2000045C2000043C2000041C20000B4
S11300303FC200003DC200003BC2000039C20000C4
S11300400C94762D35C200000C948F2A0C94C12A8E
S11300502FC200002DC200002BC2000029C20000E4
S113006086C2000025C20000BD03C003C003C00354
S1130070C003C003C003C003D702C003C003C0034E
S1130080C003C003C003C003D702C003C003C0033E
S1130090C003C003C003C003DF02C003C003C00326
S11300A0C003C003C003C0030403C003C003C003F0
S11300B0C003C003C003C003DF02C003C003C00306
S11300C0C003C003C003C0030903C003C003C003CB
S11300D0C003C003C003C0030E03C003C003C003B6
S11300E0C003C003C003C0031F03C003C003C00395
S11300F0C003C003C003C0034803C003C003C0035C
S1130100C003C003C003C0031303C003C003C00380
S1130110C003C003C003C0032D03C003C003C00356
S1130120C003C003C003C0034A03C003C003C00329
S1130130C003C003C003C0034A03C003C003C00319
S1130140C003C003C003C0034A03C003C003C00309
S1130150C003C003C003C0034A03C003C003C003F9
S1130160C003C003C003C0035303C003C003C003E0
S1130170C003C003C003C0038403C003C003C0039F
S1130180C003C003C003C0035303C003C003C003C0
S1130190C003C003C003C0038403C003C003C0037F
S11301A0C003C003C003C0036B03C003C003C00388
S11301B0C003C003C003C0038803C003C003C0035B
S11301C0C003C003C003C0038803C003C003C0034B
S11301D0C003C003C003C0039D03C003C003C00326
S11301E0C003C003C003C003B703C003C003C003FC
S11301F0C003C003C003C003B7034E414E494E4978
S11302005459494E46CDCCCC3D0AD7233C17B7D1DF
S11302103877CC2B329595E6241FB14F0A00002085
S1130220410000C84200401C4620BCBE4CCA1B0E04
S11302305AAEC59D7400407A10F35A00A0724E184D
S1130240090010A5D4E80000E87648170000E40B84
S113025054020000CA9A3B000000E1F5050000804A
S1130260969800000040420F000000A086010000A4
S113027000102700000000E80300000000640000F4
S11302800000000A00000000000100000000002C33
S113029076D888DC674F0823DFC1DFAE59E1B1B7F8
S11302A096E5E3E453C63AE651997696E8E6C284C5
S11302B026EB898C9B62ED407C6FFCEFBC9C9F40DD
S11302C0F2BAA56FA5F490055A2AF75C936B6CF902
S11302D0676DC11BFCE0E40D47FEF520E6B500D0D8
S11302E0ED902E0300943577050080841E080000ED
S11302F0204E0A000000C80C333333330F986E12BB
S1130300831141EF8D2114893BE65516CFFEE6DBC0
S113031018D1844B381BF77C1D901DA4BBE424200A
S11303203284725E228100C9F124ECA1E53D2720CC
S113033020202020202020202020202020202000D9
S11303404572726F72206E756D62657220666F728F
S11303502074686520617272617920746F206176FF
S1130360726167696E67212F6E00416464696E670C
S113037020706856616C3A200053657474696E6726
S113038020706856616C3A20005F736C6176653A40
S11303902000636D643A2000636D64446174613AC3
S11303A02000556E6578706563746564206E756DA4
S11303B0626572206F66206279746573207265636A
S11303C065697665643A20007E726573706F6E733A
S11303D065496E646578206E6F7420666F756E640F
S11303E03A20005B53656C656C63745D20507265E4
S11303F07373656400000000080002010000030438
S11304000700000000000000000102040810204062
S113041080010204081020010204081020040404CE
S11304200404040404020202020202030303030399
S1130430030000000023002600290000000000251E
S11304400028002B0000000000240027002A0000E0
S1130450EA05050B2C251A263A27EF2A3A252826E1
S113046011241FBECFEFD8E0DEBFCDBF11E0A0E066
S1130470B1E0E8E9F2E702C005900D92A23DB107B0
S1130480D9F726E0A2EDB1E001C01D92A831B20770
S1130490E1F712E0CEE2D2E004C02197FE010E940F
S11304A04132C832D107C9F70E941D2B0C94403940
S11304B0A7CD10923F0281E080933D0210923C024E
S11304C061E082E10E94F22E61E083E10E94F22E5B
S11304D0E9EBF0E080818E7F808380818D7F808353
S11304E088E48093B80085E48093BC000895880F65
S11304F08093BA0008956132C8F420913F022430F9
S1130500B9F46093F4016623A9F0FC01A6EFB1E00D
S11305106150262F30E02F5F3F4F280F391F9191F4
S11305209D93E217F307D9F780E0089581E00895D9
S113053082E0089580E00895909339028093380210
S1130540089590933B0280933A02089585ED809339
S1130550BC00ECEBF0E0808184FDFDCF10923F0203
S1130560089585EC8093BC0010923F0208951F9279
S11305700F920FB60F9211242F933F934F935F93D3
S11305806F937F938F939F93AF93BF93EF93FF9357
S11305908091B900E82FE87F8E2F90E0893C910587
S11305A008F0EEC0FC01EC5CFF4F0C9441328091EA
S11305B03E028093BB0085EC8093BC00E1C0909127
S11305C0170280911602981780F4E091170281E0D7
S11305D08E0F80931702F0E0E85EFD4F80818093D8
S11305E0BB0085EC8093BC00CBC080913D02882386
S11305F011F0ACDFC5C081E080933C0284EA8093B3
S1130600BC0010923F02BCC080E28093D2019EDF06
S1130610B7C080E38093D20199DFB2C088E38093AE
S1130620D2019FDFADC0E091170281E08E0F80936D
S113063017028091BB00F0E0E85EFD4F808390914B
S1130640170280911602981720F485EC8093BC0061
S113065097C085E88093BC0093C0E091170281E0C5
S11306608E0F809317028091BB00F0E0E85EFD4F8F
S1130670808380913D02882311F068DF81C081E08E
S113068080933C0284EA8093BC0010923F0278C0BD
S11306905DDF76C083E080933F021092D30185EC46
S11306A08093BC006DC08091D301803280F4E091CE
S11306B0D30181E08E0F8093D3018091BB00F0E0E1
S11306C0EC52FE4F808385EC8093BC0059C085E8D2
S11306D08093BC0055C08091D301803230F4E09106
S11306E0D301F0E0EC52FE4F108230DF6091D30171
S11306F070E0E0913802F091390284ED91E00995BF
S11307001092D3012EDF3CC085E88093BC0038C032
S113071084E080933F021092F5011092F401E0917D
S11307203A02F0913B0209958091F401811105C0D0
S113073081E08093F4011092F601E091F50181E0EB
S11307408E0F8093F501F0E0EA50FE4F8081809394
S1130750BB009091F5018091F401981720F485EC89
S11307608093BC000DC085E88093BC0009C085EC73
S11307708093BC0010923F0203C01092D201E6DEC7
S1130780FF91EF91BF91AF919F918F917F916F9165
S11307905F914F913F912F910F900FBE0F901F903B
S11307A01895A4E0B0E0E7EDF3E00C9461329A838D
S11307B089837C836B8389819A812B813C81FC01B1
S11307C0338322832496E2E00C947D32A2E0B0E0ED
S11307D0ECEEF3E00C9461329A83898389819A81E7
S11307E02DEC31E0FC013183208389819A81FC0165
S11307F0138212822296E2E00C947D32A2E0B0E0F1
S1130800E4E0F4E00C9461329A83898389819A81CB
S1130810DDDF89819A812EE631E0FC01318320837A
S113082029813A8188EE93E0A0E0B0E0F901848365
S11308309583A683B7832296E2E00C947D32A2E0EE
S1130840B0E0E5E2F4E00C9461329A838983898113
S11308509A81D4DF89819A812EE531E0FC013183CC
S113086020832296E2E00C947D32A2E0B0E0EBE338
S1130870F4E00C9461329A8389831092600210929E
S11308806102109282021092830213DE2296E2E049
S11308900C947D32A3E0B0E0E0E5F4E00C94613226
S11308A09A8389836B838B8122DE8FE895E049DE0E
S11308B089E495E041DE89819A81D7DF2396E2E0DD
S11308C00C947D32A3E0B0E0E8E6F4E00C946132ED
S11308D09A8389836B83809184028823F9F08091C1
S11308E08302803240F089819A8161E070E059DFAF
S11308F080E090E019C080918202882F90E02B81E3
S11309008E599D4FFC012083809182028F5F8093DA
S11309108202809182028093830204C0CE010396F6
S113092061E0E9DD81E090E02396E2E00C947D3221
S1130930A8E0B0E0EEE9F4E00C9461329C838B8390
S11309407E836D8358874F8380918402882329F1A5
S11309501A8219821AC08B819C81FC018081918149
S1130960FC01208131814D815E8189819A81840FCE
S1130970951FFC0140818B819C81642FF9010995AD
S113098089819A8101969A83898329813A818F8109
S1130990988528173907F8F205C02F818D819E812B
S11309A0622FA9DD8F8198852896E2E00C947D3230
S11309B0A2E0B0E0EEEDF4E00C9461329A83898316
S11309C080916102282F30E080916002882F90E0AE
S11309D0A901481B590BCA012296E2E00C947D320E
S11309E0A4E0B0E0E6EFF4E00C9461329C838B83E6
S11309F08FEF9FEF9A8389839091600280916102C7
S1130A00981788F480916002882F90E0805C9D4F55
S1130A10FC018081882F90E09A8389838091600211
S1130A208F5F8093600289819A812496E2E00C941E
S1130A307D32A4E0B0E0EFE1F5E00C9461329C83F8
S1130A408B838FEF9FEF9A838983909160028091CB
S1130A506102981760F480916002882F90E0805CB6
S1130A609D4FFC018081882F90E09A83898389813E
S1130A709A812496E2E00C947D32A2E0B0E0E3E4B3
S1130A80F5E00C9461329A8389832296E2E00C9417
S1130A907D32A5E0B0E0EFE4F5E00C9461329B8395
S1130AA08A837D836C838091870290918802892B4D
S1130AB009F431C09091600280916102981708F4A2
S1130AC02AC0198213C08981882F90E02981222F9E
S1130AD030E04A815B81240F351FF9012081805C5D
S1130AE09D4FFC01208389818F5F89838981282F11
S1130AF030E08C819D81281739072CF31092600215
S1130B008C818093610220918702309188028C81CC
S1130B109D81F90109952596E2E00C947D32A0E0CF
S1130B20B0E0E5E9F5E00C946132809185029091A2
S1130B308602892B09F40AC0109282021092830261
S1130B408091850290918602FC010995E2E00C9463
S1130B507D32A4E0B0E0EFEAF5E00C9461329A83D0
S1130B6089837C836B838B819C819093880280939F
S1130B7087022496E2E00C947D32A4E0B0E0E3EC3A
S1130B80F5E00C9461329A8389837C836B838B8137
S1130B909C8190938602809385022496E2E00C94D3
S1130BA07D32A4E0B0E0E7EDF5E00C9461329A8385
S1130BB089837C836B8389819A81019739F48B8142
S1130BC09C81019619F489E892E039DE2496E2E0EA
S1130BD00C947D32A0E0B0E0E0EFF5E00C946132DB
S1130BE06FEF7FEF81E090E0DCDFE2E00C947D3298
S1130BF0A2E0B0E0EEEFF5E00C94613289836A8301
S1130C002296E2E00C947D32A4E0B0E0EAE0F6E063
S1130C100C9461329C838B838B819C819A8389831E
S1130C2089819A810197F1F79A8389832496E2E076
S1130C300C947D32A2E0B0E0E0E2F6E00C94613284
S1130C409A83898389819A81FC0186859785FC0131
S1130C50208189819A81FC01858582232296E2E0A4
S1130C600C947D321F920F9200905F000F9211241A
S1130C702F933F934F935F936F937F938F939F93A0
S1130C80AF93BF93EF93FF93CF93DF93CDB7DEB7CB
S1130C902B97DEBFCDBF8091950290919602892B50
S1130CA009F4F4C080919502909196029A83898305
S1130CB01B8289819A81FC01868D8270882349F088
S1130CC089819A81B7DF982F81E0992351F480E0DC
S1130CD008C089819A81AEDF982F81E0992309F0B9
S1130CE080E0882309F4D2C089819A819D838C8312
S1130CF01E828E818823A1F08C819D81FC018389D1
S1130D0094892C813D81F90123893489F901408139
S1130D102C813D81F9012589242BFC01208315C0F8
S1130D208C819D81FC01838994892C813D81F90109
S1130D3023893489F9012081422F2C813D81F901D5
S1130D40258920952423FC01208389819A81FC0133
S1130D508689978959DF61E08DE04ADF88E08F83D7
S1130D601FC089819A81FC01808D918D4DDF8B811B
S1130D70882F90E0959587958B8361E08DE038DF2F
S1130D8089819A8157DF982F81E0992309F480E0C3
S1130D90882319F08B8180688B838F8181508F83A6
S1130DA08F818823F1F689819A81FC01868D827076
S1130DB0882319F08B8180958B838091D702882FAB
S1130DC090E001968F739078992324F40197806CB6
S1130DD09F6F019688879091D80281E02885291712
S1130DE009F480E0882369F08091D702882F90E08D
S1130DF089569D4F2B81FC01208388858093D702DF
S1130E000AC061E08BE0F4DE89819A81FC01268DC1
S1130E102160FC01268F89819A81FC01828D938D4A
S1130E20F3DE61E08BE0E4DE89819A819A87898729
S1130E3081E08B878B858823A1F089859A85FC01C5
S1130E408389948929853A85F90123893489F901AB
S1130E50408129853A85F9012589242BFC012083C9
S1130E6015C089859A85FC018389948929853A85E9
S1130E70F90123893489F9012081422F29853A8592
S1130E80F901258920952423FC0120832B960FB694
S1130E90F894DEBF0FBECDBFDF91CF91FF91EF91EC
S1130EA0BF91AF919F918F917F916F915F914F917E
S1130EB03F912F910F9000925F000F901F90189513
S1130EC08F92AF92CF92EF920F93CF93DF93CDB7E0
S1130ED0DEB728970FB6F894DEBF0FBECDBF9A8356
S1130EE089836B834C832D830E83EF82C88689812B
S1130EF09A816CDC89819A812EE731E0FC0131838F
S1130F00208389819A811F921F921F921F92888445
S1130F10AF80CE80ED800C812FEF4B8161E012D049
S1130F200F900F900F900F9028960FB6F894DEBF95
S1130F300FBECDBFDF91CF910F91EF90CF90AF90C7
S1130F408F9008958F92AF92CF92EF920F93CF9399
S1130F50DF93CDB7DEB72A970FB6F894DEBF0FBE86
S1130F60CDBF9A8389836B834C832D830E83EF8259
S1130F70C886A9868A8689819A812C81FC0124836A
S1130F8089819A812D81FC01258389819A812E8111
S1130F90FC01268389819A812F81FC012783898121
S1130FA09A812885FC01208789819A812985FC0101
S1130FB0218789819A812A85FC01228789819A81E6
S1130FC02C89FC01238789819A812D89FC0124873E
S1130FD089819A812E89FC01258789819A812F89AB
S1130FE0FC01268789819A81FC01848161E00E9449
S1130FF0B62E89819A81FC0185818F3F39F08981E0
S11310009A81FC01858161E00E94B62E89819A81D2
S1131010FC01868161E00E94B62E8B81882329F031
S113102089819A81FC01178605C089819A8120E112
S1131030FC01278789819A8120E041E060E10ED09C
S11310402A960FB6F894DEBF0FBECDBFDF91CF91C5
S11310500F91EF90CF90AF908F900895A5E0B0E0FE
S1131060E4E3F8E00C945F329A8389836B834C83C6
S11310702D838C81823050F089819A81FC0187858F
S1131080282F286089819A81FC01278789819A8188
S11310902C81FC01238B8B81882F90E0AC01405C78
S11310A05F4F8B81282F30E089819A818A0140E447
S11310B050E060E070E0A4D08D81882369F08C81D9
S11310C0813051F489819A81FC018785282F24601D
S11310D089819A81FC01278780E593EC0E942A2E5E
S11310E089819A81FC01848160E00E94F22E8981C9
S11310F09A81FC01868160E00E94F22E89819A81A6
S1131100FC0185818F3F39F089819A81FC018581B9
S113111060E00E94F22E89819A81FC018785882FE4
S113112090E080719927892BE9F489819A8163E0A1
S113113091D184E991E10E942A2E89819A8163E008
S113114089D184E991E10E942A2E89819A8163E000
S113115081D186E990E00E942A2E89819A8162E0F9
S113116079D126C089819A81FC018785282F206244
S113117089819A81622FD6D084E991E10E942A2E36
S113118089819A81FC018785282F206289819A812F
S1131190622FC8D086E990E00E942A2E89819A8124
S11311A0FC018785282F206289819A81622FBAD019
S11311B089819A81FC018785282F206289819A81FF
S11311C0622FB0D089819A8124E0FC01208B89812F
S11311D09A8188D089819A813BD089819A8122E041
S11311E0FC01218B89819A81FC018189282F24604B
S11311F089819A81622F96D02596E4E00C947B3203
S1131200AAE0B0E0E6E0F9E00C945F329A838983C7
S11312107C836B835E834D8338872F831A8709878A
S11312202B8189819A81FC01248B2D8189819A816A
S1131230FC01258B2F8189819A81FC01268B2985CC
S113124089819A81FC01278B2A96E4E00C947B32F5
S1131250A2E0B0E0EEE2F9E00C9461329A83898373
S113126089819A8161E05ED080ED97E00E942A2E08
S11312702296E2E00C947D32A6E0B0E0E2E4F9E0EC
S11312800C9461329C838B836D834E8384E090E065
S11312909A8389838E81843010F083E08E838B81DE
S11312A09C81FC0193898E81891730F08B819C810C
S11312B0FC01838981508E838E81882F90E02B815D
S11312C03C81820F931F4496FC0190818D81890F8C
S11312D08068282F8B819C81622F24D02696E2E09F
S11312E00C947D32A2E0B0E0E8E7F9E00C946132BE
S11312F09A83898389819A81FC018089282F2460BB
S113130089819A81FC01208B89819A81FC018089E1
S1131310282F286089819A81622F04D02296E2E0E6
S11313200C947D32A3E0B0E0E8E9F9E00C9461327A
S11313309A8389836B8389819A8140E06B8118D079
S11313402396E2E00C947D32A3E0B0E0EAEAF9E00F
S11313500C9461329A8389836B8389819A8141E0F9
S11313606B8106D081E090E02396E2E00C947D321C
S1131370A4E0B0E0EEEBF9E00C9461329A83898347
S11313806B834C8389819A81FC0184816C810E94E6
S1131390F22E89819A81FC0185818F3F39F0898100
S11313A09A81FC01858160E00E94F22E89819A81F4
S11313B0FC018785882F90E080719927892B29F07B
S11313C089819A816B8185D014C08B81882F90E0AC
S11313D095958795959587959595879595958795F1
S11313E0282F89819A81622F35D089819A816B81D6
S11313F031D02496E2E00C947D32A2E0B0E0E3E048
S1131400FAE00C9461329A83898389819A81FC0180
S1131410868160E00E94F22E81E090E00E942A2EF4
S113142089819A81FC01868161E00E94F22E81E02B
S113143090E00E942A2E89819A81FC01868160E0D5
S11314400E94F22E84E690E00E942A2E2296E2E088
S11314500C947D32A5E0B0E0E0E3FAE00C94613254
S11314609C838B836D831A82198228C02B813C81D3
S113147089819A81820F931F0796FC01808161E024
S11314800E94B62E8D81882F90E0098002C0959528
S113149087950A94E2F7482F41702B813C8189811A
S11314A09A81820F931F0796FC018081642F0E940A
S11314B0F22E89819A8101969A83898389819A81FE
S11314C00497A4F28B819C8198DF2596E2E00C942A
S11314D07D32A5E0B0E0EFE6FAE00C9461329C8343
S11314E08B836D831A82198228C02B813C81898168
S11314F09A81820F931F0796FC01808161E00E940C
S1131500B62E8D81882F90E0098002C0959587952D
S11315100A94E2F7482F41702B813C8189819A819A
S1131520820F931F0796FC018081642F0E94F22E84
S113153089819A8101969A83898389819A810897FE
S1131540A4F28B819C8159DF2596E2E00C947D32D4
S1131550A0E0B0E0EEEAFAE00C94613289ED92E0AA
S1131560FC018081882351F460E070E083EE92E016
S11315700AD089ED92E021E0FC01208383EE92E021
S1131580E2E00C947D32A4E0B0E0E9ECFAE00C94E3
S113159061329A8389837C836B8389819A812B81CD
S11315A03C81FC01318320830AD09C0189819A818A
S11315B0FC01338322832496E2E00C947D32A0E084
S11315C0B0E0E5EEFAE00C94613280E094E0E2E011
S11315D00C947D32A4E0B0E0E0EFFAE00C946132C8
S11315E09A8389837C836B8389819A81019749F4E7
S11315F08B819C81019629F4ABDF9093E202809366
S1131600E1022496E2E00C947D32A0E0B0E0EBE04D
S1131610FBE00C9461326FEF7FEF81E090E0DADF62
S1131620E2E00C947D32A0E0B0E0E9E1FBE00C9450
S113163061320E94C02DDC01CB01BC01CD01E2E08E
S11316400C947D32A8E0B0E0E8E2FBE00C94613257
S113165098878F838F81988526E831E0FC01318358
S11316602083E1DFDC01CB018B839C83AD83BE83CC
S11316701A8219823DC02F81388589819A81820F0F
S1131680931F82579F4FFC0110822F8138858981D7
S11316909A814596880F991F820F931FFC0111822E
S11316A010822F81388589819A81880F991F880F2C
S11316B0991F820F931F9C012E5F3F4F8B819C814A
S11316C0AD81BE81F90180839183A283B3832F818D
S11316D0388589819A81CD96880F991F820F931F2F
S11316E0FC011182108289819A8101969A838983EF
S11316F089819A810A970CF4BECF8F81988584558D
S11317009F4FFC01118210822896E2E00C947D32F6
S1131710A8E0B0E0EEE8FBE00C945D3298878F839C
S113172082DFDC01CB018B839C83AD83BE831A8271
S1131730198225C12F81388589819A81845B9F4FC5
S1131740880F991F820F931FFC01118210822F8131
S1131750388589819A814596880F991F820F931F36
S1131760FC0180819181892B09F404C12F81388582
S113177089819A81880F991F880F991F820F931F5F
S11317800296FC0180819181A281B3812B813C81ED
S11317904D815E8179018A01E81AF90A0A0B1B0B53
S11317A0D801C7014F81588529813A81220F331FFF
S11317B0220F331F240F351F225C3F4FF901208174
S11317C031814281538182179307A407B50708F436
S11317D0D1C02F81388589819A81880F991F880FFC
S11317E0991F820F931F0296FC0180819181A2812F
S11317F0B3814F81588529813A81220F331F220FEB
S1131800331F240F351F225C3F4FF90120813181A2
S113181042815381820F931FA41FB51F4F815885A6
S113182029813A81220F331F220F331F240F351FC2
S11318302E5F3F4FF90180839183A283B3832F816D
S1131840388589819A81820F931F82579F4FFC01AB
S11318508081882309F48EC02F81388589819A81FB
S1131860C396880F991F820F931FFC018081918179
S1131870892B81F42F81388589819A81845B9F4FDC
S1131880880F991F820F931F21E030E0FC01318300
S1131890208370C02F81388589819A81CD96880FE5
S11318A0991F820F931FFC01208131814F8158853C
S11318B089819A81C396880F991F840F951FFC0113
S11318C080819181281739070CF054C02F81388505
S11318D089819A81845B9F4F880F991F820F931F80
S11318E021E030E0FC01318320832F813885898118
S11318F09A81CD96880F991F820F931FFC018081D6
S113190091819C012F5F3F4F4F81588589819A8136
S1131910CD96880F991F840F951FFC013183208376
S11319202F81388589819A81CD96880F991F820FDE
S1131930931FFC01208131814F81588589819A81CF
S1131940C396880F991F840F951FFC018081918194
S1131950281739077CF02F81388589819A81845B27
S11319609F4F880F991F820F931F22E030E0FC01E4
S11319703183208389819A8101969A83898389811D
S11319809A810A970CF4D6CE1A82198246C02F8106
S1131990388589819A81845B9F4F880F991F820FB4
S11319A0931FFC01808191818130910519F0029788
S11319B081F02EC02F81388589819A814596880FC0
S11319C0991F820F931FFC0180819181FC0109956D
S11319D01FC02F81388589819A814596880F991F68
S11319E0820F931FFC0180819181FC0109958F81F5
S11319F09885FC01808191810896FC0120813181C8
S1131A0049815A818F819885BA01F90109950000AD
S1131A1089819A8101969A83898389819A810A9717
S1131A200CF4B5CF2896E6E00C947932A4E0B0E04B
S1131A30ECE1FDE00C9461329C838B838B819C816F
S1131A4084559F4FFC01808191810A971CF08FEF90
S1131A509FEF1FC01A82198216C02B813C81898195
S1131A609A814596880F991F820F931FFC018081EC
S1131A709181892B19F489819A810BC089819A817A
S1131A8001969A83898389819A810A9734F38FEF27
S1131A909FEF2496E2E00C947D32ACE0B0E0E3E505
S1131AA0FDE00C945F329C838B834D835E836F8354
S1131AB078873A8729871C870B878B819C81B6DFBF
S1131AC09A83898389819A8199231CF48FEF9FEFEC
S1131AD06BC089859A85892B19F48FEF9FEF64C0B9
S1131AE02B813C8189819A81880F991F880F991FC6
S1131AF0820F931F9C01225C3F4F8D819E81AF8199
S1131B00B885F90180839183A283B3832B813C81BF
S1131B1089819A814596880F991F820F931F298581
S1131B203A85FC01318320832B813C8189819A8110
S1131B30C396880F991F820F931F2B853C85FC0148
S1131B40318320832B813C8189819A81820F931F69
S1131B5082579F4F21E0FC01208365DDDC01CB012E
S1131B604B815C8129813A81220F331F220F331F5D
S1131B70240F351F2E5F3F4FF90180839183A28389
S1131B80B3838B819C8184559F4FFC01808191811B
S1131B909C012F5F3F4F8B819C8184559F4FFC019B
S1131BA03183208389819A812C96E4E00C947B32E2
S1131BB0A8E0B0E0EEEDFDE00C945D329A838983F9
S1131BC04B835C836D837E8338872F8389819A81DD
S1131BD0DC018D919C910696DC01ED91FC912F81A5
S1131BE038858B819C81AD81BE81E980FA8000E0DB
S1131BF010E0AC01BD01C70109952896E6E00C94FC
S1131C007932A8E0B0E0E7E0FEE00C945D329A831C
S1131C1089834B835C836D837E8338872F8389819B
S1131C209A81DC018D919C910696DC01ED91FC91E9
S1131C302F8138858B819C81AD81BE81E980FA80BA
S1131C4001E010E0AC01BD01C70109952896E6E06A
S1131C500C947932A4E0B0E0E0E3FEE00C9461324D
S1131C609A8389837C836B838B819C810A970CF094
S1131C7069C089819A8184559F4FFC01808191813B
S1131C80892B09F45FC029813A818B819C81459617
S1131C90880F991F820F931FFC0180819181892BEA
S1131CA009F450C029813A818B819C814596880F23
S1131CB0991F820F931FFC011182108229813A819E
S1131CC08B819C81820F931F82579F4FFC0110824E
S1131CD029813A818B819C81845B9F4F880F991F56
S1131CE0820F931FFC011182108229813A818B811A
S1131CF09C81880F991F880F991F820F931FCE967E
S1131D00FC01108211821282138229813A818B8113
S1131D109C81CD96880F991F820F931FFC0111821D
S1131D20108289819A8184559F4FFC018081918121
S1131D309C012150310989819A8184559F4FFC016E
S1131D40318320832496E2E00C947D32A4E0B0E059
S1131D50ECEAFEE00C9461329A8389837C836B8382
S1131D608B819C810A970CF014C05DDCDC01CB01F3
S1131D7049815A812B813C81220F331F220F331F4B
S1131D80240F351F2E5F3F4FF90180839183A28377
S1131D90B3832496E2E00C947D32A4E0B0E0E3ED5A
S1131DA0FEE00C9461329A8389837C836B838B81FC
S1131DB09C810A9714F080E00AC029813A818B81C2
S1131DC09C81820F931F82579F4FFC018081249630
S1131DD0E2E00C947D32A4E0B0E0E1EFFEE00C948C
S1131DE061329A8389837C836B838B819C810A977C
S1131DF00CF00BC029813A818B819C81820F931F47
S1131E0082579F4F21E0FC0120832496E2E00C944A
S1131E107D32A4E0B0E0EFE0FFE00C9461329A83FD
S1131E2089837C836B838B819C810A970CF00AC025
S1131E3029813A818B819C81820F931F82579F4F06
S1131E40FC0110822496E2E00C947D32CF92EF9252
S1131E500F93CF93DF9300D0CDB7DEB79A838983F6
S1131E6089819A810F2EF7E0CF2EF02D0F2EF6E008
S1131E70EF2EF02D05E024E049E068E021D88981C7
S1131E809A812CE931E0FC013183208389819A8194
S1131E902AE0E5E1F1E0DC01589601900D922A95E3
S1131EA0E1F789819A8125E030E0FC0133A322A384
S1131EB089819A8108D00F900F90DF91CF910F9173
S1131EC0EF90CF900895A2E0B0E0E9E6FFE00C9433
S1131ED061329A83898389819A8120E042E060E1BA
S1131EE0BDD889819A81B4D989819A8140E060E022
S1131EF0C3D92296E2E00C947D32A4E0B0E0E3E89A
S1131F00FFE00C9461329A8389837C836B832B81F9
S1131F1089819A81422F60E0AFD92FE233E0898131
S1131F209A81B9010E946A2B2496E2E00C947D32D6
S1131F30A6E0B0E0EEE9FFE00C9461329A83898375
S1131F407C836B835E834D832B813C8189819A8161
S1131F50B901D3DF2B8189819A81422F60E08CD92A
S1131F6089819A812D813E81B9010E948E2B26960A
S1131F70E2E00C947D32A4E0B0E0E1ECFFE00C94EC
S1131F8061329C838B838B819C8169D09A83898302
S1131F9089819A818230910591F0833091052CF4E6
S1131FA0009749F0019749F010C08330910549F03A
S1131FB0049749F00AC080E009C081E007C082E0CC
S1131FC005C083E003C084E001C085E02496E2E01C
S1131FD00C947D32A6E0B0E0E0EFFFE00C946132B7
S1131FE09C838B837E836D831A8219821AC02B8112
S1131FF03C8189819A810C96880F991F820F931FC7
S1132000FC01808191819C018D819E8182179307BF
S113201018F489819A811FC089819A8101969A83D3
S113202089838B819C81FC0122A133A189819A81BE
S113203082179307E4F28B819C81FC0122A133A1D6
S113204089819A818217930724F08FEF9FEF9A83F7
S1132050898389819A812696E2E00C947D32A6E0F8
S1132060B0E0E5E3F0E10C9461329E838D8380E07F
S11320700E94702E9A83898329813A818D819E8161
S1132080B901A8DF9C838B838B819C812696E2E037
S11320900C947D32A4E0B0E0E0E5F0E10C94613210
S11320A09A8389837C836B838B819C812496E2E071
S11320B00C947D32AAE0B0E0E0E6F0E10C945F32EB
S11320C09A87898789859A85A4D18C0189859A857F
S11320D08FD120E030E0A901B801B7D1DC01CB01F8
S11320E089839A83AB83BC8389859A85E8D1CC01A3
S11320F0A0E0B0E0BC01CD010E944A28DC01CB0184
S11321009C01AD0169817A818B819C810E94B127F8
S1132110DC01CB018D839E83AF83B8878D819E8143
S1132120AF81B885BC01CD012A96E4E00C947B32E2
S1132130CF92DF92EF92FF92CF93DF93CDB7DEB7CA
S113214066970FB6F894DEBF0FBECDBF988B8F870E
S11321507A8B698B1F82188619861A8689899A89CF
S1132160181619065CF080E493E0BC018CE695E057
S11321700E94A62B80E090E0DC012BC189899A891A
S113218005970CF049C01A82198220C089819A816E
S1132190880F991F2F853889820F931FFC01808136
S11321A09181092E000CAA0BBB0B2F813885498520
S11321B05A85820F931FA41FB51F8F839887A98701
S11321C0BA8789819A8101969A83898329813A8180
S11321D089899A8928173907CCF289899A899C01B7
S11321E0990F440B550B8F819885A985BA85BC013D
S11321F0CD010E942532DA01C901BC01CD010E9442
S11322004C28DC01CB018B879C87AD87BE878B85EF
S11322109C85AD85BE85DDC08F859889FC012081B4
S113222031818F8598890296FC01808191812817DC
S113223039077CF48F859889FC01808191819E8384
S11322408D838F859889FC01828193819C838B8304
S11322500EC08F859889FC01828193819E838D8332
S11322608F859889FC01808191819C838B8382E096
S113227090E09A83898380C089819A81880F991F0D
S11322802F853889820F931FFC01208131818D8134
S11322909E812817390704F58D819E81092E000C33
S11322A0AA0BBB0B2F81388549855A85820F931F52
S11322B0A41FB51F8F839887A987BA8789819A81BC
S11322C0880F991F2F853889820F931FFC01808105
S11322D091819E838D834BC089819A81880F991F38
S11322E02F853889820F931FFC01208131818B81D6
S11322F09C818217930704F58B819C81092E000C25
S1132300AA0BBB0B2F81388549855A85820F931FF1
S1132310A41FB51F8F839887A987BA8789819A815B
S1132320880F991F2F853889820F931FFC018081A4
S113233091819C838B831BC089819A81880F991F0B
S11323402F853889820F931FFC0180819181092E8A
S1132350000CAA0BBB0B2F81388549855A85820F47
S1132360931FA41FB51F8F839887A987BA87898174
S11323709A8101969A83898329813A8189899A89E4
S1132380281739070CF478CF6F81788589859A8569
S11323900E944C286B017C0189899A890297092E35
S11323A0000CAA0BBB0BBC01CD010E944C28DC0124
S11323B0CB019C01AD01C701B6010E94B127DC012C
S11323C0CB018B879C87AD87BE878B859C85AD852C
S11323D0BE85BC01CD0166960FB6F894DEBF0FBE74
S11323E0CDBFDF91CF91FF90EF90DF90CF90089514
S11323F0A2E0B0E0EEEFF1E10C9461329A838983BC
S113240089819A81FC01808191812296E2E00C9479
S11324107D32A2E0B0E0EFE0F2E10C9461329A8305
S1132420898389819A81FC012081318189819A8102
S1132430FC0184819581880F991F880F991F820F51
S1132440931F2296E2E00C947D32A8E0B0E0EBE228
S1132450F2E10C9461329A8389837C836B832D83AC
S11324603E834F8358871AC089819A81FC018081F9
S11324709181A281B3819C01AD016D817E818F81A7
S113248098850E944927DC01CB018D839E83AF830D
S1132490B88789819A8104969A83898329813A81AC
S11324A08B819C8128173907F9F68D819E81AF8134
S11324B0B885BC01CD012896E2E00C947D32A2E0FF
S11324C0B0E0E5E6F2E10C9461329A838983898174
S11324D09A81FC01848195812296E2E00C947D32FC
S11324E0A2E0B0E0E6E7F2E10C9461329A838983DA
S11324F02296E2E00C947D32A2E0B0E0E2E8F2E160
S11325000C9461329A8389832296E2E00C947D32A2
S1132510A4E0B0E0EEE8F2E10C9461329C838B839A
S11325201A82198217C08B819C81FC012081318120
S113253089819A81880F991F880F991F280F391F45
S11325408B819C810696B901A2D089819A810196DA
S11325509A8389838B819C81FC01248135818981C3
S11325609A8182179307F8F28B819C81FC01428146
S113257053818B819C81FC01208131818B819C81E1
S11325800696B90192D08B819C810696B5DF24967C
S1132590E2E00C947D32A6E0B0E0E1EDF2E10C94CF
S11325A061329A8389837C836B835E834D838B81C1
S11325B09C81880F991F880F991F0E94272B2696AC
S11325C0E2E00C947D32A8E0B0E0E9EEF2E10C9494
S11325D061329C838B837E836D8358874F838B8189
S11325E09C81FC01248135818D819E8128173907C6
S11325F008F043C08B819C81FC01228133818D8151
S11326009E812817390748F48D819E819C01285F9B
S11326103F4F8B819C81B9015CD08B819C81FC01F3
S1132620848195819A83898319C08B819C81FC0163
S11326302081318189819A81880F991F880F991F80
S1132640280F391F8B819C8106964F815885B901CB
S1132650C7D089819A8101969A83898329813A8195
S11326608D819E812817390700F38B819C812D81F0
S11326703E81FC013583248306C02D813E818B81FC
S11326809C81B901D3D02896E2E00C947D32A4E079
S1132690B0E0EDE4F3E10C9461329A8389837C83A6
S11326A06B832496E2E00C947D32A6E0B0E0EBE587
S11326B0F3E10C9461329A8389837C836B835E8318
S11326C04D838B819C810E94282B2696E2E00C94FA
S11326D07D32AAE0B0E0EFE6F3E10C946132988732
S11326E08F837A8769878F819885FC012281338162
S11326F089859A852817390708F06EC08F819885D7
S1132700FC01808191819C838B838F819885FC015E
S1132710828193819E838D838F81988529853A85D3
S1132720FC01338322838F819885FC0122813381CC
S11327308F819885069640E050E0B9012CDF9C011A
S11327408F819885FC01318320831A82198231C0DC
S113275089819A81880F991F880F991F2B813C8149
S1132760A901480F591F8F819885FC01208131816F
S113277089819A81880F991F880F991F280F391F03
S11327808F8198850696B9012BD089819A81880F0B
S1132790991F880F991F2B813C81280F391F8F8126
S11327A098850696B90173DF89819A8101969A8387
S11327B089838F819885FC012481358189819A815F
S11327C08217930728F28F81988506964D815E8142
S11327D02B813C81B90169DF2A96E2E00C947D32B9
S11327E0A6E0B0E0E6EFF3E10C9461329A838983CA
S11327F07C836B835E834D838B819C81BC0184E0ED
S113280090E048DC9C012115310561F08D819E81A9
S1132810FC0180819181A281B381F901808391833C
S1132820A283B3832696E2E00C947D32A6E0B0E066
S1132830ECE1F4E10C9461329C838B837E836D83A1
S11328408B819C81FC01248135818D819E8182173D
S1132850930768F58D819E819A83898317C08B8144
S11328609C81FC012081318189819A81880F991F83
S1132870880F991F280F391F8B819C810696B901F7
S113288006DF89819A8101969A8389838B819C8151
S1132890FC012481358189819A8182179307F8F29A
S11328A08B819C812D813E81FC0135832483269676
S11328B0E2E00C947D32A2E0B0E0E1E6F4E10C94B5
S11328C061329A83898389819A81FC018081918113
S11328D02296E2E00C947D32A4E0B0E0E2E7F4E179
S11328E00C9461329A8389837C836B8389819A8176
S11328F02B813C81B9010E94B02F2496E2E00C9414
S11329007D32A4E0B0E0E7E8F4E10C9461329A830C
S113291089837C836B8389819A812B813C81FC012F
S1132920318320832496E2E00C947D32A2E0B0E06F
S1132930ECE9F4E10C9461329A83898389819A8168
S1132940FC01808191810E942A392296E2E00C9454
S11329507D32A2E0B0E0EFEAF4E10C9461329A83B4
S1132960898389819A81E2DF2296E2E00C947D32A8
S1132970A3E0B0E0EEEBF4E10C9461329A83898336
S11329806B8389819A81FC01808191816B810E9492
S1132990323989819A812396E2E00C947D32A3E056
S11329A0B0E0E5EDF4E10C9461329A8389836B83A2
S11329B089819A81CEDF982F8B81981729F089819C
S11329C09A816B81D5DF02C089819A812396E2E0E6
S11329D00C947D32A6E0B0E0E0EFF4E10C946132B7
S11329E09C838B837E836D838D819E81BC01CE010C
S11329F0019687DF89819A812696E2E00C947D32E4
S1132A00AAE0B0E0E6E0F5E10C945F329E838D83AA
S1132A1078876F835A8749871A8219821DC00D816E
S1132A201E81C80101979E838D838F8198859C01A7
S1132A302F5F3F4F38872F83BC0187EE92E0CADFB8
S1132A409C838B83CE01039684DFF8018083898184
S1132A509A8101969A83898329813A8189859A8505
S1132A6028173907E0F22A96E4E00C947B32ABE0B5
S1132A70B0E0EDE3F5E10C9461329F838E837987B6
S1132A8068875B874A871A82198220C08E819F815A
S1132A90FC0180818B83888599859C012F5F3F4F42
S1132AA039872887BC0187EE92E094DF9D838C836D
S1132AB0CE0104966B8173DF8E819F8101979F8382
S1132AC08E8389819A8101969A83898329813A81A7
S1132AD08A859B8528173907C8F22B96E2E00C9467
S1132AE07D32A4E0B0E0E7E7F5E10C9461329A832B
S1132AF089837C836B8389819A812DEC31E0FC018D
S1132B00318320838B819C81FC01228133818981E3
S1132B109A81FC01338322832496E2E00C947D3273
S1132B20A4E0B0E0E6E9F5E10C9461329A8389838C
S1132B307C836B832B813C8189819A81B901D1DFAC
S1132B4089819A812EE731E0FC01318320838B81D6
S1132B509C81FC01248189819A81FC0124838B81DD
S1132B609C81FC01258189819A81FC0125838B81CB
S1132B709C81FC01268189819A81FC0126838981BB
S1132B809A812B813C8148E0F9013796DC01179644
S1132B9001900D924A95E1F78B819C81FC01278578
S1132BA089819A81FC0127878B819C81FC01208982
S1132BB089819A81FC01208B8B819C81FC01218974
S1132BC089819A81FC01218B8B819C81FC01228962
S1132BD089819A81FC01228B8B819C81FC01238950
S1132BE089819A81FC01238B29813A818B819C8183
S1132BF0FC0184899589A689B789F901848B958B11
S1132C00A68BB78B2496E2E00C947D32A4E0B0E06E
S1132C10ECE0F6E10C9461329A8389837C836B83C4
S1132C202B813C8189819A81B9017ADF89819A81DA
S1132C302CE931E0FC013183208389819A812B8145
S1132C403C814AE0F9017896DC01589601900D9296
S1132C504A95E1F78B819C81FC0122A133A18981F2
S1132C609A81FC0133A322A32496E2E00C947D32E2
S1132C70ACE0B0E0EEE3F6E10C945D329B838A8332
S1132C807D836C835F834E8328871A870987FC863C
S1132C90EB868A819B812C813D81FC0131832083D9
S1132CA08A819B818E5A9F4FFC01118210828A81F6
S1132CB09B818C5A9F4F2E813F81FC01318320835D
S1132CC0CE0101960DDC8A819B818A5A9F4F9E0119
S1132CD02F5F3F4FB9014ED5CE0101960DDC8A819D
S1132CE09B81835A9F4FFC01118210828A819B81B0
S1132CF085599F4F2885FC0120838A819B818459B3
S1132D009F4F2B853C85FC01318320838A819B81E5
S1132D1081599F4FFC01118210828A819B818F58B7
S1132D209F4F29853A85B90171DF8A819B818B5632
S1132D309F4F6FE171E00E94B02F8A819B8185567D
S1132D409F4F6FE171E00E94B02F8A819B819C01AB
S1132D502F553F4F80E090E0A0E4B0E4F901808378
S1132D609183A283B3838A819B8104D02C96E6E06D
S1132D700C947932A6E0B0E0E0ECF6E10C94613218
S1132D809E838D8361E08DE00E94B62E8D819E81AD
S1132D9084599F4FFC018081918161E00E94B62E8D
S1132DA08091A0019091A10117D5DC01CB01898309
S1132DB09A83AB83BC8329813A814B815C8169818D
S1132DC07A818B819C810E946329882371F48D818F
S1132DD09E819C012F553F4F89819A81AB81BC8193
S1132DE0F90180839183A283B3832696E2E00C9455
S1132DF07D32AAE0B0E0EFEFF6E10C9461329E83FD
S1132E008D834F83588769877A878D819E819C0142
S1132E102F553F4F8F819885A985BA85F901808305
S1132E209183A283B3838D819E818F559F4FFC0133
S1132E3080819181A281B38189839A83AB83BC838E
S1132E408091A0019091A1019C01CE010196BC0149
S1132E50C901D5D42A96E2E00C947D32AEE0B0E00C
S1132E60E4E3F7E10C9461329E878D878D859E851E
S1132E70815A9F4FFC0180819181A281B381FE011F
S1132E80379622E0AC01BD01CF010E942030CE0173
S1132E90079611DD9C018D859E858B569F4FB90148
S1132EA00E94E12FCE0107960E94492F8D859E85B1
S1132EB08D599F4FFC0180819181A281B38122E0D1
S1132EC0AC01BD01CE0101960E942030CE010196D5
S1132ED0F2DC9C018D859E8585569F4FB9010E9429
S1132EE0E12FCE0101960E94492F8D859E85815A3E
S1132EF09F4FFC0180819181A281B381BC01CD01EE
S1132F002E96E2E00C947D32ACE2B0E0EAE8F7E120
S1132F100C945D329CA78BA78BA59CA582599F4FCF
S1132F20FC01908181E08927882309F0A4C18BA545
S1132F309CA5A5D1DC01CB012BA53CA5215A3F4F73
S1132F40F90180839183A283B38388EE92E0FC012C
S1132F508081882389F40E94C02DDC01CB018093F9
S1132F60000390930103A0930203B093030388EE3C
S1132F7092E021E0FC0120830E94C02D9B01AC0162
S1132F808091000390910103A0910203B091030387
S1132F9079018A01E81AF90A0A0B1B0BD801C70147
S1132FA021E081369A4EA105B10508F420E02223E0
S1132FB009F461C119821A821B821C828BA59CA50B
S1132FC08A5A9F4F7CDA21E0059708F020E02223FB
S1132FD0D1F18BA59CA5815A9F4FFC0180819181E1
S1132FE0A281B3818BA39CA3ADA3BEA38BA59CA5F7
S1132FF08A5A9F4F9E012D5D3F4FB90114D48BA572
S11330009CA59C012A5A3F4FCE014C96B90127D466
S1133010CE014C964FD8DC01CB0189839A83AB83D4
S1133020BC83CE014C9674DA8BA59CA59C012D59CA
S11330303F4F89819A81AB81BC81F901808391835F
S1133040A283B38318C18BA59CA59C012A5A3F4F28
S1133050CE014596B90103D4CE0145962BD8DC01A7
S1133060CB0189839A83AB83BC83CE01459650DA26
S11330708BA59CA5815A9F4FFC0180819181A281DF
S1133080B38129813A814B815C81BC01CD010E94CD
S11330904927DC01CB0120E030E040E050E4BC01F2
S11330A0CD010E94B127DC01CB018FA398A7A9A76A
S11330B0BAA72FA138A549A55AA58BA59CA5815AC5
S11330C09F4FFC0180819181A281B381EBA5FCA576
S11330D089019A01AC01BD01CF01F3D28D838D81A9
S11330E08823D9F08BA59CA581599F4FFC01808131
S11330F091810A9794F48BA59CA581599F4FFC015B
S1133100808191819C012F5F3F4F8BA59CA58159A4
S11331109F4FFC0131832083AEC08BA59CA58159B0
S11331209F4FFC011182108288E290E09F838E837E
S11331308BA59CA58A5A9F4FC2D9998788872885D1
S113314039858E819F8128173907ECF48AE693E04C
S1133150BC018CE695E00E946A2B8FA198A5A9A5D5
S1133160BAA522E030E0AC01BD018CE695E00E94F6
S1133170662D8BA59CA58A5A9F4F9E01295D3F4FC2
S1133180B90151D335C089E793E0BC018CE695E0E1
S11331900E946A2B8FA198A5A9A5BAA522E030E0C8
S11331A0AC01BD018CE695E00E94662D8BA59CA523
S11331B0835A9F4FFC0180819181AC014F5F5F4F27
S11331C02BA53CA5235A3F4FF901518340839C0111
S11331D08BA59CA58A5A9F4FB901B1D39C018FA19D
S11331E098A5A9A5BAA5F90180839183A283B38385
S11331F08BA59CA5835A9F4FFC01208131818E8130
S11332009F812817390739F48BA59CA5835A9F4FB2
S1133210FC01118210828BA59CA59C012A5A3F4F68
S1133220CE010E96B9011BD3CE010E960E945A1000
S1133230DC01CB018A879B87AC87BD87CE010E96C4
S113324067D98BA59CA59C012D593F4F8A859B85E9
S1133250AC85BD85F90180839183A283B3830E94E9
S1133260C02DDC01CB018093000390930103A09354
S11332700203B0930303AC96E6E00C947932ACE01D
S1133280B0E0E5E4F9E10C945D329C878B8780EF34
S113329092E0FC018081882389F40E94C02DDC0126
S11332A0CB018093040390930503A0930603B0938A
S11332B0070380EF92E021E0FC0120830E94C02DEF
S11332C09B01AC018091040390910503A091060336
S11332D0B091070379018A01E81AF90A0A0B1B0B5A
S11332E0D801C70121E0893E9340A105B10508F446
S11332F020E0222309F4C6C088E290E09E838D83F7
S11333008B859C858E5A9F4FFC0100811181980109
S11333102F5F3F4F8B859C858E5A9F4FFC013183D5
S113332020838B859C85FC01808191810E94702E75
S1133330AC012B853C85C8010196880F991F820F2B
S1133340931FFC01518340838B859C858E5A9F4F2C
S1133350FC01208131818D819E812817390739F440
S11333608B859C858E5A9F4FFC01118210828B8520
S11333709C8502962D813E81B9010E949810DC0142
S1133380CB018F839887A987BA8720E030E040EA91
S113339050E46F81788589859A850E940029DC0133
S11333A0CB0120E030E040E854E4BC01CD010E94B0
S11333B0B127DC01CB012B853C8529593F4FF9010D
S11333C080839183A283B3838B859C8589599F4F86
S11333D0FC0180819181A281B3819C01AD0160E0F7
S11333E070E080E290E40E944827DC01CB012CEEDF
S11333F031E548E35EE3BC01CD010E94B127DC0165
S1133400CB0120E030E040EE50E4BC01CD010E944D
S11334104927DC01CB017C018D018B859C858F556F
S11334209F4FFC0180819181A281B3819C01AD01F8
S1133430C801B7010E944927DC01CB0189839A8323
S1133440AB83BC8320E030E0A90169817A818B8160
S11334509C810E94AD27882324F419821A821B823E
S11334601C820E94C02DDC01CB0180930403909345
S11334700503A0930603B093070389819A81AB8166
S1133480BC8109C08B859C85815A9F4FFC0180813A
S11334909181A281B381BC01CD012C96E6E00C940C
S11334A07932A2E0B0E0E7E5FAE10C9461329A8364
S11334B0898389819A810E94492F2296E2E00C94A3
S11334C07D32AAE1B0E0E7E6FAE10C945D329A8F2E
S11334D0898F898D9A8DC2DC88EF92E0FC0180810E
S11334E0882389F40E94C02DDC01CB01809308035A
S11334F090930903A0930A03B0930B0388EF92E01F
S113350021E0FC0120830E94C02D9B01AC0180912D
S1133510080390910903A0910A03B0910B03281B9F
S1133520390B4A0B5B0B898D9A8D8C5A9F4FFC018A
S11335308081918180579E4F092E000CAA0BBB0BF2
S113354061E082179307A407B50708F060E06623DB
S113355009F474C0898D9A8D85599F4FFC0180812F
S1133560882309F45FC0CE010D966FE171E00E94DB
S1133570B02F898D9A8D82599F4FFC0180818823B9
S113358031F0CE010D9660E271E00E94E12F898D49
S11335909A8D8C010B561F4F898D9A8D7C01FBE906
S11335A0EF0EF11CCE01079662E271E095D9CE01CF
S11335B00796B7010E94C83067E271E00E94D930D3
S11335C0B8010E94C8309C01CE010D96BC01C9010E
S11335D00E94C8309C01CE014396B9010E94D92FA4
S11335E0CE0107965EDFCE014396BC01CE01019663
S11335F00E94D92F898D9A8D8F589F4F9E012F5FDE
S11336003F4FA90160E070E00E94980FCE0101963F
S11336100E94492FCE0143960E94492FCE010D9658
S11336200E94492F0E94C02DDC01CB018093080326
S113363090930903A0930A03B0930B036A96E6E000
S11336400C947932A2E0B0E0E8E2FBE10C94613240
S11336509A83898389819A8182599F4F21E0FC0151
S1133660208389819A8184599F4FFC0180819181B3
S113367061E00E94F22E2296E2E00C947D32A2E0F8
S1133680B0E0E5E4FBE10C9461329A83898389819B
S11336909A8182599F4FFC01108289819A818459B1
S11336A09F4FFC018081918160E00E94F22E68EEC0
S11336B073E080E090E00E94F12D2296E2E00C9409
S11336C07D32A1E1B0E0E7E6FBE10C945F3299873B
S11336D088874A875B876C877D870E871F87288B3F
S11336E0398B8DEC9CECACE4BEE389839A83AB8389
S11336F0BC8329813A814B815C816E857F85888971
S113370099890E944827DC01CB0111E02A853B8579
S11337104C855D85BC01CD010E94FC2818160CF077
S113372010E01D8329813A814B815C816E857F8500
S1133730888999890E944927DC01CB0111E02A85F7
S11337403B854C855D85BC01CD010E94AD27882356
S11337500CF010E01E838D81882319F48E81882358
S113376011F081E001C080E08F838F816196E4E0F5
S11337700C947B32A4E0B0E0E0ECFBE10C94613209
S11337809A8389837C836B8389819A81FC0111826A
S1133790108289819A8128E030E0FC0133832283FE
S11337A089819A81FC011582148289819A81FC01A4
S11337B02281338189819A81069640E050E0B901E3
S11337C00E94CB129C0189819A81FC013183208360
S11337D02496E2E00C947D32A2E0B0E0E2EFFBE15B
S11337E00C9461329A83898389819A81C3D0DC01E4
S11337F0CB01BC01CD012296E2E00C947D32A4E021
S1133800B0E0E5E0FCE10C9461329A8389837C8327
S11338106B832B813C8189819A81B901CBD0249619
S1133820E2E00C947D32A4E0B0E0E9E1FCE10C9428
S113383061329A8389837C836B8389819A810E9414
S11338405F129C012F5F3F4F4B815C8189819A817C
S1133850B9010E94E3122496E2E00C947D32A6E0C2
S1133860B0E0E5E3FCE10C9461329C838B837E83BE
S11338706D838B819C8106960E9470128D819E813E
S1133880FC01248135818B819C81FC013583248357
S11338908B819C81FC01848195819C01285F3F4F31
S11338A08B819C81FC01338322838B819C81FC016D
S11338B0228133818B819C81069640E050E0B901DE
S11338C00E94CB129C018B819C81FC01318320835B
S11338D01A82198226C08D819E81FC01208131814A
S11338E089819A81880F991F880F991FA901480F10
S11338F0591F8B819C81FC012081318189819A81AE
S1133900880F991F880F991F280F391F8B819C815D
S11339100696B9010E94F01389819A8101969A83CF
S113392089838B819C81FC012481358189819A81E1
S11339308217930780F22696E2E00C947D32A4E08D
S1133940B0E0E5EAFCE10C9461329A8389837C83DC
S11339506B8389819A81FC01208131818B819C81D7
S1133960880F991F880F991F820F931F2496E2E0F6
S11339700C947D32A6E0B0E0E0ECFCE10C94613202
S11339809E838D838D819E8133D0BC0183E090E042
S11339909E012F5F3F4F820F931F44E050E030D8C9
S11339A089819A81AB81BC81BC01CD012696E2E07C
S11339B00C947D32A4E0B0E0E0EEFCE10C946132C2
S11339C09A8389837C836B8389819A8111D0BC011A
S11339D083E090E02B813C81820F931F44E050E010
S11339E046D889819A8104D02496E2E00C947D32F1
S11339F0A2E0B0E0EEEFFCE10C9461329A8389839B
S1133A0089819A812296E2E00C947D32ABE0B0E0A9
S1133A10ECE0FDE10C945D329A8389837C836B83B3
S1133A205E834D832F8319870887FB86EA86898105
S1133A309A812B813C81FC013183208389819A8185
S1133A408E5A9F4FFC011182108289819A818C5A6F
S1133A509F4F2D813E81FC013183208389819A818E
S1133A608E599F4F2F81FC01208389819A818D5922
S1133A709F4F2A853B85FC013183208389819A816C
S1133A808A599F4FFC011182108289819A81885939
S1133A909F4F28853985B901B9D889819A8184577E
S1133AA09F4F6AE271E00E94B02F89819A818E56FD
S1133AB09F4F6AE271E00E94B02F89819A818856F3
S1133AC09F4F2AEB34E0FC013183208389819A8162
S1133AD004D02B96E6E00C947932A6E0B0E0E3E75C
S1133AE0FDE10C9461329E838D8361E08DE00E9440
S1133AF0B62E8D819E818D599F4FFC0180819181CD
S1133B0061E00E94B62E8091A0019091A1010496DB
S1133B10A7D3092E000CAA0BBB0BBC01CD010E943C
S1133B204C28DC01CB0189839A83AB83BC83298134
S1133B303A814B815C8169817A818B819C810E946D
S1133B406329882381F469817A818B819C810E9415
S1133B501928DC01CB019C018D819E8188569F4FE1
S1133B60FC01318320832696E2E00C947D32A4E0AC
S1133B70B0E0EDEBFDE10C9461329A8389837C83A0
S1133B806B8389819A8188569F4F2B813C81FC01EC
S1133B903183208389819A819C0128563F4F8091EB
S1133BA0A0019091A1010496B90169D32496E2E0A1
S1133BB00C947D32AEE0B0E0E0EEFDE10C946132B5
S1133BC09E878D878D859E858A5A9F4FFC018081B3
S1133BD09181A281B381FE01379620E0AC01BD0141
S1133BE0CF010E942030CE0107960E945B149C01F5
S1133BF08D859E8584579F4FB9010E94E12FCE0188
S1133C0007960E94492F8D859E85865A9F4FFC01F9
S1133C1080819181A281B38120E0AC01BD01CE01FC
S1133C2001960E942030CE0101960E945B149C01F3
S1133C308D859E858E569F4FB9010E94E12FCE013E
S1133C4001960E94492F8D859E858A5A9F4FFC01BB
S1133C5080819181A281B381BC01CD012E96E2E0E5
S1133C600C947D32AAE1B0E0E8E3FEE10C945D320D
S1133C709A8F898F898D9A8D9DDF8CE093E0FC016A
S1133C808081882389F40E94C02DDC01CB018093BC
S1133C90240390932503A0932603B09327038CE079
S1133CA093E021E0FC0120830E94C02D9B01AC0124
S1133CB08091240390912503A0912603B0912703BA
S1133CC0281B390B4A0B5B0B898D9A8D8C5A9F4F9D
S1133CD0FC018081918180579E4F092E000CAA0B14
S1133CE0BB0B61E082179307A407B50708F060E0F7
S1133CF0662309F47FC0898D9A8D8E599F4FFC01EC
S1133D008081882309F460C0CE010D966AE271E0D7
S1133D100E94B02F898D9A8D8B599F4FFC01808111
S1133D20882331F0CE010D966BE271E00E94E12F01
S1133D30898D9A8D8C0104571F4F898D9A8D7C0132
S1133D40F2E9EF0EF11CCE0107966DE271E00E94DC
S1133D506C14CE010796B7010E94C83063E371E08A
S1133D600E94D930B8010E94C8309C01CE010D9642
S1133D70BC01C9010E94C8309C01CE014396B9011F
S1133D800E94D92FCE0107968CDBCE014396BC014D
S1133D90CE0101960E94D92F898D9A8D88599F4F03
S1133DA09E012F5F3F4FA90161E070E00E94980FD0
S1133DB0CE0101960E94492FCE0143960E94492FBD
S1133DC0CE010D960E94492F8DE00E94212F982F3D
S1133DD081E08927682F8DE00E94F22E0E94C02D79
S1133DE0DC01CB018093240390932503A093260345
S1133DF0B09327036A96E6E00C947932A2E0B0E02F
S1133E00E4E0FFE10C945B329A83898389819A818F
S1133E108B599F4FFC01908181E08927882309F009
S1133E2014C189819A8115D1DC01CB0129813A81A0
S1133E302A5A3F4FF90180839183A283B3838981F6
S1133E409A818A599F4FFC01808191811816190625
S1133E504CF089819A818A599F4F21E030E0FC011E
S1133E603183208389819A81F4D0DC01CB012981BB
S1133E703A81225A3F4FF90180839183A283B3830D
S1133E8084E193E0FC018081882389F40E94C02DA1
S1133E90DC01CB018093280390932903A0932A0388
S1133EA0B0932B0384E193E021E0FC0120830E9482
S1133EB0C02D9B01AC018091280390912903A0910E
S1133EC02A03B0912B0379018A01E81AF90A0A0B33
S1133ED01B0BD801C70121E081369A4EA105B1051B
S1133EE008F420E0222309F44BC089819A81B1D0DF
S1133EF0DC01CB0129813A812A5A3F4FF9018083A1
S1133F009183A283B38389819A81825A9F4FFC0152
S1133F1080819181A281B38129813A812A5A3F4FBC
S1133F20F9012081318142815381BC01CD01B1D796
S1133F30DC01CB0129813A81225A3F4FF901808368
S1133F409183A283B38389819A818A599F4FFC010B
S1133F50808191819C012F5F3F4F89819A818A5989
S1133F609F4FFC01318320830E94C02DDC01CB01D3
S1133F708093280390932903A0932A03B0932B03DF
S1133F8089819A81825A9F4FFC01C080D180E2804E
S1133F90F38089819A818A599F4FFC0180819181A4
S1133FA0092E000CAA0BBB0BBC01CD010E944C28AE
S1133FB0DC01CB019C01AD01C701B601D2D7DC0104
S1133FC0CB0129813A81265A3F4FF901808391839D
S1133FD0A283B38389819A81865A9F4FFC01808191
S1133FE09181A281B38129813A812A5A3F4FF901F3
S1133FF02081318142815381BC01CD014AD7DC014A
S1134000CB0120E030E040E050E4BC01CD01A9D771
S1134010DC01CB0129813A81265A3F4FF901808383
S11340209183A283B38389819A818A599F4FFC012A
S1134030808191810B974CF089819A818A599F4F95
S113404021E030E0FC01318320832296E8E00C94E7
S11340507732A0E1B0E0EFE2F0E20C945D32988BAD
S11340608F878CE193E0FC018081882389F40E948E
S1134070C02DDC01CB0180932C0390932D03A093DE
S11340802E03B0932F038CE193E021E0FC01208305
S11340900E94C02D9B01AC0180912C0390912D03B3
S11340A0A0912E03B0912F0379018A01E81AF90A2D
S11340B00A0B1B0BD801C70121E0853F9140A105E4
S11340C0B10508F420E0222309F47CC088E290E0E2
S11340D09A8389838F8598898E5A9F4FFC0100812A
S11340E0118198012F5F3F4F8F8598898E5A9F4F7A
S11340F0FC01318320838F859889FC018081918123
S11341000E94702EAC012F853889C8010196880F52
S1134110991F820F931FFC01518340838F859889D7
S11341208E5A9F4FFC012081318189819A81281701
S1134130390739F48F8598898E5A9F4FFC01118273
S113414010828F859889029629813A81B9010E944B
S11341509810DC01CB018B839C83AD83BE8320E06C
S113416030E040EA5BE36B817C818D819E810E941B
S11341700029DC01CB018F839887A987BA878F85B3
S1134180988988569F4FFC0180819181092E000CEB
S1134190AA0BBB0BBC01CD017FD7DC01CB012F8166
S11341A0388549855A85BC01CD010E940029DC016E
S11341B0CB018B879C87AD87BE878B859C85AD851E
S11341C0BE8509C08F8598898A5A9F4FFC018081DA
S11341D09181A281B381BC01CD016096E6E00C948B
S11341E07932A2E0B0E0E7EFF0E20C9461329A8316
S11341F0898389819A818B599F4F21E0FC01208317
S113420089819A818D599F4FFC018081918161E060
S11342100E94F22E2296E2E00C947D32A2E0B0E0FD
S1134220E4E1F1E20C9461329A83898389819A8171
S11342308B599F4FFC01108289819A818D599F4F20
S1134240FC018081918160E00E94F22E68EE73E0AF
S113425080E090E00E94F12D2296E2E00C947D3201
S1134260A2E0B0E0E6E3F1E20C9461329A83898340
S113427089819A8118D02296E2E00C947D32A4E0E0
S1134280B0E0E5E4F1E20C9461329A8389837C83A3
S11342906B832B813C8189819A81B90121D0249639
S11342A0E2E00C947D32A4E0B0E0E9E5F1E20C94A4
S11342B061329C838B838B819C8131D0BC0181E0F2
S11342C090E09E012F5F3F4F820F931F42E050E02A
S11342D00E94001589819A812496E2E00C947D3233
S11342E0A4E0B0E0E6E7F1E20C9461329A838983BA
S11342F07C836B8389819A8112D0BC0181E090E038
S11343002B813C81820F931F42E050E00E943715BD
S113431089819A8104D02496E2E00C947D32A2E053
S1134320B0E0E5E9F1E20C9461329A8389838981F2
S11343309A812296E2E00C947D32A2E0B0E0E3EAB6
S1134340F1E20C9461329A83898389819A81FC0118
S1134350848195812296E2E00C947D32A4E0B0E061
S1134360E4EBF1E20C9461329A8389837C836B835E
S11343702B813C8189819A81B9010E94A83089816D
S11343809A812496E2E00C947D32A4E0B0E0EBEC58
S1134390F1E20C9461329A8389837C836B832B8151
S11343A03C8189819A81B9010E94F0302496E2E02F
S11343B00C947D32A0E0B0E0E0EEF1E20C946132C6
S11343C089E893E0BC018CE695E00E946A2B4AE000
S11343D050E068E08CE695E00E94802C68E089E873
S11343E092E00E944A046CEF72E289E892E00E9433
S11343F0BD0562E072E289E892E00E94A905E2E06C
S11344000C947D32A7E2B0E0E8E0F2E20C94603272
S11344109FA38EA366E371E080E393E00E94E12F03
S113442066E371E08CE393E00E94E12F66E371E0C0
S113443082E493E00E94E12F8EA19FA1449709F0AA
S1134440C7C00AC089E892E00E94F00489836981A8
S113445080E393E00E94B63089E892E00E94D80499
S113446021E0181619060CF020E0222359F780E306
S113447093E00E949731CE01449667E371E00E9475
S1134480B02FCE014496BC0180E393E00E94333107
S113449011E0882309F410E0CE0144960E94492FCC
S11344A01123A1F060E373E08CE393E00E94C42F36
S11344B082E993E0BC018CE695E00E946A2B6CE3F0
S11344C073E08CE695E00E94B62B92C060E373E043
S11344D082E493E00E94C42F88E993E0BC018CE657
S11344E095E00E946A2B62E473E08CE695E00E94FA
S11344F0B62BCE010E9662E473E00E94D92FCE0152
S11345004A96BE01625F7F4F20E030E04DE3D1D197
S1134510CE010E960E94492FCE01089662E473E004
S11345200E94D92FCE018096BE01685F7F4F21E0A3
S113453030E04DE3BED1CE0108960E94492FCE0152
S11345404A9669E371E021DF982F81E0992309F409
S113455080E0882389F0CE0180960E94EE31DC0150
S1134560CB019B838A838091A6019091A7012A8124
S11345703B81B901FCDA23C0CE014A9663E471E0C1
S113458004DF982F81E0992309F480E08823B9F0AF
S1134590CE0180960E94F831DC01CB018C839D838F
S11345A0AE83BF832091A4013091A5018C819D81AC
S11345B0AE81BF81AC01BD01C9010E94F916CE01D3
S11345C080960E94492FCE014A960E94492F10C01E
S11345D082EA93E0BC018CE695E00E946A2B8EA1EE
S11345E09FA14AE050E0BC018CE695E00E945F2C5C
S11345F0A796E3E00C947C32AEE1B0E0E2E0F3E2B3
S11346000C945F32CE01499666E371E00E94B02FAC
S113461067E371E08CE393E0B8DE982F81E099239F
S113462009F480E08823C1F0CE0149966CE471E07E
S11346300E94E12F9E01275E3F4FCE014396B901B0
S11346400E94D92FCE014396E4D0CE0143960E9416
S1134650492F00E010E0D1C080910601909107013C
S11346600196909307018093060180910601909131
S11346700701892B69F48091A4019091A5019C0103
S11346802B563F4FCE014996B9010E94C42FA5C0B5
S11346908091060190910701019769F48091A4012A
S11346A09091A5019C0125563F4FCE014996B90131
S11346B00E94C42F92C08091060190910701029735
S11346C069F48091A6019091A7019C0124573F4F62
S11346D0CE014996B9010E94C42F7FC08091060182
S11346E090910701039769F48091A6019091A70125
S11346F09C012E563F4FCE014996B9010E94C42F0A
S11347006CC08091060190910701049711F5809186
S1134710A4019091A5018F559F4FFC018081918147
S1134720A281B381FE013D9622E0AC01BD01CF011F
S11347300E944E30CE010D960E945B149C01CE0166
S11347404996B9010E94E12FCE010D960E94492F8E
S113475044C08091060190910701059721F580914D
S1134760A6019091A70188569F4FFC0120813181B9
S1134770CE0107964AE0B9010E94F62FCE010796B2
S11347800E945B149C01CE014996B9010E94E12F5D
S1134790CE0107960E94492F8FEF9FEF9093070158
S11347A0809306011AC088EC93E0BC018CE695E086
S11347B091D780910601909107014AE050E0BC0135
S11347C08CE695E00E945F2C8FEF9FEF909307019A
S11347D08093060100E010E010C0CE014996BC01B0
S11347E0CE0101960E94D92FCE01019612D0CE019E
S11347F001960E94492F01E010E0CE0149960E94E3
S1134800492F0130110509F400006E96E4E00C9480
S11348107B32A2E1B0E0EFE0F4E20C9461329A8BD7
S1134820898B89899A8989DD9C018AE090E0821BC1
S1134830930B9E838D831A8219820AC089899A896F
S113484062E571E08BDD89819A8101969A8389837F
S113485029813A818D819E81281739077CF31C8236
S11348601B8216C02B813C8189899A89B9010E94D7
S11348705231482F9E01295F3F4F8B819C81820FCB
S1134880931FFC0140838B819C8101969C838B83C5
S11348908B819C810A9734F3CE0107964AE050E05D
S11348A0BC0189E892E00E9498046296E2E00C94CC
S11348B07D32A1E1B0E0EFE5F4E20C9461329C8733
S11348C08B877E876D874F87398B288B1A82198255
S11348D018861F828FEF9FEF9A8789878D859E8523
S11348E02CDD01979E838D831C821B8235C02B8116
S11348F03C818D859E85B9010E945231982F8F8508
S1134900981739F02B813C818D819E8128173907B6
S113491011F481E001C080E08823C9F089819A8183
S113492001969A83898389859A85019698878F83CE
S11349302B813C818D819E812817390721F48B813D
S11349409C81019602C08B819C819A8789878B8187
S11349509C8101969C838B832B813C818D819E81DC
S11349608217930744F029813A81888999898217AB
S113497093070CF0BCCF29813A81888999898217E1
S113498093076CF489859A859C018F819885AC0185
S11349908B859C856D857E850E94533106C08B85F1
S11349A09C8566E371E00E94B02F00008B859C8596
S11349B06196E2E00C947D32A4E0B0E0E2EEF4E231
S11349C00C9461329A8389837C836B8389819A8175
S11349D0019711F58B819C810196F1F466E371E0F6
S11349E080E393E00E94B02F66E371E086E393E0F6
S11349F00E94B02F66E371E08CE393E00E94B02F35
S1134A0066E371E082E493E00E94B02F66E371E014
S1134A1088E493E00E94B02F89819A81892BC1F4A4
S1134A208B819C810196A1F488E493E00E94492F34
S1134A3082E493E00E94492F8CE393E00E94492F83
S1134A4086E393E00E94492F80E393E00E94492F7C
S1134A502496E2E00C947D32A0E0B0E0E2E3F5E2DB
S1134A600C9461326FEF7FEF81E090E0A5DFE2E02C
S1134A700C947D32A0E0B0E0E0E4F5E20C94613205
S1134A806FEF7FEF80E090E097DFE2E00C947D32FF
S1134A90A2E0B0E0EEE4F5E20C9461329A838983FB
S1134AA089819A8185569F4F0E94492F89819A81D5
S1134AB08B569F4F0E94492F89819A818A5A9F4F12
S1134AC00E9488122296E2E00C947D32A2E0B0E0CB
S1134AD0ECE6F5E20C9461329A83898389819A81A8
S1134AE08E569F4F0E94492F89819A8184579F4FE8
S1134AF00E94492F2296E2E00C947D32A0E0B0E0BF
S1134B00E4E8F5E20C94613290914E0381E0892748
S1134B1080934E0380914E03882341F083E793E012
S1134B200E943F1B88E194E05CDB07C088E194E0CD
S1134B3075DB83E793E00E94221BE2E00C947D3254
S1134B40ACE4B0E0E6EAF5E20C945D329E01275B4A
S1134B503F4FF90191838083CE01855B9F4FFC0118
S1134B6071836083CE01875B9F4FFC0180819181BB
S1134B70019709F044C0CE01855B9F4FFC01808101
S1134B8091810196E1F58FE493E00E94260F009154
S1134B900C0110910D012FE433E0CE018596B9018B
S1134BA00E94061680910801909109019E012B5DD7
S1134BB03F4F7801890121E040ED57E0BC0183E7D4
S1134BC093E00E94381600910E0110910F018FE4BA
S1134BD093E0BC01CE0101960E94061680910A0161
S1134BE090910B0178019E012F5F3F4F890121E0D5
S1134BF048EE53E0BC0188E194E00E94061DCE011A
S1134C00875B9F4FFC0180819181892B71F4CE01D8
S1134C10855B9F4FFC0180819181019631F488E18D
S1134C2094E054DF83E793E033DFC45BDF4FE6E0D7
S1134C300C947932A0E0B0E0E0E2F6E20C94613248
S1134C406FEF7FEF81E090E07BDFE2E00C947D3258
S1134C50A0E0B0E0EEE2F6E20C9461326FEF7FEF99
S1134C6080E090E06DDFE2E00C947D32A6E0B0E0FD
S1134C70ECE3F6E20C9461329A8389834B835C8380
S1134C806D837E838B819C81AD81BE81E981FA81B4
S1134C9026E0AC01BD01CF01DFD32696E2E00C94FF
S1134CA07D32A2E0B0E0E7E5F6E20C9461329A834B
S1134CB0898381E02296E2E00C947D32A0E0B0E0AA
S1134CC0E4E6F6E20C94613240E051EE60E070E01C
S1134CD08CE695E0CBDF00008CE695E0E2DF982FD0
S1134CE081E089278823C1F765DB8091A401909135
S1134CF0A5010E94221B21EA36E248EE53E060E05F
S1134D0070E082EB94E00E94D80DE2E00C947D32D6
S1134D10A0E0B0E0EEE8F6E20C94613282EB94E0BD
S1134D200E94880B8091A4019091A5010E94611AB0
S1134D308091A6019091A7010E94321EE2E00C949A
S1134D407D32A0E0B0E0E7EAF6E20C945D3280E662
S1134D5095E0FC018081882381F412D7DC01CB012A
S1134D608093680590936905A0936A05B0936B05D9
S1134D7080E695E021E0FC0120838091A2019091DE
S1134D80A3010E94BB0F982F81E0943009F080E0CA
S1134D90882391F083EE93E0BC018CE695E0D6D4B1
S1134DA0ADDEEED6DC01CB018093680590936905F6
S1134DB0A0936A05B0936B05E3D69B01AC01809187
S1134DC0680590916905A0916A05B0916B05790118
S1134DD08A01E81AF90A0A0B1B0BD801C7012091B2
S1134DE0100130911101409112015091130161E0C1
S1134DF0281739074A075B0708F060E0662361F06B
S1134E007DDEBED6DC01CB018093680590936905F5
S1134E10A0936A05B0936B0580914E03882339F003
S1134E208091A6019091A7010E94FE1E06C0809168
S1134E30A4019091A5010E948417E6E00C947932B4
S1134E40A4E0B0E0E6E2F7E20C9461329A8389834D
S1134E507C836B8389819A81019741F48B819C8146
S1134E60019621F482EB94E00E94220B2496E2E066
S1134E700C947D32A0E0B0E0E0E4F7E20C946132FF
S1134E806FEF7FEF81E090E0DBDFE2E00C947D32B6
S1134E905058BB27AA270ED075C166D130F06BD10C
S1134EA020F031F49F3F11F41EF45BC10EF4E09541
S1134EB0E7FB51C1E92F77D180F3BA176207730773
S1134EC08407950718F071F49EF58FC10EF4E095F0
S1134ED00B2EBA2FA02D0B01B90190010C01CA01B0
S1134EE0A0011124FF27591B99F0593F50F4503E5B
S1134EF068F11A16F040A22F232F342F4427585F4D
S1134F00F3CF469537952795A795F0405395C9F764
S1134F107EF41F16BA0B620B730B840BBAF091501C
S1134F20A1F0FF0FBB1F661F771F881FC2F70EC0BB
S1134F30BA0F621F731F841F48F48795779567958E
S1134F40B795F7959E3F08F0B3CF9395880F08F077
S1134F509927EE0F979587950895D9D008F481E0A5
S1134F6008950CD00FC107D140F0FED030F021F4E9
S1134F705F3F19F0F0C0511139C1F3C014D198F357
S1134F809923C9F35523B1F3951B550BBB27AA27C6
S1134F9062177307840738F09F5F5F4F220F331F38
S1134FA0441FAA1FA9F333D00E2E3AF0E0E830D004
S1134FB091505040E695001CCAF729D0FE2F27D007
S1134FC0660F771F881FBB1F261737074807AB07D5
S1134FD0B0E809F0BB0B802DBF01FF2793585F4F4A
S1134FE02AF09E3F510568F0B6C000C15F3FECF364
S1134FF0983EDCF3869577956795B795F7959F5F0F
S1135000C9F7880F911D9695879597F90895E1E062
S1135010660F771F881FBB1F621773078407BA07C1
S113502020F0621B730B840BBA0BEE1F88F7E0951C
S1135030089504D06894B111D9C00895BCD088F003
S11350409F5790F0B92F9927B751A0F0D1F0660F70
S1135050771F881F991F1AF0BA95C9F712C0B1308B
S113506081F0C3D0B1E00895C0C0672F782F88279E
S1135070B85F39F0B93FCCF3869577956795B395CA
S1135080D9F73EF490958095709561957F4F8F4F39
S11350909F4F0895E89409C097FB3EF4909580953E
S11350A0709561957F4F8F4F9F4F9923A9F0F92FEA
S11350B096E9BB279395F695879577956795B79568
S11350C0F111F8CFFAF4BB0F11F460FF1BC06F5F4E
S11350D07F4F8F4F9F4F16C0882311F096E911C060
S11350E0772321F09EE8872F762F05C0662371F081
S11350F096E8862F70E060E02AF09A95660F771F95
S1135100881FDAF7880F9695879597F90895990F70
S11351100008550FAA0BE0E8FEEF16161706E8077D
S1135120F907C0F012161306E407F50798F0621B9E
S1135130730B840B950B39F40A2661F0232B242B73
S1135140252B21F408950A2609F4A140A6958FEF92
S1135150811D811D089597F99F6780E870E060E0E4
S113516008959FEF80EC089500240A9416161706FC
S113517018060906089500240A9412161306140644
S113518005060895092E0394000C11F4882352F0A7
S1135190BB0F40F4BF2B11F460FF04C06F5F7F4F5F
S11351A08F4F9F4F089557FD9058440F551F59F046
S11351B05F3F71F04795880F97FB991F61F09F3F00
S11351C079F087950895121613061406551FF2CF29
S11351D04695F1DF08C0161617061806991FF1CF79
S11351E086957105610508940895E894BB276627A0
S11351F07727CB0197F908958ADF08F48FEF089594
S11352000BD0C0CFB1DF28F0B6DF18F0952309F03A
S1135210A2CFA7CF1124EACFC6DFA0F3959FD1F385
S1135220950F50E0551F629FF001729FBB27F00D50
S1135230B11D639FAA27F00DB11DAA1F649F6627A5
S1135240B00DA11D661F829F2227B00DA11D621FF4
S1135250739FB00DA11D621F839FA00D611D221FAE
S1135260749F3327A00D611D231F849F600D211D92
S1135270822F762F6A2F11249F5750408AF0E1F035
S113528088234AF0EE0FFF1FBB1F661F771F881F7E
S113529091505040A9F79E3F510570F05CCFA6CFC6
S11352A05F3FECF3983EDCF3869577956795B79569
S11352B0F795E7959F5FC1F7FE2B880F911D969593
S11352C0879597F9089523DF880B990B08950E9419
S11352D0FC35FC01918D228D892F90E0805C9F4FDD
S11352E0821B91098F7399270895FC01918D828DFA
S11352F0981731F0828DE80FF11D858D90E00895A7
S11353008FEF9FEF0895FC01918D828D981761F0C6
S1135310828DDF01A80FB11D5D968C91928D9F5FE8
S11353209F73928F90E008958FEF9FEF089586EE1C
S11353309AE2892B41F080E090E0892B21F046D15C
S113534081110C9400000895FC01848DDF01A80FE5
S1135350B11DA35ABF4F2C91848D90E001968F7399
S11353609927848FA689B7892C93A089B1898C91B8
S113537080648C93938D848D981306C00288F3897E
S1135380E02D80818F7D80830895CF93DF93EC019E
S1135390888D8823C1F0EA89FB89808185FD05C059
S11353A0A889B9898C9186FD0EC00FB607FCF5CF8C
S11353B0808185FFF2CFA889B9898C9185FFEDCFD3
S11353C0CE01C2DFE8CFDF91CF910895EF92FF9233
S11353D00F931F93CF93DF93EC0181E0888F9B8D14
S11353E08C8D981305C0E889F989808185FD23C0D7
S11353F0F62E0B8D10E00F5F1F4F0F731127E02E59
S11354008C8DE8120BC00FB607FCFACFE889F98936
S1135410808185FFF5CFCE0197DFF2CF8B8DFE0122
S1135420E80FF11DE35AFF4FF0820B8FEA89FB89E5
S11354308081806207C0EE89FF896083E889F989E9
S113544080818064808381E090E0DF91CF911F911F
S11354500F91FF90EF900895CF92DF92EF92FF9219
S11354601F93CF93DF93EC016A017B01122FE8892C
S1135470F98982E080834115514E61057105A9F0D7
S113548060E079E08DE390E0A7019601BCD7DA01F2
S1135490C9010197A109B109B695A7959795879573
S11354A0AC01411580E15807A0F0E889F989108220
S11354B060E874E88EE190E0A7019601A4D7BA01F0
S11354C0A90141505109610971097695679557956C
S11354D04795EC85FD855083EE85FF854083188EC6
S11354E0EC89FD891083EA89FB898081806180834E
S11354F0EA89FB89808188608083EA89FB898081CD
S113550080688083EA89FB8980818F7D8083DF9135
S1135510CF911F91FF90EF90DF90CF9008951F924D
S11355200F920FB60F9211242F938F939F93EF93A3
S1135530FF93E0917C05F0917D058081E0918205E7
S1135540F091830582FD12C09081809185058F5F63
S11355508F7320918605821751F0E0918505F0E064
S1135560E459FA4F958F8093850501C08081FF919E
S1135570EF919F918F912F910F900FBE0F901F90DD
S113558018951F920F920FB60F9211242F933F93E9
S11355904F935F936F937F938F939F93AF93BF9337
S11355A0EF93FF938CE695E0CFDEFF91EF91BF91EF
S11355B0AF919F918F917F916F915F914F913F91A7
S11355C02F910F900FBE0F901F9018958CE695E0C9
S11355D080DE21E0892B09F420E0822F0895ECE697
S11355E0F5E01382128288EE93E0A0E0B0E08483B9
S11355F09583A683B7838CEA91E09183808385ECBD
S113560090E09587848784EC90E09787868780EC88
S113561090E0918B808B81EC90E0938B828B82EC79
S113562090E0958B848B86EC90E0978B868B118E23
S1135630128E138E148E0895089517D3FDDF3EDB6A
S1135640C7E9D9E265DB2097E9F371DEFBCF8EC7AA
S11356500C944B33CF92DF92EF92FF920F931F93F0
S1135660CF93DF936C017A018B01C0E0D0E0CE15BB
S1135670DF0589F0D8016D918D01D601ED91FC9182
S11356800190F081E02DC6010995892B11F47E016A
S113569002C02196ECCFC701DF91CF911F910F91EA
S11356A0FF90EF90DF90CF9008956115710579F028
S11356B0FB0101900020E9F73197AF01461B570B1E
S11356C0DC01ED91FC910280F381E02D099480E0EE
S11356D090E00895EF92FF920F931F93CF93DF937F
S11356E08C017B01C0E0D0E0F701EC0FFD1F649159
S11356F0662361F0D801ED91FC910190F081E02DD9
S1135700C8010995892B11F02196EECFCE01DF91C6
S1135710CF911F910F91FF90EF900895DC01ED91CF
S1135720FC91DB0114964D915C9115976D917C91E0
S11357300280F381E02D0994DC01ED91FC9101904C
S1135740F081E02D099468EB71E0AFCF0F931F93C4
S1135750CF93DF93EC01BEDF8C01CE01F4DF800F29
S1135760911FDF91CF911F910F9108950F931F9374
S1135770CF93DF93EC01D2DF8C01CE01E4DF800F05
S1135780911FDF91CF911F910F9108958F929F9256
S1135790AF92BF92CF92DF92EF92FF920F931F933B
S11357A0CF93DF93CDB7DEB7A1970FB6F894DEBFE2
S11357B00FBECDBF7C01D42EC52EDB0119A2223031
S11357C008F42AE08E010F5D1F4F822E912CA12C2C
S11357D0B12C6D2D7C2DCD01A501940114D6D22EB2
S11357E0C32EDA01015011096A3071058105910552
S11357F010F4605D01C0695CF8016083232B242BE5
S1135800252B39F7B801C70150DFA1960FB6F894DC
S1135810DEBF0FBECDBFDF91CF911F910F91FF90DF
S1135820EF90DF90CF90BF90AF909F908F900895AE
S1135830CF92DF92EF92FF920F931F93CF93DF9358
S1135840EC016A017B012115310579F4E881F981C4
S11358500190F081E02D642FDF91CF911F910F9182
S1135860FF90EF90DF90CF9009942A303105D9F45E
S113587077FF18C06DE260DF8C0144275527BA0119
S11358804C195D096E097F092AE0CE017FDF800F84
S1135890911FDF91CF911F910F91FF90EF90DF90B7
S11358A0CF9008952AE0B701A601CE01DF91CF91F0
S11358B01F910F91FF90EF90DF90CF9067CF0F93E0
S11358C01F93CF93DF93EC019A01AB01770F660B23
S11358D0770BAEDF8C01CE0136DF800F911FDF9195
S11358E0CF911F910F9108952115310541F4DC01E9
S11358F0ED91FC910190F081E02D642F099446CF45
S11359000F931F93CF93DF93EC019A01462F50E03E
S113591060E070E0E9DF8C01CE0115DF800F911F9C
S1135920DF91CF911F910F9108954F925F926F92E3
S11359307F928F929F92AF92BF92CF92DF92EF921B
S1135940FF92CF93DF93EC016A017B01B22E9A019F
S1135950AB01C701B601B7DC882319F06BEB71E02A
S113596024C026013701E89477F82FEF3FEF4FE783
S11359705FE7C301B201A7DC81110CC02FEF3FEF39
S11359804FE75FE7C301B201E8DA18161CF46FEBC6
S113599071E00BC02FEF3FEF4FE75FE4C701B601A3
S11359A02BDC181694F463EC71E0CE01DF91CF91F7
S11359B0FF90EF90DF90CF90BF90AF909F908F902B
S11359C07F906F905F904F9070CE2FEF3FEF4FE737
S11359D05FECC701B601C1DA87FDE5CF20E030E016
S11359E0A901C701B601B9DA87FF09C06DE2CE018A
S11359F0A3DE4C01F7FAF094F7F8F09402C0812C7E
S1135A00912CA12C60E070E080E09FE3AB1439F0AE
S1135A1020E030E040E251E4A4DAA394F7CF9B0104
S1135A20AC01C701B60135DA2B013C0107DB6B0180
S1135A307C0130DB9B01AC01C301B20129DA2B01EB
S1135A403C012AE0B701A601CE01A0DE7C01E80CEE
S1135A50F91CBB2031F067EC71E0CE0126DEE80EC4
S1135A60F91EDB2CDD2011F120E030E040E251E4AE
S1135A70C301B201C5DB2B013C01DBDA4B01770F1B
S1135A80AA08BB082AE030E0B501A401CE01D0DEAB
S1135A90E80EF91EC501B401FFDA9B01AC01C30194
S1135AA0B201F6D92B013C01DA94DCCFC701DF91B6
S1135AB0CF91FF90EF90DF90CF90BF90AF909F90E9
S1135AC08F907F906F905F904F9008950F931F93E6
S1135AD0CF93DF93EC0129DF8C01CE0134DE800FFC
S1135AE0911FDF91CF911F910F9108951F920F92F3
S1135AF00FB60F9211242F933F938F939F93AF93DD
S1135B00BF9380910A0690910B06A0910C06B09168
S1135B100D063091090623E0230F2D3720F401965A
S1135B20A11DB11D05C026E8230F0296A11DB11DBC
S1135B302093090680930A0690930B06A0930C0603
S1135B40B0930D0680910E0690910F06A091100659
S1135B50B09111060196A11DB11D80930E0690937C
S1135B600F06A0931006B0931106BF91AF919F91B9
S1135B708F913F912F910F900FBE0F901F9018950A
S1135B802FB7F89460910A0670910B0680910C0669
S1135B9090910D062FBF08953FB7F89480910E069B
S1135BA090910F06A0911006B091110626B5A89BFE
S1135BB005C02F3F19F00196A11DB11D3FBFBA2F9B
S1135BC0A92F982F8827820F911DA11DB11DBC01FB
S1135BD0CD0142E0660F771F881F991F4A95D1F7C0
S1135BE008958F929F92AF92BF92CF92DF92EF92DD
S1135BF0FF926B017C01D0DF4B015C01C114D10425
S1135C00E104F104F1F0FED3C7DFDC01CB01881914
S1135C109909AA09BB09883E9340A105B10570F30F
S1135C2021E0C21AD108E108F10888EE880E83E069
S1135C30981EA11CB11CC114D104E104F10421F784
S1135C40DDCFFF90EF90DF90CF90BF90AF909F900B
S1135C508F9008958230910538F0880F991F880F2E
S1135C60991F05970197F1F70895789484B5826098
S1135C7084BD84B5816084BD85B5826085BD85B5EC
S1135C80816085BDEEE6F0E0808181608083E1E89B
S1135C90F0E01082808182608083808181608083D3
S1135CA0E0E8F0E0808181608083E1EBF0E08081D6
S1135CB084608083E0EBF0E0808181608083EAE7A8
S1135CC0F0E0808184608083808182608083808131
S1135CD0816080838081806880831092C1000895F0
S1135CE08E3008F08E5087702091140190E4299F23
