S0140000576174657253656E736F72732E7372656320
S11300002FC2000055C2000053C200002BC60000DE
S113001029C6000027C600004BC2000049C20000E8
S113002047C2000045C2000043C2000041C20000B4
S11300303FC200003DC200003BC2000039C20000C4
S11300400C94A92E35C200000C94C22B0C94F42BF2
S11300502FC200002DC200002BC2000029C20000E4
S113006086C2000025C20000BD03C003C003C00354
S1130070C003C003C003C003D702C003C003C0034E
S1130080C003C003C003C003D702C003C003C0033E
S1130090C003C003C003C003DF02C003C003C00326
S11300A0C003C003C003C0030403C003C003C003F0
S11300B0C003C003C003C003DF02C003C003C00306
S11300C0C003C003C003C0030903C003C003C003CB
S11300D0C003C003C003C0030E03C003C003C003B6
S11300E0C003C003C003C0031F03C003C003C00395
S11300F0C003C003C003C0034803C003C003C0035C
S1130100C003C003C003C0031303C003C003C00380
S1130110C003C003C003C0032D03C003C003C00356
S1130120C003C003C003C0034A03C003C003C00329
S1130130C003C003C003C0034A03C003C003C00319
S1130140C003C003C003C0034A03C003C003C00309
S1130150C003C003C003C0034A03C003C003C003F9
S1130160C003C003C003C0035303C003C003C003E0
S1130170C003C003C003C0038403C003C003C0039F
S1130180C003C003C003C0035303C003C003C003C0
S1130190C003C003C003C0038403C003C003C0037F
S11301A0C003C003C003C0036B03C003C003C00388
S11301B0C003C003C003C0038803C003C003C0035B
S11301C0C003C003C003C0038803C003C003C0034B
S11301D0C003C003C003C0039D03C003C003C00326
S11301E0C003C003C003C003B703C003C003C003FC
S11301F0C003C003C003C003B7034E414E494E4978
S11302005459494E46CDCCCC3D0AD7233C17B7D1DF
S11302103877CC2B329595E6241FB14F0A00002085
S1130220410000C84200401C4620BCBE4CCA1B0E04
S11302305AAEC59D7400407A10F35A00A0724E184D
S1130240090010A5D4E80000E87648170000E40B84
S113025054020000CA9A3B000000E1F5050000804A
S1130260969800000040420F000000A086010000A4
S113027000102700000000E80300000000640000F4
S11302800000000A00000000000100000000002C33
S113029076D888DC674F0823DFC1DFAE59E1B1B7F8
S11302A096E5E3E453C63AE651997696E8E6C284C5
S11302B026EB898C9B62ED407C6FFCEFBC9C9F40DD
S11302C0F2BAA56FA5F490055A2AF75C936B6CF902
S11302D0676DC11BFCE0E40D47FEF520E6B500D0D8
S11302E0ED902E0300943577050080841E080000ED
S11302F0204E0A000000C80C333333330F986E12BB
S1130300831141EF8D2114893BE65516CFFEE6DBC0
S113031018D1844B381BF77C1D901DA4BBE424200A
S11303203284725E228100C9F124ECA1E53D2720CC
S113033020202020202020202020202020202000D9
S11303404572726F72206E756D62657220666F728F
S11303502074686520617272617920746F206176FF
S1130360726167696E67212F6E00416464696E670C
S113037020706856616C3A200053657474696E6726
S113038020706856616C3A20005F736C6176653A40
S11303902000636D643A2000636D64446174613AC3
S11303A02000556E6578706563746564206E756DA4
S11303B0626572206F66206279746573207265636A
S11303C065697665643A20007E726573706F6E733A
S11303D065496E646578206E6F7420666F756E640F
S11303E03A20005B53656C656C63745D20507265E4
S11303F07373656400000000080002010000030438
S11304000700000000000000000102040810204062
S113041080010204081020010204081020040404CE
S11304200404040404020202020202030303030399
S1130430030000000023002600290000000000251E
S11304400028002B0000000000240027002A0000E0
S1130450EA05050B3A2628276C28222C482636273D
S113046011241FBECFEFD8E0DEBFCDBF11E0A0E066
S1130470B1E0E0E4F6E702C005900D92A03EB107BA
S1130480D9F726E0A0EEB1E001C01D92A230B20778
S1130490E1F712E0CEE2D2E004C02197FE010E940F
S11304A0CD33C832D107C9F70E94502C0C94143BA9
S11304B0A7CD10924D0281E080934B0210924A0224
S11304C061E082E10E94253061E083E10E942530F1
S11304D0E9EBF0E080818E7F808380818D7F808353
S11304E088E48093B80085E48093BC000895880F65
S11304F08093BA0008956132C8F420914D022430EB
S1130500B9F4609302026623A9F0FC01A4E0B2E00E
S11305106150262F30E02F5F3F4F280F391F9191F4
S11305209D93E217F307D9F780E0089581E00895D9
S113053082E0089580E008959093470280934602F4
S113054008959093490280934802089585ED80931D
S1130550BC00ECEBF0E0808184FDFDCF10924D02F5
S1130560089585EC8093BC0010924D0208951F926B
S11305700F920FB60F9211242F933F934F935F93D3
S11305806F937F938F939F93AF93BF93EF93FF9357
S11305908091B900E82FE87F8E2F90E0893C910587
S11305A008F0EEC0FC01EC5CFF4F0C94CD3380915D
S11305B04C028093BB0085EC8093BC00E1C0909119
S11305C0250280912402981780F4E091250281E0AD
S11305D08E0F80932502F0E0EA5DFD4F80818093C9
S11305E0BB0085EC8093BC00CBC080914B02882378
S11305F011F0ACDFC5C081E080934A0284EA8093A5
S1130600BC0010924D02BCC080E28093E0019EDFEA
S1130610B7C080E38093E00199DFB2C088E38093A0
S1130620E0019FDFADC0E091250281E08E0F809351
S113063025028091BB00F0E0EA5DFD4F808390913C
S1130640250280912402981720F485EC8093BC0045
S113065097C085E88093BC0093C0E091250281E0B7
S11306608E0F809325028091BB00F0E0EA5DFD4F80
S1130670808380914B02882311F068DF81C081E080
S113068080934A0284EA8093BC0010924D0278C0A1
S11306905DDF76C083E080934D021092E10185EC2A
S11306A08093BC006DC08091E101803280F4E091C0
S11306B0E10181E08E0F8093E1018091BB00F0E0C5
S11306C0EE51FE4F808385EC8093BC0059C085E8D1
S11306D08093BC0055C08091E101803230F4E091F8
S11306E0E101F0E0EE51FE4F108230DF6091E10154
S11306F070E0E0914602F091470282EE91E00995A4
S11307001092E1012EDF3CC085E88093BC0038C024
S113071084E080934D021092030210920202E09151
S11307204802F0914902099580910202811105C0A5
S113073081E08093020210920402E091030281E0BE
S11307408E0F80930302F0E0EC5FFD4F8081809375
S1130750BB009091030280910202981720F485EC6B
S11307608093BC000DC085E88093BC0009C085EC73
S11307708093BC0010924D0203C01092E001E6DEAB
S1130780FF91EF91BF91AF919F918F917F916F9165
S11307905F914F913F912F910F900FBE0F901F903B
S11307A01895A4E0B0E0E7EDF3E00C94ED339A8300
S11307B089837C836B8389819A812B813C81FC01B1
S11307C0338322832496E2E00C940934A2E0B0E05F
S11307D0ECEEF3E00C94ED339A83898389819A815A
S11307E02CED31E0FC013183208389819A81FC0165
S11307F0138212822296E2E00C940934A2E0B0E063
S1130800E4E0F4E00C94ED339A83898389819A813E
S1130810DDDF89819A812DE731E0FC01318320837A
S113082029813A8188EE93E0A0E0B0E0F901848365
S11308309583A683B7832296E2E00C940934A2E060
S1130840B0E0E5E2F4E00C94ED339A838983898186
S11308509A81D4DF89819A812DE631E0FC013183CC
S113086020832296E2E00C940934A2E0B0E0EBE3AA
S1130870F4E00C94ED339A83898310926E02109203
S11308806F02109290021092910213DE2296E2E01F
S11308900C940934A3E0B0E0E0E5F4E00C94ED330B
S11308A09A8389836B838B8122DE8FE895E049DE0E
S11308B089E495E041DE89819A81D7DF2396E2E0DD
S11308C00C940934A3E0B0E0E8E6F4E00C94ED33D2
S11308D09A8389836B83809192028823F9F08091B3
S11308E09102803240F089819A8161E070E059DFA1
S11308F080E090E019C080919002882F90E02B81D5
S113090080599D4FFC012083809190028F5F8093DA
S11309109002809190028093910204C0CE010396CC
S113092061E0E9DD81E090E02396E2E00C94093493
S1130930A8E0B0E0EEE9F4E00C94ED339C838B8303
S11309407E836D8358874F8380919202882329F197
S11309501A8219821AC08B819C81FC018081918149
S1130960FC01208131814D815E8189819A81840FCE
S1130970951FFC0140818B819C81642FF9010995AD
S113098089819A8101969A83898329813A818F8109
S1130990988528173907F8F205C02F818D819E812B
S11309A0622FA9DD8F8198852896E2E00C940934A2
S11309B0A2E0B0E0EEEDF4E00C94ED339A83898389
S11309C080916F02282F30E080916E02882F90E092
S11309D0A901481B590BCA012296E2E00C94093480
S11309E0A4E0B0E0E6EFF4E00C94ED339C838B8359
S11309F08FEF9FEF9A83898390916E0280916F02AB
S1130A00981788F480916E02882F90E0825B9D4F46
S1130A10FC018081882F90E09A83898380916E0203
S1130A208F5F80936E0289819A812496E2E00C9410
S1130A300934A4E0B0E0EFE1F5E00C94ED339C83DD
S1130A408B838FEF9FEF9A83898390916E028091BD
S1130A506F02981760F480916E02882F90E0825B99
S1130A609D4FFC018081882F90E09A83898389813E
S1130A709A812496E2E00C940934A2E0B0E0E3E425
S1130A80F5E00C94ED339A8389832296E2E00C948A
S1130A900934A5E0B0E0EFE4F5E00C94ED339B837A
S1130AA08A837D836C838091950290919602892B31
S1130AB009F431C090916E0280916F02981708F486
S1130AC02AC0198213C08981882F90E02981222F9E
S1130AD030E04A815B81240F351FF9012081825B5C
S1130AE09D4FFC01208389818F5F89838981282F11
S1130AF030E08C819D81281739072CF310926E0207
S1130B008C8180936F0220919502309196028C81A2
S1130B109D81F90109952596E2E00C940934A0E041
S1130B20B0E0E5E9F5E00C94ED3380919302909107
S1130B309402892B09F40AC0109290021092910237
S1130B408091930290919402FC010995E2E00C9447
S1130B500934A4E0B0E0EFEAF5E00C94ED339A83B5
S1130B6089837C836B838B819C8190939602809391
S1130B7095022496E2E00C940934A4E0B0E0E3EC9E
S1130B80F5E00C94ED339A8389837C836B838B81AA
S1130B909C8190939402809393022496E2E00C94B7
S1130BA00934A4E0B0E0E7EDF5E00C94ED339A836A
S1130BB089837C836B8389819A81019739F48B8142
S1130BC09C81019619F487E992E039DE2496E2E0EB
S1130BD00C940934A0E0B0E0E0EFF5E00C94ED33C0
S1130BE06FEF7FEF81E090E0DCDFE2E00C9409340A
S1130BF0A2E0B0E0EEEFF5E00C94ED3389836A8374
S1130C002296E2E00C940934A4E0B0E0EAE0F6E0D5
S1130C100C94ED339C838B838B819C819A83898391
S1130C2089819A810197F1F79A8389832496E2E076
S1130C300C940934A2E0B0E0E0E2F6E00C94ED3369
S1130C409A83898389819A81FC0186859785FC0131
S1130C50208189819A81FC01858582232296E2E0A4
S1130C600C9409341F920F9200905F000F9211248C
S1130C702F933F934F935F936F937F938F939F93A0
S1130C80AF93BF93EF93FF93CF93DF93CDB7DEB7CB
S1130C902B97DEBFCDBF8091A3029091A402892B34
S1130CA009F4F4C08091A3029091A4029A838983E9
S1130CB01B8289819A81FC01868D8270882349F088
S1130CC089819A81B7DF982F81E0992351F480E0DC
S1130CD008C089819A81AEDF982F81E0992309F0B9
S1130CE080E0882309F4D2C089819A819D838C8312
S1130CF01E828E818823A1F08C819D81FC018389D1
S1130D0094892C813D81F90123893489F901408139
S1130D102C813D81F9012589242BFC01208315C0F8
S1130D208C819D81FC01838994892C813D81F90109
S1130D3023893489F9012081422F2C813D81F901D5
S1130D40258920952423FC01208389819A81FC0133
S1130D508689978959DF61E08DE04ADF88E08F83D7
S1130D601FC089819A81FC01808D918D4DDF8B811B
S1130D70882F90E0959587958B8361E08DE038DF2F
S1130D8089819A8157DF982F81E0992309F480E0C3
S1130D90882319F08B8180688B838F8181508F83A6
S1130DA08F818823F1F689819A81FC01868D827076
S1130DB0882319F08B8180958B838091E502882F9D
S1130DC090E001968F739078992324F40197806CB6
S1130DD09F6F019688879091E60281E02885291704
S1130DE009F480E0882369F08091E502882F90E07F
S1130DF08B559D4F2B81FC01208388858093E502D0
S1130E000AC061E08BE0F4DE89819A81FC01268DC1
S1130E102160FC01268F89819A81FC01828D938D4A
S1130E20F3DE61E08BE0E4DE89819A819A87898729
S1130E3081E08B878B858823A1F089859A85FC01C5
S1130E408389948929853A85F90123893489F901AB
S1130E50408129853A85F9012589242BFC012083C9
S1130E6015C089859A85FC018389948929853A85E9
S1130E70F90123893489F9012081422F29853A8592
S1130E80F901258920952423FC0120832B960FB694
S1130E90F894DEBF0FBECDBFDF91CF91FF91EF91EC
S1130EA0BF91AF919F918F917F916F915F914F917E
S1130EB03F912F910F9000925F000F901F90189513
S1130EC08F92AF92CF92EF920F93CF93DF93CDB7E0
S1130ED0DEB728970FB6F894DEBF0FBECDBF9A8356
S1130EE089836B834C832D830E83EF82C88689812B
S1130EF09A816CDC89819A812DE831E0FC0131838F
S1130F00208389819A811F921F921F921F92888445
S1130F10AF80CE80ED800C812FEF4B8161E012D049
S1130F200F900F900F900F9028960FB6F894DEBF95
S1130F300FBECDBFDF91CF910F91EF90CF90AF90C7
S1130F408F9008958F92AF92CF92EF920F93CF9399
S1130F50DF93CDB7DEB72A970FB6F894DEBF0FBE86
S1130F60CDBF9A8389836B834C832D830E83EF8259
S1130F70C886A9868A8689819A812C81FC0124836A
S1130F8089819A812D81FC01258389819A812E8111
S1130F90FC01268389819A812F81FC012783898121
S1130FA09A812885FC01208789819A812985FC0101
S1130FB0218789819A812A85FC01228789819A81E6
S1130FC02C89FC01238789819A812D89FC0124873E
S1130FD089819A812E89FC01258789819A812F89AB
S1130FE0FC01268789819A81FC01848161E00E9449
S1130FF0E92F89819A81FC0185818F3F39F08981AC
S11310009A81FC01858161E00E94E92F89819A819E
S1131010FC01868161E00E94E92F8B81882329F0FD
S113102089819A81FC01178605C089819A8120E112
S1131030FC01278789819A8120E041E060E10ED09C
S11310402A960FB6F894DEBF0FBECDBFDF91CF91C5
S11310500F91EF90CF90AF908F900895A5E0B0E0FE
S1131060E4E3F8E00C94EB339A8389836B834C8339
S11310702D838C81823050F089819A81FC0187858F
S1131080282F286089819A81FC01278789819A8188
S11310902C81FC01238B8B81882F90E0AC01405C78
S11310A05F4F8B81282F30E089819A818A0140E447
S11310B050E060E070E0A4D08D81882369F08C81D9
S11310C0813051F489819A81FC018785282F24601D
S11310D089819A81FC01278780E593EC0E945D2F2A
S11310E089819A81FC01848160E00E942530898194
S11310F09A81FC01868160E00E94253089819A8171
S1131100FC0185818F3F39F089819A81FC018581B9
S113111060E00E94253089819A81FC018785882FAF
S113112090E080719927892BE9F489819A8163E0A1
S113113091D184E991E10E945D2F89819A8163E0D4
S113114089D184E991E10E945D2F89819A8163E0CC
S113115081D186E990E00E945D2F89819A8162E0C5
S113116079D126C089819A81FC018785282F206244
S113117089819A81622FD6D084E991E10E945D2F02
S113118089819A81FC018785282F206289819A812F
S1131190622FC8D086E990E00E945D2F89819A81F0
S11311A0FC018785282F206289819A81622FBAD019
S11311B089819A81FC018785282F206289819A81FF
S11311C0622FB0D089819A8124E0FC01208B89812F
S11311D09A8188D089819A813BD089819A8122E041
S11311E0FC01218B89819A81FC018189282F24604B
S11311F089819A81622F96D02596E4E00C94073475
S1131200AAE0B0E0E6E0F9E00C94EB339A8389833A
S11312107C836B835E834D8338872F831A8709878A
S11312202B8189819A81FC01248B2D8189819A816A
S1131230FC01258B2F8189819A81FC01268B2985CC
S113124089819A81FC01278B2A96E4E00C94073467
S1131250A2E0B0E0EEE2F9E00C94ED339A838983E6
S113126089819A8161E05ED080ED97E00E945D2FD4
S11312702296E2E00C940934A6E0B0E0E2E4F9E05E
S11312800C94ED339C838B836D834E8384E090E0D8
S11312909A8389838E81843010F083E08E838B81DE
S11312A09C81FC0193898E81891730F08B819C810C
S11312B0FC01838981508E838E81882F90E02B815D
S11312C03C81820F931F4496FC0190818D81890F8C
S11312D08068282F8B819C81622F24D02696E2E09F
S11312E00C940934A2E0B0E0E8E7F9E00C94ED33A3
S11312F09A83898389819A81FC018089282F2460BB
S113130089819A81FC01208B89819A81FC018089E1
S1131310282F286089819A81622F04D02296E2E0E6
S11313200C940934A3E0B0E0E8E9F9E00C94ED335F
S11313309A8389836B8389819A8140E06B8118D079
S11313402396E2E00C940934A3E0B0E0EAEAF9E081
S11313500C94ED339A8389836B8389819A8141E06C
S11313606B8106D081E090E02396E2E00C9409348E
S1131370A4E0B0E0EEEBF9E00C94ED339A838983BA
S11313806B834C8389819A81FC0184816C810E94E6
S1131390253089819A81FC0185818F3F39F08981CB
S11313A09A81FC01858160E00E94253089819A81BF
S11313B0FC018785882F90E080719927892B29F07B
S11313C089819A816B8185D014C08B81882F90E0AC
S11313D095958795959587959595879595958795F1
S11313E0282F89819A81622F35D089819A816B81D6
S11313F031D02496E2E00C940934A2E0B0E0E3E0BA
S1131400FAE00C94ED339A83898389819A81FC01F3
S1131410868160E00E94253081E090E00E945D2F8B
S113142089819A81FC01868161E00E94253081E0F6
S113143090E00E945D2F89819A81FC01868160E0A1
S11314400E94253084E690E00E945D2F2296E2E01F
S11314500C940934A5E0B0E0E0E3FAE00C94ED3339
S11314609C838B836D831A82198228C02B813C81D3
S113147089819A81820F931F0796FC01808161E024
S11314800E94E92F8D81882F90E0098002C09595F4
S113149087950A94E2F7482F41702B813C8189811A
S11314A09A81820F931F0796FC018081642F0E940A
S11314B0253089819A8101969A83898389819A81C9
S11314C00497A4F28B819C8198DF2596E2E00C942A
S11314D00934A5E0B0E0EFE6FAE00C94ED339C8328
S11314E08B836D831A82198228C02B813C81898168
S11314F09A81820F931F0796FC01808161E00E940C
S1131500E92F8D81882F90E0098002C095958795F9
S11315100A94E2F7482F41702B813C8189819A819A
S1131520820F931F0796FC018081642F0E9425304F
S113153089819A8101969A83898389819A810897FE
S1131540A4F28B819C8159DF2596E2E00C94093446
S1131550A0E0B0E0EEEAFAE00C94ED3387EE92E01E
S1131560FC018081882351F460E070E081EF92E017
S11315700AD087EE92E021E0FC01208381EF92E023
S1131580E2E00C940934A4E0B0E0E9ECFAE00C9455
S1131590ED339A8389837C836B8389819A812B8140
S11315A03C81FC01318320830AD09C0189819A818A
S11315B0FC01338322832496E2E00C940934A0E0F6
S11315C0B0E0E5EEFAE00C94ED3380E094E0E2E084
S11315D00C940934A4E0B0E0E0EFFAE00C94ED33AD
S11315E09A8389837C836B8389819A81019749F4E7
S11315F08B819C81019629F4ABDF9093F002809358
S1131600EF022496E2E00C940934A0E0B0E0EBE0B1
S1131610FBE00C94ED336FEF7FEF81E090E0DADFD5
S1131620E2E00C940934A0E0B0E0E9E1FBE00C94C2
S1131630ED330E94F32EDC01CB01BC01CD01E2E0CD
S11316400C940934A8E0B0E0E8E2FBE00C94ED333C
S113165098878F838F81988525E931E0FC01318358
S11316602083E1DFDC01CB018B839C83AD83BE83CC
S11316701A8219823DC02F81388589819A81820F0F
S1131680931F82579F4FFC0110822F8138858981D7
S11316909A814596880F991F820F931FFC0111822E
S11316A010822F81388589819A81880F991F880F2C
S11316B0991F820F931F9C012E5F3F4F8B819C814A
S11316C0AD81BE81F90180839183A283B3832F818D
S11316D0388589819A81CD96880F991F820F931F2F
S11316E0FC011182108289819A8101969A838983EF
S11316F089819A810A970CF4BECF8F81988584558D
S11317009F4FFC01118210822896E2E00C94093468
S1131710A8E0B0E0EEE8FBE00C94E93398878F830F
S113172082DFDC01CB018B839C83AD83BE831A8271
S1131730198225C12F81388589819A81845B9F4FC5
S1131740880F991F820F931FFC01118210822F8131
S1131750388589819A814596880F991F820F931F36
S1131760FC0180819181892B09F404C12F81388582
S113177089819A81880F991F880F991F820F931F5F
S11317800296FC0180819181A281B3812B813C81ED
S11317904D815E8179018A01E81AF90A0A0B1B0B53
S11317A0D801C7014F81588529813A81220F331FFF
S11317B0220F331F240F351F225C3F4FF901208174
S11317C031814281538182179307A407B50708F436
S11317D0D1C02F81388589819A81880F991F880FFC
S11317E0991F820F931F0296FC0180819181A2812F
S11317F0B3814F81588529813A81220F331F220FEB
S1131800331F240F351F225C3F4FF90120813181A2
S113181042815381820F931FA41FB51F4F815885A6
S113182029813A81220F331F220F331F240F351FC2
S11318302E5F3F4FF90180839183A283B3832F816D
S1131840388589819A81820F931F82579F4FFC01AB
S11318508081882309F48EC02F81388589819A81FB
S1131860C396880F991F820F931FFC018081918179
S1131870892B81F42F81388589819A81845B9F4FDC
S1131880880F991F820F931F21E030E0FC01318300
S1131890208370C02F81388589819A81CD96880FE5
S11318A0991F820F931FFC01208131814F8158853C
S11318B089819A81C396880F991F840F951FFC0113
S11318C080819181281739070CF054C02F81388505
S11318D089819A81845B9F4F880F991F820F931F80
S11318E021E030E0FC01318320832F813885898118
S11318F09A81CD96880F991F820F931FFC018081D6
S113190091819C012F5F3F4F4F81588589819A8136
S1131910CD96880F991F840F951FFC013183208376
S11319202F81388589819A81CD96880F991F820FDE
S1131930931FFC01208131814F81588589819A81CF
S1131940C396880F991F840F951FFC018081918194
S1131950281739077CF02F81388589819A81845B27
S11319609F4F880F991F820F931F22E030E0FC01E4
S11319703183208389819A8101969A83898389811D
S11319809A810A970CF4D6CE1A82198246C02F8106
S1131990388589819A81845B9F4F880F991F820FB4
S11319A0931FFC01808191818130910519F0029788
S11319B081F02EC02F81388589819A814596880FC0
S11319C0991F820F931FFC0180819181FC0109956D
S11319D01FC02F81388589819A814596880F991F68
S11319E0820F931FFC0180819181FC0109958F81F5
S11319F09885FC01808191810896FC0120813181C8
S1131A0049815A818F819885BA01F90109950000AD
S1131A1089819A8101969A83898389819A810A9717
S1131A200CF4B5CF2896E6E00C940534A4E0B0E0BD
S1131A30ECE1FDE00C94ED339C838B838B819C81E2
S1131A4084559F4FFC01808191810A971CF08FEF90
S1131A509FEF1FC01A82198216C02B813C81898195
S1131A609A814596880F991F820F931FFC018081EC
S1131A709181892B19F489819A810BC089819A817A
S1131A8001969A83898389819A810A9734F38FEF27
S1131A909FEF2496E2E00C940934ACE0B0E0E3E577
S1131AA0FDE00C94EB339C838B834D835E836F83C7
S1131AB078873A8729871C870B878B819C81B6DFBF
S1131AC09A83898389819A8199231CF48FEF9FEFEC
S1131AD06BC089859A85892B19F48FEF9FEF64C0B9
S1131AE02B813C8189819A81880F991F880F991FC6
S1131AF0820F931F9C01225C3F4F8D819E81AF8199
S1131B00B885F90180839183A283B3832B813C81BF
S1131B1089819A814596880F991F820F931F298581
S1131B203A85FC01318320832B813C8189819A8110
S1131B30C396880F991F820F931F2B853C85FC0148
S1131B40318320832B813C8189819A81820F931F69
S1131B5082579F4F21E0FC01208365DDDC01CB012E
S1131B604B815C8129813A81220F331F220F331F5D
S1131B70240F351F2E5F3F4FF90180839183A28389
S1131B80B3838B819C8184559F4FFC01808191811B
S1131B909C012F5F3F4F8B819C8184559F4FFC019B
S1131BA03183208389819A812C96E4E00C94073454
S1131BB0A8E0B0E0EEEDFDE00C94E9339A8389836C
S1131BC04B835C836D837E8338872F8389819A81DD
S1131BD0DC018D919C910696DC01ED91FC912F81A5
S1131BE038858B819C81AD81BE81E980FA8000E0DB
S1131BF010E0AC01BD01C70109952896E6E00C94FC
S1131C000534A8E0B0E0E7E0FEE00C94E9339A8301
S1131C1089834B835C836D837E8338872F8389819B
S1131C209A81DC018D919C910696DC01ED91FC91E9
S1131C302F8138858B819C81AD81BE81E980FA80BA
S1131C4001E010E0AC01BD01C70109952896E6E06A
S1131C500C940534A4E0B0E0E0E3FEE00C94ED3332
S1131C609A8389837C836B838B819C810A970CF094
S1131C7069C089819A8184559F4FFC01808191813B
S1131C80892B09F45FC029813A818B819C81459617
S1131C90880F991F820F931FFC0180819181892BEA
S1131CA009F450C029813A818B819C814596880F23
S1131CB0991F820F931FFC011182108229813A819E
S1131CC08B819C81820F931F82579F4FFC0110824E
S1131CD029813A818B819C81845B9F4F880F991F56
S1131CE0820F931FFC011182108229813A818B811A
S1131CF09C81880F991F880F991F820F931FCE967E
S1131D00FC01108211821282138229813A818B8113
S1131D109C81CD96880F991F820F931FFC0111821D
S1131D20108289819A8184559F4FFC018081918121
S1131D309C012150310989819A8184559F4FFC016E
S1131D40318320832496E2E00C940934A4E0B0E0CB
S1131D50ECEAFEE00C94ED339A8389837C836B83F5
S1131D608B819C810A970CF014C05DDCDC01CB01F3
S1131D7049815A812B813C81220F331F220F331F4B
S1131D80240F351F2E5F3F4FF90180839183A28377
S1131D90B3832496E2E00C940934A4E0B0E0E3EDCC
S1131DA0FEE00C94ED339A8389837C836B838B816F
S1131DB09C810A9714F080E00AC029813A818B81C2
S1131DC09C81820F931F82579F4FFC018081249630
S1131DD0E2E00C940934A4E0B0E0E1EFFEE00C94FE
S1131DE0ED339A8389837C836B838B819C810A97EF
S1131DF00CF00BC029813A818B819C81820F931F47
S1131E0082579F4F21E0FC0120832496E2E00C944A
S1131E100934A4E0B0E0EFE0FFE00C94ED339A83E2
S1131E2089837C836B838B819C810A970CF00AC025
S1131E3029813A818B819C81820F931F82579F4F06
S1131E40FC0110822496E2E00C940934CF92EF92C4
S1131E500F93CF93DF9300D0CDB7DEB79A838983F6
S1131E6089819A810F2EF7E0CF2EF02D0F2EF6E008
S1131E70EF2EF02D05E024E049E068E021D88981C7
S1131E809A812BEA31E0FC013183208389819A8194
S1131E902AE0EBE1F1E0DC01589601900D922A95DD
S1131EA0E1F789819A8125E030E0FC0133A322A384
S1131EB089819A8108D00F900F90DF91CF910F9173
S1131EC0EF90CF900895A2E0B0E0E9E6FFE00C9433
S1131ED0ED339A83898389819A8120E042E060E12D
S1131EE0BDD889819A81B4D989819A8140E060E022
S1131EF0C3D92296E2E00C940934A4E0B0E0E3E80C
S1131F00FFE00C94ED339A8389837C836B832B816C
S1131F1089819A81422F60E0AFD92FE233E0898131
S1131F209A81B9010E949D2C2496E2E00C94093414
S1131F30A6E0B0E0EEE9FFE00C94ED339A838983E8
S1131F407C836B835E834D832B813C8189819A8161
S1131F50B901D3DF2B8189819A81422F60E08CD92A
S1131F6089819A812D813E81B9010E94C12C2696D6
S1131F70E2E00C940934A4E0B0E0E1ECFFE00C945E
S1131F80ED339C838B838B819C8169D09A83898375
S1131F9089819A818230910591F0833091052CF4E6
S1131FA0009749F0019749F010C08330910549F03A
S1131FB0049749F00AC080E009C081E007C082E0CC
S1131FC005C083E003C084E001C085E02496E2E01C
S1131FD00C940934A6E0B0E0E0EFFFE00C94ED339C
S1131FE09C838B837E836D831A8219821AC02B8112
S1131FF03C8189819A810C96880F991F820F931FC7
S1132000FC01808191819C018D819E8182179307BF
S113201018F489819A811FC089819A8101969A83D3
S113202089838B819C81FC0122A133A189819A81BE
S113203082179307E4F28B819C81FC0122A133A1D6
S113204089819A818217930724F08FEF9FEF9A83F7
S1132050898389819A812696E2E00C940934A6E06A
S1132060B0E0E5E3F0E10C94ED339E838D8380E0F2
S11320700E94A32F9A83898329813A818D819E812D
S1132080B901A8DF9C838B838B819C812696E2E037
S11320900C940934A4E0B0E0E0E5F0E10C94ED33F5
S11320A09A8389837C836B838B819C812496E2E071
S11320B00C940934AAE0B0E0E0E6F0E10C94EB33D0
S11320C09A87898789859A85A4D18C0189859A857F
S11320D08FD120E030E0A901B801B7D1DC01CB01F8
S11320E089839A83AB83BC8389859A85E8D1CC01A3
S11320F0A0E0B0E0BC01CD010E947C29DC01CB0151
S11321009C01AD0169817A818B819C810E94E328C5
S1132110DC01CB018D839E83AF83B8878D819E8143
S1132120AF81B885BC01CD012A96E4E00C94073454
S1132130CF92DF92EF92FF92CF93DF93CDB7DEB7CA
S113214066970FB6F894DEBF0FBECDBF988B8F870E
S11321507A8B698B1F82188619861A8689899A89CF
S1132160181619065CF080E493E0BC0186E595E05E
S11321700E94D92C80E090E0DC012BC189899A89E6
S113218005970CF049C01A82198220C089819A816E
S1132190880F991F2F853889820F931FFC01808136
S11321A09181092E000CAA0BBB0B2F813885498520
S11321B05A85820F931FA41FB51F8F839887A98701
S11321C0BA8789819A8101969A83898329813A8180
S11321D089899A8928173907CCF289899A899C01B7
S11321E0990F440B550B8F819885A985BA85BC013D
S11321F0CD010E94B133DA01C901BC01CD010E94B5
S11322007E29DC01CB018B879C87AD87BE878B85BC
S11322109C85AD85BE85DDC08F859889FC012081B4
S113222031818F8598890296FC01808191812817DC
S113223039077CF48F859889FC01808191819E8384
S11322408D838F859889FC01828193819C838B8304
S11322500EC08F859889FC01828193819E838D8332
S11322608F859889FC01808191819C838B8382E096
S113227090E09A83898380C089819A81880F991F0D
S11322802F853889820F931FFC01208131818D8134
S11322909E812817390704F58D819E81092E000C33
S11322A0AA0BBB0B2F81388549855A85820F931F52
S11322B0A41FB51F8F839887A987BA8789819A81BC
S11322C0880F991F2F853889820F931FFC01808105
S11322D091819E838D834BC089819A81880F991F38
S11322E02F853889820F931FFC01208131818B81D6
S11322F09C818217930704F58B819C81092E000C25
S1132300AA0BBB0B2F81388549855A85820F931FF1
S1132310A41FB51F8F839887A987BA8789819A815B
S1132320880F991F2F853889820F931FFC018081A4
S113233091819C838B831BC089819A81880F991F0B
S11323402F853889820F931FFC0180819181092E8A
S1132350000CAA0BBB0B2F81388549855A85820F47
S1132360931FA41FB51F8F839887A987BA87898174
S11323709A8101969A83898329813A8189899A89E4
S1132380281739070CF478CF6F81788589859A8569
S11323900E947E296B017C0189899A890297092E02
S11323A0000CAA0BBB0BBC01CD010E947E29DC01F1
S11323B0CB019C01AD01C701B6010E94E328DC01F9
S11323C0CB018B879C87AD87BE878B859C85AD852C
S11323D0BE85BC01CD0166960FB6F894DEBF0FBE74
S11323E0CDBFDF91CF91FF90EF90DF90CF90089514
S11323F0A2E0B0E0EEEFF1E10C94ED339A8389832F
S113240089819A81FC01808191812296E2E00C9479
S11324100934A2E0B0E0EFE0F2E10C94ED339A83EA
S1132420898389819A81FC012081318189819A8102
S1132430FC0184819581880F991F880F991F820F51
S1132440931F2296E2E00C940934A8E0B0E0EBE29A
S1132450F2E10C94ED339A8389837C836B832D831F
S11324603E834F8358871AC089819A81FC018081F9
S11324709181A281B3819C01AD016D817E818F81A7
S113248098850E947B28DC01CB018D839E83AF83DA
S1132490B88789819A8104969A83898329813A81AC
S11324A08B819C8128173907F9F68D819E81AF8134
S11324B0B885BC01CD012896E2E00C940934A2E071
S11324C0B0E0E5E6F2E10C94ED339A8389838981E7
S11324D09A81FC01848195812296E2E00C9409346E
S11324E0A2E0B0E0E6E7F2E10C94ED339A8389834D
S11324F02296E2E00C940934A2E0B0E0E2E8F2E1D2
S11325000C94ED339A8389832296E2E00C94093487
S1132510A4E0B0E0EEE8F2E10C94ED339C838B830D
S11325201A82198217C08B819C81FC012081318120
S113253089819A81880F991F880F991F280F391F45
S11325408B819C810696B901A2D089819A810196DA
S11325509A8389838B819C81FC01248135818981C3
S11325609A8182179307F8F28B819C81FC01428146
S113257053818B819C81FC01208131818B819C81E1
S11325800696B90192D08B819C810696B5DF24967C
S1132590E2E00C940934A6E0B0E0E1EDF2E10C9441
S11325A0ED339A8389837C836B835E834D838B8134
S11325B09C81880F991F880F991F0E945A2C269678
S11325C0E2E00C940934A8E0B0E0E9EEF2E10C9406
S11325D0ED339C838B837E836D8358874F838B81FC
S11325E09C81FC01248135818D819E8128173907C6
S11325F008F043C08B819C81FC01228133818D8151
S11326009E812817390748F48D819E819C01285F9B
S11326103F4F8B819C81B9015CD08B819C81FC01F3
S1132620848195819A83898319C08B819C81FC0163
S11326302081318189819A81880F991F880F991F80
S1132640280F391F8B819C8106964F815885B901CB
S1132650C7D089819A8101969A83898329813A8195
S11326608D819E812817390700F38B819C812D81F0
S11326703E81FC013583248306C02D813E818B81FC
S11326809C81B901D3D02896E2E00C940934A4E0EB
S1132690B0E0EDE4F3E10C94ED339A8389837C8319
S11326A06B832496E2E00C940934A6E0B0E0EBE5F9
S11326B0F3E10C94ED339A8389837C836B835E838B
S11326C04D838B819C810E945B2C2696E2E00C94C6
S11326D00934AAE0B0E0EFE6F3E10C94ED33988717
S11326E08F837A8769878F819885FC012281338162
S11326F089859A852817390708F06EC08F819885D7
S1132700FC01808191819C838B838F819885FC015E
S1132710828193819E838D838F81988529853A85D3
S1132720FC01338322838F819885FC0122813381CC
S11327308F819885069640E050E0B9012CDF9C011A
S11327408F819885FC01318320831A82198231C0DC
S113275089819A81880F991F880F991F2B813C8149
S1132760A901480F591F8F819885FC01208131816F
S113277089819A81880F991F880F991F280F391F03
S11327808F8198850696B9012BD089819A81880F0B
S1132790991F880F991F2B813C81280F391F8F8126
S11327A098850696B90173DF89819A8101969A8387
S11327B089838F819885FC012481358189819A815F
S11327C08217930728F28F81988506964D815E8142
S11327D02B813C81B90169DF2A96E2E00C9409342B
S11327E0A6E0B0E0E6EFF3E10C94ED339A8389833D
S11327F07C836B835E834D838B819C81BC0184E0ED
S113280090E048DC9C012115310561F08D819E81A9
S1132810FC0180819181A281B381F901808391833C
S1132820A283B3832696E2E00C940934A6E0B0E0D8
S1132830ECE1F4E10C94ED339C838B837E836D8314
S11328408B819C81FC01248135818D819E8182173D
S1132850930768F58D819E819A83898317C08B8144
S11328609C81FC012081318189819A81880F991F83
S1132870880F991F280F391F8B819C810696B901F7
S113288006DF89819A8101969A8389838B819C8151
S1132890FC012481358189819A8182179307F8F29A
S11328A08B819C812D813E81FC0135832483269676
S11328B0E2E00C940934A2E0B0E0E1E6F4E10C9427
S11328C0ED339A83898389819A81FC018081918186
S11328D02296E2E00C940934A4E0B0E0E2E7F4E1EB
S11328E00C94ED339A8389837C836B8389819A81E9
S11328F02B813C81B9010E94E3302496E2E00C94E0
S11329000934A4E0B0E0E7E8F4E10C94ED339A83F1
S113291089837C836B8389819A812B813C81FC012F
S1132920318320832496E2E00C940934A2E0B0E0E1
S1132930ECE9F4E10C94ED339A83898389819A81DB
S1132940FC01808191810E94FE3A2296E2E00C947F
S11329500934A2E0B0E0EFEAF4E10C94ED339A8399
S1132960898389819A81E2DF2296E2E00C9409341A
S1132970A3E0B0E0EEEBF4E10C94ED339A838983A9
S11329806B8389819A81FC01808191816B810E9492
S1132990063B89819A812396E2E00C940934A3E0F2
S11329A0B0E0E5EDF4E10C94ED339A8389836B8315
S11329B089819A81CEDF982F8B81981729F089819C
S11329C09A816B81D5DF02C089819A812396E2E0E6
S11329D00C940934A6E0B0E0E0EFF4E10C94ED339C
S11329E09C838B837E836D838D819E81BC01CE010C
S11329F0019687DF89819A812696E2E00C94093456
S1132A00AAE0B0E0E6E0F5E10C94EB339E838D831D
S1132A1078876F835A8749871A8219821DC00D816E
S1132A201E81C80101979E838D838F8198859C01A7
S1132A302F5F3F4F38872F83BC0185EF92E0CADFB9
S1132A409C838B83CE01039684DFF8018083898184
S1132A509A8101969A83898329813A8189859A8505
S1132A6028173907E0F22A96E4E00C940734ABE027
S1132A70B0E0EDE3F5E10C94ED339F838E83798729
S1132A8068875B874A871A82198220C08E819F815A
S1132A90FC0180818B83888599859C012F5F3F4F42
S1132AA039872887BC0185EF92E094DF9D838C836E
S1132AB0CE0104966B8173DF8E819F8101979F8382
S1132AC08E8389819A8101969A83898329813A81A7
S1132AD08A859B8528173907C8F22B96E2E00C9467
S1132AE00934A4E0B0E0E7E7F5E10C94ED339A8310
S1132AF089837C836B8389819A812CED31E0FC018D
S1132B00318320838B819C81FC01228133818981E3
S1132B109A81FC01338322832496E2E00C940934E5
S1132B20A4E0B0E0E6E9F5E10C94ED339A838983FF
S1132B307C836B832B813C8189819A81B901D1DFAC
S1132B4089819A812DE831E0FC01318320838B81D6
S1132B509C81FC01248189819A81FC0124838B81DD
S1132B609C81FC01258189819A81FC0125838B81CB
S1132B709C81FC01268189819A81FC0126838981BB
S1132B809A812B813C8148E0F9013796DC01179644
S1132B9001900D924A95E1F78B819C81FC01278578
S1132BA089819A81FC0127878B819C81FC01208982
S1132BB089819A81FC01208B8B819C81FC01218974
S1132BC089819A81FC01218B8B819C81FC01228962
S1132BD089819A81FC01228B8B819C81FC01238950
S1132BE089819A81FC01238B29813A818B819C8183
S1132BF0FC0184899589A689B789F901848B958B11
S1132C00A68BB78B2496E2E00C940934A4E0B0E0E0
S1132C10ECE0F6E10C94ED339A8389837C836B8337
S1132C202B813C8189819A81B9017ADF89819A81DA
S1132C302BEA31E0FC013183208389819A812B8145
S1132C403C814AE0F9017896DC01589601900D9296
S1132C504A95E1F78B819C81FC0122A133A18981F2
S1132C609A81FC0133A322A32496E2E00C94093454
S1132C70ACE0B0E0EEE3F6E10C94E9339B838A83A5
S1132C807D836C835F834E8328871A870987FC863C
S1132C90EB868A819B812C813D81FC0131832083D9
S1132CA08A819B81FC0117AE16AE8A819B81805C70
S1132CB09F4F2E813F81FC0131832083CE010196F9
S1132CC00FDC8A819B818E5B9F4F9E012F5F3F4F5C
S1132CD0B90146D5CE0101960FDC8A819B81875BC1
S1132CE09F4FFC01118210828A819B81895A9F4FD8
S1132CF02885FC0120838A819B81885A9F4F2B85DC
S1132D003C85FC01318320838A819B81855A9F4FB6
S1132D10FC01118210828A819B81835A9F4F2985ED
S1132D203A85B90173DF8A819B818F579F4F65E292
S1132D3071E00E94E3308A819B8189579F4F65E24D
S1132D4071E00E94E3308A819B819C0123573F4FAD
S1132D5080E090E0A0E4B0E4F90180839183A28351
S1132D60B3838A819B8104D02C96E6E00C940534CD
S1132D70A6E0B0E0EEEBF6E10C94ED339E838D8398
S1132D8061E08DE00E94E92F8D819E81885A9F4FDA
S1132D90FC018081918161E00E94E92F8091AF0163
S1132DA09091B0010FD5DC01CB0189839A83AB8369
S1132DB0BC8329813A814B815C8169817A818B81D1
S1132DC09C810E94952A882371F48D819E819C01A7
S1132DD023573F4F89819A81AB81BC81F90180835C
S1132DE09183A283B3832696E2E00C940934AAE08B
S1132DF0B0E0EDEFF6E10C94ED339E838D834F83C9
S1132E00588769877A878D819E819C0123573F4F1C
S1132E108F819885A985BA85F90180839183A283DE
S1132E20B3838D819E8183579F4FFC018081918163
S1132E30A281B38189839A83AB83BC838091AF01E0
S1132E409091B0019C01CE010196BC01C901CDD481
S1132E502A96E2E00C940934AEE0B0E0E2E3F7E154
S1132E600C94ED339E878D878D859E85855B9F4F62
S1132E70FC0180819181A281B381FE01379622E019
S1132E80AC01BD01CF010E947E31CE01079613DD56
S1132E909C018D859E858F579F4FB9010E941431E7
S1132EA0CE0107960E947C308D859E85815B9F4F65
S1132EB0FC0180819181A281B38122E0AC01BD013A
S1132EC0CE0101960E947E31CE010196F4DC9C0174
S1132ED08D859E8589579F4FB9010E941431CE017B
S1132EE001960E947C308D859E85855B9F4FFC01F9
S1132EF080819181A281B381BC01CD012E96E2E053
S1132F000C940934ACE2B0E0E8E8F7E10C94E9335E
S1132F109CA78BA78BA59CA5865A9F4FFC019081EB
S1132F2081E08927882309F0A4C18BA59CA5A5D19C
S1132F30DC01CB012BA53CA5255B3F4FF901808328
S1132F409183A283B38386EF92E0FC01808188237E
S1132F5089F40E94F32EDC01CB0180930E0390933D
S1132F600F03A0931003B093110386EF92E021E0C6
S1132F70FC0120830E94F32E9B01AC0180910E037F
S1132F8090910F03A0911003B091110379018A016C
S1132F90E81AF90A0A0B1B0BD801C70121E0813694
S1132FA09A4EA105B10508F420E0222309F461C179
S1132FB019821A821B821C828BA59CA58E5B9F4F53
S1132FC07EDA21E0059708F020E02223D1F18BA5D9
S1132FD09CA5855B9F4FFC0180819181A281B38177
S1132FE08BA39CA3ADA3BEA38BA59CA58E5B9F4F77
S1132FF09E012D5D3F4FB9010CD48BA59CA59C016E
S11330002E5B3F4FCE014C96B9011FD4CE014C9696
S113301051D8DC01CB0189839A83AB83BC83CE0175
S11330204C9676DA8BA59CA59C01215B3F4F898148
S11330309A81AB81BC81F90180839183A283B3839C
S113304018C18BA59CA59C012E5B3F4FCE014596D4
S1133050B901FBD3CE0145962DD8DC01CB01898380
S11330609A83AB83BC83CE01459652DA8BA59CA58B
S1133070855B9F4FFC0180819181A281B38129816D
S11330803A814B815C81BC01CD010E947B28DC012B
S1133090CB0120E030E040E050E4BC01CD010E94CF
S11330A0E328DC01CB018FA398A7A9A7BAA72FA176
S11330B038A549A55AA58BA59CA5855B9F4FFC0106
S11330C080819181A281B381EBA5FCA589019A013C
S11330D0AC01BD01CF01EBD28D838D818823D9F062
S11330E08BA59CA5855A9F4FFC01808191810A97ED
S11330F094F48BA59CA5855A9F4FFC0180819181F6
S11331009C012F5F3F4F8BA59CA5855A9F4FFC01C7
S113311031832083AEC08BA59CA5855A9F4FFC01AB
S1133120118210828FE090E09F838E838BA59CA5F3
S11331308E5B9F4FC4D999878887288539858E816E
S11331409F8128173907ECF48AE693E0BC0186E5F1
S113315095E00E949D2C8FA198A5A9A5BAA522E06F
S113316030E0AC01BD0186E595E00E94992E8BA567
S11331709CA58E5B9F4F9E01295D3F4FB90149D3AA
S113318035C089E793E0BC0186E595E00E949D2C5B
S11331908FA198A5A9A5BAA522E030E0AC01BD0194
S11331A086E595E00E94992E8BA59CA5875B9F4F91
S11331B0FC0180819181AC014F5F5F4F2BA53CA541
S11331C0275B3F4FF901518340839C018BA59CA54C
S11331D08E5B9F4FB901A9D39C018FA198A5A9A586
S11331E0BAA5F90180839183A283B3838BA59CA59F
S11331F0875B9F4FFC01208131818E819F8128173D
S1133200390739F48BA59CA5875B9F4FFC0111827C
S113321010828BA59CA59C012E5B3F4FCE010E9680
S1133220B90113D3CE010E960E945A10DC01CB01D2
S11332308A879B87AC87BD87CE010E9669D98BA5FB
S11332409CA59C01215B3F4F8A859B85AC85BD85F0
S1133250F90180839183A283B3830E94F32EDC015E
S1133260CB0180930E0390930F03A0931003B093AC
S11332701103AC96E6E00C940534ACE0B0E0E3E472
S1133280F9E10C94E9339C878B878EEF92E0FC0183
S11332908081882389F40E94F32EDC01CB01809382
S11332A0120390931303A0931403B09315038EEFAA
S11332B092E021E0FC0120830E94F32E9B01AC01EB
S11332C08091120390911303A0911403B0911503FC
S11332D079018A01E81AF90A0A0B1B0BD801C70104
S11332E021E0893E9340A105B10508F420E02223A2
S11332F009F4BEC08EE190E09E838D838B859C850E
S1133300FC0106AD17AD98012F5F3F4F8B859C855F
S1133310FC0137AF26AF8B859C85FC0180819181B0
S11333200E94A32FAC012B853C85C8010196880F10
S1133330991F820F931FFC01518340838B859C85C9
S1133340FC0126AD37AD8D819E812817390729F4FC
S11333508B859C85FC0117AE16AE8B859C850296E9
S11333602D813E81B9010E949810DC01CB018F832D
S11333709887A987BA8720E030E040EA50E46F815B
S1133380788589859A850E94322ADC01CB0120E068
S113339030E040E854E4BC01CD010E94E328DC01A4
S11333A0CB012B853C852D5A3F4FF90180839183B6
S11333B0A283B3838B859C858D5A9F4FFC018081AA
S11333C09181A281B3819C01AD0160E070E080E253
S11333D090E40E947A28DC01CB012CEE31E548E32D
S11333E05EE3BC01CD010E94E328DC01CB0120E0B7
S11333F030E040EE50E4BC01CD010E947B28DC01AA
S1133400CB017C018D018B859C8583579F4FFC01EB
S113341080819181A281B3819C01AD01C801B70172
S11334200E947B28DC01CB0189839A83AB83BC8314
S113343020E030E0A90169817A818B819C810E941E
S1133440DF28882324F419821A821B821C820E949A
S1133450F32EDC01CB018093120390931303A0930A
S11334601403B093150389819A81AB81BC8109C08F
S11334708B859C85855B9F4FFC0180819181A28116
S1133480B381BC01CD012C96E6E00C940534A2E096
S1133490B0E0EDE4FAE10C94ED339A8389838981F9
S11334A09A810E947C302296E2E00C940934AAE1CD
S11334B0B0E0EDE5FAE10C94E9339A8F898F898DB8
S11334C09A8DCADC86E093E0FC018081882389F42C
S11334D00E94F32EDC01CB01809316039093170313
S11334E0A0931803B093190386E093E021E0FC0154
S11334F020830E94F32E9B01AC01809116039091CE
S11335001703A0911803B0911903281B390B4A0B18
S11335105B0B898D9A8D805C9F4FFC01808191812A
S113352080579E4F092E000CAA0BBB0B61E082173B
S11335309307A407B50708F060E0662309F474C094
S1133540898D9A8D895A9F4FFC018081882309F4C3
S11335505FC0CE010D9665E271E00E94E330898D73
S11335609A8D865A9F4FFC018081882331F0CE01C9
S11335700D9666E271E00E941431898D9A8D8C015A
S11335800F571F4F898D9A8D7C01F7E8EF0EF11CC0
S1133590CE01079668E271E09FD9CE010796B70184
S11335A00E9426326DE271E00E943732B8010E9417
S11335B026329C01CE010D96BC01C9010E9426321F
S11335C09C01CE014396B9010E940C31CE010796AD
S11335D05EDFCE014396BC01CE0101960E940C3100
S11335E0898D9A8D835A9F4F9E012F5F3F4FA9016A
S11335F060E070E00E94980FCE0101960E947C303A
S1133600CE0143960E947C30CE010D960E947C3000
S11336100E94F32EDC01CB018093160390931703D1
S1133620A0931803B09319036A96E6E00C9405344A
S1133630A2E0B0E0EEE1FBE10C94ED339A838983E0
S113364089819A81865A9F4F21E0FC0120838981D8
S11336509A81885A9F4FFC018081918161E00E9488
S113366025302296E2E00C940934A2E0B0E0EBE3CA
S1133670FBE10C94ED339A83898389819A81865A7C
S11336809F4FFC01108289819A81885A9F4FFC01C7
S11336908081918160E00E94253068EE73E080E0D3
S11336A090E00E94242F2296E2E00C940934A1E1D8
S11336B0B0E0EDE5FBE10C94EB33998788874A870A
S11336C05B876C877D870E871F87288B398B8DECF2
S11336D09CECACE4BEE389839A83AB83BC832981ED
S11336E03A814B815C816E857F85888999890E94A6
S11336F07A28DC01CB0111E02A853B854C855D8568
S1133700BC01CD010E942E2A18160CF010E01D8376
S113371029813A814B815C816E857F85888999896D
S11337200E947B28DC01CB0111E02A853B854C8576
S11337305D85BC01CD010E94DF2888230CF010E0D8
S11337401E838D81882319F48E81882311F081E0F2
S113375001C080E08F838F816196E4E00C9407348C
S1133760A4E0B0E0E6EBFBE10C94ED339A838983AB
S11337707C836B8389819A81FC0111821082898107
S11337809A8128E030E0FC013383228389819A8185
S1133790FC011582148289819A81FC012281338182
S11337A089819A81069640E050E0B9010E94CB12CB
S11337B09C0189819A81FC01318320832496E2E073
S11337C00C940934A2E0B0E0E8EEFBE10C94ED3394
S11337D09A83898389819A81C3D0DC01CB01BC019E
S11337E0CD012296E2E00C940934A4E0B0E0EBEFC2
S11337F0FBE10C94ED339A8389837C836B832B8167
S11338003C8189819A81B901CBD02496E2E00C9461
S11338100934A4E0B0E0EFE0FCE10C94ED339A83CA
S113382089837C836B8389819A810E945F129C01C6
S11338302F5F3F4F4B815C8189819A81B9010E943E
S1133840E3122496E2E00C940934A6E0B0E0EBE243
S1133850FCE10C94ED339C838B837E836D838B819D
S11338609C8106960E9470128D819E81FC012481A8
S113387035818B819C81FC01358324838B819C81E0
S1133880FC01848195819C01285F3F4F8B819C8141
S1133890FC01338322838B819C81FC01228133814F
S11338A08B819C81069640E050E0B9010E94CB12C6
S11338B09C018B819C81FC01318320831A821982B3
S11338C026C08D819E81FC012081318189819A816C
S11338D0880F991F880F991FA901480F591F8B81C1
S11338E09C81FC012081318189819A81880F991FF3
S11338F0880F991F280F391F8B819C810696B90167
S11339000E94F01389819A8101969A8389838B811D
S11339109C81FC012481358189819A8182179307D6
S113392080F22696E2E00C940934A4E0B0E0EBE9DE
S1133930FCE10C94ED339A8389837C836B838981C6
S11339409A81FC01208131818B819C81880F991F90
S1133950880F991F820F931F2496E2E00C94093478
S1133960A6E0B0E0E6EBFCE10C94ED339E838D839E
S11339708D819E8133D0BC0183E090E09E012F5F56
S11339803F4F820F931F44E050E03AD889819A81D7
S1133990AB81BC81BC01CD012696E2E00C940934D4
S11339A0A4E0B0E0E6EDFCE10C94ED339A83898366
S11339B07C836B8389819A8111D0BC0183E090E080
S11339C02B813C81820F931F44E050E050D88981C1
S11339D09A8104D02496E2E00C940934A2E0B0E089
S11339E0E4EFFCE10C94ED339A83898389819A8115
S11339F02296E2E00C940934ABE0B0E0E2E0FDE1B1
S1133A000C94E9339A8389837C836B835E834D832F
S1133A102F8319870887FB86EA8689819A812B81FF
S1133A203C81FC013183208389819A81FC0117AE9A
S1133A3016AE89819A81805C9F4F2D813E81FC0165
S1133A403183208389819A81825B9F4F2F81FC017E
S1133A50208389819A81815B9F4F2A853B85FC0164
S1133A603183208389819A818E5A9F4FFC01118270
S1133A70108289819A818C5A9F4F28853985B90192
S1133A80C5D889819A8188589F4F60E371E00E946C
S1133A90E33089819A8182589F4F60E371E00E94EC
S1133AA0E33089819A818C579F4F2AEB34E0FC01E3
S1133AB03183208389819A8104D02B96E6E00C948B
S1133AC00534A6E0B0E0E7E6FDE10C94ED339E8317
S1133AD08D8361E08DE00E94E92F8D819E81815B61
S1133AE09F4FFC018081918161E00E94E92F8091C8
S1133AF0AF019091B0010496A7D3092E000CAA0B34
S1133B00BB0BBC01CD010E947E29DC01CB01898362
S1133B109A83AB83BC8329813A814B815C8169811F
S1133B207A818B819C810E94952A882381F4698102
S1133B307A818B819C810E944B29DC01CB019C0101
S1133B408D819E818C579F4FFC0131832083269663
S1133B50E2E00C940934A4E0B0E0E1EBFDE10C9464
S1133B60ED339A8389837C836B8389819A818C5713
S1133B709F4F2B813C81FC013183208389819A8171
S1133B809C012C573F4F8091AF019091B001049656
S1133B90B90169D32496E2E00C940934AEE0B0E0B4
S1133BA0E4EDFDE10C94ED339E878D878D859E8534
S1133BB08E5B9F4FFC0180819181A281B381FE01C4
S1133BC0379620E0AC01BD01CF010E947E31CE01C9
S1133BD007960E945B149C018D859E8588589F4F93
S1133BE0B9010E941431CE0107960E947C308D8564
S1133BF09E858A5B9F4FFC0180819181A281B38164
S1133C0020E0AC01BD01CE0101960E947E31CE01BF
S1133C1001960E945B149C018D859E8582589F4F5E
S1133C20B9010E941431CE0101960E947C308D8529
S1133C309E858E5B9F4FFC0180819181A281B3811F
S1133C40BC01CD012E96E2E00C940934AAE1B0E067
S1133C50ECE2FEE10C94E9339A8F898F898D9A8D79
S1133C609DDF8AE193E0FC018081882389F40E942E
S1133C70F32EDC01CB018093320390933303A093A2
S1133C803403B09335038AE193E021E0FC012083FF
S1133C900E94F32E9B01AC01809132039091330377
S1133CA0A0913403B0913503281B390B4A0B5B0BED
S1133CB0898D9A8D805C9F4FFC0180819181805712
S1133CC09E4F092E000CAA0BBB0B61E082179307D1
S1133CD0A407B50708F060E0662309F47FC0898D66
S1133CE09A8D825B9F4FFC018081882309F460C018
S1133CF0CE010D9660E371E00E94E330898D9A8DC8
S1133D008F5A9F4FFC018081882331F0CE010D969C
S1133D1061E371E00E941431898D9A8D8C010858F9
S1133D201F4F898D9A8D7C01FEE7EF0EF11CCE01A9
S1133D30079663E371E00E946C14CE010796B70105
S1133D400E94263269E371E00E943732B8010E9472
S1133D5026329C01CE010D96BC01C9010E94263277
S1133D609C01CE014396B9010E940C31CE01079605
S1133D708EDBCE014396BC01CE0101960E940C312C
S1133D80898D9A8D8C5A9F4F9E012F5F3F4FA901B9
S1133D9061E070E00E94980FCE0101960E947C3091
S1133DA0CE0143960E947C30CE010D960E947C3059
S1133DB08DE00E945430982F81E08927682F8DE090
S1133DC00E9425300E94F32EDC01CB018093320344
S1133DD090933303A0933403B09335036A96E6E0DB
S1133DE00C940534A2E0B0E0E8EFFEE10C94E73374
S1133DF09A83898389819A818F5A9F4FFC0190818C
S1133E0081E08927882309F01BC189819A811CD10B
S1133E10DC01CB0129813A812E5B3F4FF90180837C
S1133E209183A283B38389819A818E5A9F4FFC0127
S1133E30808191810297DCF489819A818E5A9F4F07
S1133E4021E030E0FC013183208389819A818E5BFB
S1133E509F4FFC0180819181A281B38129813A81A4
S1133E60265B3F4FF90180839183A283B38382E26F
S1133E7093E0FC018081882389F40E94F32EDC0105
S1133E80CB018093360390933703A0933803B09308
S1133E90390382E293E021E0FC0120830E94F32EA7
S1133EA09B01AC018091360390913703A0913803B4
S1133EB0B091390379018A01E81AF90A0A0B1B0B3C
S1133EC0D801C70121E081369A4EA105B10508F455
S1133ED020E0222309F44CC089819A81B5D0DC0109
S1133EE0CB0129813A812E5B3F4FF9018083918375
S1133EF0A283B38389819A81865B9F4FFC01808171
S1133F009181A281B38129813A812E5B3F4FF901CE
S1133F102081318142815381BC01CD010E947B28E3
S1133F20DC01CB0129813A81265B3F4FF901808373
S1133F309183A283B38389819A818E5A9F4FFC0116
S1133F40808191819C012F5F3F4F89819A818E5A94
S1133F509F4FFC01318320830E94F32EDC01CB01AF
S1133F608093360390933703A0933803B0933903B7
S1133F7089819A81865B9F4FFC01C080D180E28059
S1133F80F38089819A818E5A9F4FFC0180819181AF
S1133F90092E000CAA0BBB0BBC01CD010E947E298B
S1133FA0DC01CB019C01AD01C701B6010E94E328ED
S1133FB0DC01CB0129813A812A5B3F4FF9018083DF
S1133FC09183A283B38389819A818A5B9F4FFC0189
S1133FD080819181A281B38129813A812E5B3F4FF7
S1133FE0F9012081318142815381BC01CD010E94BC
S1133FF07B28DC01CB0120E030E040E050E4BC0150
S1134000CD010E94E328DC01CB0129813A812A5B9E
S11340103F4FF90180839183A283B38389819A817D
S11340208E5A9F4FFC01808191810B974CF08981BE
S11340309A818E5A9F4F21E030E0FC013183208326
S11340402296E8E00C940334A0E1B0E0EAE2F0E266
S11340500C94E933988B8F878AE293E0FC0180818A
S1134060882389F40E94F32EDC01CB0180933A0368
S113407090933B03A0933C03B0933D038AE293E007
S113408021E0FC0120830E94F32E9B01AC0180916E
S11340903A0390913B03A0913C03B0913D03790115
S11340A08A01E81AF90A0A0B1B0BD801C70121E09F
S11340B0853F9140A105B10508F420E0222309F4CD
S11340C075C08EE190E09A8389838F859889FC017D
S11340D006AD17AD98012F5F3F4F8F859889FC017E
S11340E037AF26AF8F859889FC01808191810E942A
S11340F0A32FAC012F853889C8010196880F991F19
S1134100820F931FFC01518340838F859889FC01A2
S113411026AD37AD89819A812817390729F48F850F
S11341209889FC0117AE16AE8F859889029629816D
S11341303A81B9010E949810DC01CB018B839C83E6
S1134140AD83BE8320E030E040EA5BE36B817C8199
S11341508D819E810E94322ADC01CB018F83988756
S1134160A987BA878F8598898C579F4FFC018081D6
S11341709181092E000CAA0BBB0BBC01CD010E943E
S11341807E29DC01CB012F81388549855A85BC0104
S1134190CD010E94322ADC01CB018B879C87AD873D
S11341A0BE878B859C85AD85BE8509C08F85988922
S11341B08E5B9F4FFC0180819181A281B381BC0100
S11341C0CD016096E6E00C940534A2E0B0E0EBEE9D
S11341D0F0E20C94ED339A83898389819A818F5A12
S11341E09F4F21E0FC01208389819A81815B9F4F4D
S11341F0FC018081918161E00E9425302296E2E0F9
S11342000C940934A2E0B0E0E8E0F1E20C94ED3360
S11342109A83898389819A818F5A9F4FFC011082E6
S113422089819A81815B9F4FFC018081918160E04B
S11342300E94253068EE73E080E090E00E94242F15
S11342402296E2E00C940934A2E0B0E0EAE2F1E262
S11342500C94ED339A83898389819A8118D02296AC
S1134260E2E00C940934A4E0B0E0E9E3F1E20C9458
S1134270ED339A8389837C836B832B813C81898191
S11342809A81B90121D02496E2E00C940934A4E087
S1134290B0E0EDE4F1E20C94ED339C838B838B81ED
S11342A09C8131D0BC0181E090E09E012F5F3F4FA3
S11342B0820F931F42E050E00E94001589819A8189
S11342C02496E2E00C940934A4E0B0E0EAE6F1E2DA
S11342D00C94ED339A8389837C836B8389819A81DF
S11342E012D0BC0181E090E02B813C81820F931FAE
S11342F042E050E00E94371589819A8104D02496C7
S1134300E2E00C940934A2E0B0E0E9E8F1E20C94B4
S1134310ED339A83898389819A812296E2E00C9411
S11343200934A2E0B0E0E7E9F1E20C94ED339A83BA
S1134330898389819A81FC01848195812296E2E0B6
S11343400C940934A4E0B0E0E8EAF1E20C94ED3313
S11343509A8389837C836B832B813C8189819A81B5
S1134360B9010E94063289819A812496E2E00C9474
S11343700934A4E0B0E0EFEBF1E20C94ED339A835E
S113438089837C836B832B813C8189819A81B901E8
S11343900E944E322496E2E00C940934A8E0B0E086
S11343A0E4EDF1E20C94ED339A8389837C836B838F
S11343B05E834D8338872F832F8138854D815E81BD
S11343C06B817C8189819A810E94B1322896E2E0D6
S11343D00C940934A4E0B0E0E0EFF1E20C94ED3386
S11343E09A8389837C836B8389819A812B813C8125
S11343F0B9010E940C312496E2E00C940934A0E047
S1134400B0E0E5E0F2E20C94ED3389E893E0BC011E
S113441086E595E00E949D2C4AE050E068E086E540
S113442095E00E94B32D68E087E992E00E944A0477
S11344306AED73E287E992E00E94BD0560EE72E2E4
S113444087E992E00E94A905E2E00C940934A4E310
S1134450B0E0EDE2F2E20C94ED3390915C0381E084
S11344608927882339F08DE391E090930D0180939F
S11344700C0106C080E491E090930D0180930C013F
S113448080915D0390915E03A0915F03B0916003FE
S113449028EE33E040E050E0BC01CD010E94B1338E
S11344A0DA01C90189839A83AB83BC8389819A81A8
S11344B0AB81BC81FE01759620E0AC01BD01CF014A
S11344C00E9453319E012B5E3F4FCE014B96B901A2
S11344D081DFCE014B9664E471E00E9437329C0187
S11344E0CE018196B9010E940C31CE014B960E94F7
S11344F0471ACE0145960E947C30CE01819611DF89
S1134500AC0160910A0170910B01CE01819620E00B
S113451030E044DF8091160190911701A0911801B9
S1134520B091190128EE33E040E050E0BC01CD0128
S11345300E94B133DA01C9018D839E83AF83B887AA
S11345408D819E81AF81B885FE01399620E0AC0152
S1134550BD01CF010E9453319E01275F3F4FCE0121
S11345600F96B90137DFCE010F9664E471E00E9423
S113457037329C01CE018796B9010E940C31CE01DD
S11345800F960E94471ACE0109960E947C30CE01F4
S11345908796C7DEAC016091080170910901CE01D4
S11345A0879620E030E0FADECE0187960E947C30C8
S11345B0CE0181960E947C30E496E2E00C940934AA
S11345C0A7E2B0E0E6EEF2E20C94EC339FA38EA3F4
S11345D06CE371E08EE393E00E9414316CE371E0CC
S11345E08AE493E00E9414316CE371E080E593E087
S11345F00E9414318EA19FA1449709F0C7C00AC03C
S113460087E992E00E94F004898369818EE393E054
S11346100E94143287E992E00E94D80421E018161F
S113462019060CF020E0222359F78EE393E00E9450
S11346302333CE01449666E471E00E94E330CE0158
S11346404496BC018EE393E00E94913211E08823EA
S113465009F410E0CE0144960E947C301123A1F0AD
S11346606EE373E08AE493E00E94F73082E993E01A
S1134670BC0186E595E00E949D2C6AE473E086E522
S113468095E00E94E92C92C06EE373E080E593E02C
S11346900E94F73088E993E0BC0186E595E00E942A
S11346A09D2C60E573E086E595E00E94E92CCE013F
S11346B00E9660E573E00E940C31CE014A96BE016D
S11346C0625F7F4F20E030E04DE301D2CE010E96D1
S11346D00E947C30CE01089660E573E00E940C31A4
S11346E0CE018096BE01685F7F4F21E030E04DE34C
S11346F0EED1CE0108960E947C30CE014A9668E441
S113470071E037DE982F81E0992309F480E0882353
S113471089F0CE0180960E947A33DC01CB019B8321
S11347208A838091B5019091B6012A813B81B901B8
S113473012DA23C0CE014A9662E571E01ADE982FA0
S113474081E0992309F480E08823B9F0CE018096B2
S11347500E948433DC01CB018C839D83AE83BF83B1
S11347602091B3013091B4018C819D81AE81BF81D0
S1134770AC01BD01C9010E94F716CE0180960E94CA
S11347807C30CE014A960E947C3010C082EA93E0CD
S1134790BC0186E595E00E949D2C8EA19FA14AE074
S11347A050E0BC0186E595E00E94922DA796E3E0D7
S11347B00C940834AEE1B0E0E0EEF3E20C94EB3399
S11347C0CE0149966CE371E00E94E33066E471E047
S11347D08AE493E0CEDD982F81E0992309F480E008
S11347E08823C1F0CE0149966BE571E00E94143133
S11347F09E01275E3F4FCE014396B9010E940C31C2
S1134800CE01439614D1CE0143960E947C3000E041
S113481010E001C1809106019091070101969093E7
S11348200701809306018091060190910701892B6D
S113483069F48091B3019091B4019C012F573F4FCB
S1134840CE014996B9010E94F730D5C08091060186
S113485090910701019769F48091B3019091B4019B
S11348609C0129573F4FCE014996B9010E94F73068
S1134870C2C08091060190910701029769F480916A
S1134880B5019091B6019C0128583F4FCE0149963D
S1134890B9010E94F730AFC08091060190910701E1
S11348A0039769F48091B5019091B6019C01225857
S11348B03F4FCE014996B9010E94F7309CC08091C8
S11348C0060190910701049711F58091B30190912D
S11348D0B40183579F4FFC0180819181A281B381F0
S11348E0FE013D9622E0AC01BD01CF010E94AC3136
S11348F0CE010D960E945B149C01CE014996B9012C
S11349000E941431CE010D960E947C3074C08091B7
S11349100601909107010597F1F48091B5019091FA
S1134920B6018C579F4FFC0120813181CE0107963F
S11349304AE0B9010E942931CE0107960E945B1416
S11349409C01CE014996B9010E941431CE0107960B
S11349500E947C3050C08091060190910701069717
S113496051F420910C0130910D01CE014996B90109
S11349700E94143140C0809106019091070107976D
S113498051F420910A0130910B01CE014996B901ED
S11349900E94143130C0809106019091070108975C
S11349A081F42091080130910901CE014996B901A1
S11349B00E9414318FEF9FEF9093070180930601BB
S11349C01AC088EC93E0BC0186E595E0B6D78091E7
S11349D00601909107014AE050E0BC0186E595E0AC
S11349E00E94922D8FEF9FEF909307018093060111
S11349F000E010E010C0CE014996BC01CE01019642
S1134A000E940C31CE01019612D0CE0101960E9473
S1134A107C3001E010E0CE0149960E947C300130E8
S1134A20110509F400006E96E4E00C940734A2E149
S1134A30B0E0EDE1F5E20C94ED339A8B898B898932
S1134A409A896FDC9C018AE090E0821B930B9E8321
S1134A508D831A8219820AC089899A8961E671E074
S1134A6071DC89819A8101969A83898329813A81AB
S1134A708D819E81281739077CF31C821B8216C006
S1134A802B813C8189899A89B9010E94B032482FCF
S1134A909E01295F3F4F8B819C81820F931FFC01F4
S1134AA040838B819C8101969C838B838B819C8129
S1134AB00A9734F3CE0107964AE050E0BC0187E937
S1134AC092E00E9498046296E2E00C940934A1E119
S1134AD0B0E0EDE6F5E20C94ED339C878B877E879E
S1134AE06D874F87398B288B1A82198218861F820B
S1134AF08FEF9FEF9A8789878D859E8512DC0197BA
S1134B009E838D831C821B8235C02B813C818D85C5
S1134B109E85B9010E94B032982F8F85981739F07D
S1134B202B813C818D819E812817390711F481E006
S1134B3001C080E08823C9F089819A8101969A8313
S1134B40898389859A85019698878F832B813C81F7
S1134B508D819E812817390721F48B819C810196D0
S1134B6002C08B819C819A8789878B819C81019665
S1134B709C838B832B813C818D819E81821793073B
S1134B8044F029813A8188899989821793070CF026
S1134B90BCCF29813A8188899989821793076CF45B
S1134BA089859A859C018F819885AC018B859C852C
S1134BB06D857E850E94DF3206C08B859C856CE303
S1134BC071E00E94E33000008B859C856196E2E0F1
S1134BD00C940934A4E0B0E0E0EFF5E20C94ED337A
S1134BE09A8389837C836B8389819A81019711F5E8
S1134BF08B819C810196F1F46CE371E08EE393E088
S1134C000E94E3306CE371E084E493E00E94E330BB
S1134C106CE371E08AE493E00E94E3306CE371E0BA
S1134C2080E593E00E94E3306CE371E086E593E075
S1134C300E94E33089819A81892BC1F48B819C8104
S1134C400196A1F486E593E00E947C3080E593E030
S1134C500E947C308AE493E00E947C3084E493E0F8
S1134C600E947C308EE393E00E947C302496E2E044
S1134C700C940934A0E0B0E0E0E4F6E20C94ED33E7
S1134C806FEF7FEF81E090E0A5DFE2E00C94093460
S1134C90A0E0B0E0EEE4F6E20C94ED336FEF7FEFCA
S1134CA080E090E097DFE2E00C940934A2E0B0E009
S1134CB0ECE5F6E20C94ED339A83898389819A8139
S1134CC089579F4F0E947C3089819A818F579F4FCB
S1134CD00E947C3089819A818E5B9F4F0E9488124A
S1134CE02296E2E00C940934A2E0B0E0EAE7F6E2AE
S1134CF00C94ED339A83898389819A8182589F4FDA
S1134D000E947C3089819A8188589F4F0E947C3010
S1134D102296E2E00C940934A0E0B0E0E2E9F6E285
S1134D200C94ED3390915C0381E0892780935C03BC
S1134D3080915C03882341F085E893E00E94351B51
S1134D4086E194E042DA07C086E194E05BDA85E824
S1134D5093E00E94181BE2E00C940934ACE4B0E048
S1134D60E4EBF6E20C94E9339E01275B3F4FF90133
S1134D7091838083CE01855B9F4FFC0171836083A7
S1134D80CE01875B9F4FFC0180819181019709F0DF
S1134D9044C0CE01855B9F4FFC01808191810196C7
S1134DA0E1F581E693E00E94260F00911201109133
S1134DB0130121E633E0CE018596B9010E9406165F
S1134DC080910E0190910F019E012B5D3F4F780160
S1134DD0890121E040ED57E0BC0185E893E00E94A1
S1134DE03816009114011091150181E693E0BC017D
S1134DF0CE0101960E940616809110019091110136
S1134E0078019E012F5F3F4F890121E048EE53E076
S1134E10BC0186E194E00E94FC1CCE01875B9F4F9D
S1134E20FC0180819181892B71F4CE01855B9F4FB8
S1134E30FC0180819181019631F486E194E054DF94
S1134E4085E893E033DFC45BDF4FE6E00C94053480
S1134E50A0E0B0E0EEE2F7E20C94ED336FEF7FEF09
S1134E6081E090E07BDFE2E00C940934A0E0B0E064
S1134E70ECE3F7E20C94ED336FEF7FEF80E090E02A
S1134E806DDFE2E00C940934A6E0B0E0EAE4F7E276
S1134E900C94ED339A8389834B835C836D837E8387
S1134EA08B819C81AD81BE81E981FA8126E0AC01D0
S1134EB0BD01CF0103D42696E2E00C940934A2E0AC
S1134EC0B0E0E5E6F7E20C94ED339A83898381E060
S1134ED02296E2E00C940934A0E0B0E0E2E7F7E2C5
S1134EE00C94ED3340E051EE60E070E086E595E02F
S1134EF0CBDF000086E595E0E2DF982F81E089278B
S1134F008823C1F789E090E088709927892B11F0F4
S1134F1088E201C088E099E09770892B982F88E196
S1134F200FB6F894A895809360000FBE909360002C
S1134F3066DA8091B3019091B4010E94181B25ECAC
S1134F4037E248EE53E060E070E08CE994E00E94C0
S1134F50D80DE2E00C940934A0E0B0E0E2EBF7E213
S1134F600C94ED338CE994E00E94880B8091B3019A
S1134F709091B4010E94571A8091B5019091B601A5
S1134F800E94261EE2E00C940934A0E0B0E0EBECB1
S1134F90F7E20C94E933A8958AE495E0FC0180815A
S1134FA0882381F420D7DC01CB01809352059093B0
S1134FB05305A0935405B09355058AE495E021E088
S1134FC0FC0120838091B1019091B2010E94BB0F3A
S1134FD0982F81E0943009F080E0882391F083EEEB
S1134FE093E0BC0186E595E0E4D496DEFCD6DC01D2
S1134FF0CB018093520590935305A0935405B0932D
S11350005505F1D69B01AC01809152059091530551
S1135010A0915405B091550579018A01E81AF90A5D
S11350200A0B1B0BD801C70180935D0390935E03A9
S1135030A0935F03B09360030ADA20915D0330917B
S11350405E0340915F03509160038091160190913B
S11350501701A0911801B091190182179307A407B1
S1135060B50764F459DEBFD6DC01CB018093520549
S113507090935305A0935405B093550580915C0318
S1135080882339F08091B5019091B6010E94F21EF7
S113509006C08091B3019091B4010E948217E6E0AA
S11350A00C940534A4E0B0E0E8E5F8E20C94ED33A8
S11350B09A8389837C836B8389819A81019741F4E4
S11350C08B819C81019621F48CE994E00E94220B4F
S11350D02496E2E00C940934A0E0B0E0E2E7F8E2C0
S11350E00C94ED336FEF7FEF81E090E0DBDFE2E0E3
S11350F00C9409345058BB27AA270ED075C166D129
S113510030F06BD120F031F49F3F11F41EF45BC1F9
S11351100EF4E095E7FB51C1E92F77D180F3BA177C
S1135120620773078407950718F071F49EF58FC121
S11351300EF4E0950B2EBA2FA02D0B01B9019001AE
S11351400C01CA01A0011124FF27591B99F0593FF2
S113515050F4503E68F11A16F040A22F232F342F3A
S11351604427585FF3CF469537952795A795F04088
S11351705395C9F77EF41F16BA0B620B730B840B9D
S1135180BAF09150A1F0FF0FBB1F661F771F881F55
S1135190C2F70EC0BA0F621F731F841F48F48795AD
S11351A077956795B795F7959E3F08F0B3CF93959C
S11351B0880F08F09927EE0F979587950895D9D011
S11351C008F481E008950CD00FC107D140F0FED05F
S11351D030F021F45F3F19F0F0C0511139C1F3C030
S11351E014D198F39923C9F35523B1F3951B550BA7
S11351F0BB27AA2762177307840738F09F5F5F4FA6
S1135200220F331F441FAA1FA9F333D00E2E3AF0E6
S1135210E0E830D091505040E695001CCAF729D000
S1135220FE2F27D0660F771F881FBB1F261737074F
S11352304807AB07B0E809F0BB0B802DBF01FF277F
S113524093585F4F2AF09E3F510568F0B6C000C1E5
S11352505F3FECF3983EDCF3869577956795B795B9
S1135260F7959F5FC9F7880F911D9695879597F9D4
S11352700895E1E0660F771F881FBB1F621773074D
S11352808407BA0720F0621B730B840BBA0BEE1F62
S113529088F7E095089504D06894B111D9C00895B1
S11352A0BCD088F09F5790F0B92F9927B751A0F040
S11352B0D1F0660F771F881F991F1AF0BA95C9F7A6
S11352C012C0B13081F0C3D0B1E00895C0C0672FDF
S11352D0782F8827B85F39F0B93FCCF38695779556
S11352E06795B395D9F73EF490958095709561953F
S11352F07F4F8F4F9F4F0895E89409C097FB3EF46A
S113530090958095709561957F4F8F4F9F4F99230E
S1135310A9F0F92F96E9BB279395F695879577958C
S11353206795B795F111F8CFFAF4BB0F11F460FF4C
S11353301BC06F5F7F4F8F4F9F4F16C0882311F0A4
S113534096E911C0772321F09EE8872F762F05C0B8
S1135350662371F096E8862F70E060E02AF09A9553
S1135360660F771F881FDAF7880F9695879597F948
S11353700895990F0008550FAA0BE0E8FEEF1616E2
S11353801706E807F907C0F012161306E407F50735
S113539098F0621B730B840B950B39F40A2661F0A9
S11353A0232B242B252B21F408950A2609F4A1404C
S11353B0A6958FEF811D811D089597F99F6780E859
S11353C070E060E008959FEF80EC089500240A9453
S11353D01616170618060906089500240A941216CC
S11353E01306140605060895092E0394000C11F4FF
S11353F0882352F0BB0F40F4BF2B11F460FF04C0AC
S11354006F5F7F4F8F4F9F4F089557FD9058440F04
S1135410551F59F05F3F71F04795880F97FB991F0F
S113542061F09F3F79F087950895121613061406CC
S1135430551FF2CF4695F1DF08C016161706180659
S1135440991FF1CF86957105610508940895E89434
S1135450BB2766277727CB0197F908958ADF08F4DD
S11354608FEF08950BD0C0CFB1DF28F0B6DF18F06E
S1135470952309F0A2CFA7CF1124EACFC6DFA0F36A
S1135480959FD1F3950F50E0551F629FF001729FD5
S1135490BB27F00DB11D639FAA27F00DB11DAA1FF4
S11354A0649F6627B00DA11D661F829F2227B00D41
S11354B0A11D621F739FB00DA11D621F839FA00DCC
S11354C0611D221F749F3327A00D611D231F849F1C
S11354D0600D211D822F762F6A2F11249F57504073
S11354E08AF0E1F088234AF0EE0FFF1FBB1F661F0E
S11354F0771F881F91505040A9F79E3F510570F0C7
S11355005CCFA6CF5F3FECF3983EDCF386957795AE
S11355106795B795F795E7959F5FC1F7FE2B880FC1
S1135520911D9695879597F9089523DF880B990B1C
S113553008950E948837FC01918D228D892F90E077
S1135540805C9F4F821B91098F7399270895FC01FA
S1135550918D828D981731F0828DE80FF11D858D24
S113556090E008958FEF9FEF0895FC01918D828D57
S1135570981761F0828DDF01A80FB11D5D968C91A3
S1135580928D9F5F9F73928F90E008958FEF9FEFAE
S1135590089589E19CE2892B41F080E090E0892B19
S11355A021F047D181110C9400000895FC01848DF1
S11355B0DF01A80FB11DA35ABF4F2C91848D90E039
S11355C001968F739927848FA689B7892C93A08914
S11355D0B1898C9180648C93938D848D981306C0CB
S11355E00288F389E02D80818F7D80830895CF9395
S11355F0DF93EC01888D8823C1F0EA89FB898081DF
S113560085FD05C0A889B9898C9186FD0EC00FB6A9
S113561007FCF5CF808185FFF2CFA889B9898C91E9
S113562085FFEDCFCE01C2DFE8CFDF91CF910895A2
S1135630EF92FF920F931F93CF93DF93EC0181E0DE
S1135640888F9B8D8C8D981305C0E889F98980819A
S113565085FD23C0F62E0B8D10E00F5F1F4F0F73D7
S11356601127E02E8C8DE8120BC00FB607FCFACF81
S1135670E889F989808185FFF5CFCE0197DFF2CFE4
S11356808B8DFE01E80FF11DE35AFF4FF0820B8F63
S1135690EA89FB898081806207C0EE89FF89608383
S11356A0E889F98980818064808381E090E0DF91DA
S11356B0CF911F910F91FF90EF900895CF92DF92B9
S11356C0EF92FF921F93CF93DF93EC016A017B016A
S11356D0122FE889F98982E080834115514E6105D2
S11356E07105B1F060E079E08DE390E0A7019601E7
S11356F00E948F33DA01C9010197A109B109B69556
S1135700A79597958795AC01411580E15807A0F0BE
S1135710E889F989108260E874E88EE190E0A701D5
S11357209601FDD7BA01A9014150510961097109D6
S11357307695679557954795EC85FD855083EE855D
S1135740FF854083188EEC89FD891083EA89FB89E3
S1135750808180618083EA89FB898081886080837D
S1135760EA89FB89808180688083EA89FB8980815A
S11357708F7D8083DF91CF911F91FF90EF90DF9019
S1135780CF9008951F920F920FB60F9211242F936A
S11357908F939F93EF93FF93E0916605F0916705D4
S11357A08081E0916C05F0916D0582FD12C09081BD
S11357B080916F058F5F8F7320917005821751F070
S11357C0E0916F05F0E0EA5AFA4F958F80936F05E8
S11357D001C08081FF91EF919F918F912F910F9044
S11357E00FBE0F901F9018951F920F920FB60F9235
S11357F011242F933F934F935F936F937F938F93D2
S11358009F93AF93BF93EF93FF9386E595E0CEDE2E
S1135810FF91EF91BF91AF919F918F917F916F9184
S11358205F914F913F912F910F900FBE0F901F905A
S1135830189586E595E07FDE21E0892B09F420E0C8
S1135840822F0895E6E5F5E01382128288EE93E054
S1135850A0E0B0E084839583A683B7838BEB91E0CB
S11358609183808385EC90E09587848784EC90E035
S11358709787868780EC90E0918B808B81EC90E019
S1135880938B828B82EC90E0958B848B86EC90E0FA
S1135890978B868B118E128E138E148E0895089515
S11358A017D3FDDF19DBC9ECDAE256DB2097E9F305
S11358B070DEFBCFE7C70C94D734CF92DF92EF9220
S11358C0FF920F931F93CF93DF936C017A018B01A7
S11358D0C0E0D0E0CE15DF0589F0D8016D918D01CF
S11358E0D601ED91FC910190F081E02DC60109955E
S11358F0892B11F47E0102C02196ECCFC701DF9100
S1135900CF911F910F91FF90EF90DF90CF9008956A
S11359106115710579F0FB0101900020E9F73197D9
S1135920AF01461B570BDC01ED91FC910280F38122
S1135930E02D099480E090E00895EF92FF920F9398
S11359401F93CF93DF938C017B01C0E0D0E0F7017C
S1135950EC0FFD1F6491662361F0D801ED91FC9179
S11359600190F081E02DC8010995892B11F0219651
S1135970EECFCE01DF91CF911F910F91FF90EF9069
S11359800895DC01ED91FC91DB0114964D915C913D
S113599015976D917C910280F381E02D0994DC01CF
S11359A0ED91FC910190F081E02D099467EC71E098
S11359B0AFCF0F931F93CF93DF93EC01BEDF8C0126
S11359C0CE01F4DF800F911FDF91CF911F910F91D2
S11359D008950F931F93CF93DF93EC01D2DF8C01D3
S11359E0CE01E4DF800F911FDF91CF911F910F91C2
S11359F008958F929F92AF92BF92CF92DF92EF92CF
S1135A00FF920F931F93CF93DF93CDB7DEB7A19788
S1135A100FB6F894DEBF0FBECDBF7C01D42EC52EC9
S1135A20DB0119A2223008F42AE08E010F5D1F4F1A
S1135A30822E912CA12CB12C6D2D7C2DCD01A50194
S1135A4094016DD6D22EC32EDA01015011096A30A9
S1135A5071058105910510F4605D01C0695CF80170
S1135A606083232B242B252B39F7B801C70150DF82
S1135A70A1960FB6F894DEBF0FBECDBFDF91CF91D4
S1135A801F910F91FF90EF90DF90CF90BF90AF9058
S1135A909F908F900895CF92DF92EF92FF920F9391
S1135AA01F93CF93DF93EC016A017B01211531052C
S1135AB079F4E881F9810190F081E02D642FDF9180
S1135AC0CF911F910F91FF90EF90DF90CF900994A9
S1135AD02A303105D9F477FF18C06DE260DF8C01FC
S1135AE044275527BA014C195D096E097F092AE03C
S1135AF0CE017FDF800F911FDF91CF911F910F9116
S1135B00FF90EF90DF90CF9008952AE0B701A601AF
S1135B10CE01DF91CF911F910F91FF90EF90DF9015
S1135B20CF9067CF0F931F93CF93DF93EC019A012C
S1135B30AB01770F660B770BAEDF8C01CE0136DF3E
S1135B40800F911FDF91CF911F910F91089521151F
S1135B50310541F4DC01ED91FC910190F081E02DDF
S1135B60642F099446CF0F931F93CF93DF93EC01D7
S1135B709A01462F50E060E070E0E9DF8C01CE012D
S1135B8015DF800F911FDF91CF911F910F91089521
S1135B904F925F926F927F928F929F92AF92BF9239
S1135BA0CF92DF92EF92FF92CF93DF93EC016A01E1
S1135BB07B01B22E9A01AB01C701B601B6DC882382
S1135BC019F06AEC71E024C026013701E89477F8F3
S1135BD02FEF3FEF4FE75FE7C301B201A6DC81116E
S1135BE00CC02FEF3FEF4FE75FE7C301B201E7DAE5
S1135BF018161CF46EEC71E00BC02FEF3FEF4FE76B
S1135C005FE4C701B6012ADC181694F462ED71E072
S1135C10CE01DF91CF91FF90EF90DF90CF90BF90B6
S1135C20AF909F908F907F906F905F904F9070CEC9
S1135C302FEF3FEF4FE75FECC701B601C0DA87FDF6
S1135C40E5CF20E030E0A901C701B601B8DA87FF4B
S1135C5009C06DE2CE01A3DE4C01F7FAF094F7F827
S1135C60F09402C0812C912CA12C60E070E080E0C3
S1135C709FE3AB1439F020E030E040E251E4A3DAD2
S1135C80A394F7CF9B01AC01C701B60134DA2B0111
S1135C903C0106DB6B017C012FDB9B01AC01C301E2
S1135CA0B20128DA2B013C012AE0B701A601CE019A
S1135CB0A0DE7C01E80CF91CBB2031F066ED71E03C
S1135CC0CE0126DEE80EF91EDB2CDD2011F120E0EA
S1135CD030E040E251E4C301B201C4DB2B013C01DA
S1135CE0DADA4B01770FAA08BB082AE030E0B501E5
