:100000003AC2000060C200005EC2000035C60000B7
:1000100033C6000031C6000056C2000054C20000C2
:1000200052C2000050C200004EC200004CC200008C
:100030004AC2000048C2000046C2000044C200009C
:100040000C94B12A40C200000C94CB270C94FD27DD
:100050003AC2000038C2000036C2000034C20000BC
:1000600091C2000030C20000C703CA03CA03CA031A
:10007000CA03CA03CA03CA03E202CA03CA03CA0301
:10008000CA03CA03CA03CA03E202CA03CA03CA03F1
:10009000CA03CA03CA03CA03EA02CA03CA03CA03D9
:1000A000CA03CA03CA03CA030F03CA03CA03CA03A3
:1000B000CA03CA03CA03CA03EA02CA03CA03CA03B9
:1000C000CA03CA03CA03CA031403CA03CA03CA037E
:1000D000CA03CA03CA03CA031903CA03CA03CA0369
:1000E000CA03CA03CA03CA032A03CA03CA03CA0348
:1000F000CA03CA03CA03CA035303CA03CA03CA030F
:10010000CA03CA03CA03CA031E03CA03CA03CA0333
:10011000CA03CA03CA03CA033803CA03CA03CA0309
:10012000CA03CA03CA03CA035503CA03CA03CA03DC
:10013000CA03CA03CA03CA035503CA03CA03CA03CC
:10014000CA03CA03CA03CA035503CA03CA03CA03BC
:10015000CA03CA03CA03CA035503CA03CA03CA03AC
:10016000CA03CA03CA03CA035E03CA03CA03CA0393
:10017000CA03CA03CA03CA038E03CA03CA03CA0353
:10018000CA03CA03CA03CA035E03CA03CA03CA0373
:10019000CA03CA03CA03CA038E03CA03CA03CA0333
:1001A000CA03CA03CA03CA037603CA03CA03CA033B
:1001B000CA03CA03CA03CA039203CA03CA03CA030F
:1001C000CA03CA03CA03CA039203CA03CA03CA03FF
:1001D000CA03CA03CA03CA03A703CA03CA03CA03DA
:1001E000CA03CA03CA03CA03C103CA03CA03CA03B0
:1001F000CA03CA03CA03CA03C1034E414E494E494A
:100200005459494E46CDCCCC3D0AD7233C17B7D1E3
:100210003877CC2B329595E6241FB14F0A00002089
:10022000410000C84200401C4620BCBE4CCA1B0E08
:100230005AAEC59D7400407A10F35A00A0724E1851
:10024000090010A5D4E80000E87648170000E40B88
:1002500054020000CA9A3B000000E1F5050000804E
:10026000969800000040420F000000A086010000A8
:1002700000102700000000E80300000000640000F8
:100280000000000A00000000000100000000002C37
:1002900076D888DC674F0823DFC1DFAE59E1B1B7FC
:1002A00096E5E3E453C63AE651997696E8E6C284C9
:1002B00026EB898C9B62ED407C6FFCEFBC9C9F40E1
:1002C000F2BAA56FA5F490055A2AF75C936B6CF906
:1002D000676DC11BFCE0E40D47FEF520E6B500D0DC
:1002E000ED902E0300943577050080841E080000F1
:1002F000204E0A000000C80C333333330F986E12BF
:10030000831141EF8D2114893BE65516CFFEE6DBC4
:1003100018D1844B381BF77C1D901DA4BBE424200E
:100320003284725E228100C9F124ECA1E53D2720D0
:1003300020202020202020202020202020202000DD
:1003400073616D706C696E6754696D653A20005F0A
:100350007048486F7572417665726167652E736982
:100360007A653A20005F7048486F75724172726119
:1003700079496E6465783A20005F70484176675627
:10038000616C75653A20005F704856616C75653A1E
:1003900020004572726F72206E756D626572206604
:1003A0006F722074686520617272617920746F20A9
:1003B0006176726167696E67212F6E004572726F98
:1003C00072206E756D62657220666F72207468654A
:1003D00020617272617920746F2061767261676941
:1003E0006E67212F6E00556E657870656374656465
:1003F000206E756D626572206F6620627974657318
:100400002072656365697665643A20000000000823
:1004100000020100000304070000000000000000CB
:10042000010204081020408001020408102001028B
:100430000408102004040404040404040202020258
:10044000020203030303030300000000230026004D
:10045000290000000000250028002B0000000000FB
:10046000240027002A00F405920C5F23D023762471
:100470002B286D23DE2311241FBECFEFD8E0DEBF73
:10048000CDBF11E0A0E0B1E0EAEBFBE602C00590D1
:100490000D92A63EB107D9F726E0A6EEB1E001C065
:1004A0001D92A030B207E1F712E0C9E3D2E004C028
:1004B0002197FE010E94312FC333D107C9F70E9453
:1004C00059280C94D1359CCD1092530281E0809331
:1004D00051021092500261E082E10E942D2C61E0F5
:1004E00083E10E942D2CE9EBF0E080818E7F8083F8
:1004F00080818D7F808388E48093B80085E4809339
:10050000BC000895880F8093BA0008956132C8F442
:10051000209153022430B9F4609308026623A9F0B5
:10052000FC01AAE0B2E06150262F30E02F5F3F4F80
:10053000280F391F91919D93E217F307D9F780E0B7
:10054000089581E0089582E0089580E008959093F1
:100550004D0280934C02089590934F0280934E0277
:10056000089585ED8093BC00ECEBF0E0808184FD84
:10057000FDCF10925302089585EC8093BC00109239
:10058000530208951F920F920FB60F9211242F93CA
:100590003F934F935F936F937F938F939F93AF930B
:1005A000BF93EF93FF938091B900E82FE87F8E2FE0
:1005B00090E0893C910508F0EDC0FC01EC5CFF4F38
:1005C0000C94312F809152028093BB0085EC809374
:1005D000BC00E0C090912B0280912A02981780F411
:1005E000E0912B0281E08E0F80932B02F0E0E45D1E
:1005F000FD4F80818093BB0085EC8093BC00CAC016
:1006000080915102882311F0ACDFC4C081E0809357
:10061000500284EA8093BC0010925302BBC080E277
:100620008093E6019EDFB6C080E38093E60199DF08
:10063000B1C088E38093E6019FDFACC0E0912B025C
:1006400081E08E0F80932B028091BB00F0E0E45D8F
:10065000FD4F808390912B0280912A02981720F4FD
:1006600085EC8093BC0096C085E88093BC0092C066
:10067000E0912B0281E08E0F80932B028091BB00D2
:10068000F0E0E45DFD4F808380915102882311F0FA
:1006900068DF80C081E08093500284EA8093BC00D0
:1006A0001092530277C05DDF75C083E080935302E0
:1006B0001092E70185EC8093BC006CC08091E7014B
:1006C000803280F4E091E70181E08E0F8093E701B2
:1006D0008091BB00F0E0E851FE4F808385EC809371
:1006E000BC0058C085E88093BC0054C045DF8091B1
:1006F000E701803230F4E091E701F0E0E851FE4F8D
:1007000010826091E70170E0E0914C02F0914D029F
:1007100088EE91E009951092E7013CC085E880934E
:10072000BC0038C084E080935302109209021092FA
:100730000802E0914E02F0914F0209958091080263
:10074000811105C081E08093080210920A02E091B5
:10075000090281E08E0F80930902F0E0E65FFD4F11
:1007600080818093BB0090910902809108029817C4
:1007700020F485EC8093BC000DC085E88093BC001C
:1007800009C085EC8093BC001092530203C0109204
:10079000E601E7DEFF91EF91BF91AF919F918F91BD
:1007A0007F916F915F914F913F912F910F900FBE6D
:1007B0000F901F901895A4E0B0E0E1EEF3E00C94E8
:1007C000512F9A8389837C836B8389819A812B81C2
:1007D0003C81FC01338322832496E2E00C946D2F4C
:1007E000A2E0B0E0E6EFF3E00C94512F9A83898306
:1007F00089819A8122EE31E0FC0131832083898155
:100800009A81FC01138212822296E2E00C946D2FF1
:10081000A2E0B0E0EEE0F4E00C94512F9A838983DB
:1008200089819A81DDDF89819A8121E631E0FC01AD
:100830003183208329813A8188EE93E0A0E0B0E003
:10084000F90184839583A683B7832296E2E00C9412
:100850006D2FA2E0B0E0EFE2F4E00C94512F9A8308
:10086000898389819A81D4DF89819A8121E531E068
:10087000FC01318320832296E2E00C946D2FA2E0EC
:10088000B0E0E5E4F4E00C94512F9A838983109250
:10089000740210927502109296021092970214DE62
:1008A0002296E2E00C946D2FA3E0B0E0EAE5F4E0DC
:1008B0000C94512F9A8389836B838B8123DE89E982
:1008C00095E04ADE83E595E042DE89819A81D7DFB3
:1008D0002396E2E00C946D2FA3E0B0E0E2E7F4E0B1
:1008E0000C94512F9A8389836B838091980288237B
:1008F000F9F080919702803240F089819A8161E01D
:1009000070E059DF80E090E019C080919602882F56
:1009100090E02B818A589D4FFC01208380919602A4
:100920008F5F80939602809196028093970204C015
:10093000CE01039661E0EADD81E090E02396E2E0FB
:100940000C946D2FA8E0B0E0E8EAF4E00C94512F8D
:100950009C838B837E836D8358874F83809198021D
:10096000882329F11A8219821AC08B819C81FC018B
:1009700080819181FC01208131814D815E8189815D
:100980009A81840F951FFC0140818B819C81642F8B
:10099000F901099589819A8101969A838983298130
:1009A0003A818F81988528173907F8F205C02F8181
:1009B0008D819E81622FAADD8F8198852896E2E045
:1009C0000C946D2FA2E0B0E0E8EEF4E00C94512F0F
:1009D0009A83898380917502282F30E08091740278
:1009E000882F90E0A901481B590BCA012296E2E02A
:1009F0000C946D2FA4E0B0E0E0E0F5E00C94512FF2
:100A00009C838B838FEF9FEF9A83898390917402ED
:100A100080917502981788F480917402882F90E075
:100A20008C5A9D4FFC018081882F90E09A838983A6
:100A3000809174028F5F8093740289819A812496D9
:100A4000E2E00C946D2FA4E0B0E0E9E2F5E00C9454
:100A5000512F9C838B838FEF9FEF9A838983909193
:100A6000740280917502981760F480917402882F47
:100A700090E08C5A9D4FFC018081882F90E09A83F2
:100A8000898389819A812496E2E00C946D2FA2E0FB
:100A9000B0E0EDE4F5E00C94512F9A83898322961F
:100AA000E2E00C946D2FA5E0B0E0E9E5F5E00C94F0
:100AB000512F9B838A837D836C8380919B029091CD
:100AC0009C02892B09F431C09091740280917502C7
:100AD000981708F42AC0198213C08981882F90E0E2
:100AE0002981222F30E04A815B81240F351FF901D3
:100AF00020818C5A9D4FFC01208389818F5F8983DF
:100B00008981282F30E08C819D81281739072CF3AB
:100B1000109274028C818093750220919B02309117
:100B20009C028C819D81F90109952596E2E00C9447
:100B30006D2FA0E0B0E0EFE9F5E00C94512F80912B
:100B4000990290919A02892B09F40AC01092960298
:100B5000109297028091990290919A02FC01099556
:100B6000E2E00C946D2FA4E0B0E0E9EBF5E00C942A
:100B7000512F9A8389837C836B838B819C81909393
:100B80009C0280939B022496E2E00C946D2FA4E0DB
:100B9000B0E0EDECF5E00C94512F9A8389837C83CF
:100BA0006B838B819C8190939A0280939902249607
:100BB000E2E00C946D2FA4E0B0E0E1EEF5E00C94DF
:100BC000512F9A8389837C836B8389819A810197D2
:100BD00039F48B819C81019619F48DE992E039DE1C
:100BE0002496E2E00C946D2FA0E0B0E0EAEFF5E08F
:100BF0000C94512F6FEF7FEF81E090E0DCDFE2E0BB
:100C00000C946D2FA2E0B0E0E8E0F6E00C94512FD8
:100C100089836A832296E2E00C946D2FA4E0B0E011
:100C2000E4E1F6E00C94512F9C838B838B819C81B3
:100C30009A83898389819A810197F1F79A838983BD
:100C40002496E2E00C946D2FA2E0B0E0EAE2F6E038
:100C50000C94512F9A83898389819A81FC0186851E
:100C60009785FC01208189819A81FC0185858223F9
:100C70002296E2E00C946D2F1F920F9200905F007D
:100C80000F9211242F933F934F935F936F937F9312
:100C90008F939F93AF93BF93EF93FF93CF93DF9384
:100CA000CDB7DEB72B97DEBFCDBF8091A902909163
:100CB000AA02892B09F4F4C08091A9029091AA029A
:100CC0009A8389831B8289819A81FC01868D827037
:100CD000882349F089819A81B7DF982F81E0992391
:100CE00051F480E008C089819A81AEDF982F81E0BD
:100CF000992309F080E0882309F4D2C089819A8180
:100D00009D838C831E828E818823A1F08C819D819E
:100D1000FC01838994892C813D81F90123893489DF
:100D2000F90140812C813D81F9012589242BFC01A9
:100D3000208315C08C819D81FC01838994892C813D
:100D40003D81F90123893489F9012081422F2C81C9
:100D50003D81F901258920952423FC012083898187
:100D60009A81FC018689978959DF61E08DE04ADF2D
:100D700088E08F831FC089819A81FC01808D918DCD
:100D80004DDF8B81882F90E0959587958B8361E06F
:100D90008DE038DF89819A8157DF982F81E0992390
:100DA00009F480E0882319F08B8180688B838F8120
:100DB00081508F838F818823F1F689819A81FC018C
:100DC000868D8270882319F08B8180958B8380912A
:100DD000EB02882F90E001968F739078992324F48A
:100DE0000197806C9F6F019688879091EC0281E05B
:100DF0002885291709F480E0882369F08091EB02A7
:100E0000882F90E085559D4F2B81FC01208388859C
:100E10008093EB020AC061E08BE0F4DE89819A8165
:100E2000FC01268D2160FC01268F89819A81FC01BD
:100E3000828D938DF3DE61E08BE0E4DE89819A811F
:100E40009A87898781E08B878B858823A1F08985A4
:100E50009A85FC018389948929853A85F90123893A
:100E60003489F901408129853A85F9012589242BA6
:100E7000FC01208315C089859A85FC0183899489AA
:100E800029853A85F90123893489F9012081422F86
:100E900029853A85F901258920952423FC012083A1
:100EA0002B960FB6F894DEBF0FBECDBFDF91CF916A
:100EB000FF91EF91BF91AF919F918F917F916F9132
:100EC0005F914F913F912F910F9000925F000F9093
:100ED0001F9018958F92AF92CF92EF920F93CF936E
:100EE000DF93CDB7DEB728970FB6F894DEBF0FBEFD
:100EF000CDBF9A8389836B834C832D830E83EF82CE
:100F0000C88689819A816CDC89819A8121E731E0E8
:100F1000FC013183208389819A811F921F921F9245
:100F20001F928884AF80CE80ED800C812FEF4B81A3
:100F300061E012D00F900F900F900F9028960FB68F
:100F4000F894DEBF0FBECDBFDF91CF910F91EF9030
:100F5000CF90AF908F9008958F92AF92CF92EF92F3
:100F60000F93CF93DF93CDB7DEB72A970FB6F894E0
:100F7000DEBF0FBECDBF9A8389836B834C832D83E5
:100F80000E83EF82C886A9868A8689819A812C8100
:100F9000FC01248389819A812D81FC01258389812B
:100FA0009A812E81FC01268389819A812F81FC01FF
:100FB000278389819A812885FC01208789819A81EC
:100FC0002985FC01218789819A812A85FC01228754
:100FD00089819A812C89FC01238789819A812D89B5
:100FE000FC01248789819A812E89FC0125878981CA
:100FF0009A812F89FC0126878B81882329F089819A
:101000009A81FC01178605C089819A8120E1FC0143
:10101000278789819A8120E041E060E10ED02A96FD
:101020000FB6F894DEBF0FBECDBFDF91CF910F9109
:10103000EF90CF90AF908F900895A7E0B0E0E3E2FB
:10104000F8E00C944F2F9C838B836D834E832F830A
:101050008E81823050F08B819C81FC018785282F06
:1010600028608B819C81FC0127878B819C812E814C
:10107000FC01238B8D81882F90E0AC01405C5F4F99
:101080008D81282F30E08B819C818A0140E450E0E3
:1010900060E070E0E7D08F81882369F08E81813035
:1010A00051F48B819C81FC018785282F24608B81E2
:1010B0009C81FC0127878B819C81FC01848161E0FC
:1010C0000E94F12B8B819C81FC0185818F3F39F03F
:1010D0008B819C81FC01858161E00E94F12B8B81D9
:1010E0009C81FC01868161E00E94F12B1A821982A9
:1010F00011C02B813C8189819A81820F931F0796B1
:10110000FC01808161E00E94F12B89819A81019626
:101110009A8389838B819C81FC018785882F90E04D
:1011200080719927892B19F088E090E002C084E053
:1011300090E029813A8128173907DCF280E593ECA9
:101140000E94652B8B819C81FC01848160E00E9460
:101150002D2C8B819C81FC01868160E00E942D2CCE
:101160008B819C81FC0185818F3F39F08B819C8133
:10117000FC01858160E00E942D2C8B819C81FC010B
:101180008785882F90E080719927892BE9F48B81DE
:101190009C8163E091D184E991E10E94652B8B8170
:1011A0009C8163E089D184E991E10E94652B8B8168
:1011B0009C8163E081D186E990E00E94652B8B8160
:1011C0009C8162E079D126C08B819C81FC0187855E
:1011D000282F20628B819C81622FD6D084E991E1F7
:1011E0000E94652B8B819C81FC018785282F2062C2
:1011F0008B819C81622FC8D086E990E00E94652B8C
:101200008B819C81FC018785282F20628B819C81AA
:10121000622FBAD08B819C81FC018785282F2062A8
:101220008B819C81622FB0D08B819C8124E0FC015A
:10123000208B8B819C8188D08B819C813BD08B8142
:101240009C8122E0FC01218B8B819C81FC018189A6
:10125000282F24608B819C81622F96D02796E4E012
:101260000C946B2FAAE0B0E0E8E3F9E00C944F2F68
:101270009A8389837C836B835E834D8338872F8336
:101280001A8709872B8189819A81FC01248B2D8102
:1012900089819A81FC01258B2F8189819A81FC01AA
:1012A000268B298589819A81FC01278B2A96E4E087
:1012B0000C946B2FA2E0B0E0E0E6F9E00C94512F23
:1012C0009A83898389819A8161E05ED080ED97E07D
:1012D0000E94652B2296E2E00C946D2FA6E0B0E010
:1012E000E4E7F9E00C94512F9C838B836D834E834C
:1012F00084E090E09A8389838E81843010F083E0CB
:101300008E838B819C81FC0193898E81891730F0BB
:101310008B819C81FC01838981508E838E81882FF3
:1013200090E02B813C81820F931F4496FC019081B9
:101330008D81890F8068282F8B819C81622F24D01A
:101340002696E2E00C946D2FA2E0B0E0EAEAF9E024
:101350000C94512F9A83898389819A81FC01808919
:10136000282F246089819A81FC01208B89819A81B0
:10137000FC018089282F286089819A81622F04D0FE
:101380002296E2E00C946D2FA3E0B0E0EAECF9E0E5
:101390000C94512F9A8389836B8389819A8140E0D1
:1013A0006B8118D02396E2E00C946D2FA3E0B0E09F
:1013B000ECEDF9E00C94512F9A8389836B8389813A
:1013C0009A8141E06B8106D081E090E02396E2E0D3
:1013D0000C946D2FA4E0B0E0E0EFF9E00C94512FF5
:1013E0009A8389836B834C8389819A81FC018481F0
:1013F0006C810E942D2C89819A81FC0185818F3F0F
:1014000039F089819A81FC01858160E00E942D2C50
:1014100089819A81FC018785882F90E080719927C6
:10142000892B29F089819A816B8179D014C08B81B5
:10143000882F90E0959587959595879595958795B3
:1014400095958795282F89819A81622F35D089813A
:101450009A816B8131D02496E2E00C946D2FA2E04A
:10146000B0E0E5E3FAE00C94512F9A8389838981F7
:101470009A81FC01868160E00E942D2C81E090E041
:101480000E94652B89819A81FC01868161E00E941E
:101490002D2C81E090E00E94652B89819A81FC01CE
:1014A000868160E00E942D2C84E690E00E94652BEE
:1014B0002296E2E00C946D2FA5E0B0E0E2E6FAE0BF
:1014C0000C94512F9C838B836D831A8219821CC0CC
:1014D0008D81882F90E0098002C0959587950A94A8
:1014E000E2F7482F41702B813C8189819A81820FDC
:1014F000931F0796FC018081642F0E942D2C898107
:101500009A8101969A83898389819A81049704F349
:101510008B819C81A4DF2596E2E00C946D2FA5E0E1
:10152000B0E0E5E9FAE00C94512F9C838B836D8346
:101530001A8219821CC08D81882F90E0098002C018
:10154000959587950A94E2F7482F41702B813C814D
:1015500089819A81820F931F0796FC018081642FF5
:101560000E942D2C89819A8101969A838983898191
:101570009A81089704F38B819C8171DF2596E2E0C4
:101580000C946D2FA4E0B0E0E8ECFAE00C94512F3D
:101590009A8389837C836B832B813C8189819A81A7
:1015A000B90104D02496E2E00C946D2FA4E0B0E0E1
:1015B000ECEDFAE00C94512F9A8389837C836B8342
:1015C0008B819C819C012F5F3F4F89819A81B9015A
:1015D00050D0882359F089819A816BD09C018B81EE
:1015E0009C81820F931F0E94B23501C080E0249637
:1015F000E2E00C946D2FA5E0B0E0E1E0FBE00C949C
:10160000512F9A8389837C836B834D832B813C810B
:1016100089819A814D81B90104D02596E2E00C942C
:101620006D2FA5E0B0E0E7E1FBE00C94512F9A8329
:1016300089837C836B834D838B819C819C012F5F8D
:101640003F4F89819A81B90114D0882369F089813B
:101650009A812FD09C018B819C81820F931F6D8179
:101660000E94C33581E001C080E02596E2E00C9441
:101670006D2FA4E0B0E0EFE3FBE00C944F2F9A83D2
:1016800089837C836B8389819A8113D09C018B81B0
:101690009C818901080F191F89819A811BD021E043
:1016A0000817190708F020E0822F2496E4E00C9434
:1016B0006B2FA2E0B0E0EFE5FBE00C94512F9A8392
:1016C000898389819A81FC01808191812296E2E05F
:1016D0000C946D2FA2E0B0E0E0E7FBE00C94512FFA
:1016E0009A83898389819A81FC01828193812296E0
:1016F000E2E00C946D2FA0E0B0E0E1E8FBE00C9498
:10170000512F8DEE92E0FC018081882351F460E03E
:1017100070E087EF92E07BD08DEE92E021E0FC015B
:10172000208387EF92E0E2E00C946D2FA2E0B0E01E
:10173000ECE9FBE00C94512F9A8389832296E2E036
:101740000C946D2FA2E0B0E0E8EAFBE00C94512F7E
:101750009A8389832296E2E00C946D2FA2E0B0E098
:10176000E4EBFBE00C94512F9A8389832296E2E00C
:101770000C946D2FA2E0B0E0E0ECFBE00C94512F54
:101780009A83898389819A8129E731E0FC01318339
:101790002083B1DF9C0189819A81FC0133832283FC
:1017A00089819A81FC01158214822296E2E00C94D0
:1017B0006D2FA2E0B0E0EFEDFBE00C94512F9A8387
:1017C000898389819A8129E731E0FC013183208373
:1017D00080E090E0892B21F089819A810E94642821
:1017E0002296E2E00C946D2FA2E0B0E0EAEFFBE07D
:1017F0000C94512F9A83898389819A81DADF8981B8
:101800009A810E9464282296E2E00C946D2FA4E055
:10181000B0E0EDE0FCE00C94512F9A8389837C8347
:101820006B8389819A812B813C81FC0131832083E8
:101830000AD09C0189819A81FC01338322832496FA
:10184000E2E00C946D2FA0E0B0E0E9E2FCE00C9443
:10185000512F80E094E0E2E00C946D2FA6E0B0E020
:10186000E4E3FCE00C94512F9A8389837C836B839F
:101870005E834D838B819C819C012C5F3F4F8981CE
:101880009A81B901F6DE982F81E08927882311F02B
:1018900080E009C04D815E812B813C8189819A81E4
:1018A000B90105D081E02696E2E00C946D2FA6E008
:1018B000B0E0EDE5FCE00C94512F9A8389837C83A2
:1018C0006B835E834D8389819A81F3DE9C018B81DA
:1018D0009C81820F931F9C018D819E8144E050E08A
:1018E000B9010E94A2352696E2E00C946D2FA4E087
:1018F000B0E0EDE7FCE00C94512F9A8389837C8360
:101900006B8389819A81019749F48B819C8101962F
:1019100029F4F1DE9093F6028093F5022496E2E03A
:101920000C946D2FA0E0B0E0E8E9FCE00C94512F9E
:101930006FEF7FEF81E090E0DADFE2E00C946D2F53
:10194000A0E0B0E0E6EAFCE00C94512F0E94FB2AF4
:10195000DC01CB01BC01CD01E2E00C946D2FA8E0CD
:10196000B0E0E5EBFCE00C94512F98878F838F81DA
:10197000988527E831E0FC0131832083E1DFDC0139
:10198000CB018B839C83AD83BE831A8219823DC0B9
:101990002F81388589819A81820F931F82579F4FAB
:1019A000FC0110822F81388589819A814596880FA4
:1019B000991F820F931FFC01118210822F8138859D
:1019C00089819A81880F991F880F991F820F931F11
:1019D0009C012E5F3F4F8B819C81AD81BE81F901BF
:1019E00080839183A283B3832F81388589819A81F3
:1019F000CD96880F991F820F931FFC0111821082D0
:101A000089819A8101969A83898389819A810A972B
:101A10000CF4BECF8F81988584559F4FFC011182B5
:101A200010822896E2E00C946D2FA8E0B0E0EBE184
:101A3000FDE00C944D2F98878F8382DFDC01CB0172
:101A40008B839C83AD83BE831A82198225C12F812B
:101A5000388589819A81845B9F4F880F991F820FF7
:101A6000931FFC01118210822F81388589819A8110
:101A70004596880F991F820F931FFC0180819181E9
:101A8000892B09F404C12F81388589819A81880FB7
:101A9000991F880F991F820F931F0296FC01808166
:101AA0009181A281B3812B813C814D815E8179013D
:101AB0008A01E81AF90A0A0B1B0BD801C7014F81EA
:101AC000588529813A81220F331F220F331F240F9B
:101AD000351F225C3F4FF9012081318142815381C2
:101AE00082179307A407B50708F4D1C02F81388562
:101AF00089819A81880F991F880F991F820F931FE0
:101B00000296FC0180819181A281B3814F81588529
:101B100029813A81220F331F220F331F240F351FD3
:101B2000225C3F4FF9012081318142815381820F34
:101B3000931FA41FB51F4F81588529813A81220F19
:101B4000331F220F331F240F351F2E5F3F4FF90124
:101B500080839183A283B3832F81388589819A8181
:101B6000820F931F82579F4FFC018081882309F4C5
:101B70008EC02F81388589819A81C396880F991FDD
:101B8000820F931FFC0180819181892B81F42F8129
:101B9000388589819A81845B9F4F880F991F820FB6
:101BA000931F21E030E0FC013183208370C02F813E
:101BB000388589819A81CD96880F991F820F931F4E
:101BC000FC01208131814F81588589819A81C3969A
:101BD000880F991F840F951FFC0180819181281720
:101BE00039070CF054C02F81388589819A81845B34
:101BF0009F4F880F991F820F931F21E030E0FC0157
:101C0000318320832F81388589819A81CD96880FF1
:101C1000991F820F931FFC01808191819C012F5F8E
:101C20003F4F4F81588589819A81CD96880F991FA2
:101C3000840F951FFC01318320832F813885898192
:101C40009A81CD96880F991F820F931FFC012081E6
:101C500031814F81588589819A81C396880F991F58
:101C6000840F951FFC0180819181281739077CF032
:101C70002F81388589819A81845B9F4F880F991FB6
:101C8000820F931F22E030E0FC01318320838981A1
:101C90009A8101969A83898389819A810A970CF4A3
:101CA000D6CE1A82198246C02F81388589819A81C1
:101CB000845B9F4F880F991F820F931FFC018081C7
:101CC00091818130910519F0029781F02EC02F810A
:101CD000388589819A814596880F991F820F931FB5
:101CE000FC0180819181FC0109951FC02F813885FD
:101CF00089819A814596880F991F820F931FFC0155
:101D000080819181FC0109958F819885FC018081FA
:101D100091810896FC012081318149815A818F810E
:101D20009885BA01F9010995000089819A81019687
:101D30009A83898389819A810A970CF4B5CF289672
:101D4000E6E00C94692FA4E0B0E0E9EAFEE00C9430
:101D5000512F9C838B838B819C8184559F4FFC01E9
:101D6000808191810A971CF08FEF9FEF1FC01A822C
:101D7000198216C02B813C8189819A814596880FF2
:101D8000991F820F931FFC0180819181892B19F487
:101D900089819A810BC089819A8101969A8389836E
:101DA00089819A810A9734F38FEF9FEF2496E2E0BE
:101DB0000C946D2FACE0B0E0E0EEFEE00C944F2F01
:101DC0009C838B834D835E836F8378873A872987D3
:101DD0001C870B878B819C81B6DF9A8389838981DD
:101DE0009A8199231CF48FEF9FEF6BC089859A85A8
:101DF000892B19F48FEF9FEF64C02B813C8189817F
:101E00009A81880F991F880F991F820F931F9C0139
:101E1000225C3F4F8D819E81AF81B885F90180831F
:101E20009183A283B3832B813C8189819A814596DA
:101E3000880F991F820F931F29853A85FC013183F2
:101E400020832B813C8189819A81C396880F991FB9
:101E5000820F931F2B853C85FC01318320832B81CE
:101E60003C8189819A81820F931F82579F4F21E085
:101E7000FC01208365DDDC01CB014B815C81298184
:101E80003A81220F331F220F331F240F351F2E5F7D
:101E90003F4FF90180839183A283B3838B819C811F
:101EA00084559F4FFC01808191819C012F5F3F4FA2
:101EB0008B819C8184559F4FFC01318320838981D4
:101EC0009A812C96E4E00C946B2FA8E0B0E0EBE64E
:101ED000FFE00C944D2F9A8389834B835C836D8341
:101EE0007E8338872F8389819A81DC018D919C9133
:101EF0000696DC01ED91FC912F8138858B819C81C8
:101F0000AD81BE81E980FA8000E010E0AC01BD0146
:101F1000C70109952896E6E00C94692FA8E0B0E087
:101F2000E4E9FFE00C944D2F9A8389834B835C8313
:101F30006D837E8338872F8389819A81DC018D911F
:101F40009C910696DC01ED91FC912F8138858B8167
:101F50009C81AD81BE81E980FA8001E010E0AC0196
:101F6000BD01C70109952896E6E00C94692FA4E00D
:101F7000B0E0EDEBFFE00C94512F9A8389837C83D2
:101F80006B838B819C810A970CF069C089819A814F
:101F900084559F4FFC0180819181892B09F45FC09A
:101FA00029813A818B819C814596880F991F820FE8
:101FB000931FFC0180819181892B09F450C02981F4
:101FC0003A818B819C814596880F991F820F931FC0
:101FD000FC011182108229813A818B819C81820FC0
:101FE000931F82579F4FFC01108229813A818B8178
:101FF0009C81845B9F4F880F991F820F931FFC0168
:102000001182108229813A818B819C81880F991FCE
:10201000880F991F820F931FCE96FC0110821182A8
:102020001282138229813A818B819C81CD96880FFF
:10203000991F820F931FFC011182108289819A815E
:1020400084559F4FFC01808191819C012150310971
:1020500089819A8184559F4FFC0131832083249686
:10206000E2E00C946D2FA4E0B0E0E9E3F0E10C9421
:10207000512F9A8389837C836B838B819C810A9700
:102080000CF014C05DDCDC01CB0149815A812B814D
:102090003C81220F331F220F331F240F351F2E5F69
:1020A0003F4FF90180839183A283B3832496E2E0BA
:1020B0000C946D2FA4E0B0E0E0E6F0E10C94512F19
:1020C0009A8389837C836B838B819C810A9714F02C
:1020D00080E00AC029813A818B819C81820F931F05
:1020E00082579F4FFC0180812496E2E00C946D2F73
:1020F000A4E0B0E0EEE7F0E10C94512F9A838983DD
:102100007C836B838B819C810A970CF00BC02981A7
:102110003A818B819C81820F931F82579F4F21E0D0
:10212000FC0120832496E2E00C946D2FA4E0B0E043
:10213000ECE9F0E10C94512F9A8389837C836B83C3
:102140008B819C810A970CF00AC029813A818B818E
:102150009C81820F931F82579F4FFC01108224960F
:10216000E2E00C946D2FCF92EF920F93CF93DF9319
:1021700000D0CDB7DEB79A83898389819A810F2EEB
:10218000F7E0CF2EF02D0F2EF6E0EF2EF02D05E02C
:1021900024E049E068E00E946A0789819A812DE97C
:1021A00031E0FC013183208389819A8108D00F902E
:1021B0000F90DF91CF910F91EF90CF900895A2E013
:1021C000B0E0E5EEF0E10C94512F9A838983898188
:1021D0009A8120E042E060E10E941D0889819A8195
:1021E00069D889819A8140E060E078D82296E2E05F
:1021F0000C946D2FA4E0B0E0E0E0F1E10C94512FDD
:102200009A8389837C836B832B8189819A81422F76
:1022100060E064D82FE233E089819A81B9010E949D
:10222000A5282496E2E00C946D2FA6E0B0E0EBE147
:10223000F1E10C94512F9A8389837C836B835E83B5
:102240004D832B813C8189819A81B901D3DF2B8118
:1022500089819A81422F60E041D889819A812D81BC
:102260003E81B9010E94C9282696E2E00C946D2FA8
:10227000A2E0B0E0EEE3F1E10C94512F9A83898360
:1022800089819A81FC01808191812296E2E00C94FF
:102290006D2FA4E0B0E0EFE4F1E10C94512F9A83AC
:1022A00089837C836B8389819A812B813C81B901ED
:1022B0000E94EB2C2496E2E00C946D2FA4E0B0E099
:1022C000E4E6F1E10C94512F9A8389837C836B833C
:1022D0008B819C812496E2E00C946D2FA4E0B0E009
:1022E000E4E7F1E10C94512F9A8389837C836B831B
:1022F00089819A8122EE31E0FC01318320838B8138
:102300009C81FC012281338189819A81FC01338384
:1023100022832496E2E00C946D2FA4E0B0E0E3E980
:10232000F1E10C94512F9A8389837C836B832B81F9
:102330003C8189819A81B901D1DF89819A8121E724
:1023400031E0FC01318320838B819C81FC0124815D
:1023500089819A81FC0124838B819C81FC012581E8
:1023600089819A81FC0125838B819C81FC012681D6
:1023700089819A81FC01268389819A812B813C8104
:1023800048E0F9013796DC01179601900D924A95C5
:10239000E1F78B819C81FC01278589819A81FC0171
:1023A00027878B819C81FC01208989819A81FC018E
:1023B000208B8B819C81FC01218989819A81FC0180
:1023C000218B8B819C81FC01228989819A81FC016E
:1023D000228B8B819C81FC01238989819A81FC015C
:1023E000238B29813A818B819C81FC018489958989
:1023F000A689B789F901848B958BA68BB78B249618
:10240000E2E00C946D2FA4E0B0E0E9E0F2E10C947E
:10241000512F9A8389837C836B832B813C818981B3
:102420009A81B9017ADF89819A812DE931E0FC0135
:10243000318320832496E2E00C946D2FAAE0B0E073
:10244000E4E2F2E10C944F2F9B838A837D836C83BB
:102450005F834E8328871A8709878A819B818AD95F
:102460008A819B8125EA31E0FC01318320838A81C6
:102470009B812C813D81FC01348723878A819B814C
:10248000835A9F4FFC01118210828A819B81815A5D
:102490009F4F2E813F81FC0131832083CE01019625
:1024A000B5D58A819B818F599F4F9E012F5F3F4FEA
:1024B000B901C4D5CE010196B5D58A819B818859D1
:1024C0009F4FFC01118210828A819B818A589F4F05
:1024D0002885FC0120838A819B8189589F4F29850B
:1024E0003A85B90190DF8A819B8181579F4F6DE0CA
:1024F00071E00E94EB2C8A819B818B569F4F6DE08F
:1025000071E00E94EB2C8A819B8185569F4F63E08E
:1025100070E05CD58A819B8104D02A96E4E00C941B
:102520006B2FA6E0B0E0E7E9F2E10C94502F9E8318
:102530008D8361E08DE00E94F12B8D819E81855617
:102540009F4FEED58D819E8185569F4F0ED6FC0103
:1025500080819181A281B38111E09C01AD01BC0118
:10256000CD010E949F26882309F410E0112389F0F1
:1025700080E090E0A0E4B0E489839A83AB83BC83DD
:102580008D819E8185569F4F9E012F5F3F4FB901E0
:10259000FBD52696E3E00C946C2FA6E0B0E0E3EDCB
:1025A000F2E10C94512F9A8389834B835C836D8372
:1025B0007E8389819A8185569F4F9E012D5F3F4F73
:1025C000B901E2D589819A8185569F4F60E0FAD59D
:1025D0002696E2E00C946D2FAEE0B0E0E2EFF2E17F
:1025E0000C94512F9E878D878D859E8586599F4F90
:1025F000FC0180819181A281B381FE01379622E0A6
:10260000AC01BD01CF010E94312DCE01079630DE15
:102610009C018D859E8581579F4FB9010E941C2D7D
:10262000CE0107960E94842C8D859E8582599F4FEE
:10263000FC0180819181A281B38122E0AC01BD01C6
:10264000CE0101960E94312DCE01019611DE9C0132
:102650008D859E858B569F4FB9010E941C2DCE0102
:1026600001960E94842C8D859E8586599F4FFC0182
:1026700080819181A281B381BC01CD012E96E2E0DF
:102680000C946D2FA8E0B0E0E8E4F3E10C944D2F3A
:1026900098878F838F8198854FD1DC01CB012F8163
:1026A000388526593F4FF90180839183A283B383F4
:1026B0008BEF92E0FC018081882389F40E94FB2A41
:1026C000DC01CB018093130390931403A0931503B3
:1026D000B09316038BEF92E021E0FC0120830E946F
:1026E000FB2A9B01AC018091130390911403A091EC
:1026F0001503B091160379018A01E81AF90A0A0B49
:102700001B0BD801C70121E081369A4EA105B10506
:1027100008F420E0222309F490C08CE390E09A832F
:1027200089838F8198858F599F4F86D59C838B8312
:102730002B813C8189819A8182179307DCF08F81FC
:10274000988586599F4FFC0180819181A281B38138
:10275000BC01CD010E945525DC01CB019E838D83F8
:102760008F8198858F599F4F9E012B5F3F4FB901F5
:1027700074D52BC08F81988588599F4FFC0180812B
:102780009181AC014F5F5F4F2F81388528593F4FB2
:10279000F901518340839C018F8198858F599F4F08
:1027A000B90175D58C018F81988586599F4FFC01A1
:1027B00080819181A281B381BC01CD010E94552508
:1027C000DC01CB01F801918380838F819885885942
:1027D0009F4FFC012081318189819A812817390717
:1027E00039F48F81988588599F4FFC01118210829E
:1027F0008F8198858F599F4F60E070E048D5BC016C
:102800002B813C818F819885A90154D2DC01CB01B9
:102810002F81388522593F4FF90180839183A2830C
:10282000B3830E94FB2ADC01CB01809313039093B6
:102830001403A0931503B093160380E493E0BC0146
:1028400084E595E00E94A5280E94FB2A9B01AC012B
:102850008091130390911403A0911503B091160376
:1028600079018A01E81AF90A0A0B1B0BD801C70182
:102870002AE030E0AC01BD0184E595E00E94C0296A
:102880008FE493E0BC0184E595E00E94A5288F8148
:1028900098858F599F4FD0D44AE050E0BC0184E521
:1028A00095E00E94AC2985E693E0BC0184E595E0C3
:1028B0000E94A5288F81988588599F4FFC018081AF
:1028C00091814AE050E0BC0184E595E00E948B29AB
:1028D00089E793E0BC0184E595E00E94A5288F81FB
:1028E000988582599F4FFC0180819181A281B3819B
:1028F00022E030E0AC01BD0184E595E00E94A12A10
:1029000087E893E0BC0184E595E00E94A5288F81CB
:10291000988586599F4FFC0180819181A281B38166
:1029200022E030E0AC01BD0184E595E00E94A12ADF
:102930002896E6E00C94692FACE0B0E0E2EAF4E11E
:102940000C944B2F9C878B8783E093E0FC01808164
:10295000882389F40E94FB2ADC01CB0180931703B2
:1029600090931803A0931903B0931A0383E093E0A4
:1029700021E0FC0120830E94FB2A9B01AC01809195
:10298000170390911803A0911903B0911A037901CC
:102990008A01E81AF90A0A0B1B0BD801C70121E0CA
:1029A000893E9340A105B10508F420E0222309F4F3
:1029B000AFC088E290E09A8389838B859C85835A97
:1029C0009F4FFC010081118198012F5F3F4F8B8544
:1029D0009C85835A9F4FFC01318320838B859C8586
:1029E000FC01838594850E94AB2BAC012B853C8533
:1029F000C801880F991F820F931F0D96FC01518308
:102A000040838B859C85835A9F4FFC0120813181B7
:102A100089819A812817390739F48B859C85835AD7
:102A20009F4FFC01118210828B859C859C01235F46
:102A30003F4F49815A818B859C85B9013BD1DC018F
:102A4000CB018B839C83AD83BE8320E030E040EAE2
:102A500050E46B817C818D819E810E943C26DC014B
:102A6000CB0120E030E040E854E4BC01CD010E94FD
:102A7000ED24DC01CB012B853C852E583F4FF9011D
:102A800080839183A283B3838B859C858E589F4FCF
:102A9000FC0180819181A281B3819C01AD0160E044
:102AA00070E080E290E40E948424DC01CB012CEEF3
:102AB00031E548E35EE3BC01CD010E94ED24DC0179
:102AC000CB0120E030E040EE50E4BC01CD010E949B
:102AD0008524DC01CB016C017D018B859C858556AD
:102AE0009F4F43D3FC0180819181A281B3819C01DE
:102AF000AD01C701B6010E948524DC01CB018F83A3
:102B00009887A987BA878F819885A985BA8509C0D2
:102B10008B859C8586599F4FFC0180819181A28184
:102B2000B381BC01CD012C96E8E00C94672FA2E0A4
:102B3000B0E0EDE9F5E10C94512F9A838983898106
:102B40009A810E94842C2296E2E00C946D2FAEE1D3
:102B5000B0E0EDEAF5E10C94512F9E8F8D8F8D8DB5
:102B60009E8D3ADDDC01CB0189839A83AB83BC83E4
:102B70008BE093E0FC018081882389F40E94FB2A8A
:102B8000DC01CB0180931B0390931C03A0931D03D6
:102B9000B0931E038BE093E021E0FC0120830E94B0
:102BA000FB2A9B01AC0180911B0390911C03A09117
:102BB0001D03B0911E03281B390B4A0B5B0B8D8D37
:102BC0009E8D815A9F4FFC018081918180579E4F3D
:102BD000092E000CAA0BBB0B61E082179307A40718
:102BE000B50708F060E0662309F460C08D8D9E8D06
:102BF0008A589F4FFC018081882309F441C0898154
:102C00009A81AB81BC81FE01719622E0AC01BD01CD
:102C1000CF010E945F2DCE010B966EE071E039DB93
:102C20009E012F5E3F4FCE010B96B9010E94D92D18
:102C30009C01CE014796B9010E94142DCE010B963E
:102C400076DFCE0141960E94842C9E01295E3F4F83
:102C5000CE010596B9010E94142D8D8D9E8D895847
:102C60009F4F9E012B5F3F4FA90160E070E0DDDACE
:102C7000CE0105960E94842CCE0147960E94842C9A
:102C80008DE00E945C2C982F81E08927682F8DE0D1
:102C90000E942D2C0E94FB2ADC01CB0180931B0398
:102CA00090931C03A0931D03B0931E036E96E2E065
:102CB0000C946D2FCF92DF92EF92FF92CF93DF9320
:102CC000CDB7DEB768970FB6F894DEBF0FBECDBFA5
:102CD000988B8F877A8B698B5C8B4B8B1F821886C6
:102CE00019861A868B899C89181619065CF082E968
:102CF00093E0BC0184E595E00E94E22880E090E04A
:102D0000DC012BC18B899C8905970CF049C01A8284
:102D1000198220C089819A81880F991F29893A894F
:102D2000820F931FFC0180819181092E000CAA0B58
:102D3000BB0B2F81388549855A85820F931FA41FAD
:102D4000B51F8F839887A987BA8789819A81019651
:102D50009A83898329813A818B899C89281739072D
:102D6000CCF28B899C899C01990F440B550B8F8168
:102D70009885A985BA85BC01CD010E94152FDA017D
:102D8000C901BC01CD010E948825DC01CB018B87E4
:102D90009C87AD87BE878B859C85AD85BE85DDC054
:102DA00089899A89FC012081318189899A890296D1
:102DB000FC0180819181281739077CF489899A89DF
:102DC000FC01808191819E838D8389899A89FC0190
:102DD000828193819C838B830EC089899A89FC01AF
:102DE000828193819E838D8389899A89FC01808168
:102DF00091819C838B8382E090E09A83898380C059
:102E000089819A81880F991F29893A89820F931F96
:102E1000FC01208131818D819E812817390704F5BD
:102E20008D819E81092E000CAA0BBB0B2F8138854A
:102E300049855A85820F931FA41FB51F8F839887DA
:102E4000A987BA8789819A81880F991F29893A8928
:102E5000820F931FFC01808191819E838D834BC0E3
:102E600089819A81880F991F29893A89820F931F36
:102E7000FC01208131818B819C818217930704F5AD
:102E80008B819C81092E000CAA0BBB0B2F813885EE
:102E900049855A85820F931FA41FB51F8F8398877A
:102EA000A987BA8789819A81880F991F29893A89C8
:102EB000820F931FFC01808191819C838B831BC0B7
:102EC00089819A81880F991F29893A89820F931FD6
:102ED000FC0180819181092E000CAA0BBB0B2F8174
:102EE000388549855A85820F931FA41FB51F8F838C
:102EF0009887A987BA8789819A8101969A8389835D
:102F000029813A818B899C89281739070CF478CF5D
:102F10006F81788589859A850E9488256B017C015F
:102F20008B899C890297092E000CAA0BBB0BBC0154
:102F3000CD010E948825DC01CB019C01AD01C701B8
:102F4000B6010E94ED24DC01CB018B879C87AD8705
:102F5000BE878B859C85AD85BE85BC01CD016896FD
:102F60000FB6F894DEBF0FBECDBFDF91CF91FF90BB
:102F7000EF90DF90CF900895A6E0B0E0E2ECF7E1AB
:102F80000C94512F9A8389837C836B835E834D835A
:102F90008B819C819C012C5F3F4F89819A81B90173
:102FA0000E94390B982F81E08927882311F080E057
:102FB00009C04D815E812B813C8189819A81B90153
:102FC0007FD181E02696E2E00C946D2FA4E0B0E082
:102FD000ECEEF7E10C94512F9A8389837C836B8309
:102FE0000E947B0B9C0189819A81FC0131832083A3
:102FF00089819A812B813C81FC01338322838981E1
:103000009A818ED02496E2E00C946D2FA2E0B0E07D
:10301000ECE0F8E10C94512F9A8389832296E2E048
:103020000C946D2FA2E0B0E0E8E1F8E10C94512F90
:103030009A8389832296E2E00C946D2FA4E0B0E09D
:10304000E4E2F8E10C94512F9A8389837C836B83AB
:1030500089819A81FC011182108289819A8128E0FC
:1030600030E0FC013383228389819A81FC0115823F
:10307000148289819A81FC012281338189819A811C
:10308000069640E050E0B9013CD19C0189819A81CB
:10309000FC01318320832496E2E00C946D2FA4E0A0
:1030A000B0E0E5E5F8E10C94512F9C838B831A8204
:1030B000198215C08B819C81FC012081318189811D
:1030C0009A81880F991F280F391F8B819C81069642
:1030D000B9012DD189819A8101969A8389838B8147
:1030E0009C81FC012481358189819A818217930713
:1030F00008F38B819C81FC01428153818B819C81EF
:10310000FC01208131818B819C810696B9011DD102
:103110008B819C81069686DF2496E2E00C946D2FCD
:10312000A2E0B0E0E6E9F8E10C944F2F9A8389839E
:1031300089819A81FC0180819181892B91F089811B
:103140009A818C010C5F1F4F89819A8112D19C0159
:1031500089819A81FC0180819181A801B9010E9435
:103160002E0C2296E4E00C946B2FA2E0B0E0EBEB87
:10317000F8E10C94512F9A83898389819A8104966E
:103180002296E2E00C946D2FA4E0B0E0EAECF8E1C6
:103190000C94512F9A8389837C836B838B819C81D0
:1031A000FC0180819181A281B38129813A81F90159
:1031B00084839583A683B78389819A812496E2E0EC
:1031C0000C946D2FA3E0B0E0E8EEF8E10C944F2FE3
:1031D0009A8389836B8389819A81FC0180819181A3
:1031E000892B31F18B81882391F089819A818C011F
:1031F0000C5F1F4F89819A81BCD09C0189819A8183
:10320000FC0180819181A801B901B6DE11C08981DC
:103210009A818C010C5F1F4F89819A81AAD09C01F1
:1032200089819A81FC0180819181A801B901B2D084
:103230002396E4E00C946B2FA2E0B0E0E2E2F9E127
:103240000C94512F9A83898389819A81FC0184810E
:1032500095812296E2E00C946D2FA4E0B0E0E3E3C8
:10326000F9E10C94512F9A8389837C836B83898144
:103270009A81E2DF9C012F5F3F4F4B815C81898106
:103280009A81B901E9D02496E2E00C946D2FA4E074
:10329000B0E0EDE4F9E10C94512F9A8389837C83AB
:1032A0006B8389819A81FC01208131818B819C8192
:1032B000880F991F820F931F2496E2E00C946D2FC4
:1032C000A6E0B0E0E6E6F9E10C94512F9A838983F9
:1032D0007C836B835E834D8389819A810E94590B25
:1032E0009C018B819C81820F931F9C018D819E810B
:1032F00044E050E0B9010E94BA352696E2E00C9411
:103300006D2FA6E0B0E0E7E8F9E10C94512F9A8325
:1033100089837C836B835E834D838B819C81880F43
:10332000991F0E9463282696E2E00C946D2FA4E07A
:10333000B0E0EDE9F9E10C94512F9A8389837C8305
:103340006B832496E2E00C946D2FA6E0B0E0EBEAEC
:10335000F9E10C94512F9A8389837C836B835E837C
:103360004D838B819C810E9464282696E2E00C9418
:103370006D2FA2E0B0E0EFEBF9E10C94512F9A83AE
:10338000898389819A81FC01828193812296E2E07E
:103390000C946D2FACE0B0E0E0EDF9E10C94512F0E
:1033A00098878F837A8769875C874B8789859A8519
:1033B0009C012C5F3F4F8F819885B9010E94390B8A
:1033C000982F81E08927882319F080E090E040C0A1
:1033D0008B859C859A8389831C821B821E821D8219
:1033E00031C029853A858F819885B9010E94C20A2A
:1033F000282F89819A81FC01908181E0291709F4A5
:1034000080E0882381F089819A81FC0140812985AF
:103410003A858F819885B9010E94FB0A8B819C8136
:1034200001969C838B8389859A8501969A878987E3
:1034300089819A8101969A8389838D819E810196E3
:103440009E838D838D819E81049758F28B819C8110
:103450002C96E2E00C946D2FA8E0B0E0E2E3FAE1F4
:103460000C94512F9C838B837E836D8358874F836D
:103470008B819C81FC01248135818D819E8128175F
:10348000390708F041C08B819C81FC012281338186
:103490008D819E812817390748F48D819E819C017A
:1034A000285F3F4F8B819C81B90138D08B819C81F3
:1034B000FC01848195819A83898317C08B819C81CB
:1034C000FC012081318189819A81880F991F280F01
:1034D000391F8B819C8106964F815885B9019FD0F9
:1034E00089819A8101969A83898329813A818D8184
:1034F0009E812817390710F38B819C812D813E8195
:10350000FC013583248306C02D813E818B819C8103
:10351000B901A6D02896E2E00C946D2FAAE0B0E0A5
:10352000E4E9FAE10C94512F98878F837A876987B1
:103530008F819885FC012281338189859A8528179E
:10354000390708F068C08F819885FC0180819181DE
:103550009C838B838F819885FC01828193819E83DC
:103560008D838F81988529853A85FC013383228359
:103570008F819885FC01228133818F819885069601
:1035800040E050E0B901BDDE9C018F819885FC01CF
:10359000318320831A8219822BC089819A81880FF6
:1035A000991F2B813C81A901480F591F8F81988554
:1035B000FC012081318189819A81880F991F280F10
:1035C000391F8F8198850696B90129D089819A8102
:1035D000880F991F2B813C81280F391F8F81988577
:1035E0000696B901A4DE89819A8101969A8389831E
:1035F0008F819885FC012481358189819A81821788
:10360000930758F28F81988506964D815E812B81B4
:103610003C81B9019ADE2A96E2E00C946D2FA6E077
:10362000B0E0E5E1FBE10C94512F9A8389837C8320
:103630006B835E834D838B819C81BC0182E090E033
:103640000E945E11009741F02D813E81F901208199
:103650003181FC01318320832696E2E00C946D2FAA
:10366000A6E0B0E0E6E3FBE10C94512F9C838B8352
:103670007E836D838B819C81FC01248135818D81CA
:103680009E818217930758F58D819E819A83898345
:1036900015C08B819C81FC012081318189819A81B7
:1036A000880F991F280F391F8B819C810696B901BD
:1036B0003EDE89819A8101969A8389838B819C81E0
:1036C000FC012481358189819A818217930708F34F
:1036D0008B819C812D813E81FC013583248326963C
:1036E000E2E00C946D2FA2E0B0E0E9E7FBE10C947E
:1036F000512F9A83898389819A8125EA31E0FC01DF
:103700003183208389819A818B569F4F0E94842C1C
:1037100089819A8181579F4F0E94842C89819A8147
:103720008F599F4FBCDC89819A810E94D90B80E020
:1037300090E0892B21F089819A810E946428229649
:10374000E2E00C946D2FA2E0B0E0E9EAFBE10C941A
:10375000512F9A83898389819A81C5DF89819A81D2
:103760000E9464282296E2E00C946D2FA9E0B0E05C
:10377000ECEBFBE10C944F2F9A8389837C836B8362
:103780005E834D832F831987088789819A810E94E0
:10379000BA0B89819A8123EB31E0FC0131832083CC
:1037A00089819A812B813C81FC013487238789811F
:1037B0009A81835A9F4FFC011182108289819A81DC
:1037C000815A9F4F2D813E81FC0131832083898165
:1037D0009A8187599F4F2F81FC01208389819A818B
:1037E00086599F4F28853985B9010E940312898126
:1037F0009A818E579F4F63E171E00E94EB2C898183
:103800009A8188579F4F63E171E00E94EB2C898178
:103810009A8182579F4F6AEB74E0D8DB89819A8145
:1038200004D02996E4E00C946B2FA6E0B0E0EBE125
:10383000FCE10C94502F9E838D8361E08DE00E940B
:10384000F12B8D819E8182579F4F6ADC8D819E81F5
:1038500082579F4F8ADCFC0180819181A281B381D4
:1038600011E09C01AD01BC01CD010E949F2688237F
:1038700009F410E0112389F080E090E4A7E9B4E4B2
:1038800089839A83AB83BC838D819E8182579F4FAE
:103890009E012F5F3F4FB90177DC2696E3E00C9441
:1038A0006C2FA6E0B0E0E7E5FCE10C94512F9A8381
:1038B00089834B835C836D837E8389819A81825760
:1038C0009F4F9E012D5F3F4FB9015EDC89819A8138
:1038D00082579F4F60E076DC2696E2E00C946D2FD5
:1038E000AEE0B0E0E6E7FCE10C94512F9E878D87B7
:1038F0008D859E858F599F4FFC0180819181A2818A
:10390000B381FE01379622E0AC01BD01CF010E94D8
:10391000312DCE0107960E9438119C018D859E8520
:103920008E579F4FB9010E941C2DCE0107960E9411
:10393000842C8D859E858B599F4FFC0180819181C0
:10394000A281B38122E0AC01BD01CE0101960E94AB
:10395000312DCE0101960E9438119C018D859E85E6
:1039600088579F4FB9010E941C2DCE0101960E94DD
:10397000842C8D859E858F599F4FFC01808191817C
:10398000A281B381BC01CD012E96E2E00C946D2F93
:10399000AEE1B0E0EEECFCE10C94512F9E8F8D8FE8
:1039A0008D8D9E8D9DDFDC01CB0189839A83AB8356
:1039B000BC838FE193E0FC018081882389F40E941D
:1039C000FB2ADC01CB0180932F0390933003A0935B
:1039D0003103B09332038FE193E021E0FC012083B7
:1039E0000E94FB2A9B01AC0180912F039091300330
:1039F000A0913103B0913203281B390B4A0B5B0BAA
:103A00008D8D9E8D815A9F4FFC01808191818057C1
:103A10009E4F092E000CAA0BBB0B61E08217930787
:103A2000A407B50708F060E0662309F462C08D8D35
:103A30009E8D87599F4FFC018081882309F443C0E4
:103A400089819A81AB81BC81FE01719622E0AC0133
:103A5000BD01CF010E945F2DCE010B9664E171E0A4
:103A60000E9449119E012F5E3F4FCE010B96B90176
:103A70000E94D92D9C01CE014796B9010E94142DB8
:103A8000CE010B9654D8CE0141960E94842C9E0103
:103A9000295E3F4FCE010596B9010E94142D8D8DF0
:103AA0009E8D86599F4F9E012B5F3F4FA90161E07C
:103AB00070E00E941511CE0105960E94842CCE0163
:103AC00047960E94842C8DE00E945C2C982F81E008
:103AD0008927682F8DE00E942D2C0E94FB2ADC0193
:103AE000CB0180932F0390933003A0933103B093C5
:103AF00032036E96E2E00C946D2FA4E1B0E0E3E8AF
:103B0000FDE10C94512F9C8B8B8B8B899C896DD004
:103B1000DC01CB0189839A83AB83BC8381E090E095
:103B20009E838D8318861F8232C08F8198858C5921
:103B30009F4F9A87898789859A85092E000CAA0B41
:103B4000BB0BBC01CD010E942C2B8B899C894DD0D5
:103B5000DC01CB018B879C87AD87BE872B853C859D
:103B60004D855E8569817A818B819C81CED6DC0111
:103B7000CB0189839A83AB83BC838D819E8101961F
:103B80009E838D838F819885019698878F838F81FF
:103B900098850B9754F28D819E81092E000CAA0BFB
:103BA000BB0BBC01CD01B4D7DC01CB019C01AD0145
:103BB00069817A818B819C8110D7DC01CB018F8751
:103BC000988BA98BBA8B8B899C899C012F593F4F6D
:103BD0008F859889A989BA89F90180839183A28305
:103BE000B3836496E2E00C946D2FA0E1B0E0EBEFBC
:103BF000FDE10C944D2F988B8F8787E293E0FC01B9
:103C00008081882389F40E94FB2ADC01CB01809308
:103C1000330390933403A0933503B093360387E2C4
:103C200093E021E0FC0120830E94FB2A9B01AC0170
:103C30008091330390913403A0913503B091360302
:103C400079018A01E81AF90A0A0B1B0BD801C7018E
:103C500021E08F369105A105B10508F420E022236B
:103C600009F477C088E290E09A8389838F859889E8
:103C7000835A9F4FFC010081118198012F5F3F4FB4
:103C80008F859889835A9F4FFC01318320838F85CC
:103C90009889FC01838594850E94AB2BAC012F850C
:103CA0003889C801880F991F820F931F0D96FC0158
:103CB000518340838F859889835A9F4FFC012081CF
:103CC000318189819A812817390739F48F8598893C
:103CD000835A9F4FFC01118210828F8598899C0125
:103CE000235F3F4F49815A818F859889B90140D020
:103CF000DC01CB018B839C83AD83BE8320E030E06D
:103D000040EA5BE36B817C818D819E81B5D7DC01CC
:103D1000CB018F839887A987BA878F859889825727
:103D20009F4F23DAFC0180819181A281B3812F8191
:103D3000388549855A85BC01CD019ED7DC01CB0170
:103D40008B879C87AD87BE878B859C85AD85BE851F
:103D500009C08F8598898F599F4FFC01808191817F
:103D6000A281B381BC01CD016096E6E00C94692F7D
:103D7000CF92DF92EF92FF92CF93DF93CDB7DEB772
:103D800068970FB6F894DEBF0FBECDBF988B8F87B4
:103D90007A8B698B5C8B4B8B1F82188619861A86EF
:103DA0008B899C89181619065CF08CEB93E0BC019A
:103DB00084E595E00E94E22880E090E0DC0127C1E4
:103DC0008B899C8905970CF048C01A82198220C003
:103DD00089819A81880F991F29893A89820F931FB7
:103DE000FC0180819181092E000CAA0BBB0B2F8155
:103DF000388549855A85820F931FA41FB51F8F836D
:103E00009887A987BA8789819A8101969A8389833D
:103E100029813A818B899C8928173907CCF28B89B3
:103E20009C899C01990F440B550B8F819885A9851E
:103E3000BA85BC01CD010E94152FDA01C901BC0170
:103E4000CD0166D6DC01CB018B879C87AD87BE8711
:103E50008B859C85AD85BE85DAC089899A89FC01F0
:103E60002081318189899A890296FC018081918122
:103E7000281739077CF489899A89FC01808191810E
:103E80009E838D8389899A89FC01828193819C8399
:103E90008B830EC089899A89FC01828193819E83DC
:103EA0008D8389899A89FC01808191819C838B8390
:103EB00082E090E09A83898380C089819A81880F0B
:103EC000991F29893A89820F931FFC012081318132
:103ED0008D819E812817390704F58D819E81092ED9
:103EE000000CAA0BBB0B2F81388549855A85820FA0
:103EF000931FA41FB51F8F839887A987BA878981CD
:103F00009A81880F991F29893A89820F931FFC0192
:103F1000808191819E838D834BC089819A81880F96
:103F2000991F29893A89820F931FFC0120813181D1
:103F30008B819C818217930704F58B819C81092ECC
:103F4000000CAA0BBB0B2F81388549855A85820F3F
:103F5000931FA41FB51F8F839887A987BA8789816C
:103F60009A81880F991F29893A89820F931FFC0132
:103F7000808191819C838B831BC089819A81880F6A
:103F8000991F29893A89820F931FFC0180819181B1
:103F9000092E000CAA0BBB0B2F81388549855A8549
:103FA000820F931FA41FB51F8F839887A987BA8795
:103FB00089819A8101969A83898329813A818B89A3
:103FC0009C89281739070CF478CF6F81788589850B
:103FD0009A859ED56B017C018B899C890297092E5D
:103FE000000CAA0BBB0BBC01CD0192D5DC01CB01AF
:103FF0009C01AD01C701B601F0D4DC01CB018B8778
:104000009C87AD87BE878B859C85AD85BE85BC01B1
:10401000CD0168960FB6F894DEBF0FBECDBFDF911D
:10402000CF91FF90EF90DF90CF900895A2E0B0E0A5
:10403000ECE1F0E20C94512F9A83898389819A8173
:1040400023EB31E0FC013183208389819A818857F9
:104050009F4F0E94842C89819A818E579F4F0E9486
:10406000842C89819A810E94D90B80E090E0892B71
:1040700021F089819A810E9464282296E2E00C94C2
:104080006D2FA2E0B0E0E7E4F0E20C94512F9A83A8
:10409000898389819A81CADF89819A810E946428F3
:1040A0002296E2E00C946D2FA2E0B0E0EAE5F0E2A7
:1040B0000C94512F9A83898389819A81FC01848190
:1040C00095812296E2E00C946D2FA4E0B0E0EBE63F
:1040D000F0E20C94512F9A8389837C836B832B812C
:1040E0003C8189819A81B9010E94B92D89819A8187
:1040F0002496E2E00C946D2FA4E0B0E0E2E8F0E258
:104100000C94512F9A8389837C836B832B813C8110
:1041100089819A81B9010E94EA2D2496E2E00C94EB
:104120006D2FA0E0B0E0E7E9F0E20C94512F62E1DE
:104130008DE992E00E9454046AE871E28DE992E010
:104140000E94C7056BEA70E28DE992E00E94B30518
:10415000E2E00C946D2FA9E2B0E0E1EBF0E20C9408
:10416000502F99A788A76AE171E087E393E00E9446
:104170001C2D6AE171E083E493E00E941C2D6AE14A
:1041800071E089E493E00E941C2D88A599A54497CD
:1041900009F0ADC00AC08DE992E00E94FA0489835B
:1041A000698187E393E00E94C72D8DE992E00E9428
:1041B000E20421E0181619060CF020E0222359F73A
:1041C00087E393E00E94912ECE0146966BE171E069
:1041D0000E94EB2CCE014696BC0187E393E00E943F
:1041E0002D2E11E0882309F410E0CE0146960E949E
:1041F000842C112339F067E373E083E493E00E9499
:10420000FF2C84C067E373E089E493E00E94FF2CF5
:10421000CE01409669E473E00E94142DCE014C96C5
:10422000BE01605F7F4F20E030E04DE375D1CE01ED
:1042300040960E94842CCE010A9669E473E00E94A5
:10424000142DCE018296BE01665F7F4F21E030E0E3
:104250004DE362D1CE010A960E94842CCE014C9689
:104260006DE171E049DF982F81E0992309F480E046
:104270008823A1F0CE0182960E94E82EDC01CB01BA
:104280008A839B83AC83BD838A819B81AC81BD8102
:10429000AC01BD0180E194E004DB20C0CE014C966E
:1042A00067E271E029DF982F81E0992309F480E02B
:1042B0008823A1F0CE0182960E94E82EDC01CB017A
:1042C0008E839F83A887B9878E819F81A885B985B2
:1042D000AC01BD018DE693E00E94CD12CE01829625
:1042E0000E94842CCE014C960E94842C0FC086EE36
:1042F00093E0BC0184E595E028D788A599A54AE01C
:1043000050E0BC0184E595E00E948B29A996E3E08A
:104310000C946C2FA1E2B0E0E0E9F1E20C944F2F95
:104320008091060190910701019690930701809377
:104330000601CE0142966AE171E00E94EB2C809169
:10434000060190910701892B39F4CE0142966CEF5A
:1043500073E00E94FF2C91C08091060190910701AB
:10436000019739F4CE01429662E074E00E94FF2C7E
:1043700084C08091060190910701029739F4CE0123
:10438000429662E974E00E94FF2C77C0809106019A
:1043900090910701039739F4CE01429668E974E0E1
:1043A0000E94FF2C6AC0809106019091070104973A
:1043B00001F588E094E00E94B518FC0180819181AC
:1043C000A281B381FE013C9622E0AC01BD01CF0188
:1043D0000E945F2DCE010C960E9438119C01CE01E7
:1043E0004296B9010E941C2DCE010C960E94842C8D
:1043F00044C08091060190910701059731F58EE93F
:1044000094E00E94B518FC0180819181A281B38162
:10441000FE01369622E0AC01BD01CF010E945F2D66
:10442000CE0106960E9438119C01CE014296B90138
:104430000E941C2DCE0106960E94842C8FEF9FEFC8
:10444000909307018093060118C060E371E084E552
:1044500095E0ADD680910601909107014AE050E0C9
:10446000BC0184E595E057D78FEF9FEF909307014C
:104470008093060100E010E043C0CE01429614DEB6
:104480009C018AE090E0821B930B9D838C831A82AF
:1044900019820AC0CE0142966BE471E016DE898172
:1044A0009A8101969A83898329813A818C819D81A1
:1044B000281739077CF31B8215C08B81082F10E069
:1044C0008B81282F30E0CE014296B9010E944C2EFC
:1044D000282FCE014896800F911FFC0120838B81ED
:1044E0008F5F8B838B818A3040F3CE0148964AE000
:1044F00050E0BC018DE992E00E94A20401E010E0CE
:10450000CE0142960E94842C0130110509F400006E
:10451000A196E4E00C946B2FA1E1B0E0E2E9F2E2B5
:104520000C94512F9C878B877E876D874F87398BA3
:10453000288B1A82198218861F828FEF9FEF9A8725
:1045400089878D859E85B0DD01979E838D831C8232
:104550001B8235C02B813C818D859E85B9010E94CF
:104560004C2E982F8F85981739F02B813C818D81A7
:104570009E812817390711F481E001C080E088236B
:10458000C9F089819A8101969A83898389859A8560
:10459000019698878F832B813C818D819E8128177E
:1045A000390721F48B819C81019602C08B819C810B
:1045B0009A8789878B819C8101969C838B832B8131
:1045C0003C818D819E818217930744F029813A8135
:1045D00088899989821793070CF0BCCF29813A8189
:1045E00088899989821793076CF489859A859C013B
:1045F0008F819885AC018B859C856D857E850E9419
:104600004D2E06C08B859C856AE171E00E94EB2CE3
:1046100000008B859C856196E2E00C946D2FA4E0F0
:10462000B0E0E5E1F3E20C94512F9A8389837C8317
:104630006B8389819A81019711F58B819C81019609
:10464000F1F46AE171E087E393E00E94EB2C6AE108
:1046500071E08DE393E00E94EB2C6AE171E083E46A
:1046600093E00E94EB2C6AE171E089E493E00E9400
:10467000EB2C6AE171E08FE493E00E94EB2C8981DE
:104680009A81892BC1F48B819C810196A1F48FE4DE
:1046900093E00E94842C89E493E00E94842C83E4BC
:1046A00093E00E94842C8DE393E00E94842C87E3A6
:1046B00093E00E94842C2496E2E00C946D2FA0E0FD
:1046C000B0E0E5E6F3E20C94512F6FEF7FEF81E06D
:1046D00090E0A5DFE2E00C946D2FA0E0B0E0E3E70E
:1046E000F3E20C94512F6FEF7FEF80E090E097DFC3
:1046F000E2E00C946D2FA4E3B0E0E1E8F3E20C9467
:104700004F2F9AAB89AB7CAB6BAB89A99AA9019768
:10471000A1F58BA99CA9019681F585E593E00E94FE
:10472000B310CE01499665E573E00E9403128091B3
:104730000801909109019E01275E3F4F890121E008
:1047400040ED57E0BC018DE693E00E941E1265E546
:1047500073E0CE0101960E94031280910A019091AC
:104760000B019E012F5F3F4F890121E048EE53E08E
:10477000BC0180E194E00E94B61B89A99AA9892B0B
:1047800059F48BA99CA9019639F480E194E04EDCA0
:104790008DE693E00E94731BE496E4E00C946B2F8B
:1047A000A0E0B0E0E6EDF3E20C94512F6FEF7FEF65
:1047B00081E090E0A0DFE2E00C946D2FA0E0B0E09B
:1047C000E4EEF3E20C94512F6FEF7FEF80E090E086
:1047D00092DFE2E00C946D2FA6E0B0E0E2EFF3E2AE
:1047E0000C94512F9A8389834B835C836D837E83E2
:1047F0008B819C81AD81BE81E981FA8126E0AC018B
:10480000BD01CF0165D32696E2E00C946D2FA2E0A6
:10481000B0E0EDE0F4E20C94512F9A83898381E0BB
:104820002296E2E00C946D2FA0E0B0E0EAE1F4E221
:104830000C94512F76DC40E855E260E070E084E5AE
:1048400095E0CADF000084E595E0E1DF982F81E084
:1048500089278823C1F72CE434E248EE53E060E076
:1048600070E086EA94E00E94650FE2E00C946D2F00
:10487000A0E0B0E0EEE3F4E20C94512F86EA94E07D
:104880000E94150D8DE693E00E94A71580E194E04B
:104890007FD8E2E00C946D2FA0E0B0E0E2E5F4E216
:1048A0000C94512F8DE693E00E94421380E194E036
:1048B00024D9E2E00C946D2FA4E0B0E0E2E6F4E24B
:1048C0000C94512F9A8389837C836B8389819A818D
:1048D000019741F48B819C81019621F486EA94E052
:1048E0000E94AF0C2496E2E00C946D2FA0E0B0E0A3
:1048F000ECE7F4E20C94512F6FEF7FEF81E090E052
:10490000DBDFE2E00C946D2F5058BB27AA270ED0B6
:1049100075C166D130F06BD120F031F49F3F11F4B6
:104920001EF45BC10EF4E095E7FB51C1E92F77D18E
:1049300080F3BA17620773078407950718F071F4BC
:104940009EF58FC10EF4E0950B2EBA2FA02D0B0112
:10495000B90190010C01CA01A0011124FF27591BC4
:1049600099F0593F50F4503E68F11A16F040A22FCA
:10497000232F342F4427585FF3CF4695379527953B
:10498000A795F0405395C9F77EF41F16BA0B620B3A
:10499000730B840BBAF09150A1F0FF0FBB1F661F81
:1049A000771F881FC2F70EC0BA0F621F731F841FC4
:1049B00048F4879577956795B795F7959E3F08F0EA
:1049C000B3CF9395880F08F09927EE0F97958795A9
:1049D0000895D9D008F481E008950CD00FC107D113
:1049E00040F0FED030F021F45F3F19F0F0C05111DB
:1049F00039C1F3C014D198F39923C9F35523B1F306
:104A0000951B550BBB27AA2762177307840738F03D
:104A10009F5F5F4F220F331F441FAA1FA9F333D09C
:104A20000E2E3AF0E0E830D091505040E695001C50
:104A3000CAF729D0FE2F27D0660F771F881FBB1F0C
:104A4000261737074807AB07B0E809F0BB0B802DE6
:104A5000BF01FF2793585F4F2AF09E3F510568F032
:104A6000B6C000C15F3FECF3983EDCF386957795C6
:104A70006795B795F7959F5FC9F7880F911D969534
:104A8000879597F90895E1E0660F771F881FBB1F90
:104A9000621773078407BA0720F0621B730B840B3D
:104AA000BA0BEE1F88F7E095089504D06894B11111
:104AB000D9C00895BCD088F09F5790F0B92F99279E
:104AC000B751A0F0D1F0660F771F881F991F1AF019
:104AD000BA95C9F712C0B13081F0C3D0B1E00895E2
:104AE000C0C0672F782F8827B85F39F0B93FCCF363
:104AF000869577956795B395D9F73EF4909580950F
:104B0000709561957F4F8F4F9F4F0895E89409C02E
:104B100097FB3EF490958095709561957F4F8F4FF0
:104B20009F4F9923A9F0F92F96E9BB279395F69506
:104B3000879577956795B795F111F8CFFAF4BB0F84
:104B400011F460FF1BC06F5F7F4F8F4F9F4F16C0E8
:104B5000882311F096E911C0772321F09EE8872F72
:104B6000762F05C0662371F096E8862F70E060E02E
:104B70002AF09A95660F771F881FDAF7880F9695A7
:104B8000879597F90895990F0008550FAA0BE0E84B
:104B9000FEEF16161706E807F907C0F012161306FF
:104BA000E407F50798F0621B730B840B950B39F43F
:104BB0000A2661F0232B242B252B21F408950A26A5
:104BC00009F4A140A6958FEF811D811D089597F9E5
:104BD0009F6780E870E060E008959FEF80EC0895A3
:104BE00000240A94161617061806090608950024CC
:104BF0000A9412161306140605060895092E039446
:104C0000000C11F4882352F0BB0F40F4BF2B11F4B9
:104C100060FF04C06F5F7F4F8F4F9F4F089557FD18
:104C20009058440F551F59F05F3F71F04795880F1A
:104C300097FB991F61F09F3F79F0879508951216B1
:104C400013061406551FF2CF4695F1DF08C016165D
:104C500017061806991FF1CF86957105610508940E
:104C60000895E894BB2766277727CB0197F9089525
:104C70008ADF08F48FEF08950BD0C0CFB1DF28F0A2
:104C8000B6DF18F0952309F0A2CFA7CF1124EACF01
:104C9000C6DFA0F3959FD1F3950F50E0551F629F9B
:104CA000F001729FBB27F00DB11D639FAA27F00D85
:104CB000B11DAA1F649F6627B00DA11D661F829FAC
:104CC0002227B00DA11D621F739FB00DA11D621F91
:104CD000839FA00D611D221F749F3327A00D611DAE
:104CE000231F849F600D211D822F762F6A2F112490
:104CF0009F5750408AF0E1F088234AF0EE0FFF1FE3
:104D0000BB1F661F771F881F91505040A9F79E3F19
:104D1000510570F05CCFA6CF5F3FECF3983EDCF31B
:104D2000869577956795B795F795E7959F5FC1F756
:104D3000FE2B880F911D9695879597F9089523DF8F
:104D4000880B990B08950E94EC32FC01918D228D05
:104D5000892F90E0805C9F4F821B91098F73992768
:104D60000895FC01918D828D981731F0828DE80FA6
:104D7000F11D858D90E008958FEF9FEF0895FC0160
:104D8000918D828D981761F0828DDF01A80FB11D82
:104D90005D968C91928D9F5F9F73928F90E00895A6
:104DA0008FEF9FEF089582E298E2892B41F080E037
:104DB00090E0892B21F046D181110C9400000895D8
:104DC000FC01848DDF01A80FB11DA35ABF4F2C91A8
:104DD000848D90E001968F739927848FA689B78977
:104DE0002C93A089B1898C9180648C93938D848D50
:104DF000981306C00288F389E02D80818F7D80831F
:104E00000895CF93DF93EC01888D8823C1F0EA8960
:104E1000FB89808185FD05C0A889B9898C9186FDB3
:104E20000EC00FB607FCF5CF808185FFF2CFA889B1
:104E3000B9898C9185FFEDCFCE01C2DFE8CFDF913C
:104E4000CF910895EF92FF920F931F93CF93DF932B
:104E5000EC0181E0888F9B8D8C8D981305C0E889CB
:104E6000F989808185FD23C0F62E0B8D10E00F5F40
:104E70001F4F0F731127E02E8C8DE8120BC00FB659
:104E800007FCFACFE889F989808185FFF5CFCE014B
:104E900097DFF2CF8B8DFE01E80FF11DE35AFF4F34
:104EA000F0820B8FEA89FB898081806207C0EE89DE
:104EB000FF896083E889F98980818064808381E04B
:104EC00090E0DF91CF911F910F91FF90EF900895A7
:104ED000CF92DF92EF92FF921F93CF93DF93EC017B
:104EE0006A017B01122FE889F98982E080834115EC
:104EF000514E61057105A9F060E079E08DE390E025
:104F0000A701960170D7DA01C9010197A109B1097A
:104F1000B695A79597958795AC01411580E15807FF
:104F2000A0F0E889F989108260E874E88EE190E0E9
:104F3000A701960158D7BA01A90141505109610949
:104F400071097695679557954795EC85FD85508352
:104F5000EE85FF854083188EEC89FD891083EA89F0
:104F6000FB89808180618083EA89FB8980818860F8
:104F70008083EA89FB89808180688083EA89FB8954
:104F800080818F7D8083DF91CF911F91FF90EF9083
:104F9000DF90CF9008951F920F920FB60F921124B9
:104FA0002F938F939F93EF93FF93E0916405F0917C
:104FB00065058081E0916A05F0916B0582FD12C064
:104FC000908180916D058F5F8F7320916E058217A0
:104FD00051F0E0916D05F0E0EC5AFA4F958F809317
:104FE0006D0501C08081FF91EF919F918F912F916D
:104FF0000F900FBE0F901F9018951F920F920FB633
:105000000F9211242F933F934F935F936F937F934E
:105010008F939F93AF93BF93EF93FF9384E595E0B6
:10502000CFDEFF91EF91BF91AF919F918F917F91D3
:105030006F915F914F913F912F910F900FBE0F9005
:105040001F90189584E595E080DE21E0892B09F416
:1050500020E0822F0895E4E5F5E01382128288EEC5
:1050600093E0A0E0B0E084839583A683B78381ECCE
:1050700091E09183808385EC90E09587848784EC30
:1050800090E09787868780EC90E0918B808B81EC15
:1050900090E0938B828B82EC90E0958B848B86ECF6
:1050A00090E0978B868B118E128E138E148E08953E
:1050B000089516D3FDDFB8DBC3EDD6E2D9DB209728
:1050C000E9F371DEFBCF42C7D6C7CF92DF92EF92F2
:1050D000FF920F931F93CF93DF936C017A018B01A3
:1050E000C0E0D0E0CE15DF0589F0D8016D918D01CB
:1050F000D601ED91FC910190F081E02DC60109955A
:10510000892B11F47E0102C02196ECCFC701DF91FB
:10511000CF911F910F91FF90EF90DF90CF90089566
:105120006115710579F0FB0101900020E9F73197D5
:10513000AF01461B570BDC01ED91FC910280F3811E
:10514000E02D099480E090E00895EF92FF920F9394
:105150001F93CF93DF938C017B01C0E0D0E0F70178
:10516000EC0FFD1F6491662361F0D801ED91FC9175
:105170000190F081E02DC8010995892B11F021964D
:10518000EECFCE01DF91CF911F910F91FF90EF9065
:105190000895DC01ED91FC91DB0114964D915C9139
:1051A00015976D917C910280F381E02D0994B8CF21
:1051B000DC01ED91FC910190F081E02D09946DEC02
:1051C00071E0AECF0F931F93CF93DF93EC01BDDF60
:1051D0008C01CE01F4DF800F911FDF91CF911F91E1
:1051E0000F9108958F929F92AF92BF92CF92DF92CC
:1051F000EF92FF920F931F93CF93DF93CDB7DEB75C
:10520000A1970FB6F894DEBF0FBECDBF7C01D42EA0
:10521000C52EDB0119A2223008F42AE08E010F5DB1
:105220001F4F822E912CA12CB12C6D2D7C2DCD01E8
:10523000A5019401D8D5D22EC32EDA01015011094F
:105240006A3071058105910510F4605D01C0695CEB
:10525000F8016083232B242B252B39F7B801C701D4
:105260005FDFA1960FB6F894DEBF0FBECDBFDF9112
:10527000CF911F910F91FF90EF90DF90CF90BF9053
:10528000AF909F908F900895CF92DF92EF92FF9210
:105290000F931F93CF93DF93EC016A017B012115DC
:1052A000310579F4E881F9810190F081E02D642FD6
:1052B000DF91CF911F910F91FF90EF90DF90CF90F2
:1052C00009942A303105D9F477FF18C06DE270DFF8
:1052D0008C0144275527BA014C195D096E097F09D5
:1052E0002AE0CE017FDF800F911FDF91CF911F91C8
:1052F0000F91FF90EF90DF90CF9008952AE0B701D3
:10530000A601CE01DF91CF911F910F91FF90EF90F9
:10531000DF90CF9067CF0F931F93CF93DF93EC0174
:105320009A01AB01770F660B770BAEDF8C01CE01D4
:1053300046DF800F911FDF91CF911F910F9108954C
:105340002115310541F4DC01ED91FC910190F081D2
:10535000E02D642F099446CF0F931F93CF93DF93D3
:10536000EC019A01AB0160E070E0EADF8C01CE0154
:1053700026DF800F911FDF91CF911F910F9108952C
:105380000F931F93CF93DF93EC01DADF8C01CE01F3
:1053900016DF800F911FDF91CF911F910F9108951C
:1053A0004F925F926F927F928F929F92AF92BF9235
:1053B000CF92DF92EF92FF92CF93DF93EC016A01DD
:1053C0007B01B22E9A01AB01C701B601B8DC88237C
:1053D00019F060ED71E024C026013701E89477F8F8
:1053E0002FEF3FEF4FE75FE7C301B201A8DC811168
:1053F0000CC02FEF3FEF4FE75FE7C301B201E9DADF
:1054000018161CF464ED71E00BC02FEF3FEF4FE76F
:105410005FE4C701B6012CDC181694F468ED71E066
:10542000CE01DF91CF91FF90EF90DF90CF90BF90B2
:10543000AF909F908F907F906F905F904F9070CEC5
:105440002FEF3FEF4FE75FECC701B601C2DA87FDF0
:10545000E5CF20E030E0A901C701B601BADA87FF45
:1054600009C06DE2CE01A4DE4C01F7FAF094F7F822
:10547000F09402C0812C912CA12C60E070E080E0BF
:105480009FE3AB1439F020E030E040E251E4A5DACC
:10549000A394F7CF9B01AC01C701B60136DA2B010B
:1054A0003C0108DB6B017C0131DB9B01AC01C301DA
:1054B000B2012ADA2B013C012AE0B701A601CE0194
:1054C00091DE7C01E80CF91CBB2031F06CED71E041
:1054D000CE0126DEE80EF91EDB2CDD2011F120E0E6
:1054E00030E040E251E4C301B201C6DB2B013C01D4
:1054F000DCDA4B01770FAA08BB082AE030E0B501DF
:10550000A401CE01C1DEE80EF91EC501B40100DB25
:105510009B01AC01C301B201F7D92B013C01DA9424
:10552000DCCFC701DF91CF91FF90EF90DF90CF905C
:10553000BF90AF909F908F907F906F905F904F90B3
:1055400008950F931F93CF93DF93EC0129DF8C0114
:10555000CE0135DE800F911FDF91CF911F910F910A
:1055600008951F920F920FB60F9211242F933F931D
:105570008F939F93AF93BF938091F2059091F30522
:10558000A091F405B091F5053091F10523E0230FCA
:105590002D3720F40196A11DB11D05C026E8230F6B
:1055A0000296A11DB11D2093F1058093F205909301
:1055B000F305A093F405B093F5058091F60590915D
:1055C000F705A091F805B091F9050196A11DB11D4F
:1055D0008093F6059093F705A093F805B093F9052D
:1055E000BF91AF919F918F913F912F910F900FBEDF
:1055F0000F901F9018952FB7F8946091F205709155
:10560000F3058091F4059091F5052FBF08953FB7FC
:10561000F8948091F6059091F705A091F805B09166
:10562000F90526B5A89B05C02F3F19F00196A11DCD
:10563000B11D3FBFBA2FA92F982F8827820F911D28
:10564000A11DB11DBC01CD0142E0660F771F881F6F
:10565000991F4A95D1F708958F929F92AF92BF926A
:10566000CF92DF92EF92FF926B017C01D0DF4B0172
:105670005C01C114D104E104F104F1F0B3D3C7DF3C
:10568000DC01CB0188199909AA09BB09883E93401E
:10569000A105B10570F321E0C21AD108E108F108B3
:1056A00088EE880E83E0981EA11CB11CC114D104A1
:1056B000E104F10421F7DDCFFF90EF90DF90CF9070
:1056C000BF90AF909F908F9008958230910538F0F1
:1056D000880F991F880F991F05970197F1F7089573
:1056E000789484B5826084BD84B5816084BD85B5BD
:1056F000826085BD85B5816085BDEEE6F0E0808184
:1057000081608083E1E8F0E01082808182608083A4
:10571000808181608083E0E8F0E080818160808327
:10572000E1EBF0E0808184608083E0EBF0E0808159
:1057300081608083EAE7F0E08081846080838081FB
:1057400082608083808181608083808180688083A3
:105750001092C10008958E3008F08E50877020910D
:105760000C0190E4299F90011124822B80937C00EE
:1057700080917A00806480937A0080917A0086FD1F
:10578000FCCF809178002091790090E0922B0895D1
:10579000833081F028F4813099F08230A1F00895AF
:1057A0008730A9F08830B9F08430D1F4809180003E
:1057B0008F7D03C0809180008F7780938000089553
:1057C00084B58F7702C084B58F7D84BD08958091A4
:1057D000B0008F7703C08091B0008F7D8093B000C0
:1057E0000895CF93DF9390E0FC01E05EFB4F24919E
:1057F000FC01EC5CFB4F8491882361F190E0880F01
:10580000991FFC01E45AFB4FC591D491FC01EE5A5B
:10581000FB4FA591B491611109C09FB7F89488819D
:10582000209582238883EC912E230BC0623061F493
:105830009FB7F8943881822F809583238883EC91D9
:105840002E2B2C939FBF06C08FB7F894E8812E2B88
:1058500028838FBFDF91CF9108951F93CF93DF935C
:10586000282F30E0F901E45FFB4F8491F901E05EFD
:10587000FB4FD491F901EC5CFB4FC491CC23C1F0F8
:10588000162F811185DFEC2FF0E0EE0FFF1FEE5A8F
:10589000FB4FA591B4918FB7F894111105C09C915D
:1058A000ED2FE095E92302C0EC91ED2BEC938FBF37
:1058B000DF91CF911F910895CF93DF93282F30E090
:1058C000F901E45FFB4F8491F901E05EFB4FD49155
:1058D000F901EC5CFB4FC491CC2389F0811158DFB6
:1058E000EC2FF0E0EE0FFF1FE85BFB4FA591B491AA
:1058F000EC91ED2381E090E021F480E002C080E0B3
:1059000090E0DF91CF910895FC0180819181B3C334
:10591000CF93DF93EC0188819981009709F0ABD395
:10592000198218821D821C821B821A82DF91CF91FC
:1059300008950F931F93CF93DF93EC018B016F5F5B
:105940007F4F888199812FD4009731F09983888384
:105950001B830A8381E001C080E0DF91CF911F911A
:105960000F910895CF93DF93EC0188819981892B62
:1059700029F08A819B818617970758F4CE01D9DFD9
:10598000882341F08C819D81892B19F4E881F9816C
:10599000108281E0DF91CF910895EF92FF920F93F3
:1059A0001F93CF93DF93EC017B018A01BA01DADF09
:1059B000811103C0CE01ACDF06C01D830C83B7018B
:1059C0008881998142D6CE01DF91CF911F910F91AD
:1059D000FF90EF900895FC011182108213821282D1
:1059E000158214826115710549F0FB0101900020B8
:1059F000E9F73197AF01461B570BCFCF0895CF93EF
:105A0000DF93EC01FB018617970751F060817181EC
:105A10006115710521F044815581BFDF01C078DF38
:105A2000CE01DF91CF910895FC0111821082138283
:105A3000128215821482E3CFCF93DF93EC016115BC
:105A4000710551F0FB0101900020E9F73197AF019A
:105A5000461B570BA2DF01C05BDFCE01DF91CF9168
:105A60000895EF92FF920F931F93CF93DF93CDB7DB
:105A7000DEB7A1970FB6F894DEBF0FBECDBF7C0195
:105A8000CB01BA01F70111821082138212821582B2
:105A9000148242E0420F8E010F5F1F4F38D2BC01CB
:105AA000C701CADFA1960FB6F894DEBF0FBECDBF07
:105AB000DF91CF911F910F91FF90EF900895EF929A
:105AC000FF920F931F93CF93DF93CDB7DEB7A197CC
:105AD0000FB6F894DEBF0FBECDBF7C01CB01BA017B
