S0140000576174657253656E736F72732E7372656320
S1130000CBC10000F1C10000EFC10000E5C4000055
S1130010E3C40000E1C40000E7C10000E5C1000042
S1130020E3C10000E1C10000DFC10000DDC1000048
S1130030DBC10000D9C10000D7C10000D5C1000058
S11300400C94422AD1C100000C945A270C948C279A
S1130050CBC10000C9C10000C7C10000C5C1000078
S1130060F6C10000C1C100002C032F032F032F038E
S11300702F032F032F032F0347022F032F032F03D5
S11300802F032F032F032F0347022F032F032F03C5
S11300902F032F032F032F034F022F032F032F03AD
S11300A02F032F032F032F0374022F032F032F0378
S11300B02F032F032F032F034F022F032F032F038D
S11300C02F032F032F032F0379022F032F032F0353
S11300D02F032F032F032F037E022F032F032F033E
S11300E02F032F032F032F038F022F032F032F031D
S11300F02F032F032F032F03B8022F032F032F03E4
S11301002F032F032F032F0383022F032F032F0308
S11301102F032F032F032F039D022F032F032F03DE
S11301202F032F032F032F03BA022F032F032F03B1
S11301302F032F032F032F03BA022F032F032F03A1
S11301402F032F032F032F03BA022F032F032F0391
S11301502F032F032F032F03BA022F032F032F0381
S11301602F032F032F032F03C3022F032F032F0368
S11301702F032F032F032F03F3022F032F032F0328
S11301802F032F032F032F03C3022F032F032F0348
S11301902F032F032F032F03F3022F032F032F0308
S11301A02F032F032F032F03DB022F032F032F0310
S11301B02F032F032F032F03F7022F032F032F03E4
S11301C02F032F032F032F03F7022F032F032F03D4
S11301D02F032F032F032F030C032F032F032F03AE
S11301E02F032F032F032F0326032F032F032F0384
S11301F02F032F032F032F03260308000000BE92B2
S11302002449123EABAAAA2ABECDCCCC4C3E000057
S11302100080BEABAAAAAA3E00000000BF000000F6
S1130220803F0000000000084178D3BB4387D1130E
S11302303D190E3CC3BD4282AD2B3E68EC8276BEB6
S1130240D98FE1A93E4C80EFFFBE01C4FF7F3F0080
S11302500000000007634236B79BD8A71A396856D6
S113026018AEBAAB558C1D3CB7CC5763BD6DEDFDD4
S1130270753EF6177231BF000000803F4E414E4973
S11302804E495459494E46CDCCCC3D0AD7233C1750
S1130290B7D13877CC2B329595E6241FB14F0A009D
S11302A00020410000C84200401C4620BCBE4CCA8D
S11302B01B0E5AAEC59D7420202020202020202013
S11302C0202020202020200050483A20004572722F
S11302D06F72206E756D62657220666F722074682D
S11302E06520617272617920746F20617672616732
S11302F0696E67212F6E00576174657253656E7362
S11303006F727300436F6D6D616E642077697468FA
S11303106F75742061747461636865642063616CD3
S11303206C6261636B005374617274204C6F676715
S1130330696E670000000008000201000003040762
S113034000000000000000000102040810204080AA
S1130350010204081020010204081020040404040B
S1130360040404040202020202020303030303035B
S113037000000000230026002900000000002500E2
S113038028002B0000000000240027002A00A404F9
S11303907D138C22BA279A2211241FBECFEFD8E0F6
S11303A0DEBFCDBF11E0A0E0B1E0E6E8F4E602C0B4
S11303B005900D92AE3AB107D9F727E0AEEAB1E065
S11303C001C01D92A03FB207E1F711E0CBECD1E0F0
S11303D004C02197FE010E94542CC73CD107C9F7E1
S11303E00E94E8270C9437320BCE6132C8F4209176
S11303F01B022430B9F46093D0016623A9F0FC01F8
S1130400A2EDB1E06150262F30E02F5F3F4F280F5F
S1130410391F91919D93E217F307D9F780E008956E
S113042081E0089582E0089580E0089585ED809349
S1130430BC00ECEBF0E0808184FDFDCF10921B0248
S1130440089585EC8093BC0010921B0208951F92BE
S11304500F920FB60F9211242F933F934F935F93F4
S11304606F937F938F939F93AF93BF93EF93FF9378
S11304708091B900E82FE87F8E2F90E0893C9105A8
S113048008F0EDC0FC01EC5CFF4F0C94542C8091FF
S11304901A028093BB0085EC8093BC00E0C090916D
S11304A0F3018091F201981780F4E091F30181E067
S11304B08E0F8093F301F0E0EC50FE4F8081809327
S11304C0BB0085EC8093BC00CAC0809119028823CC
S11304D011F0ACDFC4C081E08093180284EA8093F9
S11304E0BC0010921B02BBC080E28093AE019EDF71
S11304F0B6C080E38093AE0199DFB1C088E38093F6
S1130500AE019FDFACC0E091F30181E08E0F8093D8
S1130510F3018091BB00F0E0EC50FE4F808390919A
S1130520F3018091F201981720F485EC8093BC00CC
S113053096C085E88093BC0092C0E091F30181E00D
S11305408E0F8093F3018091BB00F0E0EC50FE4FDE
S1130550808380911902882311F068DF80C081E0D4
S11305608093180284EA8093BC0010921B0277C027
S11305705DDF75C083E080931B021092AF0185ECB0
S11305808093BC006CC08091AF01803280F4E09114
S1130590AF0181E08E0F8093AF018091BB00F0E04A
S11305A0E055FE4F808385EC8093BC0058C085E8FD
S11305B08093BC0054C045DF8091AF01803230F499
S11305C0E091AF01F0E0E055FE4F10826091AF0181
S11305D070E0E0911402F091150280EB91E009952E
S11305E01092AF013CC085E88093BC0038C084E021
S11305F080931B021092D1011092D001E091160257
S1130600F091170209958091D001811105C081E014
S11306108093D0011092D201E091D10181E08E0F3C
S11306208093D101F0E0EE52FE4F80818093BB00B5
S11306309091D1018091D001981720F485EC80939A
S1130640BC000DC085E88093BC0009C085EC809394
S1130650BC0010921B0203C01092AE01E7DEFF91B2
S1130660EF91BF91AF919F918F917F916F915F9126
S11306704F913F912F910F900FBE0F901F9018959F
S1130680A4E0B0E0E6E4F3E00C94742C9A8389834C
S11306907C836B8389819A812B813C81FC01338328
S11306A022832496E2E00C94902CA2E0B0E0EBE5E7
S11306B0F3E00C94742C9A83898389819A812AEAC1
S11306C031E0FC013183208389819A81FC0113820A
S11306D012822296E2E00C94902CA2E0B0E0E3E7D0
S11306E0F3E00C94742C9A83898389819A81DDDFE9
S11306F089819A8127E331E0FC01318320832981B8
S11307003A8188EE93E0A0E0B0E0F9018483958318
S1130710A683B7832296E2E00C94902CA2E0B0E08A
S1130720E4E9F3E00C94742C9A83898389819A8197
S1130730D4DF89819A8127E231E0FC01318320836F
S11307402296E2E00C94902CA3E0B0E0EAEAF3E015
S11307500C94742C9A8389836B8380916002882320
S1130760F9F080915F02803240F089819A8161E0E2
S113077070E086DF80E090E019C080915E02882FEF
S113078090E02B81825C9D4FFC01208380915E026E
S11307908F5F80935E0280915E0280935F0204C04B
S11307A0CE01039661E021DE81E090E02396E2E051
S11307B00C94902CA8E0B0E0E0EEF3E00C94742CE0
S11307C09C838B837E836D8358874F8380916002E3
S11307D0882329F11A8219821AC08B819C81FC0119
S11307E080819181FC01208131814D815E818981EB
S11307F09A81840F951FFC0140818B819C81642F19
S1130800F901099589819A8101969A8389832981BD
S11308103A818F81988528173907F8F205C02F810E
S11308208D819E81622FE1DD8F8198852896E2E09B
S11308300C94902CA2E0B0E0E0E2F4E00C94742C70
S11308409A83898380913D02282F30E080913C0275
S1130850882F90E0A901481B590BCA012296E2E0B7
S11308600C94902CA4E0B0E0E8E3F4E00C94742C35
S11308709C838B838FEF9FEF9A83898390913C02B3
S113088080913D02981788F480913C02882F90E073
S1130890845E9D4FFC018081882F90E09A83898338
S11308A080913C028F5F80933C0289819A812496D7
S11308B0E2E00C94902CA4E0B0E0E1E6F4E00C94C7
S11308C0742C9C838B838FEF9FEF9A838983909101
S11308D03C0280913D02981760F480913C02882F7D
S11308E090E0845E9D4FFC018081882F90E09A8384
S11308F0898389819A812496E2E00C94902CA2E069
S1130900B0E0E5E8F4E00C94742C9A838983229691
S1130910E2E00C94902CA4E0B0E0E1E9F4E00C9463
S1130920742C9A8389837C836B8389819A81019750
S113093039F48B819C81019619F481E692E0EEDE14
S11309402496E2E00C94902CA0E0B0E0EAEAF4E013
S11309500C94742C6FEF7FEF81E090E0DCDFE2E039
S11309600C94902CA2E0B0E0E8EBF4E00C94742C2E
S113097089836A832296E2E00C94902CA4E0B0E090
S1130980E4ECF4E00C94742C9C838B838B819C8129
S11309909A83898389819A810197F1F79A8389835C
S11309A02496E2E00C94902CA2E0B0E0EAEDF4E0AE
S11309B00C94742C9A83898389819A81FC0186859D
S11309C09785FC01208189819A81FC018585822398
S11309D02296E2E00C94902C1F920F9200905F00FC
S11309E00F9211242F933F934F935F936F937F93B1
S11309F08F939F93AF93BF93EF93FF93CF93DF9323
S1130A00CDB7DEB72B97DEBFCDBF80916D0290913D
S1130A106E02892B09F4F4C080916D0290916E02EC
S1130A209A8389831B8289819A81FC01868D8270D5
S1130A30882349F089819A81B7DF982F81E099232F
S1130A4051F480E008C089819A81AEDF982F81E05B
S1130A50992309F080E0882309F4D2C089819A811E
S1130A609D838C831E828E818823A1F08C819D813D
S1130A70FC01838994892C813D81F901238934897E
S1130A80F90140812C813D81F9012589242BFC0148
S1130A90208315C08C819D81FC01838994892C81DC
S1130AA03D81F90123893489F9012081422F2C8168
S1130AB03D81F901258920952423FC012083898126
S1130AC09A81FC018689978959DF61E08DE04ADFCC
S1130AD088E08F831FC089819A81FC01808D918D6C
S1130AE04DDF8B81882F90E0959587958B8361E00E
S1130AF08DE038DF89819A8157DF982F81E099232F
S1130B0009F480E0882319F08B8180688B838F81BE
S1130B1081508F838F818823F1F689819A81FC012A
S1130B20868D8270882319F08B8180958B838091C8
S1130B30AF02882F90E001968F739078992324F464
S1130B400197806C9F6F019688879091B00281E035
S1130B502885291709F480E0882369F08091AF0281
S1130B60882F90E081599D4F2B81FC01208388853B
S1130B708093AF020AC061E08BE0F4DE89819A8140
S1130B80FC01268D2160FC01268F89819A81FC015C
S1130B90828D938DF3DE61E08BE0E4DE89819A81BE
S1130BA09A87898781E08B878B858823A1F0898543
S1130BB09A85FC018389948929853A85F9012389D9
S1130BC03489F901408129853A85F9012589242B45
S1130BD0FC01208315C089859A85FC018389948949
S1130BE029853A85F90123893489F9012081422F25
S1130BF029853A85F901258920952423FC01208340
S1130C002B960FB6F894DEBF0FBECDBFDF91CF9108
S1130C10FF91EF91BF91AF919F918F917F916F91D0
S1130C205F914F913F912F910F9000925F000F9031
S1130C301F9018958F92AF92CF92EF920F93CF930C
S1130C40DF93CDB7DEB728970FB6F894DEBF0FBE9B
S1130C50CDBF9A8389836B834C832D830E83EF826C
S1130C60C88689819A8121DD89819A8127E431E0CE
S1130C70FC013183208389819A811F921F921F92E4
S1130C801F928884AF80CE80ED800C812FEF4B8142
S1130C9061E012D00F900F900F900F9028960FB62E
S1130CA0F894DEBF0FBECDBFDF91CF910F91EF90CF
S1130CB0CF90AF908F9008958F92AF92CF92EF9292
S1130CC00F93CF93DF93CDB7DEB72A970FB6F8947F
S1130CD0DEBF0FBECDBF9A8389836B834C832D8384
S1130CE00E83EF82C886A9868A8689819A812C819F
S1130CF0FC01248389819A812D81FC0125838981CA
S1130D009A812E81FC01268389819A812F81FC019D
S1130D10278389819A812885FC01208789819A818A
S1130D202985FC01218789819A812A85FC012287F2
S1130D3089819A812C89FC01238789819A812D8953
S1130D40FC01248789819A812E89FC012587898168
S1130D509A812F89FC0126878B81882329F0898138
S1130D609A81FC01178605C089819A8120E1FC01E2
S1130D70278789819A8120E041E060E10ED02A969C
S1130D800FB6F894DEBF0FBECDBFDF91CF910F91A8
S1130D90EF90CF90AF908F900895A7E0B0E0E3ED8F
S1130DA0F6E00C94722C9C838B836D834E832F838B
S1130DB08E81823050F08B819C81FC018785282FA5
S1130DC028608B819C81FC0127878B819C812E81EB
S1130DD0FC01238B8D81882F90E0AC01405C5F4F38
S1130DE08D81282F30E08B819C818A0140E450E082
S1130DF060E070E0E7D08F81882369F08E818130D4
S1130E0051F48B819C81FC018785282F24608B8180
S1130E109C81FC0127878B819C81FC01848161E09A
S1130E200E94822B8B819C81FC0185818F3F39F04C
S1130E308B819C81FC01858161E00E94822B8B81E6
S1130E409C81FC01868161E00E94822B1A821982B6
S1130E5011C02B813C8189819A81820F931F07964F
S1130E60FC01808161E00E94822B89819A81019634
S1130E709A8389838B819C81FC018785882F90E0EC
S1130E8080719927892B19F088E090E002C084E0F2
S1130E9090E029813A8128173907DCF280E593EC48
S1130EA00E94F62A8B819C81FC01848160E00E946F
S1130EB0BE2B8B819C81FC01868160E00E94BE2B4D
S1130EC08B819C81FC0185818F3F39F08B819C81D2
S1130ED0FC01858160E00E94BE2B8B819C81FC011A
S1130EE08785882F90E080719927892BE9F48B817D
S1130EF09C8163E091D184E991E10E94F62A8B817F
S1130F009C8163E089D184E991E10E94F62A8B8176
S1130F109C8163E081D186E990E00E94F62A8B816E
S1130F209C8162E079D126C08B819C81FC018785FC
S1130F30282F20628B819C81622FD6D084E991E195
S1130F400E94F62A8B819C81FC018785282F2062D0
S1130F508B819C81622FC8D086E990E00E94F62A9A
S1130F608B819C81FC018785282F20628B819C8149
S1130F70622FBAD08B819C81FC018785282F206247
S1130F808B819C81622FB0D08B819C8124E0FC01F9
S1130F90208B8B819C8188D08B819C813BD08B81E1
S1130FA09C8122E0FC01218B8B819C81FC01818945
S1130FB0282F24608B819C81622F96D02796E4E0B1
S1130FC00C948E2CAAE0B0E0E8EEF7E00C94722CBE
S1130FD09A8389837C836B835E834D8338872F83D5
S1130FE01A8709872B8189819A81FC01248B2D81A1
S1130FF089819A81FC01258B2F8189819A81FC0149
S1131000268B298589819A81FC01278B2A96E4E025
S11310100C948E2CA2E0B0E0E0E1F8E00C94742C87
S11310209A83898389819A8161E05ED080ED97E01B
S11310300E94F62A2296E2E00C94902CA6E0B0E0FE
S1131040E4E2F8E00C94742C9C838B836D834E83D0
S113105084E090E09A8389838E81843010F083E069
S11310608E838B819C81FC0193898E81891730F05A
S11310708B819C81FC01838981508E838E81882F92
S113108090E02B813C81820F931F4496FC01908158
S11310908D81890F8068282F8B819C81622F24D0B9
S11310A02696E2E00C94902CA2E0B0E0EAE5F8E0A9
S11310B00C94742C9A83898389819A81FC01808998
S11310C0282F246089819A81FC01208B89819A814F
S11310D0FC018089282F286089819A81622F04D09D
S11310E02296E2E00C94902CA3E0B0E0EAE7F8E06A
S11310F00C94742C9A8389836B8389819A8140E050
S11311006B8118D02396E2E00C94902CA3E0B0E01D
S1131110ECE8F8E00C94742C9A8389836B838981BE
S11311209A8141E06B8106D081E090E02396E2E071
S11311300C94902CA4E0B0E0E0EAF8E00C94742C59
S11311409A8389836B834C8389819A81FC0184818E
S11311506C810E94BE2B89819A81FC0185818F3F1D
S113116039F089819A81FC01858160E00E94BE2B5F
S113117089819A81FC018785882F90E08071992765
S1131180892B29F089819A816B8179D014C08B8154
S1131190882F90E095958795959587959595879552
S11311A095958795282F89819A81622F35D08981D9
S11311B09A816B8131D02496E2E00C94902CA2E0C9
S11311C0B0E0E5EEF8E00C94742C9A83898389816D
S11311D09A81FC01868160E00E94BE2B81E090E050
S11311E00E94F62A89819A81FC01868161E00E942D
S11311F0BE2B81E090E00E94F62A89819A81FC014D
S1131200868160E00E94BE2B84E690E00E94F62A6C
S11312102296E2E00C94902CA5E0B0E0E2E1F9E043
S11312200C94742C9C838B836D831A8219821CC04A
S11312308D81882F90E0098002C0959587950A9446
S1131240E2F7482F41702B813C8189819A81820F7A
S1131250931F0796FC018081642F0E94BE2B898115
S11312609A8101969A83898389819A81049704F3E8
S11312708B819C81A4DF2596E2E00C94902CA5E060
S1131280B0E0E5E4F9E00C94742C9C838B836D83CB
S11312901A8219821CC08D81882F90E0098002C0B7
S11312A0959587950A94E2F7482F41702B813C81EC
S11312B089819A81820F931F0796FC018081642F94
S11312C00E94BE2B89819A8101969A8389838981A0
S11312D09A81089704F38B819C8171DF2596E2E063
S11312E00C94902C0F93CF93DF93CDB7DEB7279751
S11312F00FB6F894DEBF0FBECDBF9A8389837C837B
S11313006B834D832E830F836B817C8189819A81CA
S11313100F812E814D810AD027960FB6F894DEBF37
S11313200FBECDBFDF91CF910F9108950F93CF934F
S1131330DF93CDB7DEB729970FB6F894DEBF0FBEA3
S1131340CDBF9C838B837E836D834F8328870987DE
S11313508B819C818A5A9D4FFC01118210828B8162
S11313609C818F5A9D4F2D813E81FC0131832083C6
S11313708B819C81FC0110868B819C818C5A9D4FB2
S11313802F81FC0120838B819C818D5A9D4F288560
S1131390FC0120838B819C818B5A9D4F2985FC0104
S11313A020838B819C8120E4FC0123838B819C819D
S11313B02FE3FC0124838B819C812ED08B819C8123
S11313C08A5A9D4FFC01118210821A82198212C01E
S11313D02B813C8189819A81845D9E4F880F991F5E
S11313E0820F931FFC011182108289819A810196D8
S11313F09A83898389819A81C29754F38B819C81D2
S1131400FC01178229960FB6F894DEBF0FBECDBF3C
S1131410DF91CF910F910895A2E0B0E0E2E1FAE00C
S11314200C94742C9A83898389819A81FC01128299
S113143089819A81845B9D4FFC011182108289818C
S11314409A81825B9D4FFC011182108289819A816D
S1131450865B9D4F21E0FC0120832296E2E00C9400
S1131460902CA4E0B0E0E7E3FAE00C94742C9A83A7
S113147089837C836B8389819A818A5A9D4F2B81CE
S11314803C81FC01318320832496E2E00C94902C6F
S1131490A5E0B0E0EEE4FAE00C94742C9A8389831E
S11314A06B835D834C838B81823380F48B81882FA3
S11314B090E029813A81845D9E4F880F991F820FA5
S11314C0931F2C813D81FC01318320832596E2E02A
S11314D00C94902CAEE0B0E0E0E7FAE00C94742CAD
S11314E09E878D8741C18D859E858F5A9D4FFC01B6
S11314F080819181FC01808191810496FC0120818D
S113150031818D859E858F5A9D4FFC01808191810B
S1131510F901099581159240C4F48D859E858F5AF1
S11315209D4FFC0180819181FC0180819181049611
S1131530FC01208131818D859E858F5A9D4FFC0150
S113154080819181F901099502C080E092E09C8339
S11315508B838D859E859C01275B3F4F8D859E8562
S11315608F5A9D4FFC01808191814B815C81B9012F
S11315700E941D2A1A821982EFC02D853E85898119
S11315809A81820F931F875B9F4FFC0120818D8579
S11315909E8598878F832C878F819885875B9D4F45
S11315A0FC0110828F8198859C012A5F3F4F8F81B7
S11315B098858B5A9D4FFC014081BE01645F7F4F2B
S11315C08F81988550D489878F8198858D5A9D4FB6
S11315D0FC0190818C85981799F5998581E089277C
S11315E0882371F18F819885FC018281882F90E096
S11315F02F813885820F931F0996FC0110828F81F9
S11316009885FC0182818823B9F08F819885875B56
S11316109D4F21E0FC0120838F8198859C01275FE9
S11316203F4F8F819885845B9D4FFC0131832083DC
S11316308F819885FC0116828F819885EDDE25C007
S11316408F819885FC018281882F90E04C852F81C1
S11316503885820F931F0996FC0140838F819885FA
S1131660FC01828121E0280F8F819885FC0122836F
S11316708F819885FC0122818F819885FC0184816A
S1131680281718F08F819885C7DE8F819885875B2E
S11316909D4FFC018081882F90E09E838D838D81F6
S11316A09E81019709F053C08D859E859B878A870B
S11316B08A859B8506D3282F8A859B85FC012183F7
S11316C08A859B85FC018181823378F58A859B8597
S11316D0855B9D4FFC018081882339F18A859B8538
S11316E0FC018181882F90E02A853B85845D9E4F93
S11316F0880F991F820F931FFC0180819181892B90
S1131700A1F08A859B85FC018181882F90E02A8540
S11317103B85845D9E4F880F991F820F931FFC01A8
S113172080819181FC01099512C08A859B858A5A22
S11317309D4FFC0180819181892B49F08A859B858D
S11317408A5A9D4FFC0180819181FC010995898110
S11317509A8101969A83898329813A818B819C811C
S11317602817390708F409CF8D859E85FC019781D8
S113177081E089278823D9F08D859E858F5A9D4FD6
S1131780FC0180819181FC01808191810496FC019E
S1131790208131818D859E858F5A9D4FFC018081EA
S11317A09181F9010995892B11F081E001C080E054
S11317B0882309F098CE2E96E2E00C94902CA4E0B5
S11317C0B0E0E5EEFBE00C94742C9C838B831A82CE
S11317D019828B819C81875B9D4FFC018081882FBE
S11317E090E0009719F0019719F00EC080E03FC017
S11317F08B819C8109969A8389838B819C81875BE9
S11318009D4F22E0FC0120838B819C81865B9D4F50
S1131810FC0180818823C1F08B819C819C01225B27
S11318203D4F8B819C818C5A9D4FFC014081698185
S11318307A818B819C81AED29C018B819C81845B5B
S11318409D4FFC01318320838B819C81845B9D4F60
S1131850FC0180819181892B49F08B819C81865B7D
S11318609D4F21E0FC01208381E001C080E02496AB
S1131870E2E00C94902CA3E0B0E0E1E4FCE00C94F2
S1131880742C9A8389836B8389819A81FC0190816A
S113189081E089278823B1F089819A8121E0FC01C4
S11318A0208389819A8121E0FC01278389819A819F
S11318B08F5A9D4FFC01808191814AE050E06B81F9
S11318C00E9417292396E2E00C94902CA8E0B0E043
S11318D0ECE6FCE00C94742C9A8389834B835C8340
S11318E06D837E8338872F8389819A81FC0180816F
S11318F08823E1F089819A818C5A9D4FFC012081D3
S113190089819A818F5A9D4FFC0180819181622F38
S11319100E9458282F8138858B819C81AD81BE819E
S1131920E981FA81AC01BD01CF01D4D22896E2E06D
S11319300C94902CA0E2B0E0E0EAFCE00C94742C4F
S11319409C8F8B8F6D8F4E8F38A32F8F19828B8D29
S11319509C8DFC018081882309F44AC18B8D9C8D68
S11319608D5A9D4FFC0120818B8D9C8D8F5A9D4FEC
S1131970FC0180819181622F0E9458288B8D9C8D5F
S1131980FC018085882349F08B8D9C8D8F5A9D4F57
S1131990FC01808191810E945F288D8D882309F448
S11319A027C18B8D9C8D9B838A838F8D98A19D836A
S11319B08C838E8D8E830E948C2ADC01CB018F83D5
S11319C09887A987BA878F819885A985BA858B87D7
S11319D09C87AD87BE871F86EDC00E948C2ADC01E0
S11319E0CB018F839887A987BA878A819B81998B3A
S11319F0888B8E818A8B888999898F5A9D4FFC01A7
S1131A0080819181FC01808191810496FC01208177
S1131A103181888999898F5A9D4FFC0180819181F8
S1131A20F901099521E0892B09F420E0222309F426
S1131A30BFC0888999898F5A9D4FFC01808191810B
S1131A40FC01808191810696FC0120813181888985
S1131A5099898F5A9D4FFC0180819181F9010995E3
S1131A60282F888999899C8B8B8B2A8F8B899C89B9
S1131A70875B9D4FFC0110828B899C899C012A5FA6
S1131A803F4F8B899C898B5A9D4FFC014081BE013D
S1131A90665E7F4F8B899C89E6D18D8B8B899C896F
S1131AA08D5A9D4FFC0190818A8D981799F59D89D7
S1131AB081E08927882371F18B899C89FC018281CB
S1131AC0882F90E02B893C89820F931F0996FC0193
S1131AD010828B899C89FC0182818823B9F08B89CF
S1131AE09C89875B9D4F21E0FC0120838B899C8925
S1131AF09C01275F3F4F8B899C89845B9D4FFC0130
S1131B00318320838B899C89FC0116828B899C8973
S1131B1083DC25C08B899C89FC018281882F90E01D
S1131B204A8D2B893C89820F931F0996FC014083BF
S1131B308B899C89FC01828121E0280F8B899C89F7
S1131B40FC0122838B899C89FC0122818B899C89DD
S1131B50FC018481281718F08B899C895DDC8B89B2
S1131B609C89875B9D4FFC018081882F90E09F8B2F
S1131B708E8B8E899F890197C9F488899989A1D010
S1131B80998F888F8A89882F90E0288D398D28171E
S1131B90390751F488899989855B9D4FFC018081BF
S1131BA0882311F081E005C080E003C080E001C01B
S1131BB080E08F872F81388549855A858B859C8560
S1131BC0AD85BE85281B390B4A0B5B0B8C819D812F
S1131BD0CC01A0E0B0E0281739074A075B0730F4CE
S1131BE09F8581E08927882309F0F7CE8F85898333
S1131BF08B8D9C8DFC0117828B8D9C8DFC0110823A
S1131C008981A096E2E00C94902CA9E0B0E0EBE08E
S1131C10FEE00C94742C9E838D8378876F834987B0
S1131C201A8219821B821C828D819E81FC0115827D
S1131C308D819E819C012B5F3F4F8D819E818B5AAC
S1131C409D4FFC0140816F8178858D819E810BD1F0
S1131C508B838F819885FC018081882339F49B8153
S1131C6081E08927882311F081E001C080E08C8322
S1131C708C81882319F089819A811FC08F8198856E
S1131C80FC0120818D819E818C5A9D4FFC018081B5
S1131C90281741F49B8181E08927882319F08981E1
S1131CA09A810BC08F819885019698878F8389814B
S1131CB09A8101969A838983BBCF2996E2E00C949A
S1131CC0902CA2E0B0E0E7E6FEE00C94742C9A833A
S1131CD0898389819A8173DD8823C1F089819A81FE
S1131CE0865B9D4F21E0FC01208389819A81855B7D
S1131CF09D4F21E0FC01208389819A81845B9D4F63
S1131D00FC01808191810E94312F08C089819A81D0
S1131D10855B9D4FFC01108280E090E02296E2E01A
S1131D200C94902CA2E0B0E0E8E9FEE00C94742C52
S1131D309A83898389819A8142DD8823E1F08981AC
S1131D409A81865B9D4F21E0FC01208389819A81E1
S1131D50855B9D4F21E0FC01208389819A81845B0E
S1131D609D4FFC018081918160E070E00E94D72D3D
S1131D70DC01CB0109C089819A81855B9D4FFC01FF
S1131D80108280E090E0DC01BC01CD012296E2E00B
S1131D900C94902CA9E0B0E0E0EDFEE00C94742CDF
S1131DA09C838B837E836D834F83398728878D81C2
S1131DB09E81892B39F488859985FC0180819181E4
S1131DC09E838D8305C08D819E8101969E838D8324
S1131DD02D813E818B819C814F81B90116DF892B36
S1131DE041F48D819E81FC018081882311F081E082
S1131DF001C080E0882339F78D819E81FC018081B8
S1131E00882319F480E090E02AC08D819E819A8312
S1131E1089832D813E818B819C814F81B901F5DEBF
S1131E209C018D819E81820F931F9E838D838D8162
S1131E309E81FC018081882349F08D819E819C01D3
S1131E402F5F3F4F3E832D83FC0110828885998547
S1131E502D813E81FC013183208389819A812996D9
S1131E60E2E00C94902CA8E0B0E0E9E3FFE00C94ED
S1131E70742C9B838A837D836C834E8338872F8362
S1131E808F819885FC01208181E09E81291709F0CA
S1131E9080E089838C819D81FC0120818F819885DC
S1131EA0FC0120838F819885FC0120818A819B819C
S1131EB08B5A9D4FFC018081281739F4898188232E
S1131EC021F08F819885FC01108289812896E2E0B7
S1131ED00C94902CCF92DF92EF92FF921F93CF93AA
S1131EE0DF93CDB7DEB7EA970FB6F894DEBF0FBE27
S1131EF0CDBF9CAB8BAB4DAB5EAB6FAB78AF3AAFAA
S1131F0029AF8DA99EA9AFA9B8AD20E030E0A90101
S1131F10BC01CD010E940D23882374F46DE284E496
S1131F2097E00E9458288DA99EA9AFA9B8ADB058D2
S1131F308DAB9EABAFABB8AF8DA99EA9AFA9B8AD21
S1131F406C017D01E894F7F811E02FEF3FEF4FE7C4
S1131F505FE7C701B6010E945A25882359F42FEF81
S1131F603FEF4FE75FE7C701B6010E940D23181644
S1131F700CF410E081E08127882339F069E071E0F6
S1131F8084E497E00E9457287DC18DA99EA9AFA93A
S1131F90B8AD2DA93EA94FA958ADBC01CD010E94F1
S1131FA05A25882339F06DE071E084E497E00E94BB
S1131FB0572868C189AD9AAD079720F086E090E074
S1131FC09AAF89AF89AD9AADCC01A0E0B0E0BC0175
S1131FD0CD010E94AA23DC01CB019C01AD0160E08C
S1131FE070E080E291E40E940E25DC01CB01BC018B
S1131FF0CD010E947923DC01CB018F87988BA98BBB
S1132000BA8B8DA99EA9AFA9B8AD20E030E0A90193
S1132010BC01CD010E945C2418168CF48DA99EA9E4
S1132020AFA9B8AD11E020E030E040E251E4BC01DA
S1132030CD010E940D23882394F010E010C08DA9D7
S11320409EA9AFA9B8AD11E020E030E040E251EC28
S1132050BC01CD010E945C2418160CF010E0112381
S113206019F01A82198212C08DA99EA9AFA9B8AD20
S1132070BC01CD010E946024DC01CB01BC01CD0177
S11320800E947923DC01CB019A838983CDA8DEA841
S1132090EFA8F8AC89819A81092E000CAA0BBB0B1E
S11320A0BC01CD010E94AC23DC01CB019C01AD013C
S11320B060E070E080E291E40E940E25DC01CB0137
S11320C09C01AD01C701B6010E941123DC01CB01C3
S11320D08B839C83AD83BE8320E030E040E85FE3E4
S11320E06B817C818D819E810E940D23882304F560
S11320F020E030E0A9016B817C818D819E810E946A
S11321000D238823A9F020E030E040E251E46B8104
S11321107C818D819E810E94AB24DC01CB018B8369
S11321209C83AD83BE8389819A8101979A83898335
S11321306B817C818D819E810E947923DC01CB019E
S11321408F839887A987BA876F81788589859A85CF
S11321500E94AC23DC01CB019C01AD016B817C812D
S11321608D819E810E94A822DC01CB016C017D013E
S11321706F85788989899A890E94AC23DC01CB0117
S11321809C01AD01C701B6010E94AB24DC01CB0167
S113219020E030E040E05FE3BC01CD010E94A922D1
S11321A0DC01CB01BC01CD010E947923DC01CB0110
S11321B08B879C87AD87BE878B859C85AD85BE85C7
S11321C084369105A105B10579F48F819885A98597
S11321D0BA850196A11DB11D8F839887A987BA87F7
S11321E01B861C861D861E868AAD8F9389AD8F93B0
S11321F081E191E0892F8F9381E191E08F93CE016A
S11322004396292F2F938F930E94762F0F900F9030
S11322100F900F900F900F908A818F9389818F93E5
S11322208E858F938D858F938C858F938B858F93DC
S11322308A858F9389858F9388858F938F818F93D8
S1132240CE014396292F2F938F93CE018396292F66
S11322502F938F930E94762F8DB79EB70E960FB64D
S1132260F894DEBF0FBECDBF8BA99CA98F5A9D4F9A
S1132270FC01808191819C01CE018396BC01C9013E
S11322800E945728EA960FB6F894DEBF0FBECDBF62
S1132290DF91CF911F91FF90EF90DF90CF90089541
S11322A0A4E0B0E0E6E5F1E10C94742C9A83898310
S11322B07C836B832B813C8189819A81B90104D011
S11322C02496E2E00C94902CA4E0B0E0EAE6F1E17C
S11322D00C94742C9A8389837C836B838B819C817B
S11322E09C012F5F3F4F89819A81B90150D0882387
S11322F059F089819A816BD09C018B819C81820FDA
S1132300931F0E94183201C080E02496E2E00C94EE
S1132310902CA5E0B0E0EFE8F1E10C94742C9A83E2
S113232089837C836B834D832B813C8189819A8152
S11323304D81B90104D02596E2E00C94902CA5E0DF
S1132340B0E0E5EAF1E10C94742C9A8389837C83F0
S11323506B834D838B819C819C012F5F3F4F8981CF
S11323609A81B90114D0882369F089819A812FD088
S11323709C018B819C81820F931F6D810E94293265
S113238081E001C080E02596E2E00C94902CA4E06A
S1132390B0E0EDECF1E10C94722C9A8389837C8398
S11323A06B8389819A8113D09C018B819C818901E3
S11323B0080F191F89819A811BD021E0081719077A
S11323C008F020E0822F2496E4E00C948E2CA2E006
S11323D0B0E0EDEEF1E10C94742C9A838983898149
S11323E09A81FC01808191812296E2E00C94902CE8
S11323F0A2E0B0E0EEEFF1E10C94742C9A838983AF
S113240089819A81FC01828193812296E2E00C9475
S1132410902CA0E0B0E0EFE0F2E10C94742C81EB9E
S113242092E0FC018081882351F460E070E08BEB42
S113243092E0D8D081EB92E021E0FC0120838BEB89
S113244092E0E2E00C94902CA4E0B0E0EAE2F2E145
S11324500C94722C9A8389837C836B8389819A81FF
S1132460FC010481158189819A81ABD0C1DF0817F1
S11324701907A0F489819A81FC01248135818B811B
S11324809C81280F391F89819A81FC01358324831B
S113249089819A81FC018481958105C089819A8111
S11324A0FC01848195812496E4E00C948E2CA2E0B6
S11324B0B0E0EDE5F2E10C94742C9A8389832296C2
S11324C0E2E00C94902CA2E0B0E0E9E6F2E10C9496
S11324D0742C9A8389832296E2E00C94902CA2E0D7
S11324E0B0E0E5E7F2E10C94742C9A838983229698
S11324F0E2E00C94902CA2E0B0E0E1E8F2E10C946C
S1132500742C9A83898389819A812FE431E0FC01B8
S1132510318320837EDF9C0189819A81FC0133838E
S1132520228389819A81FC01158214822296E2E039
S11325300C94902CA2E0B0E0E0EAF2E10C94742C4C
S11325409A83898389819A812FE431E0FC01318364
S1132550208380E090E0892B21F089819A810E9478
S1132560F2272296E2E00C94902CA2E0B0E0EBEB90
S1132570F2E10C94742C9A83898389819A81DADF3D
S113258089819A810E94F2272296E2E00C94902C91
S1132590A2E0B0E0EEECF2E10C94742C9A8389830F
S11325A089819A81FC01808191810296FC012081BC
S11325B0318189819A81F90109952296E2E00C948E
S11325C0902CA2E0B0E0E7EEF2E10C94742C9A8334
S11325D0898389819A81FC01828193812296E2E038
S11325E00C94902CA4E0B0E0E8EFF2E10C94742C8D
S11325F09A8389837C836B8389819A812B813C8133
S1132600FC01318320830AD09C0189819A81FC01D9
S1132610338322832496E2E00C94902CA0E0B0E073
S1132620E4E1F3E10C94742C80E094E0E2E00C9497
S1132630902CA6E0B0E0EFE1F3E10C94742C9A83C3
S113264089837C836B835E834D838B819C819C0116
S11326502C5F3F4F89819A81B90199DE982F81E0DF
S11326608927882311F080E009C04D815E812B8188
S11326703C8189819A81B90105D081E02696E2E006
S11326800C94902CA6E0B0E0E8E4F3E10C94742CF4
S11326909A8389837C836B835E834D8389819A814A
S11326A096DE9C018B819C81820F931F9C018D81FE
S11326B09E8144E050E0B9010E9408322696E2E08F
S11326C00C94902CA4E0B0E0E8E6F3E10C94742CB4
S11326D09A8389837C836B8389819A81019749F4E6
S11326E08B819C81019629F494DE9093BA028093A5
S11326F0B9022496E2E00C94902CA0E0B0E0E3E868
S1132700F3E10C94742C6FEF7FEF81E090E0DADF5B
S1132710E2E00C94902CA0E0B0E0E1E9F3E10C9449
S1132720742C0E948C2ADC01CB01BC01CD01E2E0B7
S11327300C94902CA8E0B0E0E0EAF3E10C94742C43
S113274098878F838F8198852DE531E0FC01318353
S11327502083E1DFDC01CB018B839C83AD83BE83CB
S11327601A8219823DC02F81388589819A81820F0E
S1132770931F82579F4FFC0110822F8138858981D6
S11327809A814596880F991F820F931FFC0111822D
S113279010822F81388589819A81880F991F880F2B
S11327A0991F820F931F9C012E5F3F4F8B819C8149
S11327B0AD81BE81F90180839183A283B3832F818C
S11327C0388589819A81CD96880F991F820F931F2E
S11327D0FC011182108289819A8101969A838983EE
S11327E089819A810A970CF4BECF8F81988584558C
S11327F09F4FFC01118210822896E2E00C94902CE9
S1132800A8E0B0E0E6E0F4E10C94702C98878F83A4
S113281082DFDC01CB018B839C83AD83BE831A8270
S1132820198225C12F81388589819A81845B9F4FC4
S1132830880F991F820F931FFC01118210822F8130
S1132840388589819A814596880F991F820F931F35
S1132850FC0180819181892B09F404C12F81388581
S113286089819A81880F991F880F991F820F931F5E
S11328700296FC0180819181A281B3812B813C81EC
S11328804D815E8179018A01E81AF90A0A0B1B0B52
S1132890D801C7014F81588529813A81220F331FFE
S11328A0220F331F240F351F225C3F4FF901208173
S11328B031814281538182179307A407B50708F435
S11328C0D1C02F81388589819A81880F991F880FFB
S11328D0991F820F931F0296FC0180819181A2812E
S11328E0B3814F81588529813A81220F331F220FEA
S11328F0331F240F351F225C3F4FF90120813181A2
S113290042815381820F931FA41FB51F4F815885A5
S113291029813A81220F331F220F331F240F351FC1
S11329202E5F3F4FF90180839183A283B3832F816C
S1132930388589819A81820F931F82579F4FFC01AA
S11329408081882309F48EC02F81388589819A81FA
S1132950C396880F991F820F931FFC018081918178
S1132960892B81F42F81388589819A81845B9F4FDB
S1132970880F991F820F931F21E030E0FC013183FF
S1132980208370C02F81388589819A81CD96880FE4
S1132990991F820F931FFC01208131814F8158853B
S11329A089819A81C396880F991F840F951FFC0112
S11329B080819181281739070CF054C02F81388504
S11329C089819A81845B9F4F880F991F820F931F7F
S11329D021E030E0FC01318320832F813885898117
S11329E09A81CD96880F991F820F931FFC018081D5
S11329F091819C012F5F3F4F4F81588589819A8136
S1132A00CD96880F991F840F951FFC013183208375
S1132A102F81388589819A81CD96880F991F820FDD
S1132A20931FFC01208131814F81588589819A81CE
S1132A30C396880F991F840F951FFC018081918193
S1132A40281739077CF02F81388589819A81845B26
S1132A509F4F880F991F820F931F22E030E0FC01E3
S1132A603183208389819A8101969A83898389811C
S1132A709A810A970CF4D6CE1A82198246C02F8105
S1132A80388589819A81845B9F4F880F991F820FB3
S1132A90931FFC01808191818130910519F0029787
S1132AA081F02EC02F81388589819A814596880FBF
S1132AB0991F820F931FFC0180819181FC0109956C
S1132AC01FC02F81388589819A814596880F991F67
S1132AD0820F931FFC0180819181FC0109958F81F4
S1132AE09885FC01808191810896FC0120813181C7
S1132AF049815A818F819885BA01F90109950000AD
S1132B0089819A8101969A83898389819A810A9716
S1132B100CF4B5CF2896E6E00C948C2CA4E0B0E03D
S1132B20E4E9F5E10C94742C9C838B838B819C8168
S1132B3084559F4FFC01808191810A971CF08FEF8F
S1132B409FEF1FC01A82198216C02B813C81898194
S1132B509A814596880F991F820F931FFC018081EB
S1132B609181892B19F489819A810BC089819A8179
S1132B7001969A83898389819A810A9734F38FEF26
S1132B809FEF2496E2E00C94902CACE0B0E0EBECE8
S1132B90F5E10C94722C9C838B834D835E836F834D
S1132BA078873A8729871C870B878B819C81B6DFBE
S1132BB09A83898389819A8199231CF48FEF9FEFEB
S1132BC06BC089859A85892B19F48FEF9FEF64C0B8
S1132BD02B813C8189819A81880F991F880F991FC5
S1132BE0820F931F9C01225C3F4F8D819E81AF8198
S1132BF0B885F90180839183A283B3832B813C81BF
S1132C0089819A814596880F991F820F931F298580
S1132C103A85FC01318320832B813C8189819A810F
S1132C20C396880F991F820F931F2B853C85FC0147
S1132C30318320832B813C8189819A81820F931F68
S1132C4082579F4F21E0FC01208365DDDC01CB012D
S1132C504B815C8129813A81220F331F220F331F5C
S1132C60240F351F2E5F3F4FF90180839183A28388
S1132C70B3838B819C8184559F4FFC01808191811A
S1132C809C012F5F3F4F8B819C8184559F4FFC019A
S1132C903183208389819A812C96E4E00C948E2CD4
S1132CA0A8E0B0E0E6E5F6E10C94702C9A83898301
S1132CB04B835C836D837E8338872F8389819A81DC
S1132CC0DC018D919C910696DC01ED91FC912F81A4
S1132CD038858B819C81AD81BE81E980FA8000E0DA
S1132CE010E0AC01BD01C70109952896E6E00C94FB
S1132CF08C2CA8E0B0E0EFE7F6E10C94702C9A83FA
S1132D0089834B835C836D837E8338872F8389819A
S1132D109A81DC018D919C910696DC01ED91FC91E8
S1132D202F8138858B819C81AD81BE81E980FA80B9
S1132D3001E010E0AC01BD01C70109952896E6E069
S1132D400C948C2CA4E0B0E0E8EAF6E10C94742C2A
S1132D509A8389837C836B838B819C810A970CF093
S1132D6069C089819A8184559F4FFC01808191813A
S1132D70892B09F45FC029813A818B819C81459616
S1132D80880F991F820F931FFC0180819181892BE9
S1132D9009F450C029813A818B819C814596880F22
S1132DA0991F820F931FFC011182108229813A819D
S1132DB08B819C81820F931F82579F4FFC0110824D
S1132DC029813A818B819C81845B9F4F880F991F55
S1132DD0820F931FFC011182108229813A818B8119
S1132DE09C81880F991F880F991F820F931FCE967D
S1132DF0FC01108211821282138229813A818B8113
S1132E009C81CD96880F991F820F931FFC0111821C
S1132E10108289819A8184559F4FFC018081918120
S1132E209C012150310989819A8184559F4FFC016D
S1132E30318320832496E2E00C94902CA4E0B0E04B
S1132E40E4E2F7E10C94742C9A8389837C836B838A
S1132E508B819C810A970CF014C05DDCDC01CB01F2
S1132E6049815A812B813C81220F331F220F331F4A
S1132E70240F351F2E5F3F4FF90180839183A28376
S1132E80B3832496E2E00C94902CA4E0B0E0EBE44D
S1132E90F7E10C94742C9A8389837C836B838B81F4
S1132EA09C810A9714F080E00AC029813A818B81C1
S1132EB09C81820F931F82579F4FFC01808124962F
S1132EC0E2E00C94902CA4E0B0E0E9E6F7E10C9485
S1132ED0742C9A8389837C836B838B819C810A976E
S1132EE00CF00BC029813A818B819C81820F931F46
S1132EF082579F4F21E0FC0120832496E2E00C944A
S1132F00902CA4E0B0E0E7E8F7E10C94742C9A83E9
S1132F1089837C836B838B819C810A970CF00AC024
S1132F2029813A818B819C81820F931F82579F4F05
S1132F30FC0110822496E2E00C94902CCF92EF9244
S1132F400F93CF93DF9300D0CDB7DEB79A838983F5
S1132F5089819A810F2EF7E0CF2EF02D0F2EF6E007
S1132F60EF2EF02D05E024E049E068E00E941A0607
S1132F7089819A8123E731E0FC01318320838981AF
S1132F809A8108D00F900F90DF91CF910F91EF901D
S1132F90CF900895A2E0B0E0E0EDF7E10C94742C3A
S1132FA09A83898389819A8120E042E060E10E94CA
S1132FB0CD0689819A810E940A0889819A8140E01C
S1132FC060E00E941E082296E2E00C94902CA4E09B
S1132FD0B0E0EDEEF7E10C94742C9A8389837C8342
S1132FE06B832B8189819A81422F60E00E941E08A5
S1132FF027EB32E089819A81B9010E943328249613
S1133000E2E00C94902CA2E0B0E0E9E0F8E10C944A
S1133010742C9A83898389819A81FC0180819181AE
S1133020FC012081318189819A81F90109952296D7
S1133030E2E00C94902CA2E0B0E0E1E2F8E10C9420
S1133040742C9A83898389819A810B9677D52296E9
S1133050E2E00C94902CA2E0B0E0E1E3F8E10C94FF
S1133060742C9A83898389819A810B9660E08BD52D
S11330702296E2E00C94902CA2E0B0E0E2E4F8E1C5
S11330800C94742C9A83898389819A8134DA898196
S11330909A812BE731E0FC013183208389819A8175
S11330A00B96ABD589819A819C01255F3F4F89811D
S11330B09A81B901B3D52296E2E00C94902CA4E055
S11330C0B0E0E5E6F8E10C94742C9A8389837C8360
S11330D06B8389819A812AEA31E0FC013183208360
S11330E08B819C81FC012281338189819A81FC013D
S11330F0338322832496E2E00C94902CA4E0B0E085
S1133100E4E8F8E10C94742C9A8389837C836B83C0
S11331102B813C8189819A81B901D1DF89819A818E
S113312027E431E0FC01318320838B819C81FC0105
S1133130248189819A81FC0124838B819C81FC01F7
S1133140258189819A81FC0125838B819C81FC01E5
S1133150268189819A81FC01268389819A812B8128
S11331603C8148E0F9013796DC01179601900D92F5
S11331704A95E1F78B819C81FC01278589819A819D
S1133180FC0127878B819C81FC01208989819A819C
S1133190FC01208B8B819C81FC01218989819A818E
S11331A0FC01218B8B819C81FC01228989819A817C
S11331B0FC01228B8B819C81FC01238989819A816A
S11331C0FC01238B29813A818B819C81FC018489B8
S11331D09589A689B789F901848B958BA68BB78BC2
S11331E02496E2E00C94902CA4E0B0E0EAEFF8E13D
S11331F00C94742C9A8389837C836B832B813C810C
S113320089819A81B9017ADF89819A8123E731E042
S1133210FC01318320832496E2E00C94902CA9E0F5
S1133220B0E0E5E1F9E10C94722C9A8389837C8304
S11332306B835E834D832F831987088789819A81E5
S11332402B813C81FC013183208389819A818E55B5
S11332509F4FFC011182108289819A818C559F4F66
S11332602D813E81FC013183208389819A8182559D
S11332709F4F2F81FC01208389819A8181559F4F23
S1133280FBDE89819A818E539F4FFC01108211824B
S11332901282138289819A818A539F4F28853985A6
S11332A0B901A2DF89819A8182529F4FFC01108269
S11332B011821282138289819A8104D02996E4E0D2
S11332C00C948E2CA6E0B0E0E8E6F9E10C94732CA3
S11332D09E838D8361E08DE00E94822B8D819E818F
S11332E081559F4F90DE8D819E8186549F4FBED421
S11332F0FC0180819181A281B38189839A83AB830C
S1133300BC838D819E819C012E533F4F89819A817C
S1133310AB81BC81F90180839183A283B3838D81C6
S11333209E818E539F4FFC0180819181A281B38144
S113333011E09C01AD01BC01CD010E945A258823F6
S113334009F410E0112349F08D819E818E539F4F23
S1133350FC0110821182128213822696E3E00C94FF
S11333608F2CA6E0B0E0E7EBF9E10C94742C9A837F
S113337089834B835C836D837E8389819A819C01DD
S11333802E533F4F8B819C81AD81BE81F901808397
S11333909183A283B38389819A819C012E533F4FE9
S11333A089819A8186549F4FB9016FD489819A810A
S11333B081559F4FEDD82696E2E00C94902CA6E020
S11333C0B0E0E5EEF9E10C94742C9E838D838D813D
S11333D09E818A559F4FFC0180819181A281B38196
S11333E02D813E8122523F4FF9012081318142815A
S11333F05381BC01CD010E94A822DC01CB01898349
S11334009A83AB83BC8389819A81AB81BC81BC01E3
S1133410CD012696E2E00C94902CA4E1B0E0E3E127
S1133420FAE10C94742C9C8B8B8B8B899C8970D0C7
S1133430DC01CB0189839A83AB83BC8381E090E078
S11334409E838D8318861F8233C08F8198858C5903
S11334509F4F9A87898789859A85092E000CAA0B24
S1133460BB0BBC01CD010E94BD2A8B899C8950D025
S1133470DC01CB018B879C87AD87BE872B853C8580
S11334804D855E8569817A818B819C810E94A92208
S1133490DC01CB0189839A83AB83BC838D819E81BC
S11334A001969E838D838F819885019698878F835B
S11334B08F81988545974CF28D819E81092E000C51
S11334C0AA0BBB0BBC01CD010E94AC23DC01CB01D8
S11334D09C01AD0169817A818B819C810E941123B9
S11334E0DC01CB018F87988BA98BBA8B8B899C8944
S11334F09C012A553F4F8F859889A989BA89F9017A
S113350080839183A283B3836496E2E00C94902C2D
S1133510A8E0B0E0EEE8FAE10C94702C98878F8371
S11335208FEB92E0FC018081882389F40E948C2A2D
S1133530DC01CB018093CF029093D002A093D102FF
S1133540B093D2028FEB92E021E0FC0120830E9431
S11335508C2A9B01AC018091CF029091D002A09162
S1133560D102B091D20279018A01E81AF90A0A0B50
S11335701B0BD801C70121E08F369105A105B105C8
S113358008F420E0222309F4A3C080E590E09A83A4
S113359089838F8198858E559F4FFC01008111810D
S11335A098012F5F3F4F8F8198858E559F4FFC0167
S11335B0318320838F819885FC01808191810E94D1
S11335C03C2BAC012F813885C8010196880F991FC7
S11335D0820F931FFC01518340838F8198858E5500
S11335E09F4FFC012081318189819A8128173907F5
S11335F039F48F8198858E559F4FFC01118210827A
S11336008F8198859C012E5F3F4F49815A818F811C
S11336109885B9010BD1DC01CB0120E030E040EA10
S113362050E4BC01CD010E94AB24DC01CB0120E0BD
S113363030E040E854E4BC01CD01F3D7DC01CB0118
S11336402F81388526553F4FF90180839183A283CA
S1133650B3838F81988586559F4FFC01808191812A
S1133660A281B3819C01AD0160E070E080E290E44E
S11336706FD7DC01CB012CEE31E548E35EE3BC01FE
S1133680CD01CFD7DC01CB0120E030E040EE50E4A7
S1133690BC01CD015ED7DC01CB017C018D018F81A2
S11336A098858E539F4FFC0180819181A281B381C3
S11336B09C01AD01C801B7014CD7DC01CB018B8360
S11336C09C83AD83BE838B819C81AD81BE8109C007
S11336D08F8198858A559F4FFC0180819181A281B9
S11336E0B381BC01CD012896E6E00C948C2CA2E0B9
S11336F0B0E0EDE7FBE10C94742C9A838983898113
S11337009A8186559F4FFC0180819181A281B3816A
S1133710BC01CD012296E2E00C94902CA6E0B0E02E
S1133720E4E9FBE10C94742C9E838D838D819E814E
S113373046DEDC01CB0189839A83AB83BC8387ECAF
S113374092E0FC018081882389F40E948C2ADC01A8
S1133750CB018093D3029093D402A093D502B0936B
S1133760D60287EC92E021E0FC0120830E948C2A9F
S11337709B01AC018091D3029091D402A091D50217
S1133780B091D602281B390B4A0B5B0B8D819E81AD
S11337908C559F4FFC018081918180579E4F092E4B
S11337A0000CAA0BBB0B61E082179307A407B507B3
S11337B008F060E06623B1F18D819E8182559F4FB0
S11337C0FC0180818823C1F08D819E818A539F4FA3
S11337D060E070E0FCDB8D819E818A539F4F40E066
S11337E060E00E941E0828EC32E08D819E818A539D
S11337F09F4FB9010E9433288DE00E94ED2B982F32
S113380081E08927682F8DE00E94BE2B0E948C2ABC
S1133810DC01CB018093D3029093D402A093D50210
S1133820B093D6022696E2E00C94902CCF92DF92CD
S1133830EF92FF92CF93DF93CDB7DEB768970FB6C1
S1133840F894DEBF0FBECDBF988B8F877A8B698BC0
S11338505C8B4B8B1F82188619861A868B899C89F0
S1133860181619065CF08DEC92E0BC0184E497E034
S11338700E94622880E090E0DC0127C18B899C894A
S113388005970CF048C01A82198220C089819A8158
S1133890880F991F29893A89820F931FFC0180811F
S11338A09181092E000CAA0BBB0B2F813885498509
S11338B05A85820F931FA41FB51F8F839887A987EA
S11338C0BA8789819A8101969A83898329813A8169
S11338D08B899C8928173907CCF28B899C899C0198
S11338E0990F440B550B8F819885A985BA85BC0126
S11338F0CD010E94382CDA01C901BC01CD012CD7BD
S1133900DC01CB018B879C87AD87BE878B859C852B
S1133910AD85BE85DAC089899A89FC01208131810F
S113392089899A890296FC01808191812817390737
S11339307CF489899A89FC01808191819E838D839D
S113394089899A89FC01828193819C838B830EC02F
S113395089899A89FC01828193819E838D838989D7
S11339609A89FC01808191819C838B8382E090E021
S11339709A83898380C089819A81880F991F2989B4
S11339803A89820F931FFC01208131818D819E81B0
S11339902817390704F58D819E81092E000CAA0B86
S11339A0BB0B2F81388549855A85820F931FA41F2D
S11339B0B51F8F839887A987BA8789819A81880FD1
S11339C0991F29893A89820F931FFC018081918173
S11339D09E838D834BC089819A81880F991F298981
S11339E03A89820F931FFC01208131818B819C8154
S11339F08217930704F58B819C81092E000CAA0B76
S1133A00BB0B2F81388549855A85820F931FA41FCC
S1133A10B51F8F839887A987BA8789819A81880F70
S1133A20991F29893A89820F931FFC018081918112
S1133A309C838B831BC089819A81880F991F298954
S1133A403A89820F931FFC0180819181092E000C19
S1133A50AA0BBB0B2F81388549855A85820F931F8A
S1133A60A41FB51F8F839887A987BA8789819A81F4
S1133A7001969A83898329813A818B899C892817A5
S1133A8039070CF478CF6F81788589859A8564D657
S1133A906B017C018B899C890297092E000CAA0B6F
S1133AA0BB0BBC01CD0158D6DC01CB019C01AD019F
S1133AB0C701B601B6D5DC01CB018B879C87AD87E6
S1133AC0BE878B859C85AD85BE85BC01CD0168967E
S1133AD00FB6F894DEBF0FBECDBFDF91CF91FF903C
S1133AE0EF90DF90CF900895A6E0B0E0EAE7FDE123
S1133AF00C94742C9A8389837C836B835E834D83BB
S1133B008B819C819C012C5F3F4F89819A81B901F3
S1133B100E94C711982F81E08927882311F080E043
S1133B2009C04D815E812B813C8189819A81B901D3
S1133B30CAD081E02696E2E00C94902CA2E0B0E09A
S1133B40E4EAFDE10C94722C9A83898389819A8139
S1133B50FC0180819181892B91F089819A818C016A
S1133B600C5F1F4F89819A81CFD09C0189819A81F2
S1133B70FC0180819181A801B9010E941913229648
S1133B80E4E00C948E2CA3E0B0E0E9ECFDE10C94AD
S1133B90722C9A8389836B8389819A81FC01808149
S1133BA09181892B31F18B81882391F089819A81CC
S1133BB08C010C5F1F4F89819A81A6D09C01898159
S1133BC09A81FC0180819181A801B9018DDF11C026
S1133BD089819A818C010C5F1F4F89819A8194D0CD
S1133BE09C0189819A81FC0180819181A801B9019C
S1133BF09CD02396E4E00C948E2CA2E0B0E0E3E0A9
S1133C00FEE10C94742C9A83898389819A81FC0146
S1133C10118210822296E2E00C94902CA4E0B0E091
S1133C20E4E1FEE10C94742C9A8389837C836B8396
S1133C3089819A81FC01228133818B819C81B90124
S1133C40D6D089819A81FC01248135818B819C8124
S1133C50B901E2D089819A8164E070E00E94241263
S1133C608B819C812496E2E00C94902CA2E0B0E03D
S1133C70ECE3FEE10C94742C9A83898389819A8104
S1133C8004962296E2E00C94902CA4E0B0E0EBE4DD
S1133C90FEE10C94742C9A8389837C836B838B81DF
S1133CA09C81FC0180819181A281B38129813A8127
S1133CB0F90184839583A683B78389819A812496A5
S1133CC0E2E00C94902CA6E0B0E0E9E6FEE10C946E
S1133CD0742C9A8389837C836B835E834D8389816F
S1133CE09A810E94E7119C018B819C81820F931F12
S1133CF09C018D819E8144E050E0B9010E942032F4
S1133D002696E2E00C94902CA2E0B0E0EAE8FEE112
S1133D100C94742C9A83898389819A81FC01828111
S1133D2093812296E2E00C94902CACE0B0E0EBE9B5
S1133D30FEE10C94742C98878F837A8769875C875B
S1133D404B8789859A859C012C5F3F4F8F8198858D
S1133D50B9010E94C711982F81E08927882319F09F
S1133D6080E090E040C08B859C859A8389831C8287
S1133D701B821E821D8231C029853A858F819885D8
S1133D80B9010E945011282F89819A81FC019081E8
S1133D9081E0291709F480E0882381F089819A81E0
S1133DA0FC01408129853A858F819885B9010E945B
S1133DB089118B819C8101969C838B8389859A854B
S1133DC001969A87898789819A8101969A83898342
S1133DD08D819E8101969E838D838D819E81049722
S1133DE058F28B819C812C96E2E00C94902CA4E0F8
S1133DF0B0E0EDEFFEE10C94742C9A8389837C830C
S1133E006B8389819A812B813C81FC0131832083DE
S1133E102496E2E00C94902CA4E0B0E0E2E1FFE10F
S1133E200C94742C9A8389837C836B8389819A8113
S1133E302B813C81FC01338322832496E2E00C94A1
S1133E40902CA2E0B0E0E7E2FFE10C94742C9A839A
S1133E50898389819A812BE731E0FC0131832083B6
S1133E6089819A810E949A1280E090E0892B21F046
S1133E7089819A810E94F2272296E2E00C94902C88
S1133E80A2E0B0E0E6E4FFE10C94742C9A83898309
S1133E9089819A81D6DF89819A810E94F2272296AC
S1133EA0E2E00C94902CA6E0B0E0E9E5FFE10C948C
S1133EB0742C9A8389834B835C836D837E838B818B
S1133EC09C81AD81BE81E981FA8126E0AC01BD010E
S1133ED0CF018DD72696E2E00C94902CA2E0B0E0BE
S1133EE0E4E7FFE10C94742C9A83898381E02296A1
S1133EF0E2E00C94902CA0E0B0E0E1E8FFE10C9447
S1133F00742C1ED0E2E00C94902CA0E0B0E0EBE81E
S1133F10FFE10C94742C81ED93E00E946A0A48EE50
S1133F2053E060E070E08EE896E036D1882329F013
S1133F3080918D06882309F043D0E2E00C94902C04
S1133F40A0E0B0E0E6EAFFE10C94742C65E870E2CE
S1133F5081ED93E00E94310A41EA50E262E081ED92
S1133F6093E00E94480A42E550E264E081ED93E068
S1133F700E94480A44EC5FE166E081ED93E00E9410
S1133F80480AE2E00C94902CEF92FF920F93CF93A7
S1133F90DF93CDB7DEB787EF92E00F2EF8E8EF2E70
S1133FA0F3E1FF2EF02D01E020E0AC0166E081EDAD
S1133FB093E079D1DF91CF910F91FF90EF90089525
S1133FC0ACE0B0E0E6EEFFE10C94702C8FEE92E0F2
S1133FD0F6D9DC01CB0189839A83AB83BC830E942D
S1133FE08C2A9B01AC018091920690919306A0913A
S1133FF09406B091950679018A01E81AF90A0A0B28
S11340001B0BD801C701BC01CD01A4D3DC01CB013A
S113401020E030E04AE754E4BC01CD0102D3DC01E6
S1134020CB018D839E83AF83B8878FEE92E05FDBF5
S1134030DC01CB0189879A87AB87BC8763E081ED7C
S113404093E00E943B0C8D819E81AF81B88524E072
S113405030E0AC01BD0181ED93E064D189819A81A6
S1134060AB81BC8122E030E0AC01BD0181ED93E085
S11340700E94660C89859A85AB85BC8522E030E078
S1134080AC01BD0181ED93E00E94660C28E833E1A8
S113409041E060E081ED93E00E949A0C2C96E6E00A
S11340A00C948C2CA4E0B0E0E8E5F0E20C94742CC1
S11340B081ED93E00E94920EDC01CB0189839A8307
S11340C0AB83BC8389819A81AB81BC81AC01BD0186
S11340D08FEE92E046D965E081ED93E00E943B0CBF
S11340E089819A81AB81BC81AC01BD0181ED93E0F2
S11340F053D128E833E141E060E081ED93E00E9490
S11341009A0C2496E2E00C94902CEF92FF920F9379
S1134110CF93DF93CDB7DEB784E093E00F2EF8E8BA
S1134120EF2EF3E1FF2EF02D01E020E0AC0161E081
S113413081ED93E0B8D0DF91CF910F91FF90EF9094
S11341400895EF92FF920F93CF93DF93CDB7DEB72D
S11341500E948C2ADC01CB018093920690939306F3
S1134160A0939406B093950681E080938D0686E231
S113417093E00F2EF8E8EF2EF3E1FF2EF02D01E08F
S113418020E0AC0160E081ED93E08DD0DF91CF9130
S11341900F91FF90EF900895A6E0B0E0E2EDF0E219
S11341A00C94742C9A8389834B835C836D837E8304
S11341B00E948C2A9B01AC0189819A81FC01808137
S11341C09181A281B381281B390B4A0B5B0B61E0FF
S11341D08B819C81AD81BE8182179307A407B507AB
S11341E008F060E0662369F00E948C2ADC01CB01B0
S11341F029813A81F90180839183A283B38381E089
S113420001C080E02696E2E00C94902CA0E0B0E09F
S1134210ECE0F1E20C94742C40E855E260E070E0CC
S113422084E497E040DE000084E497E057DE982FB2
S113423081E089278823C1F780E090E0A0EFB0E413
S11342408093CD039093CE03A093CF03B093D00378
S113425027E431E248EE53E060E070E086E996E05E
S11342600E94501648DEE2E00C94902CA0E0B0E0EE
S1134270ECE3F1E20C94742C86E996E00E940014BD
S11342808FEE92E04BDA41DEE2E00C94902CA0E059
S1134290B0E0EDE4F1E20C94742C8FEE92E0BDD822
S11342A0E2E00C94902CEF92FF920F93CF93DF9364
S11342B0CDB7DEB729970FB6F894DEBF0FBECDBFDA
S11342C09A8389836B835D834C832E830F83F98662
S11342D0E88689819A81FC01908181E0892788237D
S11342E0A1F089819A816B810E943B0C2C813D81D4
S11342F089819A81B90187D02885398589819A81F4
S11343004F816E810E949A0C01C080E029960FB6FD
S1134310F894DEBF0FBECDBFDF91CF910F91FF9018
S1134320EF900895A8E0B0E0E8E9F1E20C94742C71
S11343309A8389834B835C836D837E8338872F8341
S113434089819A81FC018081882311F189819A8174
S11343508C5A9D4FFC01208189819A818F5A9D4FEF
S1134360FC0180819181622FA3D62F8138858981B8
S11343709A818F5A9D4FFC0180819181FC018B8130
S11343809C81AD81BE81AC01BD01CF010E94EE29AB
S11343902896E2E00C94902CA6E0B0E0E2EDF1E285
S11343A00C94742C9A8389834B835C836D837E8302
S11343B089819A81FC018081882309F189819A810C
S11343C08C5A9D4FFC01208189819A818F5A9D4F7F
S11343D0FC0180819181622F6BD689819A818F5AE9
S11343E09D4FFC0180819181FC018B819C81AD8179
S11343F0BE8122E030E0AC01BD01CF01EFD72696AB
S1134400E2E00C94902CA4E0B0E0E9E0F2E20C9439
S1134410742C9A8389837C836B8389819A81FC01C0
S113442080818823E1F089819A818C5A9D4FFC0117
S1134430208189819A818F5A9D4FFC0180819181CD
S1134440622F36D689819A818F5A9D4FFC018081D3
S113445091819C018B819C81BC01C90104D6249665
S1134460E2E00C94902CA2E0B0E0E9E3F2E20C94D8
S1134470742C9A83898389819A8181559F4FE1DCC9
S11344802296E2E00C94902CACE1B0E0EAE4F2E293
S11344900C94722C9A8F898F7C8F6B8F898D9A8D57
S11344A0019759F58B8D9C8D019639F587ED92E036
S11344B00E949E1767ED72E0CE0101960E94F418E7
S11344C080910601909107019E012F5F3F4F890162
S11344D021E040ED57E0BC018FEE92E00E940F19FD
S11344E00FE22BE34CE264E477E081ED93E00E9479
S11344F0720986E996E00E949A13898D9A8D892B18
S113450039F48B8D9C8D019619F48FEE92E0ABDF1C
S11345106C96E4E00C948E2CA0E0B0E0E2E9F2E2C8
S11345200C94742C6FEF7FEF81E090E0ADDFE2E05C
S11345300C94902CA0E0B0E0E0EAF2E20C94742C2D
S11345406FEF7FEF80E090E09FDFE2E00C94902C2F
S11345505058BB27AA270ED075C166D130F06BD155
S113456020F031F49F3F11F41EF45BC10EF4E0958A
S1134570E7FB51C1E92F77D180F3BA1762077307BC
S11345808407950718F071F49EF58FC10EF4E09539
S11345900B2EBA2FA02D0B01B90190010C01CA01F9
S11345A0A0011124FF27591B99F0593F50F4503EA4
S11345B068F11A16F040A22F232F342F4427585F96
S11345C0F3CF469537952795A795F0405395C9F7AE
S11345D07EF41F16BA0B620B730B840BBAF0915066
S11345E0A1F0FF0FBB1F661F771F881FC2F70EC005
S11345F0BA0F621F731F841F48F4879577956795D8
S1134600B795F7959E3F08F0B3CF9395880F08F0C0
S11346109927EE0F979587950895D9D008F481E0EE
S113462008950CD00FC107D140F0FED030F021F432
S11346305F3F19F0F0C0511139C1F3C014D198F3A0
S11346409923C9F35523B1F3951B550BBB27AA270F
S113465062177307840738F09F5F5F4F220F331F81
S1134660441FAA1FA9F333D00E2E3AF0E0E830D04D
S113467091505040E695001CCAF729D0FE2F27D050
S1134680660F771F881FBB1F261737074807AB071E
S1134690B0E809F0BB0B802DBF01FF2793585F4F93
S11346A02AF09E3F510568F0B6C000C15F3FECF3AD
S11346B0983EDCF3869577956795B795F7959F5F58
S11346C0C9F7880F911D9695879597F90895E1E0AC
S11346D0660F771F881FBB1F621773078407BA070B
S11346E020F0621B730B840BBA0BEE1F88F7E09566
S11346F0089504D06894B111D9C00895BCD088F04D
S11347009F5790F0B92F9927B751A0F0D1F0660FB9
S1134710771F881F991F1AF0BA95C9F712C0B130D4
S113472081F0C3D0B1E00895C0C0672F782F8827E7
S1134730B85F39F0B93FCCF3869577956795B39513
S1134740D9F73EF490958095709561957F4F8F4F82
S11347509F4F0895E89409C097FB3EF49095809587
S1134760709561957F4F8F4F9F4F9923A9F0F92F33
S113477096E9BB279395F695879577956795B795B1
S1134780F111F8CFFAF4BB0F11F460FF1BC06F5F97
S11347907F4F8F4F9F4F16C0882311F096E911C0A9
S11347A0772321F09EE8872F762F05C0662371F0CA
S11347B096E8862F70E060E02AF09A95660F771FDE
S11347C0881FDAF7880F9695879597F90895990FBA
S11347D00008550FAA0BE0E8FEEF16161706E807C7
S11347E0F907C0F012161306E407F50798F0621BE8
S11347F0730B840B950B39F40A2661F0232B242BBD
S1134800252B21F408950A2609F4A140A6958FEFDB
S1134810811D811D089597F99F6780E870E060E02D
S113482008959FEF80EC089500240A941616170645
S113483018060906089500240A941216130614068D
S113484005060895092E0394000C11F4882352F0F0
S1134850BB0F40F4BF2B11F460FF04C06F5F7F4FA8
S11348608F4F9F4F089557FD9058440F551F59F08F
S11348705F3F71F04795880F97FB991F61F09F3F49
S113488079F087950895121613061406551FF2CF72
S11348904695F1DF08C0161617061806991FF1CFC2
S11348A086957105610508940895E894BB276627E9
S11348B07727CB0197F908958ADF08F48FEF0895DD
S11348C00AD029ED3BE54EED5EE345C00EF027C16D
S11348D0A8CF6894A0CFCFDFC8F39923D1F3C6F350
S11348E0DF93CF931F930F93FF92C92FDD27882364
S11348F02AF02197660F771F881FDAF720E030E04F
S113490040E85FEB9FE3883920F0803E30F0219649
S11349108F771FDEEAEFF1E003C01BDEE7E2F2E08F
S11349200CD18B01BE01EC01FB2E6F5771097595FB
S1134930771F880B990B10DF28E132E741E35FE32F
S113494016D0AF2D9801AE01FF900F911F91CF911A
S1134950DF9110DE77CF0BD075CF66DF28F06BDFE9
S113496018F0952309F057CF5CCF11249FCF7BDF3C
S1134970A0F3959FD1F3950F50E0551F629FF0016E
S1134980729FBB27F00DB11D639FAA27F00DB11DC7
S1134990AA1F649F6627B00DA11D661F829F222750
S11349A0B00DA11D621F739FB00DA11D621F839FD7
S11349B0A00D611D221F749F3327A00D611D231FAD
S11349C0849F600D211D822F762F6A2F11249F57FB
S11349D050408AF0E1F088234AF0EE0FFF1FBB1F1E
S11349E0661F771F881F91505040A9F79E3F5105BD
S11349F070F011CF5BCF5F3FECF3983EDCF386950C
S1134A0077956795B795F795E7959F5FC1F7FE2B67
S1134A10880F911D9695879597F90895FA01EE0FE1
S1134A20FF1F30962105310599F16115710561F477
S1134A308038BFE39B0749F168949038810561F0A1
S1134A408038BFEF9B0741F0992342F5FF3FE10512
S1134A503105210511F1E8940894E795D901AA23B9
S1134A6029F4AB2FBE2FF85FD0F310C0FF5F70F4B2
S1134A70A695E0F7F73950F019F0FF3A38F49F772C
S1134A809F930CD00F9007FC905808953EF0C9CE28
S1134A9060E070E080E89FE308954FE79F775F93BD
S1134AA04F933F932F9317DF2F913F914F915F9136
S1134AB052DF09C08CDE880B990B089519F40EF0AF
S1134AC0AACEF3CEAECED7DEC8F39638C0F707F839
S1134AD00F92E8942BE33AEA48EB5FE74ADF0F9240
S1134AE00F920F924DB75EB70F9289D0E4E5F2E0D2
S1134AF024D04F915F91EF91FF91E595EE1FFF1F39
S1134B0049F0FE57E0684427EE0F441FFA95E1F799
S1134B104195550B40D00F9007FE34C008959F3F38
S1134B2031F0915020F4879577956795B795880F64
S1134B30911D9695879597F90895DF93CF931F93C9
S1134B400F93FF92EF92DF927B018C01689405C072
S1134B50DA2EEF010CDFFE01E894A5912591359141
S1134B6045915591AEF3EF0105DDFE019701A801D2
S1134B70DA9479F7DF90EF90FF900F911F91CF9126
S1134B80DF9108959B01AC0160E070E080E89FE351
S1134B9048CD41CEC4CF6FDEE8F39923D9F3940F07
S1134BA0511DBBF39150504094F059F0882332F0DA
S1134BB0660F771F881F91505040C1F79E3F5105E3
S1134BC044F7880F911D9695879597F908955F3F4F
S1134BD0ACF0983E9CF0BB27869577956795B79582
S1134BE008F4B1609395C1F7BB0F58F711F460FF57
S1134BF0E8CF6F5F7F4F8F4F9F4FE3CF57CEFA01C0
S1134C00DC01AA0FBB1F9B01AC01BF5728F422276C
S1134C103327442750781FC0B75188F4AB2F0024A2
S1134C20469537952795011CA395D2F3002069F08A
S1134C30220F331F441FB395DAF30DD089CC6130B2
S1134C407105A0E88A07B94630F49B01AC016627D8
S1134C50772788279078309621F020833183428308
S1134C60538308950E942D2FFC01918D228D892F4D
S1134C7090E0805C9F4F821B91098F739927089560
S1134C80FC01918D828D981731F0828DE80FF11D12
S1134C90858D90E008958FEF9FEF0895FC01918D2D
S1134CA0828D981761F0828DDF01A80FB11D5D968A
S1134CB08C91928D9F5F9F73928F90E008958FEFF8
S1134CC09FEF089581EB97E2892B41F080E090E01B
S1134CD0892B21F046D181110C9400000895FC0128
S1134CE0848DDF01A80FB11DA35ABF4F2C91848D71
S1134CF090E001968F739927848FA689B7892C93A6
S1134D00A089B1898C9180648C93938D848D981340
S1134D1006C00288F389E02D80818F7D8083089509
S1134D20CF93DF93EC01888D8823C1F0EA89FB8956
S1134D30808185FD05C0A889B9898C9186FD0EC046
S1134D400FB607FCF5CF808185FFF2CFA889B9891A
S1134D508C9185FFEDCFCE01C2DFE8CFDF91CF91FB
S1134D600895EF92FF920F931F93CF93DF93EC017B
S1134D7081E0888F9B8D8C8D981305C0E889F98913
S1134D80808185FD23C0F62E0B8D10E00F5F1F4F31
S1134D900F731127E02E8C8DE8120BC00FB607FCA1
S1134DA0FACFE889F989808185FFF5CFCE0197DFB5
S1134DB0F2CF8B8DFE01E80FF11DE35AFF4FF08215
S1134DC00B8FEA89FB898081806207C0EE89FF89A5
S1134DD06083E889F98980818064808381E090E040
S1134DE0DF91CF911F910F91FF90EF900895CF9293
S1134DF0DF92EF92FF921F93CF93DF93EC016A014E
S1134E007B01122FE889F98982E080834115514E94
S1134E1061057105A9F060E079E08DE390E0A701F8
S1134E20960104D5DA01C9010197A109B109B69522
S1134E30A79597958795AC01411580E15807A0F097
S1134E40E889F989108260E874E88EE190E0A701AE
S1134E509601ECD4BA01A9014150510961097109C3
S1134E607695679557954795EC85FD855083EE8536
S1134E70FF854083188EEC89FD891083EA89FB89BC
S1134E80808180618083EA89FB8980818860808356
S1134E90EA89FB89808180688083EA89FB89808133
S1134EA08F7D8083DF91CF911F91FF90EF90DF90F2
S1134EB0CF9008951F920F920FB60F9211242F9343
S1134EC08F939F93EF93FF93E0915407F0915507CD
S1134ED08081E0915A07F0915B0782FD12C09081B6
S1134EE080915D078F5F8F7320915E07821751F069
S1134EF0E0915D07F0E0EC5BF84F958F80935D07E0
S1134F0001C08081FF91EF919F918F912F910F901C
S1134F100FBE0F901F9018951F920F920FB60F920D
S1134F2011242F933F934F935F936F937F938F93AA
S1134F309F93AF93BF93EF93FF9384E497E0CFDE07
S1134F40FF91EF91BF91AF919F918F917F916F915D
S1134F505F914F913F912F910F900FBE0F901F9033
S1134F60189584E497E080DE21E0892B09F420E0A1
S1134F70822F0895E4E4F7E01382128288EE93E02E
S1134F80A0E0B0E084839583A683B78389E891E0A9
S1134F909183808385EC90E09587848784EC90E00E
S1134FA09787868780EC90E0918B808B81EC90E0F2
S1134FB0938B828B82EC90E0958B848B86EC90E0D3
S1134FC0978B868B118E128E138E148E08950895EE
S1134FD018D3FDDF1BD9C2E6D6E248D92097E9F3FE
S1134FE071DEFBCF4CC5CF92DF92EF92FF920F930D
S1134FF01F93CF93DF936C017A018B01C0E0D0E063
S1135000CE15DF0589F0D8016D918D01D601ED91A2
S1135010FC910190F081E02DC6010995892B11F4D2
S11350207E0102C02196ECCFC701DF91CF911F9181
S11350300F91FF90EF90DF90CF9008956115710567
S113504079F0FB0101900020E9F73197AF01461B8D
S1135050570BDC01ED91FC910280F381E02D099462
S113506080E090E00895EF92FF920F931F93CF9307
S1135070DF938C017B01C0E0D0E0F701EC0FFD1F52
S11350806491662361F0D801ED91FC910190F08167
S1135090E02DC8010995892B11F02196EECFCE01A0
S11350A0DF91CF911F910F91FF90EF900895C6CF9C
S11350B0DC01ED91FC910190F081E02D099465E90A
S11350C071E0BCCF0F931F93CF93DF93EC01CBDF41
S11350D08C01CE01F4DF800F911FDF91CF911F91DE
S11350E00F9108958F929F92AF92BF92CF92DF92C9
S11350F0EF92FF920F931F93CF93DF93CDB7DEB759
S1135100A1970FB6F894DEBF0FBECDBF7C01D42E9D
S1135110C52EDB0119A2223008F42AE08E010F5DAE
S11351201F4F822E912CA12CB12C6D2D7C2DCD01E5
S1135130A50194017BD3D22EC32EDA0101501109AB
S11351406A3071058105910510F4605D01C0695CE8
S1135150F8016083232B242B252B39F7B801C701D1
S11351606DDFA1960FB6F894DEBF0FBECDBFDF9101
S1135170CF911F910F91FF90EF90DF90CF90BF9050
S1135180AF909F908F900895CF92DF92EF92FF920D
S11351900F931F93CF93DF93EC016A017B012115D9
S11351A0310579F4E881F9810190F081E02D642FD3
S11351B0DF91CF911F910F91FF90EF90DF90CF90EF
S11351C009942A303105D9F477FF18C06DE270DFF5
S11351D08C0144275527BA014C195D096E097F09D2
S11351E02AE0CE017FDF800F911FDF91CF911F91C5
S11351F00F91FF90EF90DF90CF9008952AE0B701D0
S1135200A601CE01DF91CF911F910F91FF90EF90F6
S1135210DF90CF9067CF2115310541F4DC01ED918A
S1135220FC910190F081E02D642F09945BCF9A01E9
S1135230462F50E060E070E0EECF4F925F926F92A5
S11352407F928F929F92AF92BF92CF92DF92EF9212
S1135250FF92CF93DF93EC016A017B01B22E9A0196
S1135260AB01C701B60126DC882319F068E971E0B7
S113527024C026013701E89477F82FEF3FEF4FE77A
S11352805FE7C301B20116DC81110CC02FEF3FEFC1
S11352904FE75FE7C301B201C0D918161CF46CE9EB
S11352A071E00BC02FEF3FEF4FE75FE4C701B6019A
S11352B003DB181694F460EA71E0CE01DF91CF911C
S11352C0FF90EF90DF90CF90BF90AF909F908F9022
S11352D07F906F905F904F90B1CE2FEF3FEF4FE7ED
S11352E05FECC701B60199D987FDE5CF20E030E036
S11352F0A901C701B60191D987FF09C06DE2CE01AA
S1135300D7DE4C01F7FAF094F7F8F09402C0812C40
S1135310912CA12C60E070E080E09FE3AB1439F0A5
S113532020E030E040E251E47CD9A394F7CF9B0124
S1135330AC01C701B6010DD92B013C01DFD96B01CA
S11353407C0108DA9B01AC01C301B20101D92B0134
S11353503C012AE0B701A601CE01C4DE7C01E80CC1
S1135360F91CBB2031F064EA71E0CE0167DEE80E7F
S1135370F91EDB2CDD2011F120E030E040E251E4A5
S1135380C301B201E8DA2B013C01B3D94B01770F19
S1135390AA08BB082AE030E0B501A401CE01F4DE7E
S11353A0E80EF91EC501B401D7D99B01AC01C301B4
S11353B0B201CED82B013C01DA94DCCFC701DF91D6
S11353C0CF91FF90EF90DF90CF90BF90AF909F90E0
S11353D08F907F906F905F904F9008952ECF0F9392
S11353E01F93CF93DF93EC0197D0688779878A87DF
S11353F09B87E881F9810680F781E02DCE0109952C
S113540097FF16C089D0088519852A853B85DC015C
S1135410CB01801B910BA20BB30B0C811D812E8140
S11354203F8180179107A207B30718F38FEF9FEF0F
S1135430DF91CF911F910F910895CF92DF92EF9258
S1135440FF920F931F93CF93DF936C017A018B012B
S1135450C0E0D0E0CE15DF0559F0C601C0DF97FFEC
S113546002C07E0105C0F80181938F012196F2CF1D
S1135470C701DF91CF911F910F91FF90EF90DF90C3
S1135480CF9008951F920F920FB60F9211242F936D
S11354903F938F939F93AF93BF938091E207909133
S11354A0E307A091E407B091E5073091E10723E019
S11354B0230F2D3720F40196A11DB11D05C026E848
S11354C0230F0296A11DB11D2093E1078093E207EB
S11354D09093E307A093E407B093E5078091E60770
S11354E09091E707A091E807B091E9070196A11D03
S11354F0B11D8093E6079093E707A093E807B09364
S1135500E907BF91AF919F918F913F912F910F9098
S11355100FBE0F901F9018952FB7F8946091E20773
S11355207091E3078091E4079091E5072FBF0895F8
S11355303FB7F8948091E6079091E707A091E807B8
S1135540B091E90726B5A89B05C02F3F19F0019635
S1135550A11DB11D3FBFBA2FA92F982F8827820FF5
S1135560911DA11DB11DBC01CD0142E0660F771F45
S1135570881F991F4A95D1F708958F929F92AF92F1
S1135580BF92CF92DF92EF92FF926B017C01D0DF4A
S11355904B015C01C114D104E104F104F1F045D1E3
S11355A0C7DFDC01CB0188199909AA09BB09883E28
S11355B09340A105B10570F321E0C21AD108E108B6
S11355C0F10888EE880E83E0981EA11CB11CC1145A
S11355D0D104E104F10421F7DDCFFF90EF90DF90D7
S11355E0CF90BF90AF909F908F9008958230910597
S11355F038F0880F991F880F991F05970197F1F7C5
S11356000895789484B5826084BD84B5816084BD36
S113561085B5826085BD85B5816085BDEEE6F0E027
S1135620808181608083E1E8F0E010828081826083
S11356308083808181608083E0E8F0E08081816004
S11356408083E1EBF0E0808184608083E0EBF0E034
S1135650808181608083EAE7F0E0808184608083D8
S11356608081826080838081816080838081806882
S113567080831092C10008958E3008F08E50877098
S11356802091080190E4299F90011124822B80939A
S11356907C0080917A00806480937A0080917A0003
S11356A086FDFCCF809178002091790090E0922BC8
S11356B00895833081F028F4813099F08230A1F08C
S11356C008958730A9F08830B9F08430D1F48091FE
S11356D080008F7D03C0809180008F77809380004D
S11356E0089584B58F7702C084B58F7D84BD0895F5
S11356F08091B0008F7703C08091B0008F7D80933C
S1135700B0000895CF93DF9390E0FC01E85BFC4F79
S11357102491FC01E45AFC4F8491882361F190E0C8
S1135720880F991FFC01EC57FC4FC591D491FC01E3
S1135730E658FC4FA591B491611109C09FB7F89444
S11357408881209582238883EC912E230BC06230BC
S113575061F49FB7F8943881822F809583238883DE
S1135760EC912E2B2C939FBF06C08FB7F894E88141
S11357702E2B28838FBFDF91CF9108951F93CF9352
S1135780DF93282F30E0F901EC5CFC4F8491F901A0
S1135790E85BFC4FD491F901E45AFC4FC491CC234B
S11357A0C1F0162F811185DFEC2FF0E0EE0FFF1F03
S11357B0E658FC4FA591B4918FB7F894111105C028
S11357C09C91ED2FE095E92302C0EC91ED2BEC9335
S11357D08FBFDF91CF911F910895CF93DF93282F2F
S11357E030E0F901EC5CFC4F8491F901E85BFC4F7B
S11357F0D491F901E45AFC4FC491CC2389F081116E
S113580058DFEC2FF0E0EE0FFF1FE059FC4FA5919D
S1135810B491EC91ED2381E090E021F480E002C0AA
S113582080E090E0DF91CF9108950895A1E21A2ECF
S1135830AA1BBB1BFD010DC0AA1FBB1FEE1FFF1F30
S1135840A217B307E407F50720F0A21BB30BE40B80
S1135850F50B661F771F881F991F1A9469F76095C7
S11358607095809590959B01AC01BD01CF01089581
S1135870052E97FB16F400940FD057FD05D0D6DF04
S113588007FC02D046F408C0509540953095219508
S11358903F4F4F4F5F4F0895909580957095619558
S11358A07F4F8F4F9F4F0895EE0FFF1F0590F49188
S11358B0E02D099440D0A59F900DB49F900DA49F16
S11358C0800D911D112408952F923F924F925F9263
S11358D06F927F928F929F92AF92BF92CF92DF92FC
S11358E0EF92FF920F931F93CF93DF93CDB7DEB761
S11358F0CA1BDB0B0FB6F894DEBF0FBECDBF0994F5
S11359002A88398848885F846E847D848C849B844B
S1135910AA84B984C884DF80EE80FD800C811B8159
S1135920AA81B981CE0FD11D0FB6F894DEBF0FBE88
S1135930CDBFED010895A29FB001B39FC001A39F05
S1135940700D811D1124911DB29F700D811D1124B4
S1135950911D0895CF93DF938230910510F482E076
S113596090E0E091EC07F091ED0720E030E0C0E03A
S1135970D0E0309711F14081518148175907C0F0A8
S11359804817590761F482819381209719F09B830A
S11359908A832BC09093ED078093EC0726C02115D2
S11359A0310519F04217530718F49A01BE01DF01BB
S11359B0EF010280F381E02DDCCF2115310509F1DF
S11359C0281B390B2430310590F412968D919C914B
S11359D013976115710521F0FB019383828304C041
S11359E09093ED078093EC07FD01329644C0FD01CE
S11359F0E20FF31F81939193225031092D933C932D
S1135A003AC02091EA073091EB07232B41F420910F
S1135A100201309103013093EB072093EA072091B0
S1135A200001309101012115310541F42DB73EB734
S1135A304091040150910501241B350BE091EA07C4
S1135A40F091EB07E217F307A0F42E1B3F0B281786
S1135A50390778F0AC014E5F5F4F2417350748F0E3
S1135A604E0F5F1F5093EB074093EA078193919386
S1135A7002C0E0E0F0E0CF01DF91CF9108950F93F1
S1135A801F93CF93DF93009709F48CC0FC013297E6
S1135A90138212820091EC071091ED070115110594
S1135AA081F420813181820F931F2091EA07309184
S1135AB0EB072817390779F5F093EB07E093EA072A
S1135AC071C0D80140E050E0AE17BF0750F4129601
S1135AD02D913C911397AD012115310509F1D9019F
S1135AE0F3CF9D01DA013383228360817181860FB4
S1135AF0971F8217930769F4EC0128813981260FD7
S1135B00371F2E5F3F4F318320838A819B8193838C
S1135B108283452B29F4F093ED07E093EC0742C010
S1135B201396FC93EE931297ED01499159919E01BE
S1135B30240F351FE217F30771F480819181840FDC
S1135B40951F029611969C938E938281938113964E
S1135B509C938E931297E0E0F0E0D80112968D9119
S1135B609C911397009719F0F8018C01F6CF8D9151
S1135B709C9198012E5F3F4F820F931F2091EA075B
S1135B803091EB072817390769F4309729F41092FC
S1135B90ED071092EC0702C0138212821093EB07F8
S1135BA00093EA07DF91CF911F910F910895A0E030
S1135BB0B0E0ECEDFDE28CCEEC017B0161157105EA
S1135BC019F0DB018D939C938E010F5F1F4F78803A
S1135BD0872D90E063D1892B11F0E801F5CFBDE268
S1135BE07B1205C00F5F1F4F7980C1E008C0EBE254
S1135BF07E1204C08E010E5F1F4F7980C0E06801E1
S1135C00F1E0CF1AD10843E050E064E872E0C60145
S1135C104DD1892BE9F4680122E0C20ED11C45E084
S1135C2050E06FE772E0C60141D1892B21F468018D
S1135C3087E0C80ED11CE114F10419F0D701CD920C
S1135C40DC92C111FDC060E070E080E89FE701C113
S1135C5043E050E06CE772E0C60128D1892B51F48F
S1135C60E114F10409F4F1C00E5F1F4FF701118331
S1135C700083EBC0680160E070E0CB0100E010E05D
S1135C80F601D0EDD70DDA3050F52C2F2260622EBC
S1135C902C2F2870C2FF05C0211127C00F5F1F4F92
S1135CA024C0222311F001501109A5E0B0E09B01AA
S1135CB0AC0100DE4B015C01880C991CAA1CBB1CC6
S1135CC0C501B4016D0F711D811D911D6839A9E9CC
S1135CD07A078A07A9E19A0740F0C66005C0DE3F4B
S1135CE051F4C3FD44C0C8606C2EBFEFCB1ADB0A6D
