:1000000002C1000028C1000026C1000010C300008A
:100010000EC300000CC300001EC100001CC1000084
:100020001AC1000018C1000016C1000014C1000070
:1000300012C1000010C100000EC100000CC1000080
:100040000C94951708C100000C94AD140C94DF14A7
:1000500002C1000000C10000FEC00000FCC00000A2
:1000600024C10000F8C0000008000000BE9224492E
:10007000123EABAAAA2ABECDCCCC4C3E00000080DA
:10008000BEABAAAAAA3E00000000BF000000803F4D
:100090000000000000084178D3BB4387D1133D190D
:1000A0000E3CC3BD4282AD2B3E68EC8276BED98F3A
:1000B000E1A93E4C80EFFFBE01C4FF7F3F0000007E
:1000C000000007634236B79BD8A71A39685618AEA6
:1000D000BAAB558C1D3CB7CC5763BD6DEDFD753E7D
:1000E000F6177231BF000000803F4E414E494E4925
:1000F0005459494E46CDCCCC3D0AD7233C17B7D1F5
:100100003877CC2B329595E6241FB14F0A0000209A
:10011000410000C84200401C4620BCBE4CCA1B0E19
:100120005AAEC59D744572726F72206E756D6265B0
:100130007220666F72207468652061727261792026
:10014000746F206176726167696E67212F6E00207F
:1001500020202020202020202020202020202000BF
:1001600050483A20005374617274204C6F6767697D
:100170006E6700436F6D6D616E6420776974686FA0
:1001800075742061747461636865642063616C6C6C
:100190006261636B00576174657253656E736F7251
:1001A00073000000000800020100000304070000C3
:1001B000000000000000010204081020408001023D
:1001C000040810200102040810200404040404049C
:1001D00004040202020202020303030303030000F9
:1001E0000000230026002900000000002500280050
:1001F0002B0000000000240027002A0013035709E9
:10020000C80F0D15E10F11241FBECFEFD8E0DEBFE0
:10021000CDBF11E0A0E0B1E0E2E1FFE302C0059054
:100220000D92AE38B107D9F727E0AEE8B1E001C0D2
:100230001D92A436B207E1F710E0C2E0D1E004C09D
:100240002197FE010E94E819CE3FD107C9F70E940D
:100250003B150C947D1FD4CE613298F42091FB01A4
:10026000243089F46093B001FC0122EB31E0D90124
:100270008A2F821B861718F481918D93F9CF80E025
:10028000089581E0089582E0089585ED8093BC0093
:100290008091BC0084FDFCCF1092FB01089585EC99
:1002A0008093BC001092FB0108951F920F920FB62D
:1002B0000F9211242F933F934F935F936F937F93EC
:1002C0008F939F93AF93BF93EF93FF938091B90068
:1002D000887F803609F49DC070F5883209F45CC0CF
:1002E00090F4803109F455C038F4882309F4F3C040
:1002F000883009F44EC0F2C0883109F44DC0803214
:1003000009F45EC0EBC0803409F469C050F4803356
:1003100009F456C0883309F0E1C080938E01BFDF35
:10032000DDC0803509F44FC0883509F45DC08834DC
:1003300009F0D4C0D2C0883909F4C3C0A8F4883702
:1003400009F467C038F4883609F463C0803709F4CB
:1003500060C0C4C0883809F4B4C0803909F45FC0F3
:10036000803809F0BBC05BC0803B09F482C038F420
:10037000803A09F466C0883A09F47BC0AFC0803C7B
:1003800009F4A3C0883C09F4A0C0883B09F486C0E6
:10039000A5C08091FA0110C09091D3018091D20143
:1003A000981770F5E091D30181E08E0F8093D3010F
:1003B000F0E0EC52FE4F80818093BB0085EC82C060
:1003C00080938E018AC0E091D30181E08E0F8093EB
:1003D000D3018091BB00F0E0EC52FE4F80839091FE
:1003E000D3018091D2016AC0E091D30181E08E0FE8
:1003F0008093D3018091BB00F0E0EC52FE4F8083EC
:100400008091F901811169C081E08093F80184EA4B
:100410005DC083E08093FB0110928F01CFCF80916C
:100420008F01803208F04DC0E0918F0181E08E0F86
:1004300080938F018091BB00F0E0E057FE4F8083F6
:10044000BDCF2DDF80918F01803230F4E0918F019C
:10045000F0E0E057FE4F108260918F0170E0E09174
:10046000F401F091F50180E991E0099510928F0176
:1004700035C084E08093FB011092B1011092B0016D
:10048000E091F601F091F70109958091B001811199
:1004900005C081E08093B0011092B201E091B101FA
:1004A00081E08E0F8093B101F0E0EE54FE4F808129
:1004B0008093BB009091B1018091B001981708F42E
:1004C0007DCF85E88093BC0009C085EC8093BC009B
:1004D0001092FB0103C010928E01D7DEFF91EF91C5
:1004E000BF91AF919F918F917F916F915F914F914C
:1004F0003F912F910F900FBE0F901F9018958091F4
:100500002B0290E020912C02821B9109089590917A
:100510002C0280912B02981750F4E92FF0E0E35D54
:10052000FD4F208130E09F5F90932C0202C02FEF9F
:100530003FEFC9010895E0912C0280912B02E8174A
:1005400030F4F0E0E35DFD4F808190E008958FEF9F
:100550009FEF08950895A0E0B0E0E1EBF2E00C9485
:10056000BB197C01262F972F8A01809108028823CE
:1005700091F0C62FD72F6E01C40ED51ECC15DD0508
:1005800069F06991D701ED91FC910190F081E02D26
:10059000C7010995F3CF642F822F5EDEC801CDB766
:1005A000DEB7E8E00C94D719A1E0B0E0EAEDF2E0A4
:1005B0000C94C1196983209108022223D1F0209163
:1005C0000902203240F021E030E0FC013383228335
:1005D00080E090E014C080910A02E82FF0E0E55F2F
:1005E000FD4F998190838F5F80930A028093090267
:1005F00004C061E0CE0101962FDE81E090E02196FB
:10060000E2E00C94DD19FC011382128288EE93E083
:10061000A0E0B0E084839583A683B7838DE091E06A
:100620009183808308958CEF91E0EDCF08951F9220
:100630000F920FB60F9211242F933F934F935F9316
:100640006F937F938F939F93AF93BF93EF93FF939A
:10065000E0918F02F0919002309709F451C0968D8D
:10066000A685B785858591FF04C09C91892329F4CF
:1006700047C09C91892309F043C0A389B4899C9108
:100680008589809589238C93868997890197F1F7CD
:10069000608D718DA685B785558538E020E0CB014A
:1006A0000197F1F7822F90E095958795282F4C912F
:1006B000452309F02068315091F7868D81FD209502
:1006C00080914E0290E001968F73992730914D02F0
:1006D000381749F0A0914E02B0E0A15BBD4F2C93BA
:1006E00080934E0203C0868D8160868F828D938DAC
:1006F0000197F1F7A389B4899C918589892B8C9303
:10070000FF91EF91BF91AF919F918F917F916F91E9
:100710005F914F913F912F910F900FBE0F901F90BF
:100720001895CF93DF93EC0160E08E810E94111940
:1007300081E090E00E94491861E08E810E941119C9
:1007400081E090E00E94491860E08E810E941119BA
:1007500084E690E00E944918DF91CF910895A0E0CF
:10076000B0E0E5EBF3E00C94BB197C016C0187E091
:10077000C80ED11CC0E0D0E0062F10E0B8010C2E4E
:1007800002C0759567950A94E2F76170F601819150
:100790006F010E9411192196C430D10579F7C70164
:1007A000C0DFCDB7DEB7E8E00C94D719A0E0B0E029
:1007B000ECEDF3E00C94BB197C016C0187E0C80EF2
:1007C000D11CC0E0D0E0062F10E0B8010C2E02C012
:1007D000759567950A94E2F76170F60181916F0152
:1007E0000E9411192196C830D10579F7C70199DF08
:1007F000CDB7DEB7E8E00C94D7191F93CF93DF9302
:10080000EC01162F642F8C810E9411198D818F3F6E
:1008100019F060E00E9411198F85612F84FF03C0D9
:10082000CE01C4DF0BC070E084E0759567958A95B2
:10083000E1F7CE0194DF612FCE0191DFDF91CF91FF
:100840001F91089540E0D9CF089561E0FBDF80ED6E
:1008500097E00C9449180895FC01443008F043E0F7
:100860008389481710F04FEF480FDF01A40FB11D27
:1008700054969C91690F6068CF01E4CF0895FC0104
:100880006089262F2460208B6C60DCCF0895EF9266
:10089000FF920F931F93CF93DF93EC01423018F038
:1008A0008F8588608F874B8B1C8A80E48D8B6E8B45
:1008B00070E0605C7F4F6F8B222329F0413019F488
:1008C0008F8584608F8761E08C810E94D5188D812F
:1008D0008F3F19F061E00E94D51861E08E810E947F
:1008E000D5187E0187E0E80EF11C00E010E08F854E
:1008F00084FD03C084E090E002C088E090E0081727
:1009000019074CF461E0F70181917F010E94D5182D
:100910000F5F1F4FECCF80E593EC0E94491860E019
:100920008C810E94111960E08E810E9411198D81C5
:100930008F3F19F060E00E9411196F8564FD19C0A6
:1009400063E0CE010CDF84E991E10E94491863E085
:10095000CE0105DF84E991E10E94491863E0CE01F0
:10096000FEDE86E990E00E94491862E0CE01F7DEE3
:1009700013C06062CE0166DF84E991E10E944918EC
:100980006F856062CE015EDF86E990E00E944918C3
:100990006F856062CE0156DF6F856062CE0152DFE7
:1009A00084E0888BCE016BDFCE014FDF82E0898B44
:1009B00066E0CE0147DFCDB7DEB7E6E00C94D9198B
:1009C000CF92EF920F93FC01138212828DE191E09E
:1009D0009183808364838FEF858346832783008799
:1009E000E186C2861386148615861686178620E051
:1009F00041E060E1CF014BDF0F91EF90CF90089580
:100A000041E0FBDE81E090E008950F93FC01DC0102
:100A1000AA5ABD4F11961C921E92159711967C935F
:100A20006E93108613964C9311972C9312960C93F9
:100A300080E483838FE384831282199711961C923A
:100A40001E92129611961C921E92149781E08C931E
:100A50001E96CF0184549D4F1D921D92A817B90771
:100A6000D9F717820F9108950F93CFDF0F91089553
:100A7000FC01EA5AFD4F718360830895623350F49C
:100A80009C01260F311D260F311DF901E85AFD4F3B
:100A9000518340830895FC01208121110BC081E026
:100AA00080838783EF5AFD4F4AE050E08081918137
:100AB0000C946A160895CF93DF93DC01F90191E05D
:100AC0008081841390E0EB0188818083AB5ABD4F15
:100AD0002C91821302C091111082892FDF91CF9146
:100AE0000895A0E0B0E0E7E7F5E00C94B519EC015B
:100AF0007B011D828B013C0185E0680E711C5E014B
:100B0000EBEAAE1AEDEFBE0A4E01FCEA8F1AFDEFDA
:100B10009F0A6801CE18DF089301F5014081B801F2
:100B2000CE01C9DFF80191918F01911102C0882394
:100B300031F0F40120819213ECCF8111EACFC6018C
:100B4000CDB7DEB7EEE00C94D119A0E0B0E0EBEA4F
:100B5000F5E00C94BA197C01B42E69016115710598
:100B600019F4D9016D917C91EB018E014B2DBE01E1
:100B7000C701B7DF892B29F42196F8018081811103
:100B8000F4CFF8018081882389F04B2DB801C7018B
:100B9000A8DFF801E80FF91F8081882311F0108287
:100BA0003196D601ED93FC93C80102C080E090E03D
:100BB000CDB7DEB7E9E00C94D6190F931F93CF930E
:100BC000DF93FC01E75BFD4F2081222331F12130CF
:100BD00031F4BC01675F7F4F22E0208302C060E0F8
:100BE00070E0EC01C65BDD4F28818C01045B1D4F7A
:100BF000222359F09C01225B3D4FFC01EC5AFD4F32
:100C00004081A3DFF80191838083F8018081918185
:100C1000892B19F081E0888301C080E0DF91CF91BA
:100C20001F910F910895CF93DF93EC01C6DFFE0172
:100C3000E55BFD4F882369F0DE01A65BBD4F81E0D7
:100C40008C938083C45BDD4F888199810E94801CD6
:100C500003C0108280E090E0DF91CF910895ADE075
:100C6000B0E0E5E3F6E00C94B1198C017C012FEAC9
:100C7000E21A2DEFF20A5C0187EBA81A8DEFB80A91
:100C800018019BEA291A9DEF390AD801AD5ABD4FC8
:100C9000B987A887F801EA5AFD4FFB87EA87C801A0
:100CA000855B9D4F9D878C87F80187818111B4C03A
:100CB000D7018D919C91DC01ED91FC910480F5812F
:100CC000E02D0995892B09F4A7C0F7018081918156
:100CD000DC01ED91FC910480F581E02D09958115F1
:100CE00092400CF095C0D7018D919C91DC01ED9163
:100CF000FC910480F581E02D09956C01A601280185
:100D0000B9E44B0E511CB201F701808191810E9420
:100D10007017812C912C3801F6E06F0E711CC80100
:100D2000845B9D4F9B838A83D801A25BBD4FBD83AB
:100D3000AC83F801E65BFD4FFF83EE838C149D04CA
:100D400009F4B2CFD2018D912D018983F501108272
:100D50009301D1014C91BE016F5F7F4FC801ABDEA3
:100D60002981E885F9853081D80112969C911297E6
:100D7000F801E90FF11D231319C0811117C0118665
:100D8000992329F021E0F501208316961C92F801A1
:100D90001282AA81BB811D921C92EC81FD8111827D
:100DA0001082E1E0AE81BF81EC930AC021879F5F92
:100DB000D80112969C93129714968C91981738F735
:100DC000F5018081813001F5C8012DDFD801119630
:100DD0008C93823390F4EC85FD852081222369F089
:100DE0009927FC01E45DFE4FEE0FFF1FE00FF11F9E
:100DF0000190F081E02D309731F4AA85BB85ED910B
:100E0000FC91309709F00995BFEF8B1A9B0A96CF9A
:100E1000C12C82E0D82E72CF2D96E2E10C94CD1930
:100E2000A5E1B0E0E6E1F7E00C94B1198C01F62EF3
:100E3000E42E6901DC018C91811102C0F12CC4C047
:100E4000F801ED5AFD4FFB83EA831801FFEA2F1AE0
:100E5000FDEF3F0AAA81BB816C91F10180819181F4
:100E60000E94AB15D80118968C91882329F0F101C6
:100E7000808191810E94B215FF2001F30E94DF174B
:100E80002B013C014B015C01F12CC601A0E0B0E05C
:100E90008C839D83AE83BF83680197EBC91A9DEF56
:100EA000D90AD8011696B987A887F801EB5AFD4FE1
:100EB000FB87EA872E2D30E03D872C87C801855BB4
:100EC0009D4F9F878E87AA5BBD4FB98BA88B3797A5
:100ED000FB8BEA8B9801265B3D4F3D8B2C8BEE24E0
:100EE000E39484189508A608B7088C819D81AE818B
:100EF000BF8188169906AA06BB0608F065C0F110E6
:100F000063C00E94DF174B015C01D1018D919C9160
:100F1000DC01ED91FC910480F581E02D0995892B90
:100F200001F3F10180819181DC01ED91FC9106805A
:100F3000F781E02D09958983F6011082288539858E
:100F4000AA85BB854C91BE016F5F7F4FC801B3DDA1
:100F50002981EA81FB813081D80112969C911297F8
:100F6000F801E90FF11D231317C0811115C0118677
:100F7000992321F0F601E08216961C92F801128264
:100F8000A889B9891D921C92EA89FB891182108275
:100F9000AC89BD89EC9207C021879F5FF8019283DD
:100FA0008481981758F7D6018C91813009F099CF38
:100FB000C80139DEEC85FD85E817F90709F091CF06
:100FC000AE85BF85FC908DCFD80117961C921797E0
:100FD0001C928F2D6596E2E10C94CD19CF93DF938F
:100FE000EC01EBDDFE01E55BFD4F882379F0DE01CE
:100FF000A65BBD4F81E08C938083C45BDD4F60E0D6
:1010000070E0888199810E942A1B04C0108260E0F0
:1010100070E0CB01DF91CF910895A2E2B0E0E3E16F
:10102000F8E00C94B1199AA389A36A017B018901A4
:1010300020E030E0A901C701B6010E94621087FFDD
:1010400009C06DE288EB96E00E94AB15F7FAF094C8
:10105000F7F8F09446015701E894B7F82FEF3FEF07
:101060004FE75FE7C501B4010E94AF1281110DC0C7
:101070002FEF3FEF4FE75FE7C501B4010E94621019
:1010800018161CF461E271E00AC0A7019601C701BD
:10109000B6010E94AF12882339F065E271E088EB57
:1010A00096E00E94AA15CEC018010730110518F06D
:1010B00086E0282E312CB10180E090E00E94FF10E4
:1010C0009B01AC0160E070E080E291E40E94631259
:1010D0000E94CE102B013C0120E030E0A901C701A5
:1010E000B6010E94B111181654F420E030E040E23D
:1010F00051E4C701B601E6D787FF0BC012C020E05C
:1011000030E040E251ECC701B6010E94B11118165F
:1011100044F0C701B6010E94B5110E94CE108B01A8
:1011200002C000E010E0B801012E000C880B990B02
:101130000E9401119B01AC0160E070E080E291E44B
:101140000E9463129B01AC01C701B601BFD74B01DE
:101150005C0120E030E040E85FE3B4D787FF14C0D3
:1011600020E030E0A901C501B401ACD7882361F0CB
:1011700020E030E040E251E4C501B4010E940012D9
:101180004B015C0101501109C501B4010E94CE1050
:101190006B017C010E9401119B01AC01C501B401EE
:1011A0002CD74B015C01C301B2010E9401119B01CC
:1011B000AC01C501B4010E94001220E030E040E023
:1011C0005FE31CD7EBD72B013C0194E64916510491
:1011D0006104710441F48FEFC81AD80AE80AF80ACA
:1011E000412C512C32013F922F9289E291E09F9342
:1011F0008F935E0191E1A90EB11CBF92AF920E9444
:10120000C51C1F930F937F926F925F924F92FF9234
:10121000EF92DF92CF92BF92AF928E010F5F1F4F7E
:101220001F930F930E94C51CE9A1FAA1EF5AFD4F2D
:10123000B801808191810E94AA150FB6F894DEBF93
:101240000FBECDBFA296E2E10C94CD19A0E0B0E0B4
:10125000ECE2F9E00C94BB19DC01EC91EE2399F07F
:1012600089016A017B01EC01AC5ABD4FFC01EF5AC8
:10127000FD4F6C91808191810E94AB159801B7015F
:10128000A601CE01CADECDB7DEB7E8E00C94D719CF
:1012900008950895089508950C9445150895FC0146
:1012A0007183608320E034E033832283089580914A
:1012B000970281110DC0109292021092910280E06B
:1012C00094E0909394028093930281E0809397023C
:1012D00081E992E0909396028093950208950F938E
:1012E0001F93DC01ED91FC910680F781E02D00E079
:1012F00010E009951F910F9108950F931F93DC0142
:10130000ED91FC910680F781E02D01E010E0099558
:101310001F910F9108956A3071053CF4680F791F91
:10132000FB01E257FF4F8081089580E008956A3005
:1013300071053CF4680F791FFB01E257FF4F81E014
:10134000808308956A30710534F4680F791FFB01BA
:10135000E257FF4F10820895A6E0B0E0E2EBF9E01B
:101360000C94B1199E838D830E94DF176B017C0161
:101370008D819E8186589F4F9C838B83AD81BE81DA
:10138000BA83A9831D01BEE82B0E311C910101E037
:1013900010E0EB81FC81178E168ECF0180559109EC
:1013A000DC018D919C91892B09F447C0E981FA8178
:1013B0004281538164817581CF01CE96DC018D908D
:1013C0009D90AD90BC9026013701441A550A660ADB
:1013D000770A481459046A047B0478F1480D591DB2
:1013E0006A1D7B1D4283538364837583D9018C916D
:1013F000882319F18B819C814497FC0140815181A4
:101400004115510539F4AB81BC815F961C930E9355
:101410005E9713C0EB81FC818081918184179507D1
:1014200064F4178F068F0196918380838417950744
:1014300024F082E090E0978F868FAB81BC8112967A
:10144000BC83AB83E981FA813496FA83E9832F5F09
:101450003F4FA215B30509F09CCFED80FE80F8E95F
:10146000EF0EF11C00E010E0D7018D919D917D0100
:1014700081309105A9F00297D1F4FD01E057F109FF
:101480000190F081E02D0995AD81BE81ED91FC9137
:1014900011970084F185E02DB801CD01099507C0B1
:1014A000FD01E057F1090190F081E02D09950F5FF2
:1014B0001F4F0A301105C1F62696E2E10C94CD19B2
:1014C0000F931F93CF93DF936A30710574F4EB0190
:1014D0008C010E94DF17CC0FDD1FCC0FDD1FC00F6A
:1014E000D11F6A837B838C839D83DF91CF911F9172
:1014F0000F910895CF93DF936A307105B4F5EC0135
:10150000C455DF4F288139812115310571F1DB0187
:10151000AA0FBB1FA80FB91F9A964D915C919B977C
:10152000452B19F19B961C921E929A97FC01E60F8F
:10153000F71FE257FF4F1082FD01E856FF4F11825F
:101540001082660F771F660F771FFC01E60FF71FEB
:10155000FE961082118212821382A658BF4F1D92EE
:101560001C922150310939832883DF91CF9108954E
:10157000CF92DF92EF92FF92CF93DF93EC018DE455
:1015800091E0998388830E94DF177E012EE8E20EA6
:10159000F11CFE01BA966E01A2E0CA0ED11C9E019A
:1015A000225C3F4FD7011D927D0111921192D6010D
:1015B0006D937D938D939D936D01AF01425B5F4F62
:1015C000DA011D921C92E217F30761F7C455DF4F51
:1015D00019821882DF91CF91FF90EF90DF90CF902A
:1015E0000895FC01E455FF4F208131812A303105F7
:1015F0006CF4E258F10920E030E081919191892B5F
:1016000041F02F5F3F4F2A303105B9F78FEF9FEF41
:101610000895C9010895A4E0B0E0E1E1FBE00C9475
:10162000B7194C01590149835A836B837C83D9DFF5
:101630007C0149815A816B817C8197FD33C0A11463
:10164000B10481F16C01CC0CDD1CCC0CDD1CC80C90
:10165000D91CF601FE964083518362837383F701A0
:10166000EE0FFF1FE80DF91DB3A6A2A6EA59FF4F22
:1016700011830083F401EE0DFF1DE257FF4F81E05F
:1016800080830E94DF17F6016283738384839583CE
:10169000F401E455FF4F808191810196918380830D
:1016A000C70102C08FEF9FEF2496ECE00C94D31992
:1016B00008950C9445150895DC011B96ED91FC915D
:1016C0001C973097C1F01D966D917C911E972081DB
:1016D0003181A9014C5F5F4F460F571F0280F38194
:1016E000E02D4E175F0738F4620F731F44E050E09F
:1016F0000F960C94571F0895A0E0B0E0E2E8FBE0DD
:101700000C94B319FC01E384F484E114F104F1F1C5
:1017100005851685D7018D919C9111970496800FB0
:10172000911F12962D913C9113978217930770F594
:10173000EF012F964801B4E08B0E911C5801EFEF9A
:10174000AE1ABE0AD701CD90DC90119725014C0C42
:101750005D1C12966D907C9013974614570430F4DC
:10176000C8018C0D9D1D0E94671F01C080E069911A
:10177000861741F04614570428F4C8018C0D9D1DAE
:101780000E946F1F8501A814B904C1F6CDB7DEB75A
:10179000E0E10C94CF190F931F93CF93DF93EC01EB
:1017A00061E08DE00E94D518FE01E25AFF4F808172
:1017B000882371F020E042E060E18E010A581F4F5B
:1017C000C80165D8C80141D840E060E0C80144D8EC
:1017D000CE01815A9F4F70DFFE01E259FF4F6081B9
:1017E000718182819381CE58DF4F688379838A83A8
:1017F0009B839B01AC01B3D6882321F01882198208
:101800001A821B82DF91CF911F910F910895CF9281
:10181000EF920F931F93CF93DF93EC01798368834B
:101820005B834A83FC01EC5AFF4F118210823A9687
:1018300020838C01015A1F4F8FE391E0F8019183BF
:10184000808380919702811108C060E070E081E997
:1018500092E025DD81E08093970281E992E0F80132
:10186000938382831582148223E631E031832083BF
:10187000FE01E659FF4F91838083329611821082D8
:101880008091930290919402892B29F084E090E05A
:10189000F80195838483FE01EE58FF4F1082118278
:1018A0001282138287E0C82E96E0E92E05E024E03C
:1018B00049E068E0CE018A589F4F82D8CE016BDFA5
:1018C000DF91CF911F910F91EF90CF900895FC0180
:1018D000EE58FF4F4083518362837383389744836C
:1018E000558366837783815A9F4F06CF0895FC0105
:1018F000EA5AFF4F60817181828193810895FC01D2
:10190000E65AFF4F60817181828193810895CF9360
:10191000DF93462FEC01CA58DF4F60E0CE010E94F2
:101920002C046FE471E0CE010E948615DF91CF9107
:1019300008950F931F93CF93DF93EC018091A7023B
:1019400081110DC00E94DF1760939F027093A00267
:101950008093A1029093A20281E08093A7020E944B
:10196000DF1700919F021091A0022091A1023091F7
:10197000A202AB01BC01401B510B620B730B8A81AD
:101980009B8180579E4F092E000CAA0BBB0B84171E
:101990009507A607B707A0F5FE01E25AFF4F808121
:1019A0008823E1F060E070E0CE01B1DF8E010A58DB
:1019B0001F4F40E060E0C8010E942C0460E671E027
:1019C000C8010E948615CA5ADF4F488159816A8131
:1019D0007B8122E030E0C8010E9441178DE00E9427
:1019E000401961E068278DE00E9411190E94DF17FD
:1019F00060939F027093A0028093A1029093A20231
:101A0000DF91CF911F910F910895A0E0B0E0EBE03E
:101A1000FDE00C94B719FB011416150654F065E2AD
:101A200071E088EB96E00E94B51560E070E0CB01B4
:101A30006AC045305105F4F460E070E0CB0120E06D
:101A400030E0C190D1900D2C000CEE08FF086C0D19
:101A50007D1D8E1D9F1D2F5F3F4F2417350789F772
:101A6000032E000C440B550B0E948B19CA01B901BF
:101A7000C8D349C0A081B18122813381A217B307A5
:101A80002CF0722F632F9D01A72FB62F349660E0A4
:101A900070E0CB01C2E0D0E0819091908A169B0665
:101AA00054F46D01BB0FEE08FF086C0D7D1D8E1DFB
:101AB0009F1DD40115C02815390554F48901330F31
:101AC000220B330B600F711F821F931F940108C0FC
:101AD000092C000CAA08BB08680D791D8A1D9B1DE6
:101AE0002196C417D507C1F68CD36B017C01CE01BA
:101AF0000297BC01990F880B990B83D39B01AC0112
:101B0000C701B601E3D2CDB7DEB7ECE00C94D31930
:101B1000EF92FF920F931F93CF93DF93EC0180918D
:101B2000AF0281110DC00E94DF176093A302709372
:101B3000A4028093A5029093A60281E08093AF0255
:101B40000E94DF170091A3021091A4022091A50228
:101B50003091A602DC01CB01801B910BA20BB30BD1
:101B6000CD97A105B10508F442C07E0184E5E80ED9
:101B7000F11CF70100811181C801019691838083D6
:101B800088810E948F18F8013296EE0FFF1FEC0F2C
:101B9000FD1F91838083F70180819181889711F4E3
:101BA00011821082BE016C5F7F4F48E250E0CE018F
:101BB0002CDF20E030E040EA50E422D420E030E0A6
:101BC00040E85AE31DD4FE01E65AFF4F608371835B
:101BD0008283938320E030E040EC5FE311D4CE5861
:101BE000DF4F288139814A815B8108D206C0CA5AF9
:101BF000DF4F688179818A819B81CDB7DEB7E6E0CE
:101C00000C94D9198F929F92AF92BF92CF92DF928C
:101C1000EF92FF92CF93DF93EC017ADF4B015C01EF
:101C200084E6C82ED12CE12CF12CC701B6010E940C
:101C30001018CE016DDF9B01AC01C501B401DED1EE
:101C40004B015C018FEFC81AD80AE80AF80A89E745
:101C5000C816D104E104F10441F7CA5ADF4F20E06D
:101C600030E040EB51E4C501B40130D268837983A0
:101C70008A839B83DF91CF91FF90EF90DF90CF908D
:101C8000BF90AF909F908F9008958AE296E0BACF70
:101C90000895CF92DF92EF92FF928EE693E09ED965
:101CA0006B017C01AB01BC018AE296E010DE65E0CD
:101CB0008EE693E00E944B0580916E03882389F0A5
:101CC0006091C2058091BF059091C00544D722E084
:101CD00030E0B701A6018091BF059091C0050E9438
:101CE000411728E833E141E060E08EE693E098D8C0
:101CF000FF90EF90DF90CF90089565E97FE08EE64A
:101D000093E00E94380548EA5FE062E08EE693E0E7
:101D10000E943E0549E45EE064E08EE693E00E94A6
:101D20003E0542E85FE066E08EE693E00C943E05F7
:101D300008954F925F926F927F928F929F92AF928F
:101D4000BF92CF92DF92EF92FF92CF93DF9300D0BA
:101D500000D0CDB7DEB78AE296E0C9DD2B013C01A9
:101D60000E94DF176B017C012091650330916603AF
:101D7000409167035091680329833A834B835C83C6
:101D80008AE296E0BCDD4B015C0163E08EE693E005
:101D90000E944B0580916E03882309F16091C20572
:101DA0008091BF059091C005D6D6C701B6012981A3
:101DB0003A814B815C81621B730B840B950B1FD2A4
:101DC00020E030E04AE754E481D1AB01BC0124E0DB
:101DD00030E08091BF059091C0050E94411722E03C
:101DE00030E0B301A2018EE693E030DA22E030E089
:101DF000B501A4018EE693E029DA28E833E141E059
:101E000060E08EE693E00CD80F900F900F900F904B
:101E1000DF91CF91FF90EF90DF90CF90BF90AF9088
:101E20009F908F907F906F905F904F900895A0E06B
:101E3000B0E0EDE1FFE00C94BB19EC016A017B011D
:101E40000E94DF17088119812A813B81DC01CB01C7
:101E5000801B910BA20BB30BC816D906EA06FB0632
:101E600040F40E94DF17688379838A839B8381E033
:101E700001C080E0CDB7DEB7E8E00C94D7198EE65C
:101E800093E00E942F0648EE53E060E070E089E6A0
:101E900093E0CDDF882321F080916D03811149CF3C
:101EA0000895A0E0B0E0E7E5FFE00C94B919FC016B
:101EB0003081311121C0122F5A01EC010E944B05D3
:101EC0008881882391F0FE01EC5AFD4F60816E01FC
:101ED000FFEACF1AFDEFDF0AF601808191813BD640
:101EE000B501F6018081918111D69701402F612FB4
:101EF000CE010E94100701C080E0CDB7DEB7EAE056
:101F00000C94D519EF92FF920F9388E8E82E83E1A5
:101F1000F82E01E020E045E951E066E08EE693E02E
:101F2000C0DF0F91FF90EF900895EF92FF920F9313
:101F300088E8E82E83E1F82E01E020E043E751E055
:101F400061E08EE693E0ADDF0F91FF90EF90089592
:101F5000EF92FF920F930E94DF17609365037093D7
:101F60006603809367039093680381E080936D0319
:101F700088E8E82E83E1F82E01E020E045E651E014
:101F800060E08EE693E08DDF0F91FF90EF90089573
:101F90000F93609106017091070121E040ED57E039
:101FA0008AE296E034DC0FE22BE34CE268EB76E069
:101FB0008EE693E00E94340587EB92E0D9DA0F9128
:101FC0000895089526E040E855E260E070E088EB6F
:101FD00096E060D425E43EE048EE53E060E070E037
:101FE00087EB92E07CD989CE089587EB92E0B4D953
:101FF0008AE296E09EDC43CF08955058BB27AA277B
:102000000ED075C166D130F06BD120F031F49F3F16
:1020100011F41EF45BC10EF4E095E7FB51C1E92F0A
:1020200077D180F3BA17620773078407950718F012
:1020300071F49EF58FC10EF4E0950B2EBA2FA02DF2
:102040000B01B90190010C01CA01A0011124FF2765
:10205000591B99F0593F50F4503E68F11A16F04060
:10206000A22F232F342F4427585FF3CF469537955F
:102070002795A795F0405395C9F77EF41F16BA0B24
:10208000620B730B840BBAF09150A1F0FF0FBB1FD2
:10209000661F771F881FC2F70EC0BA0F621F731F1B
:1020A000841F48F4879577956795B795F7959E3F78
:1020B00008F0B3CF9395880F08F09927EE0F979506
:1020C00087950895D9D008F481E008950CD00FC108
:1020D00007D140F0FED030F021F45F3F19F0F0C09E
:1020E000511139C1F3C014D198F39923C9F3552381
:1020F000B1F3951B550BBB27AA27621773078407FB
:1021000038F09F5F5F4F220F331F441FAA1FA9F3B0
:1021100033D00E2E3AF0E0E830D091505040E695A2
:10212000001CCAF729D0FE2F27D0660F771F881F03
:10213000BB1F261737074807AB07B0E809F0BB0BF2
:10214000802DBF01FF2793585F4F2AF09E3F510516
:1021500068F0B6C000C15F3FECF3983EDCF38695B3
:1021600077956795B795F7959F5FC9F7880F911D8C
:102170009695879597F90895E1E0660F771F881F78
:10218000BB1F621773078407BA0720F0621B730B2B
:10219000840BBA0BEE1F88F7E095089504D068947D
:1021A000B111D9C00895BCD088F09F5790F0B92FD5
:1021B0009927B751A0F0D1F0660F771F881F991F9C
:1021C0001AF0BA95C9F712C0B13081F0C3D0B1E0AE
:1021D0000895C0C0672F782F8827B85F39F0B93FBE
:1021E000CCF3869577956795B395D9F73EF490959E
:1021F0008095709561957F4F8F4F9F4F0895E8941C
:1022000009C097FB3EF490958095709561957F4F3E
:102210008F4F9F4F9923A9F0F92F96E9BB279395EC
:10222000F695879577956795B795F111F8CFFAF4FC
:10223000BB0F11F460FF1BC06F5F7F4F8F4F9F4F2D
:1022400016C0882311F096E911C0772321F09EE88B
:10225000872F762F05C0662371F096E8862F70E0F1
:1022600060E02AF09A95660F771F881FDAF7880FCB
:102270009695879597F90895990F0008550FAA0B21
:10228000E0E8FEEF16161706E807F907C0F0121689
:102290001306E407F50798F0621B730B840B950B8C
:1022A00039F40A2661F0232B242B252B21F40895E1
:1022B0000A2609F4A140A6958FEF811D811D08957E
:1022C00097F99F6780E870E060E008959FEF80ECE9
:1022D000089500240A94161617061806090608958C
:1022E00000240A9412161306140605060895092EF2
:1022F0000394000C11F4882352F0BB0F40F4BF2B61
:1023000011F460FF04C06F5F7F4F8F4F9F4F0895A0
:1023100057FD9058440F551F59F05F3F71F0479596
:10232000880F97FB991F61F09F3F79F0879508957B
:10233000121613061406551FF2CF4695F1DF08C09A
:10234000161617061806991FF1CF869571056105B7
:1023500008940895E894BB2766277727CB0197F95F
:1023600008958ADF08F48FEF08950AD029ED3BE540
:102370004EED5EE345C00EF027C1A8CF6894A0CF14
:10238000CFDFC8F39923D1F3C6F3DF93CF931F9325
:102390000F93FF92C92FDD2788232AF02197660F1C
:1023A000771F881FDAF720E030E040E85FEB9FE31B
:1023B000883920F0803E30F021968F771FDEE8E6E6
:1023C000F0E003C01BDEE5E9F0E00CD18B01BE01BB
:1023D000EC01FB2E6F5771097595771F880B990BD0
:1023E00010DF28E132E741E35FE316D0AF2D98011B
:1023F000AE01FF900F911F91CF91DF9110DE77CF4B
:102400000BD075CF66DF28F06BDF18F0952309F04D
:1024100057CF5CCF11249FCF7BDFA0F3959FD1F3E3
:10242000950F50E0551F629FF001729FBB27F00D82
:10243000B11D639FAA27F00DB11DAA1F649F6627D7
:10244000B00DA11D661F829F2227B00DA11D621F26
:10245000739FB00DA11D621F839FA00D611D221FE0
:10246000749F3327A00D611D231F849F600D211DC4
:10247000822F762F6A2F11249F5750408AF0E1F067
:1024800088234AF0EE0FFF1FBB1F661F771F881FB0
:1024900091505040A9F79E3F510570F011CF5BCF8E
:1024A0005F3FECF3983EDCF3869577956795B7959B
:1024B000F795E7959F5FC1F7FE2B880F911D9695C5
:1024C000879597F90895FA01EE0FFF1F30962105C1
:1024D000310599F16115710561F48038BFE39B07FF
:1024E00049F168949038810561F08038BFEF9B070F
:1024F00041F0992342F5FF3FE1053105210511F136
:10250000E8940894E795D901AA2329F4AB2FBE2FAC
:10251000F85FD0F310C0FF5F70F4A695E0F7F739CD
:1025200050F019F0FF3A38F49F779F930CD00F903A
:1025300007FC905808953EF0C9CE60E070E080E856
:102540009FE308954FE79F775F934F933F932F93B8
:1025500017DF2F913F914F915F9152DF09C08CDEC1
:10256000880B990B089519F40EF0AACEF3CEAECED7
:10257000D7DEC8F39638C0F707F80F92E8942BE33C
:102580003AEA48EB5FE74ADF0F920F920F924DB79E
:102590005EB70F9289D0E2ECF0E024D04F915F91CA
:1025A000EF91FF91E595EE1FFF1F49F0FE57E068A0
:1025B0004427EE0F441FFA95E1F74195550B40D0A3
:1025C0000F9007FE34C008959F3F31F0915020F4E2
:1025D000879577956795B795880F911D96958795FF
:1025E00097F90895DF93CF931F930F93FF92EF9284
:1025F000DF927B018C01689405C0DA2EEF010CDFBD
:10260000FE01E894A5912591359145915591AEF340
:10261000EF0105DDFE019701A801DA9479F7DF905B
:10262000EF90FF900F911F91CF91DF9108959B0143
:10263000AC0160E070E080E89FE348CD41CEC4CFBC
:102640006FDEE8F39923D9F3940F511DBBF391503A
:10265000504094F059F0882332F0660F771F881F9E
:1026600091505040C1F79E3F510544F7880F911D8E
:102670009695879597F908955F3FACF0983E9CF04A
:10268000BB27869577956795B79508F4B1609395C4
:10269000C1F7BB0F58F711F460FFE8CF6F5F7F4FB2
:1026A0008F4F9F4FE3CF57CEFA01DC01AA0FBB1F1C
:1026B0009B01AC01BF5728F42227332744275078C9
:1026C0001FC0B75188F4AB2F002446953795279546
:1026D000011CA395D2F3002069F0220F331F441F81
:1026E000B395DAF30DD089CC61307105A0E88A0783
:1026F000B94630F49B01AC0166277727882790788C
:10270000309621F020833183428353830895FC0166
:10271000918D228D892F90E0805C9F4F821B9109C3
:102720008F7399270895FC01918D828D981731F050
:10273000828DE80FF11D858D90E008958FEF9FEF5A
:102740000895FC01918D828D981761F0828DDF01D3
:10275000A80FB11D5D968C91928D9F5F9F73928F94
:1027600090E008958FEF9FEF089584E095E1892B25
:1027700041F080E090E0892B21F046D181110C944A
:1027800000000895FC01848DDF01A80FB11DA35A3C
:10279000BF4F2C91848D90E001968F739927848F81
:1027A000A689B7892C93A089B1898C9180648C9378
:1027B000938D848D981306C00288F389E02D808163
:1027C0008F7D80830895CF93DF93EC01888D8823DC
:1027D000C1F0EA89FB89808185FD05C0A889B98996
:1027E0008C9186FD0EC00FB607FCF5CF808185FF6A
:1027F000F2CFA889B9898C9185FFEDCFCE01C2DFD8
:10280000E8CFDF91CF910895EF92FF920F931F933E
:10281000CF93DF93EC0181E0888F9B8D8C8D981393
:1028200005C0E889F989808185FD23C0F62E0B8DCE
:1028300010E00F5F1F4F0F731127E02E8C8DE812F1
:102840000BC00FB607FCFACFE889F989808185FFB4
:10285000F5CFCE0197DFF2CF8B8DFE01E80FF11D92
:10286000E35AFF4FF0820B8FEA89FB8980818062F7
:1028700007C0EE89FF896083E889F98980818064D7
:10288000808381E090E0DF91CF911F910F91FF90C5
:10289000EF900895CF92DF92EF92FF921F93CF9324
:1028A000DF93EC016A017B01122FE889F98982E04C
:1028B00080834115514E61057105A9F060E079E012
:1028C0008DE390E0A701960104D5DA01C9010197D3
:1028D000A109B109B695A79597958795AC014115C2
:1028E00080E15807A0F0E889F989108260E874E86F
:1028F0008EE190E0A7019601ECD4BA01A901415004
:102900005109610971097695679557954795EC8549
:10291000FD855083EE85FF854083188EEC89FD8907
:102920001083EA89FB89808180618083EA89FB8941
:10293000808188608083EA89FB89808180688083C8
:10294000EA89FB8980818F7D8083DF91CF911F9100
:10295000FF90EF90DF90CF9008951F920F920FB6E7
:102960000F9211242F938F939F93EF93FF93E091F6
:10297000C806F091C9068081E091CE06F091CF069D
:1029800082FD12C090818091D1068F5F8F7320915C
:10299000D206821751F0E091D106F0E0E854F94FE9
:1029A000958F8093D10601C08081FF91EF919F9117
:1029B0008F912F910F900FBE0F901F9018951F921F
:1029C0000F920FB60F9211242F933F934F935F9363
:1029D0006F937F938F939F93AF93BF93EF93FF93E7
:1029E00088EB96E0CFDEFF91EF91BF91AF919F9181
:1029F0008F917F916F915F914F913F912F910F90A8
:102A00000FBE0F901F90189588EB96E080DE21E0B6
:102A1000892B09F420E0822F0895E8EBF6E0138279
:102A2000128288EE93E0A0E0B0E084839583A683D1
:102A3000B78381E791E09183808385EC90E095876F
:102A4000848784EC90E09787868780EC90E0918B78
:102A5000808B81EC90E0938B828B82EC90E0958B65
:102A6000848B86EC90E0978B868B118E128E138E62
:102A7000148E0895089518D3FDDFA4DAC5EBD3E1D1
:102A8000B4DA2097E9F371DEFBCF4CC5CF92DF9229
:102A9000EF92FF920F931F93CF93DF936C017A0114
:102AA0008B01C0E0D0E0CE15DF0589F0D8016D9133
:102AB0008D01D601ED91FC910190F081E02DC601D0
:102AC0000995892B11F47E0102C02196ECCFC70134
:102AD000DF91CF911F910F91FF90EF90DF90CF90FA
:102AE00008956115710579F0FB0101900020E9F767
:102AF0003197AF01461B570BDC01ED91FC91028031
:102B0000F381E02D099480E090E00895EF92FF9228
:102B10000F931F93CF93DF938C017B01C0E0D0E034
:102B2000F701EC0FFD1F6491662361F0D801ED9170
:102B3000FC910190F081E02DC8010995892B11F0DD
:102B40002196EECFCE01DF91CF911F910F91FF9093
:102B5000EF900895C6CFDC01ED91FC910190F081DA
:102B6000E02D09946DE771E0BCCF0F931F93CF93D5
:102B7000DF93EC01CBDF8C01CE01F4DF800F911FDE
:102B8000DF91CF911F910F9108958F929F92AF92F5
:102B9000BF92CF92DF92EF92FF920F931F93CF934A
:102BA000DF93CDB7DEB7A1970FB6F894DEBF0FBEA7
:102BB000CDBF7C01D42EC52EDB0119A2223008F432
:102BC0002AE08E010F5D1F4F822E912CA12CB12C7B
:102BD0006D2D7C2DCD01A50194017BD3D22EC32E6A
:102BE000DA01015011096A3071058105910510F46F
:102BF000605D01C0695CF8016083232B242B252BC9
:102C000039F7B801C7016DDFA1960FB6F894DEBFA2
:102C10000FBECDBFDF91CF911F910F91FF90EF902D
:102C2000DF90CF90BF90AF909F908F900895CF92FC
:102C3000DF92EF92FF920F931F93CF93DF93EC01FC
:102C40006A017B012115310579F4E881F981019050
:102C5000F081E02D642FDF91CF911F910F91FF90B4
:102C6000EF90DF90CF9009942A303105D9F477FFA7
:102C700018C06DE270DF8C0144275527BA014C194A
:102C80005D096E097F092AE0CE017FDF800F911F69
:102C9000DF91CF911F910F91FF90EF90DF90CF9038
:102CA00008952AE0B701A601CE01DF91CF911F91CF
:102CB0000F91FF90EF90DF90CF9067CF21153105F6
:102CC00041F4DC01ED91FC910190F081E02D642F45
:102CD00009945BCF9A01462F50E060E070E0EECFA0
:102CE0004F925F926F927F928F929F92AF92BF921C
:102CF000CF92DF92EF92FF92CF93DF93EC016A01C4
:102D00007B01B22E9A01AB01C701B60128DC8823F2
:102D100019F060E871E024C026013701E89477F8E3
:102D20002FEF3FEF4FE75FE7C301B20118DC8111DE
:102D30000CC02FEF3FEF4FE75FE7C301B201C2D9ED
:102D400018161CF464E871E00BC02FEF3FEF4FE75B
:102D50005FE4C701B60105DB181694F468E871E07A
:102D6000CE01DF91CF91FF90EF90DF90CF90BF9099
:102D7000AF909F908F907F906F905F904F90B1CE6B
:102D80002FEF3FEF4FE75FECC701B6019BD987FDFF
:102D9000E5CF20E030E0A901C701B60193D987FF54
:102DA00009C06DE2CE01D7DE4C01F7FAF094F7F8D6
:102DB000F09402C0812C912CA12C60E070E080E0A6
:102DC0009FE3AB1439F020E030E040E251E47ED9DB
:102DD000A394F7CF9B01AC01C701B6010FD92B011A
:102DE0003C01E1D96B017C010ADA9B01AC01C30112
:102DF000B20103D92B013C012AE0B701A601CE01A3
:102E0000C4DE7C01E80CF91CBB2031F06CE871E0F9
:102E1000CE0167DEE80EF91EDB2CDD2011F120E08B
:102E200030E040E251E4C301B201EADA2B013C0197
:102E3000B5D94B01770FAA08BB082AE030E0B501ED
:102E4000A401CE01F4DEE80EF91EC501B401D9D902
:102E50009B01AC01C301B201D0D82B013C01DA9433
:102E6000DCCFC701DF91CF91FF90EF90DF90CF9043
:102E7000BF90AF909F908F907F906F905F904F909A
:102E800008952ECF0F931F93CF93DF93EC0197D02C
:102E9000688779878A879B87E881F9810680F7812F
:102EA000E02DCE01099597FF16C089D008851985B8
:102EB0002A853B85DC01CB01801B910BA20BB30B58
:102EC0000C811D812E813F8180179107A207B307D6
:102ED00018F38FEF9FEFDF91CF911F910F9108951E
:102EE000CF92DF92EF92FF920F931F93CF93DF93D6
:102EF0006C017A018B01C0E0D0E0CE15DF0559F0FE
:102F0000C601C0DF97FF02C07E0105C0F8018193B2
:102F10008F012196F2CFC701DF91CF911F910F91C1
:102F2000FF90EF90DF90CF9008951F920F920FB611
:102F30000F9211242F933F938F939F93AF93BF933F
:102F40008091560790915707A0915807B091590763
:102F50003091550723E0230F2D3720F40196A11D52
:102F6000B11D05C026E8230F0296A11DB11D2093B7
:102F700055078093560790935707A0935807B0932F
:102F8000590780915A0790915B07A0915C07B09117
:102F90005D070196A11DB11D80935A0790935B07B1
:102FA000A0935C07B0935D07BF91AF919F918F9104
:102FB0003F912F910F900FBE0F901F9018952FB734
:102FC000F894609156077091570780915807909137
:102FD00059072FBF08953FB7F89480915A079091F1
:102FE0005B07A0915C07B0915D0726B5A89B05C063
:102FF0002F3F19F00196A11DB11D3FBFBA2FA92F78
:10300000982F8827820F911DA11DB11DBC01CD01F4
:1030100042E0660F771F881F991F4A95D1F70895E0
:103020008F929F92AF92BF92CF92DF92EF92FF92D8
:103030006B017C01D0DF4B015C01C114D104E104C0
:10304000F104F1F045D1C7DFDC01CB018819990902
:10305000AA09BB09883E9340A105B10570F321E0A0
:10306000C21AD108E108F10888EE880E83E0981EA4
:10307000A11CB11CC114D104E104F10421F7DDCF7E
:10308000FF90EF90DF90CF90BF90AF909F908F9088
:1030900008958230910538F0880F991F880F991F85
:1030A00005970197F1F70895789484B5826084BDFF
:1030B00084B5816084BD85B5826085BD85B581603C
:1030C00085BDEEE6F0E0808181608083E1E8F0E09C
:1030D0001082808182608083808181608083E0E8CB
:1030E000F0E0808181608083E1EBF0E080818460AA
:1030F0008083E0EBF0E0808181608083EAE7F0E0AC
:10310000808184608083808182608083808181600F
:1031100080838081806880831092C10008958E3002
:1031200008F08E5087702091080190E4299F90014B
:103130001124822B80937C0080917A00806480939C
:103140007A0080917A0086FDFCCF809178002091F2
:10315000790090E0922B0895833081F028F481303B
:1031600099F08230A1F008958730A9F08830B9F045
:103170008430D1F4809180008F7D03C080918000E5
:103180008F7780938000089584B58F7702C084B5CF
:103190008F7D84BD08958091B0008F7703C08091AA
:1031A000B0008F7D8093B0000895CF93DF9390E0BF
:1031B000FC01EA54FE4F2491FC01E653FE4F84913A
:1031C000882361F190E0880F991FFC01EE50FE4FBB
:1031D000C591D491FC01E851FE4FA591B4916111C4
:1031E00009C09FB7F8948881209582238883EC9149
:1031F0002E230BC0623061F49FB7F8943881822F80
:10320000809583238883EC912E2B2C939FBF06C03F
:103210008FB7F894E8812E2B28838FBFDF91CF9151
:1032200008951F93CF93DF93282F30E0F901EE55D7
:10323000FE4F8491F901EA54FE4FD491F901E6530F
:10324000FE4FC491CC23C1F0162F811185DFEC2FE6
:10325000F0E0EE0FFF1FE851FE4FA591B4918FB73C
:10326000F894111105C09C91ED2FE095E92302C05F
:10327000EC91ED2BEC938FBFDF91CF911F910895CF
:10328000CF93DF93282F30E0F901EE55FE4F849164
:10329000F901EA54FE4FD491F901E653FE4FC4916F
:1032A000CC2389F0811158DFEC2FF0E0EE0FFF1FE7
:1032B000E252FE4FA591B491EC91ED2381E090E0B4
:1032C00021F480E002C080E090E0DF91CF9108958A
:1032D0000895A1E21A2EAA1BBB1BFD010DC0AA1F57
:1032E000BB1FEE1FFF1FA217B307E407F50720F06F
:1032F000A21BB30BE40BF50B661F771F881F991FEA
:103300001A9469F760957095809590959B01AC0132
:10331000BD01CF010895052E97FB16F400940FD040
:1033200057FD05D0D6DF07FC02D046F408C0509503
:103330004095309521953F4F4F4F5F4F08959095A1
:103340008095709561957F4F8F4F9F4F089546D020
:10335000A59F900DB49F900DA49F800D911D1124E9
:1033600008952F923F924F925F926F927F928F9229
:103370009F92AF92BF92CF92DF92EF92FF920F9304
:103380001F93CF93DF93CDB7DEB7CA1BDB0B0FB60E
:10339000F894DEBF0FBECDBF09942A8839884888CB
:1033A0005F846E847D848C849B84AA84B984C88461
:1033B000DF80EE80FD800C811B81AA81B981CE0F58
:1033C000D11D0FB6F894DEBF0FBECDBFED0108953D
:1033D000EE0FFF1F0590F491E02D0994A29FB0011C
:1033E000B39FC001A39F700D811D1124911DB29F39
:1033F000700D811D1124911D0895CF93DF938230AC
:10340000910510F482E090E0E0916007F09161078F
:1034100020E030E0C0E0D0E0309711F140815181F0
:1034200048175907C0F04817590761F48281938102
:10343000209719F09B838A832BC090936107809318
:10344000600726C02115310519F04217530718F4FB
:103450009A01BE01DF01EF010280F381E02DDCCF94
:103460002115310509F1281B390B2430310590F461
:1034700012968D919C9113976115710521F0FB01B6
:103480009383828304C09093610780936007FD015A
:10349000329644C0FD01E20FF31F819391932250B5
:1034A00031092D933C933AC020915E0730915F071C
:1034B000232B41F4209102013091030130935F07E7
:1034C00020935E0720910001309101012115310503
:1034D00041F42DB73EB74091040150910501241BE2
:1034E000350BE0915E07F0915F07E217F307A0F458
:1034F0002E1B3F0B2817390778F0AC014E5F5F4F4A
:103500002417350748F04E0F5F1F50935F07409315
:103510005E078193919302C0E0E0F0E0CF01DF917C
:10352000CF9108950F931F93CF93DF93009709F4E2
:103530008CC0FC01329713821282009160071091B7
:1035400061070115110581F420813181820F931FDC
:1035500020915E0730915F072817390779F5F093BE
:103560005F07E0935E0771C0D80140E050E0AE17FE
:10357000BF0750F412962D913C911397AD01211580
:10358000310509F1D901F3CF9D01DA01338322839B
:1035900060817181860F971F8217930769F4EC0190
:1035A00028813981260F371F2E5F3F4F31832083BB
:1035B0008A819B8193838283452B29F4F093610751
:1035C000E093600742C01396FC93EE931297ED01CF
:1035D000499159919E01240F351FE217F30771F4A9
:1035E00080819181840F951F029611969C938E93F2
:1035F0008281938113969C938E931297E0E0F0E082
:10360000D80112968D919C911397009719F0F801AB
:103610008C01F6CF8D919C9198012E5F3F4F820FC8
:10362000931F20915E0730915F072817390769F4CF
:10363000309729F4109261071092600702C013823C
:10364000128210935F0700935E07DF91CF911F9165
:103650000F910895A0E0B0E0EFE2FBE186CEEC012F
:103660007B016115710519F0DB018D939C938E012F
:103670000F5F1F4F7880872D90E05FD1892B11F06D
:10368000E801F5CFBDE27B1205C00F5F1F4F7980C7
:10369000C1E008C0EBE27E1204C08E010E5F1F4F36
:1036A0007980C0E06801F1E0CF1AD10843E050E032
:1036B00062EF70E0C60149D1892BE9F4680122E08C
:1036C000C20ED11C45E050E06DEE70E0C6013DD168
:1036D000892B21F4680187E0C80ED11CE114F104A4
:1036E00019F0D701CD92DC92C111FDC060E070E00D
:1036F00080E89FE701C143E050E06AEE70E0C60158
:1037000024D1892B51F4E114F10409F4F1C00E5FC6
:103710001F4FF70111830083EBC0680160E070E088
:10372000CB0100E010E0F601D0EDD70DDA3050F516
:103730002C2F2260622E2C2F2870C2FF05C0211171
:1037400027C00F5F1F4F24C0222311F00150110921
:10375000A5E0B0E09B01AC01FADD4B015C01880CF7
:10376000991CAA1CBB1CC501B4016D0F711D811DE4
:10377000911D6839A9E97A078A07A9E19A0740F0FB
:10378000C66005C0DE3F51F4C3FD44C0C8606C2E66
:10379000BFEFCB1ADB0A7080C62DC5CF2D2F2F7D32
:1037A0002531C1F540814D3211F4C06106C04B3264
:1037B00021F0319621E030E006C03296D601119614
:1037C0004C9122E030E0A0EDA40FAA3018F0E21BEB
:1037D000F30B20C040E050E04038BCE05B075CF4F5
:1037E0009A01220F331F220F331F420F531F440F22
:1037F000551F4A0F511D3196DF0111972C91A0EDF5
:10380000A20FAA3048F3C4FF03C051954195510956
:10381000040F151FC1FF07C0E114F10421F0319717
:10382000D701ED93FC930E94FF10C370C33019F0D1
:103830006B017C0106C06B017C01F7FAF094F7F88C
:10384000F09420E030E0A901C701B6010E946210A7
:10385000882309F445C017FF06C011950195110989
:10386000C9E0D1E002C0C1E2D1E05E01B8E1AB1A2B
:10387000B1084601BE2DAF2D90E2E92EF12C0E15B8
:103880001F0584F0FE012591359145915491B401B5
:103890008B2F9A2F0E9400124B01B82FA92F0E19BF
:1038A0001F09EDCF2497F594E794CA15DB0539F786
:1038B0006401EB2EFA2E8E2D880F8F2D881F8F3FDF
:1038C00049F020E030E0A901C701B6010E94621072
:1038D000811106C082E290E09093630780936207B3
:1038E000C701B60109C060E070E080E89FEF04C046
:1038F00060E070E080EC9FE7CDB7DEB7EEE051CD41
:10390000FC0188279927E89421912032E9F3293096
:1039100010F02E30C8F32B3239F02D3231F4689488
:1039200003C02BD0820F911D219120532A30C8F360
:103930001EF4909581959F4F0895911109C2803290
:1039400019F089508550D0F70895FB01DC014150F2
:10395000504088F08D9181341CF08B350CF4805EE2
:10396000659161341CF06B350CF4605E861B61114F
:1039700071F3990B0895881BFCCF7AE0979F902DE7
:10398000879F802D910D11240895AEE0B0E0EAEC00
:10399000FCE1F5CC0D891E8986E08C831A830983AE
:1039A0008FEF9FE79E838D83AE01475E5F4F6F89E8
:1039B000788DCE01019609D02F813885F801E20F6C
:1039C000F31F10822E96E4E0F6CCACE0B0E0EAEE15
:1039D000FCE1C7CC7C016B018A01FC0117821682D5
:1039E000838181FFB0C1CE0101964C01F701938123
:1039F000F60193FD859193FF81916F01882309F46E
:103A00009EC1853239F493FD859193FF81916F01B9
:103A1000853221F4B70190E0B4D1E8CF512C312C9C
:103A200020E02032A0F48B3269F030F4803259F07B
:103A3000833269F420612CC08D3239F0803339F43F
:103A4000216026C02260246023C0286021C027FD99
:103A500027C030ED380F3A3078F426FF06C0FAE080
:103A60005F9E300D1124532E13C08AE0389E300D16
:103A70001124332E20620CC08E3221F426FD5FC14A
:103A8000206406C08C3611F4206802C0883641F4E8
:103A9000F60193FD859193FF81916F018111C1CF53
:103AA000982F9F7D9554933028F40C5F1F4FFFE3B0
:103AB000F9830DC0833631F0833771F0833509F017
:103AC00057C021C0F801808189830E5F1F4F4424B5
:103AD0004394512C540114C03801F2E06F0E711C54
:103AE000F801A080B18026FF03C0652D70E002C000
:103AF0006FEF7FEFC5012C8739D12C0183012C8515
:103B00002F77222E16C03801F2E06F0E711CF801DB
:103B1000A080B18026FF03C0652D70E002C06FEF6A
:103B20007FEFC5012C8717D12C012C852068222E10
:103B3000830123FC19C0832D90E048165906A0F498
:103B4000B70180E290E01DD13A94F5CFF50127FC52
:103B5000859127FE81915F01B70190E012D131106C
:103B60003A94F1E04F1A51084114510479F7DEC03C
:103B7000843611F0893631F5F80127FF07C06081DE
:103B80007181828193810C5F1F4F08C060817181B8
:103B9000072E000C880B990B0E5F1F4F2F76722E8D
:103BA00097FF09C090958095709561957F4F8F4FD5
:103BB0009F4F2068722E2AE030E0A4011AD1A82E6F
:103BC000A81843C0853729F42F7EB22E2AE030E0B2
:103BD00025C0F22FF97FBF2E8F36C1F018F488353B
:103BE00079F0ADC0803719F0883721F0A8C02F2FA9
:103BF0002061B22EB4FE0DC08B2D8460B82E09C09A
:103C000024FF0AC09F2F9660B92E06C028E030E03E
:103C100005C020E130E002C020E132E0F801B7FE4B
:103C200007C060817181828193810C5F1F4F06C044
:103C30006081718180E090E00E5F1F4FA401D9D0B8
:103C4000A82EA818FB2DFF777F2E76FE0BC0372DF0
:103C50003E7FA51450F474FE0AC072FC08C0372DD4
:103C60003E7E05C0BA2C372D03C0BA2C01C0B52C3E
:103C700034FF0DC0FE01EA0DF11D8081803311F487
:103C8000397E09C032FF06C0B394B39404C0832FB9
:103C9000867809F0B39433FD12C030FF06C05A2C69
:103CA000B31418F4530C5B18B32CB31460F4B701BD
:103CB00080E290E03C8765D0B3943C85F6CFB314A6
:103CC00010F43B1801C0312C34FF11C0B70180E360
:103CD00090E03C8756D03C8532FF16C031FD03C0D2
:103CE00088E790E002C088E590E0B7010CC0832F20
:103CF000867851F031FF02C08BE201C080E237FDCF
:103D00008DE2B70190E03DD0A51430F4B70180E317
:103D100090E037D05A94F8CFAA94F401EA0DF11D3F
:103D20008081B70190E02DD0A110F6CF332009F4A7
:103D30005DCEB70180E290E024D03A94F7CFF7014E
:103D40008681978102C08FEF9FEF2C96E2E125CB11
:103D5000992788270895FC01059061507040011053
:103D6000D8F7809590958E0F9F1F0895FC016150A4
:103D7000704001900110D8F7809590958E0F9F1F8D
:103D800008950F931F93CF93DF93FB01238121FDB0
:103D900003C08FEF9FEF28C022FF16C046815781D6
:103DA000248135814217530744F4A081B1819D01DC
:103DB0002F5F3F4F318320838C93268137812F5F84
:103DC0003F4F3783268310C0EB01092F182F008443
:103DD000F185E02D0995892BE1F68E819F81019671
:103DE0009F838E83812F902FDF91CF911F910F9111
:103DF0000895FA01AA27283051F1203181F1E89481
:103E00006F936E7F6E5F7F4F8F4F9F4FAF4FB1E0CD
:103E10003ED0B4E03CD0670F781F891F9A1FA11DC8
:103E2000680F791F8A1F911DA11D6A0F711D811DC9
:103E3000911DA11D20D009F468943F912AE0269F8E
:103E400011243019305D3193DEF6CF010895462FED
:103E50004770405D4193B3E00FD0C9F7F6CF462FCE
:103E60004F70405D4A3318F0495D31FD4052419337
:103E700002D0A9F7EACFB4E0A695979587957795F4
:103E80006795BA95C9F700976105710508959B017B
:103E9000AC010A2E06945795479537952795BA9504
:103EA000C9F7620F731F841F951FA01D0895DC01C1
:103EB000CB01FC01F999FECF06C0F2BDE1BDF89A35
:103EC000319600B40D9241505040B8F70895F999D9
:103ED000FECF92BD81BDF89A992780B50895262F0F
:103EE000F999FECF1FBA92BD81BD20BD0FB6F894DF
:103EF000FA9AF99A0FBE0196089511E0C2E0D1E056
:103F000003C0FE0165DA2196C330D107D1F7F894DA
:023F1000FFCFE1
:103F120000006407200013000100000000D402AB7F
:103F2200027F0287029B02AA0200000000000546EF
:103F320015494E46004E614E0025256C642E2525FE
:103F42003025646C644525252B6400000000004880
:103F52000949094A094B094C0900000000AC096FE4
:103F6200097D090B0B7A0A600A8B099709A20900DD
:103F72000000005C0B7C0B4A09580B590B00000037
:103F820000041446158713A1139313E3130D0A00BB
:0E3F92006E616E00696E66006F7666002E002E
:00000001FF
