:1000000067C200008DC200008BC2000013C7000051
:1000100011C700000FC7000083C2000081C20000AA
:100020007FC200007DC200007BC2000079C20000D8
:1000300077C2000075C2000073C2000071C20000E8
:100040000C94DC2F6DC200000C94F52C0C94272D21
:1000500067C2000065C2000063C2000061C2000008
:1000600043C300005DC20000A104A504A504A504CB
:10007000A504A504A504A504A503A504A504A50439
:10008000A504A504A504A504A503A504A504A50429
:10009000A504A504A504A504AE03A504A504A50410
:1000A000A504A504A504A504D903A504A504A504D5
:1000B000A504A504A504A504AE03A504A504A504F0
:1000C000A504A504A504A504DE03A504A504A504B0
:1000D000A504A504A504A504E303A504A504A5049B
:1000E000A504A504A504A504F803A504A504A50476
:1000F000A504A504A504A5042504A504A504A50438
:10010000A504A504A504A504E803A504A504A50465
:10011000A504A504A504A5040404A504A504A50438
:10012000A504A504A504A5042704A504A504A50405
:10013000A504A504A504A5042704A504A504A504F5
:10014000A504A504A504A5042704A504A504A504E5
:10015000A504A504A504A5042704A504A504A504D5
:10016000A504A504A504A5042F04A504A504A504BD
:10017000A504A504A504A5046704A504A504A50475
:10018000A504A504A504A5042F04A504A504A5049D
:10019000A504A504A504A5046704A504A504A50455
:1001A000A504A504A504A5044904A504A504A50463
:1001B000A504A504A504A5046A04A504A504A50432
:1001C000A504A504A504A5046A04A504A504A50422
:1001D000A504A504A504A5048004A504A504A504FC
:1001E000A504A504A504A5049C04A504A504A504D0
:1001F000A504A504A504A5049C04A504A504A504C0
:10020000A504A504A504A504A504A504A504A504A6
:10021000A504A504A504A504A504A504A504A50496
:10022000A504A504A504A504A504A504A504A50486
:10023000A504A504A504A504A504A504A504A50476
:10024000A504A504A504A504A504A504A504A50466
:10025000A504A504A504A504A5044E414E494E4994
:100260005459494E46CDCCCC3D0AD7233C17B7D183
:100270003877CC2B329595E6241FB14F0A00002029
:10028000410000C84200401C4620BCBE4CCA1B0EA8
:100290005AAEC59D7400407A10F35A00A0724E18F1
:1002A000090010A5D4E80000E87648170000E40B28
:1002B00054020000CA9A3B000000E1F505000080EE
:1002C000969800000040420F000000A08601000048
:1002D00000102700000000E8030000000064000098
:1002E0000000000A00000000000100000000002CD7
:1002F00076D888DC674F0823DFC1DFAE59E1B1B79C
:1003000096E5E3E453C63AE651997696E8E6C28468
:1003100026EB898C9B62ED407C6FFCEFBC9C9F4080
:10032000F2BAA56FA5F490055A2AF75C936B6CF9A5
:10033000676DC11BFCE0E40D47FEF520E6B500D07B
:10034000ED902E0300943577050080841E08000090
:10035000204E0A000000C80C333333330F986E125E
:10036000831141EF8D2114893BE65516CFFEE6DB64
:1003700018D1844B381BF77C1D901DA4BBE42420AE
:100380003284725E228100C9F124ECA1E53D272070
:10039000202020202020202020202020202020007D
:1003A0004572726F72206E756D62657220666F7233
:1003B0002074686520617272617920746F206176A3
:1003C000726167696E67212F6E00416464696E67B0
:1003D00020706856616C3A200053657474696E67CA
:1003E00020706856616C3A20005048205261772096
:1003F00052656164696E673A20005F736C6176656F
:100400003A2000636D643A2000636D644461746156
:100410003A2000556E6578706563746564206E756A
:100420006D626572206F66206279746573207265F3
:100430006365697665643A20007E726573706F6EDD
:100440007365496E646578206E6F7420666F756E93
:10045000643A20005B53656C656C63745D20507278
:10046000657373656400000000080002010000036A
:100470000407000000000000000001020408102032
:100480004080010204081020010204081020040426
:10049000040404040404020202020202030303032C
:1004A00003030000000023002600290000000000D4
:1004B000250028002B0000000000240027002A004F
:1004C000D206ED0B6E275C28A029552D7C276A28C3
:1004D00011241FBECFEFD8E0DEBFCDBF11E0A0E0FA
:1004E000B1E0ECE2F8E702C005900D92AA3DB10739
:1004F000D9F726E0AAEDB1E001C01D92A233B20700
:10050000E1F712E0C6E6D2E004C02197FE010E94A6
:10051000D234C036D107C9F70E94832D0C940A3C0F
:100520006FCDA0E0B0E0E7E9F2E00C94F234109275
:10053000DA0181E08093DC011092DD0182E161E06B
:100540000E94583183E161E00E94583189EB90E0CC
:1005500029EB30E0F90120812E7FFC01208389EB1B
:1005600090E029EB30E0F90120812D7FFC01208310
:1005700088EB90E028E4FC0120838CEB90E025E4FC
:10058000FC012083E2E00C940E35A1E0B0E0EBEC3E
:10059000F2E00C94F23489838AEB90E02981220FF7
:1005A000FC0120832196E2E00C940E35A4E0B0E03B
:1005B000ECEDF2E00C94F2349B838A836C838C81A3
:1005C000813210F081E023C08091DA01843011F093
:1005D00082E01DC08C8180932502198213C089811D
:1005E000882F90E02981222F30E04A815B81240FFF
:1005F000351FF90120818C5F9D4FFC01208389818B
:100600008F5F898399818C81981748F380E02496C5
:10061000E2E00C940E35A2E0B0E0E1E1F3E00C94EE
:10062000F2349A83898389819A819093E10180933E
:10063000E0012296E2E00C940E35A2E0B0E0E3E2A5
:10064000F3E00C94F2349A83898389819A819093A0
:10065000DF018093DE012296E2E00C940E35A1E0EA
:10066000B0E0E5E3F3E00C94F234898389818823D8
:1006700031F08CEB90E025ECFC01208305C08CEB85
:1006800090E025E8FC0120832196E2E00C940E35F1
:10069000A0E0B0E0EEE4F3E00C94F2348CEB90E0F8
:1006A00025EDFC01208301C000008CEB90E0FC01F3
:1006B0008081882F90E080719927892BA9F710926B
:1006C000DA01E2E00C940E35A0E0B0E0EAE6F3E0F7
:1006D0000C94F2348CEB90E025ECFC01208310921A
:1006E000DA01E2E00C940E351F920F9200905F0049
:1006F0000F9211242F933F934F935F936F937F93A8
:100700008F939F93AF93BF93EF93FF93CF93DF9319
:10071000CDB7DEB789EB90E0FC018081882F90E0B7
:10072000887F9927092E000CAA0BBB0B40E050E0F4
:1007300028EF30E0841B950B2817390708F405C112
:100740008C5C9F4FFC010C94D2348BEB90E0209199
:10075000DB01FC01208381E082DFF7C0909102027F
:1007600080910302981798F48BEB90E0209102029D
:1007700031E0320F30930202222F30E02E513E4FF3
:10078000F9012081FC01208381E069DF11C08091A3
:10079000DC01882311F07CDF0BC081E08093DD0158
:1007A0008CEB90E024EAFC0120831092DA01CDC0AA
:1007B000CCC080E2809347026BDFC7C080E38093A8
:1007C000470266DFC2C088E3809347027DDFBDC079
:1007D0008091020291E0980F90930202882F90E09E
:1007E0002BEB30E0F90120818E519E4FFC012083DC
:1007F0009091020280910302981718F481E02FDF94
:10080000A4C080E02CDFA1C08091020291E0980F8B
:1008100090930202882F90E02BEB30E0F9012081C9
:100820008E519E4FFC0120838091DC01882311F0C2
:100830002FDF8BC081E08093DD018CEB90E024EA18
:10084000FC0120831092DA0180C022DF7EC083E0A9
:100850008093DA011092460281E001DF76C0809138
:100860004602803298F48091460291E0980F90936E
:100870004602882F90E02BEB30E0F90120818A5D61
:100880009D4FFC01208381E0EADE5FC080E0E7DE6F
:100890005CC080914602803240F480914602882FED
:1008A00090E08A5D9D4FFC011082F2DE2091E00114
:1008B0003091E10180914602882F90E0BC0186E2F0
:1008C00092E0F901099510924602FEDE3EC080E0FA
:1008D000C6DE3BC084E08093DA01109224021092BD
:1008E00025028091DE019091DF01FC010995809144
:1008F0002502882329F481E08093250210920402C6
:100900008BEB90E02091240231E0320F30932402EF
:10091000222F30E02C5F3D4FF9012081FC01208324
:100920009091240280912502981718F481E097DEB7
:100930000CC080E094DE09C081E091DE1092DA0103
:1009400004C010924702A4DE0000DF91CF91FF9116
:10095000EF91BF91AF919F918F917F916F915F9137
:100960004F913F912F910F9000925F000F901F9039
:100970001895A4E0B0E0EFEBF4E00C94F2349A8325
:1009800089837C836B8389819A812B813C81FC01E3
:10099000338322832496E2E00C940E35A2E0B0E08B
:1009A000E4EDF4E00C94F2349A83898389819A818E
:1009B00026ED31E0FC013183208389819A81FC019D
:1009C000138212822296E2E00C940E35A2E0B0E08F
:1009D000ECEEF4E00C94F2349A83898389819A8155
:1009E000DDDF89819A8127E731E0FC0131832083B3
:1009F00029813A8188EE93E0A0E0B0E0F901848398
:100A00009583A683B7832296E2E00C940E35A2E08C
:100A1000B0E0EDE0F5E00C94F2349A8389838981AB
:100A20009A81D4DF89819A8127E631E0FC01318304
:100A300020832296E2E00C940E35A2E0B0E0E3E2DF
:100A4000F5E00C94F2349A83898310926802109234
:100A5000690210928A0210928B0263DD2296E2E014
:100A60000C940E35A3E0B0E0E8E3F5E00C94F2342A
:100A70009A8389836B838B8188DD87E796E0DDDD50
:100A800081E396E0C8DD89819A81D7DF2396E2E091
:100A90000C940E35A3E0B0E0E0E5F5E00C94F23400
:100AA0009A8389836B8380918C028823F9F08091EB
:100AB0008B02803240F089819A8161E070E059DFD9
:100AC00080E090E019C080918A02882F90E02B810D
:100AD00086599D4FFC01208380918A028F5F80930D
:100AE0008A0280918A0280938B0204C0CE01039611
:100AF00061E05CDD81E090E02396E2E00C940E354D
:100B0000A8E0B0E0E6E8F5E00C94F2349C838B8337
:100B10007E836D8358874F8380918C02882329F1CF
:100B20001A8219821AC08B819C81FC01808191817B
:100B3000FC01208131814D815E8189819A81840F00
:100B4000951FFC0140818B819C81642FF9010995DF
:100B500089819A8101969A83898329813A818F813B
:100B6000988528173907F8F205C02F818D819E815D
:100B7000622F1CDD8F8198852896E2E00C940E355B
:100B8000A2E0B0E0E6ECF5E00C94F2349A838983BD
:100B900080916902282F30E080916802882F90E0D0
:100BA000A901481B590BCA012296E2E00C940E35AC
:100BB000A4E0B0E0EEEDF5E00C94F2349C838B837E
:100BC0008FEF9FEF9A8389839091680280916902E9
:100BD000981788F480916802882F90E0885B9D4F79
:100BE000FC018081882F90E09A838983809168023C
:100BF0008F5F8093680289819A812496E2E00C9449
:100C00000E35A4E0B0E0E7E0F6E00C94F2349C830B
:100C10008B838FEF9FEF9A838983909168028091F5
:100C20006902981760F480916802882F90E0885BD1
:100C30009D4FFC018081882F90E09A838983898170
:100C40009A812496E2E00C940E35A2E0B0E0EBE24B
:100C5000F6E00C94F2349A8389832296E2E00C94B5
:100C60000E35A5E0B0E0E7E3F6E00C94F2349B83A8
:100C70008A837D836C8380918F0290919002892B6F
:100C800009F431C09091680280916902981708F4C4
:100C90002AC0198213C08981882F90E02981222FD0
:100CA00030E04A815B81240F351FF9012081885B88
:100CB0009D4FFC01208389818F5F89838981282F43
:100CC00030E08C819D81281739072CF3109268023F
:100CD0008C818093690220918F02309190028C81E7
:100CE0009D81F90109952596E2E00C940E35A0E06E
:100CF000B0E0EDE7F6E00C94F23480918D02909133
:100D00008E02892B09F40AC010928A0210928B027B
:100D100080918D0290918E02FC010995E2E00C9485
:100D20000E35A4E0B0E0E7E9F6E00C94F2349A83E3
:100D300089837C836B838B819C81909390028093C9
:100D40008F022496E2E00C940E35A4E0B0E0EBEACA
:100D5000F6E00C94F2349A8389837C836B838B81D5
:100D60009C8190938E0280938D022496E2E00C94F5
:100D70000E35A4E0B0E0EFEBF6E00C94F2349A8389
:100D800089837C836B8389819A81019739F48B8174
:100D90009C81019619F481E992E039DE2496E2E023
:100DA0000C940E35A0E0B0E0E8EDF6E00C94F234DF
:100DB0006FEF7FEF81E090E0DCDFE2E00C940E3536
:100DC000A2E0B0E0E6EEF6E00C94F23489836A83A8
:100DD0002296E2E00C940E35A4E0B0E0E2EFF6E0FB
:100DE0000C94F2349C838B838B819C819A838983BE
:100DF00089819A810197F1F79A8389832496E2E0A9
:100E00000C940E35A2E0B0E0E8E0F7E00C94F23488
:100E10009A83898389819A81FC0186859785FC0163
:100E2000208189819A81FC01858582232296E2E0D6
:100E30000C940E351F920F9200905F000F921124B8
:100E40002F933F934F935F936F937F938F939F93D2
:100E5000AF93BF93EF93FF93CF93DF93CDB7DEB7FD
:100E60002B97DEBFCDBF80919D0290919E02892B72
:100E700009F4F4C080919D0290919E029A83898327
:100E80001B8289819A81FC01868D8270882349F0BA
:100E900089819A81B7DF982F81E0992351F480E00E
:100EA00008C089819A81AEDF982F81E0992309F0EB
:100EB00080E0882309F4D2C089819A819D838C8344
:100EC0001E828E818823A1F08C819D81FC01838903
:100ED00094892C813D81F90123893489F90140816C
:100EE0002C813D81F9012589242BFC01208315C02B
:100EF0008C819D81FC01838994892C813D81F9013C
:100F000023893489F9012081422F2C813D81F90107
:100F1000258920952423FC01208389819A81FC0165
:100F20008689978959DF61E08DE04ADF88E08F8309
:100F30001FC089819A81FC01808D918D4DDF8B814D
:100F4000882F90E0959587958B8361E08DE038DF61
:100F500089819A8157DF982F81E0992309F480E0F5
:100F6000882319F08B8180688B838F8181508F83D8
:100F70008F818823F1F689819A81FC01868D8270A8
:100F8000882319F08B8180958B838091DF02882FD5
:100F900090E001968F739078992324F40197806CE8
:100FA0009F6F019688879091E00281E0288529173C
:100FB00009F480E0882369F08091DF02882F90E0B7
:100FC00081569D4F2B81FC01208388858093DF0211
:100FD0000AC061E08BE0F4DE89819A81FC01268DF4
:100FE0002160FC01268F89819A81FC01828D938D7D
:100FF000F3DE61E08BE0E4DE89819A819A8789875C
:1010000081E08B878B858823A1F089859A85FC01F7
:101010008389948929853A85F90123893489F901DD
:10102000408129853A85F9012589242BFC012083FB
:1010300015C089859A85FC018389948929853A851B
:10104000F90123893489F9012081422F29853A85C4
:10105000F901258920952423FC0120832B960FB6C6
:10106000F894DEBF0FBECDBFDF91CF91FF91EF911E
:10107000BF91AF919F918F917F916F915F914F91B0
:101080003F912F910F9000925F000F901F90189545
:101090008F92AF92CF92EF920F93CF93DF93CDB712
:1010A000DEB728970FB6F894DEBF0FBECDBF9A8388
:1010B00089836B834C832D830E83EF82C88689815D
:1010C0009A816CDC89819A8127E831E0FC013183C7
:1010D000208389819A811F921F921F921F92888478
:1010E000AF80CE80ED800C812FEF4B8161E012D07C
:1010F0000F900F900F900F9028960FB6F894DEBFC8
:101100000FBECDBFDF91CF910F91EF90CF90AF90F9
:101110008F9008958F92AF92CF92EF920F93CF93CB
:10112000DF93CDB7DEB72A970FB6F894DEBF0FBEB8
:10113000CDBF9A8389836B834C832D830E83EF828B
:10114000C886A9868A8689819A812C81FC0124839C
:1011500089819A812D81FC01258389819A812E8143
:10116000FC01268389819A812F81FC012783898153
:101170009A812885FC01208789819A812985FC0133
:10118000218789819A812A85FC01228789819A8118
:101190002C89FC01238789819A812D89FC01248770
:1011A00089819A812E89FC01258789819A812F89DD
:1011B000FC01268789819A81FC01848161E00E947B
:1011C0001C3189819A81FC0185818F3F39F08981A9
:1011D0009A81FC01858161E00E941C3189819A819C
:1011E000FC01868161E00E941C318B81882329F0FB
:1011F00089819A81FC01178605C089819A8120E145
:10120000FC01278789819A8120E041E060E10ED0CE
:101210002A960FB6F894DEBF0FBECDBFDF91CF91F7
:101220000F91EF90CF90AF908F900895A5E0B0E030
:10123000ECE1F9E00C94F0349A8389836B834C835E
:101240002D838C81823050F089819A81FC018785C1
:10125000282F286089819A81FC01278789819A81BA
:101260002C81FC01238B8B81882F90E0AC01405CAA
:101270005F4F8B81282F30E089819A818A0140E479
:1012800050E060E070E0A4D08D81882369F08C810B
:10129000813051F489819A81FC018785282F24604F
:1012A00089819A81FC01278780E593EC0E94903028
:1012B00089819A81FC01848160E00E945831898192
:1012C0009A81FC01868160E00E94583189819A816F
:1012D000FC0185818F3F39F089819A81FC018581EC
:1012E00060E00E94583189819A81FC018785882FAE
:1012F00090E080719927892BE9F489819A8163E0D4
:1013000091D184E991E10E94903089819A8163E0D2
:1013100089D184E991E10E94903089819A8163E0CA
:1013200081D186E990E00E94903089819A8162E0C3
:1013300079D126C089819A81FC018785282F206276
:1013400089819A81622FD6D084E991E10E94903000
:1013500089819A81FC018785282F206289819A8161
:10136000622FC8D086E990E00E94903089819A81EE
:10137000FC018785282F206289819A81622FBAD04B
:1013800089819A81FC018785282F206289819A8131
:10139000622FB0D089819A8124E0FC01208B898161
:1013A0009A8188D089819A813BD089819A8122E073
:1013B000FC01218B89819A81FC018189282F24607D
:1013C00089819A81622F96D02596E4E00C940C35A1
:1013D000AAE0B0E0EEEEF9E00C94F0349A83898351
:1013E0007C836B835E834D8338872F831A870987BD
:1013F0002B8189819A81FC01248B2D8189819A819D
:10140000FC01258B2F8189819A81FC01268B2985FE
:1014100089819A81FC01278B2A96E4E00C940C3593
:10142000A2E0B0E0E6E1FAE00C94F2349A8389831A
:1014300089819A8161E05ED080ED97E00E949030D2
:101440002296E2E00C940E35A6E0B0E0EAE2FAE083
:101450000C94F2349C838B836D834E8384E090E004
:101460009A8389838E81843010F083E08E838B8110
:101470009C81FC0193898E81891730F08B819C813E
:10148000FC01838981508E838E81882F90E02B818F
:101490003C81820F931F4496FC0190818D81890FBE
:1014A0008068282F8B819C81622F24D02696E2E0D1
:1014B0000C940E35A2E0B0E0E0E6FAE00C94F234D1
:1014C0009A83898389819A81FC018089282F2460ED
:1014D00089819A81FC01208B89819A81FC01808914
:1014E000282F286089819A81622F04D02296E2E019
:1014F0000C940E35A3E0B0E0E0E8FAE00C94F2348E
:101500009A8389836B8389819A8140E06B8118D0AB
:101510002396E2E00C940E35A3E0B0E0E2E9FAE0B5
:101520000C94F2349A8389836B8389819A8141E098
:101530006B8106D081E090E02396E2E00C940E35BA
:10154000A4E0B0E0E6EAFAE00C94F2349A838983EE
:101550006B834C8389819A81FC0184816C810E9418
:10156000583189819A81FC0185818F3F39F08981C9
:101570009A81FC01858160E00E94583189819A81BD
:10158000FC018785882F90E080719927892B29F0AD
:1015900089819A816B8185D014C08B81882F90E0DE
:1015A0009595879595958795959587959595879523
:1015B000282F89819A81622F35D089819A816B8108
:1015C00031D02496E2E00C940E35A2E0B0E0EBEED0
:1015D000FAE00C94F2349A83898389819A81FC0120
:1015E000868160E00E94583181E090E00E94903056
:1015F00089819A81FC01868161E00E94583181E0F5
:1016000090E00E94903089819A81FC01868160E09F
:101610000E94583184E690E00E9490302296E2E0E9
:101620000C940E35A5E0B0E0E8E1FBE00C94F23458
:101630009C838B836D831A82198228C02B813C8105
:1016400089819A81820F931F0796FC01808161E056
:101650000E941C318D81882F90E0098002C09595F1
:1016600087950A94E2F7482F41702B813C8189814C
:101670009A81820F931F0796FC018081642F0E943C
:10168000583189819A8101969A83898389819A81C7
:101690000497A4F28B819C8198DF2596E2E00C945C
:1016A0000E35A5E0B0E0E7E5FBE00C94F2349C8356
:1016B0008B836D831A82198228C02B813C8189819A
:1016C0009A81820F931F0796FC01808161E00E943E
:1016D0001C318D81882F90E0098002C095958795F7
:1016E0000A94E2F7482F41702B813C8189819A81CD
:1016F000820F931F0796FC018081642F0E9458314E
:1017000089819A8101969A83898389819A81089730
:10171000A4F28B819C8159DF2596E2E00C940E3572
:10172000A0E0B0E0E6E9FBE00C94F23481EE92E058
:10173000FC018081882351F460E070E08BEE92E040
:101740000AD081EE92E021E0FC0120838BEE92E052
:10175000E2E00C940E35A4E0B0E0E1EBFBE00C9489
:10176000F2349A8389837C836B8389819A812B816C
:101770003C81FC01318320830AD09C0189819A81BC
:10178000FC01338322832496E2E00C940E35A0E022
:10179000B0E0EDECFBE00C94F23480E094E0E2E0A9
:1017A0000C940E35A4E0B0E0E8EDFBE00C94F234CC
:1017B0009A8389837C836B8389819A81019749F419
:1017C0008B819C81019629F4ABDF9093EA02809390
:1017D000E9022496E2E00C940E35A0E0B0E0E3EFDD
:1017E000FBE00C94F2346FEF7FEF81E090E0DADF02
:1017F000E2E00C940E35A0E0B0E0E1E0FCE00C94F7
:10180000F2340E942630DC01CB01BC01CD01E2E0C4
:101810000C940E35A8E0B0E0E0E1FCE00C94F2346A
:1018200098878F838F8198852FE831E0FC01318381
:101830002083E1DFDC01CB018B839C83AD83BE83FE
:101840001A8219823DC02F81388589819A81820F41
:10185000931F82579F4FFC0110822F813885898109
:101860009A814596880F991F820F931FFC01118260
:1018700010822F81388589819A81880F991F880F5E
:10188000991F820F931F9C012E5F3F4F8B819C817C
:10189000AD81BE81F90180839183A283B3832F81BF
:1018A000388589819A81CD96880F991F820F931F61
:1018B000FC011182108289819A8101969A83898321
:1018C00089819A810A970CF4BECF8F8198858455BF
:1018D0009F4FFC01118210822896E2E00C940E3595
:1018E000A8E0B0E0E6E7FCE00C94EE3498878F8344
:1018F00082DFDC01CB018B839C83AD83BE831A82A4
:10190000198225C12F81388589819A81845B9F4FF7
:10191000880F991F820F931FFC01118210822F8163
:10192000388589819A814596880F991F820F931F68
:10193000FC0180819181892B09F404C12F813885B4
:1019400089819A81880F991F880F991F820F931F91
:101950000296FC0180819181A281B3812B813C811F
:101960004D815E8179018A01E81AF90A0A0B1B0B85
:10197000D801C7014F81588529813A81220F331F31
:10198000220F331F240F351F225C3F4FF9012081A6
:1019900031814281538182179307A407B50708F468
:1019A000D1C02F81388589819A81880F991F880F2E
:1019B000991F820F931F0296FC0180819181A28161
:1019C000B3814F81588529813A81220F331F220F1D
:1019D000331F240F351F225C3F4FF90120813181D5
:1019E00042815381820F931FA41FB51F4F815885D9
:1019F00029813A81220F331F220F331F240F351FF5
:101A00002E5F3F4FF90180839183A283B3832F819F
:101A1000388589819A81820F931F82579F4FFC01DD
:101A20008081882309F48EC02F81388589819A812D
:101A3000C396880F991F820F931FFC0180819181AB
:101A4000892B81F42F81388589819A81845B9F4F0E
:101A5000880F991F820F931F21E030E0FC01318332
:101A6000208370C02F81388589819A81CD96880F17
:101A7000991F820F931FFC01208131814F8158856E
:101A800089819A81C396880F991F840F951FFC0145
:101A900080819181281739070CF054C02F81388537
:101AA00089819A81845B9F4F880F991F820F931FB2
:101AB00021E030E0FC01318320832F81388589814A
:101AC0009A81CD96880F991F820F931FFC01808108
:101AD00091819C012F5F3F4F4F81588589819A8169
:101AE000CD96880F991F840F951FFC0131832083A9
:101AF0002F81388589819A81CD96880F991F820F11
:101B0000931FFC01208131814F81588589819A8101
:101B1000C396880F991F840F951FFC0180819181C6
:101B2000281739077CF02F81388589819A81845B59
:101B30009F4F880F991F820F931F22E030E0FC0116
:101B40003183208389819A8101969A83898389814F
:101B50009A810A970CF4D6CE1A82198246C02F8138
:101B6000388589819A81845B9F4F880F991F820FE6
:101B7000931FFC01808191818130910519F00297BA
:101B800081F02EC02F81388589819A814596880FF2
:101B9000991F820F931FFC0180819181FC0109959F
:101BA0001FC02F81388589819A814596880F991F9A
:101BB000820F931FFC0180819181FC0109958F8127
:101BC0009885FC01808191810896FC0120813181FA
:101BD00049815A818F819885BA01F90109950000E0
:101BE00089819A8101969A83898389819A810A974A
:101BF0000CF4B5CF2896E6E00C940A35A4E0B0E0EA
:101C0000E4E0FEE00C94F2349C838B838B819C8116
:101C100084559F4FFC01808191810A971CF08FEFC2
:101C20009FEF1FC01A82198216C02B813C818981C7
:101C30009A814596880F991F820F931FFC0180811E
:101C40009181892B19F489819A810BC089819A81AC
:101C500001969A83898389819A810A9734F38FEF59
:101C60009FEF2496E2E00C940E35ACE0B0E0EBE39D
:101C7000FEE00C94F0349C838B834D835E836F83F2
:101C800078873A8729871C870B878B819C81B6DFF1
:101C90009A83898389819A8199231CF48FEF9FEF1E
:101CA0006BC089859A85892B19F48FEF9FEF64C0EB
:101CB0002B813C8189819A81880F991F880F991FF8
:101CC000820F931F9C01225C3F4F8D819E81AF81CB
:101CD000B885F90180839183A283B3832B813C81F2
:101CE00089819A814596880F991F820F931F2985B4
:101CF0003A85FC01318320832B813C8189819A8143
:101D0000C396880F991F820F931F2B853C85FC017A
:101D1000318320832B813C8189819A81820F931F9B
:101D200082579F4F21E0FC01208365DDDC01CB0160
:101D30004B815C8129813A81220F331F220F331F8F
:101D4000240F351F2E5F3F4FF90180839183A283BB
:101D5000B3838B819C8184559F4FFC01808191814D
:101D60009C012F5F3F4F8B819C8184559F4FFC01CD
:101D70003183208389819A812C96E4E00C940C3580
:101D8000A8E0B0E0E6ECFEE00C94EE349A838983A0
:101D90004B835C836D837E8338872F8389819A810F
:101DA000DC018D919C910696DC01ED91FC912F81D7
:101DB00038858B819C81AD81BE81E980FA8000E00D
:101DC00010E0AC01BD01C70109952896E6E00C942E
:101DD0000A35A8E0B0E0EFEEFEE00C94EE349A8312
:101DE00089834B835C836D837E8338872F838981CE
:101DF0009A81DC018D919C910696DC01ED91FC911C
:101E00002F8138858B819C81AD81BE81E980FA80EC
:101E100001E010E0AC01BD01C70109952896E6E09C
:101E20000C940A35A4E0B0E0E8E1FFE00C94F23451
:101E30009A8389837C836B838B819C810A970CF0C6
:101E400069C089819A8184559F4FFC01808191816D
:101E5000892B09F45FC029813A818B819C81459649
:101E6000880F991F820F931FFC0180819181892B1C
:101E700009F450C029813A818B819C814596880F55
:101E8000991F820F931FFC011182108229813A81D0
:101E90008B819C81820F931F82579F4FFC01108280
:101EA00029813A818B819C81845B9F4F880F991F88
:101EB000820F931FFC011182108229813A818B814C
:101EC0009C81880F991F880F991F820F931FCE96B0
:101ED000FC01108211821282138229813A818B8146
:101EE0009C81CD96880F991F820F931FFC01118250
:101EF000108289819A8184559F4FFC018081918154
:101F00009C012150310989819A8184559F4FFC01A0
:101F1000318320832496E2E00C940E35A4E0B0E0F7
:101F2000E4E9FFE00C94F2349A8389837C836B8329
:101F30008B819C810A970CF014C05DDCDC01CB0125
:101F400049815A812B813C81220F331F220F331F7D
:101F5000240F351F2E5F3F4FF90180839183A283A9
:101F6000B3832496E2E00C940E35A4E0B0E0EBEBF2
:101F7000FFE00C94F2349A8389837C836B838B819A
:101F80009C810A9714F080E00AC029813A818B81F4
:101F90009C81820F931F82579F4FFC018081249662
:101FA000E2E00C940E35A4E0B0E0E9EDFFE00C9423
:101FB000F2349A8389837C836B838B819C810A971B
:101FC0000CF00BC029813A818B819C81820F931F79
:101FD00082579F4F21E0FC0120832496E2E00C947D
:101FE0000E35A4E0B0E0E7EFFFE00C94F2349A8302
:101FF00089837C836B838B819C810A970CF00AC058
:1020000029813A818B819C81820F931F82579F4F38
:10201000FC0110822496E2E00C940E35CF92EF92F0
:102020000F93CF93DF9300D0CDB7DEB79A83898328
:1020300089819A810F2EF7E0CF2EF02D0F2EF6E03A
:10204000EF2EF02D05E024E049E068E021D88981F9
:102050009A8125EA31E0FC013183208389819A81CC
:102060002AE0E5E1F1E0DC01589601900D922A9515
:10207000E1F789819A8125E030E0FC0133A322A3B6
:1020800089819A8108D00F900F90DF91CF910F91A5
:10209000EF90CF900895A2E0B0E0E1E5F0E10C947C
:1020A000F2349A83898389819A8120E042E060E159
:1020B000BDD889819A81B4D989819A8140E060E054
:1020C000C3D92296E2E00C940E35A4E0B0E0EBE632
:1020D000F0E10C94F2349A8389837C836B832B81A7
:1020E00089819A81422F60E0AFD92FE833E089815E
:1020F0009A81B9010E94D02D2496E2E00C940E350D
:10210000A6E0B0E0E6E8F0E10C94F2349A8389832B
:102110007C836B835E834D832B813C8189819A8193
:10212000B901D3DF2B8189819A81422F60E08CD95C
:1021300089819A812D813E81B9010E94F42D2696D4
:10214000E2E00C940E35A4E0B0E0E9EAF0E10C9492
:10215000F2349C838B838B819C8169D09A838983A1
:1021600089819A818230910591F0833091052CF418
:10217000009749F0019749F010C08330910549F06C
:10218000049749F00AC080E009C081E007C082E0FE
:1021900005C083E003C084E001C085E02496E2E04E
:1021A0000C940E35A6E0B0E0E8EDF0E10C94F234CA
:1021B0009C838B837E836D831A8219821AC02B8144
:1021C0003C8189819A810C96880F991F820F931FF9
:1021D000FC01808191819C018D819E8182179307F2
:1021E00018F489819A811FC089819A8101969A8306
:1021F00089838B819C81FC0122A133A189819A81F1
:1022000082179307E4F28B819C81FC0122A133A108
:1022100089819A818217930724F08FEF9FEF9A8329
:10222000898389819A812696E2E00C940E35A6E096
:10223000B0E0EDE1F1E10C94F2349E838D8380E017
:102240000E94D6309A83898329813A818D819E812B
:10225000B901A8DF9C838B838B819C812696E2E069
:102260000C940E35A4E0B0E0E8E3F1E10C94F23414
:102270009A8389837C836B838B819C812496E2E0A3
:102280000C940E35AAE0B0E0E8E4F1E10C94F034EF
:102290009A87898789859A85A4D18C0189859A85B1
:1022A0008FD120E030E0A901B801B7D1DC01CB012A
:1022B00089839A83AB83BC8389859A85E8D1CC01D5
:1022C000A0E0B0E0BC01CD010E94B02ADC01CB014E
:1022D0009C01AD0169817A818B819C810E94172AC2
:1022E000DC01CB018D839E83AF83B8878D819E8176
:1022F000AF81B885BC01CD012A96E4E00C940C3581
:10230000CF92DF92EF92FF92CF93DF93CDB7DEB7FC
:1023100066970FB6F894DEBF0FBECDBF988B8F8740
:102320007A8B698B1F82188619861A8689899A8901
:10233000181619065CF080EA93E0BC0186E895E087
:102340000E940C2E80E090E0DC012BC189899A89E3
:1023500005970CF049C01A82198220C089819A81A0
:10236000880F991F2F853889820F931FFC01808168
:102370009181092E000CAA0BBB0B2F813885498552
:102380005A85820F931FA41FB51F8F839887A98733
:10239000BA8789819A8101969A83898329813A81B2
:1023A00089899A8928173907CCF289899A899C01E9
:1023B000990F440B550B8F819885A985BA85BC016F
:1023C000CD010E94B634DA01C901BC01CD010E94E1
:1023D000B22ADC01CB018B879C87AD87BE878B85BA
:1023E0009C85AD85BE85DDC08F859889FC012081E7
:1023F00031818F8598890296FC018081918128170F
:1024000039077CF48F859889FC01808191819E83B6
:102410008D838F859889FC01828193819C838B8336
:102420000EC08F859889FC01828193819E838D8364
:102430008F859889FC01808191819C838B8382E0C8
:1024400090E09A83898380C089819A81880F991F3F
:102450002F853889820F931FFC01208131818D8166
:102460009E812817390704F58D819E81092E000C65
:10247000AA0BBB0B2F81388549855A85820F931F84
:10248000A41FB51F8F839887A987BA8789819A81EE
:10249000880F991F2F853889820F931FFC01808137
:1024A00091819E838D834BC089819A81880F991F6A
:1024B0002F853889820F931FFC01208131818B8108
:1024C0009C818217930704F58B819C81092E000C57
:1024D000AA0BBB0B2F81388549855A85820F931F24
:1024E000A41FB51F8F839887A987BA8789819A818E
:1024F000880F991F2F853889820F931FFC018081D7
:1025000091819C838B831BC089819A81880F991F3D
:102510002F853889820F931FFC0180819181092EBC
:10252000000CAA0BBB0B2F81388549855A85820F79
:10253000931FA41FB51F8F839887A987BA878981A6
:102540009A8101969A83898329813A8189899A8916
:10255000281739070CF478CF6F81788589859A859B
:102560000E94B22A6B017C0189899A890297092EFF
:10257000000CAA0BBB0BBC01CD010E94B22ADC01EE
:10258000CB019C01AD01C701B6010E94172ADC01F5
:10259000CB018B879C87AD87BE878B859C85AD855E
:1025A000BE85BC01CD0166960FB6F894DEBF0FBEA6
:1025B000CDBFDF91CF91FF90EF90DF90CF90089546
:1025C000A2E0B0E0E6EEF2E10C94F2349A83898363
:1025D00089819A81FC01808191812296E2E00C94AC
:1025E0000E35A2E0B0E0E7EFF2E10C94F2349A830A
:1025F000898389819A81FC012081318189819A8135
:10260000FC0184819581880F991F880F991F820F83
:10261000931F2296E2E00C940E35A8E0B0E0E3E1CF
:10262000F3E10C94F2349A8389837C836B832D834A
:102630003E834F8358871AC089819A81FC0180812B
:102640009181A281B3819C01AD016D817E818F81D9
:1026500098850E94AF29DC01CB018D839E83AF83D7
:10266000B88789819A8104969A83898329813A81DE
:102670008B819C8128173907F9F68D819E81AF8166
:10268000B885BC01CD012896E2E00C940E35A2E09D
:10269000B0E0EDE4F3E10C94F2349A83898389810C
:1026A0009A81FC01848195812296E2E00C940E359A
:1026B000A2E0B0E0EEE5F3E10C94F2349A83898372
:1026C0002296E2E00C940E35A2E0B0E0EAE6F3E1F7
:1026D0000C94F2349A8389832296E2E00C940E35AE
:1026E000A4E0B0E0E6E7F3E10C94F2349C838B8342
:1026F0001A82198217C08B819C81FC012081318153
:1027000089819A81880F991F880F991F280F391F77
:102710008B819C810696B901A2D089819A8101960C
:102720009A8389838B819C81FC01248135818981F5
:102730009A8182179307F8F28B819C81FC01428178
:1027400053818B819C81FC01208131818B819C8113
:102750000696B90192D08B819C810696B5DF2496AE
:10276000E2E00C940E35A6E0B0E0E9EBF3E10C9466
:10277000F2349A8389837C836B835E834D838B8160
:102780009C81880F991F880F991F0E948D2D269676
:10279000E2E00C940E35A8E0B0E0E1EDF3E10C943A
:1027A000F2349C838B837E836D8358874F838B8128
:1027B0009C81FC01248135818D819E8128173907F8
:1027C00008F043C08B819C81FC01228133818D8183
:1027D0009E812817390748F48D819E819C01285FCE
:1027E0003F4F8B819C81B9015CD08B819C81FC0126
:1027F000848195819A83898319C08B819C81FC0196
:102800002081318189819A81880F991F880F991FB2
:10281000280F391F8B819C8106964F815885B901FD
:10282000C7D089819A8101969A83898329813A81C7
:102830008D819E812817390700F38B819C812D8122
:102840003E81FC013583248306C02D813E818B812E
:102850009C81B901D3D02896E2E00C940E35A4E017
:10286000B0E0E5E3F4E10C94F2349A8389837C834D
:102870006B832496E2E00C940E35A6E0B0E0E3E42E
:10288000F4E10C94F2349A8389837C836B835E83B6
:102890004D838B819C810E948E2D2696E2E00C94C4
:1028A0000E35AAE0B0E0E7E5F4E10C94F234988745
:1028B0008F837A8769878F819885FC012281338194
:1028C00089859A852817390708F06EC08F81988509
:1028D000FC01808191819C838B838F819885FC0191
:1028E000828193819E838D838F81988529853A8506
:1028F000FC01338322838F819885FC0122813381FF
:102900008F819885069640E050E0B9012CDF9C014C
:102910008F819885FC01318320831A82198231C00E
:1029200089819A81880F991F880F991F2B813C817B
:10293000A901480F591F8F819885FC0120813181A1
:1029400089819A81880F991F880F991F280F391F35
:102950008F8198850696B9012BD089819A81880F3D
:10296000991F880F991F2B813C81280F391F8F8158
:1029700098850696B90173DF89819A8101969A83B9
:1029800089838F819885FC012481358189819A8191
:102990008217930728F28F81988506964D815E8174
:1029A0002B813C81B90169DF2A96E2E00C940E3557
:1029B000A6E0B0E0EEEDF4E10C94F2349A83898362
:1029C0007C836B835E834D838B819C81BC0184E01F
:1029D00090E048DC9C012115310561F08D819E81DC
:1029E000FC0180819181A281B381F901808391836F
:1029F000A283B3832696E2E00C940E35A6E0B0E005
:102A0000E4E0F5E10C94F2349C838B837E836D8348
:102A10008B819C81FC01248135818D819E8182176F
:102A2000930768F58D819E819A83898317C08B8176
:102A30009C81FC012081318189819A81880F991FB5
:102A4000880F991F280F391F8B819C810696B90129
:102A500006DF89819A8101969A8389838B819C8183
:102A6000FC012481358189819A8182179307F8F2CC
:102A70008B819C812D813E81FC01358324832696A8
:102A8000E2E00C940E35A2E0B0E0E9E4F5E10C944C
:102A9000F2349A83898389819A81FC0180819181B2
:102AA0002296E2E00C940E35A4E0B0E0EAE5F5E110
:102AB0000C94F2349A8389837C836B8389819A8115
:102AC0002B813C81B9010E9416322496E2E00C94DD
:102AD0000E35A4E0B0E0EFE6F5E10C94F2349A8311
:102AE00089837C836B8389819A812B813C81FC0162
:102AF000318320832496E2E00C940E35A2E0B0E00E
:102B0000E4E8F5E10C94F2349A83898389819A810F
:102B1000FC01808191810E94F43B2296E2E00C94BA
:102B20000E35A2E0B0E0E7E9F5E10C94F2349A83C7
:102B3000898389819A81E2DF2296E2E00C940E3546
:102B4000A3E0B0E0E6EAF5E10C94F2349A838983DD
:102B50006B8389819A81FC01808191816B810E94C4
:102B6000FC3B89819A812396E2E00C940E35A3E028
:102B7000B0E0EDEBF5E10C94F2349A8389836B833A
:102B800089819A81CEDF982F8B81981729F08981CE
:102B90009A816B81D5DF02C089819A812396E2E018
:102BA0000C940E35A6E0B0E0E8EDF5E10C94F234BB
:102BB0009C838B837E836D838D819E81BC01CE013E
:102BC000019687DF89819A812696E2E00C940E3582
:102BD000AAE0B0E0EEEEF5E10C94F0349E838D8334
:102BE00078876F835A8749871A8219821DC00D81A1
:102BF0001E81C80101979E838D838F8198859C01DA
:102C00002F5F3F4F38872F83BC018FEE92E0CADFE2
:102C10009C838B83CE01039684DFF80180838981B6
:102C20009A8101969A83898329813A8189859A8537
:102C300028173907E0F22A96E4E00C940C35ABE053
:102C4000B0E0E5E2F6E10C94F2349F838E8379875D
:102C500068875B874A871A82198220C08E819F818C
:102C6000FC0180818B83888599859C012F5F3F4F74
:102C700039872887BC018FEE92E094DF9D838C8397
:102C8000CE0104966B8173DF8E819F8101979F83B4
:102C90008E8389819A8101969A83898329813A81D9
:102CA0008A859B8528173907C8F22B96E2E00C9499
:102CB0000E35A4E0B0E0EFE5F6E10C94F2349A832F
:102CC00089837C836B8389819A8126ED31E0FC01C5
:102CD000318320838B819C81FC0122813381898116
:102CE0009A81FC01338322832496E2E00C940E3512
:102CF000A4E0B0E0EEE7F6E10C94F2349A83898325
:102D00007C836B832B813C8189819A81B901D1DFDE
:102D100089819A8127E831E0FC01318320838B810E
:102D20009C81FC01248189819A81FC0124838B810F
:102D30009C81FC01258189819A81FC0125838B81FD
:102D40009C81FC01268189819A81FC0126838981ED
:102D50009A812B813C8148E0F9013796DC01179676
:102D600001900D924A95E1F78B819C81FC012785AA
:102D700089819A81FC0127878B819C81FC012089B4
:102D800089819A81FC01208B8B819C81FC012189A6
:102D900089819A81FC01218B8B819C81FC01228994
:102DA00089819A81FC01228B8B819C81FC01238982
:102DB00089819A81FC01238B29813A818B819C81B5
:102DC000FC0184899589A689B789F901848B958B43
:102DD000A68BB78B2496E2E00C940E35A4E0B0E00D
:102DE000E4EFF6E10C94F2349A8389837C836B835D
:102DF0002B813C8189819A81B9017ADF89819A810D
:102E000025EA31E0FC013183208389819A812B817D
:102E10003C814AE0F9017896DC01589601900D92C8
:102E20004A95E1F78B819C81FC0122A133A1898124
:102E30009A81FC0133A322A32496E2E00C940E3580
:102E4000ACE0B0E0E6E2F7E10C94EE349B838A83D9
:102E50007D836C835F834E8328871A870987FC866E
:102E6000EB868A819B812C813D81FC01318320830B
:102E70008A819B81FC0117AE16AE8A819B81805CA2
:102E80009F4F2E813F81FC0131832083CE0101962B
:102E90000FDC8A819B818E5B9F4F9E012F5F3F4F8E
:102EA000B90158D5CE0101960FDC8A819B81875BE1
:102EB0009F4FFC01118210828A819B81895A9F4F0A
:102EC0002885FC0120838A819B81885A9F4F2B850E
:102ED0003C85FC01318320838A819B81855A9F4FE9
:102EE000FC01118210828A819B81835A9F4F298520
:102EF0003A85B90173DF8A819B818F579F4F6FE1BC
:102F000071E00E9416328A819B8189579F4F6FE141
:102F100071E00E9416328A819B819C0123573F4FAA
:102F200080E090E0A0E4B0E4F90180839183A28383
:102F3000B3838A819B8104D02C96E6E00C940A35F9
:102F4000A6E0B0E0E6EAF7E10C94F2349E838D83CC
:102F500061E08DE00E941C318D819E81885A9F4FD7
:102F6000FC018081918161E00E941C318091A90166
:102F70009091AA0121D5DC01CB0189839A83AB838F
:102F8000BC8329813A814B815C8169817A818B8103
:102F90009C810E94C92B882371F48D819E819C01A4
:102FA00023573F4F89819A81AB81BC81F90180838E
:102FB0009183A283B3832696E2E00C940E35AAE0B7
:102FC000B0E0E5EEF7E10C94F2349E838D834F83FD
:102FD000588769877A878D819E819C0123573F4F4F
:102FE0008F819885A985BA85F90180839183A28311
:102FF000B3838D819E8183579F4FFC018081918196
:10300000A281B38189839A83AB83BC838091A90118
:103010009091AA019C01CE010196BC01C901DFD4A7
:103020002A96E2E00C940E35AEE0B0E0EAE1F8E179
:103030000C94F2349E878D878D859E85855B9F4F8E
:10304000FC0180819181A281B381FE01379622E04B
:10305000AC01BD01CF010E94B132CE01079613DD54
:103060009C018D859E858F579F4FB9010E944732E5
:10307000CE0107960E94AF318D859E85815B9F4F63
:10308000FC0180819181A281B38122E0AC01BD016C
:10309000CE0101960E94B132CE010196F4DC9C0172
:1030A0008D859E8589579F4FB9010E944732CE0179
:1030B00001960E94AF318D859E85855B9F4FFC01F7
:1030C00080819181A281B381BC01CD012E96E2E085
:1030D0000C940E35ACE2B0E0E0E7F8E10C94EE348D
:1030E0009CA78BA78BA59CA5865A9F4FFC0190811E
:1030F00081E08927882309F0A4C18BA59CA5A5D1CF
:10310000DC01CB012BA53CA5255B3F4FF90180835A
:103110009183A283B38380EF92E0FC0180818823B6
:1031200089F40E942630DC01CB0180930803909340
:103130000903A0930A03B0930B0380EF92E021E010
:10314000FC0120830E9426309B01AC018091080382
:1031500090910903A0910A03B0910B0379018A01B0
:10316000E81AF90A0A0B1B0BD801C70121E08136C6
:103170009A4EA105B10508F420E0222309F461C1AB
:1031800019821A821B821C828BA59CA58E5B9F4F85
:103190007EDA21E0059708F020E02223D1F18BA50B
:1031A0009CA5855B9F4FFC0180819181A281B381A9
:1031B0008BA39CA3ADA3BEA38BA59CA58E5B9F4FA9
:1031C0009E012D5D3F4FB9011ED48BA59CA59C018E
:1031D0002E5B3F4FCE014C96B90131D4CE014C96B7
:1031E00051D8DC01CB0189839A83AB83BC83CE01A8
:1031F0004C9676DA8BA59CA59C01215B3F4F89817B
:103200009A81AB81BC81F90180839183A283B383CE
:1032100018C18BA59CA59C012E5B3F4FCE01459606
:10322000B9010DD4CE0145962DD8DC01CB0189839F
:103230009A83AB83BC83CE01459652DA8BA59CA5BD
:10324000855B9F4FFC0180819181A281B38129819F
:103250003A814B815C81BC01CD010E94AF29DC0128
:10326000CB0120E030E040E050E4BC01CD010E9401
:10327000172ADC01CB018FA398A7A9A7BAA72FA172
:1032800038A549A55AA58BA59CA5855B9F4FFC0138
:1032900080819181A281B381EBA5FCA589019A016E
:1032A000AC01BD01CF01FDD28D838D818823D9F082
:1032B0008BA59CA5855A9F4FFC01808191810A971F
:1032C00094F48BA59CA5855A9F4FFC018081918128
:1032D0009C012F5F3F4F8BA59CA5855A9F4FFC01FA
:1032E00031832083AEC08BA59CA5855A9F4FFC01DE
:1032F000118210828FE090E09F838E838BA59CA526
:103300008E5B9F4FC4D999878887288539858E81A0
:103310009F8128173907ECF48AEC93E0BC0186E81A
:1033200095E00E94D02D8FA198A5A9A5BAA522E06D
:1033300030E0AC01BD0186E895E00E94CC2F8BA562
:103340009CA58E5B9F4F9E01295D3F4FB9015BD3CA
:1033500035C089ED93E0BC0186E895E00E94D02D50
:103360008FA198A5A9A5BAA522E030E0AC01BD01C6
:1033700086E895E00E94CC2F8BA59CA5875B9F4F8C
:10338000FC0180819181AC014F5F5F4F2BA53CA573
:10339000275B3F4FF901518340839C018BA59CA57E
:1033A0008E5B9F4FB901BBD39C018FA198A5A9A5A6
:1033B000BAA5F90180839183A283B3838BA59CA5D1
:1033C000875B9F4FFC01208131818E819F8128176F
:1033D000390739F48BA59CA5875B9F4FFC011182AF
:1033E00010828BA59CA59C012E5B3F4FCE010E96B3
:1033F000B90125D3CE010E960E944211DC01CB010A
:103400008A879B87AC87BD87CE010E9669D98BA52D
:103410009CA59C01215B3F4F8A859B85AC85BD8522
:10342000F90180839183A283B3830E942630DC015B
:10343000CB018093080390930903A0930A03B093F0
:103440000B03AC96E6E00C940A35AEE0B0E0EBE29C
:10345000FAE10C94EE349E878D8788EF92E0FC01B0
:103460008081882389F40E942630DC01CB0180937F
:103470000C0390930D03A0930E03B0930F0388EFFA
:1034800092E021E0FC0120830E9426309B01AC01E8
:1034900080910C0390910D03A0910E03B0910F0346
:1034A00079018A01E81AF90A0A0B1B0BD801C70136
:1034B00021E0893E9340A105B10508F420E02223D4
:1034C00009F4D0C08EE190E09E838D838D859E852A
:1034D000FC01808191810E94D63098878F8389EE8C
:1034E00093E0BC0186E895E00E94D02D8F819885FD
:1034F0004AE050E0BC0186E895E00E94C52E8D852B
:103500009E85FC0186AD97ADAC014F5F5F4F2D8569
:103510003E85F90157AF46AF2D853E850196880F50
:10352000991F820F931F2F813885FC0131832083DF
:103530008D859E85FC0126AD37AD8D819E81281736
:10354000390729F48D859E85FC0117AE16AE8D8551
:103550009E8502962D813E81B9010E948011DC0179
:10356000CB0189879A87AB87BC8720E030E040EAAF
:1035700050E469857A858B859C850E94662BDC01E9
:10358000CB0120E030E040E854E4BC01CD010E94D2
:10359000172ADC01CB012D853E852D5A3F4FF901BD
:1035A00080839183A283B3838D859E858D5A9F4F9F
:1035B000FC0180819181A281B3819C01AD0160E019
:1035C00070E080E290E40E94AE29DC01CB012CEE99
:1035D00031E548E35EE3BC01CD010E94172ADC011E
:1035E000CB0120E030E040EE50E4BC01CD010E9470
:1035F000AF29DC01CB017C018D018D859E85835730
:103600009F4FFC0180819181A281B3819C01AD011A
:10361000C801B7010E94AF29DC01CB0189839A83DD
:10362000AB83BC8320E030E0A90169817A818B8182
:103630009C810E94132A882324F419821A821B82F7
:103640001C820E942630DC01CB0180930C039093F6
:103650000D03A0930E03B0930F0389819A81AB8170
:10366000BC8109C08D859E85855B9F4FFC01808153
:103670009181A281B381BC01CD012E96E6E00C942C
:103680000A35A2E0B0E0E7E4FBE10C94F2349A835F
:10369000898389819A810E94AF312296E2E00C945D
:1036A0000E35AAE1B0E0E7E5FBE10C94EE349A8F29
:1036B000898F898D9A8DB8DC80E093E0FC01808150
:1036C000882389F40E942630DC01CB01809310030B
:1036D00090931103A0931203B093130380E093E03F
:1036E00021E0FC0120830E9426309B01AC018091E7
:1036F000100390911103A0911203B0911303281BA2
:10370000390B4A0B5B0B898D9A8D805C9F4FFC01B6
:103710008081918180579E4F092E000CAA0BBB0B14
:1037200061E082179307A407B50708F060E06623FD
:1037300009F474C0898D9A8D895A9F4FFC0180814C
:10374000882309F45FC0CE010D966FE171E00E94FD
:103750001632898D9A8D865A9F4FFC01808188236D
:1037600031F0CE010D9660E271E00E944732898D02
:103770009A8D8C010F571F4F898D9A8D7C01F7E828
:10378000EF0EF11CCE01079662E271E08DD9CE01F9
:103790000796B7010E94593367E271E00E946A33CD
:1037A000B8010E9459339C01CE010D96BC01C9019C
:1037B0000E9459339C01CE014396B9010E943F32C9
:1037C000CE0107965EDFCE014396BC01CE01019685
:1037D0000E943F32898D9A8D835A9F4F9E012F5FA1
:1037E0003F4FA90160E070E00E948010CE01019679
:1037F0000E94AF31CE0143960E94AF31CE010D96AB
:103800000E94AF310E942630DC01CB01809310036F
:1038100090931103A0931203B09313036A96E6E00A
:103820000C940A35A2E0B0E0E8E1FCE10C94F2343B
:103830009A83898389819A81865A9F4F21E0FC016E
:10384000208389819A81885A9F4FFC0180819181D0
:1038500061E00E9458312296E2E00C940E35A2E01D
:10386000B0E0E5E3FCE10C94F2349A83898389812A
:103870009A81865A9F4FFC01108289819A81885AC9
:103880009F4FFC018081918160E00E94583168EE79
:1038900073E080E090E00E9457302296E2E00C94C2
:1038A0000E35A1E1B0E0E7E5FCE10C94F034998736
:1038B00088874A875B876C877D870E871F87288B61
:1038C000398B8DEC9CECACE4BEE389839A83AB83AB
:1038D000BC8329813A814B815C816E857F85888993
:1038E00099890E94AE29DC01CB0111E02A853B8534
:1038F0004C855D85BC01CD010E94622B18160CF031
:1039000010E01D8329813A814B815C816E857F8522
:10391000888999890E94AF29DC01CB0111E02A85B1
:103920003B854C855D85BC01CD010E94132A88230F
:103930000CF010E01E838D81882319F48E8188237A
:1039400011F081E001C080E08F838F816196E4E017
:103950000C940C35A4E0B0E0E0EBFCE10C94F23404
:103960009A8389837C836B8389819A81FC0111828C
:10397000108289819A8128E030E0FC013383228320
:1039800089819A81FC011582148289819A81FC01C6
:103990002281338189819A81069640E050E0B90105
:1039A0000E94B3139C0189819A81FC013183208399
:1039B0002496E2E00C940E35A2E0B0E0E2EEFCE1E9
:1039C0000C94F2349A83898389819A81C3D0DC0173
:1039D000CB01BC01CD012296E2E00C940E35A4E0AF
:1039E000B0E0E5EFFCE10C94F2349A8389837C83A8
:1039F0006B832B813C8189819A81B901CBD024963C
:103A0000E2E00C940E35A4E0B0E0E9E0FDE10C94B6
:103A1000F2349A8389837C836B8389819A810E94A3
:103A200047139C012F5F3F4F4B815C8189819A81B5
:103A3000B9010E94CB132496E2E00C940E35A6E067
:103A4000B0E0E5E2FDE10C94F2349C838B837E834D
:103A50006D838B819C8106960E9458138D819E8177
:103A6000FC01248135818B819C81FC013583248379
:103A70008B819C81FC01848195819C01285F3F4F53
:103A80008B819C81FC01338322838B819C81FC018F
:103A9000228133818B819C81069640E050E0B90100
:103AA0000E94B3139C018B819C81FC013183208394
:103AB0001A82198226C08D819E81FC01208131816C
:103AC00089819A81880F991F880F991FA901480F32
:103AD000591F8B819C81FC012081318189819A81D0
:103AE000880F991F880F991F280F391F8B819C8180
:103AF0000696B9010E94D81489819A8101969A8309
:103B000089838B819C81FC012481358189819A8103
:103B10008217930780F22696E2E00C940E35A4E01B
:103B2000B0E0E5E9FDE10C94F2349A8389837C836B
:103B30006B8389819A81FC01208131818B819C81F9
:103B4000880F991F880F991F820F931F2496E2E018
:103B50000C940E35A6E0B0E0E0EBFDE10C94F234FD
:103B60009E838D838D819E8133D0BC0183E090E064
:103B70009E012F5F3F4F820F931F44E050E028D8F3
:103B800089819A81AB81BC81BC01CD012696E2E09E
:103B90000C940E35A4E0B0E0E0EDFDE10C94F234BD
:103BA0009A8389837C836B8389819A8111D0BC013C
:103BB00083E090E02B813C81820F931F44E050E032
:103BC0003ED889819A8104D02496E2E00C940E3587
:103BD000A2E0B0E0EEEEFDE10C94F2349A8389832A
:103BE00089819A812296E2E00C940E35ABE0B0E038
:103BF000ECEFFDE10C94EE349A8389837C836B8334
:103C00005E834D832F8319870887FB86EA86898127
:103C10009A812B813C81FC013183208389819A81A7
:103C2000FC0117AE16AE89819A81805C9F4F2D8171
:103C30003E81FC013183208389819A81825B9F4F81
:103C40002F81FC01208389819A81815B9F4F2A8586
:103C50003B85FC013183208389819A818E5A9F4F55
:103C6000FC011182108289819A818C5A9F4F28858C
:103C70003985B901B3D889819A8188589F4F6AE202
:103C800071E00E94163289819A8182589F4F6AE2C0
:103C900071E00E94163289819A818C579F4F2AEBDE
:103CA00034E0FC013183208389819A8104D02B96F2
:103CB000E6E00C940A35A6E0B0E0E1E6FEE10C9403
:103CC000F2349E838D8361E08DE00E941C318D81F2
:103CD0009E81815B9F4FFC018081918161E00E9408
:103CE0001C318091A9019091AA010496A7D3092EB5
:103CF000000CAA0BBB0BBC01CD010E94B22ADC0157
:103D0000CB0189839A83AB83BC8329813A814B8120
:103D10005C8169817A818B819C810E94C92B882377
:103D200081F469817A818B819C810E947F2ADC01E8
:103D3000CB019C018D819E818C579F4FFC0131836B
:103D400020832696E2E00C940E35A4E0B0E0EBEA86
:103D5000FEE10C94F2349A8389837C836B8389819E
:103D60009A818C579F4F2B813C81FC0131832083AA
:103D700089819A819C012C573F4F8091A901909194
:103D8000AA010496B90169D32496E2E00C940E3599
:103D9000AEE0B0E0EEECFEE10C94F2349E878D874D
:103DA0008D859E858E5B9F4FFC0180819181A281D4
:103DB000B381FE01379620E0AC01BD01CF010E9426
:103DC000B132CE0107960E9443159C018D859E85D8
:103DD00088589F4FB9010E944732CE0107960E9432
:103DE000AF318D859E858A5B9F4FFC0180819181DB
:103DF000A281B38120E0AC01BD01CE0101960E94F9
:103E0000B132CE0101960E9443159C018D859E859D
:103E100082589F4FB9010E944732CE0101960E94FD
:103E2000AF318D859E858E5B9F4FFC018081918196
:103E3000A281B381BC01CD012E96E2E00C940E3537
:103E4000AAE1B0E0E6E2FFE10C94EE349A8F898FAC
:103E5000898D9A8D9DDF84E193E0FC018081882328
:103E600089F40E942630DC01CB0180932C039093CF
:103E70002D03A0932E03B0932F0384E193E021E060
:103E8000FC0120830E9426309B01AC0180912C0311
:103E900090912D03A0912E03B0912F03281B390B75
:103EA0004A0B5B0B898D9A8D805C9F4FFC01808152
:103EB000918180579E4F092E000CAA0BBB0B61E02D
:103EC00082179307A407B50708F060E0662309F49A
:103ED0007FC0898D9A8D825B9F4FFC0180818823F2
:103EE00009F460C0CE010D966AE271E00E941632BC
:103EF000898D9A8D8F5A9F4FFC018081882331F0E4
:103F0000CE010D966BE271E00E944732898D9A8D49
:103F10008C0108581F4F898D9A8D7C01FEE7EF0EAA
:103F2000F11CCE0107966DE271E00E945415CE019E
:103F30000796B7010E94593363E371E00E946A3328
:103F4000B8010E9459339C01CE010D96BC01C901F4
:103F50000E9459339C01CE014396B9010E943F3221
:103F6000CE0107968EDBCE014396BC01CE010196B1
:103F70000E943F32898D9A8D8C5A9F4F9E012F5FF0
:103F80003F4FA90161E070E00E948010CE010196D0
:103F90000E94AF31CE0143960E94AF31CE010D9603
:103FA0000E94AF318DE00E948731982F81E08927F0
:103FB000682F8DE00E9458310E942630DC01CB0131
:103FC00080932C0390932D03A0932E03B0932F0383
:103FD0006A96E6E00C940A35A2E0B0E0E2EFFFE179
:103FE0000C94EC349A83898389819A818F5A9F4FEC
:103FF000FC01908181E08927882309F01BC1898118
:104000009A811CD1DC01CB0129813A812E5B3F4F83
:10401000F90180839183A283B38389819A818E5A27
:104020009F4FFC01808191810297DCF489819A8104
:104030008E5A9F4F21E030E0FC013183208389813B
:104040009A818E5B9F4FFC0180819181A281B38117
:1040500029813A81265B3F4FF90180839183A283B6
:10406000B3838CE193E0FC018081882389F40E9472
:104070002630DC01CB018093300390933103A09371
:104080003203B09333038CE193E021E0FC01208301
:104090000E9426309B01AC01809130039091310346
:1040A000A0913203B091330379018A01E81AF90A29
:1040B0000A0B1B0BD801C70121E081369A4EA105DE
:1040C000B10508F420E0222309F44CC089819A81CB
:1040D000B5D0DC01CB0129813A812E5B3F4FF9013C
:1040E00080839183A283B38389819A81865B9F4F6A
:1040F000FC0180819181A281B38129813A812E5B6B
:104100003F4FF9012081318142815381BC01CD01B2
:104110000E94AF29DC01CB0129813A81265B3F4F08
:10412000F90180839183A283B38389819A818E5A16
:104130009F4FFC01808191819C012F5F3F4F8981BE
:104140009A818E5A9F4FFC01318320830E94263032
:10415000DC01CB018093300390933103A0933203B1
:10416000B093330389819A81865B9F4FFC01C080A5
:10417000D180E280F38089819A818E5A9F4FFC0121
:1041800080819181092E000CAA0BBB0BBC01CD01D3
:104190000E94B22ADC01CB019C01AD01C701B6012E
:1041A0000E94172ADC01CB0129813A812A5B3F4F0B
:1041B000F90180839183A283B38389819A818A5B89
:1041C0009F4FFC0180819181A281B38129813A8135
:1041D0002E5B3F4FF9012081318142815381BC0127
:1041E000CD010E94AF29DC01CB0120E030E040E0AE
:1041F00050E4BC01CD010E94172ADC01CB012981CA
:104200003A812A5B3F4FF90180839183A283B38374
:1042100089819A818E5A9F4FFC01808191810B97F1
:104220004CF089819A818E5A9F4F21E030E0FC0149
:10423000318320832296E8E00C940835A0E1B0E0B9
:10424000E4E2F1E20C94EE34988B8F8784E293E001
:10425000FC018081882389F40E942630DC01CB0197
:104260008093340390933503A0933603B0933703C0
:1042700084E293E021E0FC0120830E9426309B0130
:10428000AC018091340390913503A0913603B09135
:10429000370379018A01E81AF90A0A0B1B0BD801C6
:1042A000C70121E0853F9140A105B10508F420E058
:1042B000222309F475C08EE190E09A8389838F856B
:1042C0009889FC0106AD17AD98012F5F3F4F8F8590
:1042D0009889FC0137AF26AF8F859889FC018081D2
:1042E00091810E94D630AC012F853889C801019692
:1042F000880F991F820F931FFC01518340838F8584
:104300009889FC0126AD37AD89819A812817390734
:1043100029F48F859889FC0117AE16AE8F85988990
:10432000029629813A81B9010E948011DC01CB01FA
:104330008B839C83AD83BE8320E030E040EA5BE367
:104340006B817C818D819E810E94662BDC01CB017B
:104350008F839887A987BA878F8598898C579F4FB5
:10436000FC0180819181092E000CAA0BBB0BBC01C2
:10437000CD010E94B22ADC01CB012F81388549850D
:104380005A85BC01CD010E94662BDC01CB018B87D5
:104390009C87AD87BE878B859C85AD85BE8509C012
:1043A0008F8598898E5B9F4FFC0180819181A281CE
:1043B000B381BC01CD016096E6E00C940A35A2E021
:1043C000B0E0E5EEF1E20C94F2349A8389838981BE
:1043D0009A818F5A9F4F21E0FC01208389819A8125
:1043E000815B9F4FFC018081918161E00E94583187
:1043F0002296E2E00C940E35A2E0B0E0E2E0F2E2B8
:104400000C94F2349A83898389819A818F5A9F4FC1
:10441000FC01108289819A81815B9F4FFC01808120
:10442000918160E00E94583168EE73E080E090E096
:104430000E9457302296E2E00C940E35A2E0B0E0E4
:10444000E4E2F2E20C94F2349A83898389819A81BE
:1044500018D02296E2E00C940E35A4E0B0E0E3E33D
:10446000F2E20C94F2349A8389837C836B832B81F0
:104470003C8189819A81B90121D02496E2E00C9493
:104480000E35A4E0B0E0E7E4F2E20C94F2349C8351
:104490008B838B819C8131D0BC0181E090E09E01B7
:1044A0002F5F3F4F820F931F42E050E00E94E815BC
:1044B00089819A812496E2E00C940E35A4E0B0E064
:1044C000E4E6F2E20C94F2349A8389837C836B8372
:1044D00089819A8112D0BC0181E090E02B813C81DE
:1044E000820F931F42E050E00E941F1689819A813B
:1044F00004D02496E2E00C940E35A2E0B0E0E3E8AC
:10450000F2E20C94F2349A83898389819A8122960B
:10451000E2E00C940E35A2E0B0E0E1E9F2E20C94A6
:10452000F2349A83898389819A81FC0184819581FF
:104530002296E2E00C940E35A4E0B0E0E2EAF2E26A
:104540000C94F2349A8389837C836B832B813C8126
:1045500089819A81B9010E94393389819A8124968F
:10456000E2E00C940E35A4E0B0E0E9EBF2E20C944A
:10457000F2349A8389837C836B832B813C8189818C
:104580009A81B9010E9481332496E2E00C940E35A1
:10459000A4E0B0E0EEECF2E20C94F2349A8389836A
:1045A0007C836B8389819A812B813C81B9010E9434
:1045B0003F322496E2E00C940E35A0E0B0E0E3EE4A
:1045C000F2E20C94F2348AEF93E0BC0186E895E0C5
:1045D0000E94D02D4AE050E068E086E895E00E9415
:1045E000E62E68E081E992E00E94320564E075E21F
:1045F00081E992E00E94A5066AE074E281E992E016
:104600000E949106E2E00C940E35A4E3B0E0EBE0EA
:10461000F3E20C94F2348091AD019091AE018F578A
:104620009F4F0E944315BC0186E593E00E944732EC
:104630008091AD019091AE0189579F4F0E94431523
:10464000BC018CE593E00E9447328091AF019091CC
:10465000B00188589F4F0E944315BC0182E693E049
:104660000E9447328091AF019091B00182589F4FD4
:104670000E944315BC0188E693E00E944732809176
:10468000AD019091AE0183579F4FFC0180819181D4
:10469000A281B381FE01B79622E0AC01BD01CF013A
:1046A0000E94DF32CE0187960E944315BC0180E84C
:1046B00093E00E944732CE0187960E94AF318091ED
:1046C000AF019091B0018C579F4FFC012081318147
:1046D000CE0181964AE0B9010E945C32CE018196FA
:1046E0000E944315BC0186E893E00E944732CE0148
:1046F00081960E94AF3190918C0381E089278823B5
:1047000039F066E371E08AE793E00E94473206C021
:1047100069E371E08AE793E00E94473280918D035C
:1047200090918E03A0918F03B091900328EE33E017
:1047300040E050E0BC01CD010E94B634DA01C9016D
:1047400089839A83AB83BC8389819A81AB81BC8145
:10475000FE0175962AE0AC01BD01CF010E948632B0
:104760009E012B5E3F4FCE014B96B90111DFCE016A
:104770004B966DE371E00E946A33BC0184E793E0DD
:104780000E942A32CE014B960E94411BCE014596D3
:104790000E94AF318091100190911101A0911201FE
:1047A000B091130128EE33E040E050E0BC01CD01B0
:1047B0000E94B634DA01C9018D839E83AF83B88726
:1047C0008D819E81AF81B885FE0139962AE0AC01CA
:1047D000BD01CF010E9486329E01275F3F4FCE016F
:1047E0000F96B901D5DECE010F966DE371E00E9400
:1047F0006A33BC018EE693E00E942A32CE010F9606
:104800000E94411BCE0109960E94AF31E496E2E07E
:104810000C940E35A7E2B0E0E0E1F4E20C94F13440
:104820009FA38EA36FE371E088E393E00E94473279
:104830006FE371E084E493E00E9447326FE371E03C
:104840008AE493E00E9447328EA19FA1449709F029
:10485000C7C00AC081E992E00E94D80589836981B6
:1048600088E393E00E94473381E992E00E94C0050B
:1048700021E0181619060CF020E0222359F788E3EE
:1048800093E00E942834CE01449660E471E00E94D7
:104890001632CE014496BC0188E393E00E94C433F3
:1048A00011E0882309F410E0CE0144960E94AF3154
:1048B0001123A1F068E373E084E493E00E942A32BC
:1048C00083E094E0BC0186E895E00E94D02D64E48A
:1048D00073E086E895E00E941C2E92C068E373E0C6
:1048E0008AE493E00E942A3289E094E0BC0186E8E1
:1048F00095E00E94D02D6AE473E086E895E00E947E
:104900001C2ECE010E966AE473E00E943F32CE0167
:104910004A96BE01625F7F4F20E030E04DE3AFD1A9
:10492000CE010E960E94AF31CE0108966AE473E084
:104930000E943F32CE018096BE01685F7F4F21E02A
:1049400030E04DE39CD1CE0108960E94AF31CE01FC
:104950004A9662E471E007DE982F81E0992309F41A
:1049600080E0882389F0CE0180960E947F34DC01AC
:10497000CB019B838A838091AF019091B0012A8102
:104980003B81B901E2D923C0CE014A966CE471E0C3
:10499000EADD982F81E0992309F480E08823B9F0BB
:1049A000CE0180960E948934DC01CB018C839D83EB
:1049B000AE83BF832091AD013091AE018C819D818A
:1049C000AE81BF81AC01BD01C9010E94DF17CE01DC
:1049D00080960E94AF31CE014A960E94AF3110C03E
:1049E00083E194E0BC0186E895E00E94D02D8EA181
:1049F0009FA14AE050E0BC0186E895E00E94C52EE8
:104A0000A796E3E00C940D35A2E1B0E0EAE0F5E210
:104A10000C94F034CE010D966FE371E00E941632D3
:104A200060E471E084E493E09EDD982F81E09923B7
:104A300009F480E08823C1F0CE010D9665E571E0B0
:104A40000E9447329E01235F3F4FCE010796B90176
:104A50000E943F32CE010796C2D0CE0107960E9437
:104A6000AF3100E010E0AFC08091060190910701E6
:104A70000196909307018093060180910601909121
:104A80000701892B39F4CE010D9666E573E00E948B
:104A90002A3289C08091060190910701019739F46B
:104AA000CE010D966CE573E00E942A327CC08091A5
:104AB000060190910701029739F4CE010D9662E646
:104AC00073E00E942A326FC0809106019091070125
:104AD000039739F4CE010D9668E673E00E942A32FE
:104AE00062C08091060190910701049739F4CE01CC
:104AF0000D9660E873E00E942A3255C0809106014D
:104B000090910701059739F4CE010D9666E873E0A0
:104B10000E942A3248C080910601909107010697B1
:104B200039F4CE010D966AE773E00E942A323BC049
:104B30008091060190910701079739F4CE010D96F7
:104B400064E773E00E942A322EC0809106019091A2
:104B50000701089769F4CE010D966EE673E00E9496
:104B60002A328FEF9FEF90930701809306011BC0BD
:104B700089E394E0BC0186E895E00E94D02D809105
:104B80000601909107014AE050E0BC0186E895E0FB
:104B90000E94C52E8FEF9FEF90930701809306012F
:104BA00000E010E010C0CE010D96BC01CE010196D0
:104BB0000E943F32CE01019612D0CE0101960E9492
:104BC000AF3101E010E0CE010D960E94AF3101300F
:104BD000110509F400006296E4E00C940C35A2E1A2
:104BE000B0E0E5EFF5E20C94F2349A8B898B898979
:104BF0009A8991DC9C018AE090E0821B930B9E8352
:104C00008D831A8219820AC089899A896BE571E0BD
:104C100093DC89819A8101969A83898329813A81DB
:104C20008D819E81281739077CF31C821B8216C058
:104C30002B813C8189899A89B9010E94E333482FED
:104C40009E01295F3F4F8B819C81820F931FFC0146
:104C500040838B819C8101969C838B838B819C817B
:104C60000A9734F3CE0107964AE050E0BC0181E98F
:104C700092E00E9480056296E2E00C940E35A1E17C
:104C8000B0E0E5E4F6E20C94F2349C878B877E87F3
:104C90006D874F87398B288B1A82198218861F825D
:104CA0008FEF9FEF9A8789878D859E8534DC0197EA
:104CB0009E838D831C821B8235C02B813C818D8518
:104CC0009E85B9010E94E333982F8F85981739F09C
:104CD0002B813C818D819E812817390711F481E059
:104CE00001C080E08823C9F089819A8101969A8366
:104CF000898389859A85019698878F832B813C814A
:104D00008D819E812817390721F48B819C81019622
:104D100002C08B819C819A8789878B819C810196B7
:104D20009C838B832B813C818D819E81821793078D
:104D300044F029813A8188899989821793070CF078
:104D4000BCCF29813A8188899989821793076CF4AD
:104D500089859A859C018F819885AC018B859C857E
:104D60006D857E850E94E43306C08B859C856FE34C
:104D700071E00E94163200008B859C856196E2E00E
:104D80000C940E35A4E0B0E0E8ECF6E20C94F234BA
:104D90009A8389837C836B8389819A81019709F047
:104DA00059C08B819C81019609F054C06FE371E07A
:104DB00088E393E00E9416326FE371E08EE393E0A4
:104DC0000E9416326FE371E084E493E00E94163291
:104DD0006FE371E08AE493E00E9416326FE371E0C2
:104DE00080E593E00E9416326FE371E086E593E080
:104DF0000E9416326FE371E08CE593E00E94163258
:104E00006FE371E082E693E00E9416326FE371E097
:104E100088E693E00E9416326FE371E08EE693E03D
:104E20000E9416326FE371E084E793E00E9416322D
:104E30006FE371E08AE793E00E9416326FE371E05E
:104E400080E893E00E9416326FE371E086E893E019
:104E50000E94163289819A81892BE1F58B819C8190
:104E60000196C1F586E893E00E94AF3180E893E0B7
:104E70000E94AF318AE793E00E94AF3184E793E06C
:104E80000E94AF318EE693E00E94AF3188E693E056
:104E90000E94AF3182E693E00E94AF318CE593E04F
:104EA0000E94AF3186E593E00E94AF3180E593E048
:104EB0000E94AF318AE493E00E94AF3184E493E032
:104EC0000E94AF318EE393E00E94AF3188E393E01C
:104ED0000E94AF312496E2E00C940E35A0E0B0E0E1
:104EE000E4E7F7E20C94F2346FEF7FEF81E090E0BB
:104EF00049DFE2E00C940E35A0E0B0E0E2E8F7E232
:104F00000C94F2346FEF7FEF80E090E03BDFE2E063
:104F10000C940E35A2E0B0E0E0E9F7E20C94F23434
:104F20009A83898389819A8189579F4F0E94AF31E3
:104F300089819A818F579F4F0E94AF3189819A81D1
:104F40008E5B9F4F0E9470132296E2E00C940E3508
:104F5000A2E0B0E0EEEAF7E20C94F2349A8389839F
:104F600089819A8182589F4F0E94AF3189819A81AD
:104F700088589F4F0E94AF312296E2E00C940E3584
:104F8000A0E0B0E0E6ECF7E20C94F23490918C03F0
:104F900081E0892780938C0380918C03882341F0E2
:104FA00085EB93E00E942F1C86E494E008DA07C0AA
:104FB00086E494E021DA85EB93E00E94121CE2E0A3
:104FC0000C940E35ACE4B0E0E8EEF7E20C94EE346D
:104FD0009E01275B3F4FF90191838083CE01855B62
:104FE0009F4FFC0171836083CE01875B9F4FFC0163
:104FF00080819181019709F044C0CE01855B9F4F6C
:10500000FC01808191810196E1F581E993E00E94A4
:105010000E1000910C0110910D0121E933E0CE0139
:105020008596B9010E94EE168091080190910901C0
:105030009E012B5D3F4F7801890121E040ED57E053
:10504000BC0185EB93E00E94201700910E011091A6
:105050000F0181E993E0BC01CE0101960E94EE169A
:1050600080910A0190910B0178019E012F5F3F4FC3
:10507000890121E048EE53E0BC0186E494E00E94FF
:10508000F61DCE01875B9F4FFC0180819181892BAA
:1050900071F4CE01855B9F4FFC0180819181019667
:1050A00031F486E494E054DF85EB93E033DFC45BB6
:1050B000DF4FE6E00C940A35A0E0B0E0E2E6F8E26B
:1050C0000C94F2346FEF7FEF81E090E07BDFE2E061
:1050D0000C940E35A0E0B0E0E0E7F8E20C94F23476
:1050E0006FEF7FEF80E090E06DDFE2E00C940E3533
:1050F000A6E0B0E0EEE7F8E20C94F2349A838983FC
:105100004B835C836D837E838B819C81AD81BE816B
:10511000E981FA8126E0AC01BD01CF0103D42696D6
:10512000E2E00C940E35A2E0B0E0E9E9F8E20C947C
:10513000F2349A83898381E02296E2E00C940E3562
:10514000A0E0B0E0E6EAF8E20C94F23440E051EE80
:1051500060E070E086E895E0CBDF000086E895E04F
:10516000E2DF982F81E089278823C1F789E090E06A
:1051700088709927892B11F088E201C088E099E0B6
:105180009770892B982F88E10FB6F894A895809393
:1051900060000FBE9093600010DA8091AD01909195
:1051A000AE010E94121C29EF38E248EE53E060E0A5
:1051B00070E08CEC94E00E94C00EE2E00C940E359E
:1051C000A0E0B0E0E6EEF8E20C94F2348CEC94E06F
:1051D0000E94700C8091AD019091AE010E94511B14
:1051E0008091AF019091B0010E94201FE2E00C94E9
:1051F0000E35A0E0B0E0EFEFF8E20C94EE34A895A5
:105200008AE795E0FC018081882381F41FD7DC01C7
:10521000CB018093820590938305A0938405B0937E
:1052200085058AE795E021E0FC0120838091AB01B0
:105230009091AC010E94A310982F81E0943009F066
:1052400080E0882391F084E594E0BC0186E895E055
:10525000E3D496DEFBD6DC01CB01809382059093EC
:105260008305A0938405B0938505F0D69B01AC011E
:105270008091820590918305A0918405B091850568
:1052800079018A01E81AF90A0A0B1B0BD801C70138
:1052900080938D0390938E03A0938F03B09390031C
:1052A000B4D920918D0330918E0340918F0350919A
:1052B00090038091100190911101A0911201B09181
:1052C000130182179307A407B50764F459DEBED60D
:1052D000DC01CB018093820590938305A093840524
:1052E000B093850580918C03882339F08091AF01BC
:1052F0009091B0010E94EC1F06C08091AD01909189
:10530000AE010E946A18E6E00C940A35A4E0B0E011
:10531000ECE8F9E20C94F2349A8389837C836B8302
:1053200089819A81019741F48B819C81019621F4B6
:105330008CEC94E00E940A0C2496E2E00C940E356A
:10534000A0E0B0E0E6EAF9E20C94F2346FEF7FEF10
:1053500081E090E0DBDFE2E00C940E355058BB2793
:10536000AA270ED075C166D130F06BD120F031F490
:105370009F3F11F41EF45BC10EF4E095E7FB51C1B1
:10538000E92F77D180F3BA1762077307840795076F
:1053900018F071F49EF58FC10EF4E0950B2EBA2F24
:1053A000A02D0B01B90190010C01CA01A00111242B
:1053B000FF27591B99F0593F50F4503E68F11A16D7
:1053C000F040A22F232F342F4427585FF3CF469568
:1053D00037952795A795F0405395C9F77EF41F168A
:1053E000BA0B620B730B840BBAF09150A1F0FF0F54
:1053F000BB1F661F771F881FC2F70EC0BA0F621F40
:10540000731F841F48F4879577956795B795F7952F
:105410009E3F08F0B3CF9395880F08F09927EE0FC1
:10542000979587950895D9D008F481E008950CD018
:105430000FC107D140F0FED030F021F45F3F19F0EA
:10544000F0C0511139C1F3C014D198F39923C9F3B5
:105450005523B1F3951B550BBB27AA27621773077A
:10546000840738F09F5F5F4F220F331F441FAA1F2E
:10547000A9F333D00E2E3AF0E0E830D091505040EE
:10548000E695001CCAF729D0FE2F27D0660F771F9C
:10549000881FBB1F261737074807AB07B0E809F07E
:1054A000BB0B802DBF01FF2793585F4F2AF09E3F13
:1054B000510568F0B6C000C15F3FECF3983EDCF3E5
:1054C000869577956795B795F7959F5FC9F7880F8C
:1054D000911D9695879597F90895E1E0660F771FDE
:1054E000881FBB1F621773078407BA0720F0621B6F
:1054F000730B840BBA0BEE1F88F7E095089504D068
:105500006894B111D9C00895BCD088F09F5790F02D
:10551000B92F9927B751A0F0D1F0660F771F881FD8
:10552000991F1AF0BA95C9F712C0B13081F0C3D0F3
:10553000B1E00895C0C0672F782F8827B85F39F091
:10554000B93FCCF3869577956795B395D9F73EF437
:1055500090958095709561957F4F8F4F9F4F0895DF
:10556000E89409C097FB3EF49095809570956195FD
:105570007F4F8F4F9F4F9923A9F0F92F96E9BB27B3
:105580009395F695879577956795B795F111F8CF2F
:10559000FAF4BB0F11F460FF1BC06F5F7F4F8F4F9A
:1055A0009F4F16C0882311F096E911C0772321F090
:1055B0009EE8872F762F05C0662371F096E8862F28
:1055C00070E060E02AF09A95660F771F881FDAF77F
:1055D000880F9695879597F90895990F0008550FAC
:1055E000AA0BE0E8FEEF16161706E807F907C0F069
:1055F00012161306E407F50798F0621B730B840B71
:10560000950B39F40A2661F0232B242B252B21F44A
:1056100008950A2609F4A140A6958FEF811D811DEA
:10562000089597F99F6780E870E060E008959FEF24
:1056300080EC089500240A94161617061806090629
:10564000089500240A9412161306140605060895F8
:10565000092E0394000C11F4882352F0BB0F40F480
:10566000BF2B11F460FF04C06F5F7F4F8F4F9F4FC0
:10567000089557FD9058440F551F59F05F3F71F042
:105680004795880F97FB991F61F09F3F79F08795A9
:105690000895121613061406551FF2CF4695F1DF32
:1056A00008C0161617061806991FF1CF86957105C2
:1056B000610508940895E894BB2766277727CB01F6
:1056C00097F908958ADF08F48FEF08950BD0C0CFC3
:1056D000B1DF28F0B6DF18F0952309F0A2CFA7CFED
:1056E0001124EACFC6DFA0F3959FD1F3950F50E0C8
:1056F000551F629FF001729FBB27F00DB11D639F84
:10570000AA27F00DB11DAA1F649F6627B00DA11D29
:10571000661F829F2227B00DA11D621F739FB00DCF
:10572000A11D621F839FA00D611D221F749F33273F
:10573000A00D611D231F849F600D211D822F762FD8
:105740006A2F11249F5750408AF0E1F088234AF0D5
:10575000EE0FFF1FBB1F661F771F881F9150504021
:10576000A9F79E3F510570F05CCFA6CF5F3FECF3E9
:10577000983EDCF3869577956795B795F795E7950D
:105780009F5FC1F7FE2B880F911D9695879597F91E
:10579000089523DF880B990B08950E948D38FC0132
:1057A000918D228D892F90E0805C9F4F821B910903
:1057B0008F7399270895FC01918D828D981731F090
:1057C000828DE80FF11D858D90E008958FEF9FEF9A
:1057D0000895FC01918D828D981761F0828DDF0113
:1057E000A80FB11D5D968C91928D9F5F9F73928FD4
:1057F00090E008958FEF9FEF08958CE49DE2892B50
:1058000041F080E090E0892B21F046D181110C9489
:1058100000000895FC01848DDF01A80FB11DA35A7B
:10582000BF4F2C91848D90E001968F739927848FC0
:10583000A689B7892C93A089B1898C9180648C93B7
:10584000938D848D981306C00288F389E02D8081A2
:105850008F7D80830895CF93DF93EC01888D88231B
:10586000C1F0EA89FB89808185FD05C0A889B989D5
:105870008C9186FD0EC00FB607FCF5CF808185FFA9
:10588000F2CFA889B9898C9185FFEDCFCE01C2DF17
:10589000E8CFDF91CF910895EF92FF920F931F937E
:1058A000CF93DF93EC0181E0888F9B8D8C8D9813D3
:1058B00005C0E889F989808185FD23C0F62E0B8D0E
:1058C00010E00F5F1F4F0F731127E02E8C8DE81231
:1058D0000BC00FB607FCFACFE889F989808185FFF4
:1058E000F5CFCE0197DFF2CF8B8DFE01E80FF11DD2
:1058F000E35AFF4FF0820B8FEA89FB898081806237
:1059000007C0EE89FF896083E889F9898081806416
:10591000808381E090E0DF91CF911F910F91FF9004
:10592000EF900895CF92DF92EF92FF921F93CF9363
:10593000DF93EC016A017B01122FE889F98982E08B
:1059400080834115514E61057105A9F060E079E051
:105950008DE390E0A7019601E7D7DA01C90101972D
:10596000A109B109B695A79597958795AC01411501
:1059700080E15807A0F0E889F989108260E874E8AE
:105980008EE190E0A7019601CFD7BA01A90141505D
:105990005109610971097695679557954795EC8589
:1059A000FD855083EE85FF854083188EEC89FD8947
:1059B0001083EA89FB89808180618083EA89FB8981
:1059C000808188608083EA89FB8980818068808308
:1059D000EA89FB8980818F7D8083DF91CF911F9140
:1059E000FF90EF90DF90CF9008951F920F920FB627
:1059F0000F9211242F938F939F93EF93FF93E09136
:105A00009605F09197058081E0919C05F0919D05A8
:105A100082FD12C0908180919F058F5F8F732091CE
:105A2000A005821751F0E0919F05F0E0EA57FA4F88
:105A3000958F80939F0501C08081FF91EF919F9189
:105A40008F912F910F900FBE0F901F9018951F925E
:105A50000F920FB60F9211242F933F934F935F93A2
:105A60006F937F938F939F93AF93BF93EF93FF9326
:105A700086E895E0CFDEFF91EF91BF91AF919F91C6
:105A80008F917F916F915F914F913F912F910F90E7
:105A90000FBE0F901F90189586E895E080DE21E0FC
:105AA000892B09F420E0822F0895E6E8F5E01382BF
:105AB000128288EE93E0A0E0B0E084839583A68311
:105AC000B78385EB91E09183808385EC90E09587A7
:105AD000848784EC90E09787868780EC90E0918BB8
