:1000000061C2000087C2000085C200000DC7000069
:100010000BC7000009C700007DC200007BC20000C2
:1000200079C2000077C2000075C2000073C20000F0
:1000300071C200006FC200006DC200006BC2000000
:100040000C94B62767C200000C94B3250C94E525E8
:1000500061C200005FC200005DC200005BC2000020
:100060003DC3000057C200009B049F049F049F04EF
:100070009F049F049F049F049F039F049F049F0469
:100080009F049F049F049F049F039F049F049F0459
:100090009F049F049F049F04A8039F049F049F0440
:1000A0009F049F049F049F04D3039F049F049F0405
:1000B0009F049F049F049F04A8039F049F049F0420
:1000C0009F049F049F049F04D8039F049F049F04E0
:1000D0009F049F049F049F04DD039F049F049F04CB
:1000E0009F049F049F049F04F2039F049F049F04A6
:1000F0009F049F049F049F041F049F049F049F0468
:100100009F049F049F049F04E2039F049F049F0495
:100110009F049F049F049F04FE039F049F049F0469
:100120009F049F049F049F0421049F049F049F0435
:100130009F049F049F049F0421049F049F049F0425
:100140009F049F049F049F0421049F049F049F0415
:100150009F049F049F049F0421049F049F049F0405
:100160009F049F049F049F0429049F049F049F04ED
:100170009F049F049F049F0461049F049F049F04A5
:100180009F049F049F049F0429049F049F049F04CD
:100190009F049F049F049F0461049F049F049F0485
:1001A0009F049F049F049F0443049F049F049F0493
:1001B0009F049F049F049F0464049F049F049F0462
:1001C0009F049F049F049F0464049F049F049F0452
:1001D0009F049F049F049F047A049F049F049F042C
:1001E0009F049F049F049F0496049F049F049F0400
:1001F0009F049F049F049F0496049F049F049F04F0
:100200009F049F049F049F049F049F049F049F04D6
:100210009F049F049F049F049F049F049F049F04C6
:100220009F049F049F049F049F049F049F049F04B6
:100230009F049F049F049F049F049F049F049F04A6
:100240009F049F049F049F049F049F049F049F0496
:100250009F049F049F049F049F044E414E494E49B2
:100260005459494E46CDCCCC3D0AD7233C17B7D183
:100270003877CC2B329595E6241FB14F0A00002029
:10028000410000C84200401C4620BCBE4CCA1B0EA8
:100290005AAEC59D7400407A10F35A00A0724E18F1
:1002A000090010A5D4E80000E87648170000E40B28
:1002B00054020000CA9A3B000000E1F505000080EE
:1002C000969800000040420F000000A08601000048
:1002D00000102700000000E8030000000064000098
:1002E0000000000A00000000000100000000002CD7
:1002F00076D888DC674F0823DFC1DFAE59E1B1B79C
:1003000096E5E3E453C63AE651997696E8E6C28468
:1003100026EB898C9B62ED407C6FFCEFBC9C9F4080
:10032000F2BAA56FA5F490055A2AF75C936B6CF9A5
:10033000676DC11BFCE0E40D47FEF520E6B500D07B
:10034000ED902E0300943577050080841E08000090
:10035000204E0A000000C80C333333330F986E125E
:10036000831141EF8D2114893BE65516CFFEE6DB64
:1003700018D1844B381BF77C1D901DA4BBE42420AE
:100380003284725E228100C9F124ECA1E53D272070
:10039000202020202020202020202020202020007D
:1003A0004572726F72206E756D62657220666F7233
:1003B0002074686520617272617920746F206176A3
:1003C000726167696E67212F6E0050482052617715
:1003D0002052656164696E673A200054445320528C
:1003E00061772052656164696E673A20005F736CC3
:1003F0006176653A2000636D643A2000636D644461
:100400006174613A2000556E657870656374656447
:10041000206E756D626572206F66206279746573F7
:100420002072656365697665643A20007E72657343
:10043000706F6E7365496E646578206E6F742066A8
:100440006F756E643A20005B53656C656C63745D18
:10045000205072657373656400000000080002019B
:100460000000030407000000000000000001020477
:100470000810204080010204081020010204081026
:10048000200404040404040404020202020202031D
:1004900003030303030000000023002600290000DB
:1004A000000000250028002B000000000024002789
:1004B000002A0000CC06E70B0A20C2206222132685
:1004C0001820D02011241FBECFEFD8E0DEBFCDBF53
:1004D00011E0A0E0B1E0E0EEF7E602C005900D9279
:1004E000A83DB107D9F725E0A8EDB1E001C01D9204
:1004F000AC36B207E1F712E0C0E6D2E004C02197C3
:10050000FE010E94AC2CCA35D107C9F70E944126D2
:100510000C94E43375CDA0E0B0E0E1E9F2E00C9496
:10052000CC2C1092D80181E08093DA011092DB018B
:1005300082E161E00E94322983E161E00E94322978
:1005400089EB90E029EB30E0F90120812E7FFC015E
:10055000208389EB90E029EB30E0F90120812D7FA9
:10056000FC01208388EB90E028E4FC0120838CEBE5
:1005700090E025E4FC012083E2E00C94E82CA1E06B
:10058000B0E0E5ECF2E00C94CC2C89838AEB90E0AF
:100590002981220FFC0120832196E2E00C94E82CB3
:1005A000A4E0B0E0E6EDF2E00C94CC2C9B838A83CF
:1005B0006C838C81813210F081E023C08091D8015E
:1005C000843011F082E01DC08C8180932302198257
:1005D00013C08981882F90E02981222F30E04A8141
:1005E0005B81240F351FF90120818E5F9D4FFC0137
:1005F000208389818F5F898399818C81981748F343
:1006000080E02496E2E00C94E82CA2E0B0E0EBE07D
:10061000F3E00C94CC2C9A83898389819A819093FE
:10062000DF018093DE012296E2E00C94E82CA2E048
:10063000B0E0EDE1F3E00C94CC2C9A8389838981BE
:100640009A819093DD018093DC012296E2E00C9484
:10065000E82CA1E0B0E0EFE2F3E00C94CC2C89832D
:100660008981882331F08CEB90E025ECFC0120831C
:1006700005C08CEB90E025E8FC0120832196E2E0A8
:100680000C94E82CA0E0B0E0E8E4F3E00C94CC2C6F
:100690008CEB90E025EDFC01208301C000008CEB89
:1006A00090E0FC018081882F90E080719927892B50
:1006B000A9F71092D801E2E00C94E82CA0E0B0E099
:1006C000E4E6F3E00C94CC2C8CEB90E025ECFC0100
:1006D00020831092D801E2E00C94E82C1F920F9234
:1006E00000905F000F9211242F933F934F935F93DD
:1006F0006F937F938F939F93AF93BF93EF93FF93EA
:10070000CF93DF93CDB7DEB789EB90E0FC0180811A
:10071000882F90E0887F9927092E000CAA0BBB0B2D
:1007200040E050E028EF30E0841B950B2817390794
:1007300008F405C18C5C9F4FFC010C94AC2C8BEB36
:1007400090E02091D901FC01208381E082DFF7C095
:100750009091000280910102981798F48BEB90E041
:100760002091000231E0320F30930002222F30E05E
:1007700020523E4FF9012081FC01208381E069DF96
:1007800011C08091DA01882311F07CDF0BC081E079
:100790008093DB018CEB90E024EAFC012083109233
:1007A000D801CDC0CCC080E2809345026BDFC7C0CA
:1007B00080E38093450266DFC2C088E380934502F0
:1007C0007DDFBDC08091000291E0980F9093000200
:1007D000882F90E02BEB30E0F901208180529E4F72
:1007E000FC0120839091000280910102981718F477
:1007F00081E02FDFA4C080E02CDFA1C08091000247
:1008000091E0980F90930002882F90E02BEB30E05E
:10081000F901208180529E4FFC0120838091DA01F2
:10082000882311F02FDF8BC081E08093DB018CEBFC
:1008300090E024EAFC0120831092D80180C022DFDE
:100840007EC083E08093D8011092440281E001DFF2
:1008500076C080914402803298F48091440291E005
:10086000980F90934402882F90E02BEB30E0F90131
:1008700020818C5D9D4FFC01208381E0EADE5FC01A
:1008800080E0E7DE5CC080914402803240F48091D9
:100890004402882F90E08C5D9D4FFC011082F2DEB7
:1008A0002091DE013091DF0180914402882F90E099
:1008B000BC0184E292E0F901099510924402FEDE47
:1008C0003EC080E0C6DE3BC084E08093D801109239
:1008D0002202109223028091DC019091DD01FC0143
:1008E000099580912302882329F481E080932302D3
:1008F000109202028BEB90E02091220231E0320F45
:1009000030932202222F30E02E5F3D4FF9012081EB
:10091000FC0120839091220280912302981718F401
:1009200081E097DE0CC080E094DE09C081E091DEBA
:100930001092D80104C010924502A4DE0000DF919D
:10094000CF91FF91EF91BF91AF919F918F917F9147
:100950006F915F914F913F912F910F9000925F00A7
:100960000F901F901895A4E0B0E0E9EBF4E00C9430
:10097000CC2C9A8389837C836B8389819A812B8198
:100980003C81FC01338322832496E2E00C94E82C22
:10099000A2E0B0E0EEECF4E00C94CC2C9A838983D6
:1009A00089819A8124ED31E0FC01318320838981A2
:1009B0009A81FC01138212822296E2E00C94E82CC8
:1009C000A2E0B0E0E6EEF4E00C94CC2C9A838983AC
:1009D00089819A81DDDF89819A8125E731E0FC01F7
:1009E0003183208329813A8188EE93E0A0E0B0E052
:1009F000F90184839583A683B7832296E2E00C9461
:100A0000E82CA2E0B0E0E7E0F5E00C94CC2C9A836F
:100A1000898389819A81D4DF89819A8125E631E0B1
:100A2000FC01318320832296E2E00C94E82CA2E0C2
:100A3000B0E0EDE1F5E00C94CC2C9A838983109220
:100A4000660210926702109288021092890263DD9A
:100A50002296E2E00C94E82CA3E0B0E0E2E3F5E0BB
:100A60000C94CC2C9A8389836B838B8188DD81E7FE
:100A700096E0DDDD8BE296E0C8DD89819A81D7DFE3
:100A80002396E2E00C94E82CA3E0B0E0EAE4F5E081
:100A90000C94CC2C9A8389836B8380918A0288235F
:100AA000F9F080918902803240F089819A8161E079
:100AB00070E059DF80E090E019C080918802882FB3
:100AC00090E02B8188599D4FFC0120838091880202
:100AD0008F5F80938802809188028093890204C08E
:100AE000CE01039661E05CDD81E090E02396E2E0D8
:100AF0000C94E82CA8E0B0E0E0E8F5E00C94CC2CF5
:100B00009C838B837E836D8358874F8380918A0279
:100B1000882329F11A8219821AC08B819C81FC01D9
:100B200080819181FC01208131814D815E818981AB
:100B30009A81840F951FFC0140818B819C81642FD9
:100B4000F901099589819A8101969A83898329817E
:100B50003A818F81988528173907F8F205C02F81CF
:100B60008D819E81622F1CDD8F8198852896E2E021
:100B70000C94E82CA2E0B0E0E0ECF5E00C94CC2C76
:100B80009A83898380916702282F30E080916602E2
:100B9000882F90E0A901481B590BCA012296E2E078
:100BA0000C94E82CA4E0B0E0E8EDF5E00C94CC2C3B
:100BB0009C838B838FEF9FEF9A838983909166024A
:100BC00080916702981788F480916602882F90E0E0
:100BD0008A5B9D4FFC018081882F90E09A838983F6
:100BE000809166028F5F8093660289819A81249644
:100BF000E2E00C94E82CA4E0B0E0E1E0F6E00C9434
:100C0000CC2C9C838B838FEF9FEF9A838983909169
:100C1000660280916702981760F480916602882FBF
:100C200090E08A5B9D4FFC018081882F90E09A8341
:100C3000898389819A812496E2E00C94E82CA2E0D1
:100C4000B0E0E5E2F6E00C94CC2C9A8389832296FE
:100C5000E2E00C94E82CA5E0B0E0E1E3F6E00C94CF
:100C6000CC2C9B838A837D836C8380918D029091B1
:100C70008E02892B09F431C090916602809167023F
:100C8000981708F42AC0198213C08981882F90E030
:100C90002981222F30E04A815B81240F351FF90121
:100CA00020818A5B9D4FFC01208389818F5F89832E
:100CB0008981282F30E08C819D81281739072CF3FA
:100CC000109266028C818093670220918D02309190
:100CD0008E028C819D81F90109952596E2E00C94A4
:100CE000E82CA0E0B0E0E7E7F6E00C94CC2C809193
:100CF0008B0290918C02892B09F40AC01092880211
:100D00001092890280918B0290918C02FC010995CE
:100D1000E2E00C94E82CA4E0B0E0E1E9F6E00C9409
:100D2000CC2C9A8389837C836B838B819C81909369
:100D30008E0280938D022496E2E00C94E82CA4E0CD
:100D4000B0E0E5EAF6E00C94CC2C9A8389837C83AE
:100D50006B838B819C8190938C0280938B02249671
:100D6000E2E00C94E82CA4E0B0E0E9EBF6E00C94AF
:100D7000CC2C9A8389837C836B8389819A810197A8
:100D800039F48B819C81019619F48FE892E039DE69
:100D90002496E2E00C94E82CA0E0B0E0E2EDF6E06E
:100DA0000C94CC2C6FEF7FEF81E090E0DCDFE2E091
:100DB0000C94E82CA2E0B0E0E0EEF6E00C94CC2C31
:100DC00089836A832296E2E00C94E82CA4E0B0E0E8
:100DD000ECEEF6E00C94CC2C9C838B838B819C8175
:100DE0009A83898389819A810197F1F79A8389830C
:100DF0002496E2E00C94E82CA2E0B0E0E2E0F7E018
:100E00000C94CC2C9A83898389819A81FC018685F4
:100E10009785FC01208189819A81FC018585822347
:100E20002296E2E00C94E82C1F920F9200905F0053
:100E30000F9211242F933F934F935F936F937F9360
:100E40008F939F93AF93BF93EF93FF93CF93DF93D2
:100E5000CDB7DEB72B97DEBFCDBF80919B029091BF
:100E60009C02892B09F4F4C080919B0290919C0212
:100E70009A8389831B8289819A81FC01868D827085
:100E8000882349F089819A81B7DF982F81E09923DF
:100E900051F480E008C089819A81AEDF982F81E00B
:100EA000992309F080E0882309F4D2C089819A81CE
:100EB0009D838C831E828E818823A1F08C819D81ED
:100EC000FC01838994892C813D81F901238934892E
:100ED000F90140812C813D81F9012589242BFC01F8
:100EE000208315C08C819D81FC01838994892C818C
:100EF0003D81F90123893489F9012081422F2C8118
:100F00003D81F901258920952423FC0120838981D5
:100F10009A81FC018689978959DF61E08DE04ADF7B
:100F200088E08F831FC089819A81FC01808D918D1B
:100F30004DDF8B81882F90E0959587958B8361E0BD
:100F40008DE038DF89819A8157DF982F81E09923DE
:100F500009F480E0882319F08B8180688B838F816E
:100F600081508F838F818823F1F689819A81FC01DA
:100F7000868D8270882319F08B8180958B83809178
:100F8000DD02882F90E001968F739078992324F4E6
:100F90000197806C9F6F019688879091DE0281E0B7
:100FA0002885291709F480E0882369F08091DD0203
:100FB000882F90E083569D4F2B81FC0120838885EC
:100FC0008093DD020AC061E08BE0F4DE89819A81C2
:100FD000FC01268D2160FC01268F89819A81FC010C
:100FE000828D938DF3DE61E08BE0E4DE89819A816E
:100FF0009A87898781E08B878B858823A1F08985F3
:101000009A85FC018389948929853A85F901238988
:101010003489F901408129853A85F9012589242BF4
:10102000FC01208315C089859A85FC0183899489F8
:1010300029853A85F90123893489F9012081422FD4
:1010400029853A85F901258920952423FC012083EF
:101050002B960FB6F894DEBF0FBECDBFDF91CF91B8
:10106000FF91EF91BF91AF919F918F917F916F9180
:101070005F914F913F912F910F9000925F000F90E1
:101080001F9018958F92AF92CF92EF920F93CF93BC
:10109000DF93CDB7DEB728970FB6F894DEBF0FBE4B
:1010A000CDBF9A8389836B834C832D830E83EF821C
:1010B000C88689819A816CDC89819A8125E831E032
:1010C000FC013183208389819A811F921F921F9294
:1010D0001F928884AF80CE80ED800C812FEF4B81F2
:1010E00061E012D00F900F900F900F9028960FB6DE
:1010F000F894DEBF0FBECDBFDF91CF910F91EF907F
:10110000CF90AF908F9008958F92AF92CF92EF9241
:101110000F93CF93DF93CDB7DEB72A970FB6F8942E
:10112000DEBF0FBECDBF9A8389836B834C832D8333
:101130000E83EF82C886A9868A8689819A812C814E
:10114000FC01248389819A812D81FC012583898179
:101150009A812E81FC01268389819A812F81FC014D
:10116000278389819A812885FC01208789819A813A
:101170002985FC01218789819A812A85FC012287A2
:1011800089819A812C89FC01238789819A812D8903
:10119000FC01248789819A812E89FC012587898118
:1011A0009A812F89FC01268789819A81FC0184819B
:1011B00061E00E94F62889819A81FC0185818F3F38
:1011C00039F089819A81FC01858161E00E94F628CD
:1011D00089819A81FC01868161E00E94F6288B81D9
:1011E000882329F089819A81FC01178605C08981AD
:1011F0009A8120E1FC01278789819A8120E041E0E2
:1012000060E10ED02A960FB6F894DEBF0FBECDBFB8
:10121000DF91CF910F91EF90CF90AF908F90089585
:10122000A5E0B0E0E6E1F9E00C94CA2C9A8389834A
:101230006B834C832D838C81823050F089819A811D
:10124000FC018785282F286089819A81FC012787E6
:1012500089819A812C81FC01238B8B81882F90E0DE
:10126000AC01405C5F4F8B81282F30E089819A81EF
:101270008A0140E450E060E070E0A4D08D818823D2
:1012800069F08C81813051F489819A81FC018785D4
:10129000282F246089819A81FC01278780E593ECBF
:1012A0000E946A2889819A81FC01848160E00E9401
:1012B000322989819A81FC01868160E00E9432296D
:1012C00089819A81FC0185818F3F39F089819A81DA
:1012D000FC01858160E00E94322989819A81FC01AC
:1012E0008785882F90E080719927892BE9F489817F
:1012F0009A8163E091D184E991E10E946A28898111
:101300009A8163E089D184E991E10E946A28898108
:101310009A8163E081D186E990E00E946A28898100
:101320009A8162E079D126C089819A81FC01878502
:10133000282F206289819A81622FD6D084E991E199
:101340000E946A2889819A81FC018785282F206262
:1013500089819A81622FC8D086E990E00E946A282C
:1013600089819A81FC018785282F206289819A8151
:10137000622FBAD089819A81FC018785282F20624B
:1013800089819A81622FB0D089819A8124E0FC0101
:10139000208B89819A8188D089819A813BD08981EB
:1013A0009A8122E0FC01218B89819A81FC0181894B
:1013B000282F246089819A81622F96D02596E4E0B7
:1013C0000C94E62CAAE0B0E0E8EEF9E00C94CA2C0C
:1013D0009A8389837C836B835E834D8338872F83D5
:1013E0001A8709872B8189819A81FC01248B2D81A1
:1013F00089819A81FC01258B2F8189819A81FC0149
:10140000268B298589819A81FC01278B2A96E4E025
:101410000C94E62CA2E0B0E0E0E1FAE00C94CC2CD5
:101420009A83898389819A8161E05ED080ED97E01B
:101430000E946A282296E2E00C94E82CA6E0B0E034
:10144000E4E2FAE00C94CC2C9C838B836D834E8376
:1014500084E090E09A8389838E81843010F083E069
:101460008E838B819C81FC0193898E81891730F05A
:101470008B819C81FC01838981508E838E81882F92
:1014800090E02B813C81820F931F4496FC01908158
:101490008D81890F8068282F8B819C81622F24D0B9
:1014A0002696E2E00C94E82CA2E0B0E0EAE5FAE04F
:1014B0000C94CC2C9A83898389819A81FC01808940
:1014C000282F246089819A81FC01208B89819A814F
:1014D000FC018089282F286089819A81622F04D09D
:1014E0002296E2E00C94E82CA3E0B0E0EAE7FAE010
:1014F0000C94CC2C9A8389836B8389819A8140E0F8
:101500006B8118D02396E2E00C94E82CA3E0B0E0C5
:10151000ECE8FAE00C94CC2C9A8389836B83898164
:101520009A8141E06B8106D081E090E02396E2E071
:101530000C94E82CA4E0B0E0E0EAFAE00C94CC2CA7
:101540009A8389836B834C8389819A81FC0184818E
:101550006C810E94322989819A81FC0185818F3FAB
:1015600039F089819A81FC01858160E00E943229ED
:1015700089819A81FC018785882F90E08071992765
:10158000892B29F089819A816B8185D014C08B8148
:10159000882F90E095958795959587959595879552
:1015A00095958795282F89819A81622F35D08981D9
:1015B0009A816B8131D02496E2E00C94E82CA2E071
:1015C000B0E0E5EEFAE00C94CC2C9A838983898113
:1015D0009A81FC01868160E00E94322981E090E0DE
:1015E0000E946A2889819A81FC01868161E00E94BB
:1015F000322981E090E00E946A2889819A81FC0169
:10160000868160E00E94322984E690E00E946A2888
:101610002296E2E00C94E82CA5E0B0E0E2E1FBE0E9
:101620000C94CC2C9C838B836D831A82198228C0E6
:101630002B813C8189819A81820F931F0796FC013F
:10164000808161E00E94F6288D81882F90E00980DA
:1016500002C0959587950A94E2F7482F41702B8137
:101660003C8189819A81820F931F0796FC018081BA
:10167000642F0E94322989819A8101969A838983F5
:1016800089819A810497A4F28B819C8198DF2596A9
:10169000E2E00C94E82CA5E0B0E0E1E5FBE00C947E
:1016A000CC2C9C838B836D831A82198228C02B815A
:1016B0003C8189819A81820F931F0796FC0180816A
:1016C00061E00E94F6288D81882F90E0098002C099
:1016D000959587950A94E2F7482F41702B813C81BC
:1016E00089819A81820F931F0796FC018081642F64
:1016F0000E94322989819A8101969A8389838981FE
:101700009A810897A4F28B819C8159DF2596E2E0AB
:101710000C94E82CA0E0B0E0E0E9FBE00C94CC2CC9
:101720008FED92E0FC018081882351F460E070E04D
:1017300089EE92E00AD08FED92E021E0FC01208357
:1017400089EE92E0E2E00C94E82CA4E0B0E0EBEA51
:10175000FBE00C94CC2C9A8389837C836B838981F6
:101760009A812B813C81FC01318320830AD09C012A
:1017700089819A81FC01338322832496E2E00C94D0
:10178000E82CA0E0B0E0E7ECFBE00C94CC2C80E08F
:1017900094E0E2E00C94E82CA4E0B0E0E2EDFBE0A1
:1017A0000C94CC2C9A8389837C836B8389819A8166
:1017B000019749F48B819C81019629F4ABDF9093CA
:1017C000E8028093E7022496E2E00C94E82CA0E083
:1017D000B0E0EDEEFBE00C94CC2C6FEF7FEF81E0FE
:1017E00090E0DADFE2E00C94E82CA0E0B0E0EBEF70
:1017F000FBE00C94CC2C0E940028DC01CB01BC0146
:10180000CD01E2E00C94E82CA8E0B0E0EAE0FCE0D6
:101810000C94CC2C98878F838F8198852DE831E0AC
:10182000FC0131832083E1DFDC01CB018B839C83CE
:10183000AD83BE831A8219823DC02F81388589818C
:101840009A81820F931F82579F4FFC0110822F8134
:10185000388589819A814596880F991F820F931F39
:10186000FC01118210822F81388589819A81880F2D
:10187000991F880F991F820F931F9C012E5F3F4F66
:101880008B819C81AD81BE81F90180839183A2838C
:10189000B3832F81388589819A81CD96880F991FCE
:1018A000820F931FFC011182108289819A81019617
:1018B0009A83898389819A810A970CF4BECF8F819C
:1018C000988584559F4FFC01118210822896E2E092
:1018D0000C94E82CA8E0B0E0E0E7FCE00C94C82C05
:1018E00098878F8382DFDC01CB018B839C83AD8360
:1018F000BE831A82198225C12F81388589819A81F8
:10190000845B9F4F880F991F820F931FFC011182E8
:1019100010822F81388589819A814596880F991F79
:10192000820F931FFC0180819181892B09F404C1EE
:101930002F81388589819A81880F991F880F991F77
:10194000820F931F0296FC0180819181A281B38155
:101950002B813C814D815E8179018A01E81AF90A67
:101960000A0B1B0BD801C7014F81588529813A8189
:10197000220F331F220F331F240F351F225C3F4FCE
:10198000F901208131814281538182179307A40795
:10199000B50708F4D1C02F81388589819A81880FD5
:1019A000991F880F991F820F931F0296FC01808157
:1019B0009181A281B3814F81588529813A81220F7B
:1019C000331F220F331F240F351F225C3F4FF901B5
:1019D0002081318142815381820F931FA41FB51F43
:1019E0004F81588529813A81220F331F220F331FDF
:1019F000240F351F2E5F3F4FF90180839183A2830F
:101A0000B3832F81388589819A81820F931F8257F2
:101A10009F4FFC018081882309F48EC02F81388577
:101A200089819A81C396880F991F820F931FFC01A9
:101A300080819181892B81F42F81388589819A81D8
:101A4000845B9F4F880F991F820F931F21E030E026
:101A5000FC013183208370C02F81388589819A8170
:101A6000CD96880F991F820F931FFC012081318131
:101A70004F81588589819A81C396880F991F840F59
:101A8000951FFC0180819181281739070CF054C003
:101A90002F81388589819A81845B9F4F880F991F98
:101AA000820F931F21E030E0FC01318320832F81DE
:101AB000388589819A81CD96880F991F820F931F4F
:101AC000FC01808191819C012F5F3F4F4F815885A0
:101AD00089819A81CD96880F991F840F951FFC01EB
:101AE000318320832F81388589819A81CD96880F13
:101AF000991F820F931FFC01208131814F815885EE
:101B000089819A81C396880F991F840F951FFC01C4
:101B100080819181281739077CF02F813885898150
:101B20009A81845B9F4F880F991F820F931F22E039
:101B300030E0FC013183208389819A8101969A8368
:101B4000898389819A810A970CF4D6CE1A821982E8
:101B500046C02F81388589819A81845B9F4F880F89
:101B6000991F820F931FFC01808191818130910523
:101B700019F0029781F02EC02F81388589819A81D2
:101B80004596880F991F820F931FFC0180819181D8
:101B9000FC0109951FC02F81388589819A8145965E
:101BA000880F991F820F931FFC0180819181FC0196
:101BB00009958F819885FC01808191810896FC01AF
:101BC0002081318149815A818F819885BA01F9013B
:101BD0000995000089819A8101969A838983898178
:101BE0009A810A970CF4B5CF2896E6E00C94E42C81
:101BF000A4E0B0E0EEEFFDE00C94CC2C9C838B8352
:101C00008B819C8184559F4FFC01808191810A9733
:101C10001CF08FEF9FEF1FC01A82198216C02B8114
:101C20003C8189819A814596880F991F820F931F65
:101C3000FC0180819181892B19F489819A810BC0E3
:101C400089819A8101969A83898389819A810A97E9
:101C500034F38FEF9FEF2496E2E00C94E82CACE095
:101C6000B0E0E5E3FEE00C94CA2C9C838B834D83AB
:101C70005E836F8378873A8729871C870B878B81E0
:101C80009C81B6DF9A83898389819A8199231CF488
:101C90008FEF9FEF6BC089859A85892B19F48FEFA1
:101CA0009FEF64C02B813C8189819A81880F991FA5
:101CB000880F991F820F931F9C01225C3F4F8D81DB
:101CC0009E81AF81B885F90180839183A283B3831C
:101CD0002B813C8189819A814596880F991F820FBB
:101CE000931F29853A85FC01318320832B813C8118
:101CF00089819A81C396880F991F820F931F2B8524
:101D00003C85FC01318320832B813C8189819A8130
:101D1000820F931F82579F4F21E0FC01208365DDD6
:101D2000DC01CB014B815C8129813A81220F331F79
:101D3000220F331F240F351F2E5F3F4FF901808381
:101D40009183A283B3838B819C8184559F4FFC0137
:101D5000808191819C012F5F3F4F8B819C818455B5
:101D60009F4FFC013183208389819A812C96E4E086
:101D70000C94E62CA8E0B0E0E0ECFEE00C94C82C5B
:101D80009A8389834B835C836D837E8338872F831B
:101D900089819A81DC018D919C910696DC01ED91FF
:101DA000FC912F8138858B819C81AD81BE81E9803A
:101DB000FA8000E010E0AC01BD01C701099528964A
:101DC000E6E00C94E42CA8E0B0E0E9EEFEE00C9430
:101DD000C82C9A8389834B835C836D837E83388789
:101DE0002F8389819A81DC018D919C910696DC017B
:101DF000ED91FC912F8138858B819C81AD81BE81D5
:101E0000E980FA8001E010E0AC01BD01C70109954D
:101E10002896E6E00C94E42CA4E0B0E0E2E1FFE0D8
:101E20000C94CC2C9A8389837C836B838B819C81DB
:101E30000A970CF069C089819A8184559F4FFC01F3
:101E400080819181892B09F45FC029813A818B813E
:101E50009C814596880F991F820F931FFC018081FA
:101E60009181892B09F450C029813A818B819C8111
:101E70004596880F991F820F931FFC0111821082D3
:101E800029813A818B819C81820F931F82579F4FBA
:101E9000FC01108229813A818B819C81845B9F4F58
:101EA000880F991F820F931FFC01118210822981D4
:101EB0003A818B819C81880F991F880F991F820F0F
:101EC000931FCE96FC011082118212821382298107
:101ED0003A818B819C81CD96880F991F820F931F29
:101EE000FC011182108289819A8184559F4FFC01E7
:101EF000808191819C012150310989819A81845589
:101F00009F4FFC01318320832496E2E00C94E82C5F
:101F1000A4E0B0E0EEE8FFE00C94CC2C9A83898337
:101F20007C836B838B819C810A970CF014C05DDCF1
:101F3000DC01CB0149815A812B813C81220F331F67
:101F4000220F331F240F351F2E5F3F4FF90180836F
:101F50009183A283B3832496E2E00C94E82CA4E05E
:101F6000B0E0E5EBFFE00C94CC2C9A8389837C8372
:101F70006B838B819C810A9714F080E00AC02981D1
:101F80003A818B819C81820F931F82579F4FFC0166
:101F900080812496E2E00C94E82CA4E0B0E0E3ED2C
:101FA000FFE00C94CC2C9A8389837C836B838B8198
:101FB0009C810A970CF00BC029813A818B819C810E
:101FC000820F931F82579F4F21E0FC0120832496AC
:101FD000E2E00C94E82CA4E0B0E0E1EFFFE00C9428
:101FE000CC2C9A8389837C836B838B819C810A9719
:101FF0000CF00AC029813A818B819C81820F931F4A
:1020000082579F4FFC0110822496E2E00C94E82C4A
:10201000CF92EF920F93CF93DF9300D0CDB7DEB77F
:102020009A83898389819A810F2EF7E0CF2EF02D34
:102030000F2EF6E0EF2EF02D05E024E049E068E0F9
:1020400021D889819A8123EA31E0FC013183208300
:1020500089819A812AE0E5E1F1E0DC01589601905E
:102060000D922A95E1F789819A8125E030E0FC0103
:1020700033A322A389819A8108D00F900F90DF911A
:10208000CF910F91EF90CF900895A2E0B0E0EBE4F4
:10209000F0E10C94CC2C9A83898389819A8120E089
:1020A00042E060E1BDD889819A81B4D989819A8161
:1020B00040E060E0C3D92296E2E00C94E82CA4E072
:1020C000B0E0E5E6F0E10C94CC2C9A8389837C8324
:1020D0006B832B8189819A81422F60E0AFD92FE8F1
:1020E00033E089819A81B9010E948B262496E2E02F
:1020F0000C94E82CA6E0B0E0E0E8F0E10C94CC2CE5
:102100009A8389837C836B835E834D832B813C819F
:1021100089819A81B901D3DF2B8189819A81422FEC
:1021200060E08CD989819A812D813E81B9010E941C
:10213000AF262696E2E00C94E82CA4E0B0E0E3EAB7
:10214000F0E10C94CC2C9C838B838B819C8169D097
:102150009A83898389819A818230910591F08330B5
:1021600091052CF4009749F0019749F010C0833095
:10217000910549F0049749F00AC080E009C081E068
:1021800007C082E005C083E003C084E001C085E0B1
:102190002496E2E00C94E82CA6E0B0E0E2EDF0E159
:1021A0000C94CC2C9C838B837E836D831A82198242
:1021B0001AC02B813C8189819A810C96880F991FC6
:1021C000820F931FFC01808191819C018D819E81F2
:1021D0008217930718F489819A811FC089819A8197
:1021E00001969A8389838B819C81FC0122A133A172
:1021F00089819A8182179307E4F28B819C81FC018B
:1022000022A133A189819A818217930724F08FEF4D
:102210009FEF9A83898389819A812696E2E00C94C4
:10222000E82CA6E0B0E0E7E1F1E10C94CC2C9E8331
:102230008D8380E00E94B0289A83898329813A8126
:102240008D819E81B901A8DF9C838B838B819C81CA
:102250002696E2E00C94E82CA4E0B0E0E2E3F1E1A1
:102260000C94CC2C9A8389837C836B8389819A819B
:102270002B813C81FC01318320832496E2E00C9485
:10228000E82CA2E0B0E0E7E4F1E10C94CC2C9A83D6
:10229000898389819A81FC01808191810E94CE335A
:1022A0002296E2E00C94E82CA2E0B0E0EAE5F1E14D
:1022B0000C94CC2C9A83898389819A81E2DF2296BF
:1022C000E2E00C94E82CA6E0B0E0E9E6F1E10C9441
:1022D000CC2C9C838B837E836D838D819E81BC01FE
:1022E000CE010196B9DF89819A812696E2E00C94AD
:1022F000E82CAAE0B0E0EFE7F1E10C94CA2C9E8351
:102300008D8378876F835A8749871A8219821DC007
:102310000D811E81C80101979E838D838F819885D1
:102320009C012F5F3F4F38872F83BC018DEE92E0D9
:10233000CADF9C838B83CE010396B6DFF8018083CE
:1023400089819A8101969A83898329813A81898535
:102350009A8528173907E0F22A96E4E00C94E62CD7
:10236000A6E1B0E0E6EBF1E10C94C62C988B8F87E8
:102370007A8B698B1F82188619861A8689899A89B1
:10238000181619065CF080EA93E0BC0180EC94E03A
:102390000E94C72680E090E0DC0124C189899A89E7
:1023A00005970CF047C01A8219821EC089819A8154
:1023B000880F991F2F853889820F931F19D1092EF5
:1023C000000CAA0BBB0B2F81388549855A85820FDB
:1023D000931FA41FB51F8F839887A987BA87898108
:1023E0009A8101969A83898329813A8189899A8978
:1023F00028173907DCF289899A899C01990F440BC7
:10240000550B8F819885A985BA85BC01CD010E94A5
:10241000902CDA01C901BC01CD010E947423DC01BA
:10242000CB018B879C87AD87BE878B859C85AD85CF
:10243000BE85D8C08F859889DBD08C018F8598891F
:102440000296D6D021E0081719070CF020E02223CD
:1024500061F08F859889CCD09E838D838F859889F4
:102460000296C6D09C838B830BC08F859889029679
:10247000BFD09E838D838F859889BAD09C838B83B0
:1024800082E090E09A83898380C089819A81880F55
:10249000991F2F853889820F931FAAD09C0141E094
:1024A0008D819E81281739070CF040E04423F1F01C
:1024B0008D819E81092E000CAA0BBB0B2F813885C4
:1024C00049855A85820F931FA41FB51F8F83988754
:1024D000A987BA8789819A81880F991F2F853889A2
:1024E000820F931F85D09E838D834AC089819A81F4
:1024F000880F991F2F853889820F931F79D09C01EF
:1025000041E08B819C81821793070CF040E04423CB
:10251000F1F08B819C81092E000CAA0BBB0B2F8143
:10252000388549855A85820F931FA41FB51F8F8355
:102530009887A987BA8789819A81880F991F2F85E3
:102540003889820F931F54D09C838B8319C0898153
:102550009A81880F991F2F853889820F931F48D041
:10256000092E000CAA0BBB0B2F81388549855A8593
:10257000820F931FA41FB51F8F839887A987BA87DF
:1025800089819A8101969A83898329813A818989EF
:102590009A89281739070CF478CF6F817885898557
:1025A0009A850E9474236B017C0189899A8902971C
:1025B000092E000CAA0BBB0BBC01CD010E94742399
:1025C000DC01CB019C01AD01C701B6010E94D922FB
:1025D000DC01CB018B879C87AD87BE878B859C8573
:1025E000AD85BE85BC01CD016696E8E00C94E22C79
:1025F000A2E0B0E0EEEFF2E10C94CC2C9A83898358
:1026000089819A8104D02296E2E00C94E82CA4E01F
:10261000B0E0EDE0F3E10C94CC2C9C838B838B81B8
:102620009C8111D0BC0181E090E09E012F5F3F4F63
:10263000820F931F42E050E05CDE89819A812496EC
:10264000E2E00C94E82CA2E0B0E0E9E2F3E10C94C3
:10265000CC2C9A83898389819A812296E2E00C941A
:10266000E82CA2E0B0E0E7E3F3E10C94CC2C9A83F1
:10267000898389819A81FC01808191812296E2E09F
:102680000C94E82CA4E0B0E0E8E4F3E10C94CC2C4A
:102690009A8389837C836B8389819A812B813C8196
:1026A000B9010E94F0292496E2E00C94E82CA3E002
:1026B000B0E0EDE5F3E10C94CC2C9A8389836B8335
:1026C00089819A81FC01808191816B810E94D6333E
:1026D00089819A812396E2E00C94E82CA3E0B0E093
:1026E000E4E7F3E10C94CC2C9A8389836B83898192
:1026F0009A81DADD982F8B81981729F089819A8148
:102700006B81D5DF02C089819A812396E2E00C9427
:10271000E82CABE0B0E0EFE8F3E10C94CC2C9F8325
:102720008E83798768875B874A871A82198220C0DF
:102730008E819F81FC0180818B83888599859C0196
:102740002F5F3F4F39872887BC018EEE92E0BBDDBB
:102750009D838C83CE0104966B81C0DF8E819F8127
:1027600001979F838E8389819A8101969A838983B9
:1027700029813A818A859B8528173907C8F22B96CB
:10278000E2E00C94E82CA4E0B0E0E9ECF3E10C9476
:10279000CC2C9A8389837C836B8389819A8124EDF5
:1027A00031E0FC01318320838B819C81FC012281FB
:1027B000338189819A81FC01338322832496E2E06C
:1027C0000C94E82CA4E0B0E0E8EEF3E10C94CC2CFF
:1027D0009A8389837C836B832B813C8189819A8155
:1027E000B901D1DF89819A8125E831E0FC0131838B
:1027F00020838B819C81FC01248189819A81FC0149
:1028000024838B819C81FC01258189819A81FC0133
:1028100025838B819C81FC01268189819A81FC0121
:10282000268389819A812B813C8148E0F901379682
:10283000DC01179601900D924A95E1F78B819C81FE
:10284000FC01278589819A81FC0127878B819C81E6
:10285000FC01208989819A81FC01208B8B819C81DC
:10286000FC01218989819A81FC01218B8B819C81CA
:10287000FC01228989819A81FC01228B8B819C81B8
:10288000FC01238989819A81FC01238B29813A816A
:102890008B819C81FC0184899589A689B789F9017E
:1028A000848B958BA68BB78B2496E2E00C94E82C56
:1028B000A4E0B0E0EEE5F4E10C94CC2C9A8389839B
:1028C0007C836B832B813C8189819A81B9017ADF7A
:1028D00089819A8123EA31E0FC0131832083898157
:1028E0009A812B813C814AE0F9017896DC01589667
:1028F00001900D924A95E1F78B819C81FC0122A108
:1029000033A189819A81FC0133A322A32496E2E0BA
:102910000C94E82CABE0B0E0E0E9F4E10C94C82CB6
:102920009A8389837C836B835E834D832F8319878E
:102930000887FB86EA8689819A812B813C81FC018C
:102940003183208389819A81FC01138212828981DB
:102950009A812D813E81FC013583248389819A816E
:102960002F81FC01228789819A812A853B85FC0180
:102970003487238789819A810E9628853985B90104
:1029800097DF89819A81C2966FE171E00E94F029F8
:1029900029813A8180E090E0A0E4B0E4F90180AFC1
:1029A00091AFA2AFB3AF89819A8104D02B96E6E0B4
:1029B0000C94E42CAAE0B0E0E0EEF4E10C94CB2C13
:1029C0009A87898761E08DE00E94F62889859A853B
:1029D000FC018385948561E00E94F6288091A7011F
:1029E0009091A801DAD2DC01CB0189839A83AB8371
:1029F000BC8329813A814B815C8169817A818B8199
:102A00009C810E948724882359F429853A858981ED
:102A10009A81AB81BC81F90180AF91AFA2AFB3AF16
:102A20008091A7019091A8010696B7D2DC01CB0155
:102A300011E09C01AD01BC01CD010E9487248823D7
:102A400009F410E0112371F01D821E821F82188686
:102A50008091A7019091A80106969E012B5F3F4FA0
:102A6000B901AED22A96E3E00C94E72CAAE0B0E0DC
:102A7000ECE3F5E10C94CC2C9E838D834F83588737
:102A800069877A872D813E818F819885A985BA854E
:102A9000F90180AF91AFA2AFB3AF8D819E81FC01F0
:102AA00080AD91ADA2ADB3AD89839A83AB83BC8376
:102AB0008091A7019091A8019C01CE010196BC01D3
:102AC000C9017ED22A96E2E00C94E82CA8E0B0E09E
:102AD000ECE6F5E10C94CC2C98878F838091A701CC
:102AE0009091A801069659D2DC01CB0122E0AC01FD
:102AF000BD01CE0101960E948B2ACE010196B1DD67
:102B00009C018F819885C296B9010E94212ACE012D
:102B100001960E9489298091A7019091A8010696AB
:102B20003CD2DC01CB01BC01CD012896E2E00C9443
:102B3000E82CA2E0B0E0EFE9F5E10C94CC2C9A830C
:102B4000898389819A81FC01958581E08927882381
:102B500009F003C089819A8104D02296E2E00C94A6
:102B6000E82CA0E1B0E0E7EBF5E10C94C82C988BE1
:102B70008F8780ED97E09A8389838FEE92E0FC0146
:102B80008081882389F40E940028DC01CB01809396
:102B9000FF0290930003A0930103B09302038FEE12
:102BA00092E021E0FC0120830E9400289B01AC01FF
:102BB0008091FF0290910003A0910103B091020364
:102BC000281B390B4A0B5B0B89819A81092E000C5B
:102BD000AA0BBB0B61E082179307A407B50708F0A7
:102BE00060E0662309F4D4C08EE190E09C838B837F
:102BF0008F859889FC01808191810E94B0289A87F5
:102C000089878AEC93E0BC0180EC94E00E948B26DB
:102C100089859A854AE050E0BC0180EC94E00E94EE
:102C200080272091A7013091A8018F859889FC0108
:102C300082819381BC016F5F7F4F4F855889FA0174
:102C4000738362830796880F991F820F931F9E01DB
:102C5000275F3F4FB901C8D18F859889FC01228138
:102C600033818B819C812817390729F48F859889B6
:102C7000FC01138212828091A7019091A8010E9607
:102C80002B813C81B9016CDBDC01CB018D839E8300
:102C9000AF83B88720E030E040EA50E46D817E8168
:102CA0008F8198850E942424DC01CB0120E030E054
:102CB00040E854E4BC01CD010E94D922DC01CB01E3
:102CC0002F853889F90186839783A087B1878F85FF
:102CD0009889FC0186819781A085B1859C01AD0111
:102CE00060E070E080E290E40E947022DC01CB01A1
:102CF0002CEE31E548E35EE3BC01CD010E94D92210
:102D0000DC01CB0120E030E040EE50E4BC01CD011D
:102D10000E947122DC01CB017C018D018F85988995
:102D2000FC0180AD91ADA2ADB3AD9C01AD01C80178
:102D3000B7010E947122DC01CB018B879C87AD8794
:102D4000BE878B859C85AD85BE8520E030E0A901DE
:102D5000BC01CD010E94D522882324F41B861C8649
:102D60001D861E868091A7019091A80106969E015E
:102D7000255F3F4FB90124D10E940028DC01CB011F
:102D80008093FF0290930003A0930103B09302038A
:102D90008091A7019091A8010696FFD0DC01CB019C
:102DA000BC01CD016096E6E00C94E42CA2E0B0E01A
:102DB000ECEDF6E10C94CC2C9A83898389819A817D
:102DC0000E9489292296E2E00C94E82CAAE1B0E066
:102DD000ECEEF6E10C94CA2C9A8F898F898D9A8D2E
:102DE00075DE87EF92E0FC018081882389F40E94E0
:102DF0000028DC01CB018093030390930403A0938C
:102E00000503B093060387EF92E021E0FC012083E5
:102E10000E9400289B01AC01809103039091040360
:102E2000A0910503B0910603281B390B4A0B5B0BDD
:102E3000898D9A8DFC018481958180579E4F092E42
:102E4000000CAA0BBB0B61E082179307A407B50720
:102E500008F060E0662309F465C0898D9A8DFC0155
:102E60008285882309F452C0CE010D966FE171E08E
:102E70000E94F029898D9A8DFC018585882331F087
:102E8000CE010D9660E271E00E94212A898D9A8D13
:102E90008C010E5C1F4FCE01079662E271E0F2DBFF
:102EA000CE010796B8010E94332B67E271E00E94C1
:102EB000442B9C01CE010D96BC01C9010E94332B0D
:102EC0009C01CE014396B9010E94192ACE010796B2
:102ED0006DDFCE014396BC01CE0101960E94192AF6
:102EE000898D9A8D0E969E012F5F3F4FA90160E05C
:102EF00070E000D9CE0101960E948929CE01439647
:102F00000E948929CE010D960E9489290E940028DD
:102F1000DC01CB018093030390930403A09305038A
:102F2000B09306036A96E4E00C94E62CA2E0B0E0CD
:102F3000ECE9F7E10C94CC2C9A83898389819A81FE
:102F400021E0FC01258789819A81FC018385948594
:102F500061E00E9432292296E2E00C94E82CA2E083
:102F6000B0E0E5EBF7E10C94CC2C9A83898389815E
:102F70009A81FC01158689819A81FC01838594855B
:102F800060E00E94322968EE73E080E090E00E94E9
:102F900031282296E2E00C94E82CA2E0B0E0E3EDC8
:102FA000F7E10C94CC2C9A83898389819A8130D063
:102FB000DC01CB01BC01CD012296E2E00C94E82CAF
:102FC000A4E0B0E0E6EEF7E10C94CC2C9A83898380
:102FD0007C836B832B813C8189819A81B90138D0B4
:102FE0002496E2E00C94E82CA4E0B0E0EAEFF7E1EC
:102FF0000C94CC2C9A8389837C836B832B813C81BA
:1030000089819A81B90142D02496E2E00C94E82C9F
:10301000A6E0B0E0EEE0F8E10C94CC2C9E838D832A
:103020008D819E8151D0BC0183E090E09E012F5F95
:103030003F4F820F931F44E050E05BD989819A8112
:10304000AB81BC81BC01CD012696E2E00C94E82C5A
:10305000A4E0B0E0EEE2F8E10C94CC2C9A838983F2
:103060007C836B8389819A812FD0BC0183E090E0BF
:103070002B813C81820F931F44E050E04ADB898121
:103080009A8122D02496E2E00C94E82CA4E0B0E0EF
:10309000ECE4F8E10C94CC2C9A8389837C836B83D9
:1030A00089819A81D0DABC0181E090E02B813C815A
:1030B000820F931F42E050E02CDB89819A81C3DAB2
:1030C0002496E2E00C94E82CA2E0B0E0EAE6F8E115
:1030D0000C94CC2C9A83898389819A812296E2E090
:1030E0000C94E82CABE0B0E0E8E7F8E10C94C82CD5
:1030F0009A8389837C836B835E834D832F831987B7
:103100000887FB86EA8689819A812B813C81FC01B4
:103110003183208389819A81FC0113821282898103
:103120009A812D813E81FC013583248389819A8196
:103130002F81FC01268389819A812A853B85FC01A8
:103140003087278389819A81FC01138612868981C1
:103150009A810C9628853985B901AADB89819A81E3
:10316000C09669E271E00E94F02989819A812EE07F
:1031700031E0FC0137AB26AB89819A8104D02B96D4
:10318000E6E00C94E42CAAE0B0E0E9ECF8E10C9461
:10319000CB2C9A87898761E08DE00E94F62889858B
:1031A0009A85FC018781908561E00E94F6288091D4
:1031B000A7019091A80104961BDA092E000CAA0B16
:1031C000BB0BBC01CD010E947423DC01CB018983C0
:1031D0009A83AB83BC8329813A814B815C8169816D
:1031E0007A818B819C810E948724882371F4698174
:1031F0007A818B819C810E944123DC01CB019C015F
:1032000089859A85FC0137AB26AB8091A701909107
:10321000A8010A96C2DEDC01CB0111E09C01AD01E0
:10322000BC01CD010E948724882309F410E01123FA
:1032300071F01D821E821F8218868091A7019091D5
:10324000A8010A969E012B5F3F4FB901B9DE2A966D
:10325000E3E00C94E72CA4E0B0E0E1E3F9E10C94A6
:10326000CC2C9A8389837C836B8389819A812B817F
:103270003C81FC0137AB26AB89819A819C012A5C99
:103280003F4F8091A7019091A8010496B901ACDE4F
:103290002496E2E00C94E82CA8E0B0E0E2E5F9E145
:1032A0000C94CC2C98878F838091A7019091A801D2
:1032B0000A9673DEDC01CB0120E0AC01BD01CE013A
:1032C00001960E948B2ACE010196CBD99C018F8159
:1032D0009885C096B9010E94212ACE0101960E94CC
:1032E00089298091A7019091A8010A9656DEDC01F8
:1032F000CB01BC01CD012896E2E00C94E82CAAE1B8
:10330000B0E0E5E8F9E10C94CA2C9A8F898F898D99
:103310009A8DC2DF87E093E0FC018081882389F4E5
:103320000E940028DC01CB018093170390931803BF
:10333000A0931903B0931A0387E093E021E0FC0106
:1033400020830E9400289B01AC018091170390917B
:103350001803A0911903B0911A03281B390B4A0BCB
:103360005B0B898D9A8DFC018481958180579E4FDE
:10337000092E000CAA0BBB0B61E082179307A40770
:10338000B50708F060E0662309F470C0898D9A8D56
:10339000FC018681882309F453C0CE010D9669E2B1
:1033A00071E00E94F029898D9A8DFC018185882326
:1033B00031F0CE010D966AE271E00E94212A898DDA
:1033C0009A8D8C01005D1F4FCE0107966CE271E073
:1033D00059D9CE010796B8010E94332B62E371E000
:1033E0000E94442B9C01CE010D96BC01C9010E9494
:1033F000332B9C01CE014396B9010E94192ACE01BC
:103400000796D4DCCE014396BC01CE0101960E9402
:10341000192A898D9A8D0C969E012F5F3F4FA90125
:1034200061E070E00E947A10CE0101960E94892925
:10343000CE0143960E948929CE010D960E948929CA
:103440008DE00E946129982F81E08927682F8DE007
:103450000E9432290E940028DC01CB0180931703CF
:1034600090931803A0931903B0931A036A96E4E0AB
:103470000C94E62CA2E0B0E0E0E4FAE10C94CC2C51
:103480009A83898389819A81FC01918581E08927CA
:10349000882309F003C089819A8104D02296E2E052
:1034A0000C94E82CA6E1B0E0E8E5FAE10C94C82C15
:1034B0009E8B8D8B8FE093E0FC018081882389F4C3
:1034C0000E940028DC01CB0180931B0390931C0316
:1034D000A0931D03B0931E038FE093E021E0FC0155
:1034E00020830E9400289B01AC0180911B039091D6
:1034F0001C03A0911D03B0911E0379018A01E81AF3
:10350000F90A0A0B1B0BD801C70121E0813D974046
:10351000A105B10508F420E0222309F4A3C08AE044
:1035200090E09A8389838D899E89FC0180819181B5
:103530000E94B0289C8B8B8B8BED93E0BC0180ECC0
:1035400094E00E948B268B899C894AE050E0BC0164
:1035500080EC94E00E9480272091A7013091A8017F
:103560008D899E89FC0182819381BC016F5F7F4FB1
:103570004D895E89FA01738362838596880F991F4E
:10358000820F931F9E012D5E3F4FB9012DDD8D8966
:103590009E89FC012281338189819A81281739070C
:1035A00029F48D899E89FC01138212828091A701E2
:1035B0009091A801865B9F4F29813A81B9010E94B1
:1035C000B011DC01CB018B839C83AD83BE8320E0F3
:1035D00030E040EA5BE36B817C818D819E810E94BB
:1035E0002424DC01CB018F839887A987BA878D8932
:1035F0009E89FC0186A997A9092E000CAA0BBB0B7A
:10360000BC01CD010E947423DC01CB012F813885E0
:1036100049855A85BC01CD010E942424DC01CB01DF
:103620008B879C87AD87BE878B859C85AD85BE8546
:103630008F87988BA98BBA8B8091A7019091A80155
:103640000A969E01215F3F4FB901BADC0E94002813
:10365000DC01CB0180931B0390931C03A0931D03FB
:10366000B0931E038091A7019091A8010A9695DC62
:10367000DC01CB01BC01CD016696E6E00C94E42CA4
:10368000A2E0B0E0E6E4FBE10C94CC2C9A838983C1
:1036900089819A8121E0FC01218789819A81FC013D
:1036A0008781908561E00E9432292296E2E00C94A5
:1036B000E82CA2E0B0E0EFE5FBE10C94CC2C9A837F
:1036C000898389819A81FC01118689819A81FC0113
:1036D0008781908560E00E94322968EE73E080E087
:1036E00090E00E9431282296E2E00C94E82CA2E0BF
:1036F000B0E0EDE7FBE10C94CC2C9A8389838981BF
:103700009A81FC01848195812296E2E00C94E82C58
:10371000A4E0B0E0EEE8FBE10C94CC2C9A83898322
:103720007C836B832B813C8189819A81B9010E94C2
:10373000132B89819A812496E2E00C94E82CA4E072
:10374000B0E0E5EAFBE10C94CC2C9A8389837C837E
:103750006B832B813C8189819A81B9010E945B2B0B
:103760002496E2E00C94E82CA4E0B0E0EAEBFBE164
:103770000C94CC2C9A8389837C836B8389819A8176
:103780002B813C81B9010E94192A2496E2E00C9415
:10379000E82CA0E0B0E0EFECFBE10C94CC2C8DEE3B
:1037A00093E0BC0180EC94E00E948B264AE050E05C
:1037B00068E080EC94E00E94A12768E08FE892E046
:1037C0000E942C056EEC7DE18FE892E00E949F063E
:1037D00064ED7CE18FE892E00E948B06E2E00C94BD
:1037E000E82CA4E3B0E0E7EFFBE10C94CC2C809153
:1037F000AB019091AC01C2960E943113BC018DE3E4
:1038000093E00E94212A8091AD019091AE01C09673
:103810000E943113BC0183E493E00E94212A80912D
:10382000AB019091AC01FC0180AD91ADA2ADB3AD07
:10383000FE01B79622E0AC01BD01CF010E94B92A7A
:10384000CE0187960E943113BC018BE593E00E9464
:10385000212ACE0187960E9489298091AD019091FD
:10386000AE01FC0126A937A9CE0181964AE0B90133
:103870000E94362ACE0181960E943113BC0181E656
:1038800093E00E94212ACE0181960E94892990917D
:10389000670381E08927882339F064E371E085E5D7
:1038A00093E00E94212A06C067E371E085E593E07A
:1038B0000E94212A8091680390916903A0916A0374
:1038C000B0916B0328EE33E040E050E0BC01CD0145
:1038D0000E94902CDA01C90189839A83AB83BC834F
:1038E00089819A81AB81BC81FE0175962AE0AC0189
:1038F000BD01CF010E94602A9E012B5E3F4FCE0189
:103900004B96B90131DFCE014B966BE371E00E941B
:10391000442BBC018FE493E00E94042ACE014B9615
:1039200045DACE0145960E94892980911001909137
:103930001101A0911201B091130128EE33E040E093
:1039400050E0BC01CD010E94902CDA01C9018D83A9
:103950009E83AF83B8878D819E81AF81B885FE013C
:1039600039962AE0AC01BD01CF010E94602A9E0178
:10397000275F3F4FCE010F96B901F6DECE010F96BD
:103980006BE371E00E94442BBC0189E493E00E9448
:10399000042ACE010F960ADACE0109960E948929DF
:1039A000E496E2E00C94E82CA7E2B0E0EAEDFCE15A
:1039B0000C94CB2C9FA38EA36DE371E08FE193E079
:1039C0000E94212A6DE371E08BE293E00E94212A9C
:1039D0006DE371E081E393E00E94212A8EA19FA113
:1039E000449709F0C7C00AC08FE892E00E94D20550
:1039F000898369818FE193E00E94212B8FE892E017
:103A00000E94BA0521E0181619060CF020E02223C6
:103A100059F78FE193E00E94022CCE0144966EE3A9
:103A200071E00E94F029CE014496BC018FE193E041
:103A30000E949E2B11E0882309F410E0CE014496E9
:103A40000E9489291123A1F06FE173E08BE293E0DA
:103A50000E94042A86EF93E0BC0180EC94E00E946F
:103A60008B266BE273E080EC94E00E94D72692C034
:103A70006FE173E081E393E00E94042A8CEF93E00E
:103A8000BC0180EC94E00E948B2661E373E080EC43
:103A900094E00E94D726CE010E9661E373E00E9467
:103AA000192ACE014A96BE01625F7F4F20E030E0C6
:103AB0004DE395D1CE010E960E948929CE0108963C
:103AC00061E373E00E94192ACE018096BE01685F0F
:103AD0007F4F21E030E04DE382D1CE0108960E9475
:103AE0008929CE014A9660E471E029DE982F81E0B1
:103AF000992309F480E0882389F0CE0180960E9402
:103B0000592CDC01CB019B838A838091AD0190917C
:103B1000AE012A813B81B9019EDB23C0CE014A96CA
:103B20006AE471E00CDE982F81E0992309F480E0CB
:103B30008823B9F0CE0180960E94632CDC01CB0172
:103B40008C839D83AE83BF832091AB013091AC0108
:103B50008C819D81AE81BF81AC01BD01C9010E94F4
:103B60003615CE0180960E948929CE014A960E9480
:103B7000892910C086E094E0BC0180EC94E00E94AA
:103B80008B268EA19FA14AE050E0BC0180EC94E01E
:103B90000E948027A796E3E00C94E72CA2E1B0E016
:103BA000E4EDFDE10C94CA2CCE010D966DE371E0BD
:103BB0000E94F0296EE371E08BE293E0C0DD982F64
:103BC00081E0992309F480E08823C1F0CE010D96AD
:103BD00063E571E00E94212A9E01235F3F4FCE01E1
:103BE0000796B9010E94192ACE010796A8D0CE01E6
:103BF00007960E94892900E010E095C08091060197
:103C0000909107010196909307018093060180919E
:103C1000060190910701892B39F4CE010D966DE3D1
:103C200073E00E94042A6FC0809106019091070101
:103C3000019739F4CE010D9663E473E00E94042AE3
:103C400062C08091060190910701029739F4CE017C
:103C50000D966BE573E00E94042A55C08091060121
:103C600090910701039739F4CE010D9661E673E058
:103C70000E94042A48C08091060190910701049790
:103C800039F4CE010D9665E573E00E94042A3BC02D
:103C90008091060190910701059739F4CE010D96A8
:103CA0006FE473E00E94042A2EC080910601909177
:103CB0000701069769F4CE010D9669E473E00E944E
:103CC000042A8FEF9FEF90930701809306011BC09A
:103CD0008CE294E0BC0180EC94E00E948B26809101
:103CE0000601909107014AE050E0BC0180EC94E0AD
:103CF0000E9480278FEF9FEF90930701809306012A
:103D000000E010E010C0CE010D96BC01CE0101967E
:103D10000E94192ACE01019612D0CE0101960E946E
:103D2000892901E010E0CE010D960E948929013019
:103D3000110509F400006296E4E00C94E62CA2E17F
:103D4000B0E0E5EAFEE10C94CC2C9A8B898B898952
:103D50009A89CDDC9C018AE090E0821B930B9E83C4
:103D60008D831A8219820AC089899A8969E571E06E
:103D7000CFDC89819A8101969A83898329813A814E
:103D80008D819E81281739077CF31C821B8216C007
:103D90002B813C8189899A89B9010E94BD2B482FCA
:103DA0009E01295F3F4F8B819C81820F931FFC01F5
:103DB00040838B819C8101969C838B838B819C812A
:103DC0000A9734F3CE0107964AE050E0BC018FE831
:103DD00092E00E947A056296E2E00C94E82CA1E160
:103DE000B0E0E5EFFEE10C94CC2C9C878B877E87BE
:103DF0006D874F87398B288B1A82198218861F820C
:103E00008FEF9FEF9A8789878D859E8570DC01975C
:103E10009E838D831C821B8235C02B813C818D85C6
:103E20009E85B9010E94BD2B982F8F85981739F078
:103E30002B813C818D819E812817390711F481E007
:103E400001C080E08823C9F089819A8101969A8314
:103E5000898389859A85019698878F832B813C81F8
:103E60008D819E812817390721F48B819C810196D1
:103E700002C08B819C819A8789878B819C81019666
:103E80009C838B832B813C818D819E81821793073C
:103E900044F029813A8188899989821793070CF027
:103EA000BCCF29813A8188899989821793076CF45C
:103EB00089859A859C018F819885AC018B859C852D
:103EC0006D857E850E94BE2B06C08B859C856DE32B
:103ED00071E00E94F02900008B859C856196E2E0EC
:103EE0000C94E82CA4E0B0E0E8E7FFE10C94CC2CC3
:103EF0009A8389837C836B8389819A81019709F0F6
:103F00004DC08B819C81019609F048C06DE371E042
:103F10008FE193E00E94F0296DE371E085E293E088
:103F20000E94F0296DE371E08BE293E00E94F0299A
:103F30006DE371E081E393E00E94F0296DE371E0AD
:103F400087E393E00E94F0296DE371E08DE393E055
:103F50000E94F0296DE371E083E493E00E94F02970
:103F60006DE371E089E493E00E94F0296DE371E074
:103F70008FE493E00E94F0296DE371E085E593E022
:103F80000E94F0296DE371E08BE593E00E94F02937
:103F90006DE371E081E693E00E94F02989819A81C6
:103FA000892BA1F58B819C81019681F581E693E0B7
:103FB0000E9489298BE593E00E94892985E593E099
:103FC0000E9489298FE493E00E94892989E493E083
:103FD0000E94892983E493E00E9489298DE393E07C
:103FE0000E94892987E393E00E94892981E393E075
:103FF0000E9489298BE293E00E94892985E293E05F
:104000000E9489298FE193E00E9489292496E2E0A9
:104010000C94E82CA0E0B0E0E0E1F0E20C94CC2CB1
:104020006FEF7FEF81E090E05DDFE2E00C94E82C41
:10403000A0E0B0E0EEE1F0E20C94CC2C6FEF7FEF6B
:1040400080E090E04FDFE2E00C94E82CA2E0B0E0EA
:10405000ECE2F0E20C94CC2C9A83898389819A81DA
:10406000C2960E9489292296E2E00C94E82CA2E0F4
:10407000B0E0EDE3F0E20C94CC2C9A838983898143
:104080009A81C0960E9489292296E2E00C94E82C3D
:10409000ACE4B0E0EEE4F0E20C94C82C9E01275BA7
:1040A0003F4FF90191838083CE01855B9F4FFC01D7
:1040B00071836083CE01875B9F4FFC01808191817A
:1040C000019709F044C0CE01855B9F4FFC018081C0
:1040D00091810196E1F58CE693E00E940810009131
:1040E0000C0110910D012CE633E0CE018596B9014B
:1040F0000E94581480910801909109019E012B5D46
:104100003F4F7801890121E040ED57E0BC0180E993
:1041100093E00E948A1400910E0110910F018CE629
:1041200093E0BC01CE0101960E94581480910A01CF
:1041300090910B0178019E012F5F3F4F890121E093
:1041400048EE53E0BC018CEC93E00E947218CE0163
:10415000875B9F4FFC0180819181892B71F4CE0197
:10416000855B9F4FFC0180819181019631F48CEC3D
:1041700093E07DDF80E993E069DFC45BDF4FE6E039
:104180000C94E42CA0E0B0E0E8ECF0E20C94CC2C31
:104190006FEF7FEF81E090E07BDFE2E00C94E82CB2
:1041A000A0E0B0E0E6EDF0E20C94CC2C6FEF7FEFF6
:1041B00080E090E06DDFE2E00C94E82CA0E0B0E05D
:1041C000E4EEF0E20C94CC2C89E090E08870992722
:1041D000892B11F088E201C088E099E09770892B63
:1041E000982F88E10FB6F894A895809360000FBED1
:1041F000909360008091AB019091AC010E94961762
:10420000C8DAE2E00C94E82CA0E0B0E0EAE0F1E2E9
:104210000C94CC2C8091AB019091AC010E94E616DD
:104220008091AD019091AE016AD8EAD6DC01CB0154
:1042300021E080389D47A54AB24008F420E02223BF
:1042400059F064E670E080E090E00BD780910404C0
:1042500090910504FC010995E2E00C94E82CA0E0A3
:10426000B0E0E5E3F1E20C94C82CA89586E094E078
:10427000FC018081882381F4C3D6DC01CB018093CB
:104280000E0490930F04A0931004B093110486E0E1
:1042900094E021E0FC0120838091A9019091AA0182
:1042A0000E949D10982F81E0943009F080E08823CF
:1042B00091F087E494E0BC0180EC94E068D55BD099
:1042C0009FD6DC01CB0180930E0490930F04A09342
:1042D0001004B093110494D69B01AC0180910E049C
:1042E00090910F04A0911004B091110479018A01FA
:1042F000E81AF90A0A0B1B0BD801C701809368035F
:1043000090936903A0936A03B0936B036ADA2091D8
:1043100068033091690340916A0350916B03809167
:10432000100190911101A0911201B0911301821717
:104330009307A407B50764F41ED062D6DC01CB0155
:1043400080930E0490930F04A0931004B093110473
:1043500080916703882331F08091AD019091AE0187
:1043600089D806C08091AB019091AC010E9499154B
:10437000E6E00C94E42CA0E0B0E0E1ECF1E20C9477
:10438000CC2C9091670381E089278093670380910B
:104390006703882361F08091AB019091AC010E948A
:1043A000AF178091AD019091AE016AD90BC0809199
:1043B000AD019091AE017DD98091AB019091AC019E
:1043C0000E949617E2E00C94E82CA6E0B0E0EBEE39
:1043D000F1E20C94CC2C9A8389834B835C836D83AC
:1043E0007E838B819C81AD81BE81E981FA8126E04B
:1043F000AC01BD01CF0154D32696E2E00C94E82C29
:10440000A2E0B0E0E6E0F2E20C94CC2C9A8389833F
:1044100081E02296E2E00C94E82CA2E0B0E0E3E137
:10442000F2E20C94CC2C40E051EE60E070E080ECC5
:1044300094E0CBDF000080EC94E0E2DF982F81E095
:1044400089278823C1F7BADE88EE93E09A838983AF
:1044500089819A81092E000CAA0BBB0B2FE231E255
:10446000AC01BD0182E194E00E94BA0E2296E2E026
:104470000C94E82CA0E0B0E0E0E4F2E20C94CC2C48
:1044800082E194E00E946A0CBFDEE2E00C94E82C2A
:10449000A4E0B0E0EEE4F2E20C94CC2C9A838983A1
:1044A0007C836B8389819A81019741F48B819C8104
:1044B000019621F482E194E00E94040C2496E2E04B
:1044C0000C94E82CA0E0B0E0E8E6F2E20C94CC2CEE
:1044D0006FEF7FEF81E090E0DBDFE2E00C94E82C0F
:1044E0005058BB27AA270ED075C166D130F06BD1CA
:1044F00020F031F49F3F11F41EF45BC10EF4E095FF
:10450000E7FB51C1E92F77D180F3BA176207730730
:104510008407950718F071F49EF58FC10EF4E095AD
:104520000B2EBA2FA02D0B01B90190010C01CA016D
:10453000A0011124FF27591B99F0593F50F4503E18
:1045400068F11A16F040A22F232F342F4427585F0A
:10455000F3CF469537952795A795F0405395C9F722
:104560007EF41F16BA0B620B730B840BBAF09150DA
:10457000A1F0FF0FBB1F661F771F881FC2F70EC079
:10458000BA0F621F731F841F48F48795779567954C
:10459000B795F7959E3F08F0B3CF9395880F08F035
:1045A0009927EE0F979587950895D9D008F481E063
:1045B00008950CD00FC107D140F0FED030F021F4A7
:1045C0005F3F19F0F0C0511139C1F3C014D198F315
:1045D0009923C9F35523B1F3951B550BBB27AA2784
:1045E00062177307840738F09F5F5F4F220F331FF6
:1045F000441FAA1FA9F333D00E2E3AF0E0E830D0C2
:1046000091505040E695001CCAF729D0FE2F27D0C4
:10461000660F771F881FBB1F261737074807AB0792
:10462000B0E809F0BB0B802DBF01FF2793585F4F07
:104630002AF09E3F510568F0B6C000C15F3FECF321
:10464000983EDCF3869577956795B795F7959F5FCC
:10465000C9F7880F911D9695879597F90895E1E020
:10466000660F771F881FBB1F621773078407BA077F
:1046700020F0621B730B840BBA0BEE1F88F7E095DA
:10468000089504D06894B111D9C00895BCD088F0C1
:104690009F5790F0B92F9927B751A0F0D1F0660F2E
:1046A000771F881F991F1AF0BA95C9F712C0B13049
:1046B00081F0C3D0B1E00895C0C0672F782F88275C
:1046C000B85F39F0B93FCCF3869577956795B39588
:1046D000D9F73EF490958095709561957F4F8F4FF7
:1046E0009F4F0895E89409C097FB3EF490958095FC
:1046F000709561957F4F8F4F9F4F9923A9F0F92FA8
:1047000096E9BB279395F695879577956795B79525
:10471000F111F8CFFAF4BB0F11F460FF1BC06F5F0B
:104720007F4F8F4F9F4F16C0882311F096E911C01D
:10473000772321F09EE8872F762F05C0662371F03E
:1047400096E8862F70E060E02AF09A95660F771F52
:10475000881FDAF7880F9695879597F90895990F2E
:104760000008550FAA0BE0E8FEEF16161706E8073B
:10477000F907C0F012161306E407F50798F0621B5C
:10478000730B840B950B39F40A2661F0232B242B31
:10479000252B21F408950A2609F4A140A6958FEF50
:1047A000811D811D089597F99F6780E870E060E0A2
:1047B00008959FEF80EC089500240A9416161706BA
:1047C00018060906089500240A9412161306140602
:1047D00005060895092E0394000C11F4882352F065
:1047E000BB0F40F4BF2B11F460FF04C06F5F7F4F1D
:1047F0008F4F9F4F089557FD9058440F551F59F004
:104800005F3F71F04795880F97FB991F61F09F3FBD
:1048100079F087950895121613061406551FF2CFE6
:104820004695F1DF08C0161617061806991FF1CF36
:1048300086957105610508940895E894BB2766275D
:104840007727CB0197F908950BD0C4CFB5DF28F0B7
:10485000BADF18F0952309F0A6CFABCF1124EECF25
:10486000CADFA0F3959FD1F3950F50E0551F629FCB
:10487000F001729FBB27F00DB11D639FAA27F00DB9
:10488000B11DAA1F649F6627B00DA11D661F829FE0
:104890002227B00DA11D621F739FB00DA11D621FC5
:1048A000839FA00D611D221F749F3327A00D611DE2
:1048B000231F849F600D211D822F762F6A2F1124C4
:1048C0009F5750408AF0E1F088234AF0EE0FFF1F17
:1048D000BB1F661F771F881F91505040A9F79E3F4E
:1048E000510570F060CFAACF5F3FECF3983EDCF348
:1048F000869577956795B795F795E7959F5FC1F78B
:10490000FE2B880F911D9695879597F9089527DFBF
:10491000880B990B08950E946730FC01918D228DC0
:10492000892F90E0805C9F4F821B91098F7399279C
:104930000895FC01918D828D981731F0828DE80FDA
:10494000F11D858D90E008958FEF9FEF0895FC0194
:10495000918D828D981761F0828DDF01A80FB11DB6
:104960005D968C91928D9F5F9F73928F90E00895DA
:104970008FEF9FEF08958AE096E2892B41F080E067
:1049800090E0892B21F046D181110C94000008950C
:10499000FC01848DDF01A80FB11DA35ABF4F2C91DC
:1049A000848D90E001968F739927848FA689B789AB
:1049B0002C93A089B1898C9180648C93938D848D84
:1049C000981306C00288F389E02D80818F7D808353
:1049D0000895CF93DF93EC01888D8823C1F0EA8995
:1049E000FB89808185FD05C0A889B9898C9186FDE8
:1049F0000EC00FB607FCF5CF808185FFF2CFA889E6
:104A0000B9898C9185FFEDCFCE01C2DFE8CFDF9170
:104A1000CF910895EF92FF920F931F93CF93DF935F
:104A2000EC0181E0888F9B8D8C8D981305C0E889FF
:104A3000F989808185FD23C0F62E0B8D10E00F5F74
:104A40001F4F0F731127E02E8C8DE8120BC00FB68D
:104A500007FCFACFE889F989808185FFF5CFCE017F
:104A600097DFF2CF8B8DFE01E80FF11DE35AFF4F68
:104A7000F0820B8FEA89FB898081806207C0EE8912
:104A8000FF896083E889F98980818064808381E07F
:104A900090E0DF91CF911F910F91FF90EF900895DB
:104AA000CF92DF92EF92FF921F93CF93DF93EC01AF
:104AB0006A017B01122FE889F98982E08083411520
:104AC000514E61057105A9F060E079E08DE390E059
:104AD000A701960103D7DA01C9010197A109B1091C
:104AE000B695A79597958795AC01411580E1580734
:104AF000A0F0E889F989108260E874E88EE190E01E
:104B0000A7019601EBD6BA01A901415051096109EB
:104B100071097695679557954795EC85FD85508386
:104B2000EE85FF854083188EEC89FD891083EA8924
:104B3000FB89808180618083EA89FB89808188602C
:104B40008083EA89FB89808180688083EA89FB8988
:104B500080818F7D8083DF91CF911F91FF90EF90B7
:104B6000DF90CF9008951F920F920FB60F921124ED
:104B70002F938F939F93EF93FF93E091D004F09145
:104B8000D1048081E091D604F091D70482FD12C057
:104B900090818091D9048F5F8F732091DA048217FE
:104BA00051F0E091D904F0E0E054FB4F958F8093F1
:104BB000D90401C08081FF91EF919F918F912F9136
:104BC0000F900FBE0F901F9018951F920F920FB667
:104BD0000F9211242F933F934F935F936F937F9383
:104BE0008F939F93AF93BF93EF93FF9380EC94E0E9
:104BF000CFDEFF91EF91BF91AF919F918F917F9108
:104C00006F915F914F913F912F910F900FBE0F9039
:104C10001F90189580EC94E080DE21E0892B09F448
:104C200020E0822F0895E0ECF4E01382128288EEF7
:104C300093E0A0E0B0E084839583A683B78383EB01
:104C400091E09183808385EC90E09587848784EC64
:104C500090E09787868780EC90E0918B808B81EC49
:104C600090E0938B828B82EC90E0958B848B86EC2A
:104C700090E0978B868B118E128E138E148E089572
:104C8000089533D2FDDFC9DBCBEBD4E2F3DB209711
:104C9000E9F371DEFBCFCF92DF92EF92FF920F9399
:104CA0001F93CF93DF936C017A018B01C0E0D0E0BA
:104CB000CE15DF0589F0D8016D918D01D601ED91FA
:104CC000FC910190F081E02DC6010995892B11F42A
:104CD0007E0102C02196ECCFC701DF91CF911F91D9
:104CE0000F91FF90EF90DF90CF90089561157105BF
:104CF00079F0FB0101900020E9F73197AF01461BE5
:104D0000570BDC01ED91FC910280F381E02D0994B9
:104D100080E090E00895EF92FF920F931F93CF935E
:104D2000DF938C017B01C0E0D0E0F701EC0FFD1FA9
:104D30006491662361F0D801ED91FC910190F081BE
:104D4000E02DC8010995892B11F02196EECFCE01F7
:104D5000DF91CF911F910F91FF90EF900895DC01AB
:104D6000ED91FC91DB0114964D915C9115976D913D
:104D70007C910280F381E02D0994DC01ED91FC919E
:104D80000190F081E02D09946FEB71E0AFCF0F93AC
:104D90001F93CF93DF93EC01BEDF8C01CE01F4DFD4
:104DA000800F911FDF91CF911F910F9108950F9365
:104DB0001F93CF93DF93EC01D2DF8C01CE01E4DFB0
:104DC000800F911FDF91CF911F910F9108958F92C6
:104DD0009F92AF92BF92CF92DF92EF92FF920F938A
:104DE0001F93CF93DF93CDB7DEB7A1970FB6F8949B
:104DF000DEBF0FBECDBF7C01D42EC52EDB0119A2B4
:104E0000223008F42AE08E010F5D1F4F822E912C74
:104E1000A12CB12C6D2D7C2DCD01A50194015ED569
:104E2000D22EC32EDA01015011096A3071058105B5
:104E3000910510F4605D01C0695CF8016083232B6B
:104E4000242B252B39F7B801C70150DFA1960FB6E7
:104E5000F894DEBF0FBECDBFDF91CF911F910F91B0
:104E6000FF90EF90DF90CF90BF90AF909F908F908A
:104E70000895CF92DF92EF92FF920F931F93CF93FB
:104E8000DF93EC016A017B012115310579F4E8819A
:104E9000F9810190F081E02D642FDF91CF911F9176
:104EA0000F91FF90EF90DF90CF9009942A30310559
:104EB000D9F477FF18C06DE260DF8C0144275527D5
:104EC000BA014C195D096E097F092AE0CE017FDF26
:104ED000800F911FDF91CF911F910F91FF90EF9065
:104EE000DF90CF9008952AE0B701A601CE01DF91AF
:104EF000CF911F910F91FF90EF90DF90CF9067CFF0
:104F00000F931F93CF93DF93EC019A01AB01770FBF
:104F1000660B770BAEDF8C01CE0136DF800F911F61
:104F2000DF91CF911F910F9108952115310541F423
:104F3000DC01ED91FC910190F081E02D642F09944A
:104F400046CF0F931F93CF93DF93EC019A01462F27
:104F500050E060E070E0E9DF8C01CE0115DF800FEA
:104F6000911FDF91CF911F910F9108951F920F9282
:104F70000FB60F9211242F933F938F939F93AF936C
:104F8000BF9380915E0590915F05A0916005B091FF
:104F9000610530915D0523E0230F2D3720F4019644
:104FA000A11DB11D05C026E8230F0296A11DB11D4C
:104FB00020935D0580935E0590935F05A093600547
:104FC000B09361058091620590916305A09164059D
:104FD000B09165050196A11DB11D80936205909366
:104FE0006305A0936405B0936505BF91AF919F9150
:104FF0008F913F912F910F900FBE0F901F9018959A
:105000002FB7F89460915E0570915F0580916005FF
:10501000909161052FBF08953FB7F8948091620584
:1050200090916305A0916405B091650526B5A89B94
:1050300005C02F3F19F00196A11DB11D3FBFBA2F2A
:10504000A92F982F8827820F911DA11DB11DBC018A
:10505000CD0142E0660F771F881F991F4A95D1F74F
:1050600008958F929F92AF92BF92CF92DF92EF926C
:10507000FF926B017C01D0DF4B015C01C114D104B4
:10508000E104F104F1F029D4C7DFDC01CB01881978
:105090009909AA09BB09883E9340A105B10570F39F
:1050A00021E0C21AD108E108F10888EE880E83E0F9
:1050B000981EA11CB11CC114D104E104F10421F714
:1050C000DDCFFF90EF90DF90CF90BF90AF909F909B
:1050D0008F9008958230910538F0880F991F880FBE
:1050E000991F05970197F1F70895789484B5826028
:1050F00084BD84B5816084BD85B5826085BD85B57C
:10510000816085BDEEE6F0E0808181608083E1E82A
:10511000F0E0108280818260808380818160808362
:10512000E0E8F0E0808181608083E1EBF0E0808165
:1051300084608083E0EBF0E0808181608083EAE737
:10514000F0E08081846080838081826080838081C0
:10515000816080838081806880831092C10008957F
:105160008E3008F08E5087702091140190E4299FB2
:1051700090011124822B80937C0080917A008064BE
:1051800080937A0080917A0086FDFCCF8091780030
:105190002091790090E0922B0895833081F028F4DB
:1051A000813099F08230A1F008958730A9F08830DD
:1051B000B9F08430D1F4809180008F7D03C080915C
:1051C00080008F7780938000089584B58F7702C028
:1051D00084B58F7D84BD08958091B0008F7703C022
:1051E0008091B0008F7D8093B0000895CF93DF93BE
:1051F00090E0FC01E359FB4F2491FC01EF57FB4F7A
:105200008491882361F190E0880F991FFC01E75594
:10521000FB4FC591D491FC01E156FB4FA591B49190
:10522000611109C09FB7F8948881209582238883F3
:10523000EC912E230BC0623061F49FB7F894388153
:10524000822F809583238883EC912E2B2C939FBFF4
:1052500006C08FB7F894E8812E2B28838FBFDF918B
:10526000CF9108951F93CF93DF93282F30E0F9015A
:10527000E75AFB4F8491F901E359FB4FD491F901AF
:10528000EF57FB4FC491CC23C1F0162F811185DF5E
:10529000EC2FF0E0EE0FFF1FE156FB4FA591B4910C
:1052A0008FB7F894111105C09C91ED2FE095E9237B
:1052B00002C0EC91ED2BEC938FBFDF91CF911F914A
:1052C0000895CF93DF93282F30E0F901E75AFB4F81
:1052D0008491F901E359FB4FD491F901EF57FB4F4A
:1052E000C491CC2389F0811158DFEC2FF0E0EE0F50
:1052F000FF1FEB56FB4FA591B491EC91ED2381E09C
:1053000090E021F480E002C080E090E0DF91CF9156
:105310000895FC018081918129C4CF93DF93EC0132
:1053200088819981009709F021D4198218821D8201
:105330001C821B821A82DF91CF9108950F931F93D5
:10534000CF93DF93EC018B016F5F7F4F8881998151
:10535000A5D4009731F0998388831B830A8381E069
:1053600001C080E0DF91CF911F910F910895CF93FD
:10537000DF93EC0188819981892B29F08A819B81B7
:105380008617970758F4CE01D9DF882341F08C8126
:105390009D81892B19F4E881F981108281E0DF91E8
:1053A000CF910895EF92FF920F931F93CF93DF93C6
:1053B000EC017B018A01BA01DADF811103C0CE0161
:1053C000ACDF06C01D830C83B70188819981DED6CE
:1053D000CE01DF91CF911F910F91FF90EF90089533
:1053E000FC011182108213821282158214826115CF
:1053F000710549F0FB0101900020E9F73197AF01F9
:10540000461B570BCFCF0895CF93DF93EC01FB01E1
:105410008617970751F0608171816115710521F040
:1054200044815581BFDF01C078DFCE01DF91CF918C
:105430000895FC0111821082138212821582148257
:10544000E3CFCF93DF93EC016115710551F0FB01C0
:1054500001900020E9F73197AF01461B570BA2DFFF
:1054600001C05BDFCE01DF91CF9108950F931F93B1
:10547000CF93DF93CDB7DEB762970FB6F894DEBF58
:105480000FBECDBF8C01CB01F801118210821382B7
:1054900012821582148250E0BE016F5F7F4F8BD65F
:1054A000BE016F5F7F4FC801CCDF62960FB6F894E4
:1054B000DEBF0FBECDBFDF91CF911F910F91089539
:1054C0000F931F93CF93DF93CDB7DEB7A2970FB69D
:1054D000F894DEBF0FBECDBF8C01CB01BA01F8013D
:1054E00011821082138212821582148230E0AE0182
:1054F0004F5F5F4F74D6BE016F5F7F4FC801A1DF62
:10550000A2960FB6F894DEBF0FBECDBFDF91CF914C
:105510001F910F910895EF92FF920F931F93CF93D6
:10552000DF93CDB7DEB7A1970FB6F894DEBF0FBEFD
:10553000CDBF7C01CB01BA01F70111821082138229
:1055400012821582148242E0420F8E010F5F1F4FBC
:1055500059D2BC01C70175DFA1960FB6F894DEBF22
:105560000FBECDBFDF91CF911F910F91FF90EF90B4
:105570000895EF92FF920F931F93CF93DF93CDB7D0
:10558000DEB7A1970FB6F894DEBF0FBECDBF7C018A
:10559000CB01BA01F70111821082138212821582A7
:1055A000148242E0420F8E010F5F1F4F2BD2BC01CD
:1055B000C70147DFA1960FB6F894DEBF0FBECDBF7F
:1055C000DF91CF911F910F91FF90EF900895EF928F
:1055D000FF920F931F93CF93DF93FC0124813581BA
:1055E0006115710511F480E017C04115510599F05E
:1055F0007B01EC018A01020F131FB801B8DE88237A
:1056000091F3288139818C819D81B701820F931F8D
:10561000BDD51D830C8381E0DF91CF911F910F9148
:10562000FF90EF9008956115710549F0FB0101901D
:105630000020E9F73197AF01461B570BC8CF80E038
:105640000895CF93DF9300D0CDB7DEB769831A8278
:1056500041E050E0BE016F5F7F4FB9DF0F900F90C8
:10566000DF91CF910895CF93DF93EC01FB0144814B
:10567000558160817181ABDF811102C0CE014DDEA9
:10568000CE01DF91CF910895CF93DF93EC016115A7
:10569000710559F0FB0101900020E9F73197AF0146
:1056A000461B570B94DF811102C0CE0136DECE01BE
:1056B000DF91CF910895FC0124813581232B31F4B2
:1056C00021E06115710599F0FB0108C0FC018081A2
:1056D00091816115710531F421E0FC0180818823FD
:1056E00031F004C04AD521E0892B09F020E0822F57
:1056F0000895DB011496ED91FC911597DC01149649
:105700002D913C9115972E1B3F0B2417350798F0D0
:105710002D913C912115310571F0DB016D917C914A
:105720006115710541F0CA01AF01820F931F35D594
:1057300021E0892B09F020E0822F0895FC014481AB
:105740005581FB01248135814217530718F040E051
:1057500050E0CFCF80E00895FC01248135816217AD
:10576000730748F480819181009729F0FC01E60FCE
:10577000F71F8081089580E00895EECFBF92CF9209
:10578000DF92EF92FF920F931F93CF93DF937C01F1
:105790006B018A01E9012417350720F4812F890163
:1057A000C42FD82F61EC71E0C7011ADED601149620
:1057B0008D919C91159708171907C8F48C179D07B0
:1057C00008F4EC01D601ED91FC911197EC0FFD1F4F
:1057D000B08010824D915C91BA01600F711FC701BA
:1057E00030DED601ED91FC91EC0FFD1FB082C701B8
:1057F000DF91CF911F910F91FF90EF90DF90CF90AD
:10580000BF900895AF92BF92CF92DF92EF92FF9236
:105810000F931F93CF93DF93DC01CD90DC90119712
:10582000C114D104D9F11496CD91DC91159720972C
:10583000A9F18C0156017501BFEFAB1ABB0AF70144
:10584000808190E071D4892BB1F72197CC0DDD1DBB
:10585000888190E069D4892B89F4AE014F5F5F4F56
:105860004E195F09D80115965C934E931497CE1488
:10587000DF0448F4B701C60177D405C0CE15DF05B3
:1058800060F32197E5CFD801ED91FC911197149623
:105890008D919C911597E80FF91F1082DF91CF91A0
:1058A0001F910F91FF90EF90DF90CF90BF90AF903E
:1058B0000895FC0180819181009709F00FC460E098
:1058C00070E0CB010895FC0180819181009709F07F
:1058D00002C460E070E0CB0108950895A1E21A2EA1
:1058E000AA1BBB1BFD010DC0AA1FBB1FEE1FFF1F84
:1058F000A217B307E407F50720F0A21BB30BE40BD4
:10590000F50B661F771F881F991F1A9469F760951A
:105910007095809590959B01AC01BD01CF010895D4
:10592000052E97FB16F400940FD057FD05D0D6DF57
:1059300007FC02D046F408C050954095309521955B
:105940003F4F4F4F5F4F08959095809570956195AB
:105950007F4F8F4F9F4F0895EE0FFF1F0590F491DB
:10596000E02D099440D0A59F900DB49F900DA49F69
:10597000800D911D112408952F923F924F925F92B6
:105980006F927F928F929F92AF92BF92CF92DF924F
:10599000EF92FF920F931F93CF93DF93CDB7DEB7B4
:1059A000CA1BDB0B0FB6F894DEBF0FBECDBF099448
:1059B0002A88398848885F846E847D848C849B849F
:1059C000AA84B984C884DF80EE80FD800C811B81AD
:1059D000AA81B981CE0FD11D0FB6F894DEBF0FBEDC
:1059E000CDBFED010895A29FB001B39FC001A39F59
:1059F000700D811D1124911DB29F700D811D112408
:105A0000911D0895EF920F931F93CF93DF93E801B9
:105A100047FD02C034E001C034E1E42F440FFF0B26
:105A2000F7FF03C0F195E195F109E32E022F2E2F28
:105A3000AE013CD4CE01DF91CF911F910F91EF9039
:105A40000895CF93DF938230910510F482E090E0C7
:105A5000E0916805F091690520E030E0C0E0D0E019
:105A6000309711F14081518148175907C0F048170C
:105A7000590761F482819381209719F09B838A836F
:105A80002BC0909369058093680526C021153105C8
:105A900019F04217530718F49A01BE01DF01EF0114
:105AA0000280F381E02DDCCF2115310509F1281B9F
:105AB000390B2430310590F412968D919C911397F7
:105AC0006115710521F0FB019383828304C09093DB
:105AD000690580936805FD01329644C0FD01E20F1F
