:1000000041C2000067C2000065C20000ECC60000EB
:10001000EAC60000E8C600005DC200005BC2000046
:1000200059C2000057C2000055C2000053C2000070
:1000300051C200004FC200004DC200004BC2000080
:100040000C94E22A47C200000C94EC280C941E2960
:1000500041C200003FC200003DC200003BC20000A0
:100060001DC3000037C200007A047E047E047E04B3
:100070007E047E047E047E047F037E047E047E0470
:100080007E047E047E047E047F037E047E047E0460
:100090007E047E047E047E0488037E047E047E0447
:1000A0007E047E047E047E04B3037E047E047E040C
:1000B0007E047E047E047E0488037E047E047E0427
:1000C0007E047E047E047E04B8037E047E047E04E7
:1000D0007E047E047E047E04BD037E047E047E04D2
:1000E0007E047E047E047E04D2037E047E047E04AD
:1000F0007E047E047E047E04FF037E047E047E0470
:100100007E047E047E047E04C2037E047E047E049C
:100110007E047E047E047E04DE037E047E047E0470
:100120007E047E047E047E0401047E047E047E043C
:100130007E047E047E047E0401047E047E047E042C
:100140007E047E047E047E0401047E047E047E041C
:100150007E047E047E047E0401047E047E047E040C
:100160007E047E047E047E0409047E047E047E04F4
:100170007E047E047E047E0440047E047E047E04AD
:100180007E047E047E047E0409047E047E047E04D4
:100190007E047E047E047E0440047E047E047E048D
:1001A0007E047E047E047E0423047E047E047E049A
:1001B0007E047E047E047E0443047E047E047E046A
:1001C0007E047E047E047E0443047E047E047E045A
:1001D0007E047E047E047E0459047E047E047E0434
:1001E0007E047E047E047E0475047E047E047E0408
:1001F0007E047E047E047E0475047E047E047E04F8
:100200007E047E047E047E047E047E047E047E04DE
:100210007E047E047E047E047E047E047E047E04CE
:100220007E047E047E047E047E047E047E047E04BE
:100230007E047E047E047E047E047E047E047E04AE
:100240007E047E047E047E047E047E047E047E049E
:100250007E047E047E047E047E044E414E494E4957
:100260005459494E46CDCCCC3D0AD7233C17B7D183
:100270003877CC2B329595E6241FB14F0A00002029
:10028000410000C84200401C4620BCBE4CCA1B0EA8
:100290005AAEC59D7400407A10F35A00A0724E18F1
:1002A000090010A5D4E80000E87648170000E40B28
:1002B00054020000CA9A3B000000E1F505000080EE
:1002C000969800000040420F000000A08601000048
:1002D00000102700000000E8030000000064000098
:1002E0000000000A00000000000100000000002CD7
:1002F00076D888DC674F0823DFC1DFAE59E1B1B79C
:1003000096E5E3E453C63AE651997696E8E6C28468
:1003100026EB898C9B62ED407C6FFCEFBC9C9F4080
:10032000F2BAA56FA5F490055A2AF75C936B6CF9A5
:10033000676DC11BFCE0E40D47FEF520E6B500D07B
:10034000ED902E0300943577050080841E08000090
:10035000204E0A000000C80C333333330F986E125E
:10036000831141EF8D2114893BE65516CFFEE6DB64
:1003700018D1844B381BF77C1D901DA4BBE42420AE
:100380003284725E228100C9F124ECA1E53D272070
:10039000202020202020202020202020202020007D
:1003A0004572726F72206E756D62657220666F7233
:1003B0002074686520617272617920746F206176A3
:1003C000726167696E67212F6E004572726F7220CD
:1003D0006E756D62657220666F722074686520614B
:1003E0007272617920746F206176726167696E67DD
:1003F000212F6E00556E6578706563746564206E9C
:10040000756D626572206F66206279746573207203
:10041000656365697665643A2000000000080002A3
:1004200001000003040700000000000000000102BA
:100430000408102040800102040810200102040872
:100440001020040404040404040402020202020250
:100450000303030303030000000023002600290018
:1004600000000000250028002B00000000002400F0
:1004700027002A00AB06490DAD241E25CC254C29AA
:10048000BB242C2511241FBECFEFD8E0DEBFCDBF8B
:1004900011E0A0E0B1E0ECE1FCE602C005900D92B5
:1004A000A43FB107D9F726E0A4EFB1E001C01D9247
:1004B000AE30B207E1F712E0C0E4D2E004C0219709
:1004C000FE010E94622FCA33D107C9F70E947A2920
:1004D0000C94023695CDA0E0B0E0E1E7F2E00C9498
:1004E000822F1092F40181E08093F6011092F701BF
:1004F00082E161E00E945E2C83E161E00E945E2C5B
:1005000089EB90E029EB30E0F90120812E7FFC019E
:10051000208389EB90E029EB30E0F90120812D7FE9
:10052000FC01208388EB90E028E4FC0120838CEB25
:1005300090E025E4FC012083E2E00C949E2FA1E0F2
:10054000B0E0E5EAF2E00C94822F89838AEB90E038
:100550002981220FFC0120832196E2E00C949E2F3A
:10056000A4E0B0E0E6EBF2E00C94822F9B838A8358
:100570006C838C81813210F081E023C08091F40182
:10058000843011F082E01DC08C8180933F0219827B
:1005900013C08981882F90E02981222F30E04A8181
:1005A0005B81240F351FF9012081825E9D4FFC0184
:1005B000208389818F5F898399818C81981748F383
:1005C00080E02496E2E00C949E2FA2E0B0E0EBEEF7
:1005D000F2E00C94822F9A83898389819A81909387
:1005E000FB018093FA012296E2E00C949E2FA2E098
:1005F000B0E0EDEFF2E00C94822F9A838983898139
:100600009A819093F9018093F8012296E2E00C948C
:100610009E2FA1E0B0E0EFE0F3E00C94822F8983FD
:100620008981882331F08CEB90E025ECFC0120835C
:1006300005C08CEB90E025E8FC0120832196E2E0E8
:100640000C949E2FA0E0B0E0E8E2F3E00C94822F3F
:100650008CEB90E025EDFC01208301C000008CEBC9
:1006600090E0FC018081882F90E080719927892B90
:10067000A9F71092F401E2E00C949E2FA0E0B0E004
:10068000E4E4F3E00C94822F8CEB90E025ECFC0189
:1006900020831092F401E2E00C949E2F1F920F929F
:1006A00000905F000F9211242F933F934F935F931D
:1006B0006F937F938F939F93AF93BF93EF93FF932A
:1006C000CF93DF93CDB7DEB789EB90E0FC0180815B
:1006D000882F90E0887F9927092E000CAA0BBB0B6E
:1006E00040E050E028EF30E0841B950B28173907D5
:1006F00008F404C18C5C9F4FFC010C94622F8BEBBF
:1007000090E02091F501FC01208381E082DFF6C0BA
:1007100090911C0280911D02981798F48BEB90E049
:1007200020911C0231E0320F30931C02222F30E066
:1007300024503E4FF9012081FC01208381E069DFD4
:1007400011C08091F601882311F07CDF0BC081E09D
:100750008093F7018CEB90E024EAFC012083109257
:10076000F401CCC0CBC080E2809361026BDFC6C0D5
:1007700080E38093610266DFC1C088E380936102F9
:100780007DDFBCC080911C0291E0980F90931C0209
:10079000882F90E02BEB30E0F901208184509E4FB0
:1007A000FC01208390911C0280911D02981718F47F
:1007B00081E02FDFA3C080E02CDFA0C080911C026D
:1007C00091E0980F90931C02882F90E02BEB30E083
:1007D000F901208184509E4FFC0120838091F60115
:1007E000882311F02FDF8AC081E08093F7018CEB22
:1007F00090E024EAFC0120831092F4017FC022DF04
:100800007DC083E08093F4011092600281E001DFFB
:1008100075C080916002803298F48091600291E00E
:10082000980F90936002882F90E02BEB30E0F90155
:100830002081805C9D4FFC01208381E0EADE5EC068
:1008400080E0E7DE5BC01ADF80916002803240F416
:1008500080916002882F90E0805C9D4FFC011082A7
:100860002091FA013091FB0180916002882F90E085
:10087000BC0180E492E0F9010995109260023EC04B
:1008800080E0C7DE3BC084E08093F40110923E021A
:1008900010923F028091F8019091F901FC010995B5
:1008A00080913F02882329F481E080933F021092D7
:1008B0001E028BEB90E020913E0231E0320F30932C
:1008C0003E02222F30E0225E3D4FF9012081FC01E3
:1008D000208390913E0280913F02981718F481E0A6
:1008E00098DE0CC080E095DE09C081E092DE1092B7
:1008F000F40104C010926102A5DE0000DF91CF91E7
:10090000FF91EF91BF91AF919F918F917F916F91E7
:100910005F914F913F912F910F9000925F000F9048
:100920001F901895A4E0B0E0E8E9F4E00C94822F61
:100930009A8389837C836B8389819A812B813C8113
:10094000FC01338322832496E2E00C949E2FA2E0E4
:10095000B0E0EDEAF4E00C94822F9A8389838981D8
:100960009A812FEE31E0FC013183208389819A81C5
:10097000FC01138212822296E2E00C949E2FA2E0E8
:10098000B0E0E5ECF4E00C94822F9A8389838981AE
:100990009A81DDDF89819A812AE631E0FC01318389
:1009A000208329813A8188EE93E0A0E0B0E0F9014C
:1009B00084839583A683B7832296E2E00C949E2FCE
:1009C000A2E0B0E0E6EEF4E00C94822F9A838983F3
:1009D00089819A81D4DF89819A812AE531E0FC01FD
:1009E000318320832296E2E00C949E2FA2E0B0E0B7
:1009F000ECEFF4E00C94822F9A83898310928202A8
:100A0000109283021092A4021092A50264DD229635
:100A1000E2E00C949E2FA3E0B0E0E1E1F5E00C945D
:100A2000822F9A8389836B838B8189DD80E596E0B1
:100A3000DEDD8AE096E0C9DD89819A81D7DF2396E1
:100A4000E2E00C949E2FA3E0B0E0E9E2F5E00C9424
:100A5000822F9A8389836B838091A6028823F9F081
:100A60008091A502803240F089819A8161E070E036
:100A700059DF80E090E019C08091A402882F90E0B7
:100A80002B818C579D4FFC0120838091A4028F5FA6
:100A90008093A4028091A4028093A50204C0CE0199
:100AA000039661E05DDD81E090E02396E2E00C9446
:100AB0009E2FA8E0B0E0EFE5F5E00C94822F9C8338
:100AC0008B837E836D8358874F838091A602882312
:100AD00029F11A8219821AC08B819C81FC018081C4
:100AE0009181FC01208131814D815E8189819A81D2
:100AF000840F951FFC0140818B819C81642FF9013B
:100B0000099589819A8101969A83898329813A81FD
:100B10008F81988528173907F8F205C02F818D81BC
:100B20009E81622F1DDD8F8198852896E2E00C94CE
:100B30009E2FA2E0B0E0EFE9F5E00C94822F9A83BB
:100B4000898380918302282F30E080918202882F50
:100B500090E0A901481B590BCA012296E2E00C94CF
:100B60009E2FA4E0B0E0E7EBF5E00C94822F9C838D
:100B70008B838FEF9FEF9A8389839091820280917C
:100B80008302981788F480918202882F90E08E5912
:100B90009D4FFC018081882F90E09A83898380910A
:100BA00082028F5F8093820289819A812496E2E09B
:100BB0000C949E2FA4E0B0E0E0EEF5E00C94822FC0
:100BC0009C838B838FEF9FEF9A838983909182021E
:100BD00080918302981760F480918202882F90E0C0
:100BE0008E599D4FFC018081882F90E09A838983E4
:100BF00089819A812496E2E00C949E2FA2E0B0E0D5
:100C0000E4E0F6E00C94822F9A8389832296E2E056
:100C10000C949E2FA5E0B0E0E0E1F6E00C94822F6A
:100C20009B838A837D836C838091A9029091AA0221
:100C3000892B09F431C09091820280918302981728
:100C400008F42AC0198213C08981882F90E0298175
:100C5000222F30E04A815B81240F351FF90120816A
:100C60008E599D4FFC01208389818F5F8983898103
:100C7000282F30E08C819D81281739072CF31092A2
:100C800082028C81809383022091A9023091AA0272
:100C90008C819D81F90109952596E2E00C949E2FA7
:100CA000A0E0B0E0E6E5F6E00C94822F8091A70288
:100CB0009091A802892B09F40AC01092A402109204
:100CC000A5028091A7029091A802FC010995E2E09B
:100CD0000C949E2FA4E0B0E0E0E7F6E00C94822FA5
:100CE0009A8389837C836B838B819C819093AA02F6
:100CF0008093A9022496E2E00C949E2FA4E0B0E039
:100D0000E4E8F6E00C94822F9A8389837C836B83DA
:100D10008B819C819093A8028093A7022496E2E0A5
:100D20000C949E2FA4E0B0E0E8E9F6E00C94822F4A
:100D30009A8389837C836B8389819A81019739F4B3
:100D40008B819C81019619F48BEA92E039DE24961E
:100D5000E2E00C949E2FA0E0B0E0E1EBF6E00C9412
:100D6000822F6FEF7FEF81E090E0DCDFE2E00C9418
:100D70009E2FA2E0B0E0EFEBF6E00C94822F898387
:100D80006A832296E2E00C949E2FA4E0B0E0EBECA4
:100D9000F6E00C94822F9C838B838B819C819A83B9
:100DA000898389819A810197F1F79A8389832496AF
:100DB000E2E00C949E2FA2E0B0E0E1EEF6E00C94AD
:100DC000822F9A83898389819A81FC018685978500
:100DD000FC01208189819A81FC01858582232296EC
:100DE000E2E00C949E2F1F920F9200905F000F92F2
:100DF00011242F933F934F935F936F937F938F9320
:100E00009F93AF93BF93EF93FF93CF93DF93CDB7B0
:100E1000DEB72B97DEBFCDBF8091B7029091B802AD
:100E2000892B09F4F4C08091B7029091B8029A839B
:100E300089831B8289819A81FC01868D8270882337
:100E400049F089819A81B7DF982F81E0992351F485
:100E500080E008C089819A81AEDF982F81E09923D4
:100E600009F080E0882309F4D2C089819A819D83AA
:100E70008C831E828E818823A1F08C819D81FC0150
:100E8000838994892C813D81F90123893489F90171
:100E900040812C813D81F9012589242BFC0120838F
:100EA00015C08C819D81FC01838994892C813D81B1
:100EB000F90123893489F9012081422F2C813D8158
:100EC000F901258920952423FC01208389819A81B9
:100ED000FC018689978959DF61E08DE04ADF88E06F
:100EE0008F831FC089819A81FC01808D918D4DDF98
:100EF0008B81882F90E0959587958B8361E08DE0BD
:100F000038DF89819A8157DF982F81E0992309F48E
:100F100080E0882319F08B8180688B838F818150DA
:100F20008F838F818823F1F689819A81FC01868DD8
:100F30008270882319F08B8180958B838091F902D0
:100F4000882F90E001968F739078992324F401976D
:100F5000806C9F6F019688879091FA0281E02885C6
:100F6000291709F480E0882369F08091F902882F1D
:100F700090E087549D4F2B81FC01208388858093CE
:100F8000F9020AC061E08BE0F4DE89819A81FC01FC
:100F9000268D2160FC01268F89819A81FC01828D3A
:100FA000938DF3DE61E08BE0E4DE89819A819A879C
:100FB000898781E08B878B858823A1F089859A8535
:100FC000FC018389948929853A85F901238934892B
:100FD000F901408129853A85F9012589242BFC01F5
:100FE000208315C089859A85FC0183899489298588
:100FF0003A85F90123893489F9012081422F298515
:101000003A85F901258920952423FC0120832B961C
:101010000FB6F894DEBF0FBECDBFDF91CF91FF9129
:10102000EF91BF91AF919F918F917F916F915F9160
:101030004F913F912F910F9000925F000F901F9062
:1010400018958F92AF92CF92EF920F93CF93DF9339
:10105000CDB7DEB728970FB6F894DEBF0FBECDBF71
:101060009A8389836B834C832D830E83EF82C8869A
:1010700089819A816CDC89819A812AE731E0FC01BF
:101080003183208389819A811F921F921F921F9220
:101090008884AF80CE80ED800C812FEF4B8161E0A2
:1010A00012D00F900F900F900F9028960FB6F894D3
:1010B000DEBF0FBECDBFDF91CF910F91EF90CF90EC
:1010C000AF908F9008958F92AF92CF92EF920F933F
:1010D000CF93DF93CDB7DEB72A970FB6F894DEBF74
:1010E0000FBECDBF9A8389836B834C832D830E8380
:1010F000EF82C886A9868A8689819A812C81FC0123
:10110000248389819A812D81FC01258389819A819B
:101110002E81FC01268389819A812F81FC012783FE
:1011200089819A812885FC01208789819A81298576
:10113000FC01218789819A812A85FC012287898186
:101140009A812C89FC01238789819A812D89FC0150
:10115000248789819A812E89FC01258789819A813A
:101160002F89FC0126878B81882329F089819A8128
:10117000FC01178605C089819A8120E1FC0127873F
:1011800089819A8120E041E060E10ED02A960FB675
:10119000F894DEBF0FBECDBFDF91CF910F91EF90DE
:1011A000CF90AF908F900895A7E0B0E0EAEDF8E01F
:1011B0000C94802F9C838B836D834E832F838E8131
:1011C000823050F08B819C81FC018785282F28601C
:1011D0008B819C81FC0127878B819C812E81FC0166
:1011E000238B8D81882F90E0AC01405C5F4F8D8117
:1011F000282F30E08B819C818A0140E450E060E040
:1012000070E0E7D08F81882369F08E81813051F4BE
:101210008B819C81FC018785282F24608B819C8198
:10122000FC0127878B819C81FC01848161E00E9405
:10123000222C8B819C81FC0185818F3F39F08B8131
:101240009C81FC01858161E00E94222C8B819C8124
:10125000FC01868161E00E94222C1A82198211C051
:101260002B813C8189819A81820F931F0796FC0113
:10127000808161E00E94222C89819A8101969A8363
:1012800089838B819C81FC018785882F90E0807108
:101290009927892B19F088E090E002C084E090E063
:1012A00029813A8128173907DCF280E593EC0E9406
:1012B000962B8B819C81FC01848160E00E945E2CD6
:1012C0008B819C81FC01868160E00E945E2C8B8179
:1012D0009C81FC0185818F3F39F08B819C81FC01D1
:1012E000858160E00E945E2C8B819C81FC0187855A
:1012F000882F90E080719927892BE9F48B819C815C
:1013000063E091D184E991E10E94962B8B819C81CD
:1013100063E089D184E991E10E94962B8B819C81C5
:1013200063E081D186E990E00E94962B8B819C81BD
:1013300062E079D126C08B819C81FC018785282FB2
:1013400020628B819C81622FD6D084E991E10E943A
:10135000962B8B819C81FC018785282F20628B81B5
:101360009C81622FC8D086E990E00E94962B8B81E9
:101370009C81FC018785282F20628B819C81622FB4
:10138000BAD08B819C81FC018785282F20628B81BC
:101390009C81622FB0D08B819C8124E0FC01208B4A
:1013A0008B819C8188D08B819C813BD08B819C815F
:1013B00022E0FC01218B8B819C81FC018189282FFB
:1013C00024608B819C81622F96D02796E4E00C9458
:1013D0009C2FAAE0B0E0EFEEF9E00C94802F9A8306
:1013E00089837C836B835E834D8338872F831A8741
:1013F00009872B8189819A81FC01248B2D81898128
:101400009A81FC01258B2F8189819A81FC01268B91
:10141000298589819A81FC01278B2A96E4E00C9426
:101420009C2FA2E0B0E0E7E1FAE00C94822F9A83CF
:10143000898389819A8161E05ED080ED97E00E9486
:10144000962B2296E2E00C949E2FA6E0B0E0EBE211
:10145000FAE00C94822F9C838B836D834E8384E00F
:1014600090E09A8389838E81843010F083E08E83AC
:101470008B819C81FC0193898E81891730F08B814F
:101480009C81FC01838981508E838E81882F90E01E
:101490002B813C81820F931F4496FC0190818D81AA
:1014A000890F8068282F8B819C81622F24D02696FB
:1014B000E2E00C949E2FA2E0B0E0E1E6FAE00C94AA
:1014C000822F9A83898389819A81FC018089282FC0
:1014D000246089819A81FC01208B89819A81FC0199
:1014E0008089282F286089819A81622F04D02296D2
:1014F000E2E00C949E2FA3E0B0E0E1E8FAE00C9467
:10150000822F9A8389836B8389819A8140E06B81E2
:1015100018D02396E2E00C949E2FA3E0B0E0E3E91C
:10152000FAE00C94822F9A8389836B8389819A8154
:1015300041E06B8106D081E090E02396E2E00C94DC
:101540009E2FA4E0B0E0E7EAFAE00C94822F9A83A1
:1015500089836B834C8389819A81FC0184816C81AE
:101560000E945E2C89819A81FC0185818F3F39F030
:1015700089819A81FC01858160E00E945E2C8981CD
:101580009A81FC018785882F90E080719927892BAB
:1015900029F089819A816B8179D014C08B81882F41
:1015A00090E09595879595958795959587959595CF
:1015B0008795282F89819A81622F35D089819A81D8
:1015C0006B8131D02496E2E00C949E2FA2E0B0E033
:1015D000ECEEFAE00C94822F9A83898389819A81B8
:1015E000FC01868160E00E945E2C81E090E00E9418
:1015F000962B89819A81FC01868161E00E945E2C94
:1016000081E090E00E94962B89819A81FC0186817D
:1016100060E00E945E2C84E690E00E94962B229669
:10162000E2E00C949E2FA5E0B0E0E9E1FBE00C9431
:10163000822F9C838B836D831A8219821CC08D81BB
:10164000882F90E0098002C0959587950A94E2F76B
:10165000482F41702B813C8189819A81820F931F91
:101660000796FC018081642F0E945E2C89819A81FB
:1016700001969A83898389819A81049704F38B81E7
:101680009C81A4DF2596E2E00C949E2FA5E0B0E0BB
:10169000ECE4FBE00C94822F9C838B836D831A8295
:1016A00019821CC08D81882F90E0098002C0959519
:1016B00087950A94E2F7482F41702B813C818981FC
:1016C0009A81820F931F0796FC018081642F0E94EC
:1016D0005E2C89819A8101969A83898389819A8176
:1016E000089704F38B819C8171DF2596E2E00C94CE
:1016F0009E2FA4E0B0E0EFE7FBE00C94822F9A83EA
:1017000089837C836B832B813C8189819A81B90198
:1017100004D02496E2E00C949E2FA4E0B0E0E3E92C
:10172000FBE00C94822F9A8389837C836B838B816B
:101730009C819C012F5F3F4F89819A81B90150D0D4
:10174000882359F089819A816BD09C018B819C817F
:10175000820F931F0E94E33501C080E02496E2E0EF
:101760000C949E2FA5E0B0E0E8EBFBE00C94822FF8
:101770009A8389837C836B834D832B813C81898110
:101780009A814D81B90104D02596E2E00C949E2FF8
:10179000A5E0B0E0EEECFBE00C94822F9A83898305
:1017A0007C836B834D838B819C819C012F5F3F4F9A
:1017B00089819A81B90114D0882369F089819A813D
:1017C0002FD09C018B819C81820F931F6D810E9481
:1017D000F43581E001C080E02596E2E00C949E2F74
:1017E000A4E0B0E0E6EFFBE00C94802F9A838983BD
:1017F0007C836B8389819A8113D09C018B819C812E
:101800008901080F191F89819A811BD021E00817CF
:10181000190708F020E0822F2496E4E00C949C2F16
:10182000A2E0B0E0E6E1FCE00C94822F9A83898389
:1018300089819A81FC01808191812296E2E00C9459
:101840009E2FA2E0B0E0E7E2FCE00C94822F9A83A6
:10185000898389819A81FC01828193812296E2E0C9
:101860000C949E2FA0E0B0E0E8E3FCE00C94822F03
:101870008BEF92E0FC018081882351F460E070E0FE
:1018800085E093E07BD08BEF92E021E0FC012083A8
:1018900085E093E0E2E00C949E2FA2E0B0E0E3E567
:1018A000FCE00C94822F9A8389832296E2E00C94C8
:1018B0009E2FA2E0B0E0EFE5FCE00C94822F9A832B
:1018C00089832296E2E00C949E2FA2E0B0E0EBE642
:1018D000FCE00C94822F9A8389832296E2E00C9498
:1018E0009E2FA2E0B0E0E7E7FCE00C94822F9A8301
:1018F000898389819A8122E831E0FC013183208348
:10190000B1DF9C0189819A81FC0133832283898123
:101910009A81FC01158214822296E2E00C949E2F9B
:10192000A2E0B0E0E6E9FCE00C94822F9A83898380
:1019300089819A8122E831E0FC013183208380E0B3
:1019400090E0892B21F089819A810E948529229635
:10195000E2E00C949E2FA2E0B0E0E1EBFCE00C94FE
:10196000822F9A83898389819A81DADF89819A819A
:101970000E9485292296E2E00C949E2FA4E0B0E01C
:10198000E4ECFCE00C94822F9A8389837C836B8344
:1019900089819A812B813C81FC01318320830AD08B
:1019A0009C0189819A81FC01338322832496E2E0A1
:1019B0000C949E2FA0E0B0E0E0EEFCE00C94822FAF
:1019C00080E094E0E2E00C949E2FA6E0B0E0EBEE25
:1019D000FCE00C94822F9A8389837C836B835E83E3
:1019E0004D838B819C819C012C5F3F4F89819A8123
:1019F000B901F6DE982F81E08927882311F080E075
:101A000009C04D815E812B813C8189819A81B90118
:101A100005D081E02696E2E00C949E2FA6E0B0E08F
:101A2000E4E1FDE00C94822F9A8389837C836B83AD
:101A30005E834D8389819A81F3DE9C018B819C8139
:101A4000820F931F9C018D819E8144E050E0B9017B
:101A50000E94D3352696E2E00C949E2FA4E0B0E0DD
:101A6000E4E3FDE00C94822F9A8389837C836B836B
:101A700089819A81019749F48B819C81019629F48F
:101A8000F1DE90930403809303032496E2E00C9428
:101A90009E2FA0E0B0E0EFE4FDE00C94822F6FEF0A
:101AA0007FEF81E090E0DADFE2E00C949E2FA0E08F
:101AB000B0E0EDE5FDE00C94822F0E942C2BDC01C0
:101AC000CB01BC01CD01E2E00C949E2FA8E0B0E078
:101AD000ECE6FDE00C94822F98878F838F819885A8
:101AE00020E931E0FC0131832083E1DFDC01CB011F
:101AF0008B839C83AD83BE831A8219823DC02F8164
:101B0000388589819A81820F931F82579F4FFC01EC
:101B100010822F81388589819A814596880F991F77
:101B2000820F931FFC01118210822F8138858981D9
:101B30009A81880F991F880F991F820F931F9C010C
:101B40002E5F3F4F8B819C81AD81BE81F9018083E7
:101B50009183A283B3832F81388589819A81CD9621
:101B6000880F991F820F931FFC01118210828981B7
:101B70009A8101969A83898389819A810A970CF4C4
:101B8000BECF8F81988584559F4FFC0111821082B2
:101B90002896E2E00C949E2FA8E0B0E0E2EDFDE094
:101BA0000C947E2F98878F8382DFDC01CB018B839F
:101BB0009C83AD83BE831A82198225C12F8138850B
:101BC00089819A81845B9F4F880F991F820F931F91
:101BD000FC01118210822F81388589819A81459676
:101BE000880F991F820F931FFC0180819181892B9F
:101BF00009F404C12F81388589819A81880F991F42
:101C0000880F991F820F931F0296FC01808191819A
:101C1000A281B3812B813C814D815E8179018A0152
:101C2000E81AF90A0A0B1B0BD801C7014F81588526
:101C300029813A81220F331F220F331F240F351FB2
:101C4000225C3F4FF901208131814281538182170B
:101C50009307A407B50708F4D1C02F81388589817F
:101C60009A81880F991F880F991F820F931F0296E0
:101C7000FC0180819181A281B3814F8158852981A6
:101C80003A81220F331F220F331F240F351F225C8E
:101C90003F4FF9012081318142815381820F931F8F
:101CA000A41FB51F4F81588529813A81220F331F08
:101CB000220F331F240F351F2E5F3F4FF901808302
:101CC0009183A283B3832F81388589819A81820F82
:101CD000931F82579F4FFC018081882309F48EC097
:101CE0002F81388589819A81C396880F991F820F29
:101CF000931FFC0180819181892B81F42F8138858C
:101D000089819A81845B9F4F880F991F820F931F4F
:101D100021E030E0FC013183208370C02F813885C1
:101D200089819A81CD96880F991F820F931FFC019C
:101D3000208131814F81588589819A81C396880F8E
:101D4000991F840F951FFC01808191812817390705
:101D50000CF054C02F81388589819A81845B9F4F14
:101D6000880F991F820F931F21E030E0FC0131831F
:101D700020832F81388589819A81CD96880F991F7C
:101D8000820F931FFC01808191819C012F5F3F4F47
:101D90004F81588589819A81CD96880F991F840F2C
:101DA000951FFC01318320832F81388589819A8199
:101DB000CD96880F991F820F931FFC0120813181DE
:101DC0004F81588589819A81C396880F991F840F06
:101DD000951FFC0180819181281739077CF02F81A4
:101DE000388589819A81845B9F4F880F991F820F64
:101DF000931F22E030E0FC013183208389819A81A6
:101E000001969A83898389819A810A970CF4D6CEA8
:101E10001A82198246C02F81388589819A81845B14
:101E20009F4F880F991F820F931FFC018081918122
:101E30008130910519F0029781F02EC02F813885ED
:101E400089819A814596880F991F820F931FFC0103
:101E500080819181FC0109951FC02F81388589817E
:101E60009A814596880F991F820F931FFC018081EC
:101E70009181FC0109958F819885FC018081918178
:101E80000896FC012081318149815A818F81988592
:101E9000BA01F9010995000089819A8101969A8316
:101EA000898389819A810A970CF4B5CF2896E6E058
:101EB0000C949A2FA4E0B0E0E0E6FFE00C94822FAF
:101EC0009C838B838B819C8184559F4FFC018081F7
:101ED00091810A971CF08FEF9FEF1FC01A82198221
:101EE00016C02B813C8189819A814596880F991F64
:101EF000820F931FFC0180819181892B19F48981C4
:101F00009A810BC089819A8101969A8389838981FC
:101F10009A810A9734F38FEF9FEF2496E2E00C94B6
:101F20009E2FACE0B0E0E7E9FFE00C94802F9C83AB
:101F30008B834D835E836F8378873A8729871C87DD
:101F40000B878B819C81B6DF9A83898389819A81F3
:101F500099231CF48FEF9FEF6BC089859A85892B9D
:101F600019F48FEF9FEF64C02B813C8189819A81A6
:101F7000880F991F880F991F820F931F9C01225C65
:101F80003F4F8D819E81AF81B885F9018083918318
:101F9000A283B3832B813C8189819A814596880FE6
:101FA000991F820F931F29853A85FC013183208375
:101FB0002B813C8189819A81C396880F991F820F5A
:101FC000931F2B853C85FC01318320832B813C8131
:101FD00089819A81820F931F82579F4F21E0FC01D4
:101FE000208365DDDC01CB014B815C8129813A8155
:101FF000220F331F220F331F240F351F2E5F3F4F39
:10200000F90180839183A283B3838B819C81845562
:102010009F4FFC01808191819C012F5F3F4F8B81FD
:102020009C8184559F4FFC013183208389819A8153
:102030002C96E4E00C949C2FA8E0B0E0E2E2F0E102
:102040000C947E2F9A8389834B835C836D837E837C
:1020500038872F8389819A81DC018D919C91069626
:10206000DC01ED91FC912F8138858B819C81AD81C4
:10207000BE81E980FA8000E010E0AC01BD01C7013B
:1020800009952896E6E00C949A2FA8E0B0E0EBE4DE
:10209000F0E10C947E2F9A8389834B835C836D835C
:1020A0007E8338872F8389819A81DC018D919C9171
:1020B0000696DC01ED91FC912F8138858B819C8106
:1020C000AD81BE81E980FA8001E010E0AC01BD0184
:1020D000C70109952896E6E00C949A2FA4E0B0E099
:1020E000E4E7F0E10C94822F9A8389837C836B83ED
:1020F0008B819C810A970CF069C089819A818455F3
:102100009F4FFC0180819181892B09F45FC0298157
:102110003A818B819C814596880F991F820F931F6E
:10212000FC0180819181892B09F450C029813A8179
:102130008B819C814596880F991F820F931FFC010C
:102140001182108229813A818B819C81820F931F99
:1021500082579F4FFC01108229813A818B819C819B
:10216000845B9F4F880F991F820F931FFC01118280
:10217000108229813A818B819C81880F991F880F59
:10218000991F820F931FCE96FC011082118212823A
:10219000138229813A818B819C81CD96880F991F6A
:1021A000820F931FFC011182108289819A818455CC
:1021B0009F4FFC01808191819C01215031098981CF
:1021C0009A8184559F4FFC01318320832496E2E05D
:1021D0000C949E2FA4E0B0E0E0EFF0E10C94822F8D
:1021E0009A8389837C836B838B819C810A970CF013
:1021F00014C05DDCDC01CB0149815A812B813C811B
:10220000220F331F220F331F240F351F2E5F3F4F26
:10221000F90180839183A283B3832496E2E00C9436
:102220009E2FA4E0B0E0E7E1F1E10C94822F9A83C5
:1022300089837C836B838B819C810A9714F080E077
:102240000AC029813A818B819C81820F931F82571A
:102250009F4FFC0180812496E2E00C949E2FA4E025
:10226000B0E0E5E3F1E10C94822F9A8389837C83CB
:102270006B838B819C810A970CF00BC029813A817A
:102280008B819C81820F931F82579F4F21E0FC011D
:1022900020832496E2E00C949E2FA4E0B0E0E3E5D6
:1022A000F1E10C94822F9A8389837C836B838B81E9
:1022B0009C810A970CF00AC029813A818B819C810C
:1022C000820F931F82579F4FFC0110822496E2E0F9
:1022D0000C949E2FCF92EF920F93CF93DF9300D069
:1022E000CDB7DEB79A83898389819A810F2EF7E073
:1022F000CF2EF02D0F2EF6E0EF2EF02D05E024E08E
:1023000049E068E00E94210889819A8126EA31E04B
:10231000FC013183208389819A8108D00F900F902E
:10232000DF91CF910F91EF90CF900895A2E0B0E0B0
:10233000ECE9F1E10C94822F9A83898389819A8157
:1023400020E042E060E10E94D40889819A8169D846
:1023500089819A8140E060E078D82296E2E00C948E
:102360009E2FA4E0B0E0E7EBF1E10C94822F9A837A
:1023700089837C836B832B8189819A81422F60E0E2
:1023800064D82FE833E089819A81B9010E94C62977
:102390002496E2E00C949E2FA6E0B0E0E2EDF1E19D
:1023A0000C94822F9A8389837C836B835E834D8315
:1023B0002B813C8189819A81B901D3DF2B8189816D
:1023C0009A81422F60E041D889819A812D813E8196
:1023D000B9010E94EA292696E2E00C949E2FA2E021
:1023E000B0E0E5EFF1E10C94822F9A838983898133
:1023F0009A81FC01808191812296E2E00C949E2FCB
:10240000A4E0B0E0E6E0F2E10C94822F9A838983A5
:102410007C836B8389819A812B813C81B9010E94E5
:102420001C2D2496E2E00C949E2FA4E0B0E0EBE19A
:10243000F2E10C94822F9A8389837C836B838B8156
:102440009C812496E2E00C949E2FA4E0B0E0EBE2A5
:10245000F2E10C94822F9A8389837C836B83898138
:102460009A812FEE31E0FC01318320838B819C81A6
:10247000FC012281338189819A81FC01338322838B
:102480002496E2E00C949E2FA4E0B0E0EAE4F2E1AE
:102490000C94822F9A8389837C836B832B813C816C
:1024A00089819A81B901D1DF89819A812AE731E056
:1024B000FC01318320838B819C81FC0124818981F3
:1024C0009A81FC0124838B819C81FC012581898177
:1024D0009A81FC0125838B819C81FC012681898165
:1024E0009A81FC01268389819A812B813C8148E075
:1024F000F9013796DC01179601900D924A95E1F7A4
:102500008B819C81FC01278589819A81FC01278729
:102510008B819C81FC01208989819A81FC01208B1F
:102520008B819C81FC01218989819A81FC01218B0D
:102530008B819C81FC01228989819A81FC01228BFB
:102540008B819C81FC01238989819A81FC01238BE9
:1025500029813A818B819C81FC0184899589A68996
:10256000B789F901848B958BA68BB78B2496E2E013
:102570000C949E2FA4E0B0E0E0ECF2E10C94822FEA
:102580009A8389837C836B832B813C8189819A81A7
:10259000B9017ADF89819A8126EA31E0FC01318331
:1025A00020832496E2E00C949E2FAAE0B0E0EBEDAD
:1025B000F2E10C94802F9B838A837D836C835F83FD
:1025C0004E8328871A8709878A819B818AD98A81C5
:1025D0009B812EEA31E0FC01318320838A819B813B
:1025E0002C813D81FC01348723878A819B81835A1A
:1025F0009F4FFC01118210828A819B81815A9F4FDB
:102600002E813F81FC0131832083CE01019696D536
:102610008A819B818F599F4F9E012F5F3F4FB90148
:10262000A5D5CE01019696D58A819B8188599F4F69
:10263000FC01118210828A819B818A589F4F2885D4
:10264000FC0120838A819B8189589F4F29853A8587
:10265000B90190DF8A819B8181579F4F6DE071E0C6
:102660000E941C2D8A819B818B569F4F6DE071E0EB
:102670000E941C2D8A819B8185569F4F63E070E0EC
:102680003DD58A819B8104D02A96E4E00C949C2F4E
:10269000A6E0B0E0EEE4F3E10C94812F9E838D83FD
:1026A00061E08DE00E94222C8D819E8185569F4F96
:1026B000D1D58D819E8185569F4FF1D5FC018081BA
:1026C0009181A281B38111E09C01AD01BC01CD01DA
:1026D0000E94C027882309F410E0112389F080E0CC
:1026E00090E0A0E4B0E489839A83AB83BC838D81BE
:1026F0009E8185569F4F9E012F5F3F4FB901DED5CA
:102700002696E3E00C949D2FA6E0B0E0EAE8F3E122
:102710000C94822F9A8389834B835C836D837E83A1
:1027200089819A8185569F4F9E012D5F3F4FB90148
:10273000C5D589819A8185569F4F60E0DDD5269663
:10274000E2E00C949E2FAEE0B0E0E9EAF3E10C94F5
:10275000822F9E878D878D859E8586599F4FFC0190
:1027600080819181A281B381FE01379622E0AC0184
:10277000BD01CF010E94622DCE01079630DE9C0183
:102780008D859E8581579F4FB9010E944D2DCE01A9
:1027900007960E94B52C8D859E8582599F4FFC011E
:1027A00080819181A281B38122E0AC01BD01CE0183
:1027B00001960E94622DCE01019611DE9C018D854D
:1027C0009E858B569F4FB9010E944D2DCE010196DB
:1027D0000E94B52C8D859E8586599F4FFC01808176
:1027E0009181A281B381BC01CD012E96E2E00C94CF
:1027F0009E2FA1E1B0E0EFEFF3E10C947E2F998BD7
:10280000888B88899989D1D0DC01CB0128893989C5
:1028100026593F4FF90180839183A283B38389E0D6
:1028200093E0FC018081882389F40E942C2BDC0139
:10283000CB018093210390932203A0932303B093B1
:10284000240389E093E021E0FC0120830E942C2BEB
:102850009B01AC018091210390912203A09123035D
:10286000B091240379018A01E81AF90A0A0B1B0BBB
:10287000D801C70121E081369A4EA105B10508F4BF
:1028800020E0222309F48DC08CE390E09A838983B1
:10289000888999898F599F4F69D59C838B832B8118
:1028A0003C8189819A8182179307BCF08889998934
:1028B00086599F4FFC0180819181A281B3818C87D1
:1028C0009D87AE87BF87888999898F599F4F9E01C1
:1028D000245F3F4FB9015BD527C088899989885902
:1028E0009F4FFC0180819181AC014F5F5F4F288930
:1028F000398928593F4FF901518340839C018889C8
:1029000099898F599F4FB9015CD59C018889998914
:1029100086599F4FFC0180819181A281B381F90189
:1029200080839183A283B3838889998988599F4F33
:10293000FC012081318189819A812817390739F476
:102940008889998988599F4FFC0111821082888952
:1029500099899C012F593F4FCE010596B9014CD55D
:102960009E012B5F3F4F88899989B901DCD1DC0139
:10297000CB012889398922593F4FF90180839183FE
:10298000A283B383CE01059622D40E942C2BDC01B6
:10299000CB018093210390932203A0932303B09350
:1029A00024036196E6E00C949A2FACE0B0E0EBEDE6
:1029B000F4E10C947C2F9C878B8781E193E0FC01F0
:1029C0008081882389F40E942C2BDC01CB01809329
:1029D000250390932603A0932703B093280381E156
:1029E00093E021E0FC0120830E942C2B9B01AC0191
:1029F0008091250390912603A0912703B09128038D
:102A000079018A01E81AF90A0A0B1B0BD801C701E0
:102A100021E0893E9340A105B10508F420E022237E
:102A200009F4AFC088E290E09A8389838B859C8506
:102A3000835A9F4FFC010081118198012F5F3F4F06
:102A40008B859C85835A9F4FFC01318320838B8526
:102A50009C85FC01838594850E94DC2BAC012B8531
:102A60003C85C801880F991F820F931F0D96FC01AA
:102A7000518340838B859C85835A9F4FFC01208125
:102A8000318189819A812817390739F48B859C8592
:102A9000835A9F4FFC01118210828B859C859C017B
:102AA000235F3F4F49815A818B859C85B9019AD11B
:102AB000DC01CB018B839C83AD83BE8320E030E0BF
:102AC00040EA50E46B817C818D819E810E945D276C
:102AD000DC01CB0120E030E040E854E4BC01CD0152
:102AE0000E944326DC01CB012B853C852E583F4FAD
:102AF000F90180839183A283B3838B859C858E5853
:102B00009F4FFC0180819181A281B3819C01AD0125
:102B100060E070E080E290E40E94DA25DC01CB0105
:102B20002CEE31E548E35EE3BC01CD010E94432673
:102B3000DC01CB0120E030E040EE50E4BC01CD01EF
:102B40000E94DB25DC01CB016C017D018B859C851E
:102B500085569F4FA4D3FC0180819181A281B381CE
:102B60009C01AD01C701B6010E94DB25DC01CB0150
:102B70008F839887A987BA878F819885A985BA8519
:102B800009C08B859C8586599F4FFC01808191816E
:102B9000A281B381BC01CD012C96E8E00C94982F62
:102BA000A2E0B0E0E6EDF5E10C94822F9A838983F0
:102BB00089819A810E94B52C2296E2E00C949E2F86
:102BC000AEE1B0E0E6EEF5E10C94822F9E8F8D8FA2
:102BD0008D8D9E8DB8DDDC01CB0189839A83AB831B
:102BE000BC8389E193E0FC018081882389F40E9401
:102BF0002C2BDC01CB018093290390932A03A09313
:102C00002B03B0932C0389E193E021E0FC012083A6
:102C10000E942C2B9B01AC018091290390912A03E7
:102C2000A0912B03B0912C03281B390B4A0B5B0B93
:102C30008D8D9E8D815A9F4FFC018081918180579F
:102C40009E4F092E000CAA0BBB0B61E08217930765
:102C5000A407B50708F060E0662309F460C08D8D15
:102C60009E8D8A589F4FFC018081882309F441C0C2
:102C700089819A81AB81BC81FE01719622E0AC0111
:102C8000BD01CF010E94902DCE010B966EE071E048
:102C9000B7DB9E012F5E3F4FCE010B96B9010E941C
:102CA0000A2E9C01CE014796B9010E94452DCE0106
:102CB0000B9676DFCE0141960E94B52C9E01295ECF
:102CC0003F4FCE010596B9010E94452D8D8D9E8DF9
:102CD00089589F4F9E012B5F3F4FA90160E070E034
:102CE0005BDBCE0105960E94B52CCE0147960E9473
:102CF000B52C8DE00E948D2C982F81E08927682FBC
:102D00008DE00E945E2C0E942C2BDC01CB01809375
:102D1000290390932A03A0932B03B0932C036E9660
:102D2000E2E00C949E2FAEE0B0E0E9E9F6E10C940D
:102D3000802F9C878B877E876D8719821A821B82E2
:102D40001C821E821D821EC02D813E818D859E8526
:102D5000B90137D3FC0180819181A281B3819C01AB
:102D6000AD0169817A818B819C810E94DB25DC0128
:102D7000CB0189839A83AB83BC838D819E8101962D
:102D80009E838D830D811E818D859E85EFD221E0EE
:102D90000817190708F020E02223B1F68D859E85DB
:102DA000E5D2CC01A0E0B0E0BC01CD010E94AB2691
:102DB000DC01CB019C01AD0169817A818B819C8111
:102DC0000E944326DC01CB018F839887A987BA87AD
:102DD0008F819885A985BA85BC01CD012E96E4E046
:102DE0000C949C2FCF92DF92EF92FF92CF93DF93C0
:102DF000CDB7DEB768970FB6F894DEBF0FBECDBF74
:102E0000988B8F877A8B698B5C8B4B8B1F82188694
:102E100019861A868B899C89181619065CF080EA37
:102E200093E0BC0182E695E00E94032A80E090E0F6
:102E3000DC012BC18B899C8905970CF049C01A8253
:102E4000198220C089819A81880F991F29893A891E
:102E5000820F931FFC0180819181092E000CAA0B27
:102E6000BB0B2F81388549855A85820F931FA41F7C
:102E7000B51F8F839887A987BA8789819A81019620
:102E80009A83898329813A818B899C8928173907FC
:102E9000CCF28B899C899C01990F440B550B8F8137
:102EA0009885A985BA85BC01CD010E94462FDA011B
:102EB000C901BC01CD010E94AD26DC01CB018B878D
:102EC0009C87AD87BE878B859C85AD85BE85DDC023
:102ED00089899A89FC012081318189899A890296A0
:102EE000FC0180819181281739077CF489899A89AE
:102EF000FC01808191819E838D8389899A89FC015F
:102F0000828193819C838B830EC089899A89FC017D
:102F1000828193819E838D8389899A89FC01808136
:102F200091819C838B8382E090E09A83898380C027
:102F300089819A81880F991F29893A89820F931F65
:102F4000FC01208131818D819E812817390704F58C
:102F50008D819E81092E000CAA0BBB0B2F81388519
:102F600049855A85820F931FA41FB51F8F839887A9
:102F7000A987BA8789819A81880F991F29893A89F7
:102F8000820F931FFC01808191819E838D834BC0B2
:102F900089819A81880F991F29893A89820F931F05
:102FA000FC01208131818B819C818217930704F57C
:102FB0008B819C81092E000CAA0BBB0B2F813885BD
:102FC00049855A85820F931FA41FB51F8F83988749
:102FD000A987BA8789819A81880F991F29893A8997
:102FE000820F931FFC01808191819C838B831BC086
:102FF00089819A81880F991F29893A89820F931FA5
:10300000FC0180819181092E000CAA0BBB0B2F8142
:10301000388549855A85820F931FA41FB51F8F835A
:103020009887A987BA8789819A8101969A8389832B
:1030300029813A818B899C89281739070CF478CF2C
:103040006F81788589859A850E94AD266B017C0108
:103050008B899C890297092E000CAA0BBB0BBC0123
:10306000CD010E94AD26DC01CB019C01AD01C70161
:10307000B6010E944326DC01CB018B879C87AD877C
:10308000BE878B859C85AD85BE85BC01CD016896CC
:103090000FB6F894DEBF0FBECDBFDF91CF91FF908A
:1030A000EF90DF90CF900895A6E0B0E0EAE5F8E178
:1030B0000C94822F9A8389837C836B835E834D83F8
:1030C0008B819C819C012C5F3F4F89819A81B90142
:1030D0000E94F00B982F81E08927882311F080E06F
:1030E00009C04D815E812B813C8189819A81B90122
:1030F000F0D181E02696E2E00C949E2FA4E0B0E0AF
:10310000E4E8F8E10C94822F9A8389837C836B83B3
:103110000E94320C9C0189819A81FC0131832083B9
:1031200089819A812B813C81FC01338322838981AF
:103130009A8190D02496E2E00C949E2FA2E0B0E019
:10314000E4EAF8E10C94822F9A8389832296E2E0E4
:103150000C949E2FA2E0B0E0E0EBF8E10C94822FFB
:103160009A8389832296E2E00C949E2FA4E0B0E03B
:10317000ECEBF8E10C94822F9A8389837C836B8338
:1031800089819A81FC011182108289819A8128E0CB
:1031900030E0FC013383228389819A81FC0115820E
:1031A000148289819A81FC012281338189819A81EB
:1031B000069640E050E0B901ADD19C0189819A8129
:1031C000FC01318320832496E2E00C949E2FA4E03E
:1031D000B0E0EDEEF8E10C94822F9C838B831A8291
:1031E000198217C08B819C81FC01208131818981EA
:1031F0009A81880F991F880F991F280F391F8B817B
:103200009C810696B9019ED189819A8101969A8303
:1032100089838B819C81FC012481358189819A81FC
:1032200082179307F8F28B819C81FC0142815381C4
:103230008B819C81FC01208131818B819C81069650
:10324000B9018ED18B819C81069684DF2496E2E0C1
:103250000C949E2FA2E0B0E0E0E3F9E10C94802F03
:103260009A83898389819A81FC0180819181892B4C
:1032700091F089819A818C010C5F1F4F89819A811D
:1032800083D19C0189819A81FC0180819181A8016F
:10329000B9010E94E50C2296E4E00C949C2FA2E078
:1032A000B0E0E5E5F9E10C94822F9A838983898166
:1032B0009A8104962296E2E00C949E2FA4E0B0E05E
:1032C000E4E6F9E10C94822F9A8389837C836B83F3
:1032D0008B819C81FC0180819181A281B3812981B4
:1032E0003A81F90184839583A683B78389819A8182
:1032F0002496E2E00C949E2FA3E0B0E0E2E8F9E12E
:103300000C94802F9A8389836B8389819A81FC0135
:1033100080819181892B31F18B81882391F0898182
:103320009A818C010C5F1F4F89819A812DD19C015C
:1033300089819A81FC0180819181A801B901B4DE63
:1033400011C089819A818C010C5F1F4F89819A81FC
:103350001BD19C0189819A81FC0180819181A80106
:10336000B90123D12396E4E00C949C2FA2E0B0E0B5
:10337000ECEBF9E10C94822F9A83898389819A81FD
:10338000FC01848195812296E2E00C949E2FA4E0BA
:10339000B0E0EDECF9E10C94822F9A8389837C8371
:1033A0006B8389819A81E2DF9C012F5F3F4F4B81C4
:1033B0005C8189819A81B9015AD12496E2E00C940A
:1033C0009E2FA4E0B0E0E7EEF9E10C94822F9A83FF
:1033D00089837C836B8389819A81FC01208131817F
:1033E0008B819C81880F991F880F991F820F931FD3
:1033F0002496E2E00C949E2FA6E0B0E0E2E0FAE131
:103400000C94822F9C838B837E836D838B819C8124
:10341000069694DE8D819E81FC01248135818B810D
:103420009C81FC01358324838B819C81FC018481F8
:1034300095819C01285F3F4F8B819C81FC013383E8
:1034400022838B819C81FC01228133818B819C8131
:10345000069640E050E0B9015DD09C018B819C81D3
:10346000FC01318320831A82198225C08D819E81BF
:10347000FC012081318189819A81880F991F880FF1
:10348000991FA901480F591F8B819C81FC01208144
:10349000318189819A81880F991F880F991F280F80
:1034A000391F8B819C810696B90145D189819A810A
:1034B00001969A8389838B819C81FC0124813581CB
:1034C00089819A818217930788F22696E2E00C940C
:1034D0009E2FA6E0B0E0EFE6FAE10C94822F9A83EB
:1034E00089837C836B835E834D8389819A810E946B
:1034F000100C9C018B819C81820F931F9C018D81FC
:103500009E8144E050E0B9010E94EB352696E2E04E
:103510000C949E2FA6E0B0E0E0E9FAE10C94822F33
:103520009A8389837C836B835E834D838B819C81AB
:10353000880F991F880F991F0E9484292696E2E020
:103540000C949E2FA4E0B0E0E8EAFAE10C94822FFC
:103550009A8389837C836B832496E2E00C949E2F6C
:10356000A6E0B0E0E6EBFAE10C94822F9A8389831F
:103570007C836B835E834D838B819C810E94852934
:103580002696E2E00C949E2FA2E0B0E0EAECFAE18D
:103590000C94822F9A83898389819A81FC0182818C
:1035A00093812296E2E00C949E2FACE0B0E0EBED2C
:1035B000FAE10C94822F98878F837A8769875C87DA
:1035C0004B8789859A859C012C5F3F4F8F81988519
:1035D000B9010E94F00B982F81E08927882319F008
:1035E00080E090E040C08B859C859A8389831C8213
:1035F0001B821E821D8231C029853A858F81988564
:10360000B9010E94790B282F89819A81FC01908150
:1036100081E0291709F480E0882381F089819A816B
:10362000FC01408129853A858F819885B9010E94E6
:10363000B20B8B819C8101969C838B8389859A85B3
:1036400001969A87898789819A8101969A838983CD
:103650008D819E8101969E838D838D819E810497AD
:1036600058F28B819C812C96E2E00C949E2FA8E06E
:10367000B0E0EDE3FBE10C94822F9C838B837E838F
:103680006D8358874F838B819C81FC012481358118
:103690008D819E812817390708F043C08B819C815A
:1036A000FC01228133818D819E812817390748F4DE
:1036B0008D819E819C01285F3F4F8B819C81B90148
:1036C00061D08B819C81FC01848195819A8389835F
:1036D00019C08B819C81FC012081318189819A8173
:1036E000880F991F880F991F280F391F8B819C8184
:1036F00006964F815885B9011ED089819A8101961D
:103700009A83898329813A818D819E81281739077F
:1037100000F38B819C812D813E81FC0135832483C4
:1037200006C02D813E818B819C81B901B2D0289643
:10373000E2E00C949E2FA6E0B0E0E1EAFBE10C94FD
:10374000822F9A8389837C836B835E834D838B81F5
:103750009C81BC0184E090E00E9415129C0121151F
:10376000310561F08D819E81FC0180819181A28172
:10377000B381F90180839183A283B3832696E2E02B
:103780000C949E2FAAE0B0E0E8ECFBE10C94822FB1
:1037900098878F837A8769878F819885FC0122813A
:1037A000338189859A852817390708F06EC08F8183
:1037B0009885FC01808191819C838B838F81988582
:1037C000FC01828193819E838D838F8198852985D9
:1037D0003A85FC01338322838F819885FC01228105
:1037E00033818F819885069640E050E0B90192DEE2
:1037F0009C018F819885FC01318320831A82198274
:1038000031C089819A81880F991F880F991F2B8158
:103810003C81A901480F591F8F819885FC012081A7
:10382000318189819A81880F991F880F991F280FEC
:10383000391F8F8198850696B9017DDF89819A812C
:10384000880F991F880F991F2B813C81280F391FE2
:103850008F8198850696B90175DE89819A810196D6
:103860009A8389838F819885FC01248135818981A0
:103870009A818217930728F28F81988506964D8149
:103880005E812B813C81B9016BDE2A96E2E00C94CB
:103890009E2FA6E0B0E0EFE4FCE10C94822F9C8325
:1038A0008B837E836D838B819C81FC012481358198
:1038B0008D819E818217930768F58D819E819A8301
:1038C000898317C08B819C81FC0120813181898192
:1038D0009A81880F991F880F991F280F391F8B8194
:1038E0009C810696B9012EDE89819A8101969A8380
:1038F00089838B819C81FC012481358189819A8116
:1039000082179307F8F28B819C812D813E81FC0107
:10391000358324832696E2E00C949E2FA2E0B0E04B
:10392000E4E9FCE10C94822F9A83898389819A814E
:103930002EEA31E0FC013183208389819A818B5604
:103940009F4F0E94B52C89819A8181579F4F0E9479
:10395000B52C89819A818F599F4F39DC89819A8151
:103960000E94900C80E090E0892B21F089819A815F
:103970000E9485292296E2E00C949E2FA2E0B0E0FE
:10398000E4ECFCE10C94822F9A83898389819A81EB
:10399000C5DF89819A810E9485292296E2E00C94F4
:1039A0009E2FA9E0B0E0E7EDFCE10C94802F9A8314
:1039B00089837C836B835E834D832F83198708877C
:1039C00089819A810E94710C89819A812CEB31E066
:1039D000FC013183208389819A812B813C81FC0108
:1039E0003487238789819A81835A9F4FFC011182F2
:1039F000108289819A81815A9F4F2D813E81FC01DD
:103A00003183208389819A8187599F4F2F81FC01BF
:103A1000208389819A8186599F4F28853985B901EC
:103A20000E94BA1289819A818E579F4F63E171E09B
:103A30000E941C2D89819A8188579F4F63E171E014
:103A40000E941C2D89819A8182579F4F6AEB74E0F6
:103A500055DB89819A8104D02996E4E00C949C2F4F
:103A6000A6E0B0E0E6E3FDE10C94812F9E838D8318
:103A700061E08DE00E94222C8D819E8182579F4FB4
:103A8000E9DB8D819E8182579F4F09DCFC0180819B
:103A90009181A281B38111E09C01AD01BC01CD01F6
:103AA0000E94C027882309F410E0112389F080E0E8
:103AB00090E4A7E9B4E489839A83AB83BC838D81C6
:103AC0009E8182579F4F9E012F5F3F4FB901F6DBCA
:103AD0002696E3E00C949D2FA6E0B0E0E2E7FDE13E
:103AE0000C94822F9A8389834B835C836D837E83BE
:103AF00089819A8182579F4F9E012D5F3F4FB90167
:103B0000DDDB89819A8182579F4F60E0F5DB269645
:103B1000E2E00C949E2FAEE0B0E0E1E9FDE10C9410
:103B2000822F9E878D878D859E858F599F4FFC01A3
:103B300080819181A281B381FE01379622E0AC01A0
:103B4000BD01CF010E94622DCE0107960E94EF11A8
:103B50009C018D859E858E579F4FB9010E944D2DEA
:103B6000CE0107960E94B52C8D859E858B599F4F5F
:103B7000FC0180819181A281B38122E0AC01BD0171
:103B8000CE0101960E94622DCE0101960E94EF1196
:103B90009C018D859E8588579F4FB9010E944D2DB0
:103BA000CE0101960E94B52C8D859E858F599F4F21
:103BB000FC0180819181A281B381BC01CD012E964F
:103BC000E2E00C949E2FAEE1B0E0E9EEFDE10C9452
:103BD000822F9E8F8D8F8D8D9E8D9DDFDC01CB0181
:103BE00089839A83AB83BC838DE293E0FC0180815F
:103BF000882389F40E942C2BDC01CB0180933D03A8
:103C000090933E03A0933F03B09340038DE293E073
:103C100021E0FC0120830E942C2B9B01AC018091B0
:103C20003D0390913E03A0913F03B0914003281BB8
:103C3000390B4A0B5B0B8D8D9E8D815A9F4FFC017A
:103C40008081918180579E4F092E000CAA0BBB0BDF
:103C500061E082179307A407B50708F060E06623C8
:103C600009F463C08D8D9E8D87599F4FFC01808123
:103C7000882309F444C089819A81AB81BC81FE010B
:103C8000719622E0AC01BD01CF010E94902DCE01C2
:103C90000B9664E171E00E9400129E012F5E3F4F7F
:103CA000CE010B96B9010E940A2E9C01CE014796C7
:103CB000B9010E94452DCE010B960E94D015CE0170
:103CC00041960E94B52C9E01295E3F4FCE0105967C
:103CD000B9010E94452D8D8D9E8D86599F4F9E0165
:103CE0002B5F3F4FA90161E070E00E94CC11CE0133
:103CF00005960E94B52CCE0147960E94B52C8DE00A
:103D00000E948D2C982F81E08927682F8DE00E94DA
:103D10005E2C0E942C2BDC01CB0180933D03909301
:103D20003E03A0933F03B09340036E96E2E00C94F1
:103D30009E2FA4E1B0E0EFE9FEE10C94822F9C8B72
:103D40008B8B8B899C896DD0DC01CB0189839A8315
:103D5000AB83BC8381E090E09E838D8318861F82B5
:103D600032C08F8198858C599F4F9A878987898522
:103D70009A85092E000CAA0BBB0BBC01CD010E9439
:103D80005D2B8B899C894DD0DC01CB018B879C8777
:103D9000AD87BE872B853C854D855E8569817A819F
:103DA0008B819C8108D7DC01CB0189839A83AB830B
:103DB000BC838D819E8101969E838D838F819885A2
:103DC000019698878F838F8198850B9754F28D8108
:103DD0009E81092E000CAA0BBB0BBC01CD01BDD7E7
:103DE000DC01CB019C01AD0169817A818B819C81D1
:103DF0004AD7DC01CB018F87988BA98BBA8B8B8933
:103E00009C899C012F593F4F8F859889A989BA8930
:103E1000F90180839183A283B3836496E2E00C94DA
:103E20009E2FA0E1B0E0E7E1FFE10C947E2F988B9C
:103E30008F8785E393E0FC018081882389F40E94C9
:103E40002C2BDC01CB018093410390934203A09380
:103E50004303B093440385E393E021E0FC01208316
:103E60000E942C2B9B01AC01809141039091420355
:103E7000A0914303B091440379018A01E81AF90A39
:103E80000A0B1B0BD801C70121E08F369105A10554
:103E9000B10508F420E0222309F477C088E290E01D
:103EA0009A8389838F859889835A9F4FFC0100816B
:103EB000118198012F5F3F4F8F859889835A9F4FBB
:103EC000FC01318320838F859889FC01838594854B
:103ED0000E94DC2BAC012F853889C801880F991FFF
:103EE000820F931F0D96FC01518340838F85988923
:103EF000835A9F4FFC012081318189819A81281743
:103F0000390739F48F859889835A9F4FFC011182B4
:103F100010828F8598899C01235F3F4F49815A8188
:103F20008F859889B90140D0DC01CB018B839C83BC
:103F3000AD83BE8320E030E040EA5BE36B817C81AF
:103F40008D819E81BAD7DC01CB018F839887A987A9
:103F5000BA878F85988982579F4FA1D9FC018081AC
:103F60009181A281B3812F81388549855A85BC0111
:103F7000CD01A3D7DC01CB018B879C87AD87BE87A2
:103F80008B859C85AD85BE8509C08F8598898F59A5
:103F90009F4FFC0180819181A281B381BC01CD0141
:103FA0006096E6E00C949A2FCF92DF92EF92FF9208
:103FB000CF93DF93CDB7DEB768970FB6F894DEBF27
:103FC0000FBECDBF988B8F877A8B698B5C8B4B8BA9
:103FD0001F82188619861A868B899C8918161906DD
:103FE0005CF08AEC93E0BC0182E695E00E94032A33
:103FF00080E090E0DC0127C18B899C8905970CF05B
:1040000048C01A82198220C089819A81880F991F1D
:1040100029893A89820F931FFC0180819181092EA1
:10402000000CAA0BBB0B2F81388549855A85820F5E
:10403000931FA41FB51F8F839887A987BA8789818B
:104040009A8101969A83898329813A818B899C89F7
:1040500028173907CCF28B899C899C01990F440B56
:10406000550B8F819885A985BA85BC01CD010E9429
:10407000462FDA01C901BC01CD016FD6DC01CB01AD
:104080008B879C87AD87BE878B859C85AD85BE85DC
:10409000DAC089899A89FC012081318189899A89CC
:1040A0000296FC0180819181281739077CF4898967
:1040B0009A89FC01808191819E838D8389899A8967
:1040C000FC01828193819C838B830EC089899A89AC
:1040D000FC01828193819E838D8389899A89FC0169
:1040E000808191819C838B8382E090E09A83898395
:1040F00080C089819A81880F991F29893A89820F06
:10410000931FFC01208131818D819E812817390701
:1041100004F58D819E81092E000CAA0BBB0B2F810B
:10412000388549855A85820F931FA41FB51F8F8339
:104130009887A987BA8789819A81880F991F2989C9
:104140003A89820F931FFC01808191819E838D8328
:104150004BC089819A81880F991F29893A89820FDA
:10416000931FFC01208131818B819C8182179307F1
:1041700004F58B819C81092E000CAA0BBB0B2F81AF
:10418000388549855A85820F931FA41FB51F8F83D9
:104190009887A987BA8789819A81880F991F298969
:1041A0003A89820F931FFC01808191819C838B83CC
:1041B0001BC089819A81880F991F29893A89820FAA
:1041C000931FFC0180819181092E000CAA0BBB0B6F
:1041D0002F81388549855A85820F931FA41FB51FEB
:1041E0008F839887A987BA8789819A8101969A8354
:1041F000898329813A818B899C89281739070CF496
:1042000078CF6F81788589859A85A7D56B017C01E8
:104210008B899C890297092E000CAA0BBB0BBC0151
:10422000CD019BD5DC01CB019C01AD01C701B601DD
:104230002AD5DC01CB018B879C87AD87BE878B8518
:104240009C85AD85BE85BC01CD0168960FB6F894FE
:10425000DEBF0FBECDBFDF91CF91FF90EF90DF901B
:10426000CF900895A2E0B0E0E8E3F1E20C94822F51
:104270009A83898389819A812CEB31E0FC01318317
:10428000208389819A8188579F4F0E94B52C89810C
:104290009A818E579F4F0E94B52C89819A810E94E6
:1042A000900C80E090E0892B21F089819A810E9416
:1042B00085292296E2E00C949E2FA2E0B0E0E3E68E
:1042C000F1E20C94822F9A83898389819A81CADFD3
:1042D00089819A810E9485292296E2E00C949E2F82
:1042E000A2E0B0E0E6E7F1E20C94822F9A838983A2
:1042F00089819A81FC01848195812296E2E00C9467
:104300009E2FA4E0B0E0E7E8F1E20C94822F9A83BC
:1043100089837C836B832B813C8189819A81B9015C
:104320000E94EA2D89819A812496E2E00C949E2FC6
:10433000A4E0B0E0EEE9F1E20C94822F9A83898345
:104340007C836B832B813C8189819A81B9010E9496
:104350001B2E2496E2E00C949E2FA0E0B0E0E3EB4D
:10436000F1E20C94822F6AE171E082E695E00E940E
:10437000F8294AE050E068E082E695E00E94CD2A04
:1043800068E08BEA92E00E940B0568EB72E28BEA30
:1043900092E00E947E0664ED71E28BEA92E00E9458
:1043A0006A06E2E00C949E2FA9E2B0E0EAEDF1E2A9
:1043B0000C94812F99A788A763E271E085E493E0CC
:1043C0000E944D2D63E271E081E593E00E944D2D46
:1043D00063E271E087E593E00E944D2D88A599A5E1
:1043E000449709F0B3C00AC08BEA92E00E94B1057D
:1043F0008983698185E493E00E94F82D8BEA92E03D
:104400000E94990521E0181619060CF020E02223DD
:1044100059F785E493E00E94C22ECE01469664E2ED
:1044200071E00E941C2DCE014696BC0185E493E00C
:104430000E945E2E11E0882309F410E0CE0146961A
:104440000E94B52C112339F065E473E081E593E017
:104450000E94302D89C065E473E087E593E00E94F7
:10446000302DCE01409667E573E00E94452DCE01C8
:104470004C96BE01605F7F4F20E030E04DE39AD163
:10448000CE0140960E94B52CCE010A9667E573E0F6
:104490000E94452DCE018296BE01665F7F4F21E0CE
:1044A00030E04DE387D1CE010A960E94B52CCE01B3
:1044B0004C9666E271E03CDF982F81E0992309F485
:1044C00080E08823B9F0CE0182960E94192FDC018A
:1044D000CB018A839B83AC83BD832091C80130913B
:1044E000C9018A819B81AC81BD81AC01BD01C9013B
:1044F000F3DA23C0CE014C9660E371E019DF982F08
:1045000081E0992309F480E08823B9F0CE018296F6
:104510000E94192FDC01CB018E839F83A887B98766
:104520002091C6013091C7018E819F81A885B985F0
:10453000AC01BD01C9010E948413CE0182960E9484
:10454000B52CCE014C960E94B52C0EC084EF93E0A2
:10455000BC0182E695E01AD788A599A54AE050E00B
:10456000BC0182E695E0F8D7A996E3E00C949D2F74
:10457000A1E2B0E0EEEBF2E20C94802F8091060114
:104580009091070101969093070180930601CE0157
:10459000429663E271E00E941C2D80910601909189
:1045A0000701892B69F48091C6019091C7019C0194
:1045B00021573F4FCE014296B9010E94302DABC02A
:1045C0008091060190910701019769F48091C601DD
:1045D0009091C7019C012B563F4FCE014296B901E5
:1045E0000E94302D98C0809106019091070102979A
:1045F00069F48091C8019091C9019C012E573F4FE9
:10460000CE014296B9010E94302D85C080910601ED
:1046100090910701039769F48091C8019091C901B5
:104620009C0128573F4FCE014296B9010E94302D80
:1046300072C08091060190910701049721F5809145
:10464000C6019091C70185569F4F0E944F19FC01EA
:1046500080819181A281B381FE013C9622E0AC0170
:10466000BD01CF010E94902DCE010C960E94EF114A
:104670009C01CE014296B9010E944D2DCE010C96AF
:104680000E94B52C48C080910601909107010597C2
:1046900051F58091C8019091C90182579F4F0E94A6
:1046A0004F19FC0180819181A281B381FE01369670
:1046B00022E0AC01BD01CF010E94902DCE010696F3
:1046C0000E94EF119C01CE014296B9010E944D2D2E
:1046D000CE0106960E94B52C8FEF9FEF90930701B5
:1046E0008093060118C069E371E082E695E080D608
:1046F00080910601909107014AE050E0BC0182E6FA
:1047000095E02AD78FEF9FEF9093070180930601E2
:1047100000E010E043C0CE014296E2DD9C018AE059
:1047200090E0821B930B9D838C831A8219820AC0AE
:10473000CE01429664E571E0E4DD89819A810196BB
:104740009A83898329813A818C819D812817390731
:104750007CF31B8215C08B81082F10E08B81282FE2
:1047600030E0CE014296B9010E947D2E282FCE0165
:104770004896800F911FFC0120838B818F5F8B8374
:104780008B818A3040F3CE0148964AE050E0BC016C
:104790008BEA92E00E94590501E010E0CE014296BA
:1047A0000E94B52C0130110509F40000A196E4E047
:1047B0000C949C2FA1E1B0E0E0EEF3E20C94822F88
:1047C0009C878B877E876D874F87398B288B1A82D2
:1047D000198218861F828FEF9FEF9A8789878D85B0
:1047E0009E857EDD01979E838D831C821B8235C052
:1047F0002B813C818D859E85B9010E947D2E982F4D
:104800008F85981739F02B813C818D819E812817E7
:10481000390711F481E001C080E08823C9F0898163
:104820009A8101969A83898389859A8501969887CA
:104830008F832B813C818D819E812817390721F43C
:104840008B819C81019602C08B819C819A8789878C
:104850008B819C8101969C838B832B813C818D81F4
:104860009E818217930744F029813A81888999892A
:10487000821793070CF0BCCF29813A8188899989E6
:10488000821793076CF489859A859C018F8198859E
:10489000AC018B859C856D857E850E947E2E06C031
:1048A0008B859C8563E271E00E941C2D00008B8546
:1048B0009C856196E2E00C949E2FA4E0B0E0E3E6D4
:1048C000F4E20C94822F9A8389837C836B838981A1
:1048D0009A81019711F58B819C810196F1F463E235
:1048E00071E085E493E00E941C2D63E271E08BE4AB
:1048F00093E00E941C2D63E271E081E593E00E9449
:104900001C2D63E271E087E593E00E941C2D63E2B9
:1049100071E08DE593E00E941C2D89819A81892B9D
:10492000C1F48B819C810196A1F48DE593E00E94F6
:10493000B52C87E593E00E94B52C81E593E00E94B9
:10494000B52C8BE493E00E94B52C85E493E00E94A3
:10495000B52C2496E2E00C949E2FA0E0B0E0E3EBAF
:10496000F4E20C94822F6FEF7FEF81E090E0A5DFFF
:10497000E2E00C949E2FA0E0B0E0E1ECF4E20C94B5
:10498000822F6FEF7FEF80E090E097DFE2E00C9402
:104990009E2FA4E3B0E0EFECF4E20C94802F9AABEE
:1049A00089AB7CAB6BAB89A99AA90197A1F58BA9BF
:1049B0009CA9019681F583E693E00E946A11CE01DD
:1049C000499663E673E00E94BA12809108019091C3
:1049D00009019E01275E3F4F890121E040ED57E02C
:1049E000BC018BE793E00E94D51263E673E0CE0131
:1049F00001960E94BA1280910A0190910B019E01CA
:104A00002F5F3F4F890121E048EE53E0BC018EE16A
:104A100094E00E94D11C89A99AA9892B59F48BA9E9
:104A20009CA9019639F48EE194E01CDC8BE793E0BD
:104A30000E948E1CE496E4E00C949C2FA0E0B0E071
:104A4000E4E2F5E20C94822F6FEF7FEF81E090E0DB
:104A5000A0DFE2E00C949E2FA0E0B0E0E2E3F5E2FC
:104A60000C94822F6FEF7FEF80E090E092DFE2E026
:104A70000C949E2FA6E0B0E0E0E4F5E20C94822FC7
:104A80009A8389834B835C836D837E838B819C8136
:104A9000AD81BE81E981FA8126E0AC01BD01CF0183
:104AA00038D32696E2E00C949E2FA2E0B0E0EBE52E
:104AB000F5E20C94822F9A83898381E02296E2E0CA
:104AC0000C949E2FA0E0B0E0E8E6F5E20C94822F73
:104AD00040E855E260E070E082E695E0CBDF000060
:104AE00082E695E0E2DF982F81E089278823C1F7ED
:104AF00034DC2EE935E248EE53E060E070E084EB10
:104B000094E00E941C10E2E00C949E2FA0E0B0E024
:104B1000ECE8F5E20C94822F84EB94E00E94CC0D3B
:104B20008091C6019091C7010E94E0158091C80153
:104B30009091C90148D8E2E00C949E2FA0E0B0E02B
:104B4000E4EAF5E20C94822F8091C6019091C701AE
:104B50000E94F9138091C8019091C901EAD8E2E05E
:104B60000C949E2FA4E0B0E0E8EBF5E20C94822FC9
:104B70009A8389837C836B8389819A81019741F42D
:104B80008B819C81019621F484EB94E00E94660D58
:104B90002496E2E00C949E2FA0E0B0E0E2EDF5E276
:104BA0000C94822F6FEF7FEF81E090E0DBDFE2E09B
:104BB0000C949E2F5058BB27AA270ED044C135D144
:104BC00030F03AD120F031F49F3F11F41EF42AC1A5
:104BD0000EF4E095E7FB20C1E92F46D180F3BA1728
:104BE000620773078407950718F071F49EF55EC19C
:104BF0000EF4E0950B2EBA2FA02D0B01B9019001F8
:104C00000C01CA01A0011124FF27591B99F0593F3B
:104C100050F4503E68F11A16F040A22F232F342F83
:104C20004427585FF3CF469537952795A795F040D1
:104C30005395C9F77EF41F16BA0B620B730B840BE6
:104C4000BAF09150A1F0FF0FBB1F661F771F881F9E
:104C5000C2F70EC0BA0F621F731F841F48F48795F6
:104C600077956795B795F7959E3F08F0B3CF9395E5
:104C7000880F08F09927EE0F979587950895A8D08B
:104C800008F481E008950CD0DEC0D6D040F0CDD03D
:104C900030F021F45F3F19F0BFC0511108C1C2C00C
:104CA000E3D098F39923C9F35523B1F3951B550B22
:104CB000BB27AA2762177307840738F09F5F5F4FEF
:104CC000220F331F441FAA1FA9F333D00E2E3AF030
:104CD000E0E830D091505040E695001CCAF729D04A
:104CE000FE2F27D0660F771F881FBB1F2617370799
:104CF0004807AB07B0E809F0BB0B802DBF01FF27C9
:104D000093585F4F2AF09E3F510568F085C0CFC091
:104D10005F3FECF3983EDCF3869577956795B79502
:104D2000F7959F5FC9F7880F911D9695879597F91D
:104D30000895E1E0660F771F881FBB1F6217730796
:104D40008407BA0720F0621B730B840BBA0BEE1FAB
:104D500088F7E0950895E89409C097FB3EF4909594
:104D60008095709561957F4F8F4F9F4F9923A9F044
:104D7000F92F96E9BB279395F695879577956795D3
:104D8000B795F111F8CFFAF4BB0F11F460FF1BC017
:104D90006F5F7F4F8F4F9F4F16C0882311F096E9AA
:104DA00011C0772321F09EE8872F762F05C0662358
:104DB00071F096E8862F70E060E02AF09A95660F11
:104DC000771F881FDAF7880F9695879597F90895CA
:104DD000990F0008550FAA0BE0E8FEEF161617060C
:104DE000E807F907C0F012161306E407F50798F074
:104DF000621B730B840B950B39F40A2661F0232B8D
:104E0000242B252B21F408950A2609F4A140A69508
:104E10008FEF811D811D089597F99F6780E870E0ED
:104E200060E008959FEF80EC089500240A94161620
:104E3000170618060906089500240A941216130688
:104E4000140605060895092E0394000C11F4882316
:104E500052F0BB0F40F4BF2B11F460FF04C06F5F32
:104E60007F4F8F4F9F4F089557FD9058440F551F08
:104E700059F05F3F71F04795880F97FB991F61F0DC
:104E80009F3F79F087950895121613061406551F53
:104E9000F2CF4695F1DF08C0161617061806991FBF
:104EA000F1CF86957105610508940895E894BB27B4
:104EB00066277727CB0197F908950BD0C4CFB5DFCC
:104EC00028F0BADF18F0952309F0A6CFABCF112454
:104ED000EECFCADFA0F3959FD1F3950F50E0551F99
:104EE000629FF001729FBB27F00DB11D639FAA273F
:104EF000F00DB11DAA1F649F6627B00DA11D661F8E
:104F0000829F2227B00DA11D621F739FB00DA11DAE
:104F1000621F839FA00D611D221F749F3327A00D68
:104F2000611D231F849F600D211D822F762F6A2F04
:104F300011249F5750408AF0E1F088234AF0EE0F89
:104F4000FF1FBB1F661F771F881F91505040A9F796
:104F50009E3F510570F060CFAACF5F3FECF3983EC3
:104F6000DCF3869577956795B795F795E7959F5FFD
:104F7000C1F7FE2B880F911D9695879597F9089597
:104F800027DF880B990B08950E941D33FC01918D3A
:104F9000228D892F90E0805C9F4F821B91098F7337
:104FA00099270895FC01918D828D981731F0828D9B
:104FB000E80FF11D858D90E008958FEF9FEF089524
:104FC000FC01918D828D981761F0828DDF01A80F11
:104FD000B11D5D968C91928D9F5F9F73928F90E033
:104FE00008958FEF9FEF089583E499E2892B41F0B4
:104FF00080E090E0892B21F046D181110C940000D3
:105000000895FC01848DDF01A80FB11DA35ABF4F85
:105010002C91848D90E001968F739927848FA689B7
:10502000B7892C93A089B1898C9180648C93938DDE
:10503000848D981306C00288F389E02D80818F7DCE
:1050400080830895CF93DF93EC01888D8823C1F08E
:10505000EA89FB89808185FD05C0A889B9898C9181
:1050600086FD0EC00FB607FCF5CF808185FFF2CF1D
:10507000A889B9898C9185FFEDCFCE01C2DFE8CF39
:10508000DF91CF910895EF92FF920F931F93CF93EB
:10509000DF93EC0181E0888F9B8D8C8D981305C088
:1050A000E889F989808185FD23C0F62E0B8D10E0FB
:1050B0000F5F1F4F0F731127E02E8C8DE8120BC06E
:1050C0000FB607FCFACFE889F989808185FFF5CF13
:1050D000CE0197DFF2CF8B8DFE01E80FF11DE35A71
:1050E000FF4FF0820B8FEA89FB898081806207C0C5
:1050F000EE89FF896083E889F989808180648083F3
:1051000081E090E0DF91CF911F910F91FF90EF90A0
:105110000895CF92DF92EF92FF921F93CF93DF9388
:10512000EC016A017B01122FE889F98982E0808312
:105130004115514E61057105A9F060E079E08DE3FC
:1051400090E0A701960180D6DA01C9010197A10973
:10515000B109B695A79597958795AC01411580E162
:105160005807A0F0E889F989108260E874E88EE1B8
:1051700090E0A701960168D6BA01A90141505109F2
:10518000610971097695679557954795EC85FD8579
:105190005083EE85FF854083188EEC89FD8910834E
:1051A000EA89FB89808180618083EA89FB8980812B
:1051B00088608083EA89FB89808180688083EA89AE
:1051C000FB8980818F7D8083DF91CF911F91FF903C
:1051D000EF90DF90CF9008951F920F920FB60F922D
:1051E00011242F938F939F93EF93FF93E091720578
:1051F000F09173058081E0917805F091790582FD49
:1052000012C0908180917B058F5F8F7320917C0508
:10521000821751F0E0917B05F0E0EE59FA4F958F3F
:1052200080937B0501C08081FF91EF919F918F91C9
:105230002F910F900FBE0F901F9018951F920F92F5
:105240000FB60F9211242F933F934F935F936F9359
:105250007F938F939F93AF93BF93EF93FF9382E6D8
:1052600095E0CFDEFF91EF91BF91AF919F918F912C
:105270007F916F915F914F913F912F910F900FBE52
:105280000F901F90189582E695E080DE21E0892B33
:1052900009F420E0822F0895E2E6F5E013821282FD
:1052A00088EE93E0A0E0B0E084839583A683B78383
:1052B0008EEC91E09183808385EC90E095878487E4
:1052C00084EC90E09787868780EC90E0918B808BD0
:1052D00081EC90E0938B828B82EC90E0958B848BB9
:1052E00086EC90E0978B868B118E128E138E148E27
:1052F0000895089526D2FDDFE5DBC4EFD7E206DC92
:105300002097E9F371DEFBCF52C6E6C6CF92DF925B
:10531000EF92FF920F931F93CF93DF936C017A016B
:105320008B01C0E0D0E0CE15DF0589F0D8016D918A
:105330008D01D601ED91FC910190F081E02DC60127
:105340000995892B11F47E0102C02196ECCFC7018B
:10535000DF91CF911F910F91FF90EF90DF90CF9051
:1053600008956115710579F0FB0101900020E9F7BE
:105370003197AF01461B570BDC01ED91FC91028088
:10538000F381E02D099480E090E00895EF92FF9280
:105390000F931F93CF93DF938C017B01C0E0D0E08C
:1053A000F701EC0FFD1F6491662361F0D801ED91C8
:1053B000FC910190F081E02DC8010995892B11F035
:1053C0002196EECFCE01DF91CF911F910F91FF90EB
:1053D000EF900895DC01ED91FC91DB0114964D9165
:1053E0005C9115976D917C910280F381E02D099479
:1053F000B8CFDC01ED91FC910190F081E02D099492
:105400006AED71E0AECF0F931F93CF93DF93EC0162
:10541000BDDF8C01CE01F4DF800F911FDF91CF91B2
:105420001F910F9108958F929F92AF92BF92CF924A
:10543000DF92EF92FF920F931F93CF93DF93CDB73D
:10544000DEB7A1970FB6F894DEBF0FBECDBF7C01CB
:10545000D42EC52EDB0119A2223008F42AE08E01D9
:105460000F5D1F4F822E912CA12CB12C6D2D7C2D08
:10547000CD01A5019401E8D4D22EC32EDA0101504A
:1054800011096A3071058105910510F4605D01C054
:10549000695CF8016083232B242B252B39F7B80195
:1054A000C7015FDFA1960FB6F894DEBF0FBECDBF78
:1054B000DF91CF911F910F91FF90EF90DF90CF90F0
:1054C000BF90AF909F908F900895CF92DF92EF9210
:1054D000FF920F931F93CF93DF93EC016A017B013F
:1054E0002115310579F4E881F9810190F081E02DF1
:1054F000642FDF91CF911F910F91FF90EF90DF907C
:10550000CF9009942A303105D9F477FF18C06DE2A5
:1055100070DF8C0144275527BA014C195D096E09CB
:105520007F092AE0CE017FDF800F911FDF91CF91AD
:105530001F910F91FF90EF90DF90CF9008952AE098
:10554000B701A601CE01DF91CF911F910F91FF907E
:10555000EF90DF90CF9067CF0F931F93CF93DF93A0
:10556000EC019A01AB01770F660B770BAEDF8C0174
:10557000CE0146DF800F911FDF91CF911F910F91D8
:1055800008952115310541F4DC01ED91FC91019064
:10559000F081E02D642F099446CF0F931F93CF9392
:1055A000DF93EC019A01462F50E060E070E0E9DF04
:1055B0008C01CE0125DF800F911FDF91CF911F91CC
:1055C0000F9108951F920F920FB60F9211242F93EF
:1055D0003F938F939F93AF93BF93809100069091D9
:1055E0000106A0910206B09103063091FF0523E069
:1055F000230F2D3720F40196A11DB11D05C026E80B
:10560000230F0296A11DB11D2093FF058093000674
:1056100090930106A0930206B093030680910406BE
:1056200090910506A0910606B09107060196A11D6E
:10563000B11D8093040690930506A0930606B093CF
:105640000706BF91AF919F918F913F912F910F903E
:105650000FBE0F901F9018952FB7F8946091000619
:105660007091010680910206909103062FBF089564
:105670003FB7F8948091040690910506A091060624
:10568000B091070626B5A89B05C02F3F19F00196DB
:10569000A11DB11D3FBFBA2FA92F982F8827820FB8
:1056A000911DA11DB11DBC01CD0142E0660F771F08
:1056B000881F991F4A95D1F708958F929F92AF92B4
:1056C000BF92CF92DF92EF92FF926B017C01D0DF0D
:1056D0004B015C01C114D104E104F104F1F0B3D336
:1056E000C7DFDC01CB0188199909AA09BB09883EEB
:1056F0009340A105B10570F321E0C21AD108E10879
:10570000F10888EE880E83E0981EA11CB11CC1141C
:10571000D104E104F10421F7DDCFFF90EF90DF9099
:10572000CF90BF90AF909F908F9008958230910559
:1057300038F0880F991F880F991F05970197F1F787
:105740000895789484B5826084BD84B5816084BDF9
:1057500085B5826085BD85B5816085BDEEE6F0E0EA
:10576000808181608083E1E8F0E010828081826046
:105770008083808181608083E0E8F0E080818160C7
:105780008083E1EBF0E0808184608083E0EBF0E0F7
:10579000808181608083EAE7F0E08081846080839B
:1057A0008081826080838081816080838081806845
:1057B00080831092C10008958E3008F08E5087705B
:1057C00020910C0190E4299F90011124822B809359
:1057D0007C0080917A00806480937A0080917A00C6
:1057E00086FDFCCF809178002091790090E0922B8B
:1057F0000895833081F028F4813099F08230A1F04F
:1058000008958730A9F08830B9F08430D1F48091C0
:1058100080008F7D03C0809180008F77809380000F
:10582000089584B58F7702C084B58F7D84BD0895B7
:105830008091B0008F7703C08091B0008F7D8093FE
:10584000B0000895CF93DF9390E0FC01E25DFB4F41
:105850002491FC01EE5BFB4F8491882361F190E081
:10586000880F991FFC01E659FB4FC591D491FC01AB
:10587000E05AFB4FA591B491611109C09FB7F8940C
:105880008881209582238883EC912E230BC062307F
:1058900061F49FB7F8943881822F809583238883A1
:1058A000EC912E2B2C939FBF06C08FB7F894E88104
:1058B0002E2B28838FBFDF91CF9108951F93CF9315
:1058C000DF93282F30E0F901E65EFB4F8491F90168
:1058D000E25DFB4FD491F901EE5BFB4FC491CC2309
:1058E000C1F0162F811185DFEC2FF0E0EE0FFF1FC6
:1058F000E05AFB4FA591B4918FB7F894111105C0F0
:105900009C91ED2FE095E92302C0EC91ED2BEC93F7
:105910008FBFDF91CF911F910895CF93DF93282FF1
:1059200030E0F901E65EFB4F8491F901E25DFB4F47
:10593000D491F901EE5BFB4FC491CC2389F0811126
:1059400058DFEC2FF0E0EE0FFF1FEA5AFB4FA59156
:10595000B491EC91ED2381E090E021F480E002C06D
:1059600080E090E0DF91CF910895FC0180819181EA
:10597000B3C3CF93DF93EC0188819981009709F03D
:10598000ABD3198218821D821C821B821A82DF917E
:10599000CF9108950F931F93CF93DF93EC018B0169
:1059A0006F5F7F4F888199812FD4009731F0998361
:1059B00088831B830A8381E001C080E0DF91CF915F
:1059C0001F910F910895CF93DF93EC018881998106
:1059D000892B29F08A819B818617970758F4CE017D
:1059E000D9DF882341F08C819D81892B19F4E881CE
:1059F000F981108281E0DF91CF910895EF92FF92BB
:105A00000F931F93CF93DF93EC017B018A01BA01BF
:105A1000DADF811103C0CE01ACDF06C01D830C8329
:105A2000B7018881998142D6CE01DF91CF911F9134
:105A30000F91FF90EF900895FC0111821082138264
:105A40001282158214826115710549F0FB010190E3
:105A50000020E9F73197AF01461B570BCFCF0895D0
:105A6000CF93DF93EC01FB018617970751F060811C
:105A700071816115710521F044815581BFDF01C03D
:105A800078DFCE01DF91CF910895FC011182108261
:105A90001382128215821482E3CFCF93DF93EC013D
:105AA0006115710551F0FB0101900020E9F7319774
:105AB000AF01461B570BA2DF01C05BDFCE01DF91B8
:105AC000CF910895EF92FF920F931F93CF93DF939F
:105AD000CDB7DEB7A1970FB6F894DEBF0FBECDBF2E
