:100000005FC2000085C2000083C200000BC7000071
:1000100009C7000007C700007BC2000079C20000CA
:1000200077C2000075C2000073C2000071C20000F8
:100030006FC200006DC200006BC2000069C2000008
:100040000C94592E65C200000C94722B0C94A42BB6
:100050005FC200005DC200005BC2000059C2000028
:100060003BC3000055C2000099049D049D049D04FB
:100070009D049D049D049D049D039D049D049D0479
:100080009D049D049D049D049D039D049D049D0469
:100090009D049D049D049D04A6039D049D049D0450
:1000A0009D049D049D049D04D1039D049D049D0415
:1000B0009D049D049D049D04A6039D049D049D0430
:1000C0009D049D049D049D04D6039D049D049D04F0
:1000D0009D049D049D049D04DB039D049D049D04DB
:1000E0009D049D049D049D04F0039D049D049D04B6
:1000F0009D049D049D049D041D049D049D049D0478
:100100009D049D049D049D04E0039D049D049D04A5
:100110009D049D049D049D04FC039D049D049D0479
:100120009D049D049D049D041F049D049D049D0445
:100130009D049D049D049D041F049D049D049D0435
:100140009D049D049D049D041F049D049D049D0425
:100150009D049D049D049D041F049D049D049D0415
:100160009D049D049D049D0427049D049D049D04FD
:100170009D049D049D049D045F049D049D049D04B5
:100180009D049D049D049D0427049D049D049D04DD
:100190009D049D049D049D045F049D049D049D0495
:1001A0009D049D049D049D0441049D049D049D04A3
:1001B0009D049D049D049D0462049D049D049D0472
:1001C0009D049D049D049D0462049D049D049D0462
:1001D0009D049D049D049D0478049D049D049D043C
:1001E0009D049D049D049D0494049D049D049D0410
:1001F0009D049D049D049D0494049D049D049D0400
:100200009D049D049D049D049D049D049D049D04E6
:100210009D049D049D049D049D049D049D049D04D6
:100220009D049D049D049D049D049D049D049D04C6
:100230009D049D049D049D049D049D049D049D04B6
:100240009D049D049D049D049D049D049D049D04A6
:100250009D049D049D049D049D044E414E494E49BC
:100260005459494E46CDCCCC3D0AD7233C17B7D183
:100270003877CC2B329595E6241FB14F0A00002029
:10028000410000C84200401C4620BCBE4CCA1B0EA8
:100290005AAEC59D7400407A10F35A00A0724E18F1
:1002A000090010A5D4E80000E87648170000E40B28
:1002B00054020000CA9A3B000000E1F505000080EE
:1002C000969800000040420F000000A08601000048
:1002D00000102700000000E8030000000064000098
:1002E0000000000A00000000000100000000002CD7
:1002F00076D888DC674F0823DFC1DFAE59E1B1B79C
:1003000096E5E3E453C63AE651997696E8E6C28468
:1003100026EB898C9B62ED407C6FFCEFBC9C9F4080
:10032000F2BAA56FA5F490055A2AF75C936B6CF9A5
:10033000676DC11BFCE0E40D47FEF520E6B500D07B
:10034000ED902E0300943577050080841E08000090
:10035000204E0A000000C80C333333330F986E125E
:10036000831141EF8D2114893BE65516CFFEE6DB64
:1003700018D1844B381BF77C1D901DA4BBE42420AE
:100380003284725E228100C9F124ECA1E53D272070
:10039000202020202020202020202020202020007D
:1003A0004572726F72206E756D62657220666F7233
:1003B0002074686520617272617920746F206176A3
:1003C000726167696E67212F6E00416464696E67B0
:1003D00020706856616C3A200053657474696E67CA
:1003E00020706856616C3A20005F736C6176653AE4
:1003F0002000636D643A2000636D64446174613A67
:100400002000556E6578706563746564206E756D47
:10041000626572206F66206279746573207265630D
:1004200065697665643A20007E726573706F6E73DD
:1004300065496E646578206E6F7420666F756E64B2
:100440003A20005B53656C656C63745D2050726587
:1004500073736564000000000800020100000304DB
:100460000700000000000000000102040810204006
:100470008001020408102001020408102004040472
:10048000040404040402020202020203030303033D
:1004900003000000002300260029000000000025C2
:1004A0000028002B0000000000240027002A000084
:1004B000CA06E50B0F26FD261D28D22B1D260B276D
:1004C00011241FBECFEFD8E0DEBFCDBF11E0A0E00A
:1004D000B1E0EEE5F4E702C005900D92A23DB10750
:1004E000D9F726E0A2EDB1E001C01D92A831B20714
:1004F000E1F712E0CEE5D2E004C02197FE010E94B0
:100500002433C835D107C9F70E94002C0C94233A34
:1005100077CDA0E0B0E0EFE8F2E00C944433109225
:10052000D20181E08093D4011092D50182E161E093
:100530000E94D52F83E161E00E94D52F89EB90E0E6
:1005400029EB30E0F90120812E7FFC01208389EB2B
:1005500090E029EB30E0F90120812D7FFC01208320
:1005600088EB90E028E4FC0120838CEB90E025E40C
:10057000FC012083E2E00C946033A1E0B0E0E3EC06
:10058000F2E00C94443389838AEB90E02981220FB6
:10059000FC0120832196E2E00C946033A4E0B0E0FB
:1005A000E4EDF2E00C9444339B838A836C838C816A
:1005B000813210F081E023C08091D201843011F0AB
:1005C00082E01DC08C8180931D02198213C0898135
:1005D000882F90E02981222F30E04A815B81240F0F
:1005E000351FF901208184509E4FFC0120838981B1
:1005F0008F5F898399818C81981748F380E02496D6
:10060000E2E00C946033A2E0B0E0E9E0F3E00C94A7
:1006100044339A83898389819A819093D901809305
:10062000D8012296E2E00C946033A2E0B0E0EBE166
:10063000F3E00C9444339A83898389819A8190935F
:10064000D7018093D6012296E2E00C946033A1E0BA
:10065000B0E0EDE2F3E00C94443389838981882390
:1006600031F08CEB90E025ECFC01208305C08CEB95
:1006700090E025E8FC0120832196E2E00C946033B1
:10068000A0E0B0E0E6E4F3E00C9444338CEB90E0BF
:1006900025EDFC01208301C000008CEB90E0FC0103
:1006A0008081882F90E080719927892BA9F710927B
:1006B000D201E2E00C946033A0E0B0E0E2E6F3E0C7
:1006C0000C9444338CEB90E025ECFC0120831092D9
:1006D000D201E2E00C9460331F920F9200905F0011
:1006E0000F9211242F933F934F935F936F937F93B8
:1006F0008F939F93AF93BF93EF93FF93CF93DF932A
:10070000CDB7DEB789EB90E0FC018081882F90E0C7
:10071000887F9927092E000CAA0BBB0B40E050E004
:1007200028EF30E0841B950B2817390708F405C122
:100730008C5C9F4FFC010C9424338BEB90E0209158
:10074000D301FC01208381E082DFF7C09091FA01A0
:100750008091FB01981798F48BEB90E02091FA01BF
:1007600031E0320F3093FA01222F30E026523E4F13
:10077000F9012081FC01208381E069DF11C08091B3
:10078000D401882311F07CDF0BC081E08093D50178
:100790008CEB90E024EAFC0120831092D201CDC0C2
:1007A000CCC080E280933F026BDFC7C080E38093C0
:1007B0003F0266DFC2C088E380933F027DDFBDC099
:1007C0008091FA0191E0980F9093FA01882F90E0C0
:1007D0002BEB30E0F901208186529E4FFC012083F3
:1007E0009091FA018091FB01981718F481E02FDFB6
:1007F000A4C080E02CDFA1C08091FA0191E0980FA5
:100800009093FA01882F90E02BEB30E0F9012081E2
:1008100086529E4FFC0120838091D401882311F0E1
:100820002FDF8BC081E08093D5018CEB90E024EA30
:10083000FC0120831092D20180C022DF7EC083E0C1
:100840008093D20110923E0281E001DF76C0809158
:100850003E02803298F480913E0291E0980F90938E
:100860003E02882F90E02BEB30E0F9012081825E80
:100870009D4FFC01208381E0EADE5FC080E0E7DE7F
:100880005CC080913E02803240F480913E02882F0D
:1008900090E0825E9D4FFC011082F2DE2091D80133
:1008A0003091D90180913E02882F90E0BC018EE109
:1008B00092E0F901099510923E02FEDE3EC080E012
:1008C000C6DE3BC084E08093D20110921C021092DD
:1008D0001D028091D6019091D701FC01099580916C
:1008E0001D02882329F481E080931D021092FC01EF
:1008F0008BEB90E020911C0231E0320F30931C0210
:10090000222F30E024503E4FF9012081FC0120834A
:1009100090911C0280911D02981718F481E097DED7
:100920000CC080E094DE09C081E091DE1092D2011B
:1009300004C010923F02A4DE0000DF91CF91FF912E
:10094000EF91BF91AF919F918F917F916F915F9147
:100950004F913F912F910F9000925F000F901F9049
:100960001895A4E0B0E0E7EBF4E00C9444339A83EC
:1009700089837C836B8389819A812B813C81FC01F3
:10098000338322832496E2E00C946033A2E0B0E04B
:10099000ECECF4E00C9444339A83898389819A8146
:1009A0002DEC31E0FC013183208389819A81FC01A7
:1009B000138212822296E2E00C946033A2E0B0E04F
:1009C000E4EEF4E00C9444339A83898389819A811C
:1009D000DDDF89819A812EE631E0FC0131832083BD
:1009E00029813A8188EE93E0A0E0B0E0F9018483A8
:1009F0009583A683B7832296E2E00C946033A2E04D
:100A0000B0E0E5E0F5E00C9444339A838983898172
:100A10009A81D4DF89819A812EE531E0FC0131830E
:100A200020832296E2E00C946033A2E0B0E0EBE198
:100A3000F5E00C9444339A838983109260021092FB
:100A40006102109282021092830263DD2296E2E03C
:100A50000C946033A3E0B0E0E0E3F5E00C944433A1
:100A60009A8389836B838B8188DD8FE696E0DDDD59
:100A700089E296E0C8DD89819A81D7DF2396E2E09A
:100A80000C946033A3E0B0E0E8E4F5E00C94443368
:100A90009A8389836B83809184028823F9F0809103
:100AA0008302803240F089819A8161E070E059DFF1
:100AB00080E090E019C080918202882F90E02B8125
:100AC0008E599D4FFC012083809182028F5F80931D
:100AD0008202809182028093830204C0CE01039639
:100AE00061E05CDD81E090E02396E2E00C9460330D
:100AF000A8E0B0E0EEE7F5E00C9444339C838B83F0
:100B00007E836D8358874F8380918402882329F1E7
:100B10001A8219821AC08B819C81FC01808191818B
:100B2000FC01208131814D815E8189819A81840F10
:100B3000951FFC0140818B819C81642FF9010995EF
:100B400089819A8101969A83898329813A818F814B
:100B5000988528173907F8F205C02F818D819E816D
:100B6000622F1CDD8F8198852896E2E00C9460331B
:100B7000A2E0B0E0EEEBF5E00C9444339A83898375
:100B800080916102282F30E080916002882F90E0F0
:100B9000A901481B590BCA012296E2E00C9460336C
:100BA000A4E0B0E0E6EDF5E00C9444339C838B8345
:100BB0008FEF9FEF9A838983909160028091610209
:100BC000981788F480916002882F90E0805C9D4F98
:100BD000FC018081882F90E09A8389838091600254
:100BE0008F5F8093600289819A812496E2E00C9461
:100BF0006033A4E0B0E0EFEFF5E00C9444339C8365
:100C00008B838FEF9FEF9A8389839091600280910D
:100C10006102981760F480916002882F90E0805CF8
:100C20009D4FFC018081882F90E09A838983898180
:100C30009A812496E2E00C946033A2E0B0E0E3E213
:100C4000F6E00C9444339A8389832296E2E00C9474
:100C50006033A5E0B0E0EFE2F6E00C9444339B8310
:100C60008A837D836C838091870290918802892B8F
:100C700009F431C09091600280916102981708F4E4
:100C80002AC0198213C08981882F90E02981222FE0
:100C900030E04A815B81240F351FF9012081805C9F
:100CA0009D4FFC01208389818F5F89838981282F53
:100CB00030E08C819D81281739072CF31092600257
:100CC0008C818093610220918702309188028C810F
:100CD0009D81F90109952596E2E00C946033A0E02E
:100CE000B0E0E5E7F6E00C94443380918502909102
:100CF0008602892B09F40AC01092820210928302A4
:100D00008091850290918602FC010995E2E00C94A5
:100D10006033A4E0B0E0EFE8F6E00C9444339A834B
:100D200089837C836B838B819C81909388028093E1
:100D300087022496E2E00C946033A4E0B0E0E3EA9A
:100D4000F6E00C9444339A8389837C836B838B8194
:100D50009C8190938602809385022496E2E00C9415
:100D60006033A4E0B0E0E7EBF6E00C9444339A8300
:100D700089837C836B8389819A81019739F48B8184
:100D80009C81019619F489E892E039DE2496E2E02C
:100D90000C946033A0E0B0E0E0EDF6E00C94443356
:100DA0006FEF7FEF81E090E0DCDFE2E00C946033F6
:100DB000A2E0B0E0EEEDF6E00C94443389836A8360
:100DC0002296E2E00C946033A4E0B0E0EAEEF6E0B4
:100DD0000C9444339C838B838B819C819A8389837D
:100DE00089819A810197F1F79A8389832496E2E0B9
:100DF0000C946033A2E0B0E0E0E0F7E00C94443300
:100E00009A83898389819A81FC0186859785FC0173
:100E1000208189819A81FC01858582232296E2E0E6
:100E20000C9460331F920F9200905F000F92112478
:100E30002F933F934F935F936F937F938F939F93E2
:100E4000AF93BF93EF93FF93CF93DF93CDB7DEB70D
:100E50002B97DEBFCDBF8091950290919602892B92
:100E600009F4F4C080919502909196029A83898347
:100E70001B8289819A81FC01868D8270882349F0CA
:100E800089819A81B7DF982F81E0992351F480E01E
:100E900008C089819A81AEDF982F81E0992309F0FB
:100EA00080E0882309F4D2C089819A819D838C8354
:100EB0001E828E818823A1F08C819D81FC01838913
:100EC00094892C813D81F90123893489F90140817C
:100ED0002C813D81F9012589242BFC01208315C03B
:100EE0008C819D81FC01838994892C813D81F9014C
:100EF00023893489F9012081422F2C813D81F90118
:100F0000258920952423FC01208389819A81FC0175
:100F10008689978959DF61E08DE04ADF88E08F8319
:100F20001FC089819A81FC01808D918D4DDF8B815D
:100F3000882F90E0959587958B8361E08DE038DF71
:100F400089819A8157DF982F81E0992309F480E005
:100F5000882319F08B8180688B838F8181508F83E8
:100F60008F818823F1F689819A81FC01868D8270B8
:100F7000882319F08B8180958B838091D702882FED
:100F800090E001968F739078992324F40197806CF8
:100F90009F6F019688879091D80281E02885291754
:100FA00009F480E0882369F08091D702882F90E0CF
:100FB00089569D4F2B81FC01208388858093D70221
:100FC0000AC061E08BE0F4DE89819A81FC01268D04
:100FD0002160FC01268F89819A81FC01828D938D8D
:100FE000F3DE61E08BE0E4DE89819A819A8789876C
:100FF00081E08B878B858823A1F089859A85FC0108
:101000008389948929853A85F90123893489F901ED
:10101000408129853A85F9012589242BFC0120830B
:1010200015C089859A85FC018389948929853A852B
:10103000F90123893489F9012081422F29853A85D4
:10104000F901258920952423FC0120832B960FB6D6
:10105000F894DEBF0FBECDBFDF91CF91FF91EF912E
:10106000BF91AF919F918F917F916F915F914F91C0
:101070003F912F910F9000925F000F901F90189555
:101080008F92AF92CF92EF920F93CF93DF93CDB722
:10109000DEB728970FB6F894DEBF0FBECDBF9A8398
:1010A00089836B834C832D830E83EF82C88689816D
:1010B0009A816CDC89819A812EE731E0FC013183D1
:1010C000208389819A811F921F921F921F92888488
:1010D000AF80CE80ED800C812FEF4B8161E012D08C
:1010E0000F900F900F900F9028960FB6F894DEBFD8
:1010F0000FBECDBFDF91CF910F91EF90CF90AF900A
:101100008F9008958F92AF92CF92EF920F93CF93DB
:10111000DF93CDB7DEB72A970FB6F894DEBF0FBEC8
:10112000CDBF9A8389836B834C832D830E83EF829B
:10113000C886A9868A8689819A812C81FC012483AC
:1011400089819A812D81FC01258389819A812E8153
:10115000FC01268389819A812F81FC012783898163
:101160009A812885FC01208789819A812985FC0143
:10117000218789819A812A85FC01228789819A8128
:101180002C89FC01238789819A812D89FC01248780
:1011900089819A812E89FC01258789819A812F89ED
:1011A000FC01268789819A81FC01848161E00E948B
:1011B000992F89819A81FC0185818F3F39F089813E
:1011C0009A81FC01858161E00E94992F89819A8131
:1011D000FC01868161E00E94992F8B81882329F090
:1011E00089819A81FC01178605C089819A8120E155
:1011F000FC01278789819A8120E041E060E10ED0DF
:101200002A960FB6F894DEBF0FBECDBFDF91CF9107
:101210000F91EF90CF90AF908F900895A5E0B0E040
:10122000E4E1F9E00C9442339A8389836B834C8325
:101230002D838C81823050F089819A81FC018785D1
:10124000282F286089819A81FC01278789819A81CA
:101250002C81FC01238B8B81882F90E0AC01405CBA
:101260005F4F8B81282F30E089819A818A0140E489
:1012700050E060E070E0A4D08D81882369F08C811B
:10128000813051F489819A81FC018785282F24605F
:1012900089819A81FC01278780E593EC0E940D2FBC
:1012A00089819A81FC01848160E00E94D52F898127
:1012B0009A81FC01868160E00E94D52F89819A8104
:1012C000FC0185818F3F39F089819A81FC018581FC
:1012D00060E00E94D52F89819A81FC018785882F43
:1012E00090E080719927892BE9F489819A8163E0E4
:1012F00091D184E991E10E940D2F89819A8163E067
:1013000089D184E991E10E940D2F89819A8163E05E
:1013100081D186E990E00E940D2F89819A8162E057
:1013200079D126C089819A81FC018785282F206286
:1013300089819A81622FD6D084E991E10E940D2F94
:1013400089819A81FC018785282F206289819A8171
:10135000622FC8D086E990E00E940D2F89819A8182
:10136000FC018785282F206289819A81622FBAD05B
:1013700089819A81FC018785282F206289819A8141
:10138000622FB0D089819A8124E0FC01208B898171
:101390009A8188D089819A813BD089819A8122E083
:1013A000FC01218B89819A81FC018189282F24608D
:1013B00089819A81622F96D02596E4E00C945E3361
:1013C000AAE0B0E0E6EEF9E00C9442339A83898318
:1013D0007C836B835E834D8338872F831A870987CD
:1013E0002B8189819A81FC01248B2D8189819A81AD
:1013F000FC01258B2F8189819A81FC01268B29850F
:1014000089819A81FC01278B2A96E4E00C945E3353
:10141000A2E0B0E0EEE0FAE00C9444339A838983D2
:1014200089819A8161E05ED080ED97E00E940D2F66
:101430002296E2E00C946033A6E0B0E0E2E2FAE04B
:101440000C9444339C838B836D834E8384E090E0C3
:101450009A8389838E81843010F083E08E838B8120
:101460009C81FC0193898E81891730F08B819C814E
:10147000FC01838981508E838E81882F90E02B819F
:101480003C81820F931F4496FC0190818D81890FCE
:101490008068282F8B819C81622F24D02696E2E0E1
:1014A0000C946033A2E0B0E0E8E5FAE00C94443339
:1014B0009A83898389819A81FC018089282F2460FD
:1014C00089819A81FC01208B89819A81FC01808924
:1014D000282F286089819A81622F04D02296E2E029
:1014E0000C946033A3E0B0E0E8E7FAE00C944433F6
:1014F0009A8389836B8389819A8140E06B8118D0BC
:101500002396E2E00C946033A3E0B0E0EAE8FAE06E
:101510000C9444339A8389836B8389819A8141E057
:101520006B8106D081E090E02396E2E00C9460337A
:10153000A4E0B0E0EEE9FAE00C9444339A838983A6
:101540006B834C8389819A81FC0184816C810E9428
:10155000D52F89819A81FC0185818F3F39F089815E
:101560009A81FC01858160E00E94D52F89819A8152
:10157000FC018785882F90E080719927892B29F0BD
:1015800089819A816B8185D014C08B81882F90E0EE
:101590009595879595958795959587959595879533
:1015A000282F89819A81622F35D089819A816B8118
:1015B00031D02496E2E00C946033A2E0B0E0E3EE98
:1015C000FAE00C9444339A83898389819A81FC01DF
:1015D000868160E00E94D52F81E090E00E940D2F6F
:1015E00089819A81FC01868161E00E94D52F81E08A
:1015F00090E00E940D2F89819A81FC01868160E034
:101600000E94D52F84E690E00E940D2F2296E2E002
:101610000C946033A5E0B0E0E0E1FBE00C944433CF
:101620009C838B836D831A82198228C02B813C8115
:1016300089819A81820F931F0796FC01808161E066
:101640000E94992F8D81882F90E0098002C0959586
:1016500087950A94E2F7482F41702B813C8189815C
:101660009A81820F931F0796FC018081642F0E944C
:10167000D52F89819A8101969A83898389819A815C
:101680000497A4F28B819C8198DF2596E2E00C946C
:101690006033A5E0B0E0EFE4FBE00C9444339C83BE
:1016A0008B836D831A82198228C02B813C818981AA
:1016B0009A81820F931F0796FC01808161E00E944E
:1016C000992F8D81882F90E0098002C0959587958C
:1016D0000A94E2F7482F41702B813C8189819A81DD
:1016E000820F931F0796FC018081642F0E94D52FE3
:1016F00089819A8101969A83898389819A81089741
:10170000A4F28B819C8159DF2596E2E00C94603332
:10171000A0E0B0E0EEE8FBE00C94443389ED92E009
:10172000FC018081882351F460E070E083EE92E058
:101730000AD089ED92E021E0FC01208383EE92E063
:10174000E2E00C946033A4E0B0E0E9EAFBE00C9442
:1017500044339A8389837C836B8389819A812B812B
:101760003C81FC01318320830AD09C0189819A81CC
:10177000FC01338322832496E2E00C946033A0E0E2
:10178000B0E0E5ECFBE00C94443380E094E0E2E070
:101790000C946033A4E0B0E0E0EDFBE00C94443343
:1017A0009A8389837C836B8389819A81019749F429
:1017B0008B819C81019629F4ABDF9093E2028093A8
:1017C000E1022496E2E00C946033A0E0B0E0EBEE9E
:1017D000FBE00C9444336FEF7FEF81E090E0DADFC1
:1017E000E2E00C946033A0E0B0E0E9EFFBE00C94A1
:1017F00044330E94A32EDC01CB01BC01CD01E2E009
:101800000C946033A8E0B0E0E8E0FCE00C944433D2
:1018100098878F838F81988526E831E0FC0131839A
:101820002083E1DFDC01CB018B839C83AD83BE830E
:101830001A8219823DC02F81388589819A81820F51
:10184000931F82579F4FFC0110822F813885898119
:101850009A814596880F991F820F931FFC01118270
:1018600010822F81388589819A81880F991F880F6E
:10187000991F820F931F9C012E5F3F4F8B819C818C
:10188000AD81BE81F90180839183A283B3832F81CF
:10189000388589819A81CD96880F991F820F931F71
:1018A000FC011182108289819A8101969A83898331
:1018B00089819A810A970CF4BECF8F8198858455CF
:1018C0009F4FFC01118210822896E2E00C94603355
:1018D000A8E0B0E0EEE6FCE00C94403398878F83FC
:1018E00082DFDC01CB018B839C83AD83BE831A82B4
:1018F000198225C12F81388589819A81845B9F4F08
:10190000880F991F820F931FFC01118210822F8173
:10191000388589819A814596880F991F820F931F78
:10192000FC0180819181892B09F404C12F813885C4
:1019300089819A81880F991F880F991F820F931FA1
:101940000296FC0180819181A281B3812B813C812F
:101950004D815E8179018A01E81AF90A0A0B1B0B95
:10196000D801C7014F81588529813A81220F331F41
:10197000220F331F240F351F225C3F4FF9012081B6
:1019800031814281538182179307A407B50708F478
:10199000D1C02F81388589819A81880F991F880F3E
:1019A000991F820F931F0296FC0180819181A28171
:1019B000B3814F81588529813A81220F331F220F2D
:1019C000331F240F351F225C3F4FF90120813181E5
:1019D00042815381820F931FA41FB51F4F815885E9
:1019E00029813A81220F331F220F331F240F351F05
:1019F0002E5F3F4FF90180839183A283B3832F81B0
:101A0000388589819A81820F931F82579F4FFC01ED
:101A10008081882309F48EC02F81388589819A813D
:101A2000C396880F991F820F931FFC0180819181BB
:101A3000892B81F42F81388589819A81845B9F4F1E
:101A4000880F991F820F931F21E030E0FC01318342
:101A5000208370C02F81388589819A81CD96880F27
:101A6000991F820F931FFC01208131814F8158857E
:101A700089819A81C396880F991F840F951FFC0155
:101A800080819181281739070CF054C02F81388547
:101A900089819A81845B9F4F880F991F820F931FC2
:101AA00021E030E0FC01318320832F81388589815A
:101AB0009A81CD96880F991F820F931FFC01808118
:101AC00091819C012F5F3F4F4F81588589819A8179
:101AD000CD96880F991F840F951FFC0131832083B9
:101AE0002F81388589819A81CD96880F991F820F21
:101AF000931FFC01208131814F81588589819A8112
:101B0000C396880F991F840F951FFC0180819181D6
:101B1000281739077CF02F81388589819A81845B69
:101B20009F4F880F991F820F931F22E030E0FC0126
:101B30003183208389819A8101969A83898389815F
:101B40009A810A970CF4D6CE1A82198246C02F8148
:101B5000388589819A81845B9F4F880F991F820FF6
:101B6000931FFC01808191818130910519F00297CA
:101B700081F02EC02F81388589819A814596880F02
:101B8000991F820F931FFC0180819181FC010995AF
:101B90001FC02F81388589819A814596880F991FAA
:101BA000820F931FFC0180819181FC0109958F8137
:101BB0009885FC01808191810896FC01208131810A
:101BC00049815A818F819885BA01F90109950000F0
:101BD00089819A8101969A83898389819A810A975A
:101BE0000CF4B5CF2896E6E00C945C33A4E0B0E0AA
:101BF000ECEFFDE00C9444339C838B838B819C81C0
:101C000084559F4FFC01808191810A971CF08FEFD2
:101C10009FEF1FC01A82198216C02B813C818981D7
:101C20009A814596880F991F820F931FFC0180812E
:101C30009181892B19F489819A810BC089819A81BC
:101C400001969A83898389819A810A9734F38FEF69
:101C50009FEF2496E2E00C946033ACE0B0E0E3E365
:101C6000FEE00C9442339C838B834D835E836F83B1
:101C700078873A8729871C870B878B819C81B6DF01
:101C80009A83898389819A8199231CF48FEF9FEF2E
:101C90006BC089859A85892B19F48FEF9FEF64C0FB
:101CA0002B813C8189819A81880F991F880F991F08
:101CB000820F931F9C01225C3F4F8D819E81AF81DB
:101CC000B885F90180839183A283B3832B813C8102
:101CD00089819A814596880F991F820F931F2985C4
:101CE0003A85FC01318320832B813C8189819A8153
:101CF000C396880F991F820F931F2B853C85FC018B
:101D0000318320832B813C8189819A81820F931FAB
:101D100082579F4F21E0FC01208365DDDC01CB0170
:101D20004B815C8129813A81220F331F220F331F9F
:101D3000240F351F2E5F3F4FF90180839183A283CB
:101D4000B3838B819C8184559F4FFC01808191815D
:101D50009C012F5F3F4F8B819C8184559F4FFC01DD
:101D60003183208389819A812C96E4E00C945E3340
:101D7000A8E0B0E0EEEBFEE00C9440339A83898358
:101D80004B835C836D837E8338872F8389819A811F
:101D9000DC018D919C910696DC01ED91FC912F81E7
:101DA00038858B819C81AD81BE81E980FA8000E01D
:101DB00010E0AC01BD01C70109952896E6E00C943E
:101DC0005C33A8E0B0E0E7EEFEE00C9440339A8389
:101DD00089834B835C836D837E8338872F838981DE
:101DE0009A81DC018D919C910696DC01ED91FC912C
:101DF0002F8138858B819C81AD81BE81E980FA80FD
:101E000001E010E0AC01BD01C70109952896E6E0AC
:101E10000C945C33A4E0B0E0E0E1FFE00C944433C8
:101E20009A8389837C836B838B819C810A970CF0D6
:101E300069C089819A8184559F4FFC01808191817D
:101E4000892B09F45FC029813A818B819C81459659
:101E5000880F991F820F931FFC0180819181892B2C
:101E600009F450C029813A818B819C814596880F65
:101E7000991F820F931FFC011182108229813A81E0
:101E80008B819C81820F931F82579F4FFC01108290
:101E900029813A818B819C81845B9F4F880F991F98
:101EA000820F931FFC011182108229813A818B815C
:101EB0009C81880F991F880F991F820F931FCE96C0
:101EC000FC01108211821282138229813A818B8156
:101ED0009C81CD96880F991F820F931FFC01118260
:101EE000108289819A8184559F4FFC018081918164
:101EF0009C012150310989819A8184559F4FFC01B1
:101F0000318320832496E2E00C946033A4E0B0E0B7
:101F1000ECE8FFE00C9444339A8389837C836B83E1
:101F20008B819C810A970CF014C05DDCDC01CB0135
:101F300049815A812B813C81220F331F220F331F8D
:101F4000240F351F2E5F3F4FF90180839183A283B9
:101F5000B3832496E2E00C946033A4E0B0E0E3EBBA
:101F6000FFE00C9444339A8389837C836B838B8159
:101F70009C810A9714F080E00AC029813A818B8104
:101F80009C81820F931F82579F4FFC018081249672
:101F9000E2E00C946033A4E0B0E0E1EDFFE00C94EB
:101FA00044339A8389837C836B838B819C810A97DA
:101FB0000CF00BC029813A818B819C81820F931F89
:101FC00082579F4F21E0FC0120832496E2E00C948D
:101FD0006033A4E0B0E0EFEEFFE00C9444339A836A
:101FE00089837C836B838B819C810A970CF00AC068
:101FF00029813A818B819C81820F931F82579F4F49
:10200000FC0110822496E2E00C946033CF92EF92B0
:102010000F93CF93DF9300D0CDB7DEB79A83898338
:1020200089819A810F2EF7E0CF2EF02D0F2EF6E04A
:10203000EF2EF02D05E024E049E068E021D8898109
:102040009A812CE931E0FC013183208389819A81D6
:102050002AE0E5E1F1E0DC01589601900D922A9525
:10206000E1F789819A8125E030E0FC0133A322A3C6
:1020700089819A8108D00F900F90DF91CF910F91B5
:10208000EF90CF900895A2E0B0E0E9E4F0E10C9485
:1020900044339A83898389819A8120E042E060E118
:1020A000BDD889819A81B4D989819A8140E060E064
:1020B000C3D92296E2E00C946033A4E0B0E0E3E6FA
:1020C000F0E10C9444339A8389837C836B832B8166
:1020D00089819A81422F60E0AFD92FE833E089816E
:1020E0009A81B9010E944D2C2496E2E00C94603351
:1020F000A6E0B0E0EEE7F0E10C9444339A838983E4
:102100007C836B835E834D832B813C8189819A81A3
:10211000B901D3DF2B8189819A81422F60E08CD96C
:1021200089819A812D813E81B9010E94712C269668
:10213000E2E00C946033A4E0B0E0E1EAF0E10C945A
:1021400044339C838B838B819C8169D09A83898360
:1021500089819A818230910591F0833091052CF428
:10216000009749F0019749F010C08330910549F07C
:10217000049749F00AC080E009C081E007C082E00E
:1021800005C083E003C084E001C085E02496E2E05E
:102190000C946033A6E0B0E0E0EDF0E10C94443341
:1021A0009C838B837E836D831A8219821AC02B8154
:1021B0003C8189819A810C96880F991F820F931F09
:1021C000FC01808191819C018D819E818217930702
:1021D00018F489819A811FC089819A8101969A8316
:1021E00089838B819C81FC0122A133A189819A8101
:1021F00082179307E4F28B819C81FC0122A133A119
:1022000089819A818217930724F08FEF9FEF9A8339
:10221000898389819A812696E2E00C946033A6E056
:10222000B0E0E5E1F1E10C9444339E838D8380E0DE
:102230000E94532F9A83898329813A818D819E81BF
:10224000B901A8DF9C838B838B819C812696E2E079
:102250000C946033A4E0B0E0E0E3F1E10C9444338B
:102260009A8389837C836B838B819C812496E2E0B3
:102270000C946033AAE0B0E0E0E4F1E10C94423366
:102280009A87898789859A85A4D18C0189859A85C1
:102290008FD120E030E0A901B801B7D1DC01CB013A
:1022A00089839A83AB83BC8389859A85E8D1CC01E5
:1022B000A0E0B0E0BC01CD010E942D29DC01CB01E2
:1022C0009C01AD0169817A818B819C810E94942857
:1022D000DC01CB018D839E83AF83B8878D819E8186
:1022E000AF81B885BC01CD012A96E4E00C945E3341
:1022F000CF92DF92EF92FF92CF93DF93CDB7DEB70D
:1023000066970FB6F894DEBF0FBECDBF988B8F8750
:102310007A8B698B1F82188619861A8689899A8911
:10232000181619065CF080EA93E0BC018CE695E093
:102330000E94892C80E090E0DC012BC189899A8978
:1023400005970CF049C01A82198220C089819A81B0
:10235000880F991F2F853889820F931FFC01808178
:102360009181092E000CAA0BBB0B2F813885498562
:102370005A85820F931FA41FB51F8F839887A98743
:10238000BA8789819A8101969A83898329813A81C2
:1023900089899A8928173907CCF289899A899C01F9
:1023A000990F440B550B8F819885A985BA85BC017F
:1023B000CD010E940833DA01C901BC01CD010E94A0
:1023C0002F29DC01CB018B879C87AD87BE878B854E
:1023D0009C85AD85BE85DDC08F859889FC012081F7
:1023E00031818F8598890296FC018081918128171F
:1023F00039077CF48F859889FC01808191819E83C7
:102400008D838F859889FC01828193819C838B8346
:102410000EC08F859889FC01828193819E838D8374
:102420008F859889FC01808191819C838B8382E0D8
:1024300090E09A83898380C089819A81880F991F4F
:102440002F853889820F931FFC01208131818D8176
:102450009E812817390704F58D819E81092E000C75
:10246000AA0BBB0B2F81388549855A85820F931F94
:10247000A41FB51F8F839887A987BA8789819A81FE
:10248000880F991F2F853889820F931FFC01808147
:1024900091819E838D834BC089819A81880F991F7A
:1024A0002F853889820F931FFC01208131818B8118
:1024B0009C818217930704F58B819C81092E000C67
:1024C000AA0BBB0B2F81388549855A85820F931F34
:1024D000A41FB51F8F839887A987BA8789819A819E
:1024E000880F991F2F853889820F931FFC018081E7
:1024F00091819C838B831BC089819A81880F991F4E
:102500002F853889820F931FFC0180819181092ECC
:10251000000CAA0BBB0B2F81388549855A85820F89
:10252000931FA41FB51F8F839887A987BA878981B6
:102530009A8101969A83898329813A8189899A8926
:10254000281739070CF478CF6F81788589859A85AB
:102550000E942F296B017C0189899A890297092E93
:10256000000CAA0BBB0BBC01CD010E942F29DC0182
:10257000CB019C01AD01C701B6010E949428DC018A
:10258000CB018B879C87AD87BE878B859C85AD856E
:10259000BE85BC01CD0166960FB6F894DEBF0FBEB6
:1025A000CDBFDF91CF91FF90EF90DF90CF90089556
:1025B000A2E0B0E0EEEDF2E10C9444339A8389831B
:1025C00089819A81FC01808191812296E2E00C94BC
:1025D0006033A2E0B0E0EFEEF2E10C9444339A8372
:1025E000898389819A81FC012081318189819A8145
:1025F000FC0184819581880F991F880F991F820F94
:10260000931F2296E2E00C946033A8E0B0E0EBE088
:10261000F3E10C9444339A8389837C836B832D8309
:102620003E834F8358871AC089819A81FC0180813B
:102630009181A281B3819C01AD016D817E818F81E9
:1026400098850E942C28DC01CB018D839E83AF836B
:10265000B88789819A8104969A83898329813A81EE
:102660008B819C8128173907F9F68D819E81AF8176
:10267000B885BC01CD012896E2E00C946033A2E05D
:10268000B0E0E5E4F3E10C9444339A8389838981D3
:102690009A81FC01848195812296E2E00C9460335A
:1026A000A2E0B0E0E6E5F3E10C9444339A83898339
:1026B0002296E2E00C946033A2E0B0E0E2E6F3E1BF
:1026C0000C9444339A8389832296E2E00C9460331D
:1026D000A4E0B0E0EEE6F3E10C9444339C838B83FA
:1026E0001A82198217C08B819C81FC012081318163
:1026F00089819A81880F991F880F991F280F391F88
:102700008B819C810696B901A2D089819A8101961C
:102710009A8389838B819C81FC0124813581898105
:102720009A8182179307F8F28B819C81FC01428188
:1027300053818B819C81FC01208131818B819C8123
:102740000696B90192D08B819C810696B5DF2496BE
:10275000E2E00C946033A6E0B0E0E1EBF3E10C942E
:1027600044339A8389837C836B835E834D838B811F
:102770009C81880F991F880F991F0E940A2C26960A
:10278000E2E00C946033A8E0B0E0E9ECF3E10C94F3
:1027900044339C838B837E836D8358874F838B81E7
:1027A0009C81FC01248135818D819E812817390708
:1027B00008F043C08B819C81FC01228133818D8193
:1027C0009E812817390748F48D819E819C01285FDE
:1027D0003F4F8B819C81B9015CD08B819C81FC0136
:1027E000848195819A83898319C08B819C81FC01A6
:1027F0002081318189819A81880F991F880F991FC3
:10280000280F391F8B819C8106964F815885B9010D
:10281000C7D089819A8101969A83898329813A81D7
:102820008D819E812817390700F38B819C812D8132
:102830003E81FC013583248306C02D813E818B813E
:102840009C81B901D3D02896E2E00C946033A4E0D7
:10285000B0E0EDE2F4E10C9444339A8389837C8305
:102860006B832496E2E00C946033A6E0B0E0EBE3E7
:10287000F4E10C9444339A8389837C836B835E8375
:102880004D838B819C810E940B2C2696E2E00C9458
:102890006033AAE0B0E0EFE4F4E10C9444339887AD
:1028A0008F837A8769878F819885FC0122813381A4
:1028B00089859A852817390708F06EC08F81988519
:1028C000FC01808191819C838B838F819885FC01A1
:1028D000828193819E838D838F81988529853A8516
:1028E000FC01338322838F819885FC01228133810F
:1028F0008F819885069640E050E0B9012CDF9C015D
:102900008F819885FC01318320831A82198231C01E
:1029100089819A81880F991F880F991F2B813C818B
:10292000A901480F591F8F819885FC0120813181B1
:1029300089819A81880F991F880F991F280F391F45
:102940008F8198850696B9012BD089819A81880F4D
:10295000991F880F991F2B813C81280F391F8F8168
:1029600098850696B90173DF89819A8101969A83C9
:1029700089838F819885FC012481358189819A81A1
:102980008217930728F28F81988506964D815E8184
:102990002B813C81B90169DF2A96E2E00C94603317
:1029A000A6E0B0E0E6EDF4E10C9444339A83898329
:1029B0007C836B835E834D838B819C81BC0184E02F
:1029C00090E048DC9C012115310561F08D819E81EC
:1029D000FC0180819181A281B381F901808391837F
:1029E000A283B3832696E2E00C946033A6E0B0E0C5
:1029F000ECEFF4E10C9444339C838B837E836D83F2
:102A00008B819C81FC01248135818D819E8182177F
:102A1000930768F58D819E819A83898317C08B8186
:102A20009C81FC012081318189819A81880F991FC5
:102A3000880F991F280F391F8B819C810696B90139
:102A400006DF89819A8101969A8389838B819C8193
:102A5000FC012481358189819A8182179307F8F2DC
:102A60008B819C812D813E81FC01358324832696B8
:102A7000E2E00C946033A2E0B0E0E1E4F5E10C9414
:102A800044339A83898389819A81FC018081918171
:102A90002296E2E00C946033A4E0B0E0E2E5F5E1D8
:102AA0000C9444339A8389837C836B8389819A81D4
:102AB0002B813C81B9010E9493302496E2E00C9472
:102AC0006033A4E0B0E0E7E6F5E10C9444339A8388
:102AD00089837C836B8389819A812B813C81FC0172
:102AE000318320832496E2E00C946033A2E0B0E0CE
:102AF000ECE7F5E10C9444339A83898389819A81C8
:102B0000FC01808191810E940D3A2296E2E00C94B2
:102B10006033A2E0B0E0EFE8F5E10C9444339A832F
:102B2000898389819A81E2DF2296E2E00C94603306
:102B3000A3E0B0E0EEE9F5E10C9444339A83898395
:102B40006B8389819A81FC01808191816B810E94D4
:102B5000153A89819A812396E2E00C946033A3E0D0
:102B6000B0E0E5EBF5E10C9444339A8389836B8301
:102B700089819A81CEDF982F8B81981729F08981DE
:102B80009A816B81D5DF02C089819A812396E2E028
:102B90000C946033A6E0B0E0E0EDF5E10C94443332
:102BA0009C838B837E836D838D819E81BC01CE014E
:102BB000019687DF89819A812696E2E00C94603342
:102BC000AAE0B0E0E6EEF5E10C9442339E838D83FB
:102BD00078876F835A8749871A8219821DC00D81B1
:102BE0001E81C80101979E838D838F8198859C01EA
:102BF0002F5F3F4F38872F83BC0187EE92E0CADFFB
:102C00009C838B83CE01039684DFF80180838981C6
:102C10009A8101969A83898329813A8189859A8547
:102C200028173907E0F22A96E4E00C945E33ABE013
:102C3000B0E0EDE1F6E10C9444339F838E83798715
:102C400068875B874A871A82198220C08E819F819C
:102C5000FC0180818B83888599859C012F5F3F4F84
:102C600039872887BC0187EE92E094DF9D838C83AF
:102C7000CE0104966B8173DF8E819F8101979F83C4
:102C80008E8389819A8101969A83898329813A81E9
:102C90008A859B8528173907C8F22B96E2E00C94A9
:102CA0006033A4E0B0E0E7E5F6E10C9444339A83A6
:102CB00089837C836B8389819A812DEC31E0FC01CF
:102CC000318320838B819C81FC0122813381898126
:102CD0009A81FC01338322832496E2E00C946033D2
:102CE000A4E0B0E0E6E7F6E10C9444339A838983EC
:102CF0007C836B832B813C8189819A81B901D1DFEF
:102D000089819A812EE731E0FC01318320838B8118
:102D10009C81FC01248189819A81FC0124838B811F
:102D20009C81FC01258189819A81FC0125838B810D
:102D30009C81FC01268189819A81FC0126838981FD
:102D40009A812B813C8148E0F9013796DC01179686
:102D500001900D924A95E1F78B819C81FC012785BA
:102D600089819A81FC0127878B819C81FC012089C4
:102D700089819A81FC01208B8B819C81FC012189B6
:102D800089819A81FC01218B8B819C81FC012289A4
:102D900089819A81FC01228B8B819C81FC01238992
:102DA00089819A81FC01238B29813A818B819C81C5
:102DB000FC0184899589A689B789F901848B958B53
:102DC000A68BB78B2496E2E00C946033A4E0B0E0CD
:102DD000ECEEF6E10C9444339A8389837C836B8315
:102DE0002B813C8189819A81B9017ADF89819A811D
:102DF0002CE931E0FC013183208389819A812B8188
:102E00003C814AE0F9017896DC01589601900D92D8
:102E10004A95E1F78B819C81FC0122A133A1898134
:102E20009A81FC0133A322A32496E2E00C94603340
:102E3000ACE0B0E0EEE1F7E10C9440339B838A8391
:102E40007D836C835F834E8328871A870987FC867E
:102E5000EB868A819B812C813D81FC01318320831B
:102E60008A819B818E5A9F4FFC01118210828A8138
:102E70009B818C5A9F4F2E813F81FC01318320839F
:102E8000CE0101960DDC8A819B818A5A9F4F9E015B
:102E90002F5F3F4FB9014ED5CE0101960DDC8A81DF
:102EA0009B81835A9F4FFC01118210828A819B81F2
:102EB00085599F4F2885FC0120838A819B818459F5
:102EC0009F4F2B853C85FC01318320838A819B8128
:102ED00081599F4FFC01118210828A819B818F58FA
:102EE0009F4F29853A85B90171DF8A819B818B5675
:102EF0009F4F6FE171E00E9493308A819B818556DC
:102F00009F4F6FE171E00E9493308A819B819C0109
:102F10002F553F4F80E090E0A0E4B0E4F9018083BA
:102F20009183A283B3838A819B8104D02C96E6E0AF
:102F30000C945C33A6E0B0E0E0EAF7E10C94443393
:102F40009E838D8361E08DE00E94992F8D819E810B
:102F500084599F4FFC018081918161E00E94992FEB
:102F60008091A0019091A10117D5DC01CB0189834B
:102F70009A83AB83BC8329813A814B815C816981CF
:102F80007A818B819C810E94462A882371F48D81ED
:102F90009E819C012F553F4F89819A81AB81BC81D5
:102FA000F90180839183A283B3832696E2E00C9497
:102FB0006033AAE0B0E0EFEDF7E10C9444339E8378
:102FC0008D834F83588769877A878D819E819C0185
:102FD0002F553F4F8F819885A985BA85F901808348
:102FE0009183A283B3838D819E818F559F4FFC0176
:102FF00080819181A281B38189839A83AB83BC83D1
:103000008091A0019091A1019C01CE010196BC018B
:10301000C901D5D42A96E2E00C946033AEE0B0E06A
:10302000E4E1F8E10C9444339E878D878D859E857D
:10303000815A9F4FFC0180819181A281B381FE0161
:10304000379622E0AC01BD01CF010E940331CE01D1
:10305000079611DD9C018D859E858B569F4FB9018A
:103060000E94C430CE0107960E942C308D859E852B
:103070008D599F4FFC0180819181A281B38122E013
:10308000AC01BD01CE0101960E940331CE01019633
:10309000F2DC9C018D859E8585569F4FB9010E946B
:1030A000C430CE0101960E942C308D859E85815AB8
:1030B0009F4FFC0180819181A281B381BC01CD0130
:1030C0002E96E2E00C946033ACE2B0E0EAE6F8E180
:1030D0000C9440339CA78BA78BA59CA582599F4F2E
:1030E000FC01908181E08927882309F0A4C18BA588
:1030F0009CA5A5D1DC01CB012BA53CA5215A3F4FB6
:10310000F90180839183A283B38388EE92E0FC016E
:103110008081882389F40E94A32EDC01CB01809357
:10312000000390930103A0930203B093030388EE7E
:1031300092E021E0FC0120830E94A32E9B01AC01C0
:103140008091000390910103A0910203B0910303C9
:1031500079018A01E81AF90A0A0B1B0BD801C70189
:1031600021E081369A4EA105B10508F420E0222322
:1031700009F461C119821A821B821C828BA59CA54D
:103180008A5A9F4F7CDA21E0059708F020E022233D
:10319000D1F18BA59CA5815A9F4FFC018081918123
:1031A000A281B3818BA39CA3ADA3BEA38BA59CA539
:1031B0008A5A9F4F9E012D5D3F4FB90114D48BA5B4
:1031C0009CA59C012A5A3F4FCE014C96B90127D4A9
:1031D000CE014C964FD8DC01CB0189839A83AB8317
:1031E000BC83CE014C9674DA8BA59CA59C012D590D
:1031F0003F4F89819A81AB81BC81F90180839183A2
:10320000A283B38318C18BA59CA59C012A5A3F4F6A
:10321000CE014596B90103D4CE0145962BD8DC01E9
:10322000CB0189839A83AB83BC83CE01459650DA68
:103230008BA59CA5815A9F4FFC0180819181A28121
:10324000B38129813A814B815C81BC01CD010E940F
:103250002C28DC01CB0120E030E040E050E4BC0150
:10326000CD010E949428DC01CB018FA398A7A9A7C8
:10327000BAA72FA138A549A55AA58BA59CA5815A07
:103280009F4FFC0180819181A281B381EBA5FCA5B8
:1032900089019A01AC01BD01CF01F3D28D838D81EB
:1032A0008823D9F08BA59CA581599F4FFC01808173
:1032B00091810A9794F48BA59CA581599F4FFC019D
:1032C000808191819C012F5F3F4F8BA59CA58159E7
:1032D0009F4FFC0131832083AEC08BA59CA58159F3
:1032E0009F4FFC011182108288E290E09F838E83C1
:1032F0008BA59CA58A5A9F4FC2D999878887288514
:1033000039858E819F8128173907ECF48AEC93E088
:10331000BC018CE695E00E944D2C8FA198A5A9A533
:10332000BAA522E030E0AC01BD018CE695E00E9438
:10333000492E8BA59CA58A5A9F4F9E01295D3F4F20
:10334000B90151D335C089ED93E0BC018CE695E01D
:103350000E944D2C8FA198A5A9A5BAA522E030E026
:10336000AC01BD018CE695E00E94492E8BA59CA581
:10337000835A9F4FFC0180819181AC014F5F5F4F69
:103380002BA53CA5235A3F4FF901518340839C0153
:103390008BA59CA58A5A9F4FB901B1D39C018FA1DF
:1033A00098A5A9A5BAA5F90180839183A283B383C7
:1033B0008BA59CA5835A9F4FFC01208131818E8172
:1033C0009F812817390739F48BA59CA5835A9F4FF5
:1033D000FC01118210828BA59CA59C012A5A3F4FAB
:1033E000CE010E96B9011BD3CE010E960E943A1162
:1033F000DC01CB018A879B87AC87BD87CE010E9607
:1034000067D98BA59CA59C012D593F4F8A859B852B
:10341000AC85BD85F90180839183A283B3830E942B
:10342000A32EDC01CB018093000390930103A093B2
:103430000203B0930303AC96E6E00C945C33ACE07B
:10344000B0E0E5E2FAE10C9440339C878B8780EF93
:1034500092E0FC018081882389F40E94A32EDC0184
:10346000CB018093040390930503A0930603B093CC
:10347000070380EF92E021E0FC0120830E94A32E4D
:103480009B01AC018091040390910503A091060378
:10349000B091070379018A01E81AF90A0A0B1B0B9C
:1034A000D801C70121E0893E9340A105B10508F488
:1034B00020E0222309F4C6C088E290E09E838D8339
:1034C0008B859C858E5A9F4FFC010081118198014C
:1034D0002F5F3F4F8B859C858E5A9F4FFC01318318
:1034E00020838B859C85FC01808191810E94532FD4
:1034F000AC012B853C85C8010196880F991F820F6E
:10350000931FFC01518340838B859C858E5A9F4F6E
:10351000FC01208131818D819E812817390739F482
:103520008B859C858E5A9F4FFC01118210828B8562
:103530009C8502962D813E81B9010E947811DC01A3
:10354000CB018F839887A987BA8720E030E040EAD3
:1035500050E46F81788589859A850E94E329DC0192
:10356000CB0120E030E040E854E4BC01CD010E94F2
:103570009428DC01CB012B853C8529593F4FF9016B
:1035800080839183A283B3838B859C8589599F4FC8
:10359000FC0180819181A281B3819C01AD0160E039
:1035A00070E080E290E40E942B28DC01CB012CEE3D
:1035B00031E548E35EE3BC01CD010E949428DC01C3
:1035C000CB0120E030E040EE50E4BC01CD010E9490
:1035D0002C28DC01CB017C018D018B859C858F55CE
:1035E0009F4FFC0180819181A281B3819C01AD013B
:1035F000C801B7010E942C28DC01CB0189839A8382
:10360000AB83BC8320E030E0A90169817A818B81A2
:103610009C810E949028882324F419821A821B829C
:103620001C820E94A32EDC01CB01809304039093A3
:103630000503A0930603B093070389819A81AB81A8
:10364000BC8109C08B859C85815A9F4FFC0180817C
:103650009181A281B381BC01CD012C96E6E00C944E
:103660005C33A2E0B0E0E7E3FBE10C9444339A83DF
:10367000898389819A810E942C302296E2E00C9401
:103680006033AAE1B0E0E7E4FBE10C9440339A8FA9
:10369000898F898D9A8DC2DC88EF92E0FC01808150
:1036A000882389F40E94A32EDC01CB0180930803B8
:1036B00090930903A0930A03B0930B0388EF92E061
:1036C00021E0FC0120830E94A32E9B01AC0180918C
:1036D000080390910903A0910A03B0910B03281BE2
:1036E000390B4A0B5B0B898D9A8D8C5A9F4FFC01CD
:1036F0008081918180579E4F092E000CAA0BBB0B35
:1037000061E082179307A407B50708F060E066231D
:1037100009F474C0898D9A8D85599F4FFC01808171
:10372000882309F45FC0CE010D966FE171E00E941D
:103730009330898D9A8D82599F4FFC018081882317
:1037400031F0CE010D9660E271E00E94C430898DA7
:103750009A8D8C010B561F4F898D9A8D7C01FBE948
:10376000EF0EF11CCE01079662E271E095D9CE0111
:103770000796B7010E94AB3167E271E00E94BC314D
:10378000B8010E94AB319C01CE010D96BC01C9016C
:103790000E94AB319C01CE014396B9010E94BC301E
:1037A000CE0107965EDFCE014396BC01CE010196A5
:1037B0000E94BC30898D9A8D8F589F4F9E012F5F3C
:1037C0003F4FA90160E070E00E947810CE010196A1
:1037D0000E942C30CE0143960E942C30CE010D96D3
:1037E0000E942C300E94A32EDC01CB0180930803A1
:1037F00090930903A0930A03B0930B036A96E6E043
:103800000C945C33A2E0B0E0E8E0FCE10C944433BB
:103810009A83898389819A8182599F4F21E0FC0193
:10382000208389819A8184599F4FFC0180819181F5
:1038300061E00E94D52F2296E2E00C946033A2E072
:10384000B0E0E5E2FCE10C9444339A8389838981FA
:103850009A8182599F4FFC01108289819A818459F3
:103860009F4FFC018081918160E00E94D52F68EE1E
:1038700073E080E090E00E94D42E2296E2E00C9467
:103880006033A1E1B0E0E7E4FCE10C9442339987B6
:1038900088874A875B876C877D870E871F87288B81
:1038A000398B8DEC9CECACE4BEE389839A83AB83CB
:1038B000BC8329813A814B815C816E857F858889B3
:1038C00099890E942B28DC01CB0111E02A853B85D8
:1038D0004C855D85BC01CD010E94DF2918160CF0D6
:1038E00010E01D8329813A814B815C816E857F8543
:1038F000888999890E942C28DC01CB0111E02A8556
:103900003B854C855D85BC01CD010E9490288823B4
:103910000CF010E01E838D81882319F48E8188239A
:1039200011F081E001C080E08F838F816196E4E037
:103930000C945E33A4E0B0E0E0EAFCE10C94443384
:103940009A8389837C836B8389819A81FC011182AC
:10395000108289819A8128E030E0FC013383228340
:1039600089819A81FC011582148289819A81FC01E6
:103970002281338189819A81069640E050E0B90125
:103980000E94AB139C0189819A81FC0131832083C1
:103990002496E2E00C946033A2E0B0E0E2EDFCE1BA
:1039A0000C9444339A83898389819A81C3D0DC0142
:1039B000CB01BC01CD012296E2E00C946033A4E07F
:1039C000B0E0E5EEFCE10C9444339A8389837C8378
:1039D0006B832B813C8189819A81B901CBD024965C
:1039E000E2E00C946033A4E0B0E0E9EFFCE10C9479
:1039F00044339A8389837C836B8389819A810E9473
:103A00003F139C012F5F3F4F4B815C8189819A81DD
:103A1000B9010E94C3132496E2E00C946033A6E03F
:103A2000B0E0E5E1FDE10C9444339C838B837E831D
:103A30006D838B819C8106960E9450138D819E819F
:103A4000FC01248135818B819C81FC013583248399
:103A50008B819C81FC01848195819C01285F3F4F73
:103A60008B819C81FC01338322838B819C81FC01AF
:103A7000228133818B819C81069640E050E0B90120
:103A80000E94AB139C018B819C81FC0131832083BC
:103A90001A82198226C08D819E81FC01208131818C
:103AA00089819A81880F991F880F991FA901480F52
:103AB000591F8B819C81FC012081318189819A81F0
:103AC000880F991F880F991F280F391F8B819C81A0
:103AD0000696B9010E94D01489819A8101969A8331
:103AE00089838B819C81FC012481358189819A8124
:103AF0008217930780F22696E2E00C946033A4E0EC
:103B0000B0E0E5E8FDE10C9444339A8389837C833B
:103B10006B8389819A81FC01208131818B819C8119
:103B2000880F991F880F991F820F931F2496E2E038
:103B30000C946033A6E0B0E0E0EAFDE10C9444337D
:103B40009E838D838D819E8133D0BC0183E090E084
:103B50009E012F5F3F4F820F931F44E050E030D80B
:103B600089819A81AB81BC81BC01CD012696E2E0BE
:103B70000C946033A4E0B0E0E0ECFDE10C9444333D
:103B80009A8389837C836B8389819A8111D0BC015C
:103B900083E090E02B813C81820F931F44E050E052
:103BA00046D889819A8104D02496E2E00C9460334F
:103BB000A2E0B0E0EEEDFDE10C9444339A838983FA
:103BC00089819A812296E2E00C946033ABE0B0E008
:103BD000ECEEFDE10C9440339A8389837C836B8304
:103BE0005E834D832F8319870887FB86EA86898148
:103BF0009A812B813C81FC013183208389819A81C8
:103C00008E5A9F4FFC011182108289819A818C5AB1
:103C10009F4F2D813E81FC013183208389819A81D0
:103C20008E599F4F2F81FC01208389819A818D5964
:103C30009F4F2A853B85FC013183208389819A81AE
:103C40008A599F4FFC011182108289819A8188597B
:103C50009F4F28853985B901B9D889819A818457C0
:103C60009F4F6AE271E00E94933089819A818E565B
:103C70009F4F6AE271E00E94933089819A81885651
:103C80009F4F2AEB34E0FC013183208389819A81A4
:103C900004D02B96E6E00C945C33A6E0B0E0E3E5BC
:103CA000FEE10C9444339E838D8361E08DE00E949D
:103CB000992F8D819E818D599F4FFC01808191812B
:103CC00061E00E94992F8091A0019091A10104963A
:103CD000AAD3092E000CAA0BBB0BBC01CD010E947C
:103CE0002F29DC01CB0189839A83AB83BC83298193
:103CF0003A814B815C8169817A818B819C810E94B0
:103D0000462A882381F469817A818B819C810E9473
:103D1000FC28DC01CB019C018D819E8188569F4F40
:103D2000FC01318320832696E2E00C946033A4E00A
:103D3000B0E0EDE9FEE10C9444339A8389837C83FF
:103D40006B8389819A8188569F4F2B813C81FC012E
:103D50003183208389819A819C0128563F4F80912D
:103D6000A0019091A1010496B9016CD32496E2E0E0
:103D70000C946033AEE0B0E0E0ECFEE10C94443330
:103D80009E878D878D859E858A5A9F4FFC018081F5
:103D90009181A281B381FE01379620E0AC01BD0183
:103DA000CF010E940331CE0107960E943B159C0172
:103DB0008D859E8584579F4FB9010E94C430CE01E6
:103DC00007960E942C308D859E85865A9F4FFC0158
:103DD00080819181A281B38120E0AC01BD01CE013F
:103DE00001960E940331CE0101960E943B159C0171
:103DF0008D859E858E569F4FB9010E94C430CE019D
:103E000001960E942C308D859E858A5A9F4FFC0119
:103E100080819181A281B381BC01CD012E96E2E027
:103E20000C946033AAE1B0E0E8E1FFE10C94403388
:103E30009A8F898F898D9A8D9DDF8CE093E0FC01AC
:103E40008081882389F40E94A32EDC01CB0180931A
:103E5000240390932503A0932603B09327038CE0BB
:103E600093E021E0FC0120830E94A32E9B01AC0182
:103E70008091240390912503A0912603B0912703FC
:103E8000281B390B4A0B5B0B898D9A8D8C5A9F4FDF
:103E9000FC018081918180579E4F092E000CAA0B56
:103EA000BB0B61E082179307A407B50708F060E039
:103EB000662309F47FC0898D9A8D8E599F4FFC012E
:103EC0008081882309F460C0CE010D966AE271E01A
:103ED0000E949330898D9A8D8B599F4FFC01808170
:103EE000882331F0CE010D966BE271E00E94C43060
:103EF000898D9A8D8C0104571F4F898D9A8D7C0175
:103F0000F2E9EF0EF11CCE0107966DE271E00E941E
:103F10004C15CE010796B7010E94AB3163E371E007
:103F20000E94BC31B8010E94AB319C01CE010D96BC
:103F3000BC01C9010E94AB319C01CE014396B9017D
:103F40000E94BC30CE0107968CDBCE014396BC01AB
:103F5000CE0101960E94BC30898D9A8D88599F4F61
:103F60009E012F5F3F4FA90161E070E00E94781031
:103F7000CE0101960E942C30CE0143960E942C3037
:103F8000CE010D960E942C308DE00E940430982FB7
:103F900081E08927682F8DE00E94D52F0E94A32EF3
:103FA000DC01CB018093240390932503A093260387
:103FB000B09327036A96E6E00C945C33A2E0B0E08D
:103FC000E4EEFFE10C943E339A83898389819A81E0
:103FD0008B599F4FFC01908181E08927882309F04C
:103FE00017C189819A8118D1DC01CB0129813A81DD
:103FF0002A5A3F4FF90180839183A283B383898139
:104000009A818A599F4FFC01808191810297DCF44B
:1040100089819A818A599F4F21E030E0FC013183E8
:10402000208389819A818A5A9F4FFC0180819181E6
:10403000A281B38129813A81225A3F4FF9018083BD
:104040009183A283B38384E193E0FC018081882380
:1040500089F40E94A32EDC01CB0180932803909366
:104060002903A0932A03B0932B0384E193E021E07A
:10407000FC0120830E94A32E9B01AC0180912803A8
:1040800090912903A0912A03B0912B0379018A0111
:10409000E81AF90A0A0B1B0BD801C70121E0813687
:1040A0009A4EA105B10508F420E0222309F44BC083
:1040B00089819A81B1D0DC01CB0129813A812A5AC8
:1040C0003F4FF90180839183A283B38389819A81D1
:1040D000825A9F4FFC0180819181A281B381298105
:1040E0003A812A5A3F4FF90120813181428153811F
:1040F000BC01CD01B1D7DC01CB0129813A81225A23
:104100003F4FF90180839183A283B38389819A8190
:104110008A599F4FFC01808191819C012F5F3F4F05
:1041200089819A818A599F4FFC01318320830E94A3
:10413000A32EDC01CB018093280390932903A09345
:104140002A03B0932B0389819A81825A9F4FFC01E5
:10415000C080D180E280F38089819A818A599F4F03
:10416000FC0180819181092E000CAA0BBB0BBC01C4
:10417000CD010E942F29DC01CB019C01AD01C701BB
:10418000B601D2D7DC01CB0129813A81265A3F4FB3
:10419000F90180839183A283B38389819A81865AAE
:1041A0009F4FFC0180819181A281B38129813A8155
:1041B0002A5A3F4FF9012081318142815381BC014C
:1041C000CD014AD7DC01CB0120E030E040E050E4F3
:1041D000BC01CD01A9D7DC01CB0129813A81265A46
:1041E0003F4FF90180839183A283B38389819A81B0
:1041F0008A599F4FFC01808191810B974CF08981F6
:104200009A818A599F4F21E030E0FC01318320835D
:104210002296E8E00C945A33A0E1B0E0E2E1F1E24A
:104220000C944033988B8F878CE193E0FC01808164
:10423000882389F40E94A32EDC01CB0180932C03F8
:1042400090932D03A0932E03B0932F038CE193E062
:1042500021E0FC0120830E94A32E9B01AC018091F0
:104260002C0390912D03A0912E03B0912F0379017F
:104270008A01E81AF90A0A0B1B0BD801C70121E0D1
:10428000853F9140A105B10508F420E0222309F4FF
:104290007CC088E290E09A8389838F8598898E5AC2
:1042A0009F4FFC010081118198012F5F3F4F8F8547
:1042B00098898E5A9F4FFC01318320838F8598897E
:1042C000FC01808191810E94532FAC012F85388998
:1042D000C8010196880F991F820F931FFC0151831B
:1042E00040838F8598898E5A9F4FFC0120813181B0
:1042F00089819A812817390739F48F8598898E5AD0
:104300009F4FFC01118210828F8598890296298126
:104310003A81B9010E947811DC01CB018B839C8327
:10432000AD83BE8320E030E040EA5BE36B817C81BB
:104330008D819E810E94E329DC01CB018F839887C8
:10434000A987BA878F85988988569F4FFC018081FD
:104350009181092E000CAA0BBB0BBC01CD017FD7AC
:10436000DC01CB012F81388549855A85BC01CD01FF
:104370000E94E329DC01CB018B879C87AD87BE8738
:104380008B859C85AD85BE8509C08F8598898A5AA5
:104390009F4FFC0180819181A281B381BC01CD013D
:1043A0006096E6E00C945C33A2E0B0E0EAEDF1E266
:1043B0000C9444339A83898389819A818B599F4FC6
:1043C00021E0FC01208389819A818D599F4FFC0156
:1043D0008081918161E00E94D52F2296E2E00C94C9
:1043E0006033A2E0B0E0E7EFF1E20C9444339A834B
:1043F000898389819A818B599F4FFC011082898121
:104400009A818D599F4FFC018081918160E00E94CB
:10441000D52F68EE73E080E090E00E94D42E2296C3
:10442000E2E00C946033A2E0B0E0E9E1F2E20C9447
:1044300044339A83898389819A8118D02296E2E055
:104440000C946033A4E0B0E0E8E2F2E20C94443370
:104450009A8389837C836B832B813C8189819A81B8
:10446000B90121D02496E2E00C946033A4E0B0E0DE
:10447000ECE3F2E20C9444339C838B838B819C812C
:1044800031D0BC0181E090E09E012F5F3F4F820F51
:10449000931F42E050E00E94E01589819A812496A2
:1044A000E2E00C946033A4E0B0E0E9E5F2E20C94C1
:1044B00044339A8389837C836B8389819A8112D068
:1044C000BC0181E090E02B813C81820F931F42E090
:1044D00050E00E94171689819A8104D02496E2E068
:1044E0000C946033A2E0B0E0E8E7F2E20C944433CD
:1044F0009A83898389819A812296E2E00C946033C1
:10450000A2E0B0E0E6E8F2E20C9444339A838983B7
:1045100089819A81FC01848195812296E2E00C9444
:104520006033A4E0B0E0E7E9F2E20C9444339A830C
:1045300089837C836B832B813C8189819A81B9013A
:104540000E948B3189819A812496E2E00C94603339
:10455000A4E0B0E0EEEAF2E20C9444339A8389835B
:104560007C836B832B813C8189819A81B9010E9474
:10457000D3312496E2E00C946033A0E0B0E0E3ECA9
:10458000F2E20C94443389EE93E0BC018CE695E0B2
:104590000E944D2C4AE050E068E08CE695E00E94D5
:1045A000632D68E089E892E00E942A056FED73E2CE
:1045B00089E892E00E949D0665EE72E289E892E049
:1045C0000E948906E2E00C946033A7E2B0E0EBEED3
:1045D000F2E20C9443339FA38EA366E371E080E381
:1045E00093E00E94C43066E371E08CE393E00E94A4
:1045F000C43066E371E082E493E00E94C4308EA18F
:104600009FA1449709F0C7C00AC089E892E00E94C0
:10461000D0058983698180E393E00E94993189E81C
:1046200092E00E94B80521E0181619060CF020E06F
:10463000222359F780E393E00E947A32CE01449618
:1046400067E371E00E949330CE014496BC0180E3A1
:1046500093E00E94163211E0882309F410E0CE01A5
:1046600044960E942C301123A1F060E373E08CE3A8
:1046700093E00E94A73082EF93E0BC018CE695E0C6
:104680000E944D2C6CE373E08CE695E00E94992C1F
:1046900092C060E373E082E493E00E94A73088EF69
:1046A00093E0BC018CE695E00E944D2C62E473E03F
:1046B0008CE695E00E94992CCE010E9662E473E0A0
:1046C0000E94BC30CE014A96BE01625F7F4F20E05F
:1046D00030E04DE3D1D1CE010E960E942C30CE01B8
:1046E000089662E473E00E94BC30CE018096BE0161
:1046F000685F7F4F21E030E04DE3BED1CE010896E8
:104700000E942C30CE014A9669E371E021DF982F98
:1047100081E0992309F480E0882389F0CE01809616
:104720000E94D132DC01CB019B838A838091A60158
:104730009091A7012A813B81B901F9DA23C0CE010A
:104740004A9663E471E004DF982F81E0992309F42D
:1047500080E08823B9F0CE0180960E94DB32DC0134
:10476000CB018C839D83AE83BF832091A4013091C4
:10477000A5018C819D81AE81BF81AC01BD01C901C4
:104780000E94D917CE0180960E942C30CE014A9605
:104790000E942C3010C082E094E0BC018CE695E0D1
:1047A0000E944D2C8EA19FA14AE050E0BC018CE6F6
:1047B00095E00E94422DA796E3E00C945F33AEE1B2
:1047C000B0E0E5EEF3E20C944233CE01499666E3A5
:1047D00071E00E94933067E371E08CE393E0B8DE10
:1047E000982F81E0992309F480E08823C1F0CE015D
:1047F00049966CE471E00E94C4309E01275E3F4FF1
:10480000CE014396B9010E94BC30CE014396E4D05C
:10481000CE0143960E942C3000E010E0D1C0809180
:10482000060190910701019690930701809306017C
:104830008091060190910701892B69F48091A40170
:104840009091A5019C012B563F4FCE014996B9018D
:104850000E94A730A5C080910601909107010197A1
:1048600069F48091A4019091A5019C0125563F4FC8
:10487000CE014996B9010E94A73092C080910601ED
:1048800090910701029769F48091A6019091A70188
:104890009C0124573F4FCE014996B9010E94A73091
:1048A0007FC08091060190910701039769F4809180
:1048B000A6019091A7019C012E563F4FCE0149962B
:1048C000B9010E94A7306CC0809106019091070148
:1048D000049711F58091A4019091A5018F559F4FE8
:1048E000FC0180819181A281B381FE013D9622E08D
:1048F000AC01BD01CF010E943131CE010D960E9465
:104900003B159C01CE014996B9010E94C430CE01ED
:104910000D960E942C3044C08091060190910701B1
:10492000059721F58091A6019091A70188569F4F88
:10493000FC0120813181CE0107964AE0B9010E9435
:10494000D930CE0107960E943B159C01CE014996B5
:10495000B9010E94C430CE0107960E942C308FEF1F
:104960009FEF90930701809306011AC088E294E0BC
:10497000BC018CE695E091D78091060190910701EA
:104980004AE050E0BC018CE695E00E94422D8FEF9A
:104990009FEF909307018093060100E010E010C0A4
:1049A000CE014996BC01CE0101960E94BC30CE01D9
:1049B000019612D0CE0101960E942C3001E010E049
:1049C000CE0149960E942C300130110509F40000F7
:1049D0006E96E4E00C945E33A2E1B0E0E2EFF4E224
:1049E0000C9444339A8B898B89899A8989DD9C013F
:1049F0008AE090E0821B930B9E838D831A8219823A
:104A00000AC089899A8962E571E08BDD89819A8182
:104A100001969A83898329813A818D819E81281705
:104A200039077CF31C821B8216C02B813C8189894B
:104A30009A89B9010E943532482F9E01295F3F4F64
:104A40008B819C81820F931FFC0140838B819C8111
:104A500001969C838B838B819C810A9734F3CE01D2
:104A600007964AE050E0BC0189E892E00E94780590
:104A70006296E2E00C946033A1E1B0E0E2E4F5E29A
:104A80000C9444339C878B877E876D874F87398B47
:104A9000288B1A82198218861F828FEF9FEF9A87C0
:104AA00089878D859E852CDD01979E838D831C8251
:104AB0001B8235C02B813C818D859E85B9010E946A
:104AC0003532982F8F85981739F02B813C818D8155
:104AD0009E812817390711F481E001C080E0882306
:104AE000C9F089819A8101969A83898389859A85FB
:104AF000019698878F832B813C818D819E81281719
:104B0000390721F48B819C81019602C08B819C81A5
:104B10009A8789878B819C8101969C838B832B81CB
:104B20003C818D819E818217930744F029813A81CF
:104B300088899989821793070CF0BCCF29813A8123
:104B400088899989821793076CF489859A859C01D5
:104B50008F819885AC018B859C856D857E850E94B3
:104B6000363206C08B859C8566E371E00E949330E7
:104B700000008B859C856196E2E00C946033A4E094
:104B8000B0E0E5ECF5E20C9444339A8389837C83AE
:104B90006B8389819A81019711F58B819C810196A4
:104BA000F1F466E371E080E393E00E94933066E302
:104BB00071E086E393E00E94933066E371E08CE35A
:104BC00093E00E94933066E371E082E493E00E94F8
:104BD000933066E371E088E493E00E94933089812A
:104BE0009A81892BC1F48B819C810196A1F488E480
:104BF00093E00E942C3082E493E00E942C308CE3FE
:104C000093E00E942C3086E393E00E942C3080E3F6
:104C100093E00E942C302496E2E00C946033A0E0F4
:104C2000B0E0E5E1F6E20C9444336FEF7FEF81E012
:104C300090E0A5DFE2E00C946033A0E0B0E0E3E2B6
:104C4000F6E20C9444336FEF7FEF80E090E097DF63
:104C5000E2E00C946033A2E0B0E0E1E3F6E20C9411
:104C600044339A83898389819A8185569F4F0E9414
:104C70002C3089819A818B569F4F0E942C308981DC
:104C80009A818A5A9F4F0E9468132296E2E00C9400
:104C90006033A2E0B0E0EFE4F6E20C9444339A8390
:104CA000898389819A818E569F4F0E942C308981F9
:104CB0009A8184579F4F0E942C302296E2E00C94F8
:104CC0006033A0E0B0E0E7E6F6E20C944433909164
:104CD0004E0381E0892780934E0380914E03882301
:104CE00041F083E793E00E941F1C88E194E05CDBC5
:104CF00007C088E194E075DB83E793E00E94021C23
:104D0000E2E00C946033ACE4B0E0E9E8F6E20C9445
:104D100040339E01275B3F4FF90191838083CE0191
:104D2000855B9F4FFC0171836083CE01875B9F4F42
:104D3000FC0180819181019709F044C0CE01855B1F
:104D40009F4FFC01808191810196E1F58FE493E012
:104D50000E94061000910C0110910D012FE433E028
:104D6000CE018596B9010E94E616809108019091C6
:104D700009019E012B5D3F4F7801890121E040ED43
:104D800057E0BC0183E793E00E94181700910E01E1
:104D900010910F018FE493E0BC01CE0101960E94B7
:104DA000E61680910A0190910B0178019E012F5F18
:104DB0003F4F890121E048EE53E0BC0188E194E0D7
:104DC0000E94E61DCE01875B9F4FFC01808191818F
:104DD000892B71F4CE01855B9F4FFC01808191810D
:104DE000019631F488E194E054DF83E793E033DF08
:104DF000C45BDF4FE6E00C945C33A0E0B0E0E3E09E
:104E0000F7E20C9444336FEF7FEF81E090E07BDFBB
:104E1000E2E00C946033A0E0B0E0E1E1F7E20C9452
:104E200044336FEF7FEF80E090E06DDFE2E00C94C1
:104E30006033A6E0B0E0EFE1F7E20C9444339A83EC
:104E400089834B835C836D837E838B819C81AD8161
:104E5000BE81E981FA8126E0AC01BD01CF01DFD33B
:104E60002696E2E00C946033A2E0B0E0EAE3F7E2D9
:104E70000C9444339A83898381E02296E2E00C9477
:104E80006033A0E0B0E0E7E4F7E20C94443340E0A4
:104E900051EE60E070E08CE695E0CBDF00008CE640
:104EA00095E0E2DF982F81E089278823C1F765DB51
:104EB0008091A4019091A5010E94021C24E837E290
:104EC00048EE53E060E070E082EB94E00E94B80EA0
:104ED000E2E00C946033A0E0B0E0E1E7F7E20C948C
:104EE000443382EB94E00E94680C8091A40190917D
:104EF000A5010E94411B8091A6019091A7010E94EB
:104F0000121FE2E00C946033A0E0B0E0EAE8F7E2C0
:104F10000C94403380E695E0FC018081882381F485
:104F200012D7DC01CB018093680590936905A093AB
:104F30006A05B0936B0580E695E021E0FC012083D3
:104F40008091A2019091A3010E949B10982F81E073
:104F5000943009F080E0882391F083E494E0BC0170
:104F60008CE695E0D6D4ADDEEED6DC01CB018093A5
:104F7000680590936905A0936A05B0936B05E3D625
:104F80009B01AC018091680590916905A0916A052B
:104F9000B0916B0579018A01E81AF90A0A0B1B0B1B
:104FA000D801C701209110013091110140911201E7
:104FB0005091130161E0281739074A075B0708F091
:104FC00060E0662361F07DDEBED6DC01CB0180931C
:104FD000680590936905A0936A05B0936B0580916D
:104FE0004E03882339F08091A6019091A7010E9479
:104FF000DE1F06C08091A4019091A5010E94641853
:10500000E6E00C945C33A4E0B0E0E9E0F8E20C9454
:1050100044339A8389837C836B8389819A81019746
:1050200041F48B819C81019621F482EB94E00E94F3
:10503000020C2496E2E00C946033A0E0B0E0E3E2DE
:10504000F8E20C9444336FEF7FEF81E090E0DBDF18
:10505000E2E00C9460335058BB27AA270ED075C1EC
:1050600066D130F06BD120F031F49F3F11F41EF483
:105070005BC10EF4E095E7FB51C1E92F77D180F3D6
:10508000BA17620773078407950718F071F49EF545
:105090008FC10EF4E0950B2EBA2FA02D0B01B90194
:1050A00090010C01CA01A0011124FF27591B99F09E
:1050B000593F50F4503E68F11A16F040A22F232FAA
:1050C000342F4427585FF3CF469537952795A795FA
:1050D000F0405395C9F77EF41F16BA0B620B730BA1
:1050E000840BBAF09150A1F0FF0FBB1F661F771F12
:1050F000881FC2F70EC0BA0F621F731F841F48F4C7
:10510000879577956795B795F7959E3F08F0B3CF4C
:105110009395880F08F09927EE0F97958795089536
:10512000D9D008F481E008950CD00FC107D140F028
:10513000FED030F021F45F3F19F0F0C0511139C1B9
:10514000F3C014D198F39923C9F35523B1F3951BF8
:10515000550BBB27AA2762177307840738F09F5F98
:105160005F4F220F331F441FAA1FA9F333D00E2E07
:105170003AF0E0E830D091505040E695001CCAF774
:1051800029D0FE2F27D0660F771F881FBB1F261739
:1051900037074807AB07B0E809F0BB0B802DBF010C
:1051A000FF2793585F4F2AF09E3F510568F0B6C025
:1051B00000C15F3FECF3983EDCF3869577956795E9
:1051C000B795F7959F5FC9F7880F911D96958795BD
:1051D00097F90895E1E0660F771F881FBB1F6217DC
:1051E00073078407BA0720F0621B730B840BBA0B9A
:1051F000EE1F88F7E095089504D06894B111D9C0E6
:105200000895BCD088F09F5790F0B92F9927B751D7
:10521000A0F0D1F0660F771F881F991F1AF0BA957A
:10522000C9F712C0B13081F0C3D0B1E00895C0C059
:10523000672F782F8827B85F39F0B93FCCF3869570
:1052400077956795B395D9F73EF4909580957095CD
:1052500061957F4F8F4F9F4F0895E89409C097FB4A
:105260003EF490958095709561957F4F8F4F9F4F3D
:105270009923A9F0F92F96E9BB279395F695879581
:1052800077956795B795F111F8CFFAF4BB0F11F444
:1052900060FF1BC06F5F7F4F8F4F9F4F16C08823EB
:1052A00011F096E911C0772321F09EE8872F762F21
:1052B00005C0662371F096E8862F70E060E02AF062
:1052C0009A95660F771F881FDAF7880F969587954E
:1052D00097F90895990F0008550FAA0BE0E8FEEF23
:1052E00016161706E807F907C0F012161306E407AA
:1052F000F50798F0621B730B840B950B39F40A26A3
:1053000061F0232B242B252B21F408950A2609F480
:10531000A140A6958FEF811D811D089597F99F6784
:1053200080E870E060E008959FEF80EC089500242D
:105330000A941616170618060906089500240A94FA
:1053400012161306140605060895092E0394000C80
:1053500011F4882352F0BB0F40F4BF2B11F460FF0F
:1053600004C06F5F7F4F8F4F9F4F089557FD905838
:10537000440F551F59F05F3F71F04795880F97FB19
:10538000991F61F09F3F79F08795089512161306D3
:105390001406551FF2CF4695F1DF08C01616170602
:1053A0001806991FF1CF8695710561050894089537
:1053B000E894BB2766277727CB0197F908958ADF02
:1053C00008F48FEF08950BD0C0CFB1DF28F0B6DF1F
:1053D00018F0952309F0A2CFA7CF1124EACFC6DF9A
:1053E000A0F3959FD1F3950F50E0551F629FF001F8
:1053F000729FBB27F00DB11D639FAA27F00DB11D51
:10540000AA1F649F6627B00DA11D661F829F2227D9
:10541000B00DA11D621F739FB00DA11D621F839F60
:10542000A00D611D221F749F3327A00D611D231F36
:10543000849F600D211D822F762F6A2F11249F5784
:1054400050408AF0E1F088234AF0EE0FFF1FBB1FA7
:10545000661F771F881F91505040A9F79E3F510546
:1054600070F05CCFA6CF5F3FECF3983EDCF38695FF
:1054700077956795B795F795E7959F5FC1F7FE2BF1
:10548000880F911D9695879597F9089523DF880BCE
:10549000990B08950E94DF36FC01918D228D892F92
:1054A00090E0805C9F4F821B91098F73992708952C
:1054B000FC01918D828D981731F0828DE80FF11DDE
:1054C000858D90E008958FEF9FEF0895FC01918DF9
:1054D000828D981761F0828DDF01A80FB11D5D9656
:1054E0008C91928D9F5F9F73928F90E008958FEFC4
:1054F0009FEF089589EC9BE2892B41F080E090E0DA
:10550000892B21F046D181110C9400000895FC01F3
:10551000848DDF01A80FB11DA35ABF4F2C91848D3C
:1055200090E001968F739927848FA689B7892C9371
:10553000A089B1898C9180648C93938D848D98130C
:1055400006C00288F389E02D80818F7D80830895D5
:10555000CF93DF93EC01888D8823C1F0EA89FB8922
:10556000808185FD05C0A889B9898C9186FD0EC012
:105570000FB607FCF5CF808185FFF2CFA889B989E6
:105580008C9185FFEDCFCE01C2DFE8CFDF91CF91C7
:105590000895EF92FF920F931F93CF93DF93EC0147
:1055A00081E0888F9B8D8C8D981305C0E889F989DF
:1055B000808185FD23C0F62E0B8D10E00F5F1F4FFD
:1055C0000F731127E02E8C8DE8120BC00FB607FC6D
:1055D000FACFE889F989808185FFF5CFCE0197DF81
:1055E000F2CF8B8DFE01E80FF11DE35AFF4FF082E1
:1055F0000B8FEA89FB898081806207C0EE89FF8971
:105600006083E889F98980818064808381E090E00B
:10561000DF91CF911F910F91FF90EF900895CF925E
:10562000DF92EF92FF921F93CF93DF93EC016A0119
:105630007B01122FE889F98982E080834115514E60
:1056400061057105A9F060E079E08DE390E0A701C4
:105650009601BCD7DA01C9010197A109B109B69534
:10566000A79597958795AC01411580E15807A0F063
:10567000E889F989108260E874E88EE190E0A7017A
:105680009601A4D7BA01A9014150510961097109D4
:105690007695679557954795EC85FD855083EE8502
:1056A000FF854083188EEC89FD891083EA89FB8988
:1056B000808180618083EA89FB8980818860808322
:1056C000EA89FB89808180688083EA89FB898081FF
:1056D0008F7D8083DF91CF911F91FF90EF90DF90BE
:1056E000CF9008951F920F920FB60F9211242F930F
:1056F0008F939F93EF93FF93E0917C05F0917D054D
:105700008081E0918205F091830582FD12C0908135
:10571000809185058F5F8F7320918605821751F0E8
:10572000E0918505F0E0E459FA4F958F8093850567
:1057300001C08081FF91EF919F918F912F910F90E8
:105740000FBE0F901F9018951F920F920FB60F92D9
:1057500011242F933F934F935F936F937F938F9376
:105760009F93AF93BF93EF93FF938CE695E0CFDECB
:10577000FF91EF91BF91AF919F918F917F916F9129
:105780005F914F913F912F910F900FBE0F901F90FF
:1057900018958CE695E080DE21E0892B09F420E065
:1057A000822F0895ECE6F5E01382128288EE93E0F2
:1057B000A0E0B0E084839583A683B7838CEA91E070
:1057C0009183808385EC90E09587848784EC90E0DA
:1057D0009787868780EC90E0918B808B81EC90E0BE
:1057E000938B828B82EC90E0958B848B86EC90E09F
:1057F000978B868B118E128E138E148E08950895BA
:1058000017D3FDDF3EDBCAE7DAE265DB2097E9F379
:1058100071DEFBCF8EC70C942E34CF92DF92EF92C5
:10582000FF920F931F93CF93DF936C017A018B014B
:10583000C0E0D0E0CE15DF0589F0D8016D918D0173
:10584000D601ED91FC910190F081E02DC601099502
:10585000892B11F47E0102C02196ECCFC701DF91A4
:10586000CF911F910F91FF90EF90DF90CF9008950F
:105870006115710579F0FB0101900020E9F731977E
:10588000AF01461B570BDC01ED91FC910280F381C7
:10589000E02D099480E090E00895EF92FF920F933D
:1058A0001F93CF93DF938C017B01C0E0D0E0F70121
:1058B000EC0FFD1F6491662361F0D801ED91FC911E
:1058C0000190F081E02DC8010995892B11F02196F6
:1058D000EECFCE01DF91CF911F910F91FF90EF900E
:1058E0000895DC01ED91FC91DB0114964D915C91E2
:1058F00015976D917C910280F381E02D0994DC0174
:10590000ED91FC910190F081E02D099468EB71E03C
:10591000AFCF0F931F93CF93DF93EC01BEDF8C01CA
:10592000CE01F4DF800F911FDF91CF911F910F9176
:1059300008950F931F93CF93DF93EC01D2DF8C0177
:10594000CE01E4DF800F911FDF91CF911F910F9166
:1059500008958F929F92AF92BF92CF92DF92EF9273
:10596000FF920F931F93CF93DF93CDB7DEB7A1972D
:105970000FB6F894DEBF0FBECDBF7C01D42EC52E6E
:10598000DB0119A2223008F42AE08E010F5D1F4FBF
:10599000822E912CA12CB12C6D2D7C2DCD01A50139
:1059A000940114D6D22EC32EDA01015011096A30A7
:1059B00071058105910510F4605D01C0695CF80115
:1059C0006083232B242B252B39F7B801C70150DF27
:1059D000A1960FB6F894DEBF0FBECDBFDF91CF9179
:1059E0001F910F91FF90EF90DF90CF90BF90AF90FD
:1059F0009F908F900895CF92DF92EF92FF920F9336
:105A00001F93CF93DF93EC016A017B0121153105D0
:105A100079F4E881F9810190F081E02D642FDF9124
:105A2000CF911F910F91FF90EF90DF90CF9009944D
:105A30002A303105D9F477FF18C06DE260DF8C01A0
:105A400044275527BA014C195D096E097F092AE0E0
:105A5000CE017FDF800F911FDF91CF911F910F91BA
:105A6000FF90EF90DF90CF9008952AE0B701A60154
:105A7000CE01DF91CF911F910F91FF90EF90DF90BA
:105A8000CF9067CF0F931F93CF93DF93EC019A01D1
:105A9000AB01770F660B770BAEDF8C01CE0136DFE3
:105AA000800F911FDF91CF911F910F9108952115C4
:105AB000310541F4DC01ED91FC910190F081E02D84
:105AC000642F099446CF0F931F93CF93DF93EC017C
:105AD0009A01462F50E060E070E0E9DF8C01CE01D2
