:1000000061C2000087C2000085C200000DC7000069
:100010000BC7000009C700007DC200007BC20000C2
:1000200079C2000077C2000075C2000073C20000F0
:1000300071C200006FC200006DC200006BC2000000
:100040000C94322867C200000C942F260C94612671
:1000500061C200005FC200005DC200005BC2000020
:100060003DC3000057C200009B049F049F049F04EF
:100070009F049F049F049F049F039F049F049F0469
:100080009F049F049F049F049F039F049F049F0459
:100090009F049F049F049F04A8039F049F049F0440
:1000A0009F049F049F049F04D3039F049F049F0405
:1000B0009F049F049F049F04A8039F049F049F0420
:1000C0009F049F049F049F04D8039F049F049F04E0
:1000D0009F049F049F049F04DD039F049F049F04CB
:1000E0009F049F049F049F04F2039F049F049F04A6
:1000F0009F049F049F049F041F049F049F049F0468
:100100009F049F049F049F04E2039F049F049F0495
:100110009F049F049F049F04FE039F049F049F0469
:100120009F049F049F049F0421049F049F049F0435
:100130009F049F049F049F0421049F049F049F0425
:100140009F049F049F049F0421049F049F049F0415
:100150009F049F049F049F0421049F049F049F0405
:100160009F049F049F049F0429049F049F049F04ED
:100170009F049F049F049F0461049F049F049F04A5
:100180009F049F049F049F0429049F049F049F04CD
:100190009F049F049F049F0461049F049F049F0485
:1001A0009F049F049F049F0443049F049F049F0493
:1001B0009F049F049F049F0464049F049F049F0462
:1001C0009F049F049F049F0464049F049F049F0452
:1001D0009F049F049F049F047A049F049F049F042C
:1001E0009F049F049F049F0496049F049F049F0400
:1001F0009F049F049F049F0496049F049F049F04F0
:100200009F049F049F049F049F049F049F049F04D6
:100210009F049F049F049F049F049F049F049F04C6
:100220009F049F049F049F049F049F049F049F04B6
:100230009F049F049F049F049F049F049F049F04A6
:100240009F049F049F049F049F049F049F049F0496
:100250009F049F049F049F049F044E414E494E49B2
:100260005459494E46CDCCCC3D0AD7233C17B7D183
:100270003877CC2B329595E6241FB14F0A00002029
:10028000410000C84200401C4620BCBE4CCA1B0EA8
:100290005AAEC59D7400407A10F35A00A0724E18F1
:1002A000090010A5D4E80000E87648170000E40B28
:1002B00054020000CA9A3B000000E1F505000080EE
:1002C000969800000040420F000000A08601000048
:1002D00000102700000000E8030000000064000098
:1002E0000000000A00000000000100000000002CD7
:1002F00076D888DC674F0823DFC1DFAE59E1B1B79C
:1003000096E5E3E453C63AE651997696E8E6C28468
:1003100026EB898C9B62ED407C6FFCEFBC9C9F4080
:10032000F2BAA56FA5F490055A2AF75C936B6CF9A5
:10033000676DC11BFCE0E40D47FEF520E6B500D07B
:10034000ED902E0300943577050080841E08000090
:10035000204E0A000000C80C333333330F986E125E
:10036000831141EF8D2114893BE65516CFFEE6DB64
:1003700018D1844B381BF77C1D901DA4BBE42420AE
:100380003284725E228100C9F124ECA1E53D272070
:10039000202020202020202020202020202020007D
:1003A0004572726F72206E756D62657220666F7233
:1003B0002074686520617272617920746F206176A3
:1003C000726167696E67212F6E0050482052617715
:1003D0002052656164696E673A200054445320528C
:1003E00061772052656164696E673A20005F736CC3
:1003F0006176653A2000636D643A2000636D644461
:100400006174613A2000556E657870656374656447
:10041000206E756D626572206F66206279746573F7
:100420002072656365697665643A20007E72657343
:10043000706F6E7365496E646578206E6F742066A8
:100440006F756E643A20005B53656C656C63745D18
:10045000205072657373656400000000080002019B
:100460000000030407000000000000000001020477
:100470000810204080010204081020010204081026
:10048000200404040404040404020202020202031D
:1004900003030303030000000023002600290000DB
:1004A000000000250028002B000000000024002789
:1004B000002A0000CC06E70BA7208321DE228F262E
:1004C000B520912111241FBECFEFD8E0DEBFCDBFF4
:1004D00011E0A0E0B1E0E8EDF8E602C005900D9271
:1004E000A83DB107D9F725E0A8EDB1E001C01D9204
:1004F000AB3DB207E1F712E0C0E6D2E004C02197BD
:10050000FE010E94282DCA35D107C9F70E94BD26D9
:100510000C94603475CDA0E0B0E0E1E9F2E00C9419
:10052000482D1092D80181E08093DA011092DB010E
:1005300082E161E00E94AE2983E161E00E94AE2980
:1005400089EB90E029EB30E0F90120812E7FFC015E
:10055000208389EB90E029EB30E0F90120812D7FA9
:10056000FC01208388EB90E028E4FC0120838CEBE5
:1005700090E025E4FC012083E2E00C94642DA1E0EE
:10058000B0E0E5ECF2E00C94482D89838AEB90E032
:100590002981220FFC0120832196E2E00C94642D36
:1005A000A4E0B0E0E6EDF2E00C94482D9B838A8352
:1005B0006C838C81813210F081E023C08091D8015E
:1005C000843011F082E01DC08C8180932302198257
:1005D00013C08981882F90E02981222F30E04A8141
:1005E0005B81240F351FF90120818E5F9D4FFC0137
:1005F000208389818F5F898399818C81981748F343
:1006000080E02496E2E00C94642DA2E0B0E0EBE000
:10061000F3E00C94482D9A83898389819A81909381
:10062000DF018093DE012296E2E00C94642DA2E0CB
:10063000B0E0EDE1F3E00C94482D9A838983898141
:100640009A819093DD018093DC012296E2E00C9484
:10065000642DA1E0B0E0EFE2F3E00C94482D898333
:100660008981882331F08CEB90E025ECFC0120831C
:1006700005C08CEB90E025E8FC0120832196E2E0A8
:100680000C94642DA0E0B0E0E8E4F3E00C94482D75
:100690008CEB90E025EDFC01208301C000008CEB89
:1006A00090E0FC018081882F90E080719927892B50
:1006B000A9F71092D801E2E00C94642DA0E0B0E01C
:1006C000E4E6F3E00C94482D8CEB90E025ECFC0183
:1006D00020831092D801E2E00C94642D1F920F92B7
:1006E00000905F000F9211242F933F934F935F93DD
:1006F0006F937F938F939F93AF93BF93EF93FF93EA
:10070000CF93DF93CDB7DEB789EB90E0FC0180811A
:10071000882F90E0887F9927092E000CAA0BBB0B2D
:1007200040E050E028EF30E0841B950B2817390794
:1007300008F405C18C5C9F4FFC010C94282D8BEBB9
:1007400090E02091D901FC01208381E082DFF7C095
:100750009091000280910102981798F48BEB90E041
:100760002091000231E0320F30930002222F30E05E
:1007700020523E4FF9012081FC01208381E069DF96
:1007800011C08091DA01882311F07CDF0BC081E079
:100790008093DB018CEB90E024EAFC012083109233
:1007A000D801CDC0CCC080E2809345026BDFC7C0CA
:1007B00080E38093450266DFC2C088E380934502F0
:1007C0007DDFBDC08091000291E0980F9093000200
:1007D000882F90E02BEB30E0F901208180529E4F72
:1007E000FC0120839091000280910102981718F477
:1007F00081E02FDFA4C080E02CDFA1C08091000247
:1008000091E0980F90930002882F90E02BEB30E05E
:10081000F901208180529E4FFC0120838091DA01F2
:10082000882311F02FDF8BC081E08093DB018CEBFC
:1008300090E024EAFC0120831092D80180C022DFDE
:100840007EC083E08093D8011092440281E001DFF2
:1008500076C080914402803298F48091440291E005
:10086000980F90934402882F90E02BEB30E0F90131
:1008700020818C5D9D4FFC01208381E0EADE5FC01A
:1008800080E0E7DE5CC080914402803240F48091D9
:100890004402882F90E08C5D9D4FFC011082F2DEB7
:1008A0002091DE013091DF0180914402882F90E099
:1008B000BC0184E292E0F901099510924402FEDE47
:1008C0003EC080E0C6DE3BC084E08093D801109239
:1008D0002202109223028091DC019091DD01FC0143
:1008E000099580912302882329F481E080932302D3
:1008F000109202028BEB90E02091220231E0320F45
:1009000030932202222F30E02E5F3D4FF9012081EB
:10091000FC0120839091220280912302981718F401
:1009200081E097DE0CC080E094DE09C081E091DEBA
:100930001092D80104C010924502A4DE0000DF919D
:10094000CF91FF91EF91BF91AF919F918F917F9147
:100950006F915F914F913F912F910F9000925F00A7
:100960000F901F901895A4E0B0E0E9EBF4E00C9430
:10097000482D9A8389837C836B8389819A812B811B
:100980003C81FC01338322832496E2E00C94642DA5
:10099000A2E0B0E0EEECF4E00C94482D9A83898359
:1009A00089819A8124ED31E0FC01318320838981A2
:1009B0009A81FC01138212822296E2E00C94642D4B
:1009C000A2E0B0E0E6EEF4E00C94482D9A8389832F
:1009D00089819A81DDDF89819A8125E731E0FC01F7
:1009E0003183208329813A8188EE93E0A0E0B0E052
:1009F000F90184839583A683B7832296E2E00C9461
:100A0000642DA2E0B0E0E7E0F5E00C94482D9A8375
:100A1000898389819A81D4DF89819A8125E631E0B1
:100A2000FC01318320832296E2E00C94642DA2E045
:100A3000B0E0EDE1F5E00C94482D9A8389831092A3
:100A4000660210926702109288021092890263DD9A
:100A50002296E2E00C94642DA3E0B0E0E2E3F5E03E
:100A60000C94482D9A8389836B838B8188DD81E781
:100A700096E0DDDD8BE296E0C8DD89819A81D7DFE3
:100A80002396E2E00C94642DA3E0B0E0EAE4F5E004
:100A90000C94482D9A8389836B8380918A028823E2
:100AA000F9F080918902803240F089819A8161E079
:100AB00070E059DF80E090E019C080918802882FB3
:100AC00090E02B8188599D4FFC0120838091880202
:100AD0008F5F80938802809188028093890204C08E
:100AE000CE01039661E05CDD81E090E02396E2E0D8
:100AF0000C94642DA8E0B0E0E0E8F5E00C94482DFB
:100B00009C838B837E836D8358874F8380918A0279
:100B1000882329F11A8219821AC08B819C81FC01D9
:100B200080819181FC01208131814D815E818981AB
:100B30009A81840F951FFC0140818B819C81642FD9
:100B4000F901099589819A8101969A83898329817E
:100B50003A818F81988528173907F8F205C02F81CF
:100B60008D819E81622F1CDD8F8198852896E2E021
:100B70000C94642DA2E0B0E0E0ECF5E00C94482D7C
:100B80009A83898380916702282F30E080916602E2
:100B9000882F90E0A901481B590BCA012296E2E078
:100BA0000C94642DA4E0B0E0E8EDF5E00C94482D41
:100BB0009C838B838FEF9FEF9A838983909166024A
:100BC00080916702981788F480916602882F90E0E0
:100BD0008A5B9D4FFC018081882F90E09A838983F6
:100BE000809166028F5F8093660289819A81249644
:100BF000E2E00C94642DA4E0B0E0E1E0F6E00C94B7
:100C0000482D9C838B838FEF9FEF9A8389839091EC
:100C1000660280916702981760F480916602882FBF
:100C200090E08A5B9D4FFC018081882F90E09A8341
:100C3000898389819A812496E2E00C94642DA2E054
:100C4000B0E0E5E2F6E00C94482D9A838983229681
:100C5000E2E00C94642DA5E0B0E0E1E3F6E00C9452
:100C6000482D9B838A837D836C8380918D02909134
:100C70008E02892B09F431C090916602809167023F
:100C8000981708F42AC0198213C08981882F90E030
:100C90002981222F30E04A815B81240F351FF90121
:100CA00020818A5B9D4FFC01208389818F5F89832E
:100CB0008981282F30E08C819D81281739072CF3FA
:100CC000109266028C818093670220918D02309190
:100CD0008E028C819D81F90109952596E2E00C94A4
:100CE000642DA0E0B0E0E7E7F6E00C94482D809199
:100CF0008B0290918C02892B09F40AC01092880211
:100D00001092890280918B0290918C02FC010995CE
:100D1000E2E00C94642DA4E0B0E0E1E9F6E00C948C
:100D2000482D9A8389837C836B838B819C819093EC
:100D30008E0280938D022496E2E00C94642DA4E050
:100D4000B0E0E5EAF6E00C94482D9A8389837C8331
:100D50006B838B819C8190938C0280938B02249671
:100D6000E2E00C94642DA4E0B0E0E9EBF6E00C9432
:100D7000482D9A8389837C836B8389819A8101972B
:100D800039F48B819C81019619F48FE892E039DE69
:100D90002496E2E00C94642DA0E0B0E0E2EDF6E0F1
:100DA0000C94482D6FEF7FEF81E090E0DCDFE2E014
:100DB0000C94642DA2E0B0E0E0EEF6E00C94482D37
:100DC00089836A832296E2E00C94642DA4E0B0E06B
:100DD000ECEEF6E00C94482D9C838B838B819C81F8
:100DE0009A83898389819A810197F1F79A8389830C
:100DF0002496E2E00C94642DA2E0B0E0E2E0F7E09B
:100E00000C94482D9A83898389819A81FC01868577
:100E10009785FC01208189819A81FC018585822347
:100E20002296E2E00C94642D1F920F9200905F00D6
:100E30000F9211242F933F934F935F936F937F9360
:100E40008F939F93AF93BF93EF93FF93CF93DF93D2
:100E5000CDB7DEB72B97DEBFCDBF80919B029091BF
:100E60009C02892B09F4F4C080919B0290919C0212
:100E70009A8389831B8289819A81FC01868D827085
:100E8000882349F089819A81B7DF982F81E09923DF
:100E900051F480E008C089819A81AEDF982F81E00B
:100EA000992309F080E0882309F4D2C089819A81CE
:100EB0009D838C831E828E818823A1F08C819D81ED
:100EC000FC01838994892C813D81F901238934892E
:100ED000F90140812C813D81F9012589242BFC01F8
:100EE000208315C08C819D81FC01838994892C818C
:100EF0003D81F90123893489F9012081422F2C8118
:100F00003D81F901258920952423FC0120838981D5
:100F10009A81FC018689978959DF61E08DE04ADF7B
:100F200088E08F831FC089819A81FC01808D918D1B
:100F30004DDF8B81882F90E0959587958B8361E0BD
:100F40008DE038DF89819A8157DF982F81E09923DE
:100F500009F480E0882319F08B8180688B838F816E
:100F600081508F838F818823F1F689819A81FC01DA
:100F7000868D8270882319F08B8180958B83809178
:100F8000DD02882F90E001968F739078992324F4E6
:100F90000197806C9F6F019688879091DE0281E0B7
:100FA0002885291709F480E0882369F08091DD0203
:100FB000882F90E083569D4F2B81FC0120838885EC
:100FC0008093DD020AC061E08BE0F4DE89819A81C2
:100FD000FC01268D2160FC01268F89819A81FC010C
:100FE000828D938DF3DE61E08BE0E4DE89819A816E
:100FF0009A87898781E08B878B858823A1F08985F3
:101000009A85FC018389948929853A85F901238988
:101010003489F901408129853A85F9012589242BF4
:10102000FC01208315C089859A85FC0183899489F8
:1010300029853A85F90123893489F9012081422FD4
:1010400029853A85F901258920952423FC012083EF
:101050002B960FB6F894DEBF0FBECDBFDF91CF91B8
:10106000FF91EF91BF91AF919F918F917F916F9180
:101070005F914F913F912F910F9000925F000F90E1
:101080001F9018958F92AF92CF92EF920F93CF93BC
:10109000DF93CDB7DEB728970FB6F894DEBF0FBE4B
:1010A000CDBF9A8389836B834C832D830E83EF821C
:1010B000C88689819A816CDC89819A8125E831E032
:1010C000FC013183208389819A811F921F921F9294
:1010D0001F928884AF80CE80ED800C812FEF4B81F2
:1010E00061E012D00F900F900F900F9028960FB6DE
:1010F000F894DEBF0FBECDBFDF91CF910F91EF907F
:10110000CF90AF908F9008958F92AF92CF92EF9241
:101110000F93CF93DF93CDB7DEB72A970FB6F8942E
:10112000DEBF0FBECDBF9A8389836B834C832D8333
:101130000E83EF82C886A9868A8689819A812C814E
:10114000FC01248389819A812D81FC012583898179
:101150009A812E81FC01268389819A812F81FC014D
:10116000278389819A812885FC01208789819A813A
:101170002985FC01218789819A812A85FC012287A2
:1011800089819A812C89FC01238789819A812D8903
:10119000FC01248789819A812E89FC012587898118
:1011A0009A812F89FC01268789819A81FC0184819B
:1011B00061E00E94722989819A81FC0185818F3FBB
:1011C00039F089819A81FC01858161E00E94722950
:1011D00089819A81FC01868161E00E9472298B815C
:1011E000882329F089819A81FC01178605C08981AD
:1011F0009A8120E1FC01278789819A8120E041E0E2
:1012000060E10ED02A960FB6F894DEBF0FBECDBFB8
:10121000DF91CF910F91EF90CF90AF908F90089585
:10122000A5E0B0E0E6E1F9E00C94462D9A838983CD
:101230006B834C832D838C81823050F089819A811D
:10124000FC018785282F286089819A81FC012787E6
:1012500089819A812C81FC01238B8B81882F90E0DE
:10126000AC01405C5F4F8B81282F30E089819A81EF
:101270008A0140E450E060E070E0A4D08D818823D2
:1012800069F08C81813051F489819A81FC018785D4
:10129000282F246089819A81FC01278780E593ECBF
:1012A0000E94E62889819A81FC01848160E00E9485
:1012B000AE2989819A81FC01868160E00E94AE2975
:1012C00089819A81FC0185818F3F39F089819A81DA
:1012D000FC01858160E00E94AE2989819A81FC0130
:1012E0008785882F90E080719927892BE9F489817F
:1012F0009A8163E091D184E991E10E94E628898195
:101300009A8163E089D184E991E10E94E62889818C
:101310009A8163E081D186E990E00E94E628898184
:101320009A8162E079D126C089819A81FC01878502
:10133000282F206289819A81622FD6D084E991E199
:101340000E94E62889819A81FC018785282F2062E6
:1013500089819A81622FC8D086E990E00E94E628B0
:1013600089819A81FC018785282F206289819A8151
:10137000622FBAD089819A81FC018785282F20624B
:1013800089819A81622FB0D089819A8124E0FC0101
:10139000208B89819A8188D089819A813BD08981EB
:1013A0009A8122E0FC01218B89819A81FC0181894B
:1013B000282F246089819A81622F96D02596E4E0B7
:1013C0000C94622DAAE0B0E0E8EEF9E00C94462D12
:1013D0009A8389837C836B835E834D8338872F83D5
:1013E0001A8709872B8189819A81FC01248B2D81A1
:1013F00089819A81FC01258B2F8189819A81FC0149
:10140000268B298589819A81FC01278B2A96E4E025
:101410000C94622DA2E0B0E0E0E1FAE00C94482DDB
:101420009A83898389819A8161E05ED080ED97E01B
:101430000E94E6282296E2E00C94642DA6E0B0E03B
:10144000E4E2FAE00C94482D9C838B836D834E83F9
:1014500084E090E09A8389838E81843010F083E069
:101460008E838B819C81FC0193898E81891730F05A
:101470008B819C81FC01838981508E838E81882F92
:1014800090E02B813C81820F931F4496FC01908158
:101490008D81890F8068282F8B819C81622F24D0B9
:1014A0002696E2E00C94642DA2E0B0E0EAE5FAE0D2
:1014B0000C94482D9A83898389819A81FC018089C3
:1014C000282F246089819A81FC01208B89819A814F
:1014D000FC018089282F286089819A81622F04D09D
:1014E0002296E2E00C94642DA3E0B0E0EAE7FAE093
:1014F0000C94482D9A8389836B8389819A8140E07B
:101500006B8118D02396E2E00C94642DA3E0B0E048
:10151000ECE8FAE00C94482D9A8389836B838981E7
:101520009A8141E06B8106D081E090E02396E2E071
:101530000C94642DA4E0B0E0E0EAFAE00C94482DAD
:101540009A8389836B834C8389819A81FC0184818E
:101550006C810E94AE2989819A81FC0185818F3F2F
:1015600039F089819A81FC01858160E00E94AE2971
:1015700089819A81FC018785882F90E08071992765
:10158000892B29F089819A816B8185D014C08B8148
:10159000882F90E095958795959587959595879552
:1015A00095958795282F89819A81622F35D08981D9
:1015B0009A816B8131D02496E2E00C94642DA2E0F4
:1015C000B0E0E5EEFAE00C94482D9A838983898196
:1015D0009A81FC01868160E00E94AE2981E090E062
:1015E0000E94E62889819A81FC01868161E00E943F
:1015F000AE2981E090E00E94E62889819A81FC0171
:10160000868160E00E94AE2984E690E00E94E62890
:101610002296E2E00C94642DA5E0B0E0E2E1FBE06C
:101620000C94482D9C838B836D831A82198228C069
:101630002B813C8189819A81820F931F0796FC013F
:10164000808161E00E9472298D81882F90E009805D
:1016500002C0959587950A94E2F7482F41702B8137
:101660003C8189819A81820F931F0796FC018081BA
:10167000642F0E94AE2989819A8101969A83898379
:1016800089819A810497A4F28B819C8198DF2596A9
:10169000E2E00C94642DA5E0B0E0E1E5FBE00C9401
:1016A000482D9C838B836D831A82198228C02B81DD
:1016B0003C8189819A81820F931F0796FC0180816A
:1016C00061E00E9472298D81882F90E0098002C01C
:1016D000959587950A94E2F7482F41702B813C81BC
:1016E00089819A81820F931F0796FC018081642F64
:1016F0000E94AE2989819A8101969A838983898182
:101700009A810897A4F28B819C8159DF2596E2E0AB
:101710000C94642DA0E0B0E0E0E9FBE00C94482DCF
:101720008FED92E0FC018081882351F460E070E04D
:1017300089EE92E00AD08FED92E021E0FC01208357
:1017400089EE92E0E2E00C94642DA4E0B0E0EBEAD4
:10175000FBE00C94482D9A8389837C836B83898179
:101760009A812B813C81FC01318320830AD09C012A
:1017700089819A81FC01338322832496E2E00C94D0
:10178000642DA0E0B0E0E7ECFBE00C94482D80E095
:1017900094E0E2E00C94642DA4E0B0E0E2EDFBE024
:1017A0000C94482D9A8389837C836B8389819A81E9
:1017B000019749F48B819C81019629F4ABDF9093CA
:1017C000E8028093E7022496E2E00C94642DA0E006
:1017D000B0E0EDEEFBE00C94482D6FEF7FEF81E081
:1017E00090E0DADFE2E00C94642DA0E0B0E0EBEFF3
:1017F000FBE00C94482D0E947C28DC01CB01BC014D
:10180000CD01E2E00C94642DA8E0B0E0EAE0FCE059
:101810000C94482D98878F838F8198852DE831E02F
:10182000FC0131832083E1DFDC01CB018B839C83CE
:10183000AD83BE831A8219823DC02F81388589818C
:101840009A81820F931F82579F4FFC0110822F8134
:10185000388589819A814596880F991F820F931F39
:10186000FC01118210822F81388589819A81880F2D
:10187000991F880F991F820F931F9C012E5F3F4F66
:101880008B819C81AD81BE81F90180839183A2838C
:10189000B3832F81388589819A81CD96880F991FCE
:1018A000820F931FFC011182108289819A81019617
:1018B0009A83898389819A810A970CF4BECF8F819C
:1018C000988584559F4FFC01118210822896E2E092
:1018D0000C94642DA8E0B0E0E0E7FCE00C94442D0B
:1018E00098878F8382DFDC01CB018B839C83AD8360
:1018F000BE831A82198225C12F81388589819A81F8
:10190000845B9F4F880F991F820F931FFC011182E8
:1019100010822F81388589819A814596880F991F79
:10192000820F931FFC0180819181892B09F404C1EE
:101930002F81388589819A81880F991F880F991F77
:10194000820F931F0296FC0180819181A281B38155
:101950002B813C814D815E8179018A01E81AF90A67
:101960000A0B1B0BD801C7014F81588529813A8189
:10197000220F331F220F331F240F351F225C3F4FCE
:10198000F901208131814281538182179307A40795
:10199000B50708F4D1C02F81388589819A81880FD5
:1019A000991F880F991F820F931F0296FC01808157
:1019B0009181A281B3814F81588529813A81220F7B
:1019C000331F220F331F240F351F225C3F4FF901B5
:1019D0002081318142815381820F931FA41FB51F43
:1019E0004F81588529813A81220F331F220F331FDF
:1019F000240F351F2E5F3F4FF90180839183A2830F
:101A0000B3832F81388589819A81820F931F8257F2
:101A10009F4FFC018081882309F48EC02F81388577
:101A200089819A81C396880F991F820F931FFC01A9
:101A300080819181892B81F42F81388589819A81D8
:101A4000845B9F4F880F991F820F931F21E030E026
:101A5000FC013183208370C02F81388589819A8170
:101A6000CD96880F991F820F931FFC012081318131
:101A70004F81588589819A81C396880F991F840F59
:101A8000951FFC0180819181281739070CF054C003
:101A90002F81388589819A81845B9F4F880F991F98
:101AA000820F931F21E030E0FC01318320832F81DE
:101AB000388589819A81CD96880F991F820F931F4F
:101AC000FC01808191819C012F5F3F4F4F815885A0
:101AD00089819A81CD96880F991F840F951FFC01EB
:101AE000318320832F81388589819A81CD96880F13
:101AF000991F820F931FFC01208131814F815885EE
:101B000089819A81C396880F991F840F951FFC01C4
:101B100080819181281739077CF02F813885898150
:101B20009A81845B9F4F880F991F820F931F22E039
:101B300030E0FC013183208389819A8101969A8368
:101B4000898389819A810A970CF4D6CE1A821982E8
:101B500046C02F81388589819A81845B9F4F880F89
:101B6000991F820F931FFC01808191818130910523
:101B700019F0029781F02EC02F81388589819A81D2
:101B80004596880F991F820F931FFC0180819181D8
:101B9000FC0109951FC02F81388589819A8145965E
:101BA000880F991F820F931FFC0180819181FC0196
:101BB00009958F819885FC01808191810896FC01AF
:101BC0002081318149815A818F819885BA01F9013B
:101BD0000995000089819A8101969A838983898178
:101BE0009A810A970CF4B5CF2896E6E00C94602D04
:101BF000A4E0B0E0EEEFFDE00C94482D9C838B83D5
:101C00008B819C8184559F4FFC01808191810A9733
:101C10001CF08FEF9FEF1FC01A82198216C02B8114
:101C20003C8189819A814596880F991F820F931F65
:101C3000FC0180819181892B19F489819A810BC0E3
:101C400089819A8101969A83898389819A810A97E9
:101C500034F38FEF9FEF2496E2E00C94642DACE018
:101C6000B0E0E5E3FEE00C94462D9C838B834D832E
:101C70005E836F8378873A8729871C870B878B81E0
:101C80009C81B6DF9A83898389819A8199231CF488
:101C90008FEF9FEF6BC089859A85892B19F48FEFA1
:101CA0009FEF64C02B813C8189819A81880F991FA5
:101CB000880F991F820F931F9C01225C3F4F8D81DB
:101CC0009E81AF81B885F90180839183A283B3831C
:101CD0002B813C8189819A814596880F991F820FBB
:101CE000931F29853A85FC01318320832B813C8118
:101CF00089819A81C396880F991F820F931F2B8524
:101D00003C85FC01318320832B813C8189819A8130
:101D1000820F931F82579F4F21E0FC01208365DDD6
:101D2000DC01CB014B815C8129813A81220F331F79
:101D3000220F331F240F351F2E5F3F4FF901808381
:101D40009183A283B3838B819C8184559F4FFC0137
:101D5000808191819C012F5F3F4F8B819C818455B5
:101D60009F4FFC013183208389819A812C96E4E086
:101D70000C94622DA8E0B0E0E0ECFEE00C94442D61
:101D80009A8389834B835C836D837E8338872F831B
:101D900089819A81DC018D919C910696DC01ED91FF
:101DA000FC912F8138858B819C81AD81BE81E9803A
:101DB000FA8000E010E0AC01BD01C701099528964A
:101DC000E6E00C94602DA8E0B0E0E9EEFEE00C94B3
:101DD000442D9A8389834B835C836D837E8338870C
:101DE0002F8389819A81DC018D919C910696DC017B
:101DF000ED91FC912F8138858B819C81AD81BE81D5
:101E0000E980FA8001E010E0AC01BD01C70109954D
:101E10002896E6E00C94602DA4E0B0E0E2E1FFE05B
:101E20000C94482D9A8389837C836B838B819C815E
:101E30000A970CF069C089819A8184559F4FFC01F3
:101E400080819181892B09F45FC029813A818B813E
:101E50009C814596880F991F820F931FFC018081FA
:101E60009181892B09F450C029813A818B819C8111
:101E70004596880F991F820F931FFC0111821082D3
:101E800029813A818B819C81820F931F82579F4FBA
:101E9000FC01108229813A818B819C81845B9F4F58
:101EA000880F991F820F931FFC01118210822981D4
:101EB0003A818B819C81880F991F880F991F820F0F
:101EC000931FCE96FC011082118212821382298107
:101ED0003A818B819C81CD96880F991F820F931F29
:101EE000FC011182108289819A8184559F4FFC01E7
:101EF000808191819C012150310989819A81845589
:101F00009F4FFC01318320832496E2E00C94642DE2
:101F1000A4E0B0E0EEE8FFE00C94482D9A838983BA
:101F20007C836B838B819C810A970CF014C05DDCF1
:101F3000DC01CB0149815A812B813C81220F331F67
:101F4000220F331F240F351F2E5F3F4FF90180836F
:101F50009183A283B3832496E2E00C94642DA4E0E1
:101F6000B0E0E5EBFFE00C94482D9A8389837C83F5
:101F70006B838B819C810A9714F080E00AC02981D1
:101F80003A818B819C81820F931F82579F4FFC0166
:101F900080812496E2E00C94642DA4E0B0E0E3EDAF
:101FA000FFE00C94482D9A8389837C836B838B811B
:101FB0009C810A970CF00BC029813A818B819C810E
:101FC000820F931F82579F4F21E0FC0120832496AC
:101FD000E2E00C94642DA4E0B0E0E1EFFFE00C94AB
:101FE000482D9A8389837C836B838B819C810A979C
:101FF0000CF00AC029813A818B819C81820F931F4A
:1020000082579F4FFC0110822496E2E00C94642DCD
:10201000CF92EF920F93CF93DF9300D0CDB7DEB77F
:102020009A83898389819A810F2EF7E0CF2EF02D34
:102030000F2EF6E0EF2EF02D05E024E049E068E0F9
:1020400021D889819A8123EA31E0FC013183208300
:1020500089819A812AE0E5E1F1E0DC01589601905E
:102060000D922A95E1F789819A8125E030E0FC0103
:1020700033A322A389819A8108D00F900F90DF911A
:10208000CF910F91EF90CF900895A2E0B0E0EBE4F4
:10209000F0E10C94482D9A83898389819A8120E00C
:1020A00042E060E1BDD889819A81B4D989819A8161
:1020B00040E060E0C3D92296E2E00C94642DA4E0F5
:1020C000B0E0E5E6F0E10C94482D9A8389837C83A7
:1020D0006B832B8189819A81422F60E0AFD92FE8F1
:1020E00033E089819A81B9010E9407272496E2E0B2
:1020F0000C94642DA6E0B0E0E0E8F0E10C94482DEB
:102100009A8389837C836B835E834D832B813C819F
:1021100089819A81B901D3DF2B8189819A81422FEC
:1021200060E08CD989819A812D813E81B9010E941C
:102130002B272696E2E00C94642DA4E0B0E0E3EABD
:10214000F0E10C94482D9C838B838B819C8169D01A
:102150009A83898389819A818230910591F08330B5
:1021600091052CF4009749F0019749F010C0833095
:10217000910549F0049749F00AC080E009C081E068
:1021800007C082E005C083E003C084E001C085E0B1
:102190002496E2E00C94642DA6E0B0E0E2EDF0E1DC
:1021A0000C94482D9C838B837E836D831A821982C5
:1021B0001AC02B813C8189819A810C96880F991FC6
:1021C000820F931FFC01808191819C018D819E81F2
:1021D0008217930718F489819A811FC089819A8197
:1021E00001969A8389838B819C81FC0122A133A172
:1021F00089819A8182179307E4F28B819C81FC018B
:1022000022A133A189819A818217930724F08FEF4D
:102210009FEF9A83898389819A812696E2E00C94C4
:10222000642DA6E0B0E0E7E1F1E10C94482D9E8337
:102230008D8380E00E942C299A83898329813A81A9
:102240008D819E81B901A8DF9C838B838B819C81CA
:102250002696E2E00C94642DCF92DF92EF92FF92EB
:10226000CF93DF93CDB7DEB766970FB6F894DEBF96
:102270000FBECDBF988B8F877A8B698B1F82188694
:1022800019861A8689899A89181619065CF080EAD7
:1022900093E0BC018FE295E00E94432780E090E04C
:1022A000DC012BC189899A8905970CF049C01A82F3
:1022B000198220C089819A81880F991F2F853889BA
:1022C000820F931FFC0180819181092E000CAA0BC3
:1022D000BB0B2F81388549855A85820F931FA41F18
:1022E000B51F8F839887A987BA8789819A810196BC
:1022F0009A83898329813A8189899A89281739079C
:10230000CCF289899A899C01990F440B550B8F81D6
:102310009885A985BA85BC01CD010E940C2DDA01F2
:10232000C901BC01CD010E94F023DC01CB018B87E8
:102330009C87AD87BE878B859C85AD85BE85DDC0BE
:102340008F859889FC01208131818F85988902963B
:10235000FC0180819181281739077CF48F85988949
:10236000FC01808191819E838D838F859889FC01FA
:10237000828193819C838B830EC08F859889FC0119
:10238000828193819E838D838F859889FC018081D2
:1023900091819C838B8382E090E09A83898380C0C3
:1023A00089819A81880F991F2F853889820F931F01
:1023B000FC01208131818D819E812817390704F528
:1023C0008D819E81092E000CAA0BBB0B2F813885B5
:1023D00049855A85820F931FA41FB51F8F83988745
:1023E000A987BA8789819A81880F991F2F85388993
:1023F000820F931FFC01808191819E838D834BC04E
:1024000089819A81880F991F2F853889820F931FA0
:10241000FC01208131818B819C818217930704F517
:102420008B819C81092E000CAA0BBB0B2F81388558
:1024300049855A85820F931FA41FB51F8F839887E4
:10244000A987BA8789819A81880F991F2F85388932
:10245000820F931FFC01808191819C838B831BC021
:1024600089819A81880F991F2F853889820F931F40
:10247000FC0180819181092E000CAA0BBB0B2F81DE
:10248000388549855A85820F931FA41FB51F8F83F6
:102490009887A987BA8789819A8101969A838983C7
:1024A00029813A8189899A89281739070CF478CFCC
:1024B0006F81788589859A850E94F0236B017C0164
:1024C00089899A890297092E000CAA0BBB0BBC01C3
:1024D000CD010E94F023DC01CB019C01AD01C701BD
:1024E000B6010E945523DC01CB018B879C87AD8709
:1024F000BE878B859C85AD85BE85BC01CD0166966A
:102500000FB6F894DEBF0FBECDBFDF91CF91FF9025
:10251000EF90DF90CF900895A2E0B0E0E2E9F2E121
:102520000C94482D9A83898389819A81FC0180814A
:1025300091812296E2E00C94642DA4E0B0E0E3EAFD
:10254000F2E10C94482D9A8389837C836B83898183
:102550009A812B813C81B9010E946C2A2496E2E089
:102560000C94642DA4E0B0E0E8EBF2E10C94482D6B
:102570009A8389837C836B8389819A812B813C81B7
:10258000FC01318320832496E2E00C94642DA2E0C8
:10259000B0E0EDECF2E10C94482D9A8389838981B7
:1025A0009A81FC01808191810E944A342296E2E066
:1025B0000C94642DA2E0B0E0E0EEF2E10C94482D22
:1025C0009A83898389819A81E2DF2296E2E00C94E2
:1025D000642DA3E0B0E0EFEEF2E10C94482D9A8375
:1025E00089836B8389819A81FC01808191816B81D0
:1025F0000E94523489819A812396E2E00C94642DE2
:10260000A3E0B0E0E6E0F3E10C94482D9A838983DF
:102610006B8389819A81CEDF982F8B81981729F05F
:1026200089819A816B81D5DF02C089819A81239645
:10263000E2E00C94642DA6E0B0E0E1E2F3E10C945A
:10264000482D9C838B837E836D838D819E81BC010D
:10265000CE01019687DF89819A812696E2E00C946B
:10266000642DAAE0B0E0E7E3F3E10C94462D9E83ED
:102670008D8378876F835A8749871A8219821DC094
:102680000D811E81C80101979E838D838F8198855E
:102690009C012F5F3F4F38872F83BC018DEE92E066
:1026A000CADF9C838B83CE01039684DFF80180838D
:1026B00089819A8101969A83898329813A818985C2
:1026C0009A8528173907E0F22A96E4E00C94622DE7
:1026D000ABE0B0E0EEE6F3E10C94482D9F838E83EF
:1026E000798768875B874A871A82198220C08E8122
:1026F0009F81FC0180818B83888599859C012F5F58
:102700003F4F39872887BC018DEE92E094DF9D838F
:102710008C83CE0104966B8173DF8E819F8101973C
:102720009F838E8389819A8101969A8389832981E7
:102730003A818A859B8528173907C8F22B96E2E0F3
:102740000C94642DA4E0B0E0E8EAF3E10C94482D89
:102750009A8389837C836B8389819A8124ED31E01C
:10276000FC01318320838B819C81FC012281338198
:1027700089819A81FC01338322832496E2E00C94C0
:10278000642DA4E0B0E0E7ECF3E10C94482D9A83CB
:1027900089837C836B832B813C8189819A81B901F8
:1027A000D1DF89819A8125E831E0FC0131832083E2
:1027B0008B819C81FC01248189819A81FC01248385
:1027C0008B819C81FC01258189819A81FC01258373
:1027D0008B819C81FC01268189819A81FC01268361
:1027E00089819A812B813C8148E0F9013796DC018F
:1027F000179601900D924A95E1F78B819C81FC011F
:10280000278589819A81FC0127878B819C81FC0126
:10281000208989819A81FC01208B8B819C81FC011C
:10282000218989819A81FC01218B8B819C81FC010A
:10283000228989819A81FC01228B8B819C81FC01F8
:10284000238989819A81FC01238B29813A818B819B
:102850009C81FC0184899589A689B789F901848BBB
:10286000958BA68BB78B2496E2E00C94642DA4E0A4
:10287000B0E0EDE3F4E10C94482D9A8389837C83E6
:102880006B832B813C8189819A81B9017ADF8981AF
:102890009A8123EA31E0FC013183208389819A8186
:1028A0002B813C814AE0F9017896DC015896019031
:1028B0000D924A95E1F78B819C81FC0122A133A105
:1028C00089819A81FC0133A322A32496E2E00C942F
:1028D000642DABE0B0E0EFE6F4E10C94442D9A8374
:1028E00089837C836B835E834D832F83198708875D
:1028F000FB86EA8689819A812B813C81FC013183A8
:10290000208389819A81FC0117AE16AE89819A8154
:10291000805C9F4F2D813E81FC0131832083898122
:102920009A81865B9F4F2F81FC01208389819A8148
:10293000855B9F4F2A853B85FC01318320838981FC
:102940009A81825B9F4F28853985B90190DF898103
:102950009A818E589F4F6FE171E00E946C2A8981A5
:102960009A819C0128583F4F80E090E0A0E4B0E4B9
:10297000F90180839183A283B38389819A8104D0F2
:102980002B96E6E00C94602DA6E0B0E0EAECF4E1D2
:102990000C94482D9E838D8361E08DE00E94722906
:1029A0008D819E81855B9F4FFC018081918161E0DB
:1029B0000E9472298091A7019091A80123D3DC0184
:1029C000CB0189839A83AB83BC8329813A814B8174
:1029D0005C8169817A818B819C810E940325882397
:1029E00071F48D819E819C0128583F4F89819A8185
:1029F000AB81BC81F90180839183A283B383269646
:102A0000E2E00C94642DAAE0B0E0E9E0F5E10C947A
:102A1000482D9E838D834F83588769877A878D8160
:102A20009E819C0128583F4F8F819885A985BA8542
:102A3000F90180839183A283B3838D819E8188581D
:102A40009F4FFC0180819181A281B38189839A8308
:102A5000AB83BC838091A7019091A8019C01CE011A
:102A60000196BC01C901E1D22A96E2E00C94642DE2
:102A7000A8E0B0E0EEE3F5E10C94482D98878F8351
:102A80008F8198858E5B9F4FFC0180819181A2810F
:102A9000B38122E0AC01BD01CE0101960E94072B5B
:102AA000CE01019639DD9C018F8198858E589F4F0C
:102AB000B9010E949D2ACE0101960E94052A8F81AC
:102AC00098858E5B9F4FFC0180819181A281B381AB
:102AD000BC01CD012896E2E00C94642DA2E0B0E0A8
:102AE000E4E7F5E10C94442D9A83898389819A81E6
:102AF000835B9F4FFC01908181E08927882309F047
:102B00005CC089819A815DD0DC01CB0129813A8149
:102B10002E5B3F4FF90180839183A283B3838EEEB6
:102B200092E0FC018081882389F40E947C28DC01EA
:102B3000CB018093060390930703A0930803B093FF
:102B400009038EEE92E021E0FC0120830E947C28A4
:102B50009B01AC018091060390910703A0910803AB
:102B6000B091090379018A01E81AF90A0A0B1B0BD3
:102B7000D801C70121E081369A4EA105B10508F4BC
:102B800020E02223D1F089819A811BD0DC01CB0186
:102B900029813A812E5B3F4FF90180839183A28383
:102BA000B3830E947C28DC01CB01809306039093C1
:102BB0000703A0930803B09309032296E6E00C9460
:102BC000602DAEE0B0E0E7EEF5E10C94442D9E8779
:102BD0008D8786EF92E0FC018081882389F40E9432
:102BE0007C28DC01CB0180930A0390930B03A09314
:102BF0000C03B0930D0386EF92E021E0FC012083EB
:102C00000E947C289B01AC0180910A0390910B03E8
:102C1000A0910C03B0910D0379018A01E81AF90A19
:102C20000A0B1B0BD801C70121E0893E9340A10587
:102C3000B10508F420E0222309F4CFC08EE190E032
:102C40009E838D838D859E85FC01808191810E946C
:102C50002C2998878F838AEC93E0BC018FE295E062
:102C60000E9407278F8198854AE050E0BC018FE2DF
:102C700095E00E94FC278D859E85FC0186AD97AD71
:102C8000AC014F5F5F4F2D853E85F90157AF46AFD1
:102C90002D853E850196880F991F820F931F2F81E6
:102CA0003885FC01318320838D859E85FC0126AD0E
:102CB00037AD8D819E812817390729F48D859E8532
:102CC000FC0117AE16AE8D859E8502962D813E8144
:102CD000B901C2DADC01CB0189879A87AB87BC874F
:102CE00020E030E040EA50E469857A858B859C8558
:102CF0000E94A024DC01CB0120E030E040E854E455
:102D0000BC01CD010E945523DC01CB012D853E8500
:102D10002A5B3F4FF90180839183A283B3838D8522
:102D20009E858A5B9F4FFC0180819181A281B38146
:102D30009C01AD0160E070E080E290E40E94EC2232
:102D4000DC01CB012CEE31E548E35EE3BC01CD01B3
:102D50000E945523DC01CB0120E030E040EE50E43E
:102D6000BC01CD010E94ED22DC01CB017C018D0173
:102D70008D859E8588589F4FFC0180819181A2811D
:102D8000B3819C01AD01C801B7010E94ED22DC01B5
:102D9000CB0189839A83AB83BC8320E030E0A90117
:102DA00069817A818B819C810E945123882324F43C
:102DB00019821A821B821C820E947C28DC01CB01B2
:102DC00080930A0390930B03A0930C03B0930D031D
:102DD00089819A81AB81BC8109C08D859E858E5B7E
:102DE0009F4FFC0180819181A281B381BC01CD0103
:102DF0002E96E6E00C94602DA2E0B0E0E2E0F7E170
:102E00000C94482D9A83898389819A810E94052A8E
:102E10002296E2E00C94642DAAE1B0E0E2E1F7E151
:102E20000C94462D9A8F898F898D9A8D21DE8EEF95
:102E300092E0FC018081882389F40E947C28DC01D7
:102E4000CB0180930E0390930F03A0931003B093D4
:102E500011038EEF92E021E0FC0120830E947C2888
:102E60009B01AC0180910E0390910F03A091100380
:102E7000B0911103281B390B4A0B5B0B898D9A8D7E
:102E8000805C9F4FFC018081918180579E4F092E6D
:102E9000000CAA0BBB0B61E082179307A407B507D0
:102EA00008F060E0662309F46AC0898D9A8D865B1C
:102EB0009F4FFC018081882309F455C0CE010D96F7
:102EC0006FE171E00E946C2A898D9A8D835B9F4F20
:102ED000FC018081882331F0CE010D9660E271E023
:102EE0000E949D2A898D9A8D8C010E581F4FCE010C
:102EF000079662E271E021DBCE010796B8010E94DD
:102F0000AF2B67E271E00E94C02B9C01CE010D96B1
:102F1000BC01C9010E94AF2B9C01CE014396B901AF
:102F20000E94952ACE01079667DFCE014396BC0129
:102F3000CE0101960E94952A898D9A8D825B9F4FC2
:102F40009E012F5F3F4FA90160E070E0D3D8CE0112
:102F500001960E94052ACE0143960E94052ACE01C1
:102F60000D960E94052A0E947C28DC01CB018093EB
:102F70000E0390930F03A0931003B09311036A966E
:102F8000E4E00C94622DA2E0B0E0E9ECF7E10C94EF
:102F9000482D9A83898389819A81835B9F4F21E0A1
:102FA000FC01208389819A81855B9F4FFC01808190
:102FB000918161E00E94AE292296E2E00C94642D9A
:102FC000A2E0B0E0E6EEF7E10C94482D9A83898305
:102FD00089819A81835B9F4FFC01108289819A814C
:102FE000855B9F4FFC018081918160E00E94AE294A
:102FF00068EE73E080E090E00E94AD282296E2E067
:103000000C94642DA2E0B0E0E8E0F8E10C94482DC7
:103010009A83898389819A811CD0DC01CB01BC0110
:10302000CD012296E2E00C94642DA4E0B0E0EBE147
:10303000F8E10C94482D9A8389837C836B832B81E0
:103040003C8189819A81B90124D02496E2E00C94D4
:10305000642DA6E0B0E0EFE2F8E10C94482D9E83E9
:103060008D838D819E8133D0BC0183E090E09E01F1
:103070002F5F3F4F820F931F44E050E0F2DA8981C7
:103080009A81AB81BC81BC01CD012696E2E00C9413
:10309000642DA4E0B0E0EFE4F8E10C94482D9A83AD
:1030A00089837C836B8389819A8111D0BC0183E001
:1030B00090E02B813C81820F931F44E050E008DBBD
:1030C00089819A8104D02496E2E00C94642DA2E0D8
:1030D000B0E0EDE6F8E10C94482D9A83898389816C
:1030E0009A812296E2E00C94642DABE0B0E0EBE72D
:1030F000F8E10C94442D9A8389837C836B835E83EF
:103100004D832F8319870887FB86EA8689819A81F8
:103110002B813C81FC013183208389819A81FC01D0
:10312000178A168A89819A812D813E81FC01318F0F
:10313000208F89819A812F81FC01268F89819A8134
:103140002A853B85FC0130A3278F89819A81FC0168
:1031500013A212A289819A81849628853985B901A2
:1031600086DB89819A81885B9F4F69E271E00E94CA
:103170006C2A89819A81825B9F4F2EE031E0FC01AD
:103180003183208389819A8104D02B96E6E00C94C8
:10319000602DA6E0B0E0EFECF8E10C94482D9E83A2
:1031A0008D8361E08DE00E9472298D819E81FC01FA
:1031B000878D90A161E00E9472298091A701909172
:1031C000A8010496BFD2092E000CAA0BBB0BBC01B0
:1031D000CD010E94F023DC01CB0189839A83AB836C
:1031E000BC8329813A814B815C8169817A818B81A1
:1031F0009C810E940325882381F469817A818B81D7
:103200009C810E94BD23DC01CB019C018D819E81AC
:10321000825B9F4FFC01318320832696E2E00C9471
:10322000642DA4E0B0E0E7E1F9E10C94482D9A8325
:1032300089837C836B8389819A81825B9F4F2B81F9
:103240003C81FC013183208389819A819C01225B2E
:103250003F4F8091A7019091A8010496B90181D2B6
:103260002496E2E00C94642DA8E0B0E0EAE3F9E1F2
:103270000C94482D98878F838F819885FC01828DCF
:10328000938DA48DB58D20E0AC01BD01CE010196DA
:103290000E94072BCE0101963FD99C018F81988512
:1032A000885B9F4FB9010E949D2ACE0101960E9422
:1032B000052A8F819885FC01828D938DA48DB58D13
:1032C000BC01CD012896E2E00C94642DAAE1B0E0A7
:1032D000ECE6F9E10C94462D9A8F898F898D9A8DB1
:1032E000C3DF82E193E0FC018081882389F40E949E
:1032F0007C28DC01CB0180932A0390932B03A093BD
:103300002C03B0932D0382E193E021E0FC012083A4
:103310000E947C289B01AC0180912A0390912B0391
:10332000A0912C03B0912D03281B390B4A0B5B0B8A
:10333000898D9A8DFC01808D918D80579E4F092E2D
:10334000000CAA0BBB0B61E082179307A407B5071B
:1033500008F060E0662309F470C0898D9A8DFC0145
:10336000868D882309F453C0CE010D9669E271E081
:103370000E946C2A898D9A8DFC0181A1882331F0ED
:10338000CE010D966AE271E00E949D2A898D9A8D88
:103390008C01085B1F4FCE0107966CE271E0CDD81F
:1033A000CE010796B8010E94AF2B62E371E00E9444
:1033B000C02B9C01CE010D96BC01C9010E94AF2B10
:1033C0009C01CE014396B9010E94952ACE01079631
:1033D00013DDCE014396BC01CE0101960E94952AD1
:1033E000898D9A8D84969E012F5F3F4FA90161E0E0
:1033F00070E00E947A10CE0101960E94052ACE014B
:1034000043960E94052ACE010D960E94052A8DE062
:103410000E94DD29982F81E08927682F8DE00E9486
:10342000AE290E947C28DC01CB0180932A03909373
:103430002B03A0932C03B0932D036A96E4E00C9425
:10344000622DA2E0B0E0E7E2FAE10C94442D9A8309
:10345000898389819A81FC0191A181E08927882350
:1034600009F058C089819A8159D0DC01CB012981AA
:103470003A81F901828F938FA48FB58F8AE193E00F
:10348000FC018081882389F40E947C28DC01CB0127
:1034900080932E0390932F03A0933003B0933103B6
:1034A0008AE193E021E0FC0120830E947C289B01BB
:1034B000AC0180912E0390912F03A0913003B09125
:1034C000310379018A01E81AF90A0A0B1B0BD801AA
:1034D000C70121E081369A4EA105B10508F420E02C
:1034E0002223C1F089819A8119D0DC01CB01298185
:1034F0003A81F901828F938FA48FB58F0E947C2827
:10350000DC01CB0180932E0390932F03A093300313
:10351000B09331032296E6E00C94602DA2E1B0E076
:10352000E4E9FAE10C94442D9A8B898B82E293E0D2
:10353000FC018081882389F40E947C28DC01CB0176
:103540008093320390933303A0933403B0933503F5
:1035500082E293E021E0FC0120830E947C289B0111
:10356000AC018091320390913303A0913403B09168
:10357000350379018A01E81AF90A0A0B1B0BD801F5
:10358000C70121E0893E9340A105B10508F420E080
:10359000222309F493C08AE090E09A838983898981
:1035A0009A89FC01808191810E942C299C838B83C4
:1035B0008BED93E0BC018FE295E00E9407278B81A1
:1035C0009C814AE050E0BC018FE295E00E94FC271C
:1035D00089899A89FC0186899789AC014F5F5F4F81
:1035E00029893A89F901578B468B29893A890196AD
:1035F000880F991F820F931F2B813C81FC0131831F
:10360000208389899A89FC012689378989819A8151
:103610002817390729F489899A89FC01178A168A9B
:1036200089899A89029629813A81B9010E942C11CF
:10363000DC01CB018D839E83AF83B88720E030E02F
:1036400040EA5BE36D817E818F8198850E94A02492
:10365000DC01CB0189879A87AB87BC8789899A89E6
:10366000825B9F4FFC0180819181092E000CAA0B87
:10367000BB0BBC01CD010E94F023DC01CB012985ED
:103680003A854B855C85BC01CD010E94A024DC01FC
:10369000CB018D879E87AF87B88B0E947C28DC0189
:1036A000CB018093320390933303A0933403B09300
:1036B00035038D859E85AF85B88907C089899A892C
:1036C000FC01828D938DA48DB58DBC01CD016296D8
:1036D000E6E00C94602DA2E0B0E0E1E7FBE10C94A1
:1036E000482D9A83898389819A8121E0FC0121A355
:1036F00089819A81FC01878D90A161E00E94AE29A9
:103700002296E2E00C94642DA2E0B0E0EAE8FBE14E
:103710000C94482D9A83898389819A81FC0111A296
:1037200089819A81FC01878D90A160E00E94AE2979
:1037300068EE73E080E090E00E94AD282296E2E01F
:103740000C94642DA2E0B0E0E8EAFBE10C94482D73
:103750009A83898389819A8118D02296E2E00C9419
:10376000642DA4E0B0E0E7EBFBE10C94482D9A83D4
:1037700089837C836B832B813C8189819A81B90108
:1037800021D02496E2E00C94642DA4E0B0E0EBECB0
:10379000FBE10C94482D9C838B838B819C8131D0E1
:1037A000BC0181E090E09E012F5F3F4F820F931F8D
:1037B00042E050E00E94311389819A812496E2E030
:1037C0000C94642DA4E0B0E0E8EEFBE10C94482DED
:1037D0009A8389837C836B8389819A8112D0BC010F
:1037E00081E090E02B813C81820F931F42E050E00A
:1037F0000E94681389819A8104D02496E2E00C9497
:10380000642DA2E0B0E0E7E0FCE10C94482D9A833F
:10381000898389819A812296E2E00C94642DA2E04A
:10382000B0E0E5E1FCE10C94482D9A83898389811D
:103830009A81FC01848195812296E2E00C94642DAA
:10384000A4E0B0E0E6E2FCE10C94482D9A83898381
:103850007C836B832B813C8189819A81B9010E9491
:103860008F2B89819A812496E2E00C94642DA4E048
:10387000B0E0EDE3FCE10C94482D9A8389837C83CE
:103880006B832B813C8189819A81B9010E94D72B5E
:103890002496E2E00C94642DA4E0B0E0E2E5FCE1C3
:1038A0000C94482D9A8389837C836B8389819A81C8
:1038B0002B813C81B9010E94952A2496E2E00C9468
:1038C000642DA0E0B0E0E7E6FCE10C94482D8DEE1D
:1038D00093E0BC018FE295E00E9407274AE050E0A8
:1038E00068E08FE295E00E941D2868E08FE892E092
:1038F0000E942C056CE67EE18FE892E00E949F0614
:1039000062E77DE18FE892E00E948B06E2E00C9492
:10391000642DA4E3B0E0EFE8FCE10C94482D809125
:10392000AB019091AC018E589F4F0E948C12BC014C
:1039300084E593E00E949D2A8091AD019091AE01B3
:10394000885B9F4F0E948C12BC018AE593E00E9425
:103950009D2A8091AB019091AC0188589F4FFC014A
:1039600080819181A281B381FE01B79622E0AC01F2
:10397000BD01CF010E94352BCE0187960E948C128B
:10398000BC0182E793E00E949D2ACE0187960E94A7
:10399000052A8091AD019091AE01825B9F4FFC01A1
:1039A00020813181CE0181964AE0B9010E94B22A7C
:1039B000CE0181960E948C12BC0188E793E00E94A0
:1039C0009D2ACE0181960E94052A90917E0381E076
:1039D0008927882339F064E371E08CE693E00E9444
:1039E0009D2A06C067E371E08CE693E00E949D2A61
:1039F00080917F0390918003A0918103B091820315
:103A000028EE33E040E050E0BC01CD010E940C2DD7
:103A1000DA01C90189839A83AB83BC8389819A8146
:103A2000AB81BC81FE0175962AE0AC01BD01CF01DE
:103A30000E94DC2A9E012B5E3F4FCE014B96B901BE
:103A40002BDFCE014B966BE371E00E94C02BBC01D3
:103A500086E693E00E94802ACE014B96CDD9CE0116
:103A600045960E94052A8091100190911101A09124
:103A70001201B091130128EE33E040E050E0BC01A8
:103A8000CD010E940C2DDA01C9018D839E83AF8385
:103A9000B8878D819E81AF81B885FE0139962AE075
:103AA000AC01BD01CF010E94DC2A9E01275F3F4F80
:103AB000CE010F96B901F0DECE010F966BE371E0F7
:103AC0000E94C02BBC0180E693E00E94802ACE01B8
:103AD0000F9692D9CE0109960E94052AE496E2E05B
:103AE0000C94642DA7E2B0E0E8E7FDE10C94472DCB
:103AF0009FA38EA36DE371E086E393E00E949D2A6D
:103B00006DE371E082E493E00E949D2A6DE371E031
:103B100088E493E00E949D2A8EA19FA1449709F01A
:103B2000C7C00AC08FE892E00E94D20589836981EC
:103B300086E393E00E949D2B8FE892E00E94BA05F5
:103B400021E0181619060CF020E0222359F786E32D
:103B500093E00E947E2CCE0144966EE371E00E94B9
:103B60006C2ACE014496BC0186E393E00E941A2C95
:103B700011E0882309F410E0CE0144960E94052A42
:103B80001123A1F066E373E082E493E00E94802AAF
:103B900086EF93E0BC018FE295E00E94072762E484
:103BA00073E08FE295E00E94532792C066E373E0D2
:103BB00088E493E00E94802A8CEF93E0BC018FE2BE
:103BC00095E00E94072768E473E08FE295E00E9489
:103BD0005327CE010E9668E473E00E94952ACE0129
:103BE0004A96BE01625F7F4F20E030E04DE394D102
:103BF000CE010E960E94052ACE01089668E473E075
:103C00000E94952ACE018096BE01685F7F4F21E019
:103C100030E04DE381D1CE0108960E94052ACE0105
:103C20004A9660E471E023DE982F81E0992309F43D
:103C300080E0882389F0CE0180960E94D52CDC019B
:103C4000CB019B838A838091AD019091AE012A8143
:103C50003B81B901E6DA23C0CE014A966AE471E0FD
:103C600006DE982F81E0992309F480E08823B9F0DB
:103C7000CE0180960E94DF2CDC01CB018C839D83DA
:103C8000AE83BF832091AB013091AC018C819D81CB
:103C9000AE81BF81AC01BD01C9010E940315CE01F7
:103CA00080960E94052ACE014A960E94052A10C0DD
:103CB00086E094E0BC018FE295E00E9407278EA188
:103CC0009FA14AE050E0BC018FE295E00E94FC27F2
:103CD000A796E3E00C94632DA2E1B0E0E2E7FEE1F9
:103CE0000C94462DCE010D966DE371E00E946C2A76
:103CF0006EE371E082E493E0BADD982F81E09923CE
:103D000009F480E08823C1F0CE010D9663E571E0EF
:103D10000E949D2A9E01235F3F4FCE010796B90165
:103D20000E94952ACE010796A7D0CE0107960E9441
:103D3000052A00E010E094C08091060190910701EF
:103D4000019690930701809306018091060190915E
:103D50000701892B39F4CE010D9664E573E00E94CA
:103D6000802A6EC08091060190910701019739F475
:103D7000CE010D966AE573E00E94802A61C08091B1
:103D8000060190910701029739F4CE010D9662E782
:103D900073E00E94802A54C080910601909107012F
:103DA000039739F4CE010D9668E773E00E94802AEC
:103DB00047C08091060190910701049739F4CE0124
:103DC0000D966CE673E00E94802A3AC0809106014D
:103DD00090910701059739F4CE010D9666E673E0E0
:103DE0000E94802A2DC080910601909107010697BC
:103DF00069F4CE010D9660E673E00E94802A8FEF91
:103E00009FEF90930701809306011AC08CE294E023
:103E1000BC018FE295E0FBD78091060190910701EC
:103E20004AE050E0BC018FE295E00E94FC278FEF52
:103E30009FEF909307018093060100E010E010C00F
:103E4000CE010D96BC01CE0101960E94952ACE01AD
:103E5000019612D0CE0101960E94052A01E010E0E1
:103E6000CE010D960E94052A0130110509F40000CB
:103E70006296E4E00C94622DA2E1B0E0E2E4FFE19E
:103E80000C94482D9A8B898B89899A89C8DC9C016E
:103E90008AE090E0821B930B9E838D831A821982A5
:103EA0000AC089899A8969E571E0CADC89819A81A9
:103EB00001969A83898329813A818D819E81281771
:103EC00039077CF31C821B8216C02B813C818989B7
:103ED0009A89B9010E94392C482F9E01295F3F4FD2
:103EE0008B819C81820F931FFC0140838B819C817D
:103EF00001969C838B838B819C810A9734F3CE013E
:103F000007964AE050E0BC018FE892E00E947A05F3
:103F10006296E2E00C94642DA1E1B0E0E2E9FFE1F9
:103F20000C94482D9C878B877E876D874F87398BB4
:103F3000288B1A82198218861F828FEF9FEF9A872B
:103F400089878D859E856BDC01979E838D831C827E
:103F50001B8235C02B813C818D859E85B9010E94D5
:103F6000392C982F8F85981739F02B813C818D81C2
:103F70009E812817390711F481E001C080E0882371
:103F8000C9F089819A8101969A83898389859A8566
:103F9000019698878F832B813C818D819E81281784
:103FA000390721F48B819C81019602C08B819C8111
:103FB0009A8789878B819C8101969C838B832B8137
:103FC0003C818D819E818217930744F029813A813B
:103FD00088899989821793070CF0BCCF29813A818F
:103FE00088899989821793076CF489859A859C0141
:103FF0008F819885AC018B859C856D857E850E941F
:104000003A2C06C08B859C856DE371E00E946C2A7A
:1040100000008B859C856196E2E00C94642DA4E001
:10402000B0E0E5E1F0E20C94482D9A8389837C832B
:104030006B8389819A81019709F04DC08B819C81A6
:10404000019609F048C06DE371E086E393E00E94B9
:104050006C2A6DE371E08CE393E00E946C2A6DE3BF
:1040600071E082E493E00E946C2A6DE371E088E4E1
:1040700093E00E946C2A6DE371E08EE493E00E946D
:104080006C2A6DE371E084E593E00E946C2A6DE395
:1040900071E08AE593E00E946C2A6DE371E080E6AE
:1040A00093E00E946C2A6DE371E086E693E00E9443
:1040B0006C2A6DE371E08CE693E00E946C2A6DE35C
:1040C00071E082E793E00E946C2A6DE371E088E77B
:1040D00093E00E946C2A89819A81892BA1F58B81BA
:1040E0009C81019681F588E793E00E94052A82E78A
:1040F00093E00E94052A8CE693E00E94052A86E65A
:1041000093E00E94052A80E693E00E94052A8AE552
:1041100093E00E94052A84E593E00E94052A8EE43C
:1041200093E00E94052A88E493E00E94052A82E435
:1041300093E00E94052A8CE393E00E94052A86E31F
:1041400093E00E94052A2496E2E00C94642DA0E0FE
:10415000B0E0EDEAF0E20C94482D6FEF7FEF81E0E4
:1041600090E05DDFE2E00C94642DA0E0B0E0EBEBCA
:10417000F0E20C94482D6FEF7FEF80E090E04FDF8E
:10418000E2E00C94642DA2E0B0E0E9ECF0E20C94E3
:10419000482D9A83898389819A818E589F4F0E94E6
:1041A000052A2296E2E00C94642DA2E0B0E0EBED4B
:1041B000F0E20C94482D9A83898389819A81885BE7
:1041C0009F4F0E94052A2296E2E00C94642DA0E005
:1041D000B0E0EDEEF0E20C94482D90917E0381E08A
:1041E000892780937E0380917E03882341F087EAAC
:1041F00093E00E94E01783E294E06DDA07C083E267
:1042000094E082DA87EA93E00E94C317E2E00C941C
:10421000642DACE4B0E0EFE0F1E20C94442D9E019B
:10422000275B3F4FF90191838083CE01855B9F4FD0
:10423000FC0171836083CE01875B9F4FFC0180810D
:104240009181019709F044C0CE01855B9F4FFC012D
:10425000808191810196E1F583E893E00E94081046
:1042600000910C0110910D0123E833E0CE018596F9
:10427000B9010E94371480910801909109019E01B3
:104280002B5D3F4F7801890121E040ED57E0BC01F3
:1042900087EA93E00E94691400910E0110910F01CA
:1042A00083E893E0BC01CE0101960E94371480910F
:1042B0000A0190910B0178019E012F5F3F4F890108
:1042C00021E048EE53E0BC0183E294E00E947518BF
:1042D000CE01875B9F4FFC0180819181892B71F416
:1042E000CE01855B9F4FFC0180819181019631F465
:1042F00083E294E05ADF87EA93E045DFC45BDF4F57
:10430000E6E00C94602DA0E0B0E0E9E8F1E20C9466
:10431000482D6FEF7FEF81E090E07BDFE2E00C94CF
:10432000642DA0E0B0E0E7E9F1E20C94482D6FEFD6
:104330007FEF80E090E06DDFE2E00C94642DA6E07A
:10434000B0E0E5EAF1E20C94482D9A8389834B832F
:104350005C836D837E838B819C81AD81BE81E9818D
:10436000FA8126E0AC01BD01CF0116D42696E2E029
:104370000C94642DA2E0B0E0E0ECF1E20C94482D46
:104380009A83898381E02296E2E00C94642DA0E078
:10439000B0E0EDECF1E20C94482D40E051EE60E02D
:1043A00070E08FE295E0CBDF00008FE295E0E2DF86
:1043B000982F81E089278823C1F789E090E08870F1
:1043C0009927892B11F088E201C088E099E0977065
:1043D000892B982F88E10FB6F894A89580936000F8
:1043E0000FBE909360006DDA8091AB019091AC01AB
:1043F0000E94C31727E332E248EE53E060E070E02A
:1044000083E794E00E94BA0EE2E00C94642DA0E0F1
:10441000B0E0EDE0F2E20C94482D83E794E00E94D6
:104420006A0C8091AB019091AC010E940C178091B5
:10443000AD019091AE010E9466195ED6DC01CB0100
:1044400021E081159749A944B14008F420E02223D6
:1044500059F068EE73E080E090E07FD6809121050E
:1044600090912205FC010995E2E00C94642DA0E0F6
:10447000B0E0EDE3F2E20C94442DA89583E295E0E0
:10448000FC018081882381F437D6DC01CB01809345
:104490002B0590932C05A0932D05B0932E0583E258
:1044A00095E021E0FC0120838091A9019091AA016F
:1044B0000E949D10982F81E0943009F080E08823BD
:1044C00091F087E494E0BC018FE295E0DCD47FDEDC
:1044D00013D6DC01CB0180932B0590932C05A09380
:1044E0002D05B0932E0508D69B01AC0180912B05BC
:1044F00090912C05A0912D05B0912E0579018A018E
:10450000E81AF90A0A0B1B0BD801C70180937F0335
:1045100090938003A0938103B0938203FAD92091F2
:104520007F033091800340918103509182038091F9
:10453000100190911101A0911201B0911301821705
:104540009307A407B50764F442DED6D5DC01CB019E
:1045500080932B0590932C05A0932D05B0932E05E9
:1045600080917E03882339F08091AD019091AE0156
:104570000E94211A06C08091AB019091AC010E946B
:104580006E15E6E00C94602DA4E0B0E0EAECF2E2F7
:104590000C94482D9A8389837C836B8389819A81CB
:1045A000019741F48B819C81019621F483E794E08B
:1045B0000E94040C2496E2E00C94642DA0E0B0E08C
:1045C000E4EEF2E20C94482D6FEF7FEF81E090E093
:1045D000DBDFE2E00C94642D5058BB27AA270ED0F5
:1045E00075C166D130F06BD120F031F49F3F11F4EA
:1045F0001EF45BC10EF4E095E7FB51C1E92F77D1C2
:1046000080F3BA17620773078407950718F071F4EF
:104610009EF58FC10EF4E0950B2EBA2FA02D0B0145
:10462000B90190010C01CA01A0011124FF27591BF7
:1046300099F0593F50F4503E68F11A16F040A22FFD
:10464000232F342F4427585FF3CF4695379527956E
:10465000A795F0405395C9F77EF41F16BA0B620B6D
:10466000730B840BBAF09150A1F0FF0FBB1F661FB4
:10467000771F881FC2F70EC0BA0F621F731F841FF7
:1046800048F4879577956795B795F7959E3F08F01D
:10469000B3CF9395880F08F09927EE0F97958795DC
:1046A0000895D9D008F481E008950CD00FC107D146
:1046B00040F0FED030F021F45F3F19F0F0C051110E
:1046C00039C1F3C014D198F39923C9F35523B1F339
:1046D000951B550BBB27AA2762177307840738F071
:1046E0009F5F5F4F220F331F441FAA1FA9F333D0D0
:1046F0000E2E3AF0E0E830D091505040E695001C84
:10470000CAF729D0FE2F27D0660F771F881FBB1F3F
:10471000261737074807AB07B0E809F0BB0B802D19
:10472000BF01FF2793585F4F2AF09E3F510568F065
:10473000B6C000C15F3FECF3983EDCF386957795F9
:104740006795B795F7959F5FC9F7880F911D969567
:10475000879597F90895E1E0660F771F881FBB1FC3
:10476000621773078407BA0720F0621B730B840B70
:10477000BA0BEE1F88F7E095089504D06894B11144
:10478000D9C00895BCD088F09F5790F0B92F9927D1
:10479000B751A0F0D1F0660F771F881F991F1AF04C
:1047A000BA95C9F712C0B13081F0C3D0B1E0089515
:1047B000C0C0672F782F8827B85F39F0B93FCCF396
:1047C000869577956795B395D9F73EF49095809542
:1047D000709561957F4F8F4F9F4F0895E89409C062
:1047E00097FB3EF490958095709561957F4F8F4F24
:1047F0009F4F9923A9F0F92F96E9BB279395F6953A
:10480000879577956795B795F111F8CFFAF4BB0FB7
:1048100011F460FF1BC06F5F7F4F8F4F9F4F16C01B
:10482000882311F096E911C0772321F09EE8872FA5
:10483000762F05C0662371F096E8862F70E060E061
:104840002AF09A95660F771F881FDAF7880F9695DA
:10485000879597F90895990F0008550FAA0BE0E87E
:10486000FEEF16161706E807F907C0F01216130632
:10487000E407F50798F0621B730B840B950B39F472
:104880000A2661F0232B242B252B21F408950A26D8
:1048900009F4A140A6958FEF811D811D089597F918
:1048A0009F6780E870E060E008959FEF80EC0895D6
:1048B00000240A94161617061806090608950024FF
:1048C0000A9412161306140605060895092E039479
:1048D000000C11F4882352F0BB0F40F4BF2B11F4ED
:1048E00060FF04C06F5F7F4F8F4F9F4F089557FD4C
:1048F0009058440F551F59F05F3F71F04795880F4E
:1049000097FB991F61F09F3F79F0879508951216E4
:1049100013061406551FF2CF4695F1DF08C0161690
:1049200017061806991FF1CF869571056105089441
:104930000895E894BB2766277727CB0197F9089558
:104940000BD0C4CFB5DF28F0BADF18F0952309F0FB
:10495000A6CFABCF1124EECFCADFA0F3959FD1F342
:10496000950F50E0551F629FF001729FBB27F00D1D
:10497000B11D639FAA27F00DB11DAA1F649F662772
:10498000B00DA11D661F829F2227B00DA11D621FC1
:10499000739FB00DA11D621F839FA00D611D221F7B
:1049A000749F3327A00D611D231F849F600D211D5F
:1049B000822F762F6A2F11249F5750408AF0E1F002
:1049C00088234AF0EE0FFF1FBB1F661F771F881F4B
:1049D00091505040A9F79E3F510570F060CFAACF8B
:1049E0005F3FECF3983EDCF3869577956795B79536
:1049F000F795E7959F5FC1F7FE2B880F911D969560
:104A0000879597F9089527DF880B990B08950E94E1
:104A1000E330FC01918D228D892F90E0805C9F4FC7
:104A2000821B91098F7399270895FC01918D828DC6
:104A3000981731F0828DE80FF11D858D90E0089573
:104A40008FEF9FEF0895FC01918D828D981761F093
:104A5000828DDF01A80FB11D5D968C91928D9F5FB5
:104A60009F73928F90E008958FEF9FEF089586E8EF
:104A700096E2892B41F080E090E0892B21F046D12D
:104A800081110C9400000895FC01848DDF01A80FB2
:104A9000B11DA35ABF4F2C91848D90E001968F7366
:104AA0009927848FA689B7892C93A089B1898C9185
:104AB00080648C93938D848D981306C00288F3894B
:104AC000E02D80818F7D80830895CF93DF93EC016B
:104AD000888D8823C1F0EA89FB89808185FD05C026
:104AE000A889B9898C9186FD0EC00FB607FCF5CF59
:104AF000808185FFF2CFA889B9898C9185FFEDCFA0
:104B0000CE01C2DFE8CFDF91CF910895EF92FF92FF
:104B10000F931F93CF93DF93EC0181E0888F9B8DE0
:104B20008C8D981305C0E889F989808185FD23C0A3
:104B3000F62E0B8D10E00F5F1F4F0F731127E02E25
:104B40008C8DE8120BC00FB607FCFACFE889F98903
:104B5000808185FFF5CFCE0197DFF2CF8B8DFE01EF
:104B6000E80FF11DE35AFF4FF0820B8FEA89FB89B2
:104B70008081806207C0EE89FF896083E889F989B6
:104B800080818064808381E090E0DF91CF911F91EC
:104B90000F91FF90EF900895CF92DF92EF92FF92E6
:104BA0001F93CF93DF93EC016A017B01122FE889F9
:104BB000F98982E080834115514E61057105A9F0A4
:104BC00060E079E08DE390E0A701960103D7DA0178
:104BD000C9010197A109B109B695A7959795879540
:104BE000AC01411580E15807A0F0E889F9891082ED
:104BF00060E874E88EE190E0A7019601EBD6BA0177
:104C0000A901415051096109710976956795579538
:104C10004795EC85FD855083EE85FF854083188E92
:104C2000EC89FD891083EA89FB898081806180831A
:104C3000EA89FB89808188608083EA89FB89808199
:104C400080688083EA89FB8980818F7D8083DF9102
:104C5000CF911F91FF90EF90DF90CF9008951F921A
:104C60000F920FB60F9211242F938F939F93EF9370
:104C7000FF93E0913F05F09140058081E09145056B
:104C8000F091460582FD12C09081809148058F5FAA
:104C90008F7320914905821751F0E0914805F0E0AB
:104CA000E15DFA4F958F8093480501C08081FF91A7
:104CB000EF919F918F912F910F900FBE0F901F90AA
:104CC00018951F920F920FB60F9211242F933F93B6
:104CD0004F935F936F937F938F939F93AF93BF9304
:104CE000EF93FF938FE295E0CFDEFF91EF91BF91BD
:104CF000AF919F918F917F916F915F914F913F9174
:104D00002F910F900FBE0F901F9018958FE295E096
:104D100080DE21E0892B09F420E0822F0895EFE264
:104D2000F5E01382128288EE93E0A0E0B0E0848385
:104D30009583A683B78383EB91E09183808385EC91
:104D400090E09587848784EC90E09787868780EC55
:104D500090E0918B808B81EC90E0938B828B82EC46
:104D600090E0958B848B86EC90E0978B868B118EF0
:104D7000128E138E148E0895089533D2FDDF07DB53
:104D8000C7E3D5E244DB2097E9F371DEFBCFCF9296
:104D9000DF92EF92FF920F931F93CF93DF936C01FB
:104DA0007A018B01C0E0D0E0CE15DF0589F0D80193
:104DB0006D918D01D601ED91FC910190F081E02D76
:104DC000C6010995892B11F47E0102C02196ECCF12
:104DD000C701DF91CF911F910F91FF90EF90DF906E
:104DE000CF9008956115710579F0FB0101900020C5
:104DF000E9F73197AF01461B570BDC01ED91FC91B0
:104E00000280F381E02D099480E090E00895EF9214
:104E1000FF920F931F93CF93DF938C017B01C0E030
:104E2000D0E0F701EC0FFD1F6491662361F0D8011B
:104E3000ED91FC910190F081E02DC8010995892B3D
:104E400011F02196EECFCE01DF91CF911F910F91FE
:104E5000FF90EF900895DC01ED91FC91DB01149639
:104E60004D915C9115976D917C910280F381E02DBD
:104E70000994DC01ED91FC910190F081E02D099401
:104E80006FEB71E0AFCF0F931F93CF93DF93EC01E4
:104E9000BEDF8C01CE01F4DF800F911FDF91CF9137
:104EA0001F910F9108950F931F93CF93DF93EC0100
:104EB000D2DF8C01CE01E4DF800F911FDF91CF9113
:104EC0001F910F9108958F929F92AF92BF92CF92B0
:104ED000DF92EF92FF920F931F93CF93DF93CDB7A3
:104EE000DEB7A1970FB6F894DEBF0FBECDBF7C0131
:104EF000D42EC52EDB0119A2223008F42AE08E013F
:104F00000F5D1F4F822E912CA12CB12C6D2D7C2D6D
:104F1000CD01A50194015ED5D22EC32EDA01015038
:104F200011096A3071058105910510F4605D01C0B9
:104F3000695CF8016083232B242B252B39F7B801FA
:104F4000C70150DFA1960FB6F894DEBF0FBECDBFEC
:104F5000DF91CF911F910F91FF90EF90DF90CF9055
:104F6000BF90AF909F908F900895CF92DF92EF9275
:104F7000FF920F931F93CF93DF93EC016A017B01A4
:104F80002115310579F4E881F9810190F081E02D56
:104F9000642FDF91CF911F910F91FF90EF90DF90E1
:104FA000CF9009942A303105D9F477FF18C06DE20B
:104FB00060DF8C0144275527BA014C195D096E0941
:104FC0007F092AE0CE017FDF800F911FDF91CF9113
:104FD0001F910F91FF90EF90DF90CF9008952AE0FE
:104FE000B701A601CE01DF91CF911F910F91FF90E4
:104FF000EF90DF90CF9067CF0F931F93CF93DF9306
:10500000EC019A01AB01770F660B770BAEDF8C01D9
:10501000CE0136DF800F911FDF91CF911F910F914D
:1050200008952115310541F4DC01ED91FC910190C9
:10503000F081E02D642F099446CF0F931F93CF93F7
:10504000DF93EC019A01462F50E060E070E0E9DF69
:105050008C01CE0115DF800F911FDF91CF911F9141
:105060000F9108951F920F920FB60F9211242F9354
:105070003F938F939F93AF93BF938091CD05909172
:10508000CE05A091CF05B091D0053091CC0523E09D
:10509000230F2D3720F40196A11DB11D05C026E870
:1050A000230F0296A11DB11D2093CC058093CD0541
:1050B0009093CE05A093CF05B093D0058091D105F4
:1050C0009091D205A091D305B091D4050196A11D70
:1050D000B11D8093D1059093D205A093D305B093D1
:1050E000D405BF91AF919F918F913F912F910F90D8
:1050F0000FBE0F901F9018952FB7F8946091CD05B3
:105100007091CE058091CF059091D0052FBF089565
:105110003FB7F8948091D1059091D205A091D30525
:10512000B091D40526B5A89B05C02F3F19F0019674
:10513000A11DB11D3FBFBA2FA92F982F8827820F1D
:10514000911DA11DB11DBC01CD0142E0660F771F6D
:10515000881F991F4A95D1F708958F929F92AF9219
:10516000BF92CF92DF92EF92FF926B017C01D0DF72
:105170004B015C01C114D104E104F104F1F029D424
:10518000C7DFDC01CB0188199909AA09BB09883E50
:105190009340A105B10570F321E0C21AD108E108DE
:1051A000F10888EE880E83E0981EA11CB11CC11482
:1051B000D104E104F10421F7DDCFFF90EF90DF90FF
:1051C000CF90BF90AF909F908F90089582309105BF
:1051D00038F0880F991F880F991F05970197F1F7ED
:1051E0000895789484B5826084BD84B5816084BD5F
:1051F00085B5826085BD85B5816085BDEEE6F0E050
:10520000808181608083E1E8F0E0108280818260AB
:105210008083808181608083E0E8F0E0808181602C
:105220008083E1EBF0E0808184608083E0EBF0E05C
:10523000808181608083EAE7F0E080818460808300
:1052400080818260808380818160808380818068AA
:1052500080831092C10008958E3008F08E508770C0
:105260002091140190E4299F90011124822B8093B6
:105270007C0080917A00806480937A0080917A002B
:1052800086FDFCCF809178002091790090E0922BF0
:105290000895833081F028F4813099F08230A1F0B4
:1052A00008958730A9F08830B9F08430D1F4809126
:1052B00080008F7D03C0809180008F778093800075
:1052C000089584B58F7702C084B58F7D84BD08951D
:1052D0008091B0008F7703C08091B0008F7D809364
:1052E000B0000895CF93DF9390E0FC01E359FB4FAA
:1052F0002491FC01EF57FB4F8491882361F190E0EA
:10530000880F991FFC01E755FB4FC591D491FC0113
:10531000E156FB4FA591B491611109C09FB7F89474
:105320008881209582238883EC912E230BC06230E4
:1053300061F49FB7F8943881822F80958323888306
:10534000EC912E2B2C939FBF06C08FB7F894E88169
:105350002E2B28838FBFDF91CF9108951F93CF937A
:10536000DF93282F30E0F901E75AFB4F8491F901D0
:10537000E359FB4FD491F901EF57FB4FC491CC2374
:10538000C1F0162F811185DFEC2FF0E0EE0FFF1F2B
:10539000E156FB4FA591B4918FB7F894111105C058
:1053A0009C91ED2FE095E92302C0EC91ED2BEC935D
:1053B0008FBFDF91CF911F910895CF93DF93282F57
:1053C00030E0F901E75AFB4F8491F901E359FB4FB3
:1053D000D491F901EF57FB4FC491CC2389F081118F
:1053E00058DFEC2FF0E0EE0FFF1FEB56FB4FA591BF
:1053F000B491EC91ED2381E090E021F480E002C0D3
:1054000080E090E0DF91CF910895FC01808191814F
:1054100029C4CF93DF93EC0188819981009709F02B
:1054200021D4198218821D821C821B821A82DF916C
:10543000CF9108950F931F93CF93DF93EC018B01CE
:105440006F5F7F4F88819981A5D4009731F0998350
:1054500088831B830A8381E001C080E0DF91CF91C4
:105460001F910F910895CF93DF93EC01888199816B
:10547000892B29F08A819B818617970758F4CE01E2
:10548000D9DF882341F08C819D81892B19F4E88133
:10549000F981108281E0DF91CF910895EF92FF9220
:1054A0000F931F93CF93DF93EC017B018A01BA0125
:1054B000DADF811103C0CE01ACDF06C01D830C838F
:1054C000B70188819981DED6CE01DF91CF911F91FE
:1054D0000F91FF90EF900895FC01118210821382CA
:1054E0001282158214826115710549F0FB01019049
:1054F0000020E9F73197AF01461B570BCFCF089536
:10550000CF93DF93EC01FB018617970751F0608181
:1055100071816115710521F044815581BFDF01C0A2
:1055200078DFCE01DF91CF910895FC0111821082C6
:105530001382128215821482E3CFCF93DF93EC01A2
:105540006115710551F0FB0101900020E9F73197D9
:10555000AF01461B570BA2DF01C05BDFCE01DF911D
:10556000CF9108950F931F93CF93DF93CDB7DEB7FD
:1055700062970FB6F894DEBF0FBECDBF8C01CB0192
:10558000F80111821082138212821582148250E077
:10559000BE016F5F7F4F8BD6BE016F5F7F4FC8012B
:1055A000CCDF62960FB6F894DEBF0FBECDBFDF91A1
:1055B000CF911F910F9108950F931F93CF93DF9376
:1055C000CDB7DEB7A2970FB6F894DEBF0FBECDBF42
:1055D0008C01CB01BA01F801118210821382128270
:1055E0001582148230E0AE014F5F5F4F74D6BE016A
:1055F0006F5F7F4FC801A1DFA2960FB6F894DEBFA0
:105600000FBECDBFDF91CF911F910F910895EF9203
:10561000FF920F931F93CF93DF93CDB7DEB7A19780
:105620000FB6F894DEBF0FBECDBF7C01CB01BA012F
:10563000F70111821082138212821582148242E0D5
:10564000420F8E010F5F1F4F59D2BC01C70175DF9A
:10565000A1960FB6F894DEBF0FBECDBFDF91CF91FC
:105660001F910F91FF90EF900895EF92FF920F938B
:105670001F93CF93DF93CDB7DEB7A1970FB6F89402
:10568000DEBF0FBECDBF7C01CB01BA01F701118295
:105690001082138212821582148242E0420F8E0120
:1056A0000F5F1F4F2BD2BC01C70147DFA1960FB67A
:1056B000F894DEBF0FBECDBFDF91CF911F910F9148
:1056C000FF90EF900895EF92FF920F931F93CF9367
:1056D000DF93FC01248135816115710511F480E0AF
:1056E00017C04115510599F07B01EC018A01020FA9
:1056F000131FB801B8DE882391F3288139818C818A
:105700009D81B701820F931FBDD51D830C8381E05E
:10571000DF91CF911F910F91FF90EF900895611548
:10572000710549F0FB0101900020E9F73197AF01C5
:10573000461B570BC8CF80E00895CF93DF9300D06E
:10574000CDB7DEB769831A8241E050E0BE016F5FDA
:105750007F4FB9DF0F900F90DF91CF910895CF93D6
:10576000DF93EC01FB014481558160817181ABDFE6
:10577000811102C0CE014DDECE01DF91CF9108959F
:10578000CF93DF93EC016115710559F0FB01019096
:105790000020E9F73197AF01461B570B94DF8111C9
:1057A00002C0CE0136DECE01DF91CF910895FC011B
:1057B00024813581232B31F421E06115710599F0A5
:1057C000FB0108C0FC01808191816115710531F4F4
:1057D00021E0FC018081882331F004C04AD521E01A
:1057E000892B09F020E0822F0895DB011496ED91BA
:1057F000FC911597DC0114962D913C9115972E1B69
:105800003F0B2417350798F02D913C912115310558
:1058100071F0DB016D917C916115710541F0CA0158
:10582000AF01820F931F35D521E0892B09F020E0CD
:10583000822F0895FC0144815581FB01248135812B
:105840004217530718F040E050E0CFCF80E00895B2
:10585000FC01248135816217730748F480819181AE
:10586000009729F0FC01E60FF71F8081089580E082
:105870000895EECFBF92CF92DF92EF92FF920F93F7
:105880001F93CF93DF937C016B018A01E9012417F9
:10589000350720F4812F8901C42FD82F61EC71E0E6
:1058A000C7011ADED60114968D919C9115970817A1
:1058B0001907C8F48C179D0708F4EC01D601ED9187
:1058C000FC911197EC0FFD1FB08010824D915C91FF
:1058D000BA01600F711FC70130DED601ED91FC9156
:1058E000EC0FFD1FB082C701DF91CF911F910F9187
:1058F000FF90EF90DF90CF90BF900895AF92BF924E
:10590000CF92DF92EF92FF920F931F93CF93DF938B
:10591000DC01CD90DC901197C114D104D9F114961B
:10592000CD91DC9115972097A9F18C015601750155
:10593000BFEFAB1ABB0AF701808190E071D4892BCD
:10594000B1F72197CC0DDD1D888190E069D4892BBA
:1059500089F4AE014F5F5F4F4E195F09D80115966C
:105960005C934E931497CE14DF0448F4B701C6013C
:1059700077D405C0CE15DF0560F32197E5CFD801B8
:10598000ED91FC91119714968D919C911597E80FCC
:10599000F91F1082DF91CF911F910F91FF90EF902F
:1059A000DF90CF90BF90AF900895FC0180819181EE
:1059B000009709F00FC460E070E0CB010895FC018E
:1059C00080819181009709F002C460E070E0CB0112
:1059D00008950895A1E21A2EAA1BBB1BFD010DC05C
:1059E000AA1FBB1FEE1FFF1FA217B307E407F5078F
:1059F00020F0A21BB30BE40BF50B661F771F881F6B
:105A0000991F1A9469F760957095809590959B0100
:105A1000AC01BD01CF010895052E97FB16F400944B
:105A20000FD057FD05D0D6DF07FC02D046F408C0E2
:105A300050954095309521953F4F4F4F5F4F0895BA
:105A400090958095709561957F4F8F4F9F4F0895EA
:105A5000EE0FFF1F0590F491E02D099440D0A59F13
:105A6000900DB49F900DA49F800D911D1124089559
:105A70002F923F924F925F926F927F928F929F925E
:105A8000AF92BF92CF92DF92EF92FF920F931F934C
:105A9000CF93DF93CDB7DEB7CA1BDB0B0FB6F894FD
:105AA000DEBF0FBECDBF09942A88398848885F843D
:105AB0006E847D848C849B84AA84B984C884DF80AE
:105AC000EE80FD800C811B81AA81B981CE0FD11D92
:105AD0000FB6F894DEBF0FBECDBFED010895A29FB3
